{
	"contracts/FeedFactory.sol": {
		"FeedFactory": {
			"abi": [
				{
					"inputs": [
						{
							"internalType": "string",
							"name": "name",
							"type": "string"
						}
					],
					"name": "createRandomFeed",
					"outputs": [],
					"stateMutability": "nonpayable",
					"type": "function"
				},
				{
					"inputs": [
						{
							"internalType": "uint256",
							"name": "",
							"type": "uint256"
						}
					],
					"name": "feeds",
					"outputs": [
						{
							"internalType": "string",
							"name": "name",
							"type": "string"
						},
						{
							"internalType": "uint256",
							"name": "dna",
							"type": "uint256"
						},
						{
							"internalType": "uint256",
							"name": "price",
							"type": "uint256"
						}
					],
					"stateMutability": "view",
					"type": "function"
				},
				{
					"inputs": [
						{
							"internalType": "uint256",
							"name": "_id",
							"type": "uint256"
						}
					],
					"name": "getFeed",
					"outputs": [
						{
							"internalType": "string",
							"name": "",
							"type": "string"
						},
						{
							"internalType": "uint256",
							"name": "",
							"type": "uint256"
						},
						{
							"internalType": "uint256",
							"name": "",
							"type": "uint256"
						}
					],
					"stateMutability": "view",
					"type": "function"
				}
			],
			"devdoc": {
				"kind": "dev",
				"methods": {},
				"version": 1
			},
			"evm": {
				"assembly": "    /* \"contracts/FeedFactory.sol\":61:1076  contract FeedFactory {... */\n  mstore(0x40, 0x80)\n    /* \"contracts/FeedFactory.sol\":258:260  14 */\n  0x0e\n    /* \"contracts/FeedFactory.sol\":241:260  uint dnaDigits = 14 */\n  0x00\n  sstore\n    /* \"contracts/FeedFactory.sol\":291:300  dnaDigits */\n  sload(0x00)\n    /* \"contracts/FeedFactory.sol\":285:287  10 */\n  0x0a\n    /* \"contracts/FeedFactory.sol\":285:300  10 ** dnaDigits */\n  tag_1\n  swap2\n  swap1\n  tag_2\n  jump\t// in\ntag_1:\n    /* \"contracts/FeedFactory.sol\":267:300  uint dnaModulus = 10 ** dnaDigits */\n  0x01\n  sstore\n    /* \"contracts/FeedFactory.sol\":61:1076  contract FeedFactory {... */\n  callvalue\n  dup1\n  iszero\n  tag_3\n  jumpi\n  0x00\n  dup1\n  revert\ntag_3:\n  pop\n  jump(tag_4)\n    /* \"#utility.yul\":7:187   */\ntag_5:\n    /* \"#utility.yul\":55:132   */\n  0x4e487b7100000000000000000000000000000000000000000000000000000000\n    /* \"#utility.yul\":52:53   */\n  0x00\n    /* \"#utility.yul\":45:133   */\n  mstore\n    /* \"#utility.yul\":152:156   */\n  0x11\n    /* \"#utility.yul\":149:150   */\n  0x04\n    /* \"#utility.yul\":142:157   */\n  mstore\n    /* \"#utility.yul\":176:180   */\n  0x24\n    /* \"#utility.yul\":173:174   */\n  0x00\n    /* \"#utility.yul\":166:181   */\n  revert\n    /* \"#utility.yul\":193:295   */\ntag_6:\n    /* \"#utility.yul\":235:243   */\n  0x00\n    /* \"#utility.yul\":282:287   */\n  dup2\n    /* \"#utility.yul\":279:280   */\n  0x01\n    /* \"#utility.yul\":275:288   */\n  shr\n    /* \"#utility.yul\":254:288   */\n  swap1\n  pop\n    /* \"#utility.yul\":193:295   */\n  swap2\n  swap1\n  pop\n  jump\t// out\n    /* \"#utility.yul\":301:1149   */\ntag_7:\n    /* \"#utility.yul\":362:367   */\n  0x00\n    /* \"#utility.yul\":369:373   */\n  dup1\n    /* \"#utility.yul\":393:399   */\n  dup3\n    /* \"#utility.yul\":384:399   */\n  swap2\n  pop\n    /* \"#utility.yul\":417:422   */\n  dup4\n    /* \"#utility.yul\":408:422   */\n  swap1\n  pop\n    /* \"#utility.yul\":431:1143   */\ntag_14:\n    /* \"#utility.yul\":452:453   */\n  0x01\n    /* \"#utility.yul\":442:450   */\n  dup6\n    /* \"#utility.yul\":439:454   */\n  gt\n    /* \"#utility.yul\":431:1143   */\n  iszero\n  tag_16\n  jumpi\n    /* \"#utility.yul\":547:551   */\n  dup1\n    /* \"#utility.yul\":542:545   */\n  dup7\n    /* \"#utility.yul\":538:552   */\n  div\n    /* \"#utility.yul\":532:536   */\n  dup2\n    /* \"#utility.yul\":529:553   */\n  gt\n    /* \"#utility.yul\":526:576   */\n  iszero\n  tag_17\n  jumpi\n    /* \"#utility.yul\":556:574   */\n  tag_18\n  tag_5\n  jump\t// in\ntag_18:\n    /* \"#utility.yul\":526:576   */\ntag_17:\n    /* \"#utility.yul\":606:607   */\n  0x01\n    /* \"#utility.yul\":596:604   */\n  dup6\n    /* \"#utility.yul\":592:608   */\n  and\n    /* \"#utility.yul\":589:1040   */\n  iszero\n  tag_19\n  jumpi\n    /* \"#utility.yul\":1021:1025   */\n  dup1\n    /* \"#utility.yul\":1014:1019   */\n  dup3\n    /* \"#utility.yul\":1010:1026   */\n  mul\n    /* \"#utility.yul\":1001:1026   */\n  swap2\n  pop\n    /* \"#utility.yul\":589:1040   */\ntag_19:\n    /* \"#utility.yul\":1071:1075   */\n  dup1\n    /* \"#utility.yul\":1065:1069   */\n  dup2\n    /* \"#utility.yul\":1061:1076   */\n  mul\n    /* \"#utility.yul\":1053:1076   */\n  swap1\n  pop\n    /* \"#utility.yul\":1101:1133   */\n  tag_20\n    /* \"#utility.yul\":1124:1132   */\n  dup6\n    /* \"#utility.yul\":1101:1133   */\n  tag_6\n  jump\t// in\ntag_20:\n    /* \"#utility.yul\":1089:1133   */\n  swap5\n  pop\n    /* \"#utility.yul\":431:1143   */\n  jump(tag_14)\ntag_16:\n    /* \"#utility.yul\":301:1149   */\n  swap5\n  pop\n  swap5\n  swap3\n  pop\n  pop\n  pop\n  jump\t// out\n    /* \"#utility.yul\":1155:2228   */\ntag_8:\n    /* \"#utility.yul\":1209:1214   */\n  0x00\n    /* \"#utility.yul\":1400:1408   */\n  dup3\n    /* \"#utility.yul\":1390:1430   */\n  tag_22\n  jumpi\n    /* \"#utility.yul\":1421:1422   */\n  0x01\n    /* \"#utility.yul\":1412:1422   */\n  swap1\n  pop\n    /* \"#utility.yul\":1423:1428   */\n  jump(tag_21)\n    /* \"#utility.yul\":1390:1430   */\ntag_22:\n    /* \"#utility.yul\":1449:1453   */\n  dup2\n    /* \"#utility.yul\":1439:1475   */\n  tag_23\n  jumpi\n    /* \"#utility.yul\":1466:1467   */\n  0x00\n    /* \"#utility.yul\":1457:1467   */\n  swap1\n  pop\n    /* \"#utility.yul\":1468:1473   */\n  jump(tag_21)\n    /* \"#utility.yul\":1439:1475   */\ntag_23:\n    /* \"#utility.yul\":1535:1539   */\n  dup2\n    /* \"#utility.yul\":1583:1584   */\n  0x01\n    /* \"#utility.yul\":1578:1605   */\n  dup2\n  eq\n  tag_25\n  jumpi\n    /* \"#utility.yul\":1619:1620   */\n  0x02\n    /* \"#utility.yul\":1614:1805   */\n  dup2\n  eq\n  tag_26\n  jumpi\n    /* \"#utility.yul\":1528:1805   */\n  jump(tag_24)\n    /* \"#utility.yul\":1578:1605   */\ntag_25:\n    /* \"#utility.yul\":1596:1597   */\n  0x01\n    /* \"#utility.yul\":1587:1597   */\n  swap2\n  pop\n    /* \"#utility.yul\":1598:1603   */\n  pop\n  jump(tag_21)\n    /* \"#utility.yul\":1614:1805   */\ntag_26:\n    /* \"#utility.yul\":1659:1662   */\n  0xff\n    /* \"#utility.yul\":1649:1657   */\n  dup5\n    /* \"#utility.yul\":1646:1663   */\n  gt\n    /* \"#utility.yul\":1643:1686   */\n  iszero\n  tag_27\n  jumpi\n    /* \"#utility.yul\":1666:1684   */\n  tag_28\n  tag_5\n  jump\t// in\ntag_28:\n    /* \"#utility.yul\":1643:1686   */\ntag_27:\n    /* \"#utility.yul\":1715:1723   */\n  dup4\n    /* \"#utility.yul\":1712:1713   */\n  0x02\n    /* \"#utility.yul\":1708:1724   */\n  exp\n    /* \"#utility.yul\":1699:1724   */\n  swap2\n  pop\n    /* \"#utility.yul\":1750:1753   */\n  dup5\n    /* \"#utility.yul\":1743:1748   */\n  dup3\n    /* \"#utility.yul\":1740:1754   */\n  gt\n    /* \"#utility.yul\":1737:1777   */\n  iszero\n  tag_29\n  jumpi\n    /* \"#utility.yul\":1757:1775   */\n  tag_30\n  tag_5\n  jump\t// in\ntag_30:\n    /* \"#utility.yul\":1737:1777   */\ntag_29:\n    /* \"#utility.yul\":1790:1795   */\n  pop\n  jump(tag_21)\n    /* \"#utility.yul\":1528:1805   */\ntag_24:\n  pop\n    /* \"#utility.yul\":1914:1916   */\n  0x20\n    /* \"#utility.yul\":1904:1912   */\n  dup4\n    /* \"#utility.yul\":1901:1917   */\n  lt\n    /* \"#utility.yul\":1895:1898   */\n  0x0133\n    /* \"#utility.yul\":1889:1893   */\n  dup4\n    /* \"#utility.yul\":1886:1899   */\n  lt\n    /* \"#utility.yul\":1882:1918   */\n  and\n    /* \"#utility.yul\":1864:1866   */\n  0x4e\n    /* \"#utility.yul\":1854:1862   */\n  dup5\n    /* \"#utility.yul\":1851:1867   */\n  lt\n    /* \"#utility.yul\":1846:1848   */\n  0x0b\n    /* \"#utility.yul\":1840:1844   */\n  dup5\n    /* \"#utility.yul\":1837:1849   */\n  lt\n    /* \"#utility.yul\":1833:1868   */\n  and\n    /* \"#utility.yul\":1817:1928   */\n  or\n    /* \"#utility.yul\":1814:2060   */\n  iszero\n  tag_31\n  jumpi\n    /* \"#utility.yul\":1970:1978   */\n  dup3\n    /* \"#utility.yul\":1964:1968   */\n  dup3\n    /* \"#utility.yul\":1960:1979   */\n  exp\n    /* \"#utility.yul\":1951:1979   */\n  swap1\n  pop\n    /* \"#utility.yul\":2005:2008   */\n  dup4\n    /* \"#utility.yul\":1998:2003   */\n  dup2\n    /* \"#utility.yul\":1995:2009   */\n  gt\n    /* \"#utility.yul\":1992:2032   */\n  iszero\n  tag_32\n  jumpi\n    /* \"#utility.yul\":2012:2030   */\n  tag_33\n  tag_5\n  jump\t// in\ntag_33:\n    /* \"#utility.yul\":1992:2032   */\ntag_32:\n    /* \"#utility.yul\":2045:2050   */\n  jump(tag_21)\n    /* \"#utility.yul\":1814:2060   */\ntag_31:\n    /* \"#utility.yul\":2085:2127   */\n  tag_34\n    /* \"#utility.yul\":2123:2126   */\n  dup5\n    /* \"#utility.yul\":2113:2121   */\n  dup5\n    /* \"#utility.yul\":2107:2111   */\n  dup5\n    /* \"#utility.yul\":2104:2105   */\n  0x01\n    /* \"#utility.yul\":2085:2127   */\n  tag_7\n  jump\t// in\ntag_34:\n    /* \"#utility.yul\":2070:2127   */\n  swap3\n  pop\n  swap1\n  pop\n    /* \"#utility.yul\":2159:2163   */\n  dup2\n    /* \"#utility.yul\":2154:2157   */\n  dup5\n    /* \"#utility.yul\":2150:2164   */\n  div\n    /* \"#utility.yul\":2143:2148   */\n  dup2\n    /* \"#utility.yul\":2140:2165   */\n  gt\n    /* \"#utility.yul\":2137:2188   */\n  iszero\n  tag_35\n  jumpi\n    /* \"#utility.yul\":2168:2186   */\n  tag_36\n  tag_5\n  jump\t// in\ntag_36:\n    /* \"#utility.yul\":2137:2188   */\ntag_35:\n    /* \"#utility.yul\":2217:2221   */\n  dup2\n    /* \"#utility.yul\":2210:2215   */\n  dup2\n    /* \"#utility.yul\":2206:2222   */\n  mul\n    /* \"#utility.yul\":2197:2222   */\n  swap1\n  pop\n    /* \"#utility.yul\":1155:2228   */\ntag_21:\n  swap4\n  swap3\n  pop\n  pop\n  pop\n  jump\t// out\n    /* \"#utility.yul\":2234:2311   */\ntag_9:\n    /* \"#utility.yul\":2271:2278   */\n  0x00\n    /* \"#utility.yul\":2300:2305   */\n  dup2\n    /* \"#utility.yul\":2289:2305   */\n  swap1\n  pop\n    /* \"#utility.yul\":2234:2311   */\n  swap2\n  swap1\n  pop\n  jump\t// out\n    /* \"#utility.yul\":2317:2602   */\ntag_2:\n    /* \"#utility.yul\":2377:2382   */\n  0x00\n    /* \"#utility.yul\":2401:2424   */\n  tag_39\n    /* \"#utility.yul\":2419:2423   */\n  dup3\n    /* \"#utility.yul\":2401:2424   */\n  tag_9\n  jump\t// in\ntag_39:\n    /* \"#utility.yul\":2393:2424   */\n  swap2\n  pop\n    /* \"#utility.yul\":2445:2472   */\n  tag_40\n    /* \"#utility.yul\":2463:2471   */\n  dup4\n    /* \"#utility.yul\":2445:2472   */\n  tag_9\n  jump\t// in\ntag_40:\n    /* \"#utility.yul\":2433:2472   */\n  swap3\n  pop\n    /* \"#utility.yul\":2491:2595   */\n  tag_41\n    /* \"#utility.yul\":2528:2594   */\n  0xffffffffffffffffffffffffffffffffffffffffffffffffffffffffffffffff\n    /* \"#utility.yul\":2518:2526   */\n  dup5\n    /* \"#utility.yul\":2512:2516   */\n  dup5\n    /* \"#utility.yul\":2491:2595   */\n  tag_8\n  jump\t// in\ntag_41:\n    /* \"#utility.yul\":2482:2595   */\n  swap1\n  pop\n    /* \"#utility.yul\":2317:2602   */\n  swap3\n  swap2\n  pop\n  pop\n  jump\t// out\n    /* \"contracts/FeedFactory.sol\":61:1076  contract FeedFactory {... */\ntag_4:\n  dataSize(sub_0)\n  dup1\n  dataOffset(sub_0)\n  0x00\n  codecopy\n  0x00\n  return\nstop\n\nsub_0: assembly {\n        /* \"contracts/FeedFactory.sol\":61:1076  contract FeedFactory {... */\n      mstore(0x40, 0x80)\n      callvalue\n      dup1\n      iszero\n      tag_1\n      jumpi\n      0x00\n      dup1\n      revert\n    tag_1:\n      pop\n      jumpi(tag_2, lt(calldatasize, 0x04))\n      shr(0xe0, calldataload(0x00))\n      dup1\n      0x2645b2bc\n      eq\n      tag_3\n      jumpi\n      dup1\n      0x4a5479f3\n      eq\n      tag_4\n      jumpi\n      dup1\n      0xecb76d90\n      eq\n      tag_5\n      jumpi\n    tag_2:\n      0x00\n      dup1\n      revert\n        /* \"contracts/FeedFactory.sol\":337:487  function createRandomFeed(string calldata name) public {... */\n    tag_3:\n      tag_6\n      0x04\n      dup1\n      calldatasize\n      sub\n      dup2\n      add\n      swap1\n      tag_7\n      swap2\n      swap1\n      tag_8\n      jump\t// in\n    tag_7:\n      tag_9\n      jump\t// in\n    tag_6:\n      stop\n        /* \"contracts/FeedFactory.sol\":309:328  Feed[] public feeds */\n    tag_4:\n      tag_10\n      0x04\n      dup1\n      calldatasize\n      sub\n      dup2\n      add\n      swap1\n      tag_11\n      swap2\n      swap1\n      tag_12\n      jump\t// in\n    tag_11:\n      tag_13\n      jump\t// in\n    tag_10:\n      mload(0x40)\n      tag_14\n      swap4\n      swap3\n      swap2\n      swap1\n      tag_15\n      jump\t// in\n    tag_14:\n      mload(0x40)\n      dup1\n      swap2\n      sub\n      swap1\n      return\n        /* \"contracts/FeedFactory.sol\":495:671  function getFeed(uint _id) external view returns (string memory, uint, uint) {... */\n    tag_5:\n      tag_16\n      0x04\n      dup1\n      calldatasize\n      sub\n      dup2\n      add\n      swap1\n      tag_17\n      swap2\n      swap1\n      tag_12\n      jump\t// in\n    tag_17:\n      tag_18\n      jump\t// in\n    tag_16:\n      mload(0x40)\n      tag_19\n      swap4\n      swap3\n      swap2\n      swap1\n      tag_15\n      jump\t// in\n    tag_19:\n      mload(0x40)\n      dup1\n      swap2\n      sub\n      swap1\n      return\n        /* \"contracts/FeedFactory.sol\":337:487  function createRandomFeed(string calldata name) public {... */\n    tag_9:\n        /* \"contracts/FeedFactory.sol\":403:415  uint randDna */\n      0x00\n        /* \"contracts/FeedFactory.sol\":418:442  _generateRandomDna(name) */\n      tag_21\n        /* \"contracts/FeedFactory.sol\":437:441  name */\n      dup4\n      dup4\n        /* \"contracts/FeedFactory.sol\":418:436  _generateRandomDna */\n      tag_22\n        /* \"contracts/FeedFactory.sol\":418:442  _generateRandomDna(name) */\n      jump\t// in\n    tag_21:\n        /* \"contracts/FeedFactory.sol\":403:442  uint randDna = _generateRandomDna(name) */\n      swap1\n      pop\n        /* \"contracts/FeedFactory.sol\":453:479  _createFeed(name, randDna) */\n      tag_23\n        /* \"contracts/FeedFactory.sol\":465:469  name */\n      dup4\n      dup4\n        /* \"contracts/FeedFactory.sol\":471:478  randDna */\n      dup4\n        /* \"contracts/FeedFactory.sol\":453:464  _createFeed */\n      tag_24\n        /* \"contracts/FeedFactory.sol\":453:479  _createFeed(name, randDna) */\n      jump\t// in\n    tag_23:\n        /* \"contracts/FeedFactory.sol\":392:487  {... */\n      pop\n        /* \"contracts/FeedFactory.sol\":337:487  function createRandomFeed(string calldata name) public {... */\n      pop\n      pop\n      jump\t// out\n        /* \"contracts/FeedFactory.sol\":309:328  Feed[] public feeds */\n    tag_13:\n      0x02\n      dup2\n      dup2\n      sload\n      dup2\n      lt\n      tag_25\n      jumpi\n      0x00\n      dup1\n      revert\n    tag_25:\n      swap1\n      0x00\n      mstore\n      keccak256(0x00, 0x20)\n      swap1\n      0x03\n      mul\n      add\n      0x00\n      swap2\n      pop\n      swap1\n      pop\n      dup1\n      0x00\n      add\n      dup1\n      sload\n      tag_27\n      swap1\n      tag_28\n      jump\t// in\n    tag_27:\n      dup1\n      0x1f\n      add\n      0x20\n      dup1\n      swap2\n      div\n      mul\n      0x20\n      add\n      mload(0x40)\n      swap1\n      dup2\n      add\n      0x40\n      mstore\n      dup1\n      swap3\n      swap2\n      swap1\n      dup2\n      dup2\n      mstore\n      0x20\n      add\n      dup3\n      dup1\n      sload\n      tag_29\n      swap1\n      tag_28\n      jump\t// in\n    tag_29:\n      dup1\n      iszero\n      tag_30\n      jumpi\n      dup1\n      0x1f\n      lt\n      tag_31\n      jumpi\n      0x0100\n      dup1\n      dup4\n      sload\n      div\n      mul\n      dup4\n      mstore\n      swap2\n      0x20\n      add\n      swap2\n      jump(tag_30)\n    tag_31:\n      dup3\n      add\n      swap2\n      swap1\n      0x00\n      mstore\n      keccak256(0x00, 0x20)\n      swap1\n    tag_32:\n      dup2\n      sload\n      dup2\n      mstore\n      swap1\n      0x01\n      add\n      swap1\n      0x20\n      add\n      dup1\n      dup4\n      gt\n      tag_32\n      jumpi\n      dup3\n      swap1\n      sub\n      0x1f\n      and\n      dup3\n      add\n      swap2\n    tag_30:\n      pop\n      pop\n      pop\n      pop\n      pop\n      swap1\n      dup1\n      0x01\n      add\n      sload\n      swap1\n      dup1\n      0x02\n      add\n      sload\n      swap1\n      pop\n      dup4\n      jump\t// out\n        /* \"contracts/FeedFactory.sol\":495:671  function getFeed(uint _id) external view returns (string memory, uint, uint) {... */\n    tag_18:\n        /* \"contracts/FeedFactory.sol\":545:558  string memory */\n      0x60\n        /* \"contracts/FeedFactory.sol\":560:564  uint */\n      0x00\n        /* \"contracts/FeedFactory.sol\":566:570  uint */\n      dup1\n        /* \"contracts/FeedFactory.sol\":583:599  Feed memory feed */\n      0x00\n        /* \"contracts/FeedFactory.sol\":602:607  feeds */\n      0x02\n        /* \"contracts/FeedFactory.sol\":608:611  _id */\n      dup6\n        /* \"contracts/FeedFactory.sol\":602:612  feeds[_id] */\n      dup2\n      sload\n      dup2\n      lt\n      tag_34\n      jumpi\n      tag_35\n      tag_36\n      jump\t// in\n    tag_35:\n    tag_34:\n      swap1\n      0x00\n      mstore\n      keccak256(0x00, 0x20)\n      swap1\n      0x03\n      mul\n      add\n        /* \"contracts/FeedFactory.sol\":583:612  Feed memory feed = feeds[_id] */\n      mload(0x40)\n      dup1\n      0x60\n      add\n      0x40\n      mstore\n      swap1\n      dup2\n      0x00\n      dup3\n      add\n      dup1\n      sload\n      tag_38\n      swap1\n      tag_28\n      jump\t// in\n    tag_38:\n      dup1\n      0x1f\n      add\n      0x20\n      dup1\n      swap2\n      div\n      mul\n      0x20\n      add\n      mload(0x40)\n      swap1\n      dup2\n      add\n      0x40\n      mstore\n      dup1\n      swap3\n      swap2\n      swap1\n      dup2\n      dup2\n      mstore\n      0x20\n      add\n      dup3\n      dup1\n      sload\n      tag_39\n      swap1\n      tag_28\n      jump\t// in\n    tag_39:\n      dup1\n      iszero\n      tag_40\n      jumpi\n      dup1\n      0x1f\n      lt\n      tag_41\n      jumpi\n      0x0100\n      dup1\n      dup4\n      sload\n      div\n      mul\n      dup4\n      mstore\n      swap2\n      0x20\n      add\n      swap2\n      jump(tag_40)\n    tag_41:\n      dup3\n      add\n      swap2\n      swap1\n      0x00\n      mstore\n      keccak256(0x00, 0x20)\n      swap1\n    tag_42:\n      dup2\n      sload\n      dup2\n      mstore\n      swap1\n      0x01\n      add\n      swap1\n      0x20\n      add\n      dup1\n      dup4\n      gt\n      tag_42\n      jumpi\n      dup3\n      swap1\n      sub\n      0x1f\n      and\n      dup3\n      add\n      swap2\n    tag_40:\n      pop\n      pop\n      pop\n      pop\n      pop\n      dup2\n      mstore\n      0x20\n      add\n      0x01\n      dup3\n      add\n      sload\n      dup2\n      mstore\n      0x20\n      add\n      0x02\n      dup3\n      add\n      sload\n      dup2\n      mstore\n      pop\n      pop\n      swap1\n      pop\n        /* \"contracts/FeedFactory.sol\":631:635  feed */\n      dup1\n        /* \"contracts/FeedFactory.sol\":631:640  feed.name */\n      0x00\n      add\n      mload\n        /* \"contracts/FeedFactory.sol\":642:646  feed */\n      dup2\n        /* \"contracts/FeedFactory.sol\":642:650  feed.dna */\n      0x20\n      add\n      mload\n        /* \"contracts/FeedFactory.sol\":652:656  feed */\n      dup3\n        /* \"contracts/FeedFactory.sol\":652:662  feed.price */\n      0x40\n      add\n      mload\n        /* \"contracts/FeedFactory.sol\":623:663  return (feed.name, feed.dna, feed.price) */\n      swap4\n      pop\n      swap4\n      pop\n      swap4\n      pop\n      pop\n        /* \"contracts/FeedFactory.sol\":495:671  function getFeed(uint _id) external view returns (string memory, uint, uint) {... */\n      swap2\n      swap4\n      swap1\n      swap3\n      pop\n      jump\t// out\n        /* \"contracts/FeedFactory.sol\":679:911  function _generateRandomDna(string calldata str) private view returns (uint) {... */\n    tag_22:\n        /* \"contracts/FeedFactory.sol\":750:754  uint */\n      0x00\n        /* \"contracts/FeedFactory.sol\":767:776  uint rand */\n      dup1\n        /* \"contracts/FeedFactory.sol\":800:803  str */\n      dup4\n      dup4\n        /* \"contracts/FeedFactory.sol\":784:805  keccak256(bytes(str)) */\n      mload(0x40)\n      tag_44\n      swap3\n      swap2\n      swap1\n      tag_45\n      jump\t// in\n    tag_44:\n      mload(0x40)\n      dup1\n      swap2\n      sub\n      swap1\n      keccak256\n        /* \"contracts/FeedFactory.sol\":779:806  uint(keccak256(bytes(str))) */\n      0x00\n      shr\n        /* \"contracts/FeedFactory.sol\":767:806  uint rand = uint(keccak256(bytes(str))) */\n      swap1\n      pop\n        /* \"contracts/FeedFactory.sol\":817:825  uint dna */\n      0x00\n        /* \"contracts/FeedFactory.sol\":835:845  dnaModulus */\n      sload(0x01)\n        /* \"contracts/FeedFactory.sol\":828:832  rand */\n      dup3\n        /* \"contracts/FeedFactory.sol\":828:845  rand % dnaModulus */\n      tag_46\n      swap2\n      swap1\n      tag_47\n      jump\t// in\n    tag_46:\n        /* \"contracts/FeedFactory.sol\":817:845  uint dna = rand % dnaModulus */\n      swap1\n      pop\n        /* \"contracts/FeedFactory.sol\":880:882  99 */\n      0x63\n        /* \"contracts/FeedFactory.sol\":874:877  100 */\n      0x64\n        /* \"contracts/FeedFactory.sol\":868:871  dna */\n      dup3\n        /* \"contracts/FeedFactory.sol\":868:877  dna % 100 */\n      tag_48\n      swap2\n      swap1\n      tag_47\n      jump\t// in\n    tag_48:\n        /* \"contracts/FeedFactory.sol\":862:865  dna */\n      dup3\n        /* \"contracts/FeedFactory.sol\":862:877  dna - dna % 100 */\n      tag_49\n      swap2\n      swap1\n      tag_50\n      jump\t// in\n    tag_49:\n        /* \"contracts/FeedFactory.sol\":862:882  dna - dna % 100 + 99 */\n      tag_51\n      swap2\n      swap1\n      tag_52\n      jump\t// in\n    tag_51:\n        /* \"contracts/FeedFactory.sol\":856:882  dna = dna - dna % 100 + 99 */\n      swap1\n      pop\n        /* \"contracts/FeedFactory.sol\":900:903  dna */\n      dup1\n        /* \"contracts/FeedFactory.sol\":893:903  return dna */\n      swap3\n      pop\n      pop\n      pop\n        /* \"contracts/FeedFactory.sol\":679:911  function _generateRandomDna(string calldata str) private view returns (uint) {... */\n      swap3\n      swap2\n      pop\n      pop\n      jump\t// out\n        /* \"contracts/FeedFactory.sol\":923:1073  function _createFeed(string calldata name, uint dna) private {... */\n    tag_24:\n        /* \"contracts/FeedFactory.sol\":995:1005  uint price */\n      0x00\n        /* \"contracts/FeedFactory.sol\":1008:1020  0.0001 ether */\n      0x5af3107a4000\n        /* \"contracts/FeedFactory.sol\":995:1020  uint price = 0.0001 ether */\n      swap1\n      pop\n        /* \"contracts/FeedFactory.sol\":1031:1036  feeds */\n      0x02\n        /* \"contracts/FeedFactory.sol\":1042:1064  Feed(name, dna, price) */\n      mload(0x40)\n      dup1\n      0x60\n      add\n      0x40\n      mstore\n      dup1\n        /* \"contracts/FeedFactory.sol\":1047:1051  name */\n      dup7\n      dup7\n        /* \"contracts/FeedFactory.sol\":1042:1064  Feed(name, dna, price) */\n      dup1\n      dup1\n      0x1f\n      add\n      0x20\n      dup1\n      swap2\n      div\n      mul\n      0x20\n      add\n      mload(0x40)\n      swap1\n      dup2\n      add\n      0x40\n      mstore\n      dup1\n      swap4\n      swap3\n      swap2\n      swap1\n      dup2\n      dup2\n      mstore\n      0x20\n      add\n      dup4\n      dup4\n      dup1\n      dup3\n      dup5\n      calldatacopy\n      0x00\n      dup2\n      dup5\n      add\n      mstore\n      not(0x1f)\n      0x1f\n      dup3\n      add\n      and\n      swap1\n      pop\n      dup1\n      dup4\n      add\n      swap3\n      pop\n      pop\n      pop\n      pop\n      pop\n      pop\n      pop\n      dup2\n      mstore\n      0x20\n      add\n        /* \"contracts/FeedFactory.sol\":1053:1056  dna */\n      dup5\n        /* \"contracts/FeedFactory.sol\":1042:1064  Feed(name, dna, price) */\n      dup2\n      mstore\n      0x20\n      add\n        /* \"contracts/FeedFactory.sol\":1058:1063  price */\n      dup4\n        /* \"contracts/FeedFactory.sol\":1042:1064  Feed(name, dna, price) */\n      dup2\n      mstore\n      pop\n        /* \"contracts/FeedFactory.sol\":1031:1065  feeds.push(Feed(name, dna, price)) */\n      swap1\n      dup1\n      0x01\n      dup2\n      sload\n      add\n      dup1\n      dup3\n      sstore\n      dup1\n      swap2\n      pop\n      pop\n      0x01\n      swap1\n      sub\n      swap1\n      0x00\n      mstore\n      keccak256(0x00, 0x20)\n      swap1\n      0x03\n      mul\n      add\n      0x00\n      swap1\n      swap2\n      swap1\n      swap2\n      swap1\n      swap2\n      pop\n      0x00\n      dup3\n      add\n      mload\n      dup2\n      0x00\n      add\n      swap1\n      dup1\n      mload\n      swap1\n      0x20\n      add\n      swap1\n      tag_55\n      swap3\n      swap2\n      swap1\n      tag_56\n      jump\t// in\n    tag_55:\n      pop\n      0x20\n      dup3\n      add\n      mload\n      dup2\n      0x01\n      add\n      sstore\n      0x40\n      dup3\n      add\n      mload\n      dup2\n      0x02\n      add\n      sstore\n      pop\n      pop\n        /* \"contracts/FeedFactory.sol\":984:1073  {... */\n      pop\n        /* \"contracts/FeedFactory.sol\":923:1073  function _createFeed(string calldata name, uint dna) private {... */\n      pop\n      pop\n      pop\n      jump\t// out\n    tag_56:\n      dup3\n      dup1\n      sload\n      tag_57\n      swap1\n      tag_28\n      jump\t// in\n    tag_57:\n      swap1\n      0x00\n      mstore\n      keccak256(0x00, 0x20)\n      swap1\n      0x1f\n      add\n      0x20\n      swap1\n      div\n      dup2\n      add\n      swap3\n      dup3\n      tag_59\n      jumpi\n      0x00\n      dup6\n      sstore\n      jump(tag_58)\n    tag_59:\n      dup3\n      0x1f\n      lt\n      tag_60\n      jumpi\n      dup1\n      mload\n      not(0xff)\n      and\n      dup4\n      dup1\n      add\n      or\n      dup6\n      sstore\n      jump(tag_58)\n    tag_60:\n      dup3\n      dup1\n      add\n      0x01\n      add\n      dup6\n      sstore\n      dup3\n      iszero\n      tag_58\n      jumpi\n      swap2\n      dup3\n      add\n    tag_61:\n      dup3\n      dup2\n      gt\n      iszero\n      tag_62\n      jumpi\n      dup3\n      mload\n      dup3\n      sstore\n      swap2\n      0x20\n      add\n      swap2\n      swap1\n      0x01\n      add\n      swap1\n      jump(tag_61)\n    tag_62:\n    tag_58:\n      pop\n      swap1\n      pop\n      tag_63\n      swap2\n      swap1\n      tag_64\n      jump\t// in\n    tag_63:\n      pop\n      swap1\n      jump\t// out\n    tag_64:\n    tag_65:\n      dup1\n      dup3\n      gt\n      iszero\n      tag_66\n      jumpi\n      0x00\n      dup2\n      0x00\n      swap1\n      sstore\n      pop\n      0x01\n      add\n      jump(tag_65)\n    tag_66:\n      pop\n      swap1\n      jump\t// out\n        /* \"#utility.yul\":88:205   */\n    tag_68:\n        /* \"#utility.yul\":197:198   */\n      0x00\n        /* \"#utility.yul\":194:195   */\n      dup1\n        /* \"#utility.yul\":187:199   */\n      revert\n        /* \"#utility.yul\":211:328   */\n    tag_69:\n        /* \"#utility.yul\":320:321   */\n      0x00\n        /* \"#utility.yul\":317:318   */\n      dup1\n        /* \"#utility.yul\":310:322   */\n      revert\n        /* \"#utility.yul\":334:451   */\n    tag_70:\n        /* \"#utility.yul\":443:444   */\n      0x00\n        /* \"#utility.yul\":440:441   */\n      dup1\n        /* \"#utility.yul\":433:445   */\n      revert\n        /* \"#utility.yul\":457:574   */\n    tag_71:\n        /* \"#utility.yul\":566:567   */\n      0x00\n        /* \"#utility.yul\":563:564   */\n      dup1\n        /* \"#utility.yul\":556:568   */\n      revert\n        /* \"#utility.yul\":580:697   */\n    tag_72:\n        /* \"#utility.yul\":689:690   */\n      0x00\n        /* \"#utility.yul\":686:687   */\n      dup1\n        /* \"#utility.yul\":679:691   */\n      revert\n        /* \"#utility.yul\":717:1270   */\n    tag_73:\n        /* \"#utility.yul\":775:783   */\n      0x00\n        /* \"#utility.yul\":785:791   */\n      dup1\n        /* \"#utility.yul\":835:838   */\n      dup4\n        /* \"#utility.yul\":828:832   */\n      0x1f\n        /* \"#utility.yul\":820:826   */\n      dup5\n        /* \"#utility.yul\":816:833   */\n      add\n        /* \"#utility.yul\":812:839   */\n      slt\n        /* \"#utility.yul\":802:924   */\n      tag_97\n      jumpi\n        /* \"#utility.yul\":843:922   */\n      tag_98\n      tag_70\n      jump\t// in\n    tag_98:\n        /* \"#utility.yul\":802:924   */\n    tag_97:\n        /* \"#utility.yul\":956:962   */\n      dup3\n        /* \"#utility.yul\":943:963   */\n      calldataload\n        /* \"#utility.yul\":933:963   */\n      swap1\n      pop\n        /* \"#utility.yul\":986:1004   */\n      0xffffffffffffffff\n        /* \"#utility.yul\":978:984   */\n      dup2\n        /* \"#utility.yul\":975:1005   */\n      gt\n        /* \"#utility.yul\":972:1089   */\n      iszero\n      tag_99\n      jumpi\n        /* \"#utility.yul\":1008:1087   */\n      tag_100\n      tag_71\n      jump\t// in\n    tag_100:\n        /* \"#utility.yul\":972:1089   */\n    tag_99:\n        /* \"#utility.yul\":1122:1126   */\n      0x20\n        /* \"#utility.yul\":1114:1120   */\n      dup4\n        /* \"#utility.yul\":1110:1127   */\n      add\n        /* \"#utility.yul\":1098:1127   */\n      swap2\n      pop\n        /* \"#utility.yul\":1176:1179   */\n      dup4\n        /* \"#utility.yul\":1168:1172   */\n      0x01\n        /* \"#utility.yul\":1160:1166   */\n      dup3\n        /* \"#utility.yul\":1156:1173   */\n      mul\n        /* \"#utility.yul\":1146:1154   */\n      dup4\n        /* \"#utility.yul\":1142:1174   */\n      add\n        /* \"#utility.yul\":1139:1180   */\n      gt\n        /* \"#utility.yul\":1136:1264   */\n      iszero\n      tag_101\n      jumpi\n        /* \"#utility.yul\":1183:1262   */\n      tag_102\n      tag_72\n      jump\t// in\n    tag_102:\n        /* \"#utility.yul\":1136:1264   */\n    tag_101:\n        /* \"#utility.yul\":717:1270   */\n      swap3\n      pop\n      swap3\n      swap1\n      pop\n      jump\t// out\n        /* \"#utility.yul\":1276:1805   */\n    tag_8:\n        /* \"#utility.yul\":1347:1353   */\n      0x00\n        /* \"#utility.yul\":1355:1361   */\n      dup1\n        /* \"#utility.yul\":1404:1406   */\n      0x20\n        /* \"#utility.yul\":1392:1401   */\n      dup4\n        /* \"#utility.yul\":1383:1390   */\n      dup6\n        /* \"#utility.yul\":1379:1402   */\n      sub\n        /* \"#utility.yul\":1375:1407   */\n      slt\n        /* \"#utility.yul\":1372:1491   */\n      iszero\n      tag_104\n      jumpi\n        /* \"#utility.yul\":1410:1489   */\n      tag_105\n      tag_68\n      jump\t// in\n    tag_105:\n        /* \"#utility.yul\":1372:1491   */\n    tag_104:\n        /* \"#utility.yul\":1558:1559   */\n      0x00\n        /* \"#utility.yul\":1547:1556   */\n      dup4\n        /* \"#utility.yul\":1543:1560   */\n      add\n        /* \"#utility.yul\":1530:1561   */\n      calldataload\n        /* \"#utility.yul\":1588:1606   */\n      0xffffffffffffffff\n        /* \"#utility.yul\":1580:1586   */\n      dup2\n        /* \"#utility.yul\":1577:1607   */\n      gt\n        /* \"#utility.yul\":1574:1691   */\n      iszero\n      tag_106\n      jumpi\n        /* \"#utility.yul\":1610:1689   */\n      tag_107\n      tag_69\n      jump\t// in\n    tag_107:\n        /* \"#utility.yul\":1574:1691   */\n    tag_106:\n        /* \"#utility.yul\":1723:1788   */\n      tag_108\n        /* \"#utility.yul\":1780:1787   */\n      dup6\n        /* \"#utility.yul\":1771:1777   */\n      dup3\n        /* \"#utility.yul\":1760:1769   */\n      dup7\n        /* \"#utility.yul\":1756:1778   */\n      add\n        /* \"#utility.yul\":1723:1788   */\n      tag_73\n      jump\t// in\n    tag_108:\n        /* \"#utility.yul\":1705:1788   */\n      swap3\n      pop\n      swap3\n      pop\n        /* \"#utility.yul\":1501:1798   */\n      pop\n        /* \"#utility.yul\":1276:1805   */\n      swap3\n      pop\n      swap3\n      swap1\n      pop\n      jump\t// out\n        /* \"#utility.yul\":1811:1888   */\n    tag_74:\n        /* \"#utility.yul\":1848:1855   */\n      0x00\n        /* \"#utility.yul\":1877:1882   */\n      dup2\n        /* \"#utility.yul\":1866:1882   */\n      swap1\n      pop\n        /* \"#utility.yul\":1811:1888   */\n      swap2\n      swap1\n      pop\n      jump\t// out\n        /* \"#utility.yul\":1894:2016   */\n    tag_75:\n        /* \"#utility.yul\":1967:1991   */\n      tag_111\n        /* \"#utility.yul\":1985:1990   */\n      dup2\n        /* \"#utility.yul\":1967:1991   */\n      tag_74\n      jump\t// in\n    tag_111:\n        /* \"#utility.yul\":1960:1965   */\n      dup2\n        /* \"#utility.yul\":1957:1992   */\n      eq\n        /* \"#utility.yul\":1947:2010   */\n      tag_112\n      jumpi\n        /* \"#utility.yul\":2006:2007   */\n      0x00\n        /* \"#utility.yul\":2003:2004   */\n      dup1\n        /* \"#utility.yul\":1996:2008   */\n      revert\n        /* \"#utility.yul\":1947:2010   */\n    tag_112:\n        /* \"#utility.yul\":1894:2016   */\n      pop\n      jump\t// out\n        /* \"#utility.yul\":2022:2161   */\n    tag_76:\n        /* \"#utility.yul\":2068:2073   */\n      0x00\n        /* \"#utility.yul\":2106:2112   */\n      dup2\n        /* \"#utility.yul\":2093:2113   */\n      calldataload\n        /* \"#utility.yul\":2084:2113   */\n      swap1\n      pop\n        /* \"#utility.yul\":2122:2155   */\n      tag_114\n        /* \"#utility.yul\":2149:2154   */\n      dup2\n        /* \"#utility.yul\":2122:2155   */\n      tag_75\n      jump\t// in\n    tag_114:\n        /* \"#utility.yul\":2022:2161   */\n      swap3\n      swap2\n      pop\n      pop\n      jump\t// out\n        /* \"#utility.yul\":2167:2496   */\n    tag_12:\n        /* \"#utility.yul\":2226:2232   */\n      0x00\n        /* \"#utility.yul\":2275:2277   */\n      0x20\n        /* \"#utility.yul\":2263:2272   */\n      dup3\n        /* \"#utility.yul\":2254:2261   */\n      dup5\n        /* \"#utility.yul\":2250:2273   */\n      sub\n        /* \"#utility.yul\":2246:2278   */\n      slt\n        /* \"#utility.yul\":2243:2362   */\n      iszero\n      tag_116\n      jumpi\n        /* \"#utility.yul\":2281:2360   */\n      tag_117\n      tag_68\n      jump\t// in\n    tag_117:\n        /* \"#utility.yul\":2243:2362   */\n    tag_116:\n        /* \"#utility.yul\":2401:2402   */\n      0x00\n        /* \"#utility.yul\":2426:2479   */\n      tag_118\n        /* \"#utility.yul\":2471:2478   */\n      dup5\n        /* \"#utility.yul\":2462:2468   */\n      dup3\n        /* \"#utility.yul\":2451:2460   */\n      dup6\n        /* \"#utility.yul\":2447:2469   */\n      add\n        /* \"#utility.yul\":2426:2479   */\n      tag_76\n      jump\t// in\n    tag_118:\n        /* \"#utility.yul\":2416:2479   */\n      swap2\n      pop\n        /* \"#utility.yul\":2372:2489   */\n      pop\n        /* \"#utility.yul\":2167:2496   */\n      swap3\n      swap2\n      pop\n      pop\n      jump\t// out\n        /* \"#utility.yul\":2502:2601   */\n    tag_77:\n        /* \"#utility.yul\":2554:2560   */\n      0x00\n        /* \"#utility.yul\":2588:2593   */\n      dup2\n        /* \"#utility.yul\":2582:2594   */\n      mload\n        /* \"#utility.yul\":2572:2594   */\n      swap1\n      pop\n        /* \"#utility.yul\":2502:2601   */\n      swap2\n      swap1\n      pop\n      jump\t// out\n        /* \"#utility.yul\":2607:2776   */\n    tag_78:\n        /* \"#utility.yul\":2691:2702   */\n      0x00\n        /* \"#utility.yul\":2725:2731   */\n      dup3\n        /* \"#utility.yul\":2720:2723   */\n      dup3\n        /* \"#utility.yul\":2713:2732   */\n      mstore\n        /* \"#utility.yul\":2765:2769   */\n      0x20\n        /* \"#utility.yul\":2760:2763   */\n      dup3\n        /* \"#utility.yul\":2756:2770   */\n      add\n        /* \"#utility.yul\":2741:2770   */\n      swap1\n      pop\n        /* \"#utility.yul\":2607:2776   */\n      swap3\n      swap2\n      pop\n      pop\n      jump\t// out\n        /* \"#utility.yul\":2782:3089   */\n    tag_79:\n        /* \"#utility.yul\":2850:2851   */\n      0x00\n        /* \"#utility.yul\":2860:2973   */\n    tag_122:\n        /* \"#utility.yul\":2874:2880   */\n      dup4\n        /* \"#utility.yul\":2871:2872   */\n      dup2\n        /* \"#utility.yul\":2868:2881   */\n      lt\n        /* \"#utility.yul\":2860:2973   */\n      iszero\n      tag_124\n      jumpi\n        /* \"#utility.yul\":2959:2960   */\n      dup1\n        /* \"#utility.yul\":2954:2957   */\n      dup3\n        /* \"#utility.yul\":2950:2961   */\n      add\n        /* \"#utility.yul\":2944:2962   */\n      mload\n        /* \"#utility.yul\":2940:2941   */\n      dup2\n        /* \"#utility.yul\":2935:2938   */\n      dup5\n        /* \"#utility.yul\":2931:2942   */\n      add\n        /* \"#utility.yul\":2924:2963   */\n      mstore\n        /* \"#utility.yul\":2896:2898   */\n      0x20\n        /* \"#utility.yul\":2893:2894   */\n      dup2\n        /* \"#utility.yul\":2889:2899   */\n      add\n        /* \"#utility.yul\":2884:2899   */\n      swap1\n      pop\n        /* \"#utility.yul\":2860:2973   */\n      jump(tag_122)\n    tag_124:\n        /* \"#utility.yul\":2991:2997   */\n      dup4\n        /* \"#utility.yul\":2988:2989   */\n      dup2\n        /* \"#utility.yul\":2985:2998   */\n      gt\n        /* \"#utility.yul\":2982:3083   */\n      iszero\n      tag_125\n      jumpi\n        /* \"#utility.yul\":3071:3072   */\n      0x00\n        /* \"#utility.yul\":3062:3068   */\n      dup5\n        /* \"#utility.yul\":3057:3060   */\n      dup5\n        /* \"#utility.yul\":3053:3069   */\n      add\n        /* \"#utility.yul\":3046:3073   */\n      mstore\n        /* \"#utility.yul\":2982:3083   */\n    tag_125:\n        /* \"#utility.yul\":2831:3089   */\n      pop\n        /* \"#utility.yul\":2782:3089   */\n      pop\n      pop\n      pop\n      jump\t// out\n        /* \"#utility.yul\":3095:3197   */\n    tag_80:\n        /* \"#utility.yul\":3136:3142   */\n      0x00\n        /* \"#utility.yul\":3187:3189   */\n      0x1f\n        /* \"#utility.yul\":3183:3190   */\n      not\n        /* \"#utility.yul\":3178:3180   */\n      0x1f\n        /* \"#utility.yul\":3171:3176   */\n      dup4\n        /* \"#utility.yul\":3167:3181   */\n      add\n        /* \"#utility.yul\":3163:3191   */\n      and\n        /* \"#utility.yul\":3153:3191   */\n      swap1\n      pop\n        /* \"#utility.yul\":3095:3197   */\n      swap2\n      swap1\n      pop\n      jump\t// out\n        /* \"#utility.yul\":3203:3567   */\n    tag_81:\n        /* \"#utility.yul\":3291:3294   */\n      0x00\n        /* \"#utility.yul\":3319:3358   */\n      tag_128\n        /* \"#utility.yul\":3352:3357   */\n      dup3\n        /* \"#utility.yul\":3319:3358   */\n      tag_77\n      jump\t// in\n    tag_128:\n        /* \"#utility.yul\":3374:3445   */\n      tag_129\n        /* \"#utility.yul\":3438:3444   */\n      dup2\n        /* \"#utility.yul\":3433:3436   */\n      dup6\n        /* \"#utility.yul\":3374:3445   */\n      tag_78\n      jump\t// in\n    tag_129:\n        /* \"#utility.yul\":3367:3445   */\n      swap4\n      pop\n        /* \"#utility.yul\":3454:3506   */\n      tag_130\n        /* \"#utility.yul\":3499:3505   */\n      dup2\n        /* \"#utility.yul\":3494:3497   */\n      dup6\n        /* \"#utility.yul\":3487:3491   */\n      0x20\n        /* \"#utility.yul\":3480:3485   */\n      dup7\n        /* \"#utility.yul\":3476:3492   */\n      add\n        /* \"#utility.yul\":3454:3506   */\n      tag_79\n      jump\t// in\n    tag_130:\n        /* \"#utility.yul\":3531:3560   */\n      tag_131\n        /* \"#utility.yul\":3553:3559   */\n      dup2\n        /* \"#utility.yul\":3531:3560   */\n      tag_80\n      jump\t// in\n    tag_131:\n        /* \"#utility.yul\":3526:3529   */\n      dup5\n        /* \"#utility.yul\":3522:3561   */\n      add\n        /* \"#utility.yul\":3515:3561   */\n      swap2\n      pop\n        /* \"#utility.yul\":3295:3567   */\n      pop\n        /* \"#utility.yul\":3203:3567   */\n      swap3\n      swap2\n      pop\n      pop\n      jump\t// out\n        /* \"#utility.yul\":3573:3691   */\n    tag_82:\n        /* \"#utility.yul\":3660:3684   */\n      tag_133\n        /* \"#utility.yul\":3678:3683   */\n      dup2\n        /* \"#utility.yul\":3660:3684   */\n      tag_74\n      jump\t// in\n    tag_133:\n        /* \"#utility.yul\":3655:3658   */\n      dup3\n        /* \"#utility.yul\":3648:3685   */\n      mstore\n        /* \"#utility.yul\":3573:3691   */\n      pop\n      pop\n      jump\t// out\n        /* \"#utility.yul\":3697:4230   */\n    tag_15:\n        /* \"#utility.yul\":3866:3870   */\n      0x00\n        /* \"#utility.yul\":3904:3906   */\n      0x60\n        /* \"#utility.yul\":3893:3902   */\n      dup3\n        /* \"#utility.yul\":3889:3907   */\n      add\n        /* \"#utility.yul\":3881:3907   */\n      swap1\n      pop\n        /* \"#utility.yul\":3953:3962   */\n      dup2\n        /* \"#utility.yul\":3947:3951   */\n      dup2\n        /* \"#utility.yul\":3943:3963   */\n      sub\n        /* \"#utility.yul\":3939:3940   */\n      0x00\n        /* \"#utility.yul\":3928:3937   */\n      dup4\n        /* \"#utility.yul\":3924:3941   */\n      add\n        /* \"#utility.yul\":3917:3964   */\n      mstore\n        /* \"#utility.yul\":3981:4059   */\n      tag_135\n        /* \"#utility.yul\":4054:4058   */\n      dup2\n        /* \"#utility.yul\":4045:4051   */\n      dup7\n        /* \"#utility.yul\":3981:4059   */\n      tag_81\n      jump\t// in\n    tag_135:\n        /* \"#utility.yul\":3973:4059   */\n      swap1\n      pop\n        /* \"#utility.yul\":4069:4141   */\n      tag_136\n        /* \"#utility.yul\":4137:4139   */\n      0x20\n        /* \"#utility.yul\":4126:4135   */\n      dup4\n        /* \"#utility.yul\":4122:4140   */\n      add\n        /* \"#utility.yul\":4113:4119   */\n      dup6\n        /* \"#utility.yul\":4069:4141   */\n      tag_82\n      jump\t// in\n    tag_136:\n        /* \"#utility.yul\":4151:4223   */\n      tag_137\n        /* \"#utility.yul\":4219:4221   */\n      0x40\n        /* \"#utility.yul\":4208:4217   */\n      dup4\n        /* \"#utility.yul\":4204:4222   */\n      add\n        /* \"#utility.yul\":4195:4201   */\n      dup5\n        /* \"#utility.yul\":4151:4223   */\n      tag_82\n      jump\t// in\n    tag_137:\n        /* \"#utility.yul\":3697:4230   */\n      swap5\n      swap4\n      pop\n      pop\n      pop\n      pop\n      jump\t// out\n        /* \"#utility.yul\":4236:4416   */\n    tag_83:\n        /* \"#utility.yul\":4284:4361   */\n      0x4e487b7100000000000000000000000000000000000000000000000000000000\n        /* \"#utility.yul\":4281:4282   */\n      0x00\n        /* \"#utility.yul\":4274:4362   */\n      mstore\n        /* \"#utility.yul\":4381:4385   */\n      0x22\n        /* \"#utility.yul\":4378:4379   */\n      0x04\n        /* \"#utility.yul\":4371:4386   */\n      mstore\n        /* \"#utility.yul\":4405:4409   */\n      0x24\n        /* \"#utility.yul\":4402:4403   */\n      0x00\n        /* \"#utility.yul\":4395:4410   */\n      revert\n        /* \"#utility.yul\":4422:4742   */\n    tag_28:\n        /* \"#utility.yul\":4466:4472   */\n      0x00\n        /* \"#utility.yul\":4503:4504   */\n      0x02\n        /* \"#utility.yul\":4497:4501   */\n      dup3\n        /* \"#utility.yul\":4493:4505   */\n      div\n        /* \"#utility.yul\":4483:4505   */\n      swap1\n      pop\n        /* \"#utility.yul\":4550:4551   */\n      0x01\n        /* \"#utility.yul\":4544:4548   */\n      dup3\n        /* \"#utility.yul\":4540:4552   */\n      and\n        /* \"#utility.yul\":4571:4589   */\n      dup1\n        /* \"#utility.yul\":4561:4642   */\n      tag_140\n      jumpi\n        /* \"#utility.yul\":4627:4631   */\n      0x7f\n        /* \"#utility.yul\":4619:4625   */\n      dup3\n        /* \"#utility.yul\":4615:4632   */\n      and\n        /* \"#utility.yul\":4605:4632   */\n      swap2\n      pop\n        /* \"#utility.yul\":4561:4642   */\n    tag_140:\n        /* \"#utility.yul\":4689:4691   */\n      0x20\n        /* \"#utility.yul\":4681:4687   */\n      dup3\n        /* \"#utility.yul\":4678:4692   */\n      lt\n        /* \"#utility.yul\":4658:4676   */\n      dup2\n        /* \"#utility.yul\":4655:4693   */\n      eq\n        /* \"#utility.yul\":4652:4736   */\n      iszero\n      tag_141\n      jumpi\n        /* \"#utility.yul\":4708:4726   */\n      tag_142\n      tag_83\n      jump\t// in\n    tag_142:\n        /* \"#utility.yul\":4652:4736   */\n    tag_141:\n        /* \"#utility.yul\":4473:4742   */\n      pop\n        /* \"#utility.yul\":4422:4742   */\n      swap2\n      swap1\n      pop\n      jump\t// out\n        /* \"#utility.yul\":4748:4928   */\n    tag_36:\n        /* \"#utility.yul\":4796:4873   */\n      0x4e487b7100000000000000000000000000000000000000000000000000000000\n        /* \"#utility.yul\":4793:4794   */\n      0x00\n        /* \"#utility.yul\":4786:4874   */\n      mstore\n        /* \"#utility.yul\":4893:4897   */\n      0x32\n        /* \"#utility.yul\":4890:4891   */\n      0x04\n        /* \"#utility.yul\":4883:4898   */\n      mstore\n        /* \"#utility.yul\":4917:4921   */\n      0x24\n        /* \"#utility.yul\":4914:4915   */\n      0x00\n        /* \"#utility.yul\":4907:4922   */\n      revert\n        /* \"#utility.yul\":4934:5081   */\n    tag_84:\n        /* \"#utility.yul\":5035:5046   */\n      0x00\n        /* \"#utility.yul\":5072:5075   */\n      dup2\n        /* \"#utility.yul\":5057:5075   */\n      swap1\n      pop\n        /* \"#utility.yul\":4934:5081   */\n      swap3\n      swap2\n      pop\n      pop\n      jump\t// out\n        /* \"#utility.yul\":5087:5241   */\n    tag_85:\n        /* \"#utility.yul\":5171:5177   */\n      dup3\n        /* \"#utility.yul\":5166:5169   */\n      dup2\n        /* \"#utility.yul\":5161:5164   */\n      dup4\n        /* \"#utility.yul\":5148:5178   */\n      calldatacopy\n        /* \"#utility.yul\":5233:5234   */\n      0x00\n        /* \"#utility.yul\":5224:5230   */\n      dup4\n        /* \"#utility.yul\":5219:5222   */\n      dup4\n        /* \"#utility.yul\":5215:5231   */\n      add\n        /* \"#utility.yul\":5208:5235   */\n      mstore\n        /* \"#utility.yul\":5087:5241   */\n      pop\n      pop\n      pop\n      jump\t// out\n        /* \"#utility.yul\":5269:5583   */\n    tag_86:\n        /* \"#utility.yul\":5383:5386   */\n      0x00\n        /* \"#utility.yul\":5404:5492   */\n      tag_147\n        /* \"#utility.yul\":5485:5491   */\n      dup4\n        /* \"#utility.yul\":5480:5483   */\n      dup6\n        /* \"#utility.yul\":5404:5492   */\n      tag_84\n      jump\t// in\n    tag_147:\n        /* \"#utility.yul\":5397:5492   */\n      swap4\n      pop\n        /* \"#utility.yul\":5502:5545   */\n      tag_148\n        /* \"#utility.yul\":5538:5544   */\n      dup4\n        /* \"#utility.yul\":5533:5536   */\n      dup6\n        /* \"#utility.yul\":5526:5531   */\n      dup5\n        /* \"#utility.yul\":5502:5545   */\n      tag_85\n      jump\t// in\n    tag_148:\n        /* \"#utility.yul\":5570:5576   */\n      dup3\n        /* \"#utility.yul\":5565:5568   */\n      dup5\n        /* \"#utility.yul\":5561:5577   */\n      add\n        /* \"#utility.yul\":5554:5577   */\n      swap1\n      pop\n        /* \"#utility.yul\":5269:5583   */\n      swap4\n      swap3\n      pop\n      pop\n      pop\n      jump\t// out\n        /* \"#utility.yul\":5589:5880   */\n    tag_45:\n        /* \"#utility.yul\":5729:5732   */\n      0x00\n        /* \"#utility.yul\":5751:5854   */\n      tag_150\n        /* \"#utility.yul\":5850:5853   */\n      dup3\n        /* \"#utility.yul\":5841:5847   */\n      dup5\n        /* \"#utility.yul\":5833:5839   */\n      dup7\n        /* \"#utility.yul\":5751:5854   */\n      tag_86\n      jump\t// in\n    tag_150:\n        /* \"#utility.yul\":5744:5854   */\n      swap2\n      pop\n        /* \"#utility.yul\":5871:5874   */\n      dup2\n        /* \"#utility.yul\":5864:5874   */\n      swap1\n      pop\n        /* \"#utility.yul\":5589:5880   */\n      swap4\n      swap3\n      pop\n      pop\n      pop\n      jump\t// out\n        /* \"#utility.yul\":5886:6066   */\n    tag_87:\n        /* \"#utility.yul\":5934:6011   */\n      0x4e487b7100000000000000000000000000000000000000000000000000000000\n        /* \"#utility.yul\":5931:5932   */\n      0x00\n        /* \"#utility.yul\":5924:6012   */\n      mstore\n        /* \"#utility.yul\":6031:6035   */\n      0x12\n        /* \"#utility.yul\":6028:6029   */\n      0x04\n        /* \"#utility.yul\":6021:6036   */\n      mstore\n        /* \"#utility.yul\":6055:6059   */\n      0x24\n        /* \"#utility.yul\":6052:6053   */\n      0x00\n        /* \"#utility.yul\":6045:6060   */\n      revert\n        /* \"#utility.yul\":6072:6248   */\n    tag_47:\n        /* \"#utility.yul\":6104:6105   */\n      0x00\n        /* \"#utility.yul\":6121:6141   */\n      tag_153\n        /* \"#utility.yul\":6139:6140   */\n      dup3\n        /* \"#utility.yul\":6121:6141   */\n      tag_74\n      jump\t// in\n    tag_153:\n        /* \"#utility.yul\":6116:6141   */\n      swap2\n      pop\n        /* \"#utility.yul\":6155:6175   */\n      tag_154\n        /* \"#utility.yul\":6173:6174   */\n      dup4\n        /* \"#utility.yul\":6155:6175   */\n      tag_74\n      jump\t// in\n    tag_154:\n        /* \"#utility.yul\":6150:6175   */\n      swap3\n      pop\n        /* \"#utility.yul\":6194:6195   */\n      dup3\n        /* \"#utility.yul\":6184:6219   */\n      tag_155\n      jumpi\n        /* \"#utility.yul\":6199:6217   */\n      tag_156\n      tag_87\n      jump\t// in\n    tag_156:\n        /* \"#utility.yul\":6184:6219   */\n    tag_155:\n        /* \"#utility.yul\":6240:6241   */\n      dup3\n        /* \"#utility.yul\":6237:6238   */\n      dup3\n        /* \"#utility.yul\":6233:6242   */\n      mod\n        /* \"#utility.yul\":6228:6242   */\n      swap1\n      pop\n        /* \"#utility.yul\":6072:6248   */\n      swap3\n      swap2\n      pop\n      pop\n      jump\t// out\n        /* \"#utility.yul\":6254:6434   */\n    tag_88:\n        /* \"#utility.yul\":6302:6379   */\n      0x4e487b7100000000000000000000000000000000000000000000000000000000\n        /* \"#utility.yul\":6299:6300   */\n      0x00\n        /* \"#utility.yul\":6292:6380   */\n      mstore\n        /* \"#utility.yul\":6399:6403   */\n      0x11\n        /* \"#utility.yul\":6396:6397   */\n      0x04\n        /* \"#utility.yul\":6389:6404   */\n      mstore\n        /* \"#utility.yul\":6423:6427   */\n      0x24\n        /* \"#utility.yul\":6420:6421   */\n      0x00\n        /* \"#utility.yul\":6413:6428   */\n      revert\n        /* \"#utility.yul\":6440:6631   */\n    tag_50:\n        /* \"#utility.yul\":6480:6484   */\n      0x00\n        /* \"#utility.yul\":6500:6520   */\n      tag_159\n        /* \"#utility.yul\":6518:6519   */\n      dup3\n        /* \"#utility.yul\":6500:6520   */\n      tag_74\n      jump\t// in\n    tag_159:\n        /* \"#utility.yul\":6495:6520   */\n      swap2\n      pop\n        /* \"#utility.yul\":6534:6554   */\n      tag_160\n        /* \"#utility.yul\":6552:6553   */\n      dup4\n        /* \"#utility.yul\":6534:6554   */\n      tag_74\n      jump\t// in\n    tag_160:\n        /* \"#utility.yul\":6529:6554   */\n      swap3\n      pop\n        /* \"#utility.yul\":6573:6574   */\n      dup3\n        /* \"#utility.yul\":6570:6571   */\n      dup3\n        /* \"#utility.yul\":6567:6575   */\n      lt\n        /* \"#utility.yul\":6564:6598   */\n      iszero\n      tag_161\n      jumpi\n        /* \"#utility.yul\":6578:6596   */\n      tag_162\n      tag_88\n      jump\t// in\n    tag_162:\n        /* \"#utility.yul\":6564:6598   */\n    tag_161:\n        /* \"#utility.yul\":6623:6624   */\n      dup3\n        /* \"#utility.yul\":6620:6621   */\n      dup3\n        /* \"#utility.yul\":6616:6625   */\n      sub\n        /* \"#utility.yul\":6608:6625   */\n      swap1\n      pop\n        /* \"#utility.yul\":6440:6631   */\n      swap3\n      swap2\n      pop\n      pop\n      jump\t// out\n        /* \"#utility.yul\":6637:6942   */\n    tag_52:\n        /* \"#utility.yul\":6677:6680   */\n      0x00\n        /* \"#utility.yul\":6696:6716   */\n      tag_164\n        /* \"#utility.yul\":6714:6715   */\n      dup3\n        /* \"#utility.yul\":6696:6716   */\n      tag_74\n      jump\t// in\n    tag_164:\n        /* \"#utility.yul\":6691:6716   */\n      swap2\n      pop\n        /* \"#utility.yul\":6730:6750   */\n      tag_165\n        /* \"#utility.yul\":6748:6749   */\n      dup4\n        /* \"#utility.yul\":6730:6750   */\n      tag_74\n      jump\t// in\n    tag_165:\n        /* \"#utility.yul\":6725:6750   */\n      swap3\n      pop\n        /* \"#utility.yul\":6884:6885   */\n      dup3\n        /* \"#utility.yul\":6816:6882   */\n      0xffffffffffffffffffffffffffffffffffffffffffffffffffffffffffffffff\n        /* \"#utility.yul\":6812:6886   */\n      sub\n        /* \"#utility.yul\":6809:6810   */\n      dup3\n        /* \"#utility.yul\":6806:6887   */\n      gt\n        /* \"#utility.yul\":6803:6910   */\n      iszero\n      tag_166\n      jumpi\n        /* \"#utility.yul\":6890:6908   */\n      tag_167\n      tag_88\n      jump\t// in\n    tag_167:\n        /* \"#utility.yul\":6803:6910   */\n    tag_166:\n        /* \"#utility.yul\":6934:6935   */\n      dup3\n        /* \"#utility.yul\":6931:6932   */\n      dup3\n        /* \"#utility.yul\":6927:6936   */\n      add\n        /* \"#utility.yul\":6920:6936   */\n      swap1\n      pop\n        /* \"#utility.yul\":6637:6942   */\n      swap3\n      swap2\n      pop\n      pop\n      jump\t// out\n\n    auxdata: 0xa2646970667358221220371cb816878870b710b44b8003ed91453d98a5a58e00292a3d4342f27143ac8864736f6c634300080c0033\n}\n",
				"bytecode": {
					"linkReferences": {},
					"object": "6080604052600e600055600054600a6200001a9190620001be565b6001553480156200002a57600080fd5b506200020f565b7f4e487b7100000000000000000000000000000000000000000000000000000000600052601160045260246000fd5b60008160011c9050919050565b6000808291508390505b6001851115620000bf5780860481111562000097576200009662000031565b5b6001851615620000a75780820291505b8081029050620000b78562000060565b945062000077565b94509492505050565b600082620000da5760019050620001ad565b81620000ea5760009050620001ad565b81600181146200010357600281146200010e5762000144565b6001915050620001ad565b60ff84111562000123576200012262000031565b5b8360020a9150848211156200013d576200013c62000031565b5b50620001ad565b5060208310610133831016604e8410600b84101617156200017e5782820a90508381111562000178576200017762000031565b5b620001ad565b6200018d84848460016200006d565b92509050818404811115620001a757620001a662000031565b5b81810290505b9392505050565b6000819050919050565b6000620001cb82620001b4565b9150620001d883620001b4565b9250620002077fffffffffffffffffffffffffffffffffffffffffffffffffffffffffffffffff8484620000c8565b905092915050565b6108af806200021f6000396000f3fe608060405234801561001057600080fd5b50600436106100415760003560e01c80632645b2bc146100465780634a5479f314610062578063ecb76d9014610094575b600080fd5b610060600480360381019061005b91906104e2565b6100c6565b005b61007c60048036038101906100779190610565565b6100e4565b60405161008b9392919061063a565b60405180910390f35b6100ae60048036038101906100a99190610565565b6101a6565b6040516100bd9392919061063a565b60405180910390f35b60006100d2838361029f565b90506100df838383610302565b505050565b600281815481106100f457600080fd5b9060005260206000209060030201600091509050806000018054610117906106a7565b80601f0160208091040260200160405190810160405280929190818152602001828054610143906106a7565b80156101905780601f1061016557610100808354040283529160200191610190565b820191906000526020600020905b81548152906001019060200180831161017357829003601f168201915b5050505050908060010154908060020154905083565b60606000806000600285815481106101c1576101c06106d9565b5b90600052602060002090600302016040518060600160405290816000820180546101ea906106a7565b80601f0160208091040260200160405190810160405280929190818152602001828054610216906106a7565b80156102635780601f1061023857610100808354040283529160200191610263565b820191906000526020600020905b81548152906001019060200180831161024657829003601f168201915b50505050508152602001600182015481526020016002820154815250509050806000015181602001518260400151935093509350509193909250565b60008083836040516102b2929190610747565b604051809103902060001c90506000600154826102cf919061078f565b905060636064826102e0919061078f565b826102eb91906107ef565b6102f59190610823565b9050809250505092915050565b6000655af3107a400090506002604051806060016040528086868080601f016020809104026020016040519081016040528093929190818152602001838380828437600081840152601f19601f82011690508083019250505050505050815260200184815260200183815250908060018154018082558091505060019003906000526020600020906003020160009091909190915060008201518160000190805190602001906103b39291906103d0565b506020820151816001015560408201518160020155505050505050565b8280546103dc906106a7565b90600052602060002090601f0160209004810192826103fe5760008555610445565b82601f1061041757805160ff1916838001178555610445565b82800160010185558215610445579182015b82811115610444578251825591602001919060010190610429565b5b5090506104529190610456565b5090565b5b8082111561046f576000816000905550600101610457565b5090565b600080fd5b600080fd5b600080fd5b600080fd5b600080fd5b60008083601f8401126104a2576104a161047d565b5b8235905067ffffffffffffffff8111156104bf576104be610482565b5b6020830191508360018202830111156104db576104da610487565b5b9250929050565b600080602083850312156104f9576104f8610473565b5b600083013567ffffffffffffffff81111561051757610516610478565b5b6105238582860161048c565b92509250509250929050565b6000819050919050565b6105428161052f565b811461054d57600080fd5b50565b60008135905061055f81610539565b92915050565b60006020828403121561057b5761057a610473565b5b600061058984828501610550565b91505092915050565b600081519050919050565b600082825260208201905092915050565b60005b838110156105cc5780820151818401526020810190506105b1565b838111156105db576000848401525b50505050565b6000601f19601f8301169050919050565b60006105fd82610592565b610607818561059d565b93506106178185602086016105ae565b610620816105e1565b840191505092915050565b6106348161052f565b82525050565b6000606082019050818103600083015261065481866105f2565b9050610663602083018561062b565b610670604083018461062b565b949350505050565b7f4e487b7100000000000000000000000000000000000000000000000000000000600052602260045260246000fd5b600060028204905060018216806106bf57607f821691505b602082108114156106d3576106d2610678565b5b50919050565b7f4e487b7100000000000000000000000000000000000000000000000000000000600052603260045260246000fd5b600081905092915050565b82818337600083830152505050565b600061072e8385610708565b935061073b838584610713565b82840190509392505050565b6000610754828486610722565b91508190509392505050565b7f4e487b7100000000000000000000000000000000000000000000000000000000600052601260045260246000fd5b600061079a8261052f565b91506107a58361052f565b9250826107b5576107b4610760565b5b828206905092915050565b7f4e487b7100000000000000000000000000000000000000000000000000000000600052601160045260246000fd5b60006107fa8261052f565b91506108058361052f565b925082821015610818576108176107c0565b5b828203905092915050565b600061082e8261052f565b91506108398361052f565b9250827fffffffffffffffffffffffffffffffffffffffffffffffffffffffffffffffff0382111561086e5761086d6107c0565b5b82820190509291505056fea2646970667358221220371cb816878870b710b44b8003ed91453d98a5a58e00292a3d4342f27143ac8864736f6c634300080c0033",
					"opcodes": "PUSH1 0x80 PUSH1 0x40 MSTORE PUSH1 0xE PUSH1 0x0 SSTORE PUSH1 0x0 SLOAD PUSH1 0xA PUSH3 0x1A SWAP2 SWAP1 PUSH3 0x1BE JUMP JUMPDEST PUSH1 0x1 SSTORE CALLVALUE DUP1 ISZERO PUSH3 0x2A JUMPI PUSH1 0x0 DUP1 REVERT JUMPDEST POP PUSH3 0x20F JUMP JUMPDEST PUSH32 0x4E487B7100000000000000000000000000000000000000000000000000000000 PUSH1 0x0 MSTORE PUSH1 0x11 PUSH1 0x4 MSTORE PUSH1 0x24 PUSH1 0x0 REVERT JUMPDEST PUSH1 0x0 DUP2 PUSH1 0x1 SHR SWAP1 POP SWAP2 SWAP1 POP JUMP JUMPDEST PUSH1 0x0 DUP1 DUP3 SWAP2 POP DUP4 SWAP1 POP JUMPDEST PUSH1 0x1 DUP6 GT ISZERO PUSH3 0xBF JUMPI DUP1 DUP7 DIV DUP2 GT ISZERO PUSH3 0x97 JUMPI PUSH3 0x96 PUSH3 0x31 JUMP JUMPDEST JUMPDEST PUSH1 0x1 DUP6 AND ISZERO PUSH3 0xA7 JUMPI DUP1 DUP3 MUL SWAP2 POP JUMPDEST DUP1 DUP2 MUL SWAP1 POP PUSH3 0xB7 DUP6 PUSH3 0x60 JUMP JUMPDEST SWAP5 POP PUSH3 0x77 JUMP JUMPDEST SWAP5 POP SWAP5 SWAP3 POP POP POP JUMP JUMPDEST PUSH1 0x0 DUP3 PUSH3 0xDA JUMPI PUSH1 0x1 SWAP1 POP PUSH3 0x1AD JUMP JUMPDEST DUP2 PUSH3 0xEA JUMPI PUSH1 0x0 SWAP1 POP PUSH3 0x1AD JUMP JUMPDEST DUP2 PUSH1 0x1 DUP2 EQ PUSH3 0x103 JUMPI PUSH1 0x2 DUP2 EQ PUSH3 0x10E JUMPI PUSH3 0x144 JUMP JUMPDEST PUSH1 0x1 SWAP2 POP POP PUSH3 0x1AD JUMP JUMPDEST PUSH1 0xFF DUP5 GT ISZERO PUSH3 0x123 JUMPI PUSH3 0x122 PUSH3 0x31 JUMP JUMPDEST JUMPDEST DUP4 PUSH1 0x2 EXP SWAP2 POP DUP5 DUP3 GT ISZERO PUSH3 0x13D JUMPI PUSH3 0x13C PUSH3 0x31 JUMP JUMPDEST JUMPDEST POP PUSH3 0x1AD JUMP JUMPDEST POP PUSH1 0x20 DUP4 LT PUSH2 0x133 DUP4 LT AND PUSH1 0x4E DUP5 LT PUSH1 0xB DUP5 LT AND OR ISZERO PUSH3 0x17E JUMPI DUP3 DUP3 EXP SWAP1 POP DUP4 DUP2 GT ISZERO PUSH3 0x178 JUMPI PUSH3 0x177 PUSH3 0x31 JUMP JUMPDEST JUMPDEST PUSH3 0x1AD JUMP JUMPDEST PUSH3 0x18D DUP5 DUP5 DUP5 PUSH1 0x1 PUSH3 0x6D JUMP JUMPDEST SWAP3 POP SWAP1 POP DUP2 DUP5 DIV DUP2 GT ISZERO PUSH3 0x1A7 JUMPI PUSH3 0x1A6 PUSH3 0x31 JUMP JUMPDEST JUMPDEST DUP2 DUP2 MUL SWAP1 POP JUMPDEST SWAP4 SWAP3 POP POP POP JUMP JUMPDEST PUSH1 0x0 DUP2 SWAP1 POP SWAP2 SWAP1 POP JUMP JUMPDEST PUSH1 0x0 PUSH3 0x1CB DUP3 PUSH3 0x1B4 JUMP JUMPDEST SWAP2 POP PUSH3 0x1D8 DUP4 PUSH3 0x1B4 JUMP JUMPDEST SWAP3 POP PUSH3 0x207 PUSH32 0xFFFFFFFFFFFFFFFFFFFFFFFFFFFFFFFFFFFFFFFFFFFFFFFFFFFFFFFFFFFFFFFF DUP5 DUP5 PUSH3 0xC8 JUMP JUMPDEST SWAP1 POP SWAP3 SWAP2 POP POP JUMP JUMPDEST PUSH2 0x8AF DUP1 PUSH3 0x21F PUSH1 0x0 CODECOPY PUSH1 0x0 RETURN INVALID PUSH1 0x80 PUSH1 0x40 MSTORE CALLVALUE DUP1 ISZERO PUSH2 0x10 JUMPI PUSH1 0x0 DUP1 REVERT JUMPDEST POP PUSH1 0x4 CALLDATASIZE LT PUSH2 0x41 JUMPI PUSH1 0x0 CALLDATALOAD PUSH1 0xE0 SHR DUP1 PUSH4 0x2645B2BC EQ PUSH2 0x46 JUMPI DUP1 PUSH4 0x4A5479F3 EQ PUSH2 0x62 JUMPI DUP1 PUSH4 0xECB76D90 EQ PUSH2 0x94 JUMPI JUMPDEST PUSH1 0x0 DUP1 REVERT JUMPDEST PUSH2 0x60 PUSH1 0x4 DUP1 CALLDATASIZE SUB DUP2 ADD SWAP1 PUSH2 0x5B SWAP2 SWAP1 PUSH2 0x4E2 JUMP JUMPDEST PUSH2 0xC6 JUMP JUMPDEST STOP JUMPDEST PUSH2 0x7C PUSH1 0x4 DUP1 CALLDATASIZE SUB DUP2 ADD SWAP1 PUSH2 0x77 SWAP2 SWAP1 PUSH2 0x565 JUMP JUMPDEST PUSH2 0xE4 JUMP JUMPDEST PUSH1 0x40 MLOAD PUSH2 0x8B SWAP4 SWAP3 SWAP2 SWAP1 PUSH2 0x63A JUMP JUMPDEST PUSH1 0x40 MLOAD DUP1 SWAP2 SUB SWAP1 RETURN JUMPDEST PUSH2 0xAE PUSH1 0x4 DUP1 CALLDATASIZE SUB DUP2 ADD SWAP1 PUSH2 0xA9 SWAP2 SWAP1 PUSH2 0x565 JUMP JUMPDEST PUSH2 0x1A6 JUMP JUMPDEST PUSH1 0x40 MLOAD PUSH2 0xBD SWAP4 SWAP3 SWAP2 SWAP1 PUSH2 0x63A JUMP JUMPDEST PUSH1 0x40 MLOAD DUP1 SWAP2 SUB SWAP1 RETURN JUMPDEST PUSH1 0x0 PUSH2 0xD2 DUP4 DUP4 PUSH2 0x29F JUMP JUMPDEST SWAP1 POP PUSH2 0xDF DUP4 DUP4 DUP4 PUSH2 0x302 JUMP JUMPDEST POP POP POP JUMP JUMPDEST PUSH1 0x2 DUP2 DUP2 SLOAD DUP2 LT PUSH2 0xF4 JUMPI PUSH1 0x0 DUP1 REVERT JUMPDEST SWAP1 PUSH1 0x0 MSTORE PUSH1 0x20 PUSH1 0x0 KECCAK256 SWAP1 PUSH1 0x3 MUL ADD PUSH1 0x0 SWAP2 POP SWAP1 POP DUP1 PUSH1 0x0 ADD DUP1 SLOAD PUSH2 0x117 SWAP1 PUSH2 0x6A7 JUMP JUMPDEST DUP1 PUSH1 0x1F ADD PUSH1 0x20 DUP1 SWAP2 DIV MUL PUSH1 0x20 ADD PUSH1 0x40 MLOAD SWAP1 DUP2 ADD PUSH1 0x40 MSTORE DUP1 SWAP3 SWAP2 SWAP1 DUP2 DUP2 MSTORE PUSH1 0x20 ADD DUP3 DUP1 SLOAD PUSH2 0x143 SWAP1 PUSH2 0x6A7 JUMP JUMPDEST DUP1 ISZERO PUSH2 0x190 JUMPI DUP1 PUSH1 0x1F LT PUSH2 0x165 JUMPI PUSH2 0x100 DUP1 DUP4 SLOAD DIV MUL DUP4 MSTORE SWAP2 PUSH1 0x20 ADD SWAP2 PUSH2 0x190 JUMP JUMPDEST DUP3 ADD SWAP2 SWAP1 PUSH1 0x0 MSTORE PUSH1 0x20 PUSH1 0x0 KECCAK256 SWAP1 JUMPDEST DUP2 SLOAD DUP2 MSTORE SWAP1 PUSH1 0x1 ADD SWAP1 PUSH1 0x20 ADD DUP1 DUP4 GT PUSH2 0x173 JUMPI DUP3 SWAP1 SUB PUSH1 0x1F AND DUP3 ADD SWAP2 JUMPDEST POP POP POP POP POP SWAP1 DUP1 PUSH1 0x1 ADD SLOAD SWAP1 DUP1 PUSH1 0x2 ADD SLOAD SWAP1 POP DUP4 JUMP JUMPDEST PUSH1 0x60 PUSH1 0x0 DUP1 PUSH1 0x0 PUSH1 0x2 DUP6 DUP2 SLOAD DUP2 LT PUSH2 0x1C1 JUMPI PUSH2 0x1C0 PUSH2 0x6D9 JUMP JUMPDEST JUMPDEST SWAP1 PUSH1 0x0 MSTORE PUSH1 0x20 PUSH1 0x0 KECCAK256 SWAP1 PUSH1 0x3 MUL ADD PUSH1 0x40 MLOAD DUP1 PUSH1 0x60 ADD PUSH1 0x40 MSTORE SWAP1 DUP2 PUSH1 0x0 DUP3 ADD DUP1 SLOAD PUSH2 0x1EA SWAP1 PUSH2 0x6A7 JUMP JUMPDEST DUP1 PUSH1 0x1F ADD PUSH1 0x20 DUP1 SWAP2 DIV MUL PUSH1 0x20 ADD PUSH1 0x40 MLOAD SWAP1 DUP2 ADD PUSH1 0x40 MSTORE DUP1 SWAP3 SWAP2 SWAP1 DUP2 DUP2 MSTORE PUSH1 0x20 ADD DUP3 DUP1 SLOAD PUSH2 0x216 SWAP1 PUSH2 0x6A7 JUMP JUMPDEST DUP1 ISZERO PUSH2 0x263 JUMPI DUP1 PUSH1 0x1F LT PUSH2 0x238 JUMPI PUSH2 0x100 DUP1 DUP4 SLOAD DIV MUL DUP4 MSTORE SWAP2 PUSH1 0x20 ADD SWAP2 PUSH2 0x263 JUMP JUMPDEST DUP3 ADD SWAP2 SWAP1 PUSH1 0x0 MSTORE PUSH1 0x20 PUSH1 0x0 KECCAK256 SWAP1 JUMPDEST DUP2 SLOAD DUP2 MSTORE SWAP1 PUSH1 0x1 ADD SWAP1 PUSH1 0x20 ADD DUP1 DUP4 GT PUSH2 0x246 JUMPI DUP3 SWAP1 SUB PUSH1 0x1F AND DUP3 ADD SWAP2 JUMPDEST POP POP POP POP POP DUP2 MSTORE PUSH1 0x20 ADD PUSH1 0x1 DUP3 ADD SLOAD DUP2 MSTORE PUSH1 0x20 ADD PUSH1 0x2 DUP3 ADD SLOAD DUP2 MSTORE POP POP SWAP1 POP DUP1 PUSH1 0x0 ADD MLOAD DUP2 PUSH1 0x20 ADD MLOAD DUP3 PUSH1 0x40 ADD MLOAD SWAP4 POP SWAP4 POP SWAP4 POP POP SWAP2 SWAP4 SWAP1 SWAP3 POP JUMP JUMPDEST PUSH1 0x0 DUP1 DUP4 DUP4 PUSH1 0x40 MLOAD PUSH2 0x2B2 SWAP3 SWAP2 SWAP1 PUSH2 0x747 JUMP JUMPDEST PUSH1 0x40 MLOAD DUP1 SWAP2 SUB SWAP1 KECCAK256 PUSH1 0x0 SHR SWAP1 POP PUSH1 0x0 PUSH1 0x1 SLOAD DUP3 PUSH2 0x2CF SWAP2 SWAP1 PUSH2 0x78F JUMP JUMPDEST SWAP1 POP PUSH1 0x63 PUSH1 0x64 DUP3 PUSH2 0x2E0 SWAP2 SWAP1 PUSH2 0x78F JUMP JUMPDEST DUP3 PUSH2 0x2EB SWAP2 SWAP1 PUSH2 0x7EF JUMP JUMPDEST PUSH2 0x2F5 SWAP2 SWAP1 PUSH2 0x823 JUMP JUMPDEST SWAP1 POP DUP1 SWAP3 POP POP POP SWAP3 SWAP2 POP POP JUMP JUMPDEST PUSH1 0x0 PUSH6 0x5AF3107A4000 SWAP1 POP PUSH1 0x2 PUSH1 0x40 MLOAD DUP1 PUSH1 0x60 ADD PUSH1 0x40 MSTORE DUP1 DUP7 DUP7 DUP1 DUP1 PUSH1 0x1F ADD PUSH1 0x20 DUP1 SWAP2 DIV MUL PUSH1 0x20 ADD PUSH1 0x40 MLOAD SWAP1 DUP2 ADD PUSH1 0x40 MSTORE DUP1 SWAP4 SWAP3 SWAP2 SWAP1 DUP2 DUP2 MSTORE PUSH1 0x20 ADD DUP4 DUP4 DUP1 DUP3 DUP5 CALLDATACOPY PUSH1 0x0 DUP2 DUP5 ADD MSTORE PUSH1 0x1F NOT PUSH1 0x1F DUP3 ADD AND SWAP1 POP DUP1 DUP4 ADD SWAP3 POP POP POP POP POP POP POP DUP2 MSTORE PUSH1 0x20 ADD DUP5 DUP2 MSTORE PUSH1 0x20 ADD DUP4 DUP2 MSTORE POP SWAP1 DUP1 PUSH1 0x1 DUP2 SLOAD ADD DUP1 DUP3 SSTORE DUP1 SWAP2 POP POP PUSH1 0x1 SWAP1 SUB SWAP1 PUSH1 0x0 MSTORE PUSH1 0x20 PUSH1 0x0 KECCAK256 SWAP1 PUSH1 0x3 MUL ADD PUSH1 0x0 SWAP1 SWAP2 SWAP1 SWAP2 SWAP1 SWAP2 POP PUSH1 0x0 DUP3 ADD MLOAD DUP2 PUSH1 0x0 ADD SWAP1 DUP1 MLOAD SWAP1 PUSH1 0x20 ADD SWAP1 PUSH2 0x3B3 SWAP3 SWAP2 SWAP1 PUSH2 0x3D0 JUMP JUMPDEST POP PUSH1 0x20 DUP3 ADD MLOAD DUP2 PUSH1 0x1 ADD SSTORE PUSH1 0x40 DUP3 ADD MLOAD DUP2 PUSH1 0x2 ADD SSTORE POP POP POP POP POP POP JUMP JUMPDEST DUP3 DUP1 SLOAD PUSH2 0x3DC SWAP1 PUSH2 0x6A7 JUMP JUMPDEST SWAP1 PUSH1 0x0 MSTORE PUSH1 0x20 PUSH1 0x0 KECCAK256 SWAP1 PUSH1 0x1F ADD PUSH1 0x20 SWAP1 DIV DUP2 ADD SWAP3 DUP3 PUSH2 0x3FE JUMPI PUSH1 0x0 DUP6 SSTORE PUSH2 0x445 JUMP JUMPDEST DUP3 PUSH1 0x1F LT PUSH2 0x417 JUMPI DUP1 MLOAD PUSH1 0xFF NOT AND DUP4 DUP1 ADD OR DUP6 SSTORE PUSH2 0x445 JUMP JUMPDEST DUP3 DUP1 ADD PUSH1 0x1 ADD DUP6 SSTORE DUP3 ISZERO PUSH2 0x445 JUMPI SWAP2 DUP3 ADD JUMPDEST DUP3 DUP2 GT ISZERO PUSH2 0x444 JUMPI DUP3 MLOAD DUP3 SSTORE SWAP2 PUSH1 0x20 ADD SWAP2 SWAP1 PUSH1 0x1 ADD SWAP1 PUSH2 0x429 JUMP JUMPDEST JUMPDEST POP SWAP1 POP PUSH2 0x452 SWAP2 SWAP1 PUSH2 0x456 JUMP JUMPDEST POP SWAP1 JUMP JUMPDEST JUMPDEST DUP1 DUP3 GT ISZERO PUSH2 0x46F JUMPI PUSH1 0x0 DUP2 PUSH1 0x0 SWAP1 SSTORE POP PUSH1 0x1 ADD PUSH2 0x457 JUMP JUMPDEST POP SWAP1 JUMP JUMPDEST PUSH1 0x0 DUP1 REVERT JUMPDEST PUSH1 0x0 DUP1 REVERT JUMPDEST PUSH1 0x0 DUP1 REVERT JUMPDEST PUSH1 0x0 DUP1 REVERT JUMPDEST PUSH1 0x0 DUP1 REVERT JUMPDEST PUSH1 0x0 DUP1 DUP4 PUSH1 0x1F DUP5 ADD SLT PUSH2 0x4A2 JUMPI PUSH2 0x4A1 PUSH2 0x47D JUMP JUMPDEST JUMPDEST DUP3 CALLDATALOAD SWAP1 POP PUSH8 0xFFFFFFFFFFFFFFFF DUP2 GT ISZERO PUSH2 0x4BF JUMPI PUSH2 0x4BE PUSH2 0x482 JUMP JUMPDEST JUMPDEST PUSH1 0x20 DUP4 ADD SWAP2 POP DUP4 PUSH1 0x1 DUP3 MUL DUP4 ADD GT ISZERO PUSH2 0x4DB JUMPI PUSH2 0x4DA PUSH2 0x487 JUMP JUMPDEST JUMPDEST SWAP3 POP SWAP3 SWAP1 POP JUMP JUMPDEST PUSH1 0x0 DUP1 PUSH1 0x20 DUP4 DUP6 SUB SLT ISZERO PUSH2 0x4F9 JUMPI PUSH2 0x4F8 PUSH2 0x473 JUMP JUMPDEST JUMPDEST PUSH1 0x0 DUP4 ADD CALLDATALOAD PUSH8 0xFFFFFFFFFFFFFFFF DUP2 GT ISZERO PUSH2 0x517 JUMPI PUSH2 0x516 PUSH2 0x478 JUMP JUMPDEST JUMPDEST PUSH2 0x523 DUP6 DUP3 DUP7 ADD PUSH2 0x48C JUMP JUMPDEST SWAP3 POP SWAP3 POP POP SWAP3 POP SWAP3 SWAP1 POP JUMP JUMPDEST PUSH1 0x0 DUP2 SWAP1 POP SWAP2 SWAP1 POP JUMP JUMPDEST PUSH2 0x542 DUP2 PUSH2 0x52F JUMP JUMPDEST DUP2 EQ PUSH2 0x54D JUMPI PUSH1 0x0 DUP1 REVERT JUMPDEST POP JUMP JUMPDEST PUSH1 0x0 DUP2 CALLDATALOAD SWAP1 POP PUSH2 0x55F DUP2 PUSH2 0x539 JUMP JUMPDEST SWAP3 SWAP2 POP POP JUMP JUMPDEST PUSH1 0x0 PUSH1 0x20 DUP3 DUP5 SUB SLT ISZERO PUSH2 0x57B JUMPI PUSH2 0x57A PUSH2 0x473 JUMP JUMPDEST JUMPDEST PUSH1 0x0 PUSH2 0x589 DUP5 DUP3 DUP6 ADD PUSH2 0x550 JUMP JUMPDEST SWAP2 POP POP SWAP3 SWAP2 POP POP JUMP JUMPDEST PUSH1 0x0 DUP2 MLOAD SWAP1 POP SWAP2 SWAP1 POP JUMP JUMPDEST PUSH1 0x0 DUP3 DUP3 MSTORE PUSH1 0x20 DUP3 ADD SWAP1 POP SWAP3 SWAP2 POP POP JUMP JUMPDEST PUSH1 0x0 JUMPDEST DUP4 DUP2 LT ISZERO PUSH2 0x5CC JUMPI DUP1 DUP3 ADD MLOAD DUP2 DUP5 ADD MSTORE PUSH1 0x20 DUP2 ADD SWAP1 POP PUSH2 0x5B1 JUMP JUMPDEST DUP4 DUP2 GT ISZERO PUSH2 0x5DB JUMPI PUSH1 0x0 DUP5 DUP5 ADD MSTORE JUMPDEST POP POP POP POP JUMP JUMPDEST PUSH1 0x0 PUSH1 0x1F NOT PUSH1 0x1F DUP4 ADD AND SWAP1 POP SWAP2 SWAP1 POP JUMP JUMPDEST PUSH1 0x0 PUSH2 0x5FD DUP3 PUSH2 0x592 JUMP JUMPDEST PUSH2 0x607 DUP2 DUP6 PUSH2 0x59D JUMP JUMPDEST SWAP4 POP PUSH2 0x617 DUP2 DUP6 PUSH1 0x20 DUP7 ADD PUSH2 0x5AE JUMP JUMPDEST PUSH2 0x620 DUP2 PUSH2 0x5E1 JUMP JUMPDEST DUP5 ADD SWAP2 POP POP SWAP3 SWAP2 POP POP JUMP JUMPDEST PUSH2 0x634 DUP2 PUSH2 0x52F JUMP JUMPDEST DUP3 MSTORE POP POP JUMP JUMPDEST PUSH1 0x0 PUSH1 0x60 DUP3 ADD SWAP1 POP DUP2 DUP2 SUB PUSH1 0x0 DUP4 ADD MSTORE PUSH2 0x654 DUP2 DUP7 PUSH2 0x5F2 JUMP JUMPDEST SWAP1 POP PUSH2 0x663 PUSH1 0x20 DUP4 ADD DUP6 PUSH2 0x62B JUMP JUMPDEST PUSH2 0x670 PUSH1 0x40 DUP4 ADD DUP5 PUSH2 0x62B JUMP JUMPDEST SWAP5 SWAP4 POP POP POP POP JUMP JUMPDEST PUSH32 0x4E487B7100000000000000000000000000000000000000000000000000000000 PUSH1 0x0 MSTORE PUSH1 0x22 PUSH1 0x4 MSTORE PUSH1 0x24 PUSH1 0x0 REVERT JUMPDEST PUSH1 0x0 PUSH1 0x2 DUP3 DIV SWAP1 POP PUSH1 0x1 DUP3 AND DUP1 PUSH2 0x6BF JUMPI PUSH1 0x7F DUP3 AND SWAP2 POP JUMPDEST PUSH1 0x20 DUP3 LT DUP2 EQ ISZERO PUSH2 0x6D3 JUMPI PUSH2 0x6D2 PUSH2 0x678 JUMP JUMPDEST JUMPDEST POP SWAP2 SWAP1 POP JUMP JUMPDEST PUSH32 0x4E487B7100000000000000000000000000000000000000000000000000000000 PUSH1 0x0 MSTORE PUSH1 0x32 PUSH1 0x4 MSTORE PUSH1 0x24 PUSH1 0x0 REVERT JUMPDEST PUSH1 0x0 DUP2 SWAP1 POP SWAP3 SWAP2 POP POP JUMP JUMPDEST DUP3 DUP2 DUP4 CALLDATACOPY PUSH1 0x0 DUP4 DUP4 ADD MSTORE POP POP POP JUMP JUMPDEST PUSH1 0x0 PUSH2 0x72E DUP4 DUP6 PUSH2 0x708 JUMP JUMPDEST SWAP4 POP PUSH2 0x73B DUP4 DUP6 DUP5 PUSH2 0x713 JUMP JUMPDEST DUP3 DUP5 ADD SWAP1 POP SWAP4 SWAP3 POP POP POP JUMP JUMPDEST PUSH1 0x0 PUSH2 0x754 DUP3 DUP5 DUP7 PUSH2 0x722 JUMP JUMPDEST SWAP2 POP DUP2 SWAP1 POP SWAP4 SWAP3 POP POP POP JUMP JUMPDEST PUSH32 0x4E487B7100000000000000000000000000000000000000000000000000000000 PUSH1 0x0 MSTORE PUSH1 0x12 PUSH1 0x4 MSTORE PUSH1 0x24 PUSH1 0x0 REVERT JUMPDEST PUSH1 0x0 PUSH2 0x79A DUP3 PUSH2 0x52F JUMP JUMPDEST SWAP2 POP PUSH2 0x7A5 DUP4 PUSH2 0x52F JUMP JUMPDEST SWAP3 POP DUP3 PUSH2 0x7B5 JUMPI PUSH2 0x7B4 PUSH2 0x760 JUMP JUMPDEST JUMPDEST DUP3 DUP3 MOD SWAP1 POP SWAP3 SWAP2 POP POP JUMP JUMPDEST PUSH32 0x4E487B7100000000000000000000000000000000000000000000000000000000 PUSH1 0x0 MSTORE PUSH1 0x11 PUSH1 0x4 MSTORE PUSH1 0x24 PUSH1 0x0 REVERT JUMPDEST PUSH1 0x0 PUSH2 0x7FA DUP3 PUSH2 0x52F JUMP JUMPDEST SWAP2 POP PUSH2 0x805 DUP4 PUSH2 0x52F JUMP JUMPDEST SWAP3 POP DUP3 DUP3 LT ISZERO PUSH2 0x818 JUMPI PUSH2 0x817 PUSH2 0x7C0 JUMP JUMPDEST JUMPDEST DUP3 DUP3 SUB SWAP1 POP SWAP3 SWAP2 POP POP JUMP JUMPDEST PUSH1 0x0 PUSH2 0x82E DUP3 PUSH2 0x52F JUMP JUMPDEST SWAP2 POP PUSH2 0x839 DUP4 PUSH2 0x52F JUMP JUMPDEST SWAP3 POP DUP3 PUSH32 0xFFFFFFFFFFFFFFFFFFFFFFFFFFFFFFFFFFFFFFFFFFFFFFFFFFFFFFFFFFFFFFFF SUB DUP3 GT ISZERO PUSH2 0x86E JUMPI PUSH2 0x86D PUSH2 0x7C0 JUMP JUMPDEST JUMPDEST DUP3 DUP3 ADD SWAP1 POP SWAP3 SWAP2 POP POP JUMP INVALID LOG2 PUSH5 0x6970667358 0x22 SLT KECCAK256 CALLDATACOPY SHR 0xB8 AND DUP8 DUP9 PUSH17 0xB710B44B8003ED91453D98A5A58E00292A RETURNDATASIZE NUMBER TIMESTAMP CALLCODE PUSH18 0x43AC8864736F6C634300080C003300000000 "
				},
				"gasEstimates": {
					"creation": {
						"codeDepositCost": "444600",
						"executionCost": "infinite",
						"totalCost": "infinite"
					},
					"external": {
						"createRandomFeed(string)": "infinite",
						"feeds(uint256)": "infinite",
						"getFeed(uint256)": "infinite"
					},
					"internal": {
						"_createFeed(string calldata,uint256)": "infinite",
						"_generateRandomDna(string calldata)": "infinite"
					}
				},
				"methodIdentifiers": {
					"createRandomFeed(string)": "2645b2bc",
					"feeds(uint256)": "4a5479f3",
					"getFeed(uint256)": "ecb76d90"
				}
			},
			"storageLayout": {
				"storage": [
					{
						"astId": 11,
						"contract": "contracts/FeedFactory.sol:FeedFactory",
						"label": "dnaDigits",
						"offset": 0,
						"slot": "0",
						"type": "t_uint256"
					},
					{
						"astId": 16,
						"contract": "contracts/FeedFactory.sol:FeedFactory",
						"label": "dnaModulus",
						"offset": 0,
						"slot": "1",
						"type": "t_uint256"
					},
					{
						"astId": 20,
						"contract": "contracts/FeedFactory.sol:FeedFactory",
						"label": "feeds",
						"offset": 0,
						"slot": "2",
						"type": "t_array(t_struct(Feed)8_storage)dyn_storage"
					}
				],
				"types": {
					"t_array(t_struct(Feed)8_storage)dyn_storage": {
						"base": "t_struct(Feed)8_storage",
						"encoding": "dynamic_array",
						"label": "struct FeedFactory.Feed[]",
						"numberOfBytes": "32"
					},
					"t_string_storage": {
						"encoding": "bytes",
						"label": "string",
						"numberOfBytes": "32"
					},
					"t_struct(Feed)8_storage": {
						"encoding": "inplace",
						"label": "struct FeedFactory.Feed",
						"members": [
							{
								"astId": 3,
								"contract": "contracts/FeedFactory.sol:FeedFactory",
								"label": "name",
								"offset": 0,
								"slot": "0",
								"type": "t_string_storage"
							},
							{
								"astId": 5,
								"contract": "contracts/FeedFactory.sol:FeedFactory",
								"label": "dna",
								"offset": 0,
								"slot": "1",
								"type": "t_uint256"
							},
							{
								"astId": 7,
								"contract": "contracts/FeedFactory.sol:FeedFactory",
								"label": "price",
								"offset": 0,
								"slot": "2",
								"type": "t_uint256"
							}
						],
						"numberOfBytes": "96"
					},
					"t_uint256": {
						"encoding": "inplace",
						"label": "uint256",
						"numberOfBytes": "32"
					}
				}
			},
			"userdoc": {
				"kind": "user",
				"methods": {},
				"version": 1
			}
		}
	}
}