{
	"contracts/FungusFactory.sol": {
		"FungusFactory": {
			"abi": [
				{
					"anonymous": false,
					"inputs": [
						{
							"indexed": false,
							"internalType": "uint256",
							"name": "",
							"type": "uint256"
						},
						{
							"indexed": false,
							"internalType": "string",
							"name": "",
							"type": "string"
						},
						{
							"indexed": false,
							"internalType": "uint256",
							"name": "",
							"type": "uint256"
						}
					],
					"name": "newFungus",
					"type": "event"
				},
				{
					"inputs": [
						{
							"internalType": "string",
							"name": "name",
							"type": "string"
						}
					],
					"name": "createFungus",
					"outputs": [],
					"stateMutability": "nonpayable",
					"type": "function"
				},
				{
					"inputs": [
						{
							"internalType": "uint256",
							"name": "",
							"type": "uint256"
						}
					],
					"name": "fungi",
					"outputs": [
						{
							"internalType": "string",
							"name": "name",
							"type": "string"
						},
						{
							"internalType": "uint256",
							"name": "dna",
							"type": "uint256"
						},
						{
							"internalType": "uint32",
							"name": "readyTime",
							"type": "uint32"
						}
					],
					"stateMutability": "view",
					"type": "function"
				},
				{
					"inputs": [
						{
							"internalType": "uint256",
							"name": "",
							"type": "uint256"
						}
					],
					"name": "fungusToOwner",
					"outputs": [
						{
							"internalType": "address",
							"name": "",
							"type": "address"
						}
					],
					"stateMutability": "view",
					"type": "function"
				},
				{
					"inputs": [
						{
							"internalType": "address",
							"name": "owner",
							"type": "address"
						}
					],
					"name": "getFungiByOwner",
					"outputs": [
						{
							"internalType": "uint256[]",
							"name": "",
							"type": "uint256[]"
						}
					],
					"stateMutability": "view",
					"type": "function"
				},
				{
					"inputs": [
						{
							"internalType": "address",
							"name": "",
							"type": "address"
						}
					],
					"name": "ownerFungusCount",
					"outputs": [
						{
							"internalType": "uint256",
							"name": "",
							"type": "uint256"
						}
					],
					"stateMutability": "view",
					"type": "function"
				}
			],
			"devdoc": {
				"kind": "dev",
				"methods": {},
				"version": 1
			},
			"evm": {
				"assembly": "    /* \"contracts/FungusFactory.sol\":117:1847  contract FungusFactory {... */\n  mstore(0x40, 0x80)\n    /* \"contracts/FungusFactory.sol\":168:170  14 */\n  0x0e\n    /* \"contracts/FungusFactory.sol\":151:170  uint dnaDigits = 14 */\n  0x00\n  sstore\n    /* \"contracts/FungusFactory.sol\":201:210  dnaDigits */\n  sload(0x00)\n    /* \"contracts/FungusFactory.sol\":195:197  10 */\n  0x0a\n    /* \"contracts/FungusFactory.sol\":195:210  10 ** dnaDigits */\n  tag_1\n  swap2\n  swap1\n  tag_2\n  jump\t// in\ntag_1:\n    /* \"contracts/FungusFactory.sol\":177:210  uint dnaModulus = 10 ** dnaDigits */\n  0x01\n  sstore\n    /* \"contracts/FungusFactory.sol\":237:246  1 minutes */\n  0x3c\n    /* \"contracts/FungusFactory.sol\":217:246  uint cooldownTime = 1 minutes */\n  0x02\n  sstore\n    /* \"contracts/FungusFactory.sol\":117:1847  contract FungusFactory {... */\n  callvalue\n  dup1\n  iszero\n  tag_3\n  jumpi\n  0x00\n  dup1\n  revert\ntag_3:\n  pop\n  jump(tag_4)\n    /* \"#utility.yul\":7:187   */\ntag_5:\n    /* \"#utility.yul\":55:132   */\n  0x4e487b7100000000000000000000000000000000000000000000000000000000\n    /* \"#utility.yul\":52:53   */\n  0x00\n    /* \"#utility.yul\":45:133   */\n  mstore\n    /* \"#utility.yul\":152:156   */\n  0x11\n    /* \"#utility.yul\":149:150   */\n  0x04\n    /* \"#utility.yul\":142:157   */\n  mstore\n    /* \"#utility.yul\":176:180   */\n  0x24\n    /* \"#utility.yul\":173:174   */\n  0x00\n    /* \"#utility.yul\":166:181   */\n  revert\n    /* \"#utility.yul\":193:295   */\ntag_6:\n    /* \"#utility.yul\":235:243   */\n  0x00\n    /* \"#utility.yul\":282:287   */\n  dup2\n    /* \"#utility.yul\":279:280   */\n  0x01\n    /* \"#utility.yul\":275:288   */\n  shr\n    /* \"#utility.yul\":254:288   */\n  swap1\n  pop\n    /* \"#utility.yul\":193:295   */\n  swap2\n  swap1\n  pop\n  jump\t// out\n    /* \"#utility.yul\":301:1149   */\ntag_7:\n    /* \"#utility.yul\":362:367   */\n  0x00\n    /* \"#utility.yul\":369:373   */\n  dup1\n    /* \"#utility.yul\":393:399   */\n  dup3\n    /* \"#utility.yul\":384:399   */\n  swap2\n  pop\n    /* \"#utility.yul\":417:422   */\n  dup4\n    /* \"#utility.yul\":408:422   */\n  swap1\n  pop\n    /* \"#utility.yul\":431:1143   */\ntag_14:\n    /* \"#utility.yul\":452:453   */\n  0x01\n    /* \"#utility.yul\":442:450   */\n  dup6\n    /* \"#utility.yul\":439:454   */\n  gt\n    /* \"#utility.yul\":431:1143   */\n  iszero\n  tag_16\n  jumpi\n    /* \"#utility.yul\":547:551   */\n  dup1\n    /* \"#utility.yul\":542:545   */\n  dup7\n    /* \"#utility.yul\":538:552   */\n  div\n    /* \"#utility.yul\":532:536   */\n  dup2\n    /* \"#utility.yul\":529:553   */\n  gt\n    /* \"#utility.yul\":526:576   */\n  iszero\n  tag_17\n  jumpi\n    /* \"#utility.yul\":556:574   */\n  tag_18\n  tag_5\n  jump\t// in\ntag_18:\n    /* \"#utility.yul\":526:576   */\ntag_17:\n    /* \"#utility.yul\":606:607   */\n  0x01\n    /* \"#utility.yul\":596:604   */\n  dup6\n    /* \"#utility.yul\":592:608   */\n  and\n    /* \"#utility.yul\":589:1040   */\n  iszero\n  tag_19\n  jumpi\n    /* \"#utility.yul\":1021:1025   */\n  dup1\n    /* \"#utility.yul\":1014:1019   */\n  dup3\n    /* \"#utility.yul\":1010:1026   */\n  mul\n    /* \"#utility.yul\":1001:1026   */\n  swap2\n  pop\n    /* \"#utility.yul\":589:1040   */\ntag_19:\n    /* \"#utility.yul\":1071:1075   */\n  dup1\n    /* \"#utility.yul\":1065:1069   */\n  dup2\n    /* \"#utility.yul\":1061:1076   */\n  mul\n    /* \"#utility.yul\":1053:1076   */\n  swap1\n  pop\n    /* \"#utility.yul\":1101:1133   */\n  tag_20\n    /* \"#utility.yul\":1124:1132   */\n  dup6\n    /* \"#utility.yul\":1101:1133   */\n  tag_6\n  jump\t// in\ntag_20:\n    /* \"#utility.yul\":1089:1133   */\n  swap5\n  pop\n    /* \"#utility.yul\":431:1143   */\n  jump(tag_14)\ntag_16:\n    /* \"#utility.yul\":301:1149   */\n  swap5\n  pop\n  swap5\n  swap3\n  pop\n  pop\n  pop\n  jump\t// out\n    /* \"#utility.yul\":1155:2228   */\ntag_8:\n    /* \"#utility.yul\":1209:1214   */\n  0x00\n    /* \"#utility.yul\":1400:1408   */\n  dup3\n    /* \"#utility.yul\":1390:1430   */\n  tag_22\n  jumpi\n    /* \"#utility.yul\":1421:1422   */\n  0x01\n    /* \"#utility.yul\":1412:1422   */\n  swap1\n  pop\n    /* \"#utility.yul\":1423:1428   */\n  jump(tag_21)\n    /* \"#utility.yul\":1390:1430   */\ntag_22:\n    /* \"#utility.yul\":1449:1453   */\n  dup2\n    /* \"#utility.yul\":1439:1475   */\n  tag_23\n  jumpi\n    /* \"#utility.yul\":1466:1467   */\n  0x00\n    /* \"#utility.yul\":1457:1467   */\n  swap1\n  pop\n    /* \"#utility.yul\":1468:1473   */\n  jump(tag_21)\n    /* \"#utility.yul\":1439:1475   */\ntag_23:\n    /* \"#utility.yul\":1535:1539   */\n  dup2\n    /* \"#utility.yul\":1583:1584   */\n  0x01\n    /* \"#utility.yul\":1578:1605   */\n  dup2\n  eq\n  tag_25\n  jumpi\n    /* \"#utility.yul\":1619:1620   */\n  0x02\n    /* \"#utility.yul\":1614:1805   */\n  dup2\n  eq\n  tag_26\n  jumpi\n    /* \"#utility.yul\":1528:1805   */\n  jump(tag_24)\n    /* \"#utility.yul\":1578:1605   */\ntag_25:\n    /* \"#utility.yul\":1596:1597   */\n  0x01\n    /* \"#utility.yul\":1587:1597   */\n  swap2\n  pop\n    /* \"#utility.yul\":1598:1603   */\n  pop\n  jump(tag_21)\n    /* \"#utility.yul\":1614:1805   */\ntag_26:\n    /* \"#utility.yul\":1659:1662   */\n  0xff\n    /* \"#utility.yul\":1649:1657   */\n  dup5\n    /* \"#utility.yul\":1646:1663   */\n  gt\n    /* \"#utility.yul\":1643:1686   */\n  iszero\n  tag_27\n  jumpi\n    /* \"#utility.yul\":1666:1684   */\n  tag_28\n  tag_5\n  jump\t// in\ntag_28:\n    /* \"#utility.yul\":1643:1686   */\ntag_27:\n    /* \"#utility.yul\":1715:1723   */\n  dup4\n    /* \"#utility.yul\":1712:1713   */\n  0x02\n    /* \"#utility.yul\":1708:1724   */\n  exp\n    /* \"#utility.yul\":1699:1724   */\n  swap2\n  pop\n    /* \"#utility.yul\":1750:1753   */\n  dup5\n    /* \"#utility.yul\":1743:1748   */\n  dup3\n    /* \"#utility.yul\":1740:1754   */\n  gt\n    /* \"#utility.yul\":1737:1777   */\n  iszero\n  tag_29\n  jumpi\n    /* \"#utility.yul\":1757:1775   */\n  tag_30\n  tag_5\n  jump\t// in\ntag_30:\n    /* \"#utility.yul\":1737:1777   */\ntag_29:\n    /* \"#utility.yul\":1790:1795   */\n  pop\n  jump(tag_21)\n    /* \"#utility.yul\":1528:1805   */\ntag_24:\n  pop\n    /* \"#utility.yul\":1914:1916   */\n  0x20\n    /* \"#utility.yul\":1904:1912   */\n  dup4\n    /* \"#utility.yul\":1901:1917   */\n  lt\n    /* \"#utility.yul\":1895:1898   */\n  0x0133\n    /* \"#utility.yul\":1889:1893   */\n  dup4\n    /* \"#utility.yul\":1886:1899   */\n  lt\n    /* \"#utility.yul\":1882:1918   */\n  and\n    /* \"#utility.yul\":1864:1866   */\n  0x4e\n    /* \"#utility.yul\":1854:1862   */\n  dup5\n    /* \"#utility.yul\":1851:1867   */\n  lt\n    /* \"#utility.yul\":1846:1848   */\n  0x0b\n    /* \"#utility.yul\":1840:1844   */\n  dup5\n    /* \"#utility.yul\":1837:1849   */\n  lt\n    /* \"#utility.yul\":1833:1868   */\n  and\n    /* \"#utility.yul\":1817:1928   */\n  or\n    /* \"#utility.yul\":1814:2060   */\n  iszero\n  tag_31\n  jumpi\n    /* \"#utility.yul\":1970:1978   */\n  dup3\n    /* \"#utility.yul\":1964:1968   */\n  dup3\n    /* \"#utility.yul\":1960:1979   */\n  exp\n    /* \"#utility.yul\":1951:1979   */\n  swap1\n  pop\n    /* \"#utility.yul\":2005:2008   */\n  dup4\n    /* \"#utility.yul\":1998:2003   */\n  dup2\n    /* \"#utility.yul\":1995:2009   */\n  gt\n    /* \"#utility.yul\":1992:2032   */\n  iszero\n  tag_32\n  jumpi\n    /* \"#utility.yul\":2012:2030   */\n  tag_33\n  tag_5\n  jump\t// in\ntag_33:\n    /* \"#utility.yul\":1992:2032   */\ntag_32:\n    /* \"#utility.yul\":2045:2050   */\n  jump(tag_21)\n    /* \"#utility.yul\":1814:2060   */\ntag_31:\n    /* \"#utility.yul\":2085:2127   */\n  tag_34\n    /* \"#utility.yul\":2123:2126   */\n  dup5\n    /* \"#utility.yul\":2113:2121   */\n  dup5\n    /* \"#utility.yul\":2107:2111   */\n  dup5\n    /* \"#utility.yul\":2104:2105   */\n  0x01\n    /* \"#utility.yul\":2085:2127   */\n  tag_7\n  jump\t// in\ntag_34:\n    /* \"#utility.yul\":2070:2127   */\n  swap3\n  pop\n  swap1\n  pop\n    /* \"#utility.yul\":2159:2163   */\n  dup2\n    /* \"#utility.yul\":2154:2157   */\n  dup5\n    /* \"#utility.yul\":2150:2164   */\n  div\n    /* \"#utility.yul\":2143:2148   */\n  dup2\n    /* \"#utility.yul\":2140:2165   */\n  gt\n    /* \"#utility.yul\":2137:2188   */\n  iszero\n  tag_35\n  jumpi\n    /* \"#utility.yul\":2168:2186   */\n  tag_36\n  tag_5\n  jump\t// in\ntag_36:\n    /* \"#utility.yul\":2137:2188   */\ntag_35:\n    /* \"#utility.yul\":2217:2221   */\n  dup2\n    /* \"#utility.yul\":2210:2215   */\n  dup2\n    /* \"#utility.yul\":2206:2222   */\n  mul\n    /* \"#utility.yul\":2197:2222   */\n  swap1\n  pop\n    /* \"#utility.yul\":1155:2228   */\ntag_21:\n  swap4\n  swap3\n  pop\n  pop\n  pop\n  jump\t// out\n    /* \"#utility.yul\":2234:2311   */\ntag_9:\n    /* \"#utility.yul\":2271:2278   */\n  0x00\n    /* \"#utility.yul\":2300:2305   */\n  dup2\n    /* \"#utility.yul\":2289:2305   */\n  swap1\n  pop\n    /* \"#utility.yul\":2234:2311   */\n  swap2\n  swap1\n  pop\n  jump\t// out\n    /* \"#utility.yul\":2317:2602   */\ntag_2:\n    /* \"#utility.yul\":2377:2382   */\n  0x00\n    /* \"#utility.yul\":2401:2424   */\n  tag_39\n    /* \"#utility.yul\":2419:2423   */\n  dup3\n    /* \"#utility.yul\":2401:2424   */\n  tag_9\n  jump\t// in\ntag_39:\n    /* \"#utility.yul\":2393:2424   */\n  swap2\n  pop\n    /* \"#utility.yul\":2445:2472   */\n  tag_40\n    /* \"#utility.yul\":2463:2471   */\n  dup4\n    /* \"#utility.yul\":2445:2472   */\n  tag_9\n  jump\t// in\ntag_40:\n    /* \"#utility.yul\":2433:2472   */\n  swap3\n  pop\n    /* \"#utility.yul\":2491:2595   */\n  tag_41\n    /* \"#utility.yul\":2528:2594   */\n  0xffffffffffffffffffffffffffffffffffffffffffffffffffffffffffffffff\n    /* \"#utility.yul\":2518:2526   */\n  dup5\n    /* \"#utility.yul\":2512:2516   */\n  dup5\n    /* \"#utility.yul\":2491:2595   */\n  tag_8\n  jump\t// in\ntag_41:\n    /* \"#utility.yul\":2482:2595   */\n  swap1\n  pop\n    /* \"#utility.yul\":2317:2602   */\n  swap3\n  swap2\n  pop\n  pop\n  jump\t// out\n    /* \"contracts/FungusFactory.sol\":117:1847  contract FungusFactory {... */\ntag_4:\n  dataSize(sub_0)\n  dup1\n  dataOffset(sub_0)\n  0x00\n  codecopy\n  0x00\n  return\nstop\n\nsub_0: assembly {\n        /* \"contracts/FungusFactory.sol\":117:1847  contract FungusFactory {... */\n      mstore(0x40, 0x80)\n      callvalue\n      dup1\n      iszero\n      tag_1\n      jumpi\n      0x00\n      dup1\n      revert\n    tag_1:\n      pop\n      jumpi(tag_2, lt(calldatasize, 0x04))\n      shr(0xe0, calldataload(0x00))\n      dup1\n      0x0e17f883\n      eq\n      tag_3\n      jumpi\n      dup1\n      0x1e1694cb\n      eq\n      tag_4\n      jumpi\n      dup1\n      0x6bdfcef9\n      eq\n      tag_5\n      jumpi\n      dup1\n      0x703b3d38\n      eq\n      tag_6\n      jumpi\n      dup1\n      0xb082ab77\n      eq\n      tag_7\n      jumpi\n    tag_2:\n      0x00\n      dup1\n      revert\n        /* \"contracts/FungusFactory.sol\":412:458  mapping (uint => address) public fungusToOwner */\n    tag_3:\n      tag_8\n      0x04\n      dup1\n      calldatasize\n      sub\n      dup2\n      add\n      swap1\n      tag_9\n      swap2\n      swap1\n      tag_10\n      jump\t// in\n    tag_9:\n      tag_11\n      jump\t// in\n    tag_8:\n      mload(0x40)\n      tag_12\n      swap2\n      swap1\n      tag_13\n      jump\t// in\n    tag_12:\n      mload(0x40)\n      dup1\n      swap2\n      sub\n      swap1\n      return\n        /* \"contracts/FungusFactory.sol\":1456:1844  function getFungiByOwner(address owner) external view returns (uint[] memory) {... */\n    tag_4:\n      tag_14\n      0x04\n      dup1\n      calldatasize\n      sub\n      dup2\n      add\n      swap1\n      tag_15\n      swap2\n      swap1\n      tag_16\n      jump\t// in\n    tag_15:\n      tag_17\n      jump\t// in\n    tag_14:\n      mload(0x40)\n      tag_18\n      swap2\n      swap1\n      tag_19\n      jump\t// in\n    tag_18:\n      mload(0x40)\n      dup1\n      swap2\n      sub\n      swap1\n      return\n        /* \"contracts/FungusFactory.sol\":353:374  Fungus[] public fungi */\n    tag_5:\n      tag_20\n      0x04\n      dup1\n      calldatasize\n      sub\n      dup2\n      add\n      swap1\n      tag_21\n      swap2\n      swap1\n      tag_10\n      jump\t// in\n    tag_21:\n      tag_22\n      jump\t// in\n    tag_20:\n      mload(0x40)\n      tag_23\n      swap4\n      swap3\n      swap2\n      swap1\n      tag_24\n      jump\t// in\n    tag_23:\n      mload(0x40)\n      dup1\n      swap2\n      sub\n      swap1\n      return\n        /* \"contracts/FungusFactory.sol\":509:558  mapping (address => uint) public ownerFungusCount */\n    tag_6:\n      tag_25\n      0x04\n      dup1\n      calldatasize\n      sub\n      dup2\n      add\n      swap1\n      tag_26\n      swap2\n      swap1\n      tag_16\n      jump\t// in\n    tag_26:\n      tag_27\n      jump\t// in\n    tag_25:\n      mload(0x40)\n      tag_28\n      swap2\n      swap1\n      tag_29\n      jump\t// in\n    tag_28:\n      mload(0x40)\n      dup1\n      swap2\n      sub\n      swap1\n      return\n        /* \"contracts/FungusFactory.sol\":1220:1448  function createFungus(string calldata name) public {... */\n    tag_7:\n      tag_30\n      0x04\n      dup1\n      calldatasize\n      sub\n      dup2\n      add\n      swap1\n      tag_31\n      swap2\n      swap1\n      tag_32\n      jump\t// in\n    tag_31:\n      tag_33\n      jump\t// in\n    tag_30:\n      stop\n        /* \"contracts/FungusFactory.sol\":412:458  mapping (uint => address) public fungusToOwner */\n    tag_11:\n      mstore(0x20, 0x04)\n      dup1\n      0x00\n      mstore\n      keccak256(0x00, 0x40)\n      0x00\n      swap2\n      pop\n      sload\n      swap1\n      0x0100\n      exp\n      swap1\n      div\n      0xffffffffffffffffffffffffffffffffffffffff\n      and\n      dup2\n      jump\t// out\n        /* \"contracts/FungusFactory.sol\":1456:1844  function getFungiByOwner(address owner) external view returns (uint[] memory) {... */\n    tag_17:\n        /* \"contracts/FungusFactory.sol\":1519:1532  uint[] memory */\n      0x60\n        /* \"contracts/FungusFactory.sol\":1545:1565  uint[] memory result */\n      0x00\n        /* \"contracts/FungusFactory.sol\":1579:1595  ownerFungusCount */\n      0x05\n        /* \"contracts/FungusFactory.sol\":1579:1602  ownerFungusCount[owner] */\n      0x00\n        /* \"contracts/FungusFactory.sol\":1596:1601  owner */\n      dup5\n        /* \"contracts/FungusFactory.sol\":1579:1602  ownerFungusCount[owner] */\n      0xffffffffffffffffffffffffffffffffffffffff\n      and\n      0xffffffffffffffffffffffffffffffffffffffff\n      and\n      dup2\n      mstore\n      0x20\n      add\n      swap1\n      dup2\n      mstore\n      0x20\n      add\n      0x00\n      keccak256\n      sload\n        /* \"contracts/FungusFactory.sol\":1568:1603  new uint[](ownerFungusCount[owner]) */\n      0xffffffffffffffff\n      dup2\n      gt\n      iszero\n      tag_35\n      jumpi\n      tag_36\n      tag_37\n      jump\t// in\n    tag_36:\n    tag_35:\n      mload(0x40)\n      swap1\n      dup1\n      dup3\n      mstore\n      dup1\n      0x20\n      mul\n      0x20\n      add\n      dup3\n      add\n      0x40\n      mstore\n      dup1\n      iszero\n      tag_38\n      jumpi\n      dup2\n      0x20\n      add\n      0x20\n      dup3\n      mul\n      dup1\n      calldatasize\n      dup4\n      calldatacopy\n      dup1\n      dup3\n      add\n      swap2\n      pop\n      pop\n      swap1\n      pop\n    tag_38:\n      pop\n        /* \"contracts/FungusFactory.sol\":1545:1603  uint[] memory result = new uint[](ownerFungusCount[owner]) */\n      swap1\n      pop\n        /* \"contracts/FungusFactory.sol\":1636:1648  uint counter */\n      0x00\n        /* \"contracts/FungusFactory.sol\":1667:1673  uint i */\n      dup1\n        /* \"contracts/FungusFactory.sol\":1663:1813  for(uint i = 0; i < fungi.length; i++) {... */\n    tag_39:\n        /* \"contracts/FungusFactory.sol\":1683:1688  fungi */\n      0x03\n        /* \"contracts/FungusFactory.sol\":1683:1695  fungi.length */\n      dup1\n      sload\n      swap1\n      pop\n        /* \"contracts/FungusFactory.sol\":1679:1680  i */\n      dup2\n        /* \"contracts/FungusFactory.sol\":1679:1695  i < fungi.length */\n      lt\n        /* \"contracts/FungusFactory.sol\":1663:1813  for(uint i = 0; i < fungi.length; i++) {... */\n      iszero\n      tag_40\n      jumpi\n        /* \"contracts/FungusFactory.sol\":1740:1745  owner */\n      dup5\n        /* \"contracts/FungusFactory.sol\":1720:1745  fungusToOwner[i] == owner */\n      0xffffffffffffffffffffffffffffffffffffffff\n      and\n        /* \"contracts/FungusFactory.sol\":1720:1733  fungusToOwner */\n      0x04\n        /* \"contracts/FungusFactory.sol\":1720:1736  fungusToOwner[i] */\n      0x00\n        /* \"contracts/FungusFactory.sol\":1734:1735  i */\n      dup4\n        /* \"contracts/FungusFactory.sol\":1720:1736  fungusToOwner[i] */\n      dup2\n      mstore\n      0x20\n      add\n      swap1\n      dup2\n      mstore\n      0x20\n      add\n      0x00\n      keccak256\n      0x00\n      swap1\n      sload\n      swap1\n      0x0100\n      exp\n      swap1\n      div\n      0xffffffffffffffffffffffffffffffffffffffff\n      and\n        /* \"contracts/FungusFactory.sol\":1720:1745  fungusToOwner[i] == owner */\n      0xffffffffffffffffffffffffffffffffffffffff\n      and\n      eq\n        /* \"contracts/FungusFactory.sol\":1717:1802  if(fungusToOwner[i] == owner){... */\n      iszero\n      tag_42\n      jumpi\n        /* \"contracts/FungusFactory.sol\":1785:1786  i */\n      dup1\n        /* \"contracts/FungusFactory.sol\":1765:1771  result */\n      dup4\n        /* \"contracts/FungusFactory.sol\":1772:1781  counter++ */\n      dup4\n      dup1\n      tag_43\n      swap1\n      tag_44\n      jump\t// in\n    tag_43:\n      swap5\n      pop\n        /* \"contracts/FungusFactory.sol\":1765:1782  result[counter++] */\n      dup2\n      mload\n      dup2\n      lt\n      tag_45\n      jumpi\n      tag_46\n      tag_47\n      jump\t// in\n    tag_46:\n    tag_45:\n      0x20\n      mul\n      0x20\n      add\n      add\n        /* \"contracts/FungusFactory.sol\":1765:1786  result[counter++] = i */\n      dup2\n      dup2\n      mstore\n      pop\n      pop\n        /* \"contracts/FungusFactory.sol\":1717:1802  if(fungusToOwner[i] == owner){... */\n    tag_42:\n        /* \"contracts/FungusFactory.sol\":1697:1700  i++ */\n      dup1\n      dup1\n      tag_48\n      swap1\n      tag_44\n      jump\t// in\n    tag_48:\n      swap2\n      pop\n      pop\n        /* \"contracts/FungusFactory.sol\":1663:1813  for(uint i = 0; i < fungi.length; i++) {... */\n      jump(tag_39)\n    tag_40:\n      pop\n        /* \"contracts/FungusFactory.sol\":1830:1836  result */\n      dup2\n        /* \"contracts/FungusFactory.sol\":1823:1836  return result */\n      swap3\n      pop\n      pop\n      pop\n        /* \"contracts/FungusFactory.sol\":1456:1844  function getFungiByOwner(address owner) external view returns (uint[] memory) {... */\n      swap2\n      swap1\n      pop\n      jump\t// out\n        /* \"contracts/FungusFactory.sol\":353:374  Fungus[] public fungi */\n    tag_22:\n      0x03\n      dup2\n      dup2\n      sload\n      dup2\n      lt\n      tag_49\n      jumpi\n      0x00\n      dup1\n      revert\n    tag_49:\n      swap1\n      0x00\n      mstore\n      keccak256(0x00, 0x20)\n      swap1\n      0x03\n      mul\n      add\n      0x00\n      swap2\n      pop\n      swap1\n      pop\n      dup1\n      0x00\n      add\n      dup1\n      sload\n      tag_51\n      swap1\n      tag_52\n      jump\t// in\n    tag_51:\n      dup1\n      0x1f\n      add\n      0x20\n      dup1\n      swap2\n      div\n      mul\n      0x20\n      add\n      mload(0x40)\n      swap1\n      dup2\n      add\n      0x40\n      mstore\n      dup1\n      swap3\n      swap2\n      swap1\n      dup2\n      dup2\n      mstore\n      0x20\n      add\n      dup3\n      dup1\n      sload\n      tag_53\n      swap1\n      tag_52\n      jump\t// in\n    tag_53:\n      dup1\n      iszero\n      tag_54\n      jumpi\n      dup1\n      0x1f\n      lt\n      tag_55\n      jumpi\n      0x0100\n      dup1\n      dup4\n      sload\n      div\n      mul\n      dup4\n      mstore\n      swap2\n      0x20\n      add\n      swap2\n      jump(tag_54)\n    tag_55:\n      dup3\n      add\n      swap2\n      swap1\n      0x00\n      mstore\n      keccak256(0x00, 0x20)\n      swap1\n    tag_56:\n      dup2\n      sload\n      dup2\n      mstore\n      swap1\n      0x01\n      add\n      swap1\n      0x20\n      add\n      dup1\n      dup4\n      gt\n      tag_56\n      jumpi\n      dup3\n      swap1\n      sub\n      0x1f\n      and\n      dup3\n      add\n      swap2\n    tag_54:\n      pop\n      pop\n      pop\n      pop\n      pop\n      swap1\n      dup1\n      0x01\n      add\n      sload\n      swap1\n      dup1\n      0x02\n      add\n      0x00\n      swap1\n      sload\n      swap1\n      0x0100\n      exp\n      swap1\n      div\n      0xffffffff\n      and\n      swap1\n      pop\n      dup4\n      jump\t// out\n        /* \"contracts/FungusFactory.sol\":509:558  mapping (address => uint) public ownerFungusCount */\n    tag_27:\n      mstore(0x20, 0x05)\n      dup1\n      0x00\n      mstore\n      keccak256(0x00, 0x40)\n      0x00\n      swap2\n      pop\n      swap1\n      pop\n      sload\n      dup2\n      jump\t// out\n        /* \"contracts/FungusFactory.sol\":1220:1448  function createFungus(string calldata name) public {... */\n    tag_33:\n        /* \"contracts/FungusFactory.sol\":1322:1323  0 */\n      0x00\n        /* \"contracts/FungusFactory.sol\":1290:1306  ownerFungusCount */\n      0x05\n        /* \"contracts/FungusFactory.sol\":1290:1318  ownerFungusCount[msg.sender] */\n      0x00\n        /* \"contracts/FungusFactory.sol\":1307:1317  msg.sender */\n      caller\n        /* \"contracts/FungusFactory.sol\":1290:1318  ownerFungusCount[msg.sender] */\n      0xffffffffffffffffffffffffffffffffffffffff\n      and\n      0xffffffffffffffffffffffffffffffffffffffff\n      and\n      dup2\n      mstore\n      0x20\n      add\n      swap1\n      dup2\n      mstore\n      0x20\n      add\n      0x00\n      keccak256\n      sload\n        /* \"contracts/FungusFactory.sol\":1290:1323  ownerFungusCount[msg.sender] == 0 */\n      eq\n        /* \"contracts/FungusFactory.sol\":1282:1351  require(ownerFungusCount[msg.sender] == 0, \"A fungus already exist.\") */\n      tag_58\n      jumpi\n      mload(0x40)\n      0x08c379a000000000000000000000000000000000000000000000000000000000\n      dup2\n      mstore\n      0x04\n      add\n      tag_59\n      swap1\n      tag_60\n      jump\t// in\n    tag_59:\n      mload(0x40)\n      dup1\n      swap2\n      sub\n      swap1\n      revert\n    tag_58:\n        /* \"contracts/FungusFactory.sol\":1362:1374  uint randDna */\n      0x00\n        /* \"contracts/FungusFactory.sol\":1377:1402  _generateRandomData(name) */\n      tag_61\n        /* \"contracts/FungusFactory.sol\":1397:1401  name */\n      dup4\n      dup4\n        /* \"contracts/FungusFactory.sol\":1377:1396  _generateRandomData */\n      tag_62\n        /* \"contracts/FungusFactory.sol\":1377:1402  _generateRandomData(name) */\n      jump\t// in\n    tag_61:\n        /* \"contracts/FungusFactory.sol\":1362:1402  uint randDna = _generateRandomData(name) */\n      swap1\n      pop\n        /* \"contracts/FungusFactory.sol\":1413:1440  _createFungus(name,randDna) */\n      tag_63\n        /* \"contracts/FungusFactory.sol\":1427:1431  name */\n      dup4\n      dup4\n        /* \"contracts/FungusFactory.sol\":1413:1440  _createFungus(name,randDna) */\n      dup1\n      dup1\n      0x1f\n      add\n      0x20\n      dup1\n      swap2\n      div\n      mul\n      0x20\n      add\n      mload(0x40)\n      swap1\n      dup2\n      add\n      0x40\n      mstore\n      dup1\n      swap4\n      swap3\n      swap2\n      swap1\n      dup2\n      dup2\n      mstore\n      0x20\n      add\n      dup4\n      dup4\n      dup1\n      dup3\n      dup5\n      calldatacopy\n      0x00\n      dup2\n      dup5\n      add\n      mstore\n      not(0x1f)\n      0x1f\n      dup3\n      add\n      and\n      swap1\n      pop\n      dup1\n      dup4\n      add\n      swap3\n      pop\n      pop\n      pop\n      pop\n      pop\n      pop\n      pop\n        /* \"contracts/FungusFactory.sol\":1432:1439  randDna */\n      dup3\n        /* \"contracts/FungusFactory.sol\":1413:1426  _createFungus */\n      tag_64\n        /* \"contracts/FungusFactory.sol\":1413:1440  _createFungus(name,randDna) */\n      jump\t// in\n    tag_63:\n        /* \"contracts/FungusFactory.sol\":1271:1448  {... */\n      pop\n        /* \"contracts/FungusFactory.sol\":1220:1448  function createFungus(string calldata name) public {... */\n      pop\n      pop\n      jump\t// out\n        /* \"contracts/FungusFactory.sol\":981:1212  function _generateRandomData(string calldata _str) private view returns(uint) {... */\n    tag_62:\n        /* \"contracts/FungusFactory.sol\":1053:1057  uint */\n      0x00\n        /* \"contracts/FungusFactory.sol\":1070:1079  uint rand */\n      dup1\n        /* \"contracts/FungusFactory.sol\":1103:1107  _str */\n      dup4\n      dup4\n        /* \"contracts/FungusFactory.sol\":1087:1109  keccak256(bytes(_str)) */\n      mload(0x40)\n      tag_66\n      swap3\n      swap2\n      swap1\n      tag_67\n      jump\t// in\n    tag_66:\n      mload(0x40)\n      dup1\n      swap2\n      sub\n      swap1\n      keccak256\n        /* \"contracts/FungusFactory.sol\":1082:1110  uint(keccak256(bytes(_str))) */\n      0x00\n      shr\n        /* \"contracts/FungusFactory.sol\":1070:1110  uint rand = uint(keccak256(bytes(_str))) */\n      swap1\n      pop\n        /* \"contracts/FungusFactory.sol\":1121:1129  uint dna */\n      0x00\n        /* \"contracts/FungusFactory.sol\":1139:1149  dnaModulus */\n      sload(0x01)\n        /* \"contracts/FungusFactory.sol\":1132:1136  rand */\n      dup3\n        /* \"contracts/FungusFactory.sol\":1132:1149  rand % dnaModulus */\n      tag_68\n      swap2\n      swap1\n      tag_69\n      jump\t// in\n    tag_68:\n        /* \"contracts/FungusFactory.sol\":1121:1149  uint dna = rand % dnaModulus */\n      swap1\n      pop\n        /* \"contracts/FungusFactory.sol\":1178:1181  100 */\n      0x64\n        /* \"contracts/FungusFactory.sol\":1172:1175  dna */\n      dup2\n        /* \"contracts/FungusFactory.sol\":1172:1181  dna % 100 */\n      tag_70\n      swap2\n      swap1\n      tag_69\n      jump\t// in\n    tag_70:\n        /* \"contracts/FungusFactory.sol\":1166:1169  dna */\n      dup2\n        /* \"contracts/FungusFactory.sol\":1166:1181  dna - dna % 100 */\n      tag_71\n      swap2\n      swap1\n      tag_72\n      jump\t// in\n    tag_71:\n        /* \"contracts/FungusFactory.sol\":1160:1181  dna = dna - dna % 100 */\n      swap1\n      pop\n        /* \"contracts/FungusFactory.sol\":1199:1202  dna */\n      dup1\n        /* \"contracts/FungusFactory.sol\":1192:1202  return dna */\n      swap3\n      pop\n      pop\n      pop\n        /* \"contracts/FungusFactory.sol\":981:1212  function _generateRandomData(string calldata _str) private view returns(uint) {... */\n      swap3\n      swap2\n      pop\n      pop\n      jump\t// out\n        /* \"contracts/FungusFactory.sol\":665:973  function _createFungus(string memory name, uint dna) internal {... */\n    tag_64:\n        /* \"contracts/FungusFactory.sol\":738:743  fungi */\n      0x03\n        /* \"contracts/FungusFactory.sol\":749:806  Fungus(name, dna, uint32(block.timestamp + cooldownTime)) */\n      mload(0x40)\n      dup1\n      0x60\n      add\n      0x40\n      mstore\n      dup1\n        /* \"contracts/FungusFactory.sol\":756:760  name */\n      dup5\n        /* \"contracts/FungusFactory.sol\":749:806  Fungus(name, dna, uint32(block.timestamp + cooldownTime)) */\n      dup2\n      mstore\n      0x20\n      add\n        /* \"contracts/FungusFactory.sol\":762:765  dna */\n      dup4\n        /* \"contracts/FungusFactory.sol\":749:806  Fungus(name, dna, uint32(block.timestamp + cooldownTime)) */\n      dup2\n      mstore\n      0x20\n      add\n        /* \"contracts/FungusFactory.sol\":792:804  cooldownTime */\n      sload(0x02)\n        /* \"contracts/FungusFactory.sol\":774:789  block.timestamp */\n      timestamp\n        /* \"contracts/FungusFactory.sol\":774:804  block.timestamp + cooldownTime */\n      tag_74\n      swap2\n      swap1\n      tag_75\n      jump\t// in\n    tag_74:\n        /* \"contracts/FungusFactory.sol\":749:806  Fungus(name, dna, uint32(block.timestamp + cooldownTime)) */\n      0xffffffff\n      and\n      dup2\n      mstore\n      pop\n        /* \"contracts/FungusFactory.sol\":738:807  fungi.push(Fungus(name, dna, uint32(block.timestamp + cooldownTime))) */\n      swap1\n      dup1\n      0x01\n      dup2\n      sload\n      add\n      dup1\n      dup3\n      sstore\n      dup1\n      swap2\n      pop\n      pop\n      0x01\n      swap1\n      sub\n      swap1\n      0x00\n      mstore\n      keccak256(0x00, 0x20)\n      swap1\n      0x03\n      mul\n      add\n      0x00\n      swap1\n      swap2\n      swap1\n      swap2\n      swap1\n      swap2\n      pop\n      0x00\n      dup3\n      add\n      mload\n      dup2\n      0x00\n      add\n      swap1\n      dup1\n      mload\n      swap1\n      0x20\n      add\n      swap1\n      tag_77\n      swap3\n      swap2\n      swap1\n      tag_78\n      jump\t// in\n    tag_77:\n      pop\n      0x20\n      dup3\n      add\n      mload\n      dup2\n      0x01\n      add\n      sstore\n      0x40\n      dup3\n      add\n      mload\n      dup2\n      0x02\n      add\n      exp(0x0100, 0x00)\n      dup2\n      sload\n      dup2\n      0xffffffff\n      mul\n      not\n      and\n      swap1\n      dup4\n      0xffffffff\n      and\n      mul\n      or\n      swap1\n      sstore\n      pop\n      pop\n      pop\n        /* \"contracts/FungusFactory.sol\":818:825  uint id */\n      0x00\n        /* \"contracts/FungusFactory.sol\":842:843  1 */\n      0x01\n        /* \"contracts/FungusFactory.sol\":828:833  fungi */\n      0x03\n        /* \"contracts/FungusFactory.sol\":828:840  fungi.length */\n      dup1\n      sload\n      swap1\n      pop\n        /* \"contracts/FungusFactory.sol\":828:843  fungi.length -1 */\n      tag_79\n      swap2\n      swap1\n      tag_72\n      jump\t// in\n    tag_79:\n        /* \"contracts/FungusFactory.sol\":818:843  uint id = fungi.length -1 */\n      swap1\n      pop\n        /* \"contracts/FungusFactory.sol\":874:884  msg.sender */\n      caller\n        /* \"contracts/FungusFactory.sol\":854:867  fungusToOwner */\n      0x04\n        /* \"contracts/FungusFactory.sol\":854:871  fungusToOwner[id] */\n      0x00\n        /* \"contracts/FungusFactory.sol\":868:870  id */\n      dup4\n        /* \"contracts/FungusFactory.sol\":854:871  fungusToOwner[id] */\n      dup2\n      mstore\n      0x20\n      add\n      swap1\n      dup2\n      mstore\n      0x20\n      add\n      0x00\n      keccak256\n      0x00\n        /* \"contracts/FungusFactory.sol\":854:884  fungusToOwner[id] = msg.sender */\n      0x0100\n      exp\n      dup2\n      sload\n      dup2\n      0xffffffffffffffffffffffffffffffffffffffff\n      mul\n      not\n      and\n      swap1\n      dup4\n      0xffffffffffffffffffffffffffffffffffffffff\n      and\n      mul\n      or\n      swap1\n      sstore\n      pop\n        /* \"contracts/FungusFactory.sol\":895:911  ownerFungusCount */\n      0x05\n        /* \"contracts/FungusFactory.sol\":895:923  ownerFungusCount[msg.sender] */\n      0x00\n        /* \"contracts/FungusFactory.sol\":912:922  msg.sender */\n      caller\n        /* \"contracts/FungusFactory.sol\":895:923  ownerFungusCount[msg.sender] */\n      0xffffffffffffffffffffffffffffffffffffffff\n      and\n      0xffffffffffffffffffffffffffffffffffffffff\n      and\n      dup2\n      mstore\n      0x20\n      add\n      swap1\n      dup2\n      mstore\n      0x20\n      add\n      0x00\n      keccak256\n      0x00\n        /* \"contracts/FungusFactory.sol\":895:925  ownerFungusCount[msg.sender]++ */\n      dup2\n      sload\n      dup1\n      swap3\n      swap2\n      swap1\n      tag_80\n      swap1\n      tag_44\n      jump\t// in\n    tag_80:\n      swap2\n      swap1\n      pop\n      sstore\n      pop\n        /* \"contracts/FungusFactory.sol\":941:965  newFungus(id, name, dna) */\n      0x2e946779390b27c50a2225bee0b9af13e0848034733330963e93cedb42487fd7\n        /* \"contracts/FungusFactory.sol\":951:953  id */\n      dup2\n        /* \"contracts/FungusFactory.sol\":955:959  name */\n      dup5\n        /* \"contracts/FungusFactory.sol\":961:964  dna */\n      dup5\n        /* \"contracts/FungusFactory.sol\":941:965  newFungus(id, name, dna) */\n      mload(0x40)\n      tag_81\n      swap4\n      swap3\n      swap2\n      swap1\n      tag_82\n      jump\t// in\n    tag_81:\n      mload(0x40)\n      dup1\n      swap2\n      sub\n      swap1\n      log1\n        /* \"contracts/FungusFactory.sol\":727:973  {... */\n      pop\n        /* \"contracts/FungusFactory.sol\":665:973  function _createFungus(string memory name, uint dna) internal {... */\n      pop\n      pop\n      jump\t// out\n    tag_78:\n      dup3\n      dup1\n      sload\n      tag_83\n      swap1\n      tag_52\n      jump\t// in\n    tag_83:\n      swap1\n      0x00\n      mstore\n      keccak256(0x00, 0x20)\n      swap1\n      0x1f\n      add\n      0x20\n      swap1\n      div\n      dup2\n      add\n      swap3\n      dup3\n      tag_85\n      jumpi\n      0x00\n      dup6\n      sstore\n      jump(tag_84)\n    tag_85:\n      dup3\n      0x1f\n      lt\n      tag_86\n      jumpi\n      dup1\n      mload\n      not(0xff)\n      and\n      dup4\n      dup1\n      add\n      or\n      dup6\n      sstore\n      jump(tag_84)\n    tag_86:\n      dup3\n      dup1\n      add\n      0x01\n      add\n      dup6\n      sstore\n      dup3\n      iszero\n      tag_84\n      jumpi\n      swap2\n      dup3\n      add\n    tag_87:\n      dup3\n      dup2\n      gt\n      iszero\n      tag_88\n      jumpi\n      dup3\n      mload\n      dup3\n      sstore\n      swap2\n      0x20\n      add\n      swap2\n      swap1\n      0x01\n      add\n      swap1\n      jump(tag_87)\n    tag_88:\n    tag_84:\n      pop\n      swap1\n      pop\n      tag_89\n      swap2\n      swap1\n      tag_90\n      jump\t// in\n    tag_89:\n      pop\n      swap1\n      jump\t// out\n    tag_90:\n    tag_91:\n      dup1\n      dup3\n      gt\n      iszero\n      tag_92\n      jumpi\n      0x00\n      dup2\n      0x00\n      swap1\n      sstore\n      pop\n      0x01\n      add\n      jump(tag_91)\n    tag_92:\n      pop\n      swap1\n      jump\t// out\n        /* \"#utility.yul\":88:205   */\n    tag_94:\n        /* \"#utility.yul\":197:198   */\n      0x00\n        /* \"#utility.yul\":194:195   */\n      dup1\n        /* \"#utility.yul\":187:199   */\n      revert\n        /* \"#utility.yul\":211:328   */\n    tag_95:\n        /* \"#utility.yul\":320:321   */\n      0x00\n        /* \"#utility.yul\":317:318   */\n      dup1\n        /* \"#utility.yul\":310:322   */\n      revert\n        /* \"#utility.yul\":334:411   */\n    tag_96:\n        /* \"#utility.yul\":371:378   */\n      0x00\n        /* \"#utility.yul\":400:405   */\n      dup2\n        /* \"#utility.yul\":389:405   */\n      swap1\n      pop\n        /* \"#utility.yul\":334:411   */\n      swap2\n      swap1\n      pop\n      jump\t// out\n        /* \"#utility.yul\":417:539   */\n    tag_97:\n        /* \"#utility.yul\":490:514   */\n      tag_137\n        /* \"#utility.yul\":508:513   */\n      dup2\n        /* \"#utility.yul\":490:514   */\n      tag_96\n      jump\t// in\n    tag_137:\n        /* \"#utility.yul\":483:488   */\n      dup2\n        /* \"#utility.yul\":480:515   */\n      eq\n        /* \"#utility.yul\":470:533   */\n      tag_138\n      jumpi\n        /* \"#utility.yul\":529:530   */\n      0x00\n        /* \"#utility.yul\":526:527   */\n      dup1\n        /* \"#utility.yul\":519:531   */\n      revert\n        /* \"#utility.yul\":470:533   */\n    tag_138:\n        /* \"#utility.yul\":417:539   */\n      pop\n      jump\t// out\n        /* \"#utility.yul\":545:684   */\n    tag_98:\n        /* \"#utility.yul\":591:596   */\n      0x00\n        /* \"#utility.yul\":629:635   */\n      dup2\n        /* \"#utility.yul\":616:636   */\n      calldataload\n        /* \"#utility.yul\":607:636   */\n      swap1\n      pop\n        /* \"#utility.yul\":645:678   */\n      tag_140\n        /* \"#utility.yul\":672:677   */\n      dup2\n        /* \"#utility.yul\":645:678   */\n      tag_97\n      jump\t// in\n    tag_140:\n        /* \"#utility.yul\":545:684   */\n      swap3\n      swap2\n      pop\n      pop\n      jump\t// out\n        /* \"#utility.yul\":690:1019   */\n    tag_10:\n        /* \"#utility.yul\":749:755   */\n      0x00\n        /* \"#utility.yul\":798:800   */\n      0x20\n        /* \"#utility.yul\":786:795   */\n      dup3\n        /* \"#utility.yul\":777:784   */\n      dup5\n        /* \"#utility.yul\":773:796   */\n      sub\n        /* \"#utility.yul\":769:801   */\n      slt\n        /* \"#utility.yul\":766:885   */\n      iszero\n      tag_142\n      jumpi\n        /* \"#utility.yul\":804:883   */\n      tag_143\n      tag_94\n      jump\t// in\n    tag_143:\n        /* \"#utility.yul\":766:885   */\n    tag_142:\n        /* \"#utility.yul\":924:925   */\n      0x00\n        /* \"#utility.yul\":949:1002   */\n      tag_144\n        /* \"#utility.yul\":994:1001   */\n      dup5\n        /* \"#utility.yul\":985:991   */\n      dup3\n        /* \"#utility.yul\":974:983   */\n      dup6\n        /* \"#utility.yul\":970:992   */\n      add\n        /* \"#utility.yul\":949:1002   */\n      tag_98\n      jump\t// in\n    tag_144:\n        /* \"#utility.yul\":939:1002   */\n      swap2\n      pop\n        /* \"#utility.yul\":895:1012   */\n      pop\n        /* \"#utility.yul\":690:1019   */\n      swap3\n      swap2\n      pop\n      pop\n      jump\t// out\n        /* \"#utility.yul\":1025:1151   */\n    tag_99:\n        /* \"#utility.yul\":1062:1069   */\n      0x00\n        /* \"#utility.yul\":1102:1144   */\n      0xffffffffffffffffffffffffffffffffffffffff\n        /* \"#utility.yul\":1095:1100   */\n      dup3\n        /* \"#utility.yul\":1091:1145   */\n      and\n        /* \"#utility.yul\":1080:1145   */\n      swap1\n      pop\n        /* \"#utility.yul\":1025:1151   */\n      swap2\n      swap1\n      pop\n      jump\t// out\n        /* \"#utility.yul\":1157:1253   */\n    tag_100:\n        /* \"#utility.yul\":1194:1201   */\n      0x00\n        /* \"#utility.yul\":1223:1247   */\n      tag_147\n        /* \"#utility.yul\":1241:1246   */\n      dup3\n        /* \"#utility.yul\":1223:1247   */\n      tag_99\n      jump\t// in\n    tag_147:\n        /* \"#utility.yul\":1212:1247   */\n      swap1\n      pop\n        /* \"#utility.yul\":1157:1253   */\n      swap2\n      swap1\n      pop\n      jump\t// out\n        /* \"#utility.yul\":1259:1377   */\n    tag_101:\n        /* \"#utility.yul\":1346:1370   */\n      tag_149\n        /* \"#utility.yul\":1364:1369   */\n      dup2\n        /* \"#utility.yul\":1346:1370   */\n      tag_100\n      jump\t// in\n    tag_149:\n        /* \"#utility.yul\":1341:1344   */\n      dup3\n        /* \"#utility.yul\":1334:1371   */\n      mstore\n        /* \"#utility.yul\":1259:1377   */\n      pop\n      pop\n      jump\t// out\n        /* \"#utility.yul\":1383:1605   */\n    tag_13:\n        /* \"#utility.yul\":1476:1480   */\n      0x00\n        /* \"#utility.yul\":1514:1516   */\n      0x20\n        /* \"#utility.yul\":1503:1512   */\n      dup3\n        /* \"#utility.yul\":1499:1517   */\n      add\n        /* \"#utility.yul\":1491:1517   */\n      swap1\n      pop\n        /* \"#utility.yul\":1527:1598   */\n      tag_151\n        /* \"#utility.yul\":1595:1596   */\n      0x00\n        /* \"#utility.yul\":1584:1593   */\n      dup4\n        /* \"#utility.yul\":1580:1597   */\n      add\n        /* \"#utility.yul\":1571:1577   */\n      dup5\n        /* \"#utility.yul\":1527:1598   */\n      tag_101\n      jump\t// in\n    tag_151:\n        /* \"#utility.yul\":1383:1605   */\n      swap3\n      swap2\n      pop\n      pop\n      jump\t// out\n        /* \"#utility.yul\":1611:1733   */\n    tag_102:\n        /* \"#utility.yul\":1684:1708   */\n      tag_153\n        /* \"#utility.yul\":1702:1707   */\n      dup2\n        /* \"#utility.yul\":1684:1708   */\n      tag_100\n      jump\t// in\n    tag_153:\n        /* \"#utility.yul\":1677:1682   */\n      dup2\n        /* \"#utility.yul\":1674:1709   */\n      eq\n        /* \"#utility.yul\":1664:1727   */\n      tag_154\n      jumpi\n        /* \"#utility.yul\":1723:1724   */\n      0x00\n        /* \"#utility.yul\":1720:1721   */\n      dup1\n        /* \"#utility.yul\":1713:1725   */\n      revert\n        /* \"#utility.yul\":1664:1727   */\n    tag_154:\n        /* \"#utility.yul\":1611:1733   */\n      pop\n      jump\t// out\n        /* \"#utility.yul\":1739:1878   */\n    tag_103:\n        /* \"#utility.yul\":1785:1790   */\n      0x00\n        /* \"#utility.yul\":1823:1829   */\n      dup2\n        /* \"#utility.yul\":1810:1830   */\n      calldataload\n        /* \"#utility.yul\":1801:1830   */\n      swap1\n      pop\n        /* \"#utility.yul\":1839:1872   */\n      tag_156\n        /* \"#utility.yul\":1866:1871   */\n      dup2\n        /* \"#utility.yul\":1839:1872   */\n      tag_102\n      jump\t// in\n    tag_156:\n        /* \"#utility.yul\":1739:1878   */\n      swap3\n      swap2\n      pop\n      pop\n      jump\t// out\n        /* \"#utility.yul\":1884:2213   */\n    tag_16:\n        /* \"#utility.yul\":1943:1949   */\n      0x00\n        /* \"#utility.yul\":1992:1994   */\n      0x20\n        /* \"#utility.yul\":1980:1989   */\n      dup3\n        /* \"#utility.yul\":1971:1978   */\n      dup5\n        /* \"#utility.yul\":1967:1990   */\n      sub\n        /* \"#utility.yul\":1963:1995   */\n      slt\n        /* \"#utility.yul\":1960:2079   */\n      iszero\n      tag_158\n      jumpi\n        /* \"#utility.yul\":1998:2077   */\n      tag_159\n      tag_94\n      jump\t// in\n    tag_159:\n        /* \"#utility.yul\":1960:2079   */\n    tag_158:\n        /* \"#utility.yul\":2118:2119   */\n      0x00\n        /* \"#utility.yul\":2143:2196   */\n      tag_160\n        /* \"#utility.yul\":2188:2195   */\n      dup5\n        /* \"#utility.yul\":2179:2185   */\n      dup3\n        /* \"#utility.yul\":2168:2177   */\n      dup6\n        /* \"#utility.yul\":2164:2186   */\n      add\n        /* \"#utility.yul\":2143:2196   */\n      tag_103\n      jump\t// in\n    tag_160:\n        /* \"#utility.yul\":2133:2196   */\n      swap2\n      pop\n        /* \"#utility.yul\":2089:2206   */\n      pop\n        /* \"#utility.yul\":1884:2213   */\n      swap3\n      swap2\n      pop\n      pop\n      jump\t// out\n        /* \"#utility.yul\":2219:2333   */\n    tag_104:\n        /* \"#utility.yul\":2286:2292   */\n      0x00\n        /* \"#utility.yul\":2320:2325   */\n      dup2\n        /* \"#utility.yul\":2314:2326   */\n      mload\n        /* \"#utility.yul\":2304:2326   */\n      swap1\n      pop\n        /* \"#utility.yul\":2219:2333   */\n      swap2\n      swap1\n      pop\n      jump\t// out\n        /* \"#utility.yul\":2339:2523   */\n    tag_105:\n        /* \"#utility.yul\":2438:2449   */\n      0x00\n        /* \"#utility.yul\":2472:2478   */\n      dup3\n        /* \"#utility.yul\":2467:2470   */\n      dup3\n        /* \"#utility.yul\":2460:2479   */\n      mstore\n        /* \"#utility.yul\":2512:2516   */\n      0x20\n        /* \"#utility.yul\":2507:2510   */\n      dup3\n        /* \"#utility.yul\":2503:2517   */\n      add\n        /* \"#utility.yul\":2488:2517   */\n      swap1\n      pop\n        /* \"#utility.yul\":2339:2523   */\n      swap3\n      swap2\n      pop\n      pop\n      jump\t// out\n        /* \"#utility.yul\":2529:2661   */\n    tag_106:\n        /* \"#utility.yul\":2596:2600   */\n      0x00\n        /* \"#utility.yul\":2619:2622   */\n      dup2\n        /* \"#utility.yul\":2611:2622   */\n      swap1\n      pop\n        /* \"#utility.yul\":2649:2653   */\n      0x20\n        /* \"#utility.yul\":2644:2647   */\n      dup3\n        /* \"#utility.yul\":2640:2654   */\n      add\n        /* \"#utility.yul\":2632:2654   */\n      swap1\n      pop\n        /* \"#utility.yul\":2529:2661   */\n      swap2\n      swap1\n      pop\n      jump\t// out\n        /* \"#utility.yul\":2667:2775   */\n    tag_107:\n        /* \"#utility.yul\":2744:2768   */\n      tag_165\n        /* \"#utility.yul\":2762:2767   */\n      dup2\n        /* \"#utility.yul\":2744:2768   */\n      tag_96\n      jump\t// in\n    tag_165:\n        /* \"#utility.yul\":2739:2742   */\n      dup3\n        /* \"#utility.yul\":2732:2769   */\n      mstore\n        /* \"#utility.yul\":2667:2775   */\n      pop\n      pop\n      jump\t// out\n        /* \"#utility.yul\":2781:2960   */\n    tag_108:\n        /* \"#utility.yul\":2850:2860   */\n      0x00\n        /* \"#utility.yul\":2871:2917   */\n      tag_167\n        /* \"#utility.yul\":2913:2916   */\n      dup4\n        /* \"#utility.yul\":2905:2911   */\n      dup4\n        /* \"#utility.yul\":2871:2917   */\n      tag_107\n      jump\t// in\n    tag_167:\n        /* \"#utility.yul\":2949:2953   */\n      0x20\n        /* \"#utility.yul\":2944:2947   */\n      dup4\n        /* \"#utility.yul\":2940:2954   */\n      add\n        /* \"#utility.yul\":2926:2954   */\n      swap1\n      pop\n        /* \"#utility.yul\":2781:2960   */\n      swap3\n      swap2\n      pop\n      pop\n      jump\t// out\n        /* \"#utility.yul\":2966:3079   */\n    tag_109:\n        /* \"#utility.yul\":3036:3040   */\n      0x00\n        /* \"#utility.yul\":3068:3072   */\n      0x20\n        /* \"#utility.yul\":3063:3066   */\n      dup3\n        /* \"#utility.yul\":3059:3073   */\n      add\n        /* \"#utility.yul\":3051:3073   */\n      swap1\n      pop\n        /* \"#utility.yul\":2966:3079   */\n      swap2\n      swap1\n      pop\n      jump\t// out\n        /* \"#utility.yul\":3115:3847   */\n    tag_110:\n        /* \"#utility.yul\":3234:3237   */\n      0x00\n        /* \"#utility.yul\":3263:3317   */\n      tag_170\n        /* \"#utility.yul\":3311:3316   */\n      dup3\n        /* \"#utility.yul\":3263:3317   */\n      tag_104\n      jump\t// in\n    tag_170:\n        /* \"#utility.yul\":3333:3419   */\n      tag_171\n        /* \"#utility.yul\":3412:3418   */\n      dup2\n        /* \"#utility.yul\":3407:3410   */\n      dup6\n        /* \"#utility.yul\":3333:3419   */\n      tag_105\n      jump\t// in\n    tag_171:\n        /* \"#utility.yul\":3326:3419   */\n      swap4\n      pop\n        /* \"#utility.yul\":3443:3499   */\n      tag_172\n        /* \"#utility.yul\":3493:3498   */\n      dup4\n        /* \"#utility.yul\":3443:3499   */\n      tag_106\n      jump\t// in\n    tag_172:\n        /* \"#utility.yul\":3522:3529   */\n      dup1\n        /* \"#utility.yul\":3553:3554   */\n      0x00\n        /* \"#utility.yul\":3538:3822   */\n    tag_173:\n        /* \"#utility.yul\":3563:3569   */\n      dup4\n        /* \"#utility.yul\":3560:3561   */\n      dup2\n        /* \"#utility.yul\":3557:3570   */\n      lt\n        /* \"#utility.yul\":3538:3822   */\n      iszero\n      tag_175\n      jumpi\n        /* \"#utility.yul\":3639:3645   */\n      dup2\n        /* \"#utility.yul\":3633:3646   */\n      mload\n        /* \"#utility.yul\":3666:3729   */\n      tag_176\n        /* \"#utility.yul\":3725:3728   */\n      dup9\n        /* \"#utility.yul\":3710:3723   */\n      dup3\n        /* \"#utility.yul\":3666:3729   */\n      tag_108\n      jump\t// in\n    tag_176:\n        /* \"#utility.yul\":3659:3729   */\n      swap8\n      pop\n        /* \"#utility.yul\":3752:3812   */\n      tag_177\n        /* \"#utility.yul\":3805:3811   */\n      dup4\n        /* \"#utility.yul\":3752:3812   */\n      tag_109\n      jump\t// in\n    tag_177:\n        /* \"#utility.yul\":3742:3812   */\n      swap3\n      pop\n        /* \"#utility.yul\":3598:3822   */\n      pop\n        /* \"#utility.yul\":3585:3586   */\n      0x01\n        /* \"#utility.yul\":3582:3583   */\n      dup2\n        /* \"#utility.yul\":3578:3587   */\n      add\n        /* \"#utility.yul\":3573:3587   */\n      swap1\n      pop\n        /* \"#utility.yul\":3538:3822   */\n      jump(tag_173)\n    tag_175:\n        /* \"#utility.yul\":3542:3556   */\n      pop\n        /* \"#utility.yul\":3838:3841   */\n      dup6\n        /* \"#utility.yul\":3831:3841   */\n      swap4\n      pop\n        /* \"#utility.yul\":3239:3847   */\n      pop\n      pop\n      pop\n        /* \"#utility.yul\":3115:3847   */\n      swap3\n      swap2\n      pop\n      pop\n      jump\t// out\n        /* \"#utility.yul\":3853:4226   */\n    tag_19:\n        /* \"#utility.yul\":3996:4000   */\n      0x00\n        /* \"#utility.yul\":4034:4036   */\n      0x20\n        /* \"#utility.yul\":4023:4032   */\n      dup3\n        /* \"#utility.yul\":4019:4037   */\n      add\n        /* \"#utility.yul\":4011:4037   */\n      swap1\n      pop\n        /* \"#utility.yul\":4083:4092   */\n      dup2\n        /* \"#utility.yul\":4077:4081   */\n      dup2\n        /* \"#utility.yul\":4073:4093   */\n      sub\n        /* \"#utility.yul\":4069:4070   */\n      0x00\n        /* \"#utility.yul\":4058:4067   */\n      dup4\n        /* \"#utility.yul\":4054:4071   */\n      add\n        /* \"#utility.yul\":4047:4094   */\n      mstore\n        /* \"#utility.yul\":4111:4219   */\n      tag_179\n        /* \"#utility.yul\":4214:4218   */\n      dup2\n        /* \"#utility.yul\":4205:4211   */\n      dup5\n        /* \"#utility.yul\":4111:4219   */\n      tag_110\n      jump\t// in\n    tag_179:\n        /* \"#utility.yul\":4103:4219   */\n      swap1\n      pop\n        /* \"#utility.yul\":3853:4226   */\n      swap3\n      swap2\n      pop\n      pop\n      jump\t// out\n        /* \"#utility.yul\":4232:4331   */\n    tag_111:\n        /* \"#utility.yul\":4284:4290   */\n      0x00\n        /* \"#utility.yul\":4318:4323   */\n      dup2\n        /* \"#utility.yul\":4312:4324   */\n      mload\n        /* \"#utility.yul\":4302:4324   */\n      swap1\n      pop\n        /* \"#utility.yul\":4232:4331   */\n      swap2\n      swap1\n      pop\n      jump\t// out\n        /* \"#utility.yul\":4337:4506   */\n    tag_112:\n        /* \"#utility.yul\":4421:4432   */\n      0x00\n        /* \"#utility.yul\":4455:4461   */\n      dup3\n        /* \"#utility.yul\":4450:4453   */\n      dup3\n        /* \"#utility.yul\":4443:4462   */\n      mstore\n        /* \"#utility.yul\":4495:4499   */\n      0x20\n        /* \"#utility.yul\":4490:4493   */\n      dup3\n        /* \"#utility.yul\":4486:4500   */\n      add\n        /* \"#utility.yul\":4471:4500   */\n      swap1\n      pop\n        /* \"#utility.yul\":4337:4506   */\n      swap3\n      swap2\n      pop\n      pop\n      jump\t// out\n        /* \"#utility.yul\":4512:4819   */\n    tag_113:\n        /* \"#utility.yul\":4580:4581   */\n      0x00\n        /* \"#utility.yul\":4590:4703   */\n    tag_183:\n        /* \"#utility.yul\":4604:4610   */\n      dup4\n        /* \"#utility.yul\":4601:4602   */\n      dup2\n        /* \"#utility.yul\":4598:4611   */\n      lt\n        /* \"#utility.yul\":4590:4703   */\n      iszero\n      tag_185\n      jumpi\n        /* \"#utility.yul\":4689:4690   */\n      dup1\n        /* \"#utility.yul\":4684:4687   */\n      dup3\n        /* \"#utility.yul\":4680:4691   */\n      add\n        /* \"#utility.yul\":4674:4692   */\n      mload\n        /* \"#utility.yul\":4670:4671   */\n      dup2\n        /* \"#utility.yul\":4665:4668   */\n      dup5\n        /* \"#utility.yul\":4661:4672   */\n      add\n        /* \"#utility.yul\":4654:4693   */\n      mstore\n        /* \"#utility.yul\":4626:4628   */\n      0x20\n        /* \"#utility.yul\":4623:4624   */\n      dup2\n        /* \"#utility.yul\":4619:4629   */\n      add\n        /* \"#utility.yul\":4614:4629   */\n      swap1\n      pop\n        /* \"#utility.yul\":4590:4703   */\n      jump(tag_183)\n    tag_185:\n        /* \"#utility.yul\":4721:4727   */\n      dup4\n        /* \"#utility.yul\":4718:4719   */\n      dup2\n        /* \"#utility.yul\":4715:4728   */\n      gt\n        /* \"#utility.yul\":4712:4813   */\n      iszero\n      tag_186\n      jumpi\n        /* \"#utility.yul\":4801:4802   */\n      0x00\n        /* \"#utility.yul\":4792:4798   */\n      dup5\n        /* \"#utility.yul\":4787:4790   */\n      dup5\n        /* \"#utility.yul\":4783:4799   */\n      add\n        /* \"#utility.yul\":4776:4803   */\n      mstore\n        /* \"#utility.yul\":4712:4813   */\n    tag_186:\n        /* \"#utility.yul\":4561:4819   */\n      pop\n        /* \"#utility.yul\":4512:4819   */\n      pop\n      pop\n      pop\n      jump\t// out\n        /* \"#utility.yul\":4825:4927   */\n    tag_114:\n        /* \"#utility.yul\":4866:4872   */\n      0x00\n        /* \"#utility.yul\":4917:4919   */\n      0x1f\n        /* \"#utility.yul\":4913:4920   */\n      not\n        /* \"#utility.yul\":4908:4910   */\n      0x1f\n        /* \"#utility.yul\":4901:4906   */\n      dup4\n        /* \"#utility.yul\":4897:4911   */\n      add\n        /* \"#utility.yul\":4893:4921   */\n      and\n        /* \"#utility.yul\":4883:4921   */\n      swap1\n      pop\n        /* \"#utility.yul\":4825:4927   */\n      swap2\n      swap1\n      pop\n      jump\t// out\n        /* \"#utility.yul\":4933:5297   */\n    tag_115:\n        /* \"#utility.yul\":5021:5024   */\n      0x00\n        /* \"#utility.yul\":5049:5088   */\n      tag_189\n        /* \"#utility.yul\":5082:5087   */\n      dup3\n        /* \"#utility.yul\":5049:5088   */\n      tag_111\n      jump\t// in\n    tag_189:\n        /* \"#utility.yul\":5104:5175   */\n      tag_190\n        /* \"#utility.yul\":5168:5174   */\n      dup2\n        /* \"#utility.yul\":5163:5166   */\n      dup6\n        /* \"#utility.yul\":5104:5175   */\n      tag_112\n      jump\t// in\n    tag_190:\n        /* \"#utility.yul\":5097:5175   */\n      swap4\n      pop\n        /* \"#utility.yul\":5184:5236   */\n      tag_191\n        /* \"#utility.yul\":5229:5235   */\n      dup2\n        /* \"#utility.yul\":5224:5227   */\n      dup6\n        /* \"#utility.yul\":5217:5221   */\n      0x20\n        /* \"#utility.yul\":5210:5215   */\n      dup7\n        /* \"#utility.yul\":5206:5222   */\n      add\n        /* \"#utility.yul\":5184:5236   */\n      tag_113\n      jump\t// in\n    tag_191:\n        /* \"#utility.yul\":5261:5290   */\n      tag_192\n        /* \"#utility.yul\":5283:5289   */\n      dup2\n        /* \"#utility.yul\":5261:5290   */\n      tag_114\n      jump\t// in\n    tag_192:\n        /* \"#utility.yul\":5256:5259   */\n      dup5\n        /* \"#utility.yul\":5252:5291   */\n      add\n        /* \"#utility.yul\":5245:5291   */\n      swap2\n      pop\n        /* \"#utility.yul\":5025:5297   */\n      pop\n        /* \"#utility.yul\":4933:5297   */\n      swap3\n      swap2\n      pop\n      pop\n      jump\t// out\n        /* \"#utility.yul\":5303:5421   */\n    tag_116:\n        /* \"#utility.yul\":5390:5414   */\n      tag_194\n        /* \"#utility.yul\":5408:5413   */\n      dup2\n        /* \"#utility.yul\":5390:5414   */\n      tag_96\n      jump\t// in\n    tag_194:\n        /* \"#utility.yul\":5385:5388   */\n      dup3\n        /* \"#utility.yul\":5378:5415   */\n      mstore\n        /* \"#utility.yul\":5303:5421   */\n      pop\n      pop\n      jump\t// out\n        /* \"#utility.yul\":5427:5520   */\n    tag_117:\n        /* \"#utility.yul\":5463:5470   */\n      0x00\n        /* \"#utility.yul\":5503:5513   */\n      0xffffffff\n        /* \"#utility.yul\":5496:5501   */\n      dup3\n        /* \"#utility.yul\":5492:5514   */\n      and\n        /* \"#utility.yul\":5481:5514   */\n      swap1\n      pop\n        /* \"#utility.yul\":5427:5520   */\n      swap2\n      swap1\n      pop\n      jump\t// out\n        /* \"#utility.yul\":5526:5641   */\n    tag_118:\n        /* \"#utility.yul\":5611:5634   */\n      tag_197\n        /* \"#utility.yul\":5628:5633   */\n      dup2\n        /* \"#utility.yul\":5611:5634   */\n      tag_117\n      jump\t// in\n    tag_197:\n        /* \"#utility.yul\":5606:5609   */\n      dup3\n        /* \"#utility.yul\":5599:5635   */\n      mstore\n        /* \"#utility.yul\":5526:5641   */\n      pop\n      pop\n      jump\t// out\n        /* \"#utility.yul\":5647:6176   */\n    tag_24:\n        /* \"#utility.yul\":5814:5818   */\n      0x00\n        /* \"#utility.yul\":5852:5854   */\n      0x60\n        /* \"#utility.yul\":5841:5850   */\n      dup3\n        /* \"#utility.yul\":5837:5855   */\n      add\n        /* \"#utility.yul\":5829:5855   */\n      swap1\n      pop\n        /* \"#utility.yul\":5901:5910   */\n      dup2\n        /* \"#utility.yul\":5895:5899   */\n      dup2\n        /* \"#utility.yul\":5891:5911   */\n      sub\n        /* \"#utility.yul\":5887:5888   */\n      0x00\n        /* \"#utility.yul\":5876:5885   */\n      dup4\n        /* \"#utility.yul\":5872:5889   */\n      add\n        /* \"#utility.yul\":5865:5912   */\n      mstore\n        /* \"#utility.yul\":5929:6007   */\n      tag_199\n        /* \"#utility.yul\":6002:6006   */\n      dup2\n        /* \"#utility.yul\":5993:5999   */\n      dup7\n        /* \"#utility.yul\":5929:6007   */\n      tag_115\n      jump\t// in\n    tag_199:\n        /* \"#utility.yul\":5921:6007   */\n      swap1\n      pop\n        /* \"#utility.yul\":6017:6089   */\n      tag_200\n        /* \"#utility.yul\":6085:6087   */\n      0x20\n        /* \"#utility.yul\":6074:6083   */\n      dup4\n        /* \"#utility.yul\":6070:6088   */\n      add\n        /* \"#utility.yul\":6061:6067   */\n      dup6\n        /* \"#utility.yul\":6017:6089   */\n      tag_116\n      jump\t// in\n    tag_200:\n        /* \"#utility.yul\":6099:6169   */\n      tag_201\n        /* \"#utility.yul\":6165:6167   */\n      0x40\n        /* \"#utility.yul\":6154:6163   */\n      dup4\n        /* \"#utility.yul\":6150:6168   */\n      add\n        /* \"#utility.yul\":6141:6147   */\n      dup5\n        /* \"#utility.yul\":6099:6169   */\n      tag_118\n      jump\t// in\n    tag_201:\n        /* \"#utility.yul\":5647:6176   */\n      swap5\n      swap4\n      pop\n      pop\n      pop\n      pop\n      jump\t// out\n        /* \"#utility.yul\":6182:6404   */\n    tag_29:\n        /* \"#utility.yul\":6275:6279   */\n      0x00\n        /* \"#utility.yul\":6313:6315   */\n      0x20\n        /* \"#utility.yul\":6302:6311   */\n      dup3\n        /* \"#utility.yul\":6298:6316   */\n      add\n        /* \"#utility.yul\":6290:6316   */\n      swap1\n      pop\n        /* \"#utility.yul\":6326:6397   */\n      tag_203\n        /* \"#utility.yul\":6394:6395   */\n      0x00\n        /* \"#utility.yul\":6383:6392   */\n      dup4\n        /* \"#utility.yul\":6379:6396   */\n      add\n        /* \"#utility.yul\":6370:6376   */\n      dup5\n        /* \"#utility.yul\":6326:6397   */\n      tag_116\n      jump\t// in\n    tag_203:\n        /* \"#utility.yul\":6182:6404   */\n      swap3\n      swap2\n      pop\n      pop\n      jump\t// out\n        /* \"#utility.yul\":6410:6527   */\n    tag_119:\n        /* \"#utility.yul\":6519:6520   */\n      0x00\n        /* \"#utility.yul\":6516:6517   */\n      dup1\n        /* \"#utility.yul\":6509:6521   */\n      revert\n        /* \"#utility.yul\":6533:6650   */\n    tag_120:\n        /* \"#utility.yul\":6642:6643   */\n      0x00\n        /* \"#utility.yul\":6639:6640   */\n      dup1\n        /* \"#utility.yul\":6632:6644   */\n      revert\n        /* \"#utility.yul\":6656:6773   */\n    tag_121:\n        /* \"#utility.yul\":6765:6766   */\n      0x00\n        /* \"#utility.yul\":6762:6763   */\n      dup1\n        /* \"#utility.yul\":6755:6767   */\n      revert\n        /* \"#utility.yul\":6793:7346   */\n    tag_122:\n        /* \"#utility.yul\":6851:6859   */\n      0x00\n        /* \"#utility.yul\":6861:6867   */\n      dup1\n        /* \"#utility.yul\":6911:6914   */\n      dup4\n        /* \"#utility.yul\":6904:6908   */\n      0x1f\n        /* \"#utility.yul\":6896:6902   */\n      dup5\n        /* \"#utility.yul\":6892:6909   */\n      add\n        /* \"#utility.yul\":6888:6915   */\n      slt\n        /* \"#utility.yul\":6878:7000   */\n      tag_208\n      jumpi\n        /* \"#utility.yul\":6919:6998   */\n      tag_209\n      tag_119\n      jump\t// in\n    tag_209:\n        /* \"#utility.yul\":6878:7000   */\n    tag_208:\n        /* \"#utility.yul\":7032:7038   */\n      dup3\n        /* \"#utility.yul\":7019:7039   */\n      calldataload\n        /* \"#utility.yul\":7009:7039   */\n      swap1\n      pop\n        /* \"#utility.yul\":7062:7080   */\n      0xffffffffffffffff\n        /* \"#utility.yul\":7054:7060   */\n      dup2\n        /* \"#utility.yul\":7051:7081   */\n      gt\n        /* \"#utility.yul\":7048:7165   */\n      iszero\n      tag_210\n      jumpi\n        /* \"#utility.yul\":7084:7163   */\n      tag_211\n      tag_120\n      jump\t// in\n    tag_211:\n        /* \"#utility.yul\":7048:7165   */\n    tag_210:\n        /* \"#utility.yul\":7198:7202   */\n      0x20\n        /* \"#utility.yul\":7190:7196   */\n      dup4\n        /* \"#utility.yul\":7186:7203   */\n      add\n        /* \"#utility.yul\":7174:7203   */\n      swap2\n      pop\n        /* \"#utility.yul\":7252:7255   */\n      dup4\n        /* \"#utility.yul\":7244:7248   */\n      0x01\n        /* \"#utility.yul\":7236:7242   */\n      dup3\n        /* \"#utility.yul\":7232:7249   */\n      mul\n        /* \"#utility.yul\":7222:7230   */\n      dup4\n        /* \"#utility.yul\":7218:7250   */\n      add\n        /* \"#utility.yul\":7215:7256   */\n      gt\n        /* \"#utility.yul\":7212:7340   */\n      iszero\n      tag_212\n      jumpi\n        /* \"#utility.yul\":7259:7338   */\n      tag_213\n      tag_121\n      jump\t// in\n    tag_213:\n        /* \"#utility.yul\":7212:7340   */\n    tag_212:\n        /* \"#utility.yul\":6793:7346   */\n      swap3\n      pop\n      swap3\n      swap1\n      pop\n      jump\t// out\n        /* \"#utility.yul\":7352:7881   */\n    tag_32:\n        /* \"#utility.yul\":7423:7429   */\n      0x00\n        /* \"#utility.yul\":7431:7437   */\n      dup1\n        /* \"#utility.yul\":7480:7482   */\n      0x20\n        /* \"#utility.yul\":7468:7477   */\n      dup4\n        /* \"#utility.yul\":7459:7466   */\n      dup6\n        /* \"#utility.yul\":7455:7478   */\n      sub\n        /* \"#utility.yul\":7451:7483   */\n      slt\n        /* \"#utility.yul\":7448:7567   */\n      iszero\n      tag_215\n      jumpi\n        /* \"#utility.yul\":7486:7565   */\n      tag_216\n      tag_94\n      jump\t// in\n    tag_216:\n        /* \"#utility.yul\":7448:7567   */\n    tag_215:\n        /* \"#utility.yul\":7634:7635   */\n      0x00\n        /* \"#utility.yul\":7623:7632   */\n      dup4\n        /* \"#utility.yul\":7619:7636   */\n      add\n        /* \"#utility.yul\":7606:7637   */\n      calldataload\n        /* \"#utility.yul\":7664:7682   */\n      0xffffffffffffffff\n        /* \"#utility.yul\":7656:7662   */\n      dup2\n        /* \"#utility.yul\":7653:7683   */\n      gt\n        /* \"#utility.yul\":7650:7767   */\n      iszero\n      tag_217\n      jumpi\n        /* \"#utility.yul\":7686:7765   */\n      tag_218\n      tag_95\n      jump\t// in\n    tag_218:\n        /* \"#utility.yul\":7650:7767   */\n    tag_217:\n        /* \"#utility.yul\":7799:7864   */\n      tag_219\n        /* \"#utility.yul\":7856:7863   */\n      dup6\n        /* \"#utility.yul\":7847:7853   */\n      dup3\n        /* \"#utility.yul\":7836:7845   */\n      dup7\n        /* \"#utility.yul\":7832:7854   */\n      add\n        /* \"#utility.yul\":7799:7864   */\n      tag_122\n      jump\t// in\n    tag_219:\n        /* \"#utility.yul\":7781:7864   */\n      swap3\n      pop\n      swap3\n      pop\n        /* \"#utility.yul\":7577:7874   */\n      pop\n        /* \"#utility.yul\":7352:7881   */\n      swap3\n      pop\n      swap3\n      swap1\n      pop\n      jump\t// out\n        /* \"#utility.yul\":7887:8067   */\n    tag_37:\n        /* \"#utility.yul\":7935:8012   */\n      0x4e487b7100000000000000000000000000000000000000000000000000000000\n        /* \"#utility.yul\":7932:7933   */\n      0x00\n        /* \"#utility.yul\":7925:8013   */\n      mstore\n        /* \"#utility.yul\":8032:8036   */\n      0x41\n        /* \"#utility.yul\":8029:8030   */\n      0x04\n        /* \"#utility.yul\":8022:8037   */\n      mstore\n        /* \"#utility.yul\":8056:8060   */\n      0x24\n        /* \"#utility.yul\":8053:8054   */\n      0x00\n        /* \"#utility.yul\":8046:8061   */\n      revert\n        /* \"#utility.yul\":8073:8253   */\n    tag_123:\n        /* \"#utility.yul\":8121:8198   */\n      0x4e487b7100000000000000000000000000000000000000000000000000000000\n        /* \"#utility.yul\":8118:8119   */\n      0x00\n        /* \"#utility.yul\":8111:8199   */\n      mstore\n        /* \"#utility.yul\":8218:8222   */\n      0x11\n        /* \"#utility.yul\":8215:8216   */\n      0x04\n        /* \"#utility.yul\":8208:8223   */\n      mstore\n        /* \"#utility.yul\":8242:8246   */\n      0x24\n        /* \"#utility.yul\":8239:8240   */\n      0x00\n        /* \"#utility.yul\":8232:8247   */\n      revert\n        /* \"#utility.yul\":8259:8492   */\n    tag_44:\n        /* \"#utility.yul\":8298:8301   */\n      0x00\n        /* \"#utility.yul\":8321:8345   */\n      tag_223\n        /* \"#utility.yul\":8339:8344   */\n      dup3\n        /* \"#utility.yul\":8321:8345   */\n      tag_96\n      jump\t// in\n    tag_223:\n        /* \"#utility.yul\":8312:8345   */\n      swap2\n      pop\n        /* \"#utility.yul\":8367:8433   */\n      0xffffffffffffffffffffffffffffffffffffffffffffffffffffffffffffffff\n        /* \"#utility.yul\":8360:8365   */\n      dup3\n        /* \"#utility.yul\":8357:8434   */\n      eq\n        /* \"#utility.yul\":8354:8457   */\n      iszero\n      tag_224\n      jumpi\n        /* \"#utility.yul\":8437:8455   */\n      tag_225\n      tag_123\n      jump\t// in\n    tag_225:\n        /* \"#utility.yul\":8354:8457   */\n    tag_224:\n        /* \"#utility.yul\":8484:8485   */\n      0x01\n        /* \"#utility.yul\":8477:8482   */\n      dup3\n        /* \"#utility.yul\":8473:8486   */\n      add\n        /* \"#utility.yul\":8466:8486   */\n      swap1\n      pop\n        /* \"#utility.yul\":8259:8492   */\n      swap2\n      swap1\n      pop\n      jump\t// out\n        /* \"#utility.yul\":8498:8678   */\n    tag_47:\n        /* \"#utility.yul\":8546:8623   */\n      0x4e487b7100000000000000000000000000000000000000000000000000000000\n        /* \"#utility.yul\":8543:8544   */\n      0x00\n        /* \"#utility.yul\":8536:8624   */\n      mstore\n        /* \"#utility.yul\":8643:8647   */\n      0x32\n        /* \"#utility.yul\":8640:8641   */\n      0x04\n        /* \"#utility.yul\":8633:8648   */\n      mstore\n        /* \"#utility.yul\":8667:8671   */\n      0x24\n        /* \"#utility.yul\":8664:8665   */\n      0x00\n        /* \"#utility.yul\":8657:8672   */\n      revert\n        /* \"#utility.yul\":8684:8864   */\n    tag_124:\n        /* \"#utility.yul\":8732:8809   */\n      0x4e487b7100000000000000000000000000000000000000000000000000000000\n        /* \"#utility.yul\":8729:8730   */\n      0x00\n        /* \"#utility.yul\":8722:8810   */\n      mstore\n        /* \"#utility.yul\":8829:8833   */\n      0x22\n        /* \"#utility.yul\":8826:8827   */\n      0x04\n        /* \"#utility.yul\":8819:8834   */\n      mstore\n        /* \"#utility.yul\":8853:8857   */\n      0x24\n        /* \"#utility.yul\":8850:8851   */\n      0x00\n        /* \"#utility.yul\":8843:8858   */\n      revert\n        /* \"#utility.yul\":8870:9190   */\n    tag_52:\n        /* \"#utility.yul\":8914:8920   */\n      0x00\n        /* \"#utility.yul\":8951:8952   */\n      0x02\n        /* \"#utility.yul\":8945:8949   */\n      dup3\n        /* \"#utility.yul\":8941:8953   */\n      div\n        /* \"#utility.yul\":8931:8953   */\n      swap1\n      pop\n        /* \"#utility.yul\":8998:8999   */\n      0x01\n        /* \"#utility.yul\":8992:8996   */\n      dup3\n        /* \"#utility.yul\":8988:9000   */\n      and\n        /* \"#utility.yul\":9019:9037   */\n      dup1\n        /* \"#utility.yul\":9009:9090   */\n      tag_229\n      jumpi\n        /* \"#utility.yul\":9075:9079   */\n      0x7f\n        /* \"#utility.yul\":9067:9073   */\n      dup3\n        /* \"#utility.yul\":9063:9080   */\n      and\n        /* \"#utility.yul\":9053:9080   */\n      swap2\n      pop\n        /* \"#utility.yul\":9009:9090   */\n    tag_229:\n        /* \"#utility.yul\":9137:9139   */\n      0x20\n        /* \"#utility.yul\":9129:9135   */\n      dup3\n        /* \"#utility.yul\":9126:9140   */\n      lt\n        /* \"#utility.yul\":9106:9124   */\n      dup2\n        /* \"#utility.yul\":9103:9141   */\n      eq\n        /* \"#utility.yul\":9100:9184   */\n      iszero\n      tag_230\n      jumpi\n        /* \"#utility.yul\":9156:9174   */\n      tag_231\n      tag_124\n      jump\t// in\n    tag_231:\n        /* \"#utility.yul\":9100:9184   */\n    tag_230:\n        /* \"#utility.yul\":8921:9190   */\n      pop\n        /* \"#utility.yul\":8870:9190   */\n      swap2\n      swap1\n      pop\n      jump\t// out\n        /* \"#utility.yul\":9196:9369   */\n    tag_125:\n        /* \"#utility.yul\":9336:9361   */\n      0x412066756e67757320616c72656164792065786973742e000000000000000000\n        /* \"#utility.yul\":9332:9333   */\n      0x00\n        /* \"#utility.yul\":9324:9330   */\n      dup3\n        /* \"#utility.yul\":9320:9334   */\n      add\n        /* \"#utility.yul\":9313:9362   */\n      mstore\n        /* \"#utility.yul\":9196:9369   */\n      pop\n      jump\t// out\n        /* \"#utility.yul\":9375:9741   */\n    tag_126:\n        /* \"#utility.yul\":9517:9520   */\n      0x00\n        /* \"#utility.yul\":9538:9605   */\n      tag_234\n        /* \"#utility.yul\":9602:9604   */\n      0x17\n        /* \"#utility.yul\":9597:9600   */\n      dup4\n        /* \"#utility.yul\":9538:9605   */\n      tag_112\n      jump\t// in\n    tag_234:\n        /* \"#utility.yul\":9531:9605   */\n      swap2\n      pop\n        /* \"#utility.yul\":9614:9707   */\n      tag_235\n        /* \"#utility.yul\":9703:9706   */\n      dup3\n        /* \"#utility.yul\":9614:9707   */\n      tag_125\n      jump\t// in\n    tag_235:\n        /* \"#utility.yul\":9732:9734   */\n      0x20\n        /* \"#utility.yul\":9727:9730   */\n      dup3\n        /* \"#utility.yul\":9723:9735   */\n      add\n        /* \"#utility.yul\":9716:9735   */\n      swap1\n      pop\n        /* \"#utility.yul\":9375:9741   */\n      swap2\n      swap1\n      pop\n      jump\t// out\n        /* \"#utility.yul\":9747:10166   */\n    tag_60:\n        /* \"#utility.yul\":9913:9917   */\n      0x00\n        /* \"#utility.yul\":9951:9953   */\n      0x20\n        /* \"#utility.yul\":9940:9949   */\n      dup3\n        /* \"#utility.yul\":9936:9954   */\n      add\n        /* \"#utility.yul\":9928:9954   */\n      swap1\n      pop\n        /* \"#utility.yul\":10000:10009   */\n      dup2\n        /* \"#utility.yul\":9994:9998   */\n      dup2\n        /* \"#utility.yul\":9990:10010   */\n      sub\n        /* \"#utility.yul\":9986:9987   */\n      0x00\n        /* \"#utility.yul\":9975:9984   */\n      dup4\n        /* \"#utility.yul\":9971:9988   */\n      add\n        /* \"#utility.yul\":9964:10011   */\n      mstore\n        /* \"#utility.yul\":10028:10159   */\n      tag_237\n        /* \"#utility.yul\":10154:10158   */\n      dup2\n        /* \"#utility.yul\":10028:10159   */\n      tag_126\n      jump\t// in\n    tag_237:\n        /* \"#utility.yul\":10020:10159   */\n      swap1\n      pop\n        /* \"#utility.yul\":9747:10166   */\n      swap2\n      swap1\n      pop\n      jump\t// out\n        /* \"#utility.yul\":10172:10319   */\n    tag_127:\n        /* \"#utility.yul\":10273:10284   */\n      0x00\n        /* \"#utility.yul\":10310:10313   */\n      dup2\n        /* \"#utility.yul\":10295:10313   */\n      swap1\n      pop\n        /* \"#utility.yul\":10172:10319   */\n      swap3\n      swap2\n      pop\n      pop\n      jump\t// out\n        /* \"#utility.yul\":10325:10479   */\n    tag_128:\n        /* \"#utility.yul\":10409:10415   */\n      dup3\n        /* \"#utility.yul\":10404:10407   */\n      dup2\n        /* \"#utility.yul\":10399:10402   */\n      dup4\n        /* \"#utility.yul\":10386:10416   */\n      calldatacopy\n        /* \"#utility.yul\":10471:10472   */\n      0x00\n        /* \"#utility.yul\":10462:10468   */\n      dup4\n        /* \"#utility.yul\":10457:10460   */\n      dup4\n        /* \"#utility.yul\":10453:10469   */\n      add\n        /* \"#utility.yul\":10446:10473   */\n      mstore\n        /* \"#utility.yul\":10325:10479   */\n      pop\n      pop\n      pop\n      jump\t// out\n        /* \"#utility.yul\":10507:10821   */\n    tag_129:\n        /* \"#utility.yul\":10621:10624   */\n      0x00\n        /* \"#utility.yul\":10642:10730   */\n      tag_241\n        /* \"#utility.yul\":10723:10729   */\n      dup4\n        /* \"#utility.yul\":10718:10721   */\n      dup6\n        /* \"#utility.yul\":10642:10730   */\n      tag_127\n      jump\t// in\n    tag_241:\n        /* \"#utility.yul\":10635:10730   */\n      swap4\n      pop\n        /* \"#utility.yul\":10740:10783   */\n      tag_242\n        /* \"#utility.yul\":10776:10782   */\n      dup4\n        /* \"#utility.yul\":10771:10774   */\n      dup6\n        /* \"#utility.yul\":10764:10769   */\n      dup5\n        /* \"#utility.yul\":10740:10783   */\n      tag_128\n      jump\t// in\n    tag_242:\n        /* \"#utility.yul\":10808:10814   */\n      dup3\n        /* \"#utility.yul\":10803:10806   */\n      dup5\n        /* \"#utility.yul\":10799:10815   */\n      add\n        /* \"#utility.yul\":10792:10815   */\n      swap1\n      pop\n        /* \"#utility.yul\":10507:10821   */\n      swap4\n      swap3\n      pop\n      pop\n      pop\n      jump\t// out\n        /* \"#utility.yul\":10827:11118   */\n    tag_67:\n        /* \"#utility.yul\":10967:10970   */\n      0x00\n        /* \"#utility.yul\":10989:11092   */\n      tag_244\n        /* \"#utility.yul\":11088:11091   */\n      dup3\n        /* \"#utility.yul\":11079:11085   */\n      dup5\n        /* \"#utility.yul\":11071:11077   */\n      dup7\n        /* \"#utility.yul\":10989:11092   */\n      tag_129\n      jump\t// in\n    tag_244:\n        /* \"#utility.yul\":10982:11092   */\n      swap2\n      pop\n        /* \"#utility.yul\":11109:11112   */\n      dup2\n        /* \"#utility.yul\":11102:11112   */\n      swap1\n      pop\n        /* \"#utility.yul\":10827:11118   */\n      swap4\n      swap3\n      pop\n      pop\n      pop\n      jump\t// out\n        /* \"#utility.yul\":11124:11304   */\n    tag_130:\n        /* \"#utility.yul\":11172:11249   */\n      0x4e487b7100000000000000000000000000000000000000000000000000000000\n        /* \"#utility.yul\":11169:11170   */\n      0x00\n        /* \"#utility.yul\":11162:11250   */\n      mstore\n        /* \"#utility.yul\":11269:11273   */\n      0x12\n        /* \"#utility.yul\":11266:11267   */\n      0x04\n        /* \"#utility.yul\":11259:11274   */\n      mstore\n        /* \"#utility.yul\":11293:11297   */\n      0x24\n        /* \"#utility.yul\":11290:11291   */\n      0x00\n        /* \"#utility.yul\":11283:11298   */\n      revert\n        /* \"#utility.yul\":11310:11486   */\n    tag_69:\n        /* \"#utility.yul\":11342:11343   */\n      0x00\n        /* \"#utility.yul\":11359:11379   */\n      tag_247\n        /* \"#utility.yul\":11377:11378   */\n      dup3\n        /* \"#utility.yul\":11359:11379   */\n      tag_96\n      jump\t// in\n    tag_247:\n        /* \"#utility.yul\":11354:11379   */\n      swap2\n      pop\n        /* \"#utility.yul\":11393:11413   */\n      tag_248\n        /* \"#utility.yul\":11411:11412   */\n      dup4\n        /* \"#utility.yul\":11393:11413   */\n      tag_96\n      jump\t// in\n    tag_248:\n        /* \"#utility.yul\":11388:11413   */\n      swap3\n      pop\n        /* \"#utility.yul\":11432:11433   */\n      dup3\n        /* \"#utility.yul\":11422:11457   */\n      tag_249\n      jumpi\n        /* \"#utility.yul\":11437:11455   */\n      tag_250\n      tag_130\n      jump\t// in\n    tag_250:\n        /* \"#utility.yul\":11422:11457   */\n    tag_249:\n        /* \"#utility.yul\":11478:11479   */\n      dup3\n        /* \"#utility.yul\":11475:11476   */\n      dup3\n        /* \"#utility.yul\":11471:11480   */\n      mod\n        /* \"#utility.yul\":11466:11480   */\n      swap1\n      pop\n        /* \"#utility.yul\":11310:11486   */\n      swap3\n      swap2\n      pop\n      pop\n      jump\t// out\n        /* \"#utility.yul\":11492:11683   */\n    tag_72:\n        /* \"#utility.yul\":11532:11536   */\n      0x00\n        /* \"#utility.yul\":11552:11572   */\n      tag_252\n        /* \"#utility.yul\":11570:11571   */\n      dup3\n        /* \"#utility.yul\":11552:11572   */\n      tag_96\n      jump\t// in\n    tag_252:\n        /* \"#utility.yul\":11547:11572   */\n      swap2\n      pop\n        /* \"#utility.yul\":11586:11606   */\n      tag_253\n        /* \"#utility.yul\":11604:11605   */\n      dup4\n        /* \"#utility.yul\":11586:11606   */\n      tag_96\n      jump\t// in\n    tag_253:\n        /* \"#utility.yul\":11581:11606   */\n      swap3\n      pop\n        /* \"#utility.yul\":11625:11626   */\n      dup3\n        /* \"#utility.yul\":11622:11623   */\n      dup3\n        /* \"#utility.yul\":11619:11627   */\n      lt\n        /* \"#utility.yul\":11616:11650   */\n      iszero\n      tag_254\n      jumpi\n        /* \"#utility.yul\":11630:11648   */\n      tag_255\n      tag_123\n      jump\t// in\n    tag_255:\n        /* \"#utility.yul\":11616:11650   */\n    tag_254:\n        /* \"#utility.yul\":11675:11676   */\n      dup3\n        /* \"#utility.yul\":11672:11673   */\n      dup3\n        /* \"#utility.yul\":11668:11677   */\n      sub\n        /* \"#utility.yul\":11660:11677   */\n      swap1\n      pop\n        /* \"#utility.yul\":11492:11683   */\n      swap3\n      swap2\n      pop\n      pop\n      jump\t// out\n        /* \"#utility.yul\":11689:11994   */\n    tag_75:\n        /* \"#utility.yul\":11729:11732   */\n      0x00\n        /* \"#utility.yul\":11748:11768   */\n      tag_257\n        /* \"#utility.yul\":11766:11767   */\n      dup3\n        /* \"#utility.yul\":11748:11768   */\n      tag_96\n      jump\t// in\n    tag_257:\n        /* \"#utility.yul\":11743:11768   */\n      swap2\n      pop\n        /* \"#utility.yul\":11782:11802   */\n      tag_258\n        /* \"#utility.yul\":11800:11801   */\n      dup4\n        /* \"#utility.yul\":11782:11802   */\n      tag_96\n      jump\t// in\n    tag_258:\n        /* \"#utility.yul\":11777:11802   */\n      swap3\n      pop\n        /* \"#utility.yul\":11936:11937   */\n      dup3\n        /* \"#utility.yul\":11868:11934   */\n      0xffffffffffffffffffffffffffffffffffffffffffffffffffffffffffffffff\n        /* \"#utility.yul\":11864:11938   */\n      sub\n        /* \"#utility.yul\":11861:11862   */\n      dup3\n        /* \"#utility.yul\":11858:11939   */\n      gt\n        /* \"#utility.yul\":11855:11962   */\n      iszero\n      tag_259\n      jumpi\n        /* \"#utility.yul\":11942:11960   */\n      tag_260\n      tag_123\n      jump\t// in\n    tag_260:\n        /* \"#utility.yul\":11855:11962   */\n    tag_259:\n        /* \"#utility.yul\":11986:11987   */\n      dup3\n        /* \"#utility.yul\":11983:11984   */\n      dup3\n        /* \"#utility.yul\":11979:11988   */\n      add\n        /* \"#utility.yul\":11972:11988   */\n      swap1\n      pop\n        /* \"#utility.yul\":11689:11994   */\n      swap3\n      swap2\n      pop\n      pop\n      jump\t// out\n        /* \"#utility.yul\":12000:12533   */\n    tag_82:\n        /* \"#utility.yul\":12169:12173   */\n      0x00\n        /* \"#utility.yul\":12207:12209   */\n      0x60\n        /* \"#utility.yul\":12196:12205   */\n      dup3\n        /* \"#utility.yul\":12192:12210   */\n      add\n        /* \"#utility.yul\":12184:12210   */\n      swap1\n      pop\n        /* \"#utility.yul\":12220:12291   */\n      tag_262\n        /* \"#utility.yul\":12288:12289   */\n      0x00\n        /* \"#utility.yul\":12277:12286   */\n      dup4\n        /* \"#utility.yul\":12273:12290   */\n      add\n        /* \"#utility.yul\":12264:12270   */\n      dup7\n        /* \"#utility.yul\":12220:12291   */\n      tag_116\n      jump\t// in\n    tag_262:\n        /* \"#utility.yul\":12338:12347   */\n      dup2\n        /* \"#utility.yul\":12332:12336   */\n      dup2\n        /* \"#utility.yul\":12328:12348   */\n      sub\n        /* \"#utility.yul\":12323:12325   */\n      0x20\n        /* \"#utility.yul\":12312:12321   */\n      dup4\n        /* \"#utility.yul\":12308:12326   */\n      add\n        /* \"#utility.yul\":12301:12349   */\n      mstore\n        /* \"#utility.yul\":12366:12444   */\n      tag_263\n        /* \"#utility.yul\":12439:12443   */\n      dup2\n        /* \"#utility.yul\":12430:12436   */\n      dup6\n        /* \"#utility.yul\":12366:12444   */\n      tag_115\n      jump\t// in\n    tag_263:\n        /* \"#utility.yul\":12358:12444   */\n      swap1\n      pop\n        /* \"#utility.yul\":12454:12526   */\n      tag_264\n        /* \"#utility.yul\":12522:12524   */\n      0x40\n        /* \"#utility.yul\":12511:12520   */\n      dup4\n        /* \"#utility.yul\":12507:12525   */\n      add\n        /* \"#utility.yul\":12498:12504   */\n      dup5\n        /* \"#utility.yul\":12454:12526   */\n      tag_116\n      jump\t// in\n    tag_264:\n        /* \"#utility.yul\":12000:12533   */\n      swap5\n      swap4\n      pop\n      pop\n      pop\n      pop\n      jump\t// out\n\n    auxdata: 0xa2646970667358221220278e885672f35ce7e62fa559216831cc240e4f0ed526696ac6f4220d00bae0c364736f6c634300080c0033\n}\n",
				"bytecode": {
					"linkReferences": {},
					"object": "6080604052600e600055600054600a6200001a9190620001c3565b600155603c6002553480156200002f57600080fd5b5062000214565b7f4e487b7100000000000000000000000000000000000000000000000000000000600052601160045260246000fd5b60008160011c9050919050565b6000808291508390505b6001851115620000c4578086048111156200009c576200009b62000036565b5b6001851615620000ac5780820291505b8081029050620000bc8562000065565b94506200007c565b94509492505050565b600082620000df5760019050620001b2565b81620000ef5760009050620001b2565b8160018114620001085760028114620001135762000149565b6001915050620001b2565b60ff84111562000128576200012762000036565b5b8360020a91508482111562000142576200014162000036565b5b50620001b2565b5060208310610133831016604e8410600b8410161715620001835782820a9050838111156200017d576200017c62000036565b5b620001b2565b62000192848484600162000072565b92509050818404811115620001ac57620001ab62000036565b5b81810290505b9392505050565b6000819050919050565b6000620001d082620001b9565b9150620001dd83620001b9565b92506200020c7fffffffffffffffffffffffffffffffffffffffffffffffffffffffffffffffff8484620000cd565b905092915050565b610e5880620002246000396000f3fe608060405234801561001057600080fd5b50600436106100575760003560e01c80630e17f8831461005c5780631e1694cb1461008c5780636bdfcef9146100bc578063703b3d38146100ee578063b082ab771461011e575b600080fd5b6100766004803603810190610071919061076b565b61013a565b60405161008391906107d9565b60405180910390f35b6100a660048036038101906100a19190610820565b61016d565b6040516100b3919061090b565b60405180910390f35b6100d660048036038101906100d1919061076b565b6102be565b6040516100e5939291906109f4565b60405180910390f35b61010860048036038101906101039190610820565b610390565b6040516101159190610a32565b60405180910390f35b61013860048036038101906101339190610ab2565b6103a8565b005b60046020528060005260406000206000915054906101000a900473ffffffffffffffffffffffffffffffffffffffff1681565b60606000600560008473ffffffffffffffffffffffffffffffffffffffff1673ffffffffffffffffffffffffffffffffffffffff1681526020019081526020016000205467ffffffffffffffff8111156101ca576101c9610aff565b5b6040519080825280602002602001820160405280156101f85781602001602082028036833780820191505090505b5090506000805b6003805490508110156102b3578473ffffffffffffffffffffffffffffffffffffffff166004600083815260200190815260200160002060009054906101000a900473ffffffffffffffffffffffffffffffffffffffff1673ffffffffffffffffffffffffffffffffffffffff1614156102a0578083838061028090610b5d565b94508151811061029357610292610ba6565b5b6020026020010181815250505b80806102ab90610b5d565b9150506101ff565b508192505050919050565b600381815481106102ce57600080fd5b90600052602060002090600302016000915090508060000180546102f190610c04565b80601f016020809104026020016040519081016040528092919081815260200182805461031d90610c04565b801561036a5780601f1061033f5761010080835404028352916020019161036a565b820191906000526020600020905b81548152906001019060200180831161034d57829003601f168201915b5050505050908060010154908060020160009054906101000a900463ffffffff16905083565b60056020528060005260406000206000915090505481565b6000600560003373ffffffffffffffffffffffffffffffffffffffff1673ffffffffffffffffffffffffffffffffffffffff168152602001908152602001600020541461042a576040517f08c379a000000000000000000000000000000000000000000000000000000000815260040161042190610c82565b60405180910390fd5b6000610436838361048b565b905061048683838080601f016020809104026020016040519081016040528093929190818152602001838380828437600081840152601f19601f82011690508083019250505050505050826104e2565b505050565b600080838360405161049e929190610ce1565b604051809103902060001c90506000600154826104bb9190610d29565b90506064816104ca9190610d29565b816104d59190610d5a565b9050809250505092915050565b60036040518060600160405280848152602001838152602001600254426105099190610d8e565b63ffffffff1681525090806001815401808255809150506001900390600052602060002090600302016000909190919091506000820151816000019080519060200190610557929190610688565b506020820151816001015560408201518160020160006101000a81548163ffffffff021916908363ffffffff16021790555050506000600160038054905061059f9190610d5a565b9050336004600083815260200190815260200160002060006101000a81548173ffffffffffffffffffffffffffffffffffffffff021916908373ffffffffffffffffffffffffffffffffffffffff160217905550600560003373ffffffffffffffffffffffffffffffffffffffff1673ffffffffffffffffffffffffffffffffffffffff168152602001908152602001600020600081548092919061064390610b5d565b91905055507f2e946779390b27c50a2225bee0b9af13e0848034733330963e93cedb42487fd781848460405161067b93929190610de4565b60405180910390a1505050565b82805461069490610c04565b90600052602060002090601f0160209004810192826106b657600085556106fd565b82601f106106cf57805160ff19168380011785556106fd565b828001600101855582156106fd579182015b828111156106fc5782518255916020019190600101906106e1565b5b50905061070a919061070e565b5090565b5b8082111561072757600081600090555060010161070f565b5090565b600080fd5b600080fd5b6000819050919050565b61074881610735565b811461075357600080fd5b50565b6000813590506107658161073f565b92915050565b6000602082840312156107815761078061072b565b5b600061078f84828501610756565b91505092915050565b600073ffffffffffffffffffffffffffffffffffffffff82169050919050565b60006107c382610798565b9050919050565b6107d3816107b8565b82525050565b60006020820190506107ee60008301846107ca565b92915050565b6107fd816107b8565b811461080857600080fd5b50565b60008135905061081a816107f4565b92915050565b6000602082840312156108365761083561072b565b5b60006108448482850161080b565b91505092915050565b600081519050919050565b600082825260208201905092915050565b6000819050602082019050919050565b61088281610735565b82525050565b60006108948383610879565b60208301905092915050565b6000602082019050919050565b60006108b88261084d565b6108c28185610858565b93506108cd83610869565b8060005b838110156108fe5781516108e58882610888565b97506108f0836108a0565b9250506001810190506108d1565b5085935050505092915050565b6000602082019050818103600083015261092581846108ad565b905092915050565b600081519050919050565b600082825260208201905092915050565b60005b8381101561096757808201518184015260208101905061094c565b83811115610976576000848401525b50505050565b6000601f19601f8301169050919050565b60006109988261092d565b6109a28185610938565b93506109b2818560208601610949565b6109bb8161097c565b840191505092915050565b6109cf81610735565b82525050565b600063ffffffff82169050919050565b6109ee816109d5565b82525050565b60006060820190508181036000830152610a0e818661098d565b9050610a1d60208301856109c6565b610a2a60408301846109e5565b949350505050565b6000602082019050610a4760008301846109c6565b92915050565b600080fd5b600080fd5b600080fd5b60008083601f840112610a7257610a71610a4d565b5b8235905067ffffffffffffffff811115610a8f57610a8e610a52565b5b602083019150836001820283011115610aab57610aaa610a57565b5b9250929050565b60008060208385031215610ac957610ac861072b565b5b600083013567ffffffffffffffff811115610ae757610ae6610730565b5b610af385828601610a5c565b92509250509250929050565b7f4e487b7100000000000000000000000000000000000000000000000000000000600052604160045260246000fd5b7f4e487b7100000000000000000000000000000000000000000000000000000000600052601160045260246000fd5b6000610b6882610735565b91507fffffffffffffffffffffffffffffffffffffffffffffffffffffffffffffffff821415610b9b57610b9a610b2e565b5b600182019050919050565b7f4e487b7100000000000000000000000000000000000000000000000000000000600052603260045260246000fd5b7f4e487b7100000000000000000000000000000000000000000000000000000000600052602260045260246000fd5b60006002820490506001821680610c1c57607f821691505b60208210811415610c3057610c2f610bd5565b5b50919050565b7f412066756e67757320616c72656164792065786973742e000000000000000000600082015250565b6000610c6c601783610938565b9150610c7782610c36565b602082019050919050565b60006020820190508181036000830152610c9b81610c5f565b9050919050565b600081905092915050565b82818337600083830152505050565b6000610cc88385610ca2565b9350610cd5838584610cad565b82840190509392505050565b6000610cee828486610cbc565b91508190509392505050565b7f4e487b7100000000000000000000000000000000000000000000000000000000600052601260045260246000fd5b6000610d3482610735565b9150610d3f83610735565b925082610d4f57610d4e610cfa565b5b828206905092915050565b6000610d6582610735565b9150610d7083610735565b925082821015610d8357610d82610b2e565b5b828203905092915050565b6000610d9982610735565b9150610da483610735565b9250827fffffffffffffffffffffffffffffffffffffffffffffffffffffffffffffffff03821115610dd957610dd8610b2e565b5b828201905092915050565b6000606082019050610df960008301866109c6565b8181036020830152610e0b818561098d565b9050610e1a60408301846109c6565b94935050505056fea2646970667358221220278e885672f35ce7e62fa559216831cc240e4f0ed526696ac6f4220d00bae0c364736f6c634300080c0033",
					"opcodes": "PUSH1 0x80 PUSH1 0x40 MSTORE PUSH1 0xE PUSH1 0x0 SSTORE PUSH1 0x0 SLOAD PUSH1 0xA PUSH3 0x1A SWAP2 SWAP1 PUSH3 0x1C3 JUMP JUMPDEST PUSH1 0x1 SSTORE PUSH1 0x3C PUSH1 0x2 SSTORE CALLVALUE DUP1 ISZERO PUSH3 0x2F JUMPI PUSH1 0x0 DUP1 REVERT JUMPDEST POP PUSH3 0x214 JUMP JUMPDEST PUSH32 0x4E487B7100000000000000000000000000000000000000000000000000000000 PUSH1 0x0 MSTORE PUSH1 0x11 PUSH1 0x4 MSTORE PUSH1 0x24 PUSH1 0x0 REVERT JUMPDEST PUSH1 0x0 DUP2 PUSH1 0x1 SHR SWAP1 POP SWAP2 SWAP1 POP JUMP JUMPDEST PUSH1 0x0 DUP1 DUP3 SWAP2 POP DUP4 SWAP1 POP JUMPDEST PUSH1 0x1 DUP6 GT ISZERO PUSH3 0xC4 JUMPI DUP1 DUP7 DIV DUP2 GT ISZERO PUSH3 0x9C JUMPI PUSH3 0x9B PUSH3 0x36 JUMP JUMPDEST JUMPDEST PUSH1 0x1 DUP6 AND ISZERO PUSH3 0xAC JUMPI DUP1 DUP3 MUL SWAP2 POP JUMPDEST DUP1 DUP2 MUL SWAP1 POP PUSH3 0xBC DUP6 PUSH3 0x65 JUMP JUMPDEST SWAP5 POP PUSH3 0x7C JUMP JUMPDEST SWAP5 POP SWAP5 SWAP3 POP POP POP JUMP JUMPDEST PUSH1 0x0 DUP3 PUSH3 0xDF JUMPI PUSH1 0x1 SWAP1 POP PUSH3 0x1B2 JUMP JUMPDEST DUP2 PUSH3 0xEF JUMPI PUSH1 0x0 SWAP1 POP PUSH3 0x1B2 JUMP JUMPDEST DUP2 PUSH1 0x1 DUP2 EQ PUSH3 0x108 JUMPI PUSH1 0x2 DUP2 EQ PUSH3 0x113 JUMPI PUSH3 0x149 JUMP JUMPDEST PUSH1 0x1 SWAP2 POP POP PUSH3 0x1B2 JUMP JUMPDEST PUSH1 0xFF DUP5 GT ISZERO PUSH3 0x128 JUMPI PUSH3 0x127 PUSH3 0x36 JUMP JUMPDEST JUMPDEST DUP4 PUSH1 0x2 EXP SWAP2 POP DUP5 DUP3 GT ISZERO PUSH3 0x142 JUMPI PUSH3 0x141 PUSH3 0x36 JUMP JUMPDEST JUMPDEST POP PUSH3 0x1B2 JUMP JUMPDEST POP PUSH1 0x20 DUP4 LT PUSH2 0x133 DUP4 LT AND PUSH1 0x4E DUP5 LT PUSH1 0xB DUP5 LT AND OR ISZERO PUSH3 0x183 JUMPI DUP3 DUP3 EXP SWAP1 POP DUP4 DUP2 GT ISZERO PUSH3 0x17D JUMPI PUSH3 0x17C PUSH3 0x36 JUMP JUMPDEST JUMPDEST PUSH3 0x1B2 JUMP JUMPDEST PUSH3 0x192 DUP5 DUP5 DUP5 PUSH1 0x1 PUSH3 0x72 JUMP JUMPDEST SWAP3 POP SWAP1 POP DUP2 DUP5 DIV DUP2 GT ISZERO PUSH3 0x1AC JUMPI PUSH3 0x1AB PUSH3 0x36 JUMP JUMPDEST JUMPDEST DUP2 DUP2 MUL SWAP1 POP JUMPDEST SWAP4 SWAP3 POP POP POP JUMP JUMPDEST PUSH1 0x0 DUP2 SWAP1 POP SWAP2 SWAP1 POP JUMP JUMPDEST PUSH1 0x0 PUSH3 0x1D0 DUP3 PUSH3 0x1B9 JUMP JUMPDEST SWAP2 POP PUSH3 0x1DD DUP4 PUSH3 0x1B9 JUMP JUMPDEST SWAP3 POP PUSH3 0x20C PUSH32 0xFFFFFFFFFFFFFFFFFFFFFFFFFFFFFFFFFFFFFFFFFFFFFFFFFFFFFFFFFFFFFFFF DUP5 DUP5 PUSH3 0xCD JUMP JUMPDEST SWAP1 POP SWAP3 SWAP2 POP POP JUMP JUMPDEST PUSH2 0xE58 DUP1 PUSH3 0x224 PUSH1 0x0 CODECOPY PUSH1 0x0 RETURN INVALID PUSH1 0x80 PUSH1 0x40 MSTORE CALLVALUE DUP1 ISZERO PUSH2 0x10 JUMPI PUSH1 0x0 DUP1 REVERT JUMPDEST POP PUSH1 0x4 CALLDATASIZE LT PUSH2 0x57 JUMPI PUSH1 0x0 CALLDATALOAD PUSH1 0xE0 SHR DUP1 PUSH4 0xE17F883 EQ PUSH2 0x5C JUMPI DUP1 PUSH4 0x1E1694CB EQ PUSH2 0x8C JUMPI DUP1 PUSH4 0x6BDFCEF9 EQ PUSH2 0xBC JUMPI DUP1 PUSH4 0x703B3D38 EQ PUSH2 0xEE JUMPI DUP1 PUSH4 0xB082AB77 EQ PUSH2 0x11E JUMPI JUMPDEST PUSH1 0x0 DUP1 REVERT JUMPDEST PUSH2 0x76 PUSH1 0x4 DUP1 CALLDATASIZE SUB DUP2 ADD SWAP1 PUSH2 0x71 SWAP2 SWAP1 PUSH2 0x76B JUMP JUMPDEST PUSH2 0x13A JUMP JUMPDEST PUSH1 0x40 MLOAD PUSH2 0x83 SWAP2 SWAP1 PUSH2 0x7D9 JUMP JUMPDEST PUSH1 0x40 MLOAD DUP1 SWAP2 SUB SWAP1 RETURN JUMPDEST PUSH2 0xA6 PUSH1 0x4 DUP1 CALLDATASIZE SUB DUP2 ADD SWAP1 PUSH2 0xA1 SWAP2 SWAP1 PUSH2 0x820 JUMP JUMPDEST PUSH2 0x16D JUMP JUMPDEST PUSH1 0x40 MLOAD PUSH2 0xB3 SWAP2 SWAP1 PUSH2 0x90B JUMP JUMPDEST PUSH1 0x40 MLOAD DUP1 SWAP2 SUB SWAP1 RETURN JUMPDEST PUSH2 0xD6 PUSH1 0x4 DUP1 CALLDATASIZE SUB DUP2 ADD SWAP1 PUSH2 0xD1 SWAP2 SWAP1 PUSH2 0x76B JUMP JUMPDEST PUSH2 0x2BE JUMP JUMPDEST PUSH1 0x40 MLOAD PUSH2 0xE5 SWAP4 SWAP3 SWAP2 SWAP1 PUSH2 0x9F4 JUMP JUMPDEST PUSH1 0x40 MLOAD DUP1 SWAP2 SUB SWAP1 RETURN JUMPDEST PUSH2 0x108 PUSH1 0x4 DUP1 CALLDATASIZE SUB DUP2 ADD SWAP1 PUSH2 0x103 SWAP2 SWAP1 PUSH2 0x820 JUMP JUMPDEST PUSH2 0x390 JUMP JUMPDEST PUSH1 0x40 MLOAD PUSH2 0x115 SWAP2 SWAP1 PUSH2 0xA32 JUMP JUMPDEST PUSH1 0x40 MLOAD DUP1 SWAP2 SUB SWAP1 RETURN JUMPDEST PUSH2 0x138 PUSH1 0x4 DUP1 CALLDATASIZE SUB DUP2 ADD SWAP1 PUSH2 0x133 SWAP2 SWAP1 PUSH2 0xAB2 JUMP JUMPDEST PUSH2 0x3A8 JUMP JUMPDEST STOP JUMPDEST PUSH1 0x4 PUSH1 0x20 MSTORE DUP1 PUSH1 0x0 MSTORE PUSH1 0x40 PUSH1 0x0 KECCAK256 PUSH1 0x0 SWAP2 POP SLOAD SWAP1 PUSH2 0x100 EXP SWAP1 DIV PUSH20 0xFFFFFFFFFFFFFFFFFFFFFFFFFFFFFFFFFFFFFFFF AND DUP2 JUMP JUMPDEST PUSH1 0x60 PUSH1 0x0 PUSH1 0x5 PUSH1 0x0 DUP5 PUSH20 0xFFFFFFFFFFFFFFFFFFFFFFFFFFFFFFFFFFFFFFFF AND PUSH20 0xFFFFFFFFFFFFFFFFFFFFFFFFFFFFFFFFFFFFFFFF AND DUP2 MSTORE PUSH1 0x20 ADD SWAP1 DUP2 MSTORE PUSH1 0x20 ADD PUSH1 0x0 KECCAK256 SLOAD PUSH8 0xFFFFFFFFFFFFFFFF DUP2 GT ISZERO PUSH2 0x1CA JUMPI PUSH2 0x1C9 PUSH2 0xAFF JUMP JUMPDEST JUMPDEST PUSH1 0x40 MLOAD SWAP1 DUP1 DUP3 MSTORE DUP1 PUSH1 0x20 MUL PUSH1 0x20 ADD DUP3 ADD PUSH1 0x40 MSTORE DUP1 ISZERO PUSH2 0x1F8 JUMPI DUP2 PUSH1 0x20 ADD PUSH1 0x20 DUP3 MUL DUP1 CALLDATASIZE DUP4 CALLDATACOPY DUP1 DUP3 ADD SWAP2 POP POP SWAP1 POP JUMPDEST POP SWAP1 POP PUSH1 0x0 DUP1 JUMPDEST PUSH1 0x3 DUP1 SLOAD SWAP1 POP DUP2 LT ISZERO PUSH2 0x2B3 JUMPI DUP5 PUSH20 0xFFFFFFFFFFFFFFFFFFFFFFFFFFFFFFFFFFFFFFFF AND PUSH1 0x4 PUSH1 0x0 DUP4 DUP2 MSTORE PUSH1 0x20 ADD SWAP1 DUP2 MSTORE PUSH1 0x20 ADD PUSH1 0x0 KECCAK256 PUSH1 0x0 SWAP1 SLOAD SWAP1 PUSH2 0x100 EXP SWAP1 DIV PUSH20 0xFFFFFFFFFFFFFFFFFFFFFFFFFFFFFFFFFFFFFFFF AND PUSH20 0xFFFFFFFFFFFFFFFFFFFFFFFFFFFFFFFFFFFFFFFF AND EQ ISZERO PUSH2 0x2A0 JUMPI DUP1 DUP4 DUP4 DUP1 PUSH2 0x280 SWAP1 PUSH2 0xB5D JUMP JUMPDEST SWAP5 POP DUP2 MLOAD DUP2 LT PUSH2 0x293 JUMPI PUSH2 0x292 PUSH2 0xBA6 JUMP JUMPDEST JUMPDEST PUSH1 0x20 MUL PUSH1 0x20 ADD ADD DUP2 DUP2 MSTORE POP POP JUMPDEST DUP1 DUP1 PUSH2 0x2AB SWAP1 PUSH2 0xB5D JUMP JUMPDEST SWAP2 POP POP PUSH2 0x1FF JUMP JUMPDEST POP DUP2 SWAP3 POP POP POP SWAP2 SWAP1 POP JUMP JUMPDEST PUSH1 0x3 DUP2 DUP2 SLOAD DUP2 LT PUSH2 0x2CE JUMPI PUSH1 0x0 DUP1 REVERT JUMPDEST SWAP1 PUSH1 0x0 MSTORE PUSH1 0x20 PUSH1 0x0 KECCAK256 SWAP1 PUSH1 0x3 MUL ADD PUSH1 0x0 SWAP2 POP SWAP1 POP DUP1 PUSH1 0x0 ADD DUP1 SLOAD PUSH2 0x2F1 SWAP1 PUSH2 0xC04 JUMP JUMPDEST DUP1 PUSH1 0x1F ADD PUSH1 0x20 DUP1 SWAP2 DIV MUL PUSH1 0x20 ADD PUSH1 0x40 MLOAD SWAP1 DUP2 ADD PUSH1 0x40 MSTORE DUP1 SWAP3 SWAP2 SWAP1 DUP2 DUP2 MSTORE PUSH1 0x20 ADD DUP3 DUP1 SLOAD PUSH2 0x31D SWAP1 PUSH2 0xC04 JUMP JUMPDEST DUP1 ISZERO PUSH2 0x36A JUMPI DUP1 PUSH1 0x1F LT PUSH2 0x33F JUMPI PUSH2 0x100 DUP1 DUP4 SLOAD DIV MUL DUP4 MSTORE SWAP2 PUSH1 0x20 ADD SWAP2 PUSH2 0x36A JUMP JUMPDEST DUP3 ADD SWAP2 SWAP1 PUSH1 0x0 MSTORE PUSH1 0x20 PUSH1 0x0 KECCAK256 SWAP1 JUMPDEST DUP2 SLOAD DUP2 MSTORE SWAP1 PUSH1 0x1 ADD SWAP1 PUSH1 0x20 ADD DUP1 DUP4 GT PUSH2 0x34D JUMPI DUP3 SWAP1 SUB PUSH1 0x1F AND DUP3 ADD SWAP2 JUMPDEST POP POP POP POP POP SWAP1 DUP1 PUSH1 0x1 ADD SLOAD SWAP1 DUP1 PUSH1 0x2 ADD PUSH1 0x0 SWAP1 SLOAD SWAP1 PUSH2 0x100 EXP SWAP1 DIV PUSH4 0xFFFFFFFF AND SWAP1 POP DUP4 JUMP JUMPDEST PUSH1 0x5 PUSH1 0x20 MSTORE DUP1 PUSH1 0x0 MSTORE PUSH1 0x40 PUSH1 0x0 KECCAK256 PUSH1 0x0 SWAP2 POP SWAP1 POP SLOAD DUP2 JUMP JUMPDEST PUSH1 0x0 PUSH1 0x5 PUSH1 0x0 CALLER PUSH20 0xFFFFFFFFFFFFFFFFFFFFFFFFFFFFFFFFFFFFFFFF AND PUSH20 0xFFFFFFFFFFFFFFFFFFFFFFFFFFFFFFFFFFFFFFFF AND DUP2 MSTORE PUSH1 0x20 ADD SWAP1 DUP2 MSTORE PUSH1 0x20 ADD PUSH1 0x0 KECCAK256 SLOAD EQ PUSH2 0x42A JUMPI PUSH1 0x40 MLOAD PUSH32 0x8C379A000000000000000000000000000000000000000000000000000000000 DUP2 MSTORE PUSH1 0x4 ADD PUSH2 0x421 SWAP1 PUSH2 0xC82 JUMP JUMPDEST PUSH1 0x40 MLOAD DUP1 SWAP2 SUB SWAP1 REVERT JUMPDEST PUSH1 0x0 PUSH2 0x436 DUP4 DUP4 PUSH2 0x48B JUMP JUMPDEST SWAP1 POP PUSH2 0x486 DUP4 DUP4 DUP1 DUP1 PUSH1 0x1F ADD PUSH1 0x20 DUP1 SWAP2 DIV MUL PUSH1 0x20 ADD PUSH1 0x40 MLOAD SWAP1 DUP2 ADD PUSH1 0x40 MSTORE DUP1 SWAP4 SWAP3 SWAP2 SWAP1 DUP2 DUP2 MSTORE PUSH1 0x20 ADD DUP4 DUP4 DUP1 DUP3 DUP5 CALLDATACOPY PUSH1 0x0 DUP2 DUP5 ADD MSTORE PUSH1 0x1F NOT PUSH1 0x1F DUP3 ADD AND SWAP1 POP DUP1 DUP4 ADD SWAP3 POP POP POP POP POP POP POP DUP3 PUSH2 0x4E2 JUMP JUMPDEST POP POP POP JUMP JUMPDEST PUSH1 0x0 DUP1 DUP4 DUP4 PUSH1 0x40 MLOAD PUSH2 0x49E SWAP3 SWAP2 SWAP1 PUSH2 0xCE1 JUMP JUMPDEST PUSH1 0x40 MLOAD DUP1 SWAP2 SUB SWAP1 KECCAK256 PUSH1 0x0 SHR SWAP1 POP PUSH1 0x0 PUSH1 0x1 SLOAD DUP3 PUSH2 0x4BB SWAP2 SWAP1 PUSH2 0xD29 JUMP JUMPDEST SWAP1 POP PUSH1 0x64 DUP2 PUSH2 0x4CA SWAP2 SWAP1 PUSH2 0xD29 JUMP JUMPDEST DUP2 PUSH2 0x4D5 SWAP2 SWAP1 PUSH2 0xD5A JUMP JUMPDEST SWAP1 POP DUP1 SWAP3 POP POP POP SWAP3 SWAP2 POP POP JUMP JUMPDEST PUSH1 0x3 PUSH1 0x40 MLOAD DUP1 PUSH1 0x60 ADD PUSH1 0x40 MSTORE DUP1 DUP5 DUP2 MSTORE PUSH1 0x20 ADD DUP4 DUP2 MSTORE PUSH1 0x20 ADD PUSH1 0x2 SLOAD TIMESTAMP PUSH2 0x509 SWAP2 SWAP1 PUSH2 0xD8E JUMP JUMPDEST PUSH4 0xFFFFFFFF AND DUP2 MSTORE POP SWAP1 DUP1 PUSH1 0x1 DUP2 SLOAD ADD DUP1 DUP3 SSTORE DUP1 SWAP2 POP POP PUSH1 0x1 SWAP1 SUB SWAP1 PUSH1 0x0 MSTORE PUSH1 0x20 PUSH1 0x0 KECCAK256 SWAP1 PUSH1 0x3 MUL ADD PUSH1 0x0 SWAP1 SWAP2 SWAP1 SWAP2 SWAP1 SWAP2 POP PUSH1 0x0 DUP3 ADD MLOAD DUP2 PUSH1 0x0 ADD SWAP1 DUP1 MLOAD SWAP1 PUSH1 0x20 ADD SWAP1 PUSH2 0x557 SWAP3 SWAP2 SWAP1 PUSH2 0x688 JUMP JUMPDEST POP PUSH1 0x20 DUP3 ADD MLOAD DUP2 PUSH1 0x1 ADD SSTORE PUSH1 0x40 DUP3 ADD MLOAD DUP2 PUSH1 0x2 ADD PUSH1 0x0 PUSH2 0x100 EXP DUP2 SLOAD DUP2 PUSH4 0xFFFFFFFF MUL NOT AND SWAP1 DUP4 PUSH4 0xFFFFFFFF AND MUL OR SWAP1 SSTORE POP POP POP PUSH1 0x0 PUSH1 0x1 PUSH1 0x3 DUP1 SLOAD SWAP1 POP PUSH2 0x59F SWAP2 SWAP1 PUSH2 0xD5A JUMP JUMPDEST SWAP1 POP CALLER PUSH1 0x4 PUSH1 0x0 DUP4 DUP2 MSTORE PUSH1 0x20 ADD SWAP1 DUP2 MSTORE PUSH1 0x20 ADD PUSH1 0x0 KECCAK256 PUSH1 0x0 PUSH2 0x100 EXP DUP2 SLOAD DUP2 PUSH20 0xFFFFFFFFFFFFFFFFFFFFFFFFFFFFFFFFFFFFFFFF MUL NOT AND SWAP1 DUP4 PUSH20 0xFFFFFFFFFFFFFFFFFFFFFFFFFFFFFFFFFFFFFFFF AND MUL OR SWAP1 SSTORE POP PUSH1 0x5 PUSH1 0x0 CALLER PUSH20 0xFFFFFFFFFFFFFFFFFFFFFFFFFFFFFFFFFFFFFFFF AND PUSH20 0xFFFFFFFFFFFFFFFFFFFFFFFFFFFFFFFFFFFFFFFF AND DUP2 MSTORE PUSH1 0x20 ADD SWAP1 DUP2 MSTORE PUSH1 0x20 ADD PUSH1 0x0 KECCAK256 PUSH1 0x0 DUP2 SLOAD DUP1 SWAP3 SWAP2 SWAP1 PUSH2 0x643 SWAP1 PUSH2 0xB5D JUMP JUMPDEST SWAP2 SWAP1 POP SSTORE POP PUSH32 0x2E946779390B27C50A2225BEE0B9AF13E0848034733330963E93CEDB42487FD7 DUP2 DUP5 DUP5 PUSH1 0x40 MLOAD PUSH2 0x67B SWAP4 SWAP3 SWAP2 SWAP1 PUSH2 0xDE4 JUMP JUMPDEST PUSH1 0x40 MLOAD DUP1 SWAP2 SUB SWAP1 LOG1 POP POP POP JUMP JUMPDEST DUP3 DUP1 SLOAD PUSH2 0x694 SWAP1 PUSH2 0xC04 JUMP JUMPDEST SWAP1 PUSH1 0x0 MSTORE PUSH1 0x20 PUSH1 0x0 KECCAK256 SWAP1 PUSH1 0x1F ADD PUSH1 0x20 SWAP1 DIV DUP2 ADD SWAP3 DUP3 PUSH2 0x6B6 JUMPI PUSH1 0x0 DUP6 SSTORE PUSH2 0x6FD JUMP JUMPDEST DUP3 PUSH1 0x1F LT PUSH2 0x6CF JUMPI DUP1 MLOAD PUSH1 0xFF NOT AND DUP4 DUP1 ADD OR DUP6 SSTORE PUSH2 0x6FD JUMP JUMPDEST DUP3 DUP1 ADD PUSH1 0x1 ADD DUP6 SSTORE DUP3 ISZERO PUSH2 0x6FD JUMPI SWAP2 DUP3 ADD JUMPDEST DUP3 DUP2 GT ISZERO PUSH2 0x6FC JUMPI DUP3 MLOAD DUP3 SSTORE SWAP2 PUSH1 0x20 ADD SWAP2 SWAP1 PUSH1 0x1 ADD SWAP1 PUSH2 0x6E1 JUMP JUMPDEST JUMPDEST POP SWAP1 POP PUSH2 0x70A SWAP2 SWAP1 PUSH2 0x70E JUMP JUMPDEST POP SWAP1 JUMP JUMPDEST JUMPDEST DUP1 DUP3 GT ISZERO PUSH2 0x727 JUMPI PUSH1 0x0 DUP2 PUSH1 0x0 SWAP1 SSTORE POP PUSH1 0x1 ADD PUSH2 0x70F JUMP JUMPDEST POP SWAP1 JUMP JUMPDEST PUSH1 0x0 DUP1 REVERT JUMPDEST PUSH1 0x0 DUP1 REVERT JUMPDEST PUSH1 0x0 DUP2 SWAP1 POP SWAP2 SWAP1 POP JUMP JUMPDEST PUSH2 0x748 DUP2 PUSH2 0x735 JUMP JUMPDEST DUP2 EQ PUSH2 0x753 JUMPI PUSH1 0x0 DUP1 REVERT JUMPDEST POP JUMP JUMPDEST PUSH1 0x0 DUP2 CALLDATALOAD SWAP1 POP PUSH2 0x765 DUP2 PUSH2 0x73F JUMP JUMPDEST SWAP3 SWAP2 POP POP JUMP JUMPDEST PUSH1 0x0 PUSH1 0x20 DUP3 DUP5 SUB SLT ISZERO PUSH2 0x781 JUMPI PUSH2 0x780 PUSH2 0x72B JUMP JUMPDEST JUMPDEST PUSH1 0x0 PUSH2 0x78F DUP5 DUP3 DUP6 ADD PUSH2 0x756 JUMP JUMPDEST SWAP2 POP POP SWAP3 SWAP2 POP POP JUMP JUMPDEST PUSH1 0x0 PUSH20 0xFFFFFFFFFFFFFFFFFFFFFFFFFFFFFFFFFFFFFFFF DUP3 AND SWAP1 POP SWAP2 SWAP1 POP JUMP JUMPDEST PUSH1 0x0 PUSH2 0x7C3 DUP3 PUSH2 0x798 JUMP JUMPDEST SWAP1 POP SWAP2 SWAP1 POP JUMP JUMPDEST PUSH2 0x7D3 DUP2 PUSH2 0x7B8 JUMP JUMPDEST DUP3 MSTORE POP POP JUMP JUMPDEST PUSH1 0x0 PUSH1 0x20 DUP3 ADD SWAP1 POP PUSH2 0x7EE PUSH1 0x0 DUP4 ADD DUP5 PUSH2 0x7CA JUMP JUMPDEST SWAP3 SWAP2 POP POP JUMP JUMPDEST PUSH2 0x7FD DUP2 PUSH2 0x7B8 JUMP JUMPDEST DUP2 EQ PUSH2 0x808 JUMPI PUSH1 0x0 DUP1 REVERT JUMPDEST POP JUMP JUMPDEST PUSH1 0x0 DUP2 CALLDATALOAD SWAP1 POP PUSH2 0x81A DUP2 PUSH2 0x7F4 JUMP JUMPDEST SWAP3 SWAP2 POP POP JUMP JUMPDEST PUSH1 0x0 PUSH1 0x20 DUP3 DUP5 SUB SLT ISZERO PUSH2 0x836 JUMPI PUSH2 0x835 PUSH2 0x72B JUMP JUMPDEST JUMPDEST PUSH1 0x0 PUSH2 0x844 DUP5 DUP3 DUP6 ADD PUSH2 0x80B JUMP JUMPDEST SWAP2 POP POP SWAP3 SWAP2 POP POP JUMP JUMPDEST PUSH1 0x0 DUP2 MLOAD SWAP1 POP SWAP2 SWAP1 POP JUMP JUMPDEST PUSH1 0x0 DUP3 DUP3 MSTORE PUSH1 0x20 DUP3 ADD SWAP1 POP SWAP3 SWAP2 POP POP JUMP JUMPDEST PUSH1 0x0 DUP2 SWAP1 POP PUSH1 0x20 DUP3 ADD SWAP1 POP SWAP2 SWAP1 POP JUMP JUMPDEST PUSH2 0x882 DUP2 PUSH2 0x735 JUMP JUMPDEST DUP3 MSTORE POP POP JUMP JUMPDEST PUSH1 0x0 PUSH2 0x894 DUP4 DUP4 PUSH2 0x879 JUMP JUMPDEST PUSH1 0x20 DUP4 ADD SWAP1 POP SWAP3 SWAP2 POP POP JUMP JUMPDEST PUSH1 0x0 PUSH1 0x20 DUP3 ADD SWAP1 POP SWAP2 SWAP1 POP JUMP JUMPDEST PUSH1 0x0 PUSH2 0x8B8 DUP3 PUSH2 0x84D JUMP JUMPDEST PUSH2 0x8C2 DUP2 DUP6 PUSH2 0x858 JUMP JUMPDEST SWAP4 POP PUSH2 0x8CD DUP4 PUSH2 0x869 JUMP JUMPDEST DUP1 PUSH1 0x0 JUMPDEST DUP4 DUP2 LT ISZERO PUSH2 0x8FE JUMPI DUP2 MLOAD PUSH2 0x8E5 DUP9 DUP3 PUSH2 0x888 JUMP JUMPDEST SWAP8 POP PUSH2 0x8F0 DUP4 PUSH2 0x8A0 JUMP JUMPDEST SWAP3 POP POP PUSH1 0x1 DUP2 ADD SWAP1 POP PUSH2 0x8D1 JUMP JUMPDEST POP DUP6 SWAP4 POP POP POP POP SWAP3 SWAP2 POP POP JUMP JUMPDEST PUSH1 0x0 PUSH1 0x20 DUP3 ADD SWAP1 POP DUP2 DUP2 SUB PUSH1 0x0 DUP4 ADD MSTORE PUSH2 0x925 DUP2 DUP5 PUSH2 0x8AD JUMP JUMPDEST SWAP1 POP SWAP3 SWAP2 POP POP JUMP JUMPDEST PUSH1 0x0 DUP2 MLOAD SWAP1 POP SWAP2 SWAP1 POP JUMP JUMPDEST PUSH1 0x0 DUP3 DUP3 MSTORE PUSH1 0x20 DUP3 ADD SWAP1 POP SWAP3 SWAP2 POP POP JUMP JUMPDEST PUSH1 0x0 JUMPDEST DUP4 DUP2 LT ISZERO PUSH2 0x967 JUMPI DUP1 DUP3 ADD MLOAD DUP2 DUP5 ADD MSTORE PUSH1 0x20 DUP2 ADD SWAP1 POP PUSH2 0x94C JUMP JUMPDEST DUP4 DUP2 GT ISZERO PUSH2 0x976 JUMPI PUSH1 0x0 DUP5 DUP5 ADD MSTORE JUMPDEST POP POP POP POP JUMP JUMPDEST PUSH1 0x0 PUSH1 0x1F NOT PUSH1 0x1F DUP4 ADD AND SWAP1 POP SWAP2 SWAP1 POP JUMP JUMPDEST PUSH1 0x0 PUSH2 0x998 DUP3 PUSH2 0x92D JUMP JUMPDEST PUSH2 0x9A2 DUP2 DUP6 PUSH2 0x938 JUMP JUMPDEST SWAP4 POP PUSH2 0x9B2 DUP2 DUP6 PUSH1 0x20 DUP7 ADD PUSH2 0x949 JUMP JUMPDEST PUSH2 0x9BB DUP2 PUSH2 0x97C JUMP JUMPDEST DUP5 ADD SWAP2 POP POP SWAP3 SWAP2 POP POP JUMP JUMPDEST PUSH2 0x9CF DUP2 PUSH2 0x735 JUMP JUMPDEST DUP3 MSTORE POP POP JUMP JUMPDEST PUSH1 0x0 PUSH4 0xFFFFFFFF DUP3 AND SWAP1 POP SWAP2 SWAP1 POP JUMP JUMPDEST PUSH2 0x9EE DUP2 PUSH2 0x9D5 JUMP JUMPDEST DUP3 MSTORE POP POP JUMP JUMPDEST PUSH1 0x0 PUSH1 0x60 DUP3 ADD SWAP1 POP DUP2 DUP2 SUB PUSH1 0x0 DUP4 ADD MSTORE PUSH2 0xA0E DUP2 DUP7 PUSH2 0x98D JUMP JUMPDEST SWAP1 POP PUSH2 0xA1D PUSH1 0x20 DUP4 ADD DUP6 PUSH2 0x9C6 JUMP JUMPDEST PUSH2 0xA2A PUSH1 0x40 DUP4 ADD DUP5 PUSH2 0x9E5 JUMP JUMPDEST SWAP5 SWAP4 POP POP POP POP JUMP JUMPDEST PUSH1 0x0 PUSH1 0x20 DUP3 ADD SWAP1 POP PUSH2 0xA47 PUSH1 0x0 DUP4 ADD DUP5 PUSH2 0x9C6 JUMP JUMPDEST SWAP3 SWAP2 POP POP JUMP JUMPDEST PUSH1 0x0 DUP1 REVERT JUMPDEST PUSH1 0x0 DUP1 REVERT JUMPDEST PUSH1 0x0 DUP1 REVERT JUMPDEST PUSH1 0x0 DUP1 DUP4 PUSH1 0x1F DUP5 ADD SLT PUSH2 0xA72 JUMPI PUSH2 0xA71 PUSH2 0xA4D JUMP JUMPDEST JUMPDEST DUP3 CALLDATALOAD SWAP1 POP PUSH8 0xFFFFFFFFFFFFFFFF DUP2 GT ISZERO PUSH2 0xA8F JUMPI PUSH2 0xA8E PUSH2 0xA52 JUMP JUMPDEST JUMPDEST PUSH1 0x20 DUP4 ADD SWAP2 POP DUP4 PUSH1 0x1 DUP3 MUL DUP4 ADD GT ISZERO PUSH2 0xAAB JUMPI PUSH2 0xAAA PUSH2 0xA57 JUMP JUMPDEST JUMPDEST SWAP3 POP SWAP3 SWAP1 POP JUMP JUMPDEST PUSH1 0x0 DUP1 PUSH1 0x20 DUP4 DUP6 SUB SLT ISZERO PUSH2 0xAC9 JUMPI PUSH2 0xAC8 PUSH2 0x72B JUMP JUMPDEST JUMPDEST PUSH1 0x0 DUP4 ADD CALLDATALOAD PUSH8 0xFFFFFFFFFFFFFFFF DUP2 GT ISZERO PUSH2 0xAE7 JUMPI PUSH2 0xAE6 PUSH2 0x730 JUMP JUMPDEST JUMPDEST PUSH2 0xAF3 DUP6 DUP3 DUP7 ADD PUSH2 0xA5C JUMP JUMPDEST SWAP3 POP SWAP3 POP POP SWAP3 POP SWAP3 SWAP1 POP JUMP JUMPDEST PUSH32 0x4E487B7100000000000000000000000000000000000000000000000000000000 PUSH1 0x0 MSTORE PUSH1 0x41 PUSH1 0x4 MSTORE PUSH1 0x24 PUSH1 0x0 REVERT JUMPDEST PUSH32 0x4E487B7100000000000000000000000000000000000000000000000000000000 PUSH1 0x0 MSTORE PUSH1 0x11 PUSH1 0x4 MSTORE PUSH1 0x24 PUSH1 0x0 REVERT JUMPDEST PUSH1 0x0 PUSH2 0xB68 DUP3 PUSH2 0x735 JUMP JUMPDEST SWAP2 POP PUSH32 0xFFFFFFFFFFFFFFFFFFFFFFFFFFFFFFFFFFFFFFFFFFFFFFFFFFFFFFFFFFFFFFFF DUP3 EQ ISZERO PUSH2 0xB9B JUMPI PUSH2 0xB9A PUSH2 0xB2E JUMP JUMPDEST JUMPDEST PUSH1 0x1 DUP3 ADD SWAP1 POP SWAP2 SWAP1 POP JUMP JUMPDEST PUSH32 0x4E487B7100000000000000000000000000000000000000000000000000000000 PUSH1 0x0 MSTORE PUSH1 0x32 PUSH1 0x4 MSTORE PUSH1 0x24 PUSH1 0x0 REVERT JUMPDEST PUSH32 0x4E487B7100000000000000000000000000000000000000000000000000000000 PUSH1 0x0 MSTORE PUSH1 0x22 PUSH1 0x4 MSTORE PUSH1 0x24 PUSH1 0x0 REVERT JUMPDEST PUSH1 0x0 PUSH1 0x2 DUP3 DIV SWAP1 POP PUSH1 0x1 DUP3 AND DUP1 PUSH2 0xC1C JUMPI PUSH1 0x7F DUP3 AND SWAP2 POP JUMPDEST PUSH1 0x20 DUP3 LT DUP2 EQ ISZERO PUSH2 0xC30 JUMPI PUSH2 0xC2F PUSH2 0xBD5 JUMP JUMPDEST JUMPDEST POP SWAP2 SWAP1 POP JUMP JUMPDEST PUSH32 0x412066756E67757320616C72656164792065786973742E000000000000000000 PUSH1 0x0 DUP3 ADD MSTORE POP JUMP JUMPDEST PUSH1 0x0 PUSH2 0xC6C PUSH1 0x17 DUP4 PUSH2 0x938 JUMP JUMPDEST SWAP2 POP PUSH2 0xC77 DUP3 PUSH2 0xC36 JUMP JUMPDEST PUSH1 0x20 DUP3 ADD SWAP1 POP SWAP2 SWAP1 POP JUMP JUMPDEST PUSH1 0x0 PUSH1 0x20 DUP3 ADD SWAP1 POP DUP2 DUP2 SUB PUSH1 0x0 DUP4 ADD MSTORE PUSH2 0xC9B DUP2 PUSH2 0xC5F JUMP JUMPDEST SWAP1 POP SWAP2 SWAP1 POP JUMP JUMPDEST PUSH1 0x0 DUP2 SWAP1 POP SWAP3 SWAP2 POP POP JUMP JUMPDEST DUP3 DUP2 DUP4 CALLDATACOPY PUSH1 0x0 DUP4 DUP4 ADD MSTORE POP POP POP JUMP JUMPDEST PUSH1 0x0 PUSH2 0xCC8 DUP4 DUP6 PUSH2 0xCA2 JUMP JUMPDEST SWAP4 POP PUSH2 0xCD5 DUP4 DUP6 DUP5 PUSH2 0xCAD JUMP JUMPDEST DUP3 DUP5 ADD SWAP1 POP SWAP4 SWAP3 POP POP POP JUMP JUMPDEST PUSH1 0x0 PUSH2 0xCEE DUP3 DUP5 DUP7 PUSH2 0xCBC JUMP JUMPDEST SWAP2 POP DUP2 SWAP1 POP SWAP4 SWAP3 POP POP POP JUMP JUMPDEST PUSH32 0x4E487B7100000000000000000000000000000000000000000000000000000000 PUSH1 0x0 MSTORE PUSH1 0x12 PUSH1 0x4 MSTORE PUSH1 0x24 PUSH1 0x0 REVERT JUMPDEST PUSH1 0x0 PUSH2 0xD34 DUP3 PUSH2 0x735 JUMP JUMPDEST SWAP2 POP PUSH2 0xD3F DUP4 PUSH2 0x735 JUMP JUMPDEST SWAP3 POP DUP3 PUSH2 0xD4F JUMPI PUSH2 0xD4E PUSH2 0xCFA JUMP JUMPDEST JUMPDEST DUP3 DUP3 MOD SWAP1 POP SWAP3 SWAP2 POP POP JUMP JUMPDEST PUSH1 0x0 PUSH2 0xD65 DUP3 PUSH2 0x735 JUMP JUMPDEST SWAP2 POP PUSH2 0xD70 DUP4 PUSH2 0x735 JUMP JUMPDEST SWAP3 POP DUP3 DUP3 LT ISZERO PUSH2 0xD83 JUMPI PUSH2 0xD82 PUSH2 0xB2E JUMP JUMPDEST JUMPDEST DUP3 DUP3 SUB SWAP1 POP SWAP3 SWAP2 POP POP JUMP JUMPDEST PUSH1 0x0 PUSH2 0xD99 DUP3 PUSH2 0x735 JUMP JUMPDEST SWAP2 POP PUSH2 0xDA4 DUP4 PUSH2 0x735 JUMP JUMPDEST SWAP3 POP DUP3 PUSH32 0xFFFFFFFFFFFFFFFFFFFFFFFFFFFFFFFFFFFFFFFFFFFFFFFFFFFFFFFFFFFFFFFF SUB DUP3 GT ISZERO PUSH2 0xDD9 JUMPI PUSH2 0xDD8 PUSH2 0xB2E JUMP JUMPDEST JUMPDEST DUP3 DUP3 ADD SWAP1 POP SWAP3 SWAP2 POP POP JUMP JUMPDEST PUSH1 0x0 PUSH1 0x60 DUP3 ADD SWAP1 POP PUSH2 0xDF9 PUSH1 0x0 DUP4 ADD DUP7 PUSH2 0x9C6 JUMP JUMPDEST DUP2 DUP2 SUB PUSH1 0x20 DUP4 ADD MSTORE PUSH2 0xE0B DUP2 DUP6 PUSH2 0x98D JUMP JUMPDEST SWAP1 POP PUSH2 0xE1A PUSH1 0x40 DUP4 ADD DUP5 PUSH2 0x9C6 JUMP JUMPDEST SWAP5 SWAP4 POP POP POP POP JUMP INVALID LOG2 PUSH5 0x6970667358 0x22 SLT KECCAK256 0x27 DUP15 DUP9 JUMP PUSH19 0xF35CE7E62FA559216831CC240E4F0ED526696A 0xC6 DELEGATECALL 0x22 0xD STOP 0xBA 0xE0 0xC3 PUSH5 0x736F6C6343 STOP ADDMOD 0xC STOP CALLER "
				},
				"gasEstimates": {
					"creation": {
						"codeDepositCost": "734400",
						"executionCost": "infinite",
						"totalCost": "infinite"
					},
					"external": {
						"createFungus(string)": "infinite",
						"fungi(uint256)": "infinite",
						"fungusToOwner(uint256)": "2817",
						"getFungiByOwner(address)": "infinite",
						"ownerFungusCount(address)": "2858"
					},
					"internal": {
						"_createFungus(string memory,uint256)": "infinite",
						"_generateRandomData(string calldata)": "infinite"
					}
				},
				"methodIdentifiers": {
					"createFungus(string)": "b082ab77",
					"fungi(uint256)": "6bdfcef9",
					"fungusToOwner(uint256)": "0e17f883",
					"getFungiByOwner(address)": "1e1694cb",
					"ownerFungusCount(address)": "703b3d38"
				}
			},
			"storageLayout": {
				"storage": [
					{
						"astId": 140,
						"contract": "contracts/FungusFactory.sol:FungusFactory",
						"label": "dnaDigits",
						"offset": 0,
						"slot": "0",
						"type": "t_uint256"
					},
					{
						"astId": 145,
						"contract": "contracts/FungusFactory.sol:FungusFactory",
						"label": "dnaModulus",
						"offset": 0,
						"slot": "1",
						"type": "t_uint256"
					},
					{
						"astId": 148,
						"contract": "contracts/FungusFactory.sol:FungusFactory",
						"label": "cooldownTime",
						"offset": 0,
						"slot": "2",
						"type": "t_uint256"
					},
					{
						"astId": 159,
						"contract": "contracts/FungusFactory.sol:FungusFactory",
						"label": "fungi",
						"offset": 0,
						"slot": "3",
						"type": "t_array(t_struct(Fungus)155_storage)dyn_storage"
					},
					{
						"astId": 163,
						"contract": "contracts/FungusFactory.sol:FungusFactory",
						"label": "fungusToOwner",
						"offset": 0,
						"slot": "4",
						"type": "t_mapping(t_uint256,t_address)"
					},
					{
						"astId": 167,
						"contract": "contracts/FungusFactory.sol:FungusFactory",
						"label": "ownerFungusCount",
						"offset": 0,
						"slot": "5",
						"type": "t_mapping(t_address,t_uint256)"
					}
				],
				"types": {
					"t_address": {
						"encoding": "inplace",
						"label": "address",
						"numberOfBytes": "20"
					},
					"t_array(t_struct(Fungus)155_storage)dyn_storage": {
						"base": "t_struct(Fungus)155_storage",
						"encoding": "dynamic_array",
						"label": "struct FungusFactory.Fungus[]",
						"numberOfBytes": "32"
					},
					"t_mapping(t_address,t_uint256)": {
						"encoding": "mapping",
						"key": "t_address",
						"label": "mapping(address => uint256)",
						"numberOfBytes": "32",
						"value": "t_uint256"
					},
					"t_mapping(t_uint256,t_address)": {
						"encoding": "mapping",
						"key": "t_uint256",
						"label": "mapping(uint256 => address)",
						"numberOfBytes": "32",
						"value": "t_address"
					},
					"t_string_storage": {
						"encoding": "bytes",
						"label": "string",
						"numberOfBytes": "32"
					},
					"t_struct(Fungus)155_storage": {
						"encoding": "inplace",
						"label": "struct FungusFactory.Fungus",
						"members": [
							{
								"astId": 150,
								"contract": "contracts/FungusFactory.sol:FungusFactory",
								"label": "name",
								"offset": 0,
								"slot": "0",
								"type": "t_string_storage"
							},
							{
								"astId": 152,
								"contract": "contracts/FungusFactory.sol:FungusFactory",
								"label": "dna",
								"offset": 0,
								"slot": "1",
								"type": "t_uint256"
							},
							{
								"astId": 154,
								"contract": "contracts/FungusFactory.sol:FungusFactory",
								"label": "readyTime",
								"offset": 0,
								"slot": "2",
								"type": "t_uint32"
							}
						],
						"numberOfBytes": "96"
					},
					"t_uint256": {
						"encoding": "inplace",
						"label": "uint256",
						"numberOfBytes": "32"
					},
					"t_uint32": {
						"encoding": "inplace",
						"label": "uint32",
						"numberOfBytes": "4"
					}
				}
			},
			"userdoc": {
				"kind": "user",
				"methods": {},
				"version": 1
			}
		}
	}
}