{
	"contracts/FungusOwnership.sol": {
		"FungusOwnership": {
			"abi": [
				{
					"anonymous": false,
					"inputs": [
						{
							"indexed": true,
							"internalType": "address",
							"name": "owner",
							"type": "address"
						},
						{
							"indexed": true,
							"internalType": "address",
							"name": "approved",
							"type": "address"
						},
						{
							"indexed": false,
							"internalType": "uint256",
							"name": "tokenId",
							"type": "uint256"
						}
					],
					"name": "Approval",
					"type": "event"
				},
				{
					"anonymous": false,
					"inputs": [
						{
							"indexed": false,
							"internalType": "uint256",
							"name": "fungusId",
							"type": "uint256"
						},
						{
							"indexed": false,
							"internalType": "string",
							"name": "name",
							"type": "string"
						},
						{
							"indexed": false,
							"internalType": "uint256",
							"name": "dna",
							"type": "uint256"
						}
					],
					"name": "NewFungus",
					"type": "event"
				},
				{
					"anonymous": false,
					"inputs": [
						{
							"indexed": true,
							"internalType": "address",
							"name": "previousOwner",
							"type": "address"
						},
						{
							"indexed": true,
							"internalType": "address",
							"name": "newOwner",
							"type": "address"
						}
					],
					"name": "OwnershipTransferred",
					"type": "event"
				},
				{
					"anonymous": false,
					"inputs": [
						{
							"indexed": true,
							"internalType": "address",
							"name": "from",
							"type": "address"
						},
						{
							"indexed": true,
							"internalType": "address",
							"name": "to",
							"type": "address"
						},
						{
							"indexed": false,
							"internalType": "uint256",
							"name": "tokenId",
							"type": "uint256"
						}
					],
					"name": "Transfer",
					"type": "event"
				},
				{
					"inputs": [
						{
							"internalType": "address",
							"name": "to",
							"type": "address"
						},
						{
							"internalType": "uint256",
							"name": "tokenId",
							"type": "uint256"
						}
					],
					"name": "approveToken",
					"outputs": [],
					"stateMutability": "nonpayable",
					"type": "function"
				},
				{
					"inputs": [
						{
							"internalType": "address",
							"name": "owner",
							"type": "address"
						}
					],
					"name": "balanceOf",
					"outputs": [
						{
							"internalType": "uint256",
							"name": "balance",
							"type": "uint256"
						}
					],
					"stateMutability": "view",
					"type": "function"
				},
				{
					"inputs": [
						{
							"internalType": "string",
							"name": "name",
							"type": "string"
						}
					],
					"name": "createRandomFungus",
					"outputs": [],
					"stateMutability": "nonpayable",
					"type": "function"
				},
				{
					"inputs": [
						{
							"internalType": "uint256",
							"name": "fungusId",
							"type": "uint256"
						},
						{
							"internalType": "uint256",
							"name": "feedId",
							"type": "uint256"
						}
					],
					"name": "feed",
					"outputs": [],
					"stateMutability": "payable",
					"type": "function"
				},
				{
					"inputs": [
						{
							"internalType": "uint256",
							"name": "",
							"type": "uint256"
						}
					],
					"name": "fungi",
					"outputs": [
						{
							"internalType": "string",
							"name": "name",
							"type": "string"
						},
						{
							"internalType": "uint256",
							"name": "dna",
							"type": "uint256"
						},
						{
							"internalType": "uint32",
							"name": "readyTime",
							"type": "uint32"
						}
					],
					"stateMutability": "view",
					"type": "function"
				},
				{
					"inputs": [
						{
							"internalType": "uint256",
							"name": "",
							"type": "uint256"
						}
					],
					"name": "fungusToOwner",
					"outputs": [
						{
							"internalType": "address",
							"name": "",
							"type": "address"
						}
					],
					"stateMutability": "view",
					"type": "function"
				},
				{
					"inputs": [
						{
							"internalType": "address",
							"name": "owner",
							"type": "address"
						}
					],
					"name": "getFungiByOwner",
					"outputs": [
						{
							"internalType": "uint256[]",
							"name": "",
							"type": "uint256[]"
						}
					],
					"stateMutability": "view",
					"type": "function"
				},
				{
					"inputs": [],
					"name": "owner",
					"outputs": [
						{
							"internalType": "address",
							"name": "",
							"type": "address"
						}
					],
					"stateMutability": "view",
					"type": "function"
				},
				{
					"inputs": [
						{
							"internalType": "address",
							"name": "",
							"type": "address"
						}
					],
					"name": "ownerFungusCount",
					"outputs": [
						{
							"internalType": "uint256",
							"name": "",
							"type": "uint256"
						}
					],
					"stateMutability": "view",
					"type": "function"
				},
				{
					"inputs": [
						{
							"internalType": "uint256",
							"name": "tokenId",
							"type": "uint256"
						}
					],
					"name": "ownerOf",
					"outputs": [
						{
							"internalType": "address",
							"name": "owner",
							"type": "address"
						}
					],
					"stateMutability": "view",
					"type": "function"
				},
				{
					"inputs": [],
					"name": "renounceOwnership",
					"outputs": [],
					"stateMutability": "nonpayable",
					"type": "function"
				},
				{
					"inputs": [
						{
							"internalType": "address",
							"name": "address_",
							"type": "address"
						}
					],
					"name": "setFeedFactoryContractAddress",
					"outputs": [],
					"stateMutability": "nonpayable",
					"type": "function"
				},
				{
					"inputs": [
						{
							"internalType": "address",
							"name": "from",
							"type": "address"
						},
						{
							"internalType": "address",
							"name": "to",
							"type": "address"
						},
						{
							"internalType": "uint256",
							"name": "tokenId",
							"type": "uint256"
						}
					],
					"name": "transferFrom",
					"outputs": [],
					"stateMutability": "nonpayable",
					"type": "function"
				},
				{
					"inputs": [
						{
							"internalType": "address",
							"name": "newOwner",
							"type": "address"
						}
					],
					"name": "transferOwnership",
					"outputs": [],
					"stateMutability": "nonpayable",
					"type": "function"
				}
			],
			"devdoc": {
				"kind": "dev",
				"methods": {
					"owner()": {
						"details": "Returns the address of the current owner."
					},
					"renounceOwnership()": {
						"details": "Leaves the contract without owner. It will not be possible to call `onlyOwner` functions anymore. Can only be called by the current owner. NOTE: Renouncing ownership will leave the contract without an owner, thereby removing any functionality that is only available to the owner."
					},
					"transferOwnership(address)": {
						"details": "Transfers ownership of the contract to a new account (`newOwner`). Can only be called by the current owner."
					}
				},
				"version": 1
			},
			"evm": {
				"assembly": "    /* \"contracts/FungusOwnership.sol\":94:2708  contract FungusOwnership is FungusFeeding {... */\n  mstore(0x40, 0x80)\n    /* \"contracts/FungusFactory.sol\":295:297  14 */\n  0x0e\n    /* \"contracts/FungusFactory.sol\":278:297  uint dnaDigits = 14 */\n  0x01\n  sstore\n    /* \"contracts/FungusFactory.sol\":328:337  dnaDigits */\n  sload(0x01)\n    /* \"contracts/FungusFactory.sol\":322:324  10 */\n  0x0a\n    /* \"contracts/FungusFactory.sol\":322:337  10 ** dnaDigits */\n  tag_1\n  swap2\n  swap1\n  tag_2\n  jump\t// in\ntag_1:\n    /* \"contracts/FungusFactory.sol\":304:337  uint dnaModulus = 10 ** dnaDigits */\n  0x02\n  sstore\n    /* \"contracts/FungusFactory.sol\":364:373  1 minutes */\n  0x3c\n    /* \"contracts/FungusFactory.sol\":344:373  uint cooldownTime = 1 minutes */\n  0x03\n  sstore\n    /* \"contracts/FungusOwnership.sol\":94:2708  contract FungusOwnership is FungusFeeding {... */\n  callvalue\n  dup1\n  iszero\n  tag_3\n  jumpi\n  0x00\n  dup1\n  revert\ntag_3:\n  pop\n    /* \"@openzeppelin/contracts/access/Ownable.sol\":936:968  _transferOwnership(_msgSender()) */\n  tag_6\n    /* \"@openzeppelin/contracts/access/Ownable.sol\":955:967  _msgSender() */\n  tag_7\n    /* \"@openzeppelin/contracts/access/Ownable.sol\":955:965  _msgSender */\n  shl(0x20, tag_8)\n    /* \"@openzeppelin/contracts/access/Ownable.sol\":955:967  _msgSender() */\n  0x20\n  shr\n  jump\t// in\ntag_7:\n    /* \"@openzeppelin/contracts/access/Ownable.sol\":936:954  _transferOwnership */\n  shl(0x20, tag_9)\n    /* \"@openzeppelin/contracts/access/Ownable.sol\":936:968  _transferOwnership(_msgSender()) */\n  0x20\n  shr\n  jump\t// in\ntag_6:\n    /* \"contracts/FungusOwnership.sol\":94:2708  contract FungusOwnership is FungusFeeding {... */\n  jump(tag_10)\n    /* \"@openzeppelin/contracts/utils/Context.sol\":640:736  function _msgSender() internal view virtual returns (address) {... */\ntag_8:\n    /* \"@openzeppelin/contracts/utils/Context.sol\":693:700  address */\n  0x00\n    /* \"@openzeppelin/contracts/utils/Context.sol\":719:729  msg.sender */\n  caller\n    /* \"@openzeppelin/contracts/utils/Context.sol\":712:729  return msg.sender */\n  swap1\n  pop\n    /* \"@openzeppelin/contracts/utils/Context.sol\":640:736  function _msgSender() internal view virtual returns (address) {... */\n  swap1\n  jump\t// out\n    /* \"@openzeppelin/contracts/access/Ownable.sol\":2433:2620  function _transferOwnership(address newOwner) internal virtual {... */\ntag_9:\n    /* \"@openzeppelin/contracts/access/Ownable.sol\":2506:2522  address oldOwner */\n  0x00\n    /* \"@openzeppelin/contracts/access/Ownable.sol\":2525:2531  _owner */\n  dup1\n  0x00\n  swap1\n  sload\n  swap1\n  0x0100\n  exp\n  swap1\n  div\n  0xffffffffffffffffffffffffffffffffffffffff\n  and\n    /* \"@openzeppelin/contracts/access/Ownable.sol\":2506:2531  address oldOwner = _owner */\n  swap1\n  pop\n    /* \"@openzeppelin/contracts/access/Ownable.sol\":2550:2558  newOwner */\n  dup2\n    /* \"@openzeppelin/contracts/access/Ownable.sol\":2541:2547  _owner */\n  0x00\n  dup1\n    /* \"@openzeppelin/contracts/access/Ownable.sol\":2541:2558  _owner = newOwner */\n  0x0100\n  exp\n  dup2\n  sload\n  dup2\n  0xffffffffffffffffffffffffffffffffffffffff\n  mul\n  not\n  and\n  swap1\n  dup4\n  0xffffffffffffffffffffffffffffffffffffffff\n  and\n  mul\n  or\n  swap1\n  sstore\n  pop\n    /* \"@openzeppelin/contracts/access/Ownable.sol\":2604:2612  newOwner */\n  dup2\n    /* \"@openzeppelin/contracts/access/Ownable.sol\":2573:2613  OwnershipTransferred(oldOwner, newOwner) */\n  0xffffffffffffffffffffffffffffffffffffffff\n  and\n    /* \"@openzeppelin/contracts/access/Ownable.sol\":2594:2602  oldOwner */\n  dup2\n    /* \"@openzeppelin/contracts/access/Ownable.sol\":2573:2613  OwnershipTransferred(oldOwner, newOwner) */\n  0xffffffffffffffffffffffffffffffffffffffff\n  and\n  0x8be0079c531659141344cd1fd0a4f28419497f9722a3daafe3b4186f6b6457e0\n  mload(0x40)\n  mload(0x40)\n  dup1\n  swap2\n  sub\n  swap1\n  log3\n    /* \"@openzeppelin/contracts/access/Ownable.sol\":2496:2620  {... */\n  pop\n    /* \"@openzeppelin/contracts/access/Ownable.sol\":2433:2620  function _transferOwnership(address newOwner) internal virtual {... */\n  pop\n  jump\t// out\n    /* \"#utility.yul\":7:187   */\ntag_13:\n    /* \"#utility.yul\":55:132   */\n  0x4e487b7100000000000000000000000000000000000000000000000000000000\n    /* \"#utility.yul\":52:53   */\n  0x00\n    /* \"#utility.yul\":45:133   */\n  mstore\n    /* \"#utility.yul\":152:156   */\n  0x11\n    /* \"#utility.yul\":149:150   */\n  0x04\n    /* \"#utility.yul\":142:157   */\n  mstore\n    /* \"#utility.yul\":176:180   */\n  0x24\n    /* \"#utility.yul\":173:174   */\n  0x00\n    /* \"#utility.yul\":166:181   */\n  revert\n    /* \"#utility.yul\":193:295   */\ntag_14:\n    /* \"#utility.yul\":235:243   */\n  0x00\n    /* \"#utility.yul\":282:287   */\n  dup2\n    /* \"#utility.yul\":279:280   */\n  0x01\n    /* \"#utility.yul\":275:288   */\n  shr\n    /* \"#utility.yul\":254:288   */\n  swap1\n  pop\n    /* \"#utility.yul\":193:295   */\n  swap2\n  swap1\n  pop\n  jump\t// out\n    /* \"#utility.yul\":301:1149   */\ntag_15:\n    /* \"#utility.yul\":362:367   */\n  0x00\n    /* \"#utility.yul\":369:373   */\n  dup1\n    /* \"#utility.yul\":393:399   */\n  dup3\n    /* \"#utility.yul\":384:399   */\n  swap2\n  pop\n    /* \"#utility.yul\":417:422   */\n  dup4\n    /* \"#utility.yul\":408:422   */\n  swap1\n  pop\n    /* \"#utility.yul\":431:1143   */\ntag_22:\n    /* \"#utility.yul\":452:453   */\n  0x01\n    /* \"#utility.yul\":442:450   */\n  dup6\n    /* \"#utility.yul\":439:454   */\n  gt\n    /* \"#utility.yul\":431:1143   */\n  iszero\n  tag_24\n  jumpi\n    /* \"#utility.yul\":547:551   */\n  dup1\n    /* \"#utility.yul\":542:545   */\n  dup7\n    /* \"#utility.yul\":538:552   */\n  div\n    /* \"#utility.yul\":532:536   */\n  dup2\n    /* \"#utility.yul\":529:553   */\n  gt\n    /* \"#utility.yul\":526:576   */\n  iszero\n  tag_25\n  jumpi\n    /* \"#utility.yul\":556:574   */\n  tag_26\n  tag_13\n  jump\t// in\ntag_26:\n    /* \"#utility.yul\":526:576   */\ntag_25:\n    /* \"#utility.yul\":606:607   */\n  0x01\n    /* \"#utility.yul\":596:604   */\n  dup6\n    /* \"#utility.yul\":592:608   */\n  and\n    /* \"#utility.yul\":589:1040   */\n  iszero\n  tag_27\n  jumpi\n    /* \"#utility.yul\":1021:1025   */\n  dup1\n    /* \"#utility.yul\":1014:1019   */\n  dup3\n    /* \"#utility.yul\":1010:1026   */\n  mul\n    /* \"#utility.yul\":1001:1026   */\n  swap2\n  pop\n    /* \"#utility.yul\":589:1040   */\ntag_27:\n    /* \"#utility.yul\":1071:1075   */\n  dup1\n    /* \"#utility.yul\":1065:1069   */\n  dup2\n    /* \"#utility.yul\":1061:1076   */\n  mul\n    /* \"#utility.yul\":1053:1076   */\n  swap1\n  pop\n    /* \"#utility.yul\":1101:1133   */\n  tag_28\n    /* \"#utility.yul\":1124:1132   */\n  dup6\n    /* \"#utility.yul\":1101:1133   */\n  tag_14\n  jump\t// in\ntag_28:\n    /* \"#utility.yul\":1089:1133   */\n  swap5\n  pop\n    /* \"#utility.yul\":431:1143   */\n  jump(tag_22)\ntag_24:\n    /* \"#utility.yul\":301:1149   */\n  swap5\n  pop\n  swap5\n  swap3\n  pop\n  pop\n  pop\n  jump\t// out\n    /* \"#utility.yul\":1155:2228   */\ntag_16:\n    /* \"#utility.yul\":1209:1214   */\n  0x00\n    /* \"#utility.yul\":1400:1408   */\n  dup3\n    /* \"#utility.yul\":1390:1430   */\n  tag_30\n  jumpi\n    /* \"#utility.yul\":1421:1422   */\n  0x01\n    /* \"#utility.yul\":1412:1422   */\n  swap1\n  pop\n    /* \"#utility.yul\":1423:1428   */\n  jump(tag_29)\n    /* \"#utility.yul\":1390:1430   */\ntag_30:\n    /* \"#utility.yul\":1449:1453   */\n  dup2\n    /* \"#utility.yul\":1439:1475   */\n  tag_31\n  jumpi\n    /* \"#utility.yul\":1466:1467   */\n  0x00\n    /* \"#utility.yul\":1457:1467   */\n  swap1\n  pop\n    /* \"#utility.yul\":1468:1473   */\n  jump(tag_29)\n    /* \"#utility.yul\":1439:1475   */\ntag_31:\n    /* \"#utility.yul\":1535:1539   */\n  dup2\n    /* \"#utility.yul\":1583:1584   */\n  0x01\n    /* \"#utility.yul\":1578:1605   */\n  dup2\n  eq\n  tag_33\n  jumpi\n    /* \"#utility.yul\":1619:1620   */\n  0x02\n    /* \"#utility.yul\":1614:1805   */\n  dup2\n  eq\n  tag_34\n  jumpi\n    /* \"#utility.yul\":1528:1805   */\n  jump(tag_32)\n    /* \"#utility.yul\":1578:1605   */\ntag_33:\n    /* \"#utility.yul\":1596:1597   */\n  0x01\n    /* \"#utility.yul\":1587:1597   */\n  swap2\n  pop\n    /* \"#utility.yul\":1598:1603   */\n  pop\n  jump(tag_29)\n    /* \"#utility.yul\":1614:1805   */\ntag_34:\n    /* \"#utility.yul\":1659:1662   */\n  0xff\n    /* \"#utility.yul\":1649:1657   */\n  dup5\n    /* \"#utility.yul\":1646:1663   */\n  gt\n    /* \"#utility.yul\":1643:1686   */\n  iszero\n  tag_35\n  jumpi\n    /* \"#utility.yul\":1666:1684   */\n  tag_36\n  tag_13\n  jump\t// in\ntag_36:\n    /* \"#utility.yul\":1643:1686   */\ntag_35:\n    /* \"#utility.yul\":1715:1723   */\n  dup4\n    /* \"#utility.yul\":1712:1713   */\n  0x02\n    /* \"#utility.yul\":1708:1724   */\n  exp\n    /* \"#utility.yul\":1699:1724   */\n  swap2\n  pop\n    /* \"#utility.yul\":1750:1753   */\n  dup5\n    /* \"#utility.yul\":1743:1748   */\n  dup3\n    /* \"#utility.yul\":1740:1754   */\n  gt\n    /* \"#utility.yul\":1737:1777   */\n  iszero\n  tag_37\n  jumpi\n    /* \"#utility.yul\":1757:1775   */\n  tag_38\n  tag_13\n  jump\t// in\ntag_38:\n    /* \"#utility.yul\":1737:1777   */\ntag_37:\n    /* \"#utility.yul\":1790:1795   */\n  pop\n  jump(tag_29)\n    /* \"#utility.yul\":1528:1805   */\ntag_32:\n  pop\n    /* \"#utility.yul\":1914:1916   */\n  0x20\n    /* \"#utility.yul\":1904:1912   */\n  dup4\n    /* \"#utility.yul\":1901:1917   */\n  lt\n    /* \"#utility.yul\":1895:1898   */\n  0x0133\n    /* \"#utility.yul\":1889:1893   */\n  dup4\n    /* \"#utility.yul\":1886:1899   */\n  lt\n    /* \"#utility.yul\":1882:1918   */\n  and\n    /* \"#utility.yul\":1864:1866   */\n  0x4e\n    /* \"#utility.yul\":1854:1862   */\n  dup5\n    /* \"#utility.yul\":1851:1867   */\n  lt\n    /* \"#utility.yul\":1846:1848   */\n  0x0b\n    /* \"#utility.yul\":1840:1844   */\n  dup5\n    /* \"#utility.yul\":1837:1849   */\n  lt\n    /* \"#utility.yul\":1833:1868   */\n  and\n    /* \"#utility.yul\":1817:1928   */\n  or\n    /* \"#utility.yul\":1814:2060   */\n  iszero\n  tag_39\n  jumpi\n    /* \"#utility.yul\":1970:1978   */\n  dup3\n    /* \"#utility.yul\":1964:1968   */\n  dup3\n    /* \"#utility.yul\":1960:1979   */\n  exp\n    /* \"#utility.yul\":1951:1979   */\n  swap1\n  pop\n    /* \"#utility.yul\":2005:2008   */\n  dup4\n    /* \"#utility.yul\":1998:2003   */\n  dup2\n    /* \"#utility.yul\":1995:2009   */\n  gt\n    /* \"#utility.yul\":1992:2032   */\n  iszero\n  tag_40\n  jumpi\n    /* \"#utility.yul\":2012:2030   */\n  tag_41\n  tag_13\n  jump\t// in\ntag_41:\n    /* \"#utility.yul\":1992:2032   */\ntag_40:\n    /* \"#utility.yul\":2045:2050   */\n  jump(tag_29)\n    /* \"#utility.yul\":1814:2060   */\ntag_39:\n    /* \"#utility.yul\":2085:2127   */\n  tag_42\n    /* \"#utility.yul\":2123:2126   */\n  dup5\n    /* \"#utility.yul\":2113:2121   */\n  dup5\n    /* \"#utility.yul\":2107:2111   */\n  dup5\n    /* \"#utility.yul\":2104:2105   */\n  0x01\n    /* \"#utility.yul\":2085:2127   */\n  tag_15\n  jump\t// in\ntag_42:\n    /* \"#utility.yul\":2070:2127   */\n  swap3\n  pop\n  swap1\n  pop\n    /* \"#utility.yul\":2159:2163   */\n  dup2\n    /* \"#utility.yul\":2154:2157   */\n  dup5\n    /* \"#utility.yul\":2150:2164   */\n  div\n    /* \"#utility.yul\":2143:2148   */\n  dup2\n    /* \"#utility.yul\":2140:2165   */\n  gt\n    /* \"#utility.yul\":2137:2188   */\n  iszero\n  tag_43\n  jumpi\n    /* \"#utility.yul\":2168:2186   */\n  tag_44\n  tag_13\n  jump\t// in\ntag_44:\n    /* \"#utility.yul\":2137:2188   */\ntag_43:\n    /* \"#utility.yul\":2217:2221   */\n  dup2\n    /* \"#utility.yul\":2210:2215   */\n  dup2\n    /* \"#utility.yul\":2206:2222   */\n  mul\n    /* \"#utility.yul\":2197:2222   */\n  swap1\n  pop\n    /* \"#utility.yul\":1155:2228   */\ntag_29:\n  swap4\n  swap3\n  pop\n  pop\n  pop\n  jump\t// out\n    /* \"#utility.yul\":2234:2311   */\ntag_17:\n    /* \"#utility.yul\":2271:2278   */\n  0x00\n    /* \"#utility.yul\":2300:2305   */\n  dup2\n    /* \"#utility.yul\":2289:2305   */\n  swap1\n  pop\n    /* \"#utility.yul\":2234:2311   */\n  swap2\n  swap1\n  pop\n  jump\t// out\n    /* \"#utility.yul\":2317:2602   */\ntag_2:\n    /* \"#utility.yul\":2377:2382   */\n  0x00\n    /* \"#utility.yul\":2401:2424   */\n  tag_47\n    /* \"#utility.yul\":2419:2423   */\n  dup3\n    /* \"#utility.yul\":2401:2424   */\n  tag_17\n  jump\t// in\ntag_47:\n    /* \"#utility.yul\":2393:2424   */\n  swap2\n  pop\n    /* \"#utility.yul\":2445:2472   */\n  tag_48\n    /* \"#utility.yul\":2463:2471   */\n  dup4\n    /* \"#utility.yul\":2445:2472   */\n  tag_17\n  jump\t// in\ntag_48:\n    /* \"#utility.yul\":2433:2472   */\n  swap3\n  pop\n    /* \"#utility.yul\":2491:2595   */\n  tag_49\n    /* \"#utility.yul\":2528:2594   */\n  0xffffffffffffffffffffffffffffffffffffffffffffffffffffffffffffffff\n    /* \"#utility.yul\":2518:2526   */\n  dup5\n    /* \"#utility.yul\":2512:2516   */\n  dup5\n    /* \"#utility.yul\":2491:2595   */\n  tag_16\n  jump\t// in\ntag_49:\n    /* \"#utility.yul\":2482:2595   */\n  swap1\n  pop\n    /* \"#utility.yul\":2317:2602   */\n  swap3\n  swap2\n  pop\n  pop\n  jump\t// out\n    /* \"contracts/FungusOwnership.sol\":94:2708  contract FungusOwnership is FungusFeeding {... */\ntag_10:\n  dataSize(sub_0)\n  dup1\n  dataOffset(sub_0)\n  0x00\n  codecopy\n  0x00\n  return\nstop\n\nsub_0: assembly {\n        /* \"contracts/FungusOwnership.sol\":94:2708  contract FungusOwnership is FungusFeeding {... */\n      mstore(0x40, 0x80)\n      jumpi(tag_1, lt(calldatasize, 0x04))\n      shr(0xe0, calldataload(0x00))\n      dup1\n      0x6c506e8a\n      gt\n      tag_16\n      jumpi\n      dup1\n      0x70a08231\n      gt\n      tag_17\n      jumpi\n      dup1\n      0x70a08231\n      eq\n      tag_12\n      jumpi\n      dup1\n      0x715018a6\n      eq\n      tag_13\n      jumpi\n      dup1\n      0x8da5cb5b\n      eq\n      tag_14\n      jumpi\n      dup1\n      0xf2fde38b\n      eq\n      tag_15\n      jumpi\n      jump(tag_1)\n    tag_17:\n      dup1\n      0x6c506e8a\n      eq\n      tag_9\n      jumpi\n      dup1\n      0x6d6aa5bb\n      eq\n      tag_10\n      jumpi\n      dup1\n      0x703b3d38\n      eq\n      tag_11\n      jumpi\n      jump(tag_1)\n    tag_16:\n      dup1\n      0x23b872dd\n      gt\n      tag_18\n      jumpi\n      dup1\n      0x23b872dd\n      eq\n      tag_5\n      jumpi\n      dup1\n      0x5a1e6313\n      eq\n      tag_6\n      jumpi\n      dup1\n      0x6352211e\n      eq\n      tag_7\n      jumpi\n      dup1\n      0x6bdfcef9\n      eq\n      tag_8\n      jumpi\n      jump(tag_1)\n    tag_18:\n      dup1\n      0x022fc88b\n      eq\n      tag_2\n      jumpi\n      dup1\n      0x0e17f883\n      eq\n      tag_3\n      jumpi\n      dup1\n      0x1e1694cb\n      eq\n      tag_4\n      jumpi\n    tag_1:\n      0x00\n      dup1\n      revert\n        /* \"contracts/FungusOwnership.sol\":1256:1715  function approveToken(address to, uint256 tokenId) public {... */\n    tag_2:\n      callvalue\n      dup1\n      iszero\n      tag_19\n      jumpi\n      0x00\n      dup1\n      revert\n    tag_19:\n      pop\n      tag_20\n      0x04\n      dup1\n      calldatasize\n      sub\n      dup2\n      add\n      swap1\n      tag_21\n      swap2\n      swap1\n      tag_22\n      jump\t// in\n    tag_21:\n      tag_23\n      jump\t// in\n    tag_20:\n      stop\n        /* \"contracts/FungusFactory.sol\":510:556  mapping (uint => address) public fungusToOwner */\n    tag_3:\n      callvalue\n      dup1\n      iszero\n      tag_24\n      jumpi\n      0x00\n      dup1\n      revert\n    tag_24:\n      pop\n      tag_25\n      0x04\n      dup1\n      calldatasize\n      sub\n      dup2\n      add\n      swap1\n      tag_26\n      swap2\n      swap1\n      tag_27\n      jump\t// in\n    tag_26:\n      tag_28\n      jump\t// in\n    tag_25:\n      mload(0x40)\n      tag_29\n      swap2\n      swap1\n      tag_30\n      jump\t// in\n    tag_29:\n      mload(0x40)\n      dup1\n      swap2\n      sub\n      swap1\n      return\n        /* \"contracts/FungusFactory.sol\":1417:1813  function getFungiByOwner(address owner) external view returns(uint[] memory) {... */\n    tag_4:\n      callvalue\n      dup1\n      iszero\n      tag_31\n      jumpi\n      0x00\n      dup1\n      revert\n    tag_31:\n      pop\n      tag_32\n      0x04\n      dup1\n      calldatasize\n      sub\n      dup2\n      add\n      swap1\n      tag_33\n      swap2\n      swap1\n      tag_34\n      jump\t// in\n    tag_33:\n      tag_35\n      jump\t// in\n    tag_32:\n      mload(0x40)\n      tag_36\n      swap2\n      swap1\n      tag_37\n      jump\t// in\n    tag_36:\n      mload(0x40)\n      dup1\n      swap2\n      sub\n      swap1\n      return\n        /* \"contracts/FungusOwnership.sol\":793:1137  function transferFrom(address from, address to, uint tokenId) public {... */\n    tag_5:\n      callvalue\n      dup1\n      iszero\n      tag_38\n      jumpi\n      0x00\n      dup1\n      revert\n    tag_38:\n      pop\n      tag_39\n      0x04\n      dup1\n      calldatasize\n      sub\n      dup2\n      add\n      swap1\n      tag_40\n      swap2\n      swap1\n      tag_41\n      jump\t// in\n    tag_40:\n      tag_42\n      jump\t// in\n    tag_39:\n      stop\n        /* \"contracts/FungusFactory.sol\":1175:1409  function createRandomFungus(string calldata name) public {... */\n    tag_6:\n      callvalue\n      dup1\n      iszero\n      tag_43\n      jumpi\n      0x00\n      dup1\n      revert\n    tag_43:\n      pop\n      tag_44\n      0x04\n      dup1\n      calldatasize\n      sub\n      dup2\n      add\n      swap1\n      tag_45\n      swap2\n      swap1\n      tag_46\n      jump\t// in\n    tag_45:\n      tag_47\n      jump\t// in\n    tag_44:\n      stop\n        /* \"contracts/FungusOwnership.sol\":670:785  function ownerOf(uint tokenId) public view returns (address owner) {... */\n    tag_7:\n      callvalue\n      dup1\n      iszero\n      tag_48\n      jumpi\n      0x00\n      dup1\n      revert\n    tag_48:\n      pop\n      tag_49\n      0x04\n      dup1\n      calldatasize\n      sub\n      dup2\n      add\n      swap1\n      tag_50\n      swap2\n      swap1\n      tag_27\n      jump\t// in\n    tag_50:\n      tag_51\n      jump\t// in\n    tag_49:\n      mload(0x40)\n      tag_52\n      swap2\n      swap1\n      tag_30\n      jump\t// in\n    tag_52:\n      mload(0x40)\n      dup1\n      swap2\n      sub\n      swap1\n      return\n        /* \"contracts/FungusFactory.sol\":480:501  Fungus[] public fungi */\n    tag_8:\n      callvalue\n      dup1\n      iszero\n      tag_53\n      jumpi\n      0x00\n      dup1\n      revert\n    tag_53:\n      pop\n      tag_54\n      0x04\n      dup1\n      calldatasize\n      sub\n      dup2\n      add\n      swap1\n      tag_55\n      swap2\n      swap1\n      tag_27\n      jump\t// in\n    tag_55:\n      tag_56\n      jump\t// in\n    tag_54:\n      mload(0x40)\n      tag_57\n      swap4\n      swap3\n      swap2\n      swap1\n      tag_58\n      jump\t// in\n    tag_57:\n      mload(0x40)\n      dup1\n      swap2\n      sub\n      swap1\n      return\n        /* \"contracts/FungusFeeding.sol\":1068:1254  function setFeedFactoryContractAddress(address address_) external onlyOwner {... */\n    tag_9:\n      callvalue\n      dup1\n      iszero\n      tag_59\n      jumpi\n      0x00\n      dup1\n      revert\n    tag_59:\n      pop\n      tag_60\n      0x04\n      dup1\n      calldatasize\n      sub\n      dup2\n      add\n      swap1\n      tag_61\n      swap2\n      swap1\n      tag_34\n      jump\t// in\n    tag_61:\n      tag_62\n      jump\t// in\n    tag_60:\n      stop\n        /* \"contracts/FungusFeeding.sol\":2271:2694  function feed(uint fungusId, uint feedId) public payable {... */\n    tag_10:\n      tag_63\n      0x04\n      dup1\n      calldatasize\n      sub\n      dup2\n      add\n      swap1\n      tag_64\n      swap2\n      swap1\n      tag_65\n      jump\t// in\n    tag_64:\n      tag_66\n      jump\t// in\n    tag_63:\n      stop\n        /* \"contracts/FungusFactory.sol\":563:612  mapping (address => uint) public ownerFungusCount */\n    tag_11:\n      callvalue\n      dup1\n      iszero\n      tag_67\n      jumpi\n      0x00\n      dup1\n      revert\n    tag_67:\n      pop\n      tag_68\n      0x04\n      dup1\n      calldatasize\n      sub\n      dup2\n      add\n      swap1\n      tag_69\n      swap2\n      swap1\n      tag_34\n      jump\t// in\n    tag_69:\n      tag_70\n      jump\t// in\n    tag_68:\n      mload(0x40)\n      tag_71\n      swap2\n      swap1\n      tag_72\n      jump\t// in\n    tag_71:\n      mload(0x40)\n      dup1\n      swap2\n      sub\n      swap1\n      return\n        /* \"contracts/FungusOwnership.sol\":544:662  function balanceOf(address owner) public view returns (uint balance) {... */\n    tag_12:\n      callvalue\n      dup1\n      iszero\n      tag_73\n      jumpi\n      0x00\n      dup1\n      revert\n    tag_73:\n      pop\n      tag_74\n      0x04\n      dup1\n      calldatasize\n      sub\n      dup2\n      add\n      swap1\n      tag_75\n      swap2\n      swap1\n      tag_34\n      jump\t// in\n    tag_75:\n      tag_76\n      jump\t// in\n    tag_74:\n      mload(0x40)\n      tag_77\n      swap2\n      swap1\n      tag_72\n      jump\t// in\n    tag_77:\n      mload(0x40)\n      dup1\n      swap2\n      sub\n      swap1\n      return\n        /* \"@openzeppelin/contracts/access/Ownable.sol\":1831:1932  function renounceOwnership() public virtual onlyOwner {... */\n    tag_13:\n      callvalue\n      dup1\n      iszero\n      tag_78\n      jumpi\n      0x00\n      dup1\n      revert\n    tag_78:\n      pop\n      tag_79\n      tag_80\n      jump\t// in\n    tag_79:\n      stop\n        /* \"@openzeppelin/contracts/access/Ownable.sol\":1201:1286  function owner() public view virtual returns (address) {... */\n    tag_14:\n      callvalue\n      dup1\n      iszero\n      tag_81\n      jumpi\n      0x00\n      dup1\n      revert\n    tag_81:\n      pop\n      tag_82\n      tag_83\n      jump\t// in\n    tag_82:\n      mload(0x40)\n      tag_84\n      swap2\n      swap1\n      tag_30\n      jump\t// in\n    tag_84:\n      mload(0x40)\n      dup1\n      swap2\n      sub\n      swap1\n      return\n        /* \"@openzeppelin/contracts/access/Ownable.sol\":2081:2279  function transferOwnership(address newOwner) public virtual onlyOwner {... */\n    tag_15:\n      callvalue\n      dup1\n      iszero\n      tag_85\n      jumpi\n      0x00\n      dup1\n      revert\n    tag_85:\n      pop\n      tag_86\n      0x04\n      dup1\n      calldatasize\n      sub\n      dup2\n      add\n      swap1\n      tag_87\n      swap2\n      swap1\n      tag_34\n      jump\t// in\n    tag_87:\n      tag_88\n      jump\t// in\n    tag_86:\n      stop\n        /* \"contracts/FungusOwnership.sol\":1256:1715  function approveToken(address to, uint256 tokenId) public {... */\n    tag_23:\n        /* \"contracts/FungusOwnership.sol\":1325:1338  address owner */\n      0x00\n        /* \"contracts/FungusOwnership.sol\":1341:1357  ownerOf(tokenId) */\n      tag_90\n        /* \"contracts/FungusOwnership.sol\":1349:1356  tokenId */\n      dup3\n        /* \"contracts/FungusOwnership.sol\":1341:1348  ownerOf */\n      tag_51\n        /* \"contracts/FungusOwnership.sol\":1341:1357  ownerOf(tokenId) */\n      jump\t// in\n    tag_90:\n        /* \"contracts/FungusOwnership.sol\":1325:1357  address owner = ownerOf(tokenId) */\n      swap1\n      pop\n        /* \"contracts/FungusOwnership.sol\":1384:1389  owner */\n      dup1\n        /* \"contracts/FungusOwnership.sol\":1378:1389  to != owner */\n      0xffffffffffffffffffffffffffffffffffffffff\n      and\n        /* \"contracts/FungusOwnership.sol\":1378:1380  to */\n      dup4\n        /* \"contracts/FungusOwnership.sol\":1378:1389  to != owner */\n      0xffffffffffffffffffffffffffffffffffffffff\n      and\n      eq\n      iszero\n        /* \"contracts/FungusOwnership.sol\":1370:1419  require(to != owner, \"approval to current owner\") */\n      tag_91\n      jumpi\n      mload(0x40)\n      0x08c379a000000000000000000000000000000000000000000000000000000000\n      dup2\n      mstore\n      0x04\n      add\n      tag_92\n      swap1\n      tag_93\n      jump\t// in\n    tag_92:\n      mload(0x40)\n      dup1\n      swap2\n      sub\n      swap1\n      revert\n    tag_91:\n        /* \"contracts/FungusOwnership.sol\":1541:1546  owner */\n      dup1\n        /* \"contracts/FungusOwnership.sol\":1525:1546  _msgSender() == owner */\n      0xffffffffffffffffffffffffffffffffffffffff\n      and\n        /* \"contracts/FungusOwnership.sol\":1525:1537  _msgSender() */\n      tag_94\n        /* \"contracts/FungusOwnership.sol\":1525:1535  _msgSender */\n      tag_95\n        /* \"contracts/FungusOwnership.sol\":1525:1537  _msgSender() */\n      jump\t// in\n    tag_94:\n        /* \"contracts/FungusOwnership.sol\":1525:1546  _msgSender() == owner */\n      0xffffffffffffffffffffffffffffffffffffffff\n      and\n      eq\n        /* \"contracts/FungusOwnership.sol\":1525:1591  _msgSender() == owner || _msgSender() == operatorApproval[tokenId] */\n      dup1\n      tag_96\n      jumpi\n      pop\n        /* \"contracts/FungusOwnership.sol\":1566:1582  operatorApproval */\n      0x08\n        /* \"contracts/FungusOwnership.sol\":1566:1591  operatorApproval[tokenId] */\n      0x00\n        /* \"contracts/FungusOwnership.sol\":1583:1590  tokenId */\n      dup4\n        /* \"contracts/FungusOwnership.sol\":1566:1591  operatorApproval[tokenId] */\n      dup2\n      mstore\n      0x20\n      add\n      swap1\n      dup2\n      mstore\n      0x20\n      add\n      0x00\n      keccak256\n      0x00\n      swap1\n      sload\n      swap1\n      0x0100\n      exp\n      swap1\n      div\n      0xffffffffffffffffffffffffffffffffffffffff\n      and\n        /* \"contracts/FungusOwnership.sol\":1550:1591  _msgSender() == operatorApproval[tokenId] */\n      0xffffffffffffffffffffffffffffffffffffffff\n      and\n        /* \"contracts/FungusOwnership.sol\":1550:1562  _msgSender() */\n      tag_97\n        /* \"contracts/FungusOwnership.sol\":1550:1560  _msgSender */\n      tag_95\n        /* \"contracts/FungusOwnership.sol\":1550:1562  _msgSender() */\n      jump\t// in\n    tag_97:\n        /* \"contracts/FungusOwnership.sol\":1550:1591  _msgSender() == operatorApproval[tokenId] */\n      0xffffffffffffffffffffffffffffffffffffffff\n      and\n      eq\n        /* \"contracts/FungusOwnership.sol\":1525:1591  _msgSender() == owner || _msgSender() == operatorApproval[tokenId] */\n    tag_96:\n        /* \"contracts/FungusOwnership.sol\":1503:1668  require(... */\n      tag_98\n      jumpi\n      mload(0x40)\n      0x08c379a000000000000000000000000000000000000000000000000000000000\n      dup2\n      mstore\n      0x04\n      add\n      tag_99\n      swap1\n      tag_100\n      jump\t// in\n    tag_99:\n      mload(0x40)\n      dup1\n      swap2\n      sub\n      swap1\n      revert\n    tag_98:\n        /* \"contracts/FungusOwnership.sol\":1681:1707  _approveToken(to, tokenId) */\n      tag_101\n        /* \"contracts/FungusOwnership.sol\":1695:1697  to */\n      dup4\n        /* \"contracts/FungusOwnership.sol\":1699:1706  tokenId */\n      dup4\n        /* \"contracts/FungusOwnership.sol\":1681:1694  _approveToken */\n      tag_102\n        /* \"contracts/FungusOwnership.sol\":1681:1707  _approveToken(to, tokenId) */\n      jump\t// in\n    tag_101:\n        /* \"contracts/FungusOwnership.sol\":1314:1715  {... */\n      pop\n        /* \"contracts/FungusOwnership.sol\":1256:1715  function approveToken(address to, uint256 tokenId) public {... */\n      pop\n      pop\n      jump\t// out\n        /* \"contracts/FungusFactory.sol\":510:556  mapping (uint => address) public fungusToOwner */\n    tag_28:\n      mstore(0x20, 0x05)\n      dup1\n      0x00\n      mstore\n      keccak256(0x00, 0x40)\n      0x00\n      swap2\n      pop\n      sload\n      swap1\n      0x0100\n      exp\n      swap1\n      div\n      0xffffffffffffffffffffffffffffffffffffffff\n      and\n      dup2\n      jump\t// out\n        /* \"contracts/FungusFactory.sol\":1417:1813  function getFungiByOwner(address owner) external view returns(uint[] memory) {... */\n    tag_35:\n        /* \"contracts/FungusFactory.sol\":1479:1492  uint[] memory */\n      0x60\n        /* \"contracts/FungusFactory.sol\":1505:1525  uint[] memory result */\n      0x00\n        /* \"contracts/FungusFactory.sol\":1539:1555  ownerFungusCount */\n      0x06\n        /* \"contracts/FungusFactory.sol\":1539:1562  ownerFungusCount[owner] */\n      0x00\n        /* \"contracts/FungusFactory.sol\":1556:1561  owner */\n      dup5\n        /* \"contracts/FungusFactory.sol\":1539:1562  ownerFungusCount[owner] */\n      0xffffffffffffffffffffffffffffffffffffffff\n      and\n      0xffffffffffffffffffffffffffffffffffffffff\n      and\n      dup2\n      mstore\n      0x20\n      add\n      swap1\n      dup2\n      mstore\n      0x20\n      add\n      0x00\n      keccak256\n      sload\n        /* \"contracts/FungusFactory.sol\":1528:1563  new uint[](ownerFungusCount[owner]) */\n      0xffffffffffffffff\n      dup2\n      gt\n      iszero\n      tag_104\n      jumpi\n      tag_105\n      tag_106\n      jump\t// in\n    tag_105:\n    tag_104:\n      mload(0x40)\n      swap1\n      dup1\n      dup3\n      mstore\n      dup1\n      0x20\n      mul\n      0x20\n      add\n      dup3\n      add\n      0x40\n      mstore\n      dup1\n      iszero\n      tag_107\n      jumpi\n      dup2\n      0x20\n      add\n      0x20\n      dup3\n      mul\n      dup1\n      calldatasize\n      dup4\n      calldatacopy\n      dup1\n      dup3\n      add\n      swap2\n      pop\n      pop\n      swap1\n      pop\n    tag_107:\n      pop\n        /* \"contracts/FungusFactory.sol\":1505:1563  uint[] memory result = new uint[](ownerFungusCount[owner]) */\n      swap1\n      pop\n        /* \"contracts/FungusFactory.sol\":1576:1588  uint counter */\n      0x00\n        /* \"contracts/FungusFactory.sol\":1608:1614  uint i */\n      dup1\n        /* \"contracts/FungusFactory.sol\":1603:1782  for (uint i = 0; i < fungi.length; i++) {... */\n    tag_108:\n        /* \"contracts/FungusFactory.sol\":1624:1629  fungi */\n      0x04\n        /* \"contracts/FungusFactory.sol\":1624:1636  fungi.length */\n      dup1\n      sload\n      swap1\n      pop\n        /* \"contracts/FungusFactory.sol\":1620:1621  i */\n      dup2\n        /* \"contracts/FungusFactory.sol\":1620:1636  i < fungi.length */\n      lt\n        /* \"contracts/FungusFactory.sol\":1603:1782  for (uint i = 0; i < fungi.length; i++) {... */\n      iszero\n      tag_109\n      jumpi\n        /* \"contracts/FungusFactory.sol\":1682:1687  owner */\n      dup5\n        /* \"contracts/FungusFactory.sol\":1662:1687  fungusToOwner[i] == owner */\n      0xffffffffffffffffffffffffffffffffffffffff\n      and\n        /* \"contracts/FungusFactory.sol\":1662:1675  fungusToOwner */\n      0x05\n        /* \"contracts/FungusFactory.sol\":1662:1678  fungusToOwner[i] */\n      0x00\n        /* \"contracts/FungusFactory.sol\":1676:1677  i */\n      dup4\n        /* \"contracts/FungusFactory.sol\":1662:1678  fungusToOwner[i] */\n      dup2\n      mstore\n      0x20\n      add\n      swap1\n      dup2\n      mstore\n      0x20\n      add\n      0x00\n      keccak256\n      0x00\n      swap1\n      sload\n      swap1\n      0x0100\n      exp\n      swap1\n      div\n      0xffffffffffffffffffffffffffffffffffffffff\n      and\n        /* \"contracts/FungusFactory.sol\":1662:1687  fungusToOwner[i] == owner */\n      0xffffffffffffffffffffffffffffffffffffffff\n      and\n      eq\n        /* \"contracts/FungusFactory.sol\":1658:1771  if (fungusToOwner[i] == owner) {... */\n      iszero\n      tag_111\n      jumpi\n        /* \"contracts/FungusFactory.sol\":1726:1727  i */\n      dup1\n        /* \"contracts/FungusFactory.sol\":1708:1714  result */\n      dup4\n        /* \"contracts/FungusFactory.sol\":1715:1722  counter */\n      dup4\n        /* \"contracts/FungusFactory.sol\":1708:1723  result[counter] */\n      dup2\n      mload\n      dup2\n      lt\n      tag_112\n      jumpi\n      tag_113\n      tag_114\n      jump\t// in\n    tag_113:\n    tag_112:\n      0x20\n      mul\n      0x20\n      add\n      add\n        /* \"contracts/FungusFactory.sol\":1708:1727  result[counter] = i */\n      dup2\n      dup2\n      mstore\n      pop\n      pop\n        /* \"contracts/FungusFactory.sol\":1746:1755  counter++ */\n      dup2\n      dup1\n      tag_115\n      swap1\n      tag_116\n      jump\t// in\n    tag_115:\n      swap3\n      pop\n      pop\n        /* \"contracts/FungusFactory.sol\":1658:1771  if (fungusToOwner[i] == owner) {... */\n    tag_111:\n        /* \"contracts/FungusFactory.sol\":1638:1641  i++ */\n      dup1\n      dup1\n      tag_117\n      swap1\n      tag_116\n      jump\t// in\n    tag_117:\n      swap2\n      pop\n      pop\n        /* \"contracts/FungusFactory.sol\":1603:1782  for (uint i = 0; i < fungi.length; i++) {... */\n      jump(tag_108)\n    tag_109:\n      pop\n        /* \"contracts/FungusFactory.sol\":1799:1805  result */\n      dup2\n        /* \"contracts/FungusFactory.sol\":1792:1805  return result */\n      swap3\n      pop\n      pop\n      pop\n        /* \"contracts/FungusFactory.sol\":1417:1813  function getFungiByOwner(address owner) external view returns(uint[] memory) {... */\n      swap2\n      swap1\n      pop\n      jump\t// out\n        /* \"contracts/FungusOwnership.sol\":793:1137  function transferFrom(address from, address to, uint tokenId) public {... */\n    tag_42:\n        /* \"contracts/FungusOwnership.sol\":970:986  operatorApproval */\n      0x08\n        /* \"contracts/FungusOwnership.sol\":970:995  operatorApproval[tokenId] */\n      0x00\n        /* \"contracts/FungusOwnership.sol\":987:994  tokenId */\n      dup3\n        /* \"contracts/FungusOwnership.sol\":970:995  operatorApproval[tokenId] */\n      dup2\n      mstore\n      0x20\n      add\n      swap1\n      dup2\n      mstore\n      0x20\n      add\n      0x00\n      keccak256\n      0x00\n      swap1\n      sload\n      swap1\n      0x0100\n      exp\n      swap1\n      div\n      0xffffffffffffffffffffffffffffffffffffffff\n      and\n        /* \"contracts/FungusOwnership.sol\":954:995  _msgSender() == operatorApproval[tokenId] */\n      0xffffffffffffffffffffffffffffffffffffffff\n      and\n        /* \"contracts/FungusOwnership.sol\":954:966  _msgSender() */\n      tag_119\n        /* \"contracts/FungusOwnership.sol\":954:964  _msgSender */\n      tag_95\n        /* \"contracts/FungusOwnership.sol\":954:966  _msgSender() */\n      jump\t// in\n    tag_119:\n        /* \"contracts/FungusOwnership.sol\":954:995  _msgSender() == operatorApproval[tokenId] */\n      0xffffffffffffffffffffffffffffffffffffffff\n      and\n      eq\n        /* \"contracts/FungusOwnership.sol\":954:1031  _msgSender() == operatorApproval[tokenId] || _msgSender() == ownerOf(tokenId) */\n      dup1\n      tag_120\n      jumpi\n      pop\n        /* \"contracts/FungusOwnership.sol\":1015:1031  ownerOf(tokenId) */\n      tag_121\n        /* \"contracts/FungusOwnership.sol\":1023:1030  tokenId */\n      dup2\n        /* \"contracts/FungusOwnership.sol\":1015:1022  ownerOf */\n      tag_51\n        /* \"contracts/FungusOwnership.sol\":1015:1031  ownerOf(tokenId) */\n      jump\t// in\n    tag_121:\n        /* \"contracts/FungusOwnership.sol\":999:1031  _msgSender() == ownerOf(tokenId) */\n      0xffffffffffffffffffffffffffffffffffffffff\n      and\n        /* \"contracts/FungusOwnership.sol\":999:1011  _msgSender() */\n      tag_122\n        /* \"contracts/FungusOwnership.sol\":999:1009  _msgSender */\n      tag_95\n        /* \"contracts/FungusOwnership.sol\":999:1011  _msgSender() */\n      jump\t// in\n    tag_122:\n        /* \"contracts/FungusOwnership.sol\":999:1031  _msgSender() == ownerOf(tokenId) */\n      0xffffffffffffffffffffffffffffffffffffffff\n      and\n      eq\n        /* \"contracts/FungusOwnership.sol\":954:1031  _msgSender() == operatorApproval[tokenId] || _msgSender() == ownerOf(tokenId) */\n    tag_120:\n        /* \"contracts/FungusOwnership.sol\":946:1090  require(_msgSender() == operatorApproval[tokenId] || _msgSender() == ownerOf(tokenId), \"transferFrom caller is not owner nor approved operator\") */\n      tag_123\n      jumpi\n      mload(0x40)\n      0x08c379a000000000000000000000000000000000000000000000000000000000\n      dup2\n      mstore\n      0x04\n      add\n      tag_124\n      swap1\n      tag_125\n      jump\t// in\n    tag_124:\n      mload(0x40)\n      dup1\n      swap2\n      sub\n      swap1\n      revert\n    tag_123:\n        /* \"contracts/FungusOwnership.sol\":1101:1129  _transfer(from, to, tokenId) */\n      tag_126\n        /* \"contracts/FungusOwnership.sol\":1111:1115  from */\n      dup4\n        /* \"contracts/FungusOwnership.sol\":1117:1119  to */\n      dup4\n        /* \"contracts/FungusOwnership.sol\":1121:1128  tokenId */\n      dup4\n        /* \"contracts/FungusOwnership.sol\":1101:1110  _transfer */\n      tag_127\n        /* \"contracts/FungusOwnership.sol\":1101:1129  _transfer(from, to, tokenId) */\n      jump\t// in\n    tag_126:\n        /* \"contracts/FungusOwnership.sol\":793:1137  function transferFrom(address from, address to, uint tokenId) public {... */\n      pop\n      pop\n      pop\n      jump\t// out\n        /* \"contracts/FungusFactory.sol\":1175:1409  function createRandomFungus(string calldata name) public {... */\n    tag_47:\n        /* \"contracts/FungusFactory.sol\":1283:1284  0 */\n      0x00\n        /* \"contracts/FungusFactory.sol\":1251:1267  ownerFungusCount */\n      0x06\n        /* \"contracts/FungusFactory.sol\":1251:1279  ownerFungusCount[msg.sender] */\n      0x00\n        /* \"contracts/FungusFactory.sol\":1268:1278  msg.sender */\n      caller\n        /* \"contracts/FungusFactory.sol\":1251:1279  ownerFungusCount[msg.sender] */\n      0xffffffffffffffffffffffffffffffffffffffff\n      and\n      0xffffffffffffffffffffffffffffffffffffffff\n      and\n      dup2\n      mstore\n      0x20\n      add\n      swap1\n      dup2\n      mstore\n      0x20\n      add\n      0x00\n      keccak256\n      sload\n        /* \"contracts/FungusFactory.sol\":1251:1284  ownerFungusCount[msg.sender] == 0 */\n      eq\n        /* \"contracts/FungusFactory.sol\":1243:1312  require(ownerFungusCount[msg.sender] == 0, \"a fungus already exists\") */\n      tag_129\n      jumpi\n      mload(0x40)\n      0x08c379a000000000000000000000000000000000000000000000000000000000\n      dup2\n      mstore\n      0x04\n      add\n      tag_130\n      swap1\n      tag_131\n      jump\t// in\n    tag_130:\n      mload(0x40)\n      dup1\n      swap2\n      sub\n      swap1\n      revert\n    tag_129:\n        /* \"contracts/FungusFactory.sol\":1323:1335  uint randDna */\n      0x00\n        /* \"contracts/FungusFactory.sol\":1338:1362  _generateRandomDna(name) */\n      tag_132\n        /* \"contracts/FungusFactory.sol\":1357:1361  name */\n      dup4\n      dup4\n        /* \"contracts/FungusFactory.sol\":1338:1356  _generateRandomDna */\n      tag_133\n        /* \"contracts/FungusFactory.sol\":1338:1362  _generateRandomDna(name) */\n      jump\t// in\n    tag_132:\n        /* \"contracts/FungusFactory.sol\":1323:1362  uint randDna = _generateRandomDna(name) */\n      swap1\n      pop\n        /* \"contracts/FungusFactory.sol\":1373:1401  _createFungus(name, randDna) */\n      tag_134\n        /* \"contracts/FungusFactory.sol\":1387:1391  name */\n      dup4\n      dup4\n        /* \"contracts/FungusFactory.sol\":1373:1401  _createFungus(name, randDna) */\n      dup1\n      dup1\n      0x1f\n      add\n      0x20\n      dup1\n      swap2\n      div\n      mul\n      0x20\n      add\n      mload(0x40)\n      swap1\n      dup2\n      add\n      0x40\n      mstore\n      dup1\n      swap4\n      swap3\n      swap2\n      swap1\n      dup2\n      dup2\n      mstore\n      0x20\n      add\n      dup4\n      dup4\n      dup1\n      dup3\n      dup5\n      calldatacopy\n      0x00\n      dup2\n      dup5\n      add\n      mstore\n      not(0x1f)\n      0x1f\n      dup3\n      add\n      and\n      swap1\n      pop\n      dup1\n      dup4\n      add\n      swap3\n      pop\n      pop\n      pop\n      pop\n      pop\n      pop\n      pop\n        /* \"contracts/FungusFactory.sol\":1393:1400  randDna */\n      dup3\n        /* \"contracts/FungusFactory.sol\":1373:1386  _createFungus */\n      tag_135\n        /* \"contracts/FungusFactory.sol\":1373:1401  _createFungus(name, randDna) */\n      jump\t// in\n    tag_134:\n        /* \"contracts/FungusFactory.sol\":1232:1409  {... */\n      pop\n        /* \"contracts/FungusFactory.sol\":1175:1409  function createRandomFungus(string calldata name) public {... */\n      pop\n      pop\n      jump\t// out\n        /* \"contracts/FungusOwnership.sol\":670:785  function ownerOf(uint tokenId) public view returns (address owner) {... */\n    tag_51:\n        /* \"contracts/FungusOwnership.sol\":722:735  address owner */\n      0x00\n        /* \"contracts/FungusOwnership.sol\":755:768  fungusToOwner */\n      0x05\n        /* \"contracts/FungusOwnership.sol\":755:777  fungusToOwner[tokenId] */\n      0x00\n        /* \"contracts/FungusOwnership.sol\":769:776  tokenId */\n      dup4\n        /* \"contracts/FungusOwnership.sol\":755:777  fungusToOwner[tokenId] */\n      dup2\n      mstore\n      0x20\n      add\n      swap1\n      dup2\n      mstore\n      0x20\n      add\n      0x00\n      keccak256\n      0x00\n      swap1\n      sload\n      swap1\n      0x0100\n      exp\n      swap1\n      div\n      0xffffffffffffffffffffffffffffffffffffffff\n      and\n        /* \"contracts/FungusOwnership.sol\":748:777  return fungusToOwner[tokenId] */\n      swap1\n      pop\n        /* \"contracts/FungusOwnership.sol\":670:785  function ownerOf(uint tokenId) public view returns (address owner) {... */\n      swap2\n      swap1\n      pop\n      jump\t// out\n        /* \"contracts/FungusFactory.sol\":480:501  Fungus[] public fungi */\n    tag_56:\n      0x04\n      dup2\n      dup2\n      sload\n      dup2\n      lt\n      tag_137\n      jumpi\n      0x00\n      dup1\n      revert\n    tag_137:\n      swap1\n      0x00\n      mstore\n      keccak256(0x00, 0x20)\n      swap1\n      0x03\n      mul\n      add\n      0x00\n      swap2\n      pop\n      swap1\n      pop\n      dup1\n      0x00\n      add\n      dup1\n      sload\n      tag_139\n      swap1\n      tag_140\n      jump\t// in\n    tag_139:\n      dup1\n      0x1f\n      add\n      0x20\n      dup1\n      swap2\n      div\n      mul\n      0x20\n      add\n      mload(0x40)\n      swap1\n      dup2\n      add\n      0x40\n      mstore\n      dup1\n      swap3\n      swap2\n      swap1\n      dup2\n      dup2\n      mstore\n      0x20\n      add\n      dup3\n      dup1\n      sload\n      tag_141\n      swap1\n      tag_140\n      jump\t// in\n    tag_141:\n      dup1\n      iszero\n      tag_142\n      jumpi\n      dup1\n      0x1f\n      lt\n      tag_143\n      jumpi\n      0x0100\n      dup1\n      dup4\n      sload\n      div\n      mul\n      dup4\n      mstore\n      swap2\n      0x20\n      add\n      swap2\n      jump(tag_142)\n    tag_143:\n      dup3\n      add\n      swap2\n      swap1\n      0x00\n      mstore\n      keccak256(0x00, 0x20)\n      swap1\n    tag_144:\n      dup2\n      sload\n      dup2\n      mstore\n      swap1\n      0x01\n      add\n      swap1\n      0x20\n      add\n      dup1\n      dup4\n      gt\n      tag_144\n      jumpi\n      dup3\n      swap1\n      sub\n      0x1f\n      and\n      dup3\n      add\n      swap2\n    tag_142:\n      pop\n      pop\n      pop\n      pop\n      pop\n      swap1\n      dup1\n      0x01\n      add\n      sload\n      swap1\n      dup1\n      0x02\n      add\n      0x00\n      swap1\n      sload\n      swap1\n      0x0100\n      exp\n      swap1\n      div\n      0xffffffff\n      and\n      swap1\n      pop\n      dup4\n      jump\t// out\n        /* \"contracts/FungusFeeding.sol\":1068:1254  function setFeedFactoryContractAddress(address address_) external onlyOwner {... */\n    tag_62:\n        /* \"@openzeppelin/contracts/access/Ownable.sol\":1094:1107  _checkOwner() */\n      tag_146\n        /* \"@openzeppelin/contracts/access/Ownable.sol\":1094:1105  _checkOwner */\n      tag_147\n        /* \"@openzeppelin/contracts/access/Ownable.sol\":1094:1107  _checkOwner() */\n      jump\t// in\n    tag_146:\n        /* \"contracts/FungusFeeding.sol\":1237:1245  address_ */\n      dup1\n        /* \"contracts/FungusFeeding.sol\":1201:1213  feedContract */\n      0x07\n      0x00\n        /* \"contracts/FungusFeeding.sol\":1201:1246  feedContract = FeedFactoryInterface(address_) */\n      0x0100\n      exp\n      dup2\n      sload\n      dup2\n      0xffffffffffffffffffffffffffffffffffffffff\n      mul\n      not\n      and\n      swap1\n      dup4\n      0xffffffffffffffffffffffffffffffffffffffff\n      and\n      mul\n      or\n      swap1\n      sstore\n      pop\n        /* \"contracts/FungusFeeding.sol\":1068:1254  function setFeedFactoryContractAddress(address address_) external onlyOwner {... */\n      pop\n      jump\t// out\n        /* \"contracts/FungusFeeding.sol\":2271:2694  function feed(uint fungusId, uint feedId) public payable {... */\n    tag_66:\n        /* \"contracts/FungusFeeding.sol\":2339:2351  uint feedDna */\n      0x00\n        /* \"contracts/FungusFeeding.sol\":2362:2376  uint feedPrice */\n      dup1\n        /* \"contracts/FungusFeeding.sol\":2529:2541  feedContract */\n      0x07\n      0x00\n      swap1\n      sload\n      swap1\n      0x0100\n      exp\n      swap1\n      div\n      0xffffffffffffffffffffffffffffffffffffffff\n      and\n        /* \"contracts/FungusFeeding.sol\":2529:2549  feedContract.getFeed */\n      0xffffffffffffffffffffffffffffffffffffffff\n      and\n      0xecb76d90\n        /* \"contracts/FungusFeeding.sol\":2550:2556  feedId */\n      dup5\n        /* \"contracts/FungusFeeding.sol\":2529:2557  feedContract.getFeed(feedId) */\n      mload(0x40)\n      dup3\n      0xffffffff\n      and\n      0xe0\n      shl\n      dup2\n      mstore\n      0x04\n      add\n      tag_150\n      swap2\n      swap1\n      tag_72\n      jump\t// in\n    tag_150:\n      0x00\n      mload(0x40)\n      dup1\n      dup4\n      sub\n      dup2\n      dup7\n      gas\n      staticcall\n      iszero\n      dup1\n      iszero\n      tag_152\n      jumpi\n      returndatasize\n      0x00\n      dup1\n      returndatacopy\n      revert(0x00, returndatasize)\n    tag_152:\n      pop\n      pop\n      pop\n      pop\n      mload(0x40)\n      returndatasize\n      0x00\n      dup3\n      returndatacopy\n      returndatasize\n      not(0x1f)\n      0x1f\n      dup3\n      add\n      and\n      dup3\n      add\n      dup1\n      0x40\n      mstore\n      pop\n      dup2\n      add\n      swap1\n      tag_153\n      swap2\n      swap1\n      tag_154\n      jump\t// in\n    tag_153:\n        /* \"contracts/FungusFeeding.sol\":2506:2557  (,feedDna,feedPrice) = feedContract.getFeed(feedId) */\n      swap1\n      swap2\n      pop\n      dup1\n      swap3\n      pop\n      dup2\n      swap4\n      pop\n      pop\n      pop\n        /* \"contracts/FungusFeeding.sol\":2589:2598  feedPrice */\n      dup1\n        /* \"contracts/FungusFeeding.sol\":2576:2585  msg.value */\n      callvalue\n        /* \"contracts/FungusFeeding.sol\":2576:2598  msg.value == feedPrice */\n      eq\n        /* \"contracts/FungusFeeding.sol\":2568:2633  require(msg.value == feedPrice, \"be paid inappropriate expenses\") */\n      tag_155\n      jumpi\n      mload(0x40)\n      0x08c379a000000000000000000000000000000000000000000000000000000000\n      dup2\n      mstore\n      0x04\n      add\n      tag_156\n      swap1\n      tag_157\n      jump\t// in\n    tag_156:\n      mload(0x40)\n      dup1\n      swap2\n      sub\n      swap1\n      revert\n    tag_155:\n        /* \"contracts/FungusFeeding.sol\":2644:2686  feedAndMultiply(fungusId, feedDna, \"feed\") */\n      tag_158\n        /* \"contracts/FungusFeeding.sol\":2660:2668  fungusId */\n      dup5\n        /* \"contracts/FungusFeeding.sol\":2670:2677  feedDna */\n      dup4\n        /* \"contracts/FungusFeeding.sol\":2644:2686  feedAndMultiply(fungusId, feedDna, \"feed\") */\n      mload(0x40)\n      dup1\n      0x40\n      add\n      0x40\n      mstore\n      dup1\n      0x04\n      dup2\n      mstore\n      0x20\n      add\n      0x6665656400000000000000000000000000000000000000000000000000000000\n      dup2\n      mstore\n      pop\n        /* \"contracts/FungusFeeding.sol\":2644:2659  feedAndMultiply */\n      tag_159\n        /* \"contracts/FungusFeeding.sol\":2644:2686  feedAndMultiply(fungusId, feedDna, \"feed\") */\n      jump\t// in\n    tag_158:\n        /* \"contracts/FungusFeeding.sol\":2328:2694  {... */\n      pop\n      pop\n        /* \"contracts/FungusFeeding.sol\":2271:2694  function feed(uint fungusId, uint feedId) public payable {... */\n      pop\n      pop\n      jump\t// out\n        /* \"contracts/FungusFactory.sol\":563:612  mapping (address => uint) public ownerFungusCount */\n    tag_70:\n      mstore(0x20, 0x06)\n      dup1\n      0x00\n      mstore\n      keccak256(0x00, 0x40)\n      0x00\n      swap2\n      pop\n      swap1\n      pop\n      sload\n      dup2\n      jump\t// out\n        /* \"contracts/FungusOwnership.sol\":544:662  function balanceOf(address owner) public view returns (uint balance) {... */\n    tag_76:\n        /* \"contracts/FungusOwnership.sol\":599:611  uint balance */\n      0x00\n        /* \"contracts/FungusOwnership.sol\":631:647  ownerFungusCount */\n      0x06\n        /* \"contracts/FungusOwnership.sol\":631:654  ownerFungusCount[owner] */\n      0x00\n        /* \"contracts/FungusOwnership.sol\":648:653  owner */\n      dup4\n        /* \"contracts/FungusOwnership.sol\":631:654  ownerFungusCount[owner] */\n      0xffffffffffffffffffffffffffffffffffffffff\n      and\n      0xffffffffffffffffffffffffffffffffffffffff\n      and\n      dup2\n      mstore\n      0x20\n      add\n      swap1\n      dup2\n      mstore\n      0x20\n      add\n      0x00\n      keccak256\n      sload\n        /* \"contracts/FungusOwnership.sol\":624:654  return ownerFungusCount[owner] */\n      swap1\n      pop\n        /* \"contracts/FungusOwnership.sol\":544:662  function balanceOf(address owner) public view returns (uint balance) {... */\n      swap2\n      swap1\n      pop\n      jump\t// out\n        /* \"@openzeppelin/contracts/access/Ownable.sol\":1831:1932  function renounceOwnership() public virtual onlyOwner {... */\n    tag_80:\n        /* \"@openzeppelin/contracts/access/Ownable.sol\":1094:1107  _checkOwner() */\n      tag_162\n        /* \"@openzeppelin/contracts/access/Ownable.sol\":1094:1105  _checkOwner */\n      tag_147\n        /* \"@openzeppelin/contracts/access/Ownable.sol\":1094:1107  _checkOwner() */\n      jump\t// in\n    tag_162:\n        /* \"@openzeppelin/contracts/access/Ownable.sol\":1895:1925  _transferOwnership(address(0)) */\n      tag_164\n        /* \"@openzeppelin/contracts/access/Ownable.sol\":1922:1923  0 */\n      0x00\n        /* \"@openzeppelin/contracts/access/Ownable.sol\":1895:1913  _transferOwnership */\n      tag_165\n        /* \"@openzeppelin/contracts/access/Ownable.sol\":1895:1925  _transferOwnership(address(0)) */\n      jump\t// in\n    tag_164:\n        /* \"@openzeppelin/contracts/access/Ownable.sol\":1831:1932  function renounceOwnership() public virtual onlyOwner {... */\n      jump\t// out\n        /* \"@openzeppelin/contracts/access/Ownable.sol\":1201:1286  function owner() public view virtual returns (address) {... */\n    tag_83:\n        /* \"@openzeppelin/contracts/access/Ownable.sol\":1247:1254  address */\n      0x00\n        /* \"@openzeppelin/contracts/access/Ownable.sol\":1273:1279  _owner */\n      dup1\n      0x00\n      swap1\n      sload\n      swap1\n      0x0100\n      exp\n      swap1\n      div\n      0xffffffffffffffffffffffffffffffffffffffff\n      and\n        /* \"@openzeppelin/contracts/access/Ownable.sol\":1266:1279  return _owner */\n      swap1\n      pop\n        /* \"@openzeppelin/contracts/access/Ownable.sol\":1201:1286  function owner() public view virtual returns (address) {... */\n      swap1\n      jump\t// out\n        /* \"@openzeppelin/contracts/access/Ownable.sol\":2081:2279  function transferOwnership(address newOwner) public virtual onlyOwner {... */\n    tag_88:\n        /* \"@openzeppelin/contracts/access/Ownable.sol\":1094:1107  _checkOwner() */\n      tag_168\n        /* \"@openzeppelin/contracts/access/Ownable.sol\":1094:1105  _checkOwner */\n      tag_147\n        /* \"@openzeppelin/contracts/access/Ownable.sol\":1094:1107  _checkOwner() */\n      jump\t// in\n    tag_168:\n        /* \"@openzeppelin/contracts/access/Ownable.sol\":2189:2190  0 */\n      0x00\n        /* \"@openzeppelin/contracts/access/Ownable.sol\":2169:2191  newOwner != address(0) */\n      0xffffffffffffffffffffffffffffffffffffffff\n      and\n        /* \"@openzeppelin/contracts/access/Ownable.sol\":2169:2177  newOwner */\n      dup2\n        /* \"@openzeppelin/contracts/access/Ownable.sol\":2169:2191  newOwner != address(0) */\n      0xffffffffffffffffffffffffffffffffffffffff\n      and\n      eq\n      iszero\n        /* \"@openzeppelin/contracts/access/Ownable.sol\":2161:2234  require(newOwner != address(0), \"Ownable: new owner is the zero address\") */\n      tag_170\n      jumpi\n      mload(0x40)\n      0x08c379a000000000000000000000000000000000000000000000000000000000\n      dup2\n      mstore\n      0x04\n      add\n      tag_171\n      swap1\n      tag_172\n      jump\t// in\n    tag_171:\n      mload(0x40)\n      dup1\n      swap2\n      sub\n      swap1\n      revert\n    tag_170:\n        /* \"@openzeppelin/contracts/access/Ownable.sol\":2244:2272  _transferOwnership(newOwner) */\n      tag_173\n        /* \"@openzeppelin/contracts/access/Ownable.sol\":2263:2271  newOwner */\n      dup2\n        /* \"@openzeppelin/contracts/access/Ownable.sol\":2244:2262  _transferOwnership */\n      tag_165\n        /* \"@openzeppelin/contracts/access/Ownable.sol\":2244:2272  _transferOwnership(newOwner) */\n      jump\t// in\n    tag_173:\n        /* \"@openzeppelin/contracts/access/Ownable.sol\":2081:2279  function transferOwnership(address newOwner) public virtual onlyOwner {... */\n      pop\n      jump\t// out\n        /* \"@openzeppelin/contracts/utils/Context.sol\":640:736  function _msgSender() internal view virtual returns (address) {... */\n    tag_95:\n        /* \"@openzeppelin/contracts/utils/Context.sol\":693:700  address */\n      0x00\n        /* \"@openzeppelin/contracts/utils/Context.sol\":719:729  msg.sender */\n      caller\n        /* \"@openzeppelin/contracts/utils/Context.sol\":712:729  return msg.sender */\n      swap1\n      pop\n        /* \"@openzeppelin/contracts/utils/Context.sol\":640:736  function _msgSender() internal view virtual returns (address) {... */\n      swap1\n      jump\t// out\n        /* \"contracts/FungusOwnership.sol\":2544:2705  function _approveToken(address to, uint tokenId) private {... */\n    tag_102:\n        /* \"contracts/FungusOwnership.sol\":2640:2642  to */\n      dup2\n        /* \"contracts/FungusOwnership.sol\":2612:2628  operatorApproval */\n      0x08\n        /* \"contracts/FungusOwnership.sol\":2612:2637  operatorApproval[tokenId] */\n      0x00\n        /* \"contracts/FungusOwnership.sol\":2629:2636  tokenId */\n      dup4\n        /* \"contracts/FungusOwnership.sol\":2612:2637  operatorApproval[tokenId] */\n      dup2\n      mstore\n      0x20\n      add\n      swap1\n      dup2\n      mstore\n      0x20\n      add\n      0x00\n      keccak256\n      0x00\n        /* \"contracts/FungusOwnership.sol\":2612:2642  operatorApproval[tokenId] = to */\n      0x0100\n      exp\n      dup2\n      sload\n      dup2\n      0xffffffffffffffffffffffffffffffffffffffff\n      mul\n      not\n      and\n      swap1\n      dup4\n      0xffffffffffffffffffffffffffffffffffffffff\n      and\n      mul\n      or\n      swap1\n      sstore\n      pop\n        /* \"contracts/FungusOwnership.sol\":2685:2687  to */\n      dup2\n        /* \"contracts/FungusOwnership.sol\":2658:2697  Approval(ownerOf(tokenId), to, tokenId) */\n      0xffffffffffffffffffffffffffffffffffffffff\n      and\n        /* \"contracts/FungusOwnership.sol\":2667:2683  ownerOf(tokenId) */\n      tag_176\n        /* \"contracts/FungusOwnership.sol\":2675:2682  tokenId */\n      dup3\n        /* \"contracts/FungusOwnership.sol\":2667:2674  ownerOf */\n      tag_51\n        /* \"contracts/FungusOwnership.sol\":2667:2683  ownerOf(tokenId) */\n      jump\t// in\n    tag_176:\n        /* \"contracts/FungusOwnership.sol\":2658:2697  Approval(ownerOf(tokenId), to, tokenId) */\n      0xffffffffffffffffffffffffffffffffffffffff\n      and\n      0x8c5be1e5ebec7d5bd14f71427d1e84f3dd0314c0f7b2291e5b200ac8c7c3b925\n        /* \"contracts/FungusOwnership.sol\":2689:2696  tokenId */\n      dup4\n        /* \"contracts/FungusOwnership.sol\":2658:2697  Approval(ownerOf(tokenId), to, tokenId) */\n      mload(0x40)\n      tag_177\n      swap2\n      swap1\n      tag_72\n      jump\t// in\n    tag_177:\n      mload(0x40)\n      dup1\n      swap2\n      sub\n      swap1\n      log3\n        /* \"contracts/FungusOwnership.sol\":2544:2705  function _approveToken(address to, uint tokenId) private {... */\n      pop\n      pop\n      jump\t// out\n        /* \"contracts/FungusOwnership.sol\":1745:2536  function _transfer(address from, address to, uint tokenId) private {... */\n    tag_127:\n        /* \"contracts/FungusOwnership.sol\":1930:1934  from */\n      dup3\n        /* \"contracts/FungusOwnership.sol\":1910:1934  ownerOf(tokenId) == from */\n      0xffffffffffffffffffffffffffffffffffffffff\n      and\n        /* \"contracts/FungusOwnership.sol\":1910:1926  ownerOf(tokenId) */\n      tag_179\n        /* \"contracts/FungusOwnership.sol\":1918:1925  tokenId */\n      dup3\n        /* \"contracts/FungusOwnership.sol\":1910:1917  ownerOf */\n      tag_51\n        /* \"contracts/FungusOwnership.sol\":1910:1926  ownerOf(tokenId) */\n      jump\t// in\n    tag_179:\n        /* \"contracts/FungusOwnership.sol\":1910:1934  ownerOf(tokenId) == from */\n      0xffffffffffffffffffffffffffffffffffffffff\n      and\n      eq\n        /* \"contracts/FungusOwnership.sol\":1902:1968  require(ownerOf(tokenId) == from, \"transfer from incorrect owner\") */\n      tag_180\n      jumpi\n      mload(0x40)\n      0x08c379a000000000000000000000000000000000000000000000000000000000\n      dup2\n      mstore\n      0x04\n      add\n      tag_181\n      swap1\n      tag_182\n      jump\t// in\n    tag_181:\n      mload(0x40)\n      dup1\n      swap2\n      sub\n      swap1\n      revert\n    tag_180:\n        /* \"contracts/FungusOwnership.sol\":2095:2096  0 */\n      0x00\n        /* \"contracts/FungusOwnership.sol\":2081:2097  to != address(0) */\n      0xffffffffffffffffffffffffffffffffffffffff\n      and\n        /* \"contracts/FungusOwnership.sol\":2081:2083  to */\n      dup3\n        /* \"contracts/FungusOwnership.sol\":2081:2097  to != address(0) */\n      0xffffffffffffffffffffffffffffffffffffffff\n      and\n      eq\n      iszero\n        /* \"contracts/FungusOwnership.sol\":2073:2130  require(to != address(0), \"transfer to the zero address\") */\n      tag_183\n      jumpi\n      mload(0x40)\n      0x08c379a000000000000000000000000000000000000000000000000000000000\n      dup2\n      mstore\n      0x04\n      add\n      tag_184\n      swap1\n      tag_185\n      jump\t// in\n    tag_184:\n      mload(0x40)\n      dup1\n      swap2\n      sub\n      swap1\n      revert\n    tag_183:\n        /* \"contracts/FungusOwnership.sol\":2243:2277  _approveToken(address(0), tokenId) */\n      tag_186\n        /* \"contracts/FungusOwnership.sol\":2265:2266  0 */\n      0x00\n        /* \"contracts/FungusOwnership.sol\":2269:2276  tokenId */\n      dup3\n        /* \"contracts/FungusOwnership.sol\":2243:2256  _approveToken */\n      tag_102\n        /* \"contracts/FungusOwnership.sol\":2243:2277  _approveToken(address(0), tokenId) */\n      jump\t// in\n    tag_186:\n        /* \"contracts/FungusOwnership.sol\":2350:2366  ownerFungusCount */\n      0x06\n        /* \"contracts/FungusOwnership.sol\":2350:2372  ownerFungusCount[from] */\n      0x00\n        /* \"contracts/FungusOwnership.sol\":2367:2371  from */\n      dup5\n        /* \"contracts/FungusOwnership.sol\":2350:2372  ownerFungusCount[from] */\n      0xffffffffffffffffffffffffffffffffffffffff\n      and\n      0xffffffffffffffffffffffffffffffffffffffff\n      and\n      dup2\n      mstore\n      0x20\n      add\n      swap1\n      dup2\n      mstore\n      0x20\n      add\n      0x00\n      keccak256\n      0x00\n        /* \"contracts/FungusOwnership.sol\":2350:2374  ownerFungusCount[from]-- */\n      dup2\n      sload\n      dup1\n      swap3\n      swap2\n      swap1\n      tag_187\n      swap1\n      tag_188\n      jump\t// in\n    tag_187:\n      swap2\n      swap1\n      pop\n      sstore\n      pop\n        /* \"contracts/FungusOwnership.sol\":2385:2401  ownerFungusCount */\n      0x06\n        /* \"contracts/FungusOwnership.sol\":2385:2405  ownerFungusCount[to] */\n      0x00\n        /* \"contracts/FungusOwnership.sol\":2402:2404  to */\n      dup4\n        /* \"contracts/FungusOwnership.sol\":2385:2405  ownerFungusCount[to] */\n      0xffffffffffffffffffffffffffffffffffffffff\n      and\n      0xffffffffffffffffffffffffffffffffffffffff\n      and\n      dup2\n      mstore\n      0x20\n      add\n      swap1\n      dup2\n      mstore\n      0x20\n      add\n      0x00\n      keccak256\n      0x00\n        /* \"contracts/FungusOwnership.sol\":2385:2407  ownerFungusCount[to]++ */\n      dup2\n      sload\n      dup1\n      swap3\n      swap2\n      swap1\n      tag_189\n      swap1\n      tag_116\n      jump\t// in\n    tag_189:\n      swap2\n      swap1\n      pop\n      sstore\n      pop\n        /* \"contracts/FungusOwnership.sol\":2443:2445  to */\n      dup2\n        /* \"contracts/FungusOwnership.sol\":2418:2431  fungusToOwner */\n      0x05\n        /* \"contracts/FungusOwnership.sol\":2418:2440  fungusToOwner[tokenId] */\n      0x00\n        /* \"contracts/FungusOwnership.sol\":2432:2439  tokenId */\n      dup4\n        /* \"contracts/FungusOwnership.sol\":2418:2440  fungusToOwner[tokenId] */\n      dup2\n      mstore\n      0x20\n      add\n      swap1\n      dup2\n      mstore\n      0x20\n      add\n      0x00\n      keccak256\n      0x00\n        /* \"contracts/FungusOwnership.sol\":2418:2445  fungusToOwner[tokenId] = to */\n      0x0100\n      exp\n      dup2\n      sload\n      dup2\n      0xffffffffffffffffffffffffffffffffffffffff\n      mul\n      not\n      and\n      swap1\n      dup4\n      0xffffffffffffffffffffffffffffffffffffffff\n      and\n      mul\n      or\n      swap1\n      sstore\n      pop\n        /* \"contracts/FungusOwnership.sol\":2516:2518  to */\n      dup2\n        /* \"contracts/FungusOwnership.sol\":2501:2528  Transfer(from, to, tokenId) */\n      0xffffffffffffffffffffffffffffffffffffffff\n      and\n        /* \"contracts/FungusOwnership.sol\":2510:2514  from */\n      dup4\n        /* \"contracts/FungusOwnership.sol\":2501:2528  Transfer(from, to, tokenId) */\n      0xffffffffffffffffffffffffffffffffffffffff\n      and\n      0xddf252ad1be2c89b69c2b068fc378daa952ba7f163c4a11628f55a4df523b3ef\n        /* \"contracts/FungusOwnership.sol\":2520:2527  tokenId */\n      dup4\n        /* \"contracts/FungusOwnership.sol\":2501:2528  Transfer(from, to, tokenId) */\n      mload(0x40)\n      tag_190\n      swap2\n      swap1\n      tag_72\n      jump\t// in\n    tag_190:\n      mload(0x40)\n      dup1\n      swap2\n      sub\n      swap1\n      log3\n        /* \"contracts/FungusOwnership.sol\":1745:2536  function _transfer(address from, address to, uint tokenId) private {... */\n      pop\n      pop\n      pop\n      jump\t// out\n        /* \"contracts/FungusFactory.sol\":938:1167  function _generateRandomDna(string calldata _str) private view returns (uint) {... */\n    tag_133:\n        /* \"contracts/FungusFactory.sol\":1010:1014  uint */\n      0x00\n        /* \"contracts/FungusFactory.sol\":1027:1036  uint rand */\n      dup1\n        /* \"contracts/FungusFactory.sol\":1060:1064  _str */\n      dup4\n      dup4\n        /* \"contracts/FungusFactory.sol\":1044:1066  keccak256(bytes(_str)) */\n      mload(0x40)\n      tag_192\n      swap3\n      swap2\n      swap1\n      tag_193\n      jump\t// in\n    tag_192:\n      mload(0x40)\n      dup1\n      swap2\n      sub\n      swap1\n      keccak256\n        /* \"contracts/FungusFactory.sol\":1039:1067  uint(keccak256(bytes(_str))) */\n      0x00\n      shr\n        /* \"contracts/FungusFactory.sol\":1027:1067  uint rand = uint(keccak256(bytes(_str))) */\n      swap1\n      pop\n        /* \"contracts/FungusFactory.sol\":1078:1086  uint dna */\n      0x00\n        /* \"contracts/FungusFactory.sol\":1096:1106  dnaModulus */\n      sload(0x02)\n        /* \"contracts/FungusFactory.sol\":1089:1093  rand */\n      dup3\n        /* \"contracts/FungusFactory.sol\":1089:1106  rand % dnaModulus */\n      tag_194\n      swap2\n      swap1\n      tag_195\n      jump\t// in\n    tag_194:\n        /* \"contracts/FungusFactory.sol\":1078:1106  uint dna = rand % dnaModulus */\n      swap1\n      pop\n        /* \"contracts/FungusFactory.sol\":1135:1138  100 */\n      0x64\n        /* \"contracts/FungusFactory.sol\":1129:1132  dna */\n      dup2\n        /* \"contracts/FungusFactory.sol\":1129:1138  dna % 100 */\n      tag_196\n      swap2\n      swap1\n      tag_195\n      jump\t// in\n    tag_196:\n        /* \"contracts/FungusFactory.sol\":1123:1126  dna */\n      dup2\n        /* \"contracts/FungusFactory.sol\":1123:1138  dna - dna % 100 */\n      tag_197\n      swap2\n      swap1\n      tag_198\n      jump\t// in\n    tag_197:\n        /* \"contracts/FungusFactory.sol\":1117:1138  dna = dna - dna % 100 */\n      swap1\n      pop\n        /* \"contracts/FungusFactory.sol\":1156:1159  dna */\n      dup1\n        /* \"contracts/FungusFactory.sol\":1149:1159  return dna */\n      swap3\n      pop\n      pop\n      pop\n        /* \"contracts/FungusFactory.sol\":938:1167  function _generateRandomDna(string calldata _str) private view returns (uint) {... */\n      swap3\n      swap2\n      pop\n      pop\n      jump\t// out\n        /* \"contracts/FungusFactory.sol\":621:930  function _createFungus(string memory name, uint dna) internal {... */\n    tag_135:\n        /* \"contracts/FungusFactory.sol\":694:699  fungi */\n      0x04\n        /* \"contracts/FungusFactory.sol\":705:762  Fungus(name, dna, uint32(block.timestamp + cooldownTime)) */\n      mload(0x40)\n      dup1\n      0x60\n      add\n      0x40\n      mstore\n      dup1\n        /* \"contracts/FungusFactory.sol\":712:716  name */\n      dup5\n        /* \"contracts/FungusFactory.sol\":705:762  Fungus(name, dna, uint32(block.timestamp + cooldownTime)) */\n      dup2\n      mstore\n      0x20\n      add\n        /* \"contracts/FungusFactory.sol\":718:721  dna */\n      dup4\n        /* \"contracts/FungusFactory.sol\":705:762  Fungus(name, dna, uint32(block.timestamp + cooldownTime)) */\n      dup2\n      mstore\n      0x20\n      add\n        /* \"contracts/FungusFactory.sol\":748:760  cooldownTime */\n      sload(0x03)\n        /* \"contracts/FungusFactory.sol\":730:745  block.timestamp */\n      timestamp\n        /* \"contracts/FungusFactory.sol\":730:760  block.timestamp + cooldownTime */\n      tag_200\n      swap2\n      swap1\n      tag_201\n      jump\t// in\n    tag_200:\n        /* \"contracts/FungusFactory.sol\":705:762  Fungus(name, dna, uint32(block.timestamp + cooldownTime)) */\n      0xffffffff\n      and\n      dup2\n      mstore\n      pop\n        /* \"contracts/FungusFactory.sol\":694:763  fungi.push(Fungus(name, dna, uint32(block.timestamp + cooldownTime))) */\n      swap1\n      dup1\n      0x01\n      dup2\n      sload\n      add\n      dup1\n      dup3\n      sstore\n      dup1\n      swap2\n      pop\n      pop\n      0x01\n      swap1\n      sub\n      swap1\n      0x00\n      mstore\n      keccak256(0x00, 0x20)\n      swap1\n      0x03\n      mul\n      add\n      0x00\n      swap1\n      swap2\n      swap1\n      swap2\n      swap1\n      swap2\n      pop\n      0x00\n      dup3\n      add\n      mload\n      dup2\n      0x00\n      add\n      swap1\n      dup1\n      mload\n      swap1\n      0x20\n      add\n      swap1\n      tag_203\n      swap3\n      swap2\n      swap1\n      tag_204\n      jump\t// in\n    tag_203:\n      pop\n      0x20\n      dup3\n      add\n      mload\n      dup2\n      0x01\n      add\n      sstore\n      0x40\n      dup3\n      add\n      mload\n      dup2\n      0x02\n      add\n      exp(0x0100, 0x00)\n      dup2\n      sload\n      dup2\n      0xffffffff\n      mul\n      not\n      and\n      swap1\n      dup4\n      0xffffffff\n      and\n      mul\n      or\n      swap1\n      sstore\n      pop\n      pop\n      pop\n        /* \"contracts/FungusFactory.sol\":774:781  uint id */\n      0x00\n        /* \"contracts/FungusFactory.sol\":799:800  1 */\n      0x01\n        /* \"contracts/FungusFactory.sol\":784:789  fungi */\n      0x04\n        /* \"contracts/FungusFactory.sol\":784:796  fungi.length */\n      dup1\n      sload\n      swap1\n      pop\n        /* \"contracts/FungusFactory.sol\":784:800  fungi.length - 1 */\n      tag_205\n      swap2\n      swap1\n      tag_198\n      jump\t// in\n    tag_205:\n        /* \"contracts/FungusFactory.sol\":774:800  uint id = fungi.length - 1 */\n      swap1\n      pop\n        /* \"contracts/FungusFactory.sol\":831:841  msg.sender */\n      caller\n        /* \"contracts/FungusFactory.sol\":811:824  fungusToOwner */\n      0x05\n        /* \"contracts/FungusFactory.sol\":811:828  fungusToOwner[id] */\n      0x00\n        /* \"contracts/FungusFactory.sol\":825:827  id */\n      dup4\n        /* \"contracts/FungusFactory.sol\":811:828  fungusToOwner[id] */\n      dup2\n      mstore\n      0x20\n      add\n      swap1\n      dup2\n      mstore\n      0x20\n      add\n      0x00\n      keccak256\n      0x00\n        /* \"contracts/FungusFactory.sol\":811:841  fungusToOwner[id] = msg.sender */\n      0x0100\n      exp\n      dup2\n      sload\n      dup2\n      0xffffffffffffffffffffffffffffffffffffffff\n      mul\n      not\n      and\n      swap1\n      dup4\n      0xffffffffffffffffffffffffffffffffffffffff\n      and\n      mul\n      or\n      swap1\n      sstore\n      pop\n        /* \"contracts/FungusFactory.sol\":852:868  ownerFungusCount */\n      0x06\n        /* \"contracts/FungusFactory.sol\":852:880  ownerFungusCount[msg.sender] */\n      0x00\n        /* \"contracts/FungusFactory.sol\":869:879  msg.sender */\n      caller\n        /* \"contracts/FungusFactory.sol\":852:880  ownerFungusCount[msg.sender] */\n      0xffffffffffffffffffffffffffffffffffffffff\n      and\n      0xffffffffffffffffffffffffffffffffffffffff\n      and\n      dup2\n      mstore\n      0x20\n      add\n      swap1\n      dup2\n      mstore\n      0x20\n      add\n      0x00\n      keccak256\n      0x00\n        /* \"contracts/FungusFactory.sol\":852:882  ownerFungusCount[msg.sender]++ */\n      dup2\n      sload\n      dup1\n      swap3\n      swap2\n      swap1\n      tag_206\n      swap1\n      tag_116\n      jump\t// in\n    tag_206:\n      swap2\n      swap1\n      pop\n      sstore\n      pop\n        /* \"contracts/FungusFactory.sol\":898:922  NewFungus(id, name, dna) */\n      0xe7cedaa81d0ef09a46e22de5467585892163b2b6e985d853c385ced0fe5c02ef\n        /* \"contracts/FungusFactory.sol\":908:910  id */\n      dup2\n        /* \"contracts/FungusFactory.sol\":912:916  name */\n      dup5\n        /* \"contracts/FungusFactory.sol\":918:921  dna */\n      dup5\n        /* \"contracts/FungusFactory.sol\":898:922  NewFungus(id, name, dna) */\n      mload(0x40)\n      tag_207\n      swap4\n      swap3\n      swap2\n      swap1\n      tag_208\n      jump\t// in\n    tag_207:\n      mload(0x40)\n      dup1\n      swap2\n      sub\n      swap1\n      log1\n        /* \"contracts/FungusFactory.sol\":683:930  {... */\n      pop\n        /* \"contracts/FungusFactory.sol\":621:930  function _createFungus(string memory name, uint dna) internal {... */\n      pop\n      pop\n      jump\t// out\n        /* \"@openzeppelin/contracts/access/Ownable.sol\":1359:1489  function _checkOwner() internal view virtual {... */\n    tag_147:\n        /* \"@openzeppelin/contracts/access/Ownable.sol\":1433:1445  _msgSender() */\n      tag_210\n        /* \"@openzeppelin/contracts/access/Ownable.sol\":1433:1443  _msgSender */\n      tag_95\n        /* \"@openzeppelin/contracts/access/Ownable.sol\":1433:1445  _msgSender() */\n      jump\t// in\n    tag_210:\n        /* \"@openzeppelin/contracts/access/Ownable.sol\":1422:1445  owner() == _msgSender() */\n      0xffffffffffffffffffffffffffffffffffffffff\n      and\n        /* \"@openzeppelin/contracts/access/Ownable.sol\":1422:1429  owner() */\n      tag_211\n        /* \"@openzeppelin/contracts/access/Ownable.sol\":1422:1427  owner */\n      tag_83\n        /* \"@openzeppelin/contracts/access/Ownable.sol\":1422:1429  owner() */\n      jump\t// in\n    tag_211:\n        /* \"@openzeppelin/contracts/access/Ownable.sol\":1422:1445  owner() == _msgSender() */\n      0xffffffffffffffffffffffffffffffffffffffff\n      and\n      eq\n        /* \"@openzeppelin/contracts/access/Ownable.sol\":1414:1482  require(owner() == _msgSender(), \"Ownable: caller is not the owner\") */\n      tag_212\n      jumpi\n      mload(0x40)\n      0x08c379a000000000000000000000000000000000000000000000000000000000\n      dup2\n      mstore\n      0x04\n      add\n      tag_213\n      swap1\n      tag_214\n      jump\t// in\n    tag_213:\n      mload(0x40)\n      dup1\n      swap2\n      sub\n      swap1\n      revert\n    tag_212:\n        /* \"@openzeppelin/contracts/access/Ownable.sol\":1359:1489  function _checkOwner() internal view virtual {... */\n      jump\t// out\n        /* \"contracts/FungusFeeding.sol\":1640:2166  function feedAndMultiply(uint fungusId, uint targetDna, string memory species) internal onlyOwnerOf(fungusId) {... */\n    tag_159:\n        /* \"contracts/FungusFeeding.sol\":1740:1748  fungusId */\n      dup3\n        /* \"contracts/FungusFeeding.sol\":963:976  fungusToOwner */\n      0x05\n        /* \"contracts/FungusFeeding.sol\":963:986  fungusToOwner[fungusId] */\n      0x00\n        /* \"contracts/FungusFeeding.sol\":977:985  fungusId */\n      dup3\n        /* \"contracts/FungusFeeding.sol\":963:986  fungusToOwner[fungusId] */\n      dup2\n      mstore\n      0x20\n      add\n      swap1\n      dup2\n      mstore\n      0x20\n      add\n      0x00\n      keccak256\n      0x00\n      swap1\n      sload\n      swap1\n      0x0100\n      exp\n      swap1\n      div\n      0xffffffffffffffffffffffffffffffffffffffff\n      and\n        /* \"contracts/FungusFeeding.sol\":947:986  _msgSender() == fungusToOwner[fungusId] */\n      0xffffffffffffffffffffffffffffffffffffffff\n      and\n        /* \"contracts/FungusFeeding.sol\":947:959  _msgSender() */\n      tag_216\n        /* \"contracts/FungusFeeding.sol\":947:957  _msgSender */\n      tag_95\n        /* \"contracts/FungusFeeding.sol\":947:959  _msgSender() */\n      jump\t// in\n    tag_216:\n        /* \"contracts/FungusFeeding.sol\":947:986  _msgSender() == fungusToOwner[fungusId] */\n      0xffffffffffffffffffffffffffffffffffffffff\n      and\n      eq\n        /* \"contracts/FungusFeeding.sol\":939:987  require(_msgSender() == fungusToOwner[fungusId]) */\n      tag_217\n      jumpi\n      0x00\n      dup1\n      revert\n    tag_217:\n        /* \"contracts/FungusFeeding.sol\":1761:1783  Fungus memory myFungus */\n      0x00\n        /* \"contracts/FungusFeeding.sol\":1786:1791  fungi */\n      0x04\n        /* \"contracts/FungusFeeding.sol\":1792:1800  fungusId */\n      dup6\n        /* \"contracts/FungusFeeding.sol\":1786:1801  fungi[fungusId] */\n      dup2\n      sload\n      dup2\n      lt\n      tag_219\n      jumpi\n      tag_220\n      tag_114\n      jump\t// in\n    tag_220:\n    tag_219:\n      swap1\n      0x00\n      mstore\n      keccak256(0x00, 0x20)\n      swap1\n      0x03\n      mul\n      add\n        /* \"contracts/FungusFeeding.sol\":1761:1801  Fungus memory myFungus = fungi[fungusId] */\n      mload(0x40)\n      dup1\n      0x60\n      add\n      0x40\n      mstore\n      swap1\n      dup2\n      0x00\n      dup3\n      add\n      dup1\n      sload\n      tag_222\n      swap1\n      tag_140\n      jump\t// in\n    tag_222:\n      dup1\n      0x1f\n      add\n      0x20\n      dup1\n      swap2\n      div\n      mul\n      0x20\n      add\n      mload(0x40)\n      swap1\n      dup2\n      add\n      0x40\n      mstore\n      dup1\n      swap3\n      swap2\n      swap1\n      dup2\n      dup2\n      mstore\n      0x20\n      add\n      dup3\n      dup1\n      sload\n      tag_223\n      swap1\n      tag_140\n      jump\t// in\n    tag_223:\n      dup1\n      iszero\n      tag_224\n      jumpi\n      dup1\n      0x1f\n      lt\n      tag_225\n      jumpi\n      0x0100\n      dup1\n      dup4\n      sload\n      div\n      mul\n      dup4\n      mstore\n      swap2\n      0x20\n      add\n      swap2\n      jump(tag_224)\n    tag_225:\n      dup3\n      add\n      swap2\n      swap1\n      0x00\n      mstore\n      keccak256(0x00, 0x20)\n      swap1\n    tag_226:\n      dup2\n      sload\n      dup2\n      mstore\n      swap1\n      0x01\n      add\n      swap1\n      0x20\n      add\n      dup1\n      dup4\n      gt\n      tag_226\n      jumpi\n      dup3\n      swap1\n      sub\n      0x1f\n      and\n      dup3\n      add\n      swap2\n    tag_224:\n      pop\n      pop\n      pop\n      pop\n      pop\n      dup2\n      mstore\n      0x20\n      add\n      0x01\n      dup3\n      add\n      sload\n      dup2\n      mstore\n      0x20\n      add\n      0x02\n      dup3\n      add\n      0x00\n      swap1\n      sload\n      swap1\n      0x0100\n      exp\n      swap1\n      div\n      0xffffffff\n      and\n      0xffffffff\n      and\n      0xffffffff\n      and\n      dup2\n      mstore\n      pop\n      pop\n      swap1\n      pop\n        /* \"contracts/FungusFeeding.sol\":1820:1838  _isReady(myFungus) */\n      tag_227\n        /* \"contracts/FungusFeeding.sol\":1829:1837  myFungus */\n      dup2\n        /* \"contracts/FungusFeeding.sol\":1820:1828  _isReady */\n      tag_228\n        /* \"contracts/FungusFeeding.sol\":1820:1838  _isReady(myFungus) */\n      jump\t// in\n    tag_227:\n        /* \"contracts/FungusFeeding.sol\":1812:1852  require(_isReady(myFungus), \"not ready\") */\n      tag_229\n      jumpi\n      mload(0x40)\n      0x08c379a000000000000000000000000000000000000000000000000000000000\n      dup2\n      mstore\n      0x04\n      add\n      tag_230\n      swap1\n      tag_231\n      jump\t// in\n    tag_230:\n      mload(0x40)\n      dup1\n      swap2\n      sub\n      swap1\n      revert\n    tag_229:\n        /* \"contracts/FungusFeeding.sol\":1887:1897  dnaModulus */\n      sload(0x02)\n        /* \"contracts/FungusFeeding.sol\":1875:1884  targetDna */\n      dup5\n        /* \"contracts/FungusFeeding.sol\":1875:1897  targetDna % dnaModulus */\n      tag_232\n      swap2\n      swap1\n      tag_195\n      jump\t// in\n    tag_232:\n        /* \"contracts/FungusFeeding.sol\":1863:1897  targetDna = targetDna % dnaModulus */\n      swap4\n      pop\n        /* \"contracts/FungusFeeding.sol\":1908:1919  uint newDna */\n      0x00\n        /* \"contracts/FungusFeeding.sol\":1951:1952  2 */\n      0x02\n        /* \"contracts/FungusFeeding.sol\":1938:1947  targetDna */\n      dup6\n        /* \"contracts/FungusFeeding.sol\":1923:1931  myFungus */\n      dup4\n        /* \"contracts/FungusFeeding.sol\":1923:1935  myFungus.dna */\n      0x20\n      add\n      mload\n        /* \"contracts/FungusFeeding.sol\":1923:1947  myFungus.dna + targetDna */\n      tag_233\n      swap2\n      swap1\n      tag_201\n      jump\t// in\n    tag_233:\n        /* \"contracts/FungusFeeding.sol\":1922:1952  (myFungus.dna + targetDna) / 2 */\n      tag_234\n      swap2\n      swap1\n      tag_235\n      jump\t// in\n    tag_234:\n        /* \"contracts/FungusFeeding.sol\":1908:1952  uint newDna = (myFungus.dna + targetDna) / 2 */\n      swap1\n      pop\n        /* \"contracts/FungusFeeding.sol\":1998:2015  keccak256(\"feed\") */\n      0x4258863e2d81c316e4a4dd381c3c50f57f933be22afba98b4485a605da0f7811\n        /* \"contracts/FungusFeeding.sol\":1985:1992  species */\n      dup5\n        /* \"contracts/FungusFeeding.sol\":1969:1994  keccak256(bytes(species)) */\n      dup1\n      mload\n      swap1\n      0x20\n      add\n      keccak256\n        /* \"contracts/FungusFeeding.sol\":1969:2015  keccak256(bytes(species)) == keccak256(\"feed\") */\n      eq\n        /* \"contracts/FungusFeeding.sol\":1965:2078  if (keccak256(bytes(species)) == keccak256(\"feed\")) {... */\n      iszero\n      tag_236\n      jumpi\n        /* \"contracts/FungusFeeding.sol\":2065:2066  1 */\n      0x01\n        /* \"contracts/FungusFeeding.sol\":2059:2062  100 */\n      0x64\n        /* \"contracts/FungusFeeding.sol\":2050:2056  newDna */\n      dup3\n        /* \"contracts/FungusFeeding.sol\":2050:2062  newDna % 100 */\n      tag_237\n      swap2\n      swap1\n      tag_195\n      jump\t// in\n    tag_237:\n        /* \"contracts/FungusFeeding.sol\":2041:2047  newDna */\n      dup3\n        /* \"contracts/FungusFeeding.sol\":2041:2062  newDna - newDna % 100 */\n      tag_238\n      swap2\n      swap1\n      tag_198\n      jump\t// in\n    tag_238:\n        /* \"contracts/FungusFeeding.sol\":2041:2066  newDna - newDna % 100 + 1 */\n      tag_239\n      swap2\n      swap1\n      tag_201\n      jump\t// in\n    tag_239:\n        /* \"contracts/FungusFeeding.sol\":2032:2066  newDna = newDna - newDna % 100 + 1 */\n      swap1\n      pop\n        /* \"contracts/FungusFeeding.sol\":1965:2078  if (keccak256(bytes(species)) == keccak256(\"feed\")) {... */\n    tag_236:\n        /* \"contracts/FungusFeeding.sol\":2090:2121  _createFungus(\"Noname\", newDna) */\n      tag_240\n      mload(0x40)\n      dup1\n      0x40\n      add\n      0x40\n      mstore\n      dup1\n      0x06\n      dup2\n      mstore\n      0x20\n      add\n      0x4e6f6e616d650000000000000000000000000000000000000000000000000000\n      dup2\n      mstore\n      pop\n        /* \"contracts/FungusFeeding.sol\":2114:2120  newDna */\n      dup3\n        /* \"contracts/FungusFeeding.sol\":2090:2103  _createFungus */\n      tag_135\n        /* \"contracts/FungusFeeding.sol\":2090:2121  _createFungus(\"Noname\", newDna) */\n      jump\t// in\n    tag_240:\n        /* \"contracts/FungusFeeding.sol\":2132:2158  _triggerCooldown(myFungus) */\n      tag_241\n        /* \"contracts/FungusFeeding.sol\":2149:2157  myFungus */\n      dup3\n        /* \"contracts/FungusFeeding.sol\":2132:2148  _triggerCooldown */\n      tag_242\n        /* \"contracts/FungusFeeding.sol\":2132:2158  _triggerCooldown(myFungus) */\n      jump\t// in\n    tag_241:\n        /* \"contracts/FungusFeeding.sol\":1750:2166  {... */\n      pop\n      pop\n        /* \"contracts/FungusFeeding.sol\":1640:2166  function feedAndMultiply(uint fungusId, uint targetDna, string memory species) internal onlyOwnerOf(fungusId) {... */\n      pop\n      pop\n      pop\n      pop\n      jump\t// out\n        /* \"@openzeppelin/contracts/access/Ownable.sol\":2433:2620  function _transferOwnership(address newOwner) internal virtual {... */\n    tag_165:\n        /* \"@openzeppelin/contracts/access/Ownable.sol\":2506:2522  address oldOwner */\n      0x00\n        /* \"@openzeppelin/contracts/access/Ownable.sol\":2525:2531  _owner */\n      dup1\n      0x00\n      swap1\n      sload\n      swap1\n      0x0100\n      exp\n      swap1\n      div\n      0xffffffffffffffffffffffffffffffffffffffff\n      and\n        /* \"@openzeppelin/contracts/access/Ownable.sol\":2506:2531  address oldOwner = _owner */\n      swap1\n      pop\n        /* \"@openzeppelin/contracts/access/Ownable.sol\":2550:2558  newOwner */\n      dup2\n        /* \"@openzeppelin/contracts/access/Ownable.sol\":2541:2547  _owner */\n      0x00\n      dup1\n        /* \"@openzeppelin/contracts/access/Ownable.sol\":2541:2558  _owner = newOwner */\n      0x0100\n      exp\n      dup2\n      sload\n      dup2\n      0xffffffffffffffffffffffffffffffffffffffff\n      mul\n      not\n      and\n      swap1\n      dup4\n      0xffffffffffffffffffffffffffffffffffffffff\n      and\n      mul\n      or\n      swap1\n      sstore\n      pop\n        /* \"@openzeppelin/contracts/access/Ownable.sol\":2604:2612  newOwner */\n      dup2\n        /* \"@openzeppelin/contracts/access/Ownable.sol\":2573:2613  OwnershipTransferred(oldOwner, newOwner) */\n      0xffffffffffffffffffffffffffffffffffffffff\n      and\n        /* \"@openzeppelin/contracts/access/Ownable.sol\":2594:2602  oldOwner */\n      dup2\n        /* \"@openzeppelin/contracts/access/Ownable.sol\":2573:2613  OwnershipTransferred(oldOwner, newOwner) */\n      0xffffffffffffffffffffffffffffffffffffffff\n      and\n      0x8be0079c531659141344cd1fd0a4f28419497f9722a3daafe3b4186f6b6457e0\n      mload(0x40)\n      mload(0x40)\n      dup1\n      swap2\n      sub\n      swap1\n      log3\n        /* \"@openzeppelin/contracts/access/Ownable.sol\":2496:2620  {... */\n      pop\n        /* \"@openzeppelin/contracts/access/Ownable.sol\":2433:2620  function _transferOwnership(address newOwner) internal virtual {... */\n      pop\n      jump\t// out\n        /* \"contracts/FungusFeeding.sol\":1500:1632  function _isReady(Fungus memory fungus) internal view returns (bool) {... */\n    tag_228:\n        /* \"contracts/FungusFeeding.sol\":1563:1567  bool */\n      0x00\n        /* \"contracts/FungusFeeding.sol\":1608:1623  block.timestamp */\n      timestamp\n        /* \"contracts/FungusFeeding.sol\":1588:1594  fungus */\n      dup3\n        /* \"contracts/FungusFeeding.sol\":1588:1604  fungus.readyTime */\n      0x40\n      add\n      mload\n        /* \"contracts/FungusFeeding.sol\":1588:1623  fungus.readyTime <= block.timestamp */\n      0xffffffff\n      and\n      gt\n      iszero\n        /* \"contracts/FungusFeeding.sol\":1580:1624  return (fungus.readyTime <= block.timestamp) */\n      swap1\n      pop\n        /* \"contracts/FungusFeeding.sol\":1500:1632  function _isReady(Fungus memory fungus) internal view returns (bool) {... */\n      swap2\n      swap1\n      pop\n      jump\t// out\n        /* \"contracts/FungusFeeding.sol\":1350:1492  function _triggerCooldown(Fungus memory fungus) internal view {    ... */\n    tag_242:\n        /* \"contracts/FungusFeeding.sol\":1471:1483  cooldownTime */\n      sload(0x03)\n        /* \"contracts/FungusFeeding.sol\":1453:1468  block.timestamp */\n      timestamp\n        /* \"contracts/FungusFeeding.sol\":1453:1483  block.timestamp + cooldownTime */\n      tag_246\n      swap2\n      swap1\n      tag_201\n      jump\t// in\n    tag_246:\n        /* \"contracts/FungusFeeding.sol\":1427:1433  fungus */\n      dup2\n        /* \"contracts/FungusFeeding.sol\":1427:1443  fungus.readyTime */\n      0x40\n      add\n        /* \"contracts/FungusFeeding.sol\":1427:1484  fungus.readyTime = uint32(block.timestamp + cooldownTime) */\n      swap1\n      0xffffffff\n      and\n      swap1\n      dup2\n      0xffffffff\n      and\n      dup2\n      mstore\n      pop\n      pop\n        /* \"contracts/FungusFeeding.sol\":1350:1492  function _triggerCooldown(Fungus memory fungus) internal view {    ... */\n      pop\n      jump\t// out\n    tag_204:\n      dup3\n      dup1\n      sload\n      tag_247\n      swap1\n      tag_140\n      jump\t// in\n    tag_247:\n      swap1\n      0x00\n      mstore\n      keccak256(0x00, 0x20)\n      swap1\n      0x1f\n      add\n      0x20\n      swap1\n      div\n      dup2\n      add\n      swap3\n      dup3\n      tag_249\n      jumpi\n      0x00\n      dup6\n      sstore\n      jump(tag_248)\n    tag_249:\n      dup3\n      0x1f\n      lt\n      tag_250\n      jumpi\n      dup1\n      mload\n      not(0xff)\n      and\n      dup4\n      dup1\n      add\n      or\n      dup6\n      sstore\n      jump(tag_248)\n    tag_250:\n      dup3\n      dup1\n      add\n      0x01\n      add\n      dup6\n      sstore\n      dup3\n      iszero\n      tag_248\n      jumpi\n      swap2\n      dup3\n      add\n    tag_251:\n      dup3\n      dup2\n      gt\n      iszero\n      tag_252\n      jumpi\n      dup3\n      mload\n      dup3\n      sstore\n      swap2\n      0x20\n      add\n      swap2\n      swap1\n      0x01\n      add\n      swap1\n      jump(tag_251)\n    tag_252:\n    tag_248:\n      pop\n      swap1\n      pop\n      tag_253\n      swap2\n      swap1\n      tag_254\n      jump\t// in\n    tag_253:\n      pop\n      swap1\n      jump\t// out\n    tag_254:\n    tag_255:\n      dup1\n      dup3\n      gt\n      iszero\n      tag_256\n      jumpi\n      0x00\n      dup2\n      0x00\n      swap1\n      sstore\n      pop\n      0x01\n      add\n      jump(tag_255)\n    tag_256:\n      pop\n      swap1\n      jump\t// out\n        /* \"#utility.yul\":7:82   */\n    tag_257:\n        /* \"#utility.yul\":40:46   */\n      0x00\n        /* \"#utility.yul\":73:75   */\n      0x40\n        /* \"#utility.yul\":67:76   */\n      mload\n        /* \"#utility.yul\":57:76   */\n      swap1\n      pop\n        /* \"#utility.yul\":7:82   */\n      swap1\n      jump\t// out\n        /* \"#utility.yul\":88:205   */\n    tag_258:\n        /* \"#utility.yul\":197:198   */\n      0x00\n        /* \"#utility.yul\":194:195   */\n      dup1\n        /* \"#utility.yul\":187:199   */\n      revert\n        /* \"#utility.yul\":211:328   */\n    tag_259:\n        /* \"#utility.yul\":320:321   */\n      0x00\n        /* \"#utility.yul\":317:318   */\n      dup1\n        /* \"#utility.yul\":310:322   */\n      revert\n        /* \"#utility.yul\":334:460   */\n    tag_260:\n        /* \"#utility.yul\":371:378   */\n      0x00\n        /* \"#utility.yul\":411:453   */\n      0xffffffffffffffffffffffffffffffffffffffff\n        /* \"#utility.yul\":404:409   */\n      dup3\n        /* \"#utility.yul\":400:454   */\n      and\n        /* \"#utility.yul\":389:454   */\n      swap1\n      pop\n        /* \"#utility.yul\":334:460   */\n      swap2\n      swap1\n      pop\n      jump\t// out\n        /* \"#utility.yul\":466:562   */\n    tag_261:\n        /* \"#utility.yul\":503:510   */\n      0x00\n        /* \"#utility.yul\":532:556   */\n      tag_326\n        /* \"#utility.yul\":550:555   */\n      dup3\n        /* \"#utility.yul\":532:556   */\n      tag_260\n      jump\t// in\n    tag_326:\n        /* \"#utility.yul\":521:556   */\n      swap1\n      pop\n        /* \"#utility.yul\":466:562   */\n      swap2\n      swap1\n      pop\n      jump\t// out\n        /* \"#utility.yul\":568:690   */\n    tag_262:\n        /* \"#utility.yul\":641:665   */\n      tag_328\n        /* \"#utility.yul\":659:664   */\n      dup2\n        /* \"#utility.yul\":641:665   */\n      tag_261\n      jump\t// in\n    tag_328:\n        /* \"#utility.yul\":634:639   */\n      dup2\n        /* \"#utility.yul\":631:666   */\n      eq\n        /* \"#utility.yul\":621:684   */\n      tag_329\n      jumpi\n        /* \"#utility.yul\":680:681   */\n      0x00\n        /* \"#utility.yul\":677:678   */\n      dup1\n        /* \"#utility.yul\":670:682   */\n      revert\n        /* \"#utility.yul\":621:684   */\n    tag_329:\n        /* \"#utility.yul\":568:690   */\n      pop\n      jump\t// out\n        /* \"#utility.yul\":696:835   */\n    tag_263:\n        /* \"#utility.yul\":742:747   */\n      0x00\n        /* \"#utility.yul\":780:786   */\n      dup2\n        /* \"#utility.yul\":767:787   */\n      calldataload\n        /* \"#utility.yul\":758:787   */\n      swap1\n      pop\n        /* \"#utility.yul\":796:829   */\n      tag_331\n        /* \"#utility.yul\":823:828   */\n      dup2\n        /* \"#utility.yul\":796:829   */\n      tag_262\n      jump\t// in\n    tag_331:\n        /* \"#utility.yul\":696:835   */\n      swap3\n      swap2\n      pop\n      pop\n      jump\t// out\n        /* \"#utility.yul\":841:918   */\n    tag_264:\n        /* \"#utility.yul\":878:885   */\n      0x00\n        /* \"#utility.yul\":907:912   */\n      dup2\n        /* \"#utility.yul\":896:912   */\n      swap1\n      pop\n        /* \"#utility.yul\":841:918   */\n      swap2\n      swap1\n      pop\n      jump\t// out\n        /* \"#utility.yul\":924:1046   */\n    tag_265:\n        /* \"#utility.yul\":997:1021   */\n      tag_334\n        /* \"#utility.yul\":1015:1020   */\n      dup2\n        /* \"#utility.yul\":997:1021   */\n      tag_264\n      jump\t// in\n    tag_334:\n        /* \"#utility.yul\":990:995   */\n      dup2\n        /* \"#utility.yul\":987:1022   */\n      eq\n        /* \"#utility.yul\":977:1040   */\n      tag_335\n      jumpi\n        /* \"#utility.yul\":1036:1037   */\n      0x00\n        /* \"#utility.yul\":1033:1034   */\n      dup1\n        /* \"#utility.yul\":1026:1038   */\n      revert\n        /* \"#utility.yul\":977:1040   */\n    tag_335:\n        /* \"#utility.yul\":924:1046   */\n      pop\n      jump\t// out\n        /* \"#utility.yul\":1052:1191   */\n    tag_266:\n        /* \"#utility.yul\":1098:1103   */\n      0x00\n        /* \"#utility.yul\":1136:1142   */\n      dup2\n        /* \"#utility.yul\":1123:1143   */\n      calldataload\n        /* \"#utility.yul\":1114:1143   */\n      swap1\n      pop\n        /* \"#utility.yul\":1152:1185   */\n      tag_337\n        /* \"#utility.yul\":1179:1184   */\n      dup2\n        /* \"#utility.yul\":1152:1185   */\n      tag_265\n      jump\t// in\n    tag_337:\n        /* \"#utility.yul\":1052:1191   */\n      swap3\n      swap2\n      pop\n      pop\n      jump\t// out\n        /* \"#utility.yul\":1197:1671   */\n    tag_22:\n        /* \"#utility.yul\":1265:1271   */\n      0x00\n        /* \"#utility.yul\":1273:1279   */\n      dup1\n        /* \"#utility.yul\":1322:1324   */\n      0x40\n        /* \"#utility.yul\":1310:1319   */\n      dup4\n        /* \"#utility.yul\":1301:1308   */\n      dup6\n        /* \"#utility.yul\":1297:1320   */\n      sub\n        /* \"#utility.yul\":1293:1325   */\n      slt\n        /* \"#utility.yul\":1290:1409   */\n      iszero\n      tag_339\n      jumpi\n        /* \"#utility.yul\":1328:1407   */\n      tag_340\n      tag_258\n      jump\t// in\n    tag_340:\n        /* \"#utility.yul\":1290:1409   */\n    tag_339:\n        /* \"#utility.yul\":1448:1449   */\n      0x00\n        /* \"#utility.yul\":1473:1526   */\n      tag_341\n        /* \"#utility.yul\":1518:1525   */\n      dup6\n        /* \"#utility.yul\":1509:1515   */\n      dup3\n        /* \"#utility.yul\":1498:1507   */\n      dup7\n        /* \"#utility.yul\":1494:1516   */\n      add\n        /* \"#utility.yul\":1473:1526   */\n      tag_263\n      jump\t// in\n    tag_341:\n        /* \"#utility.yul\":1463:1526   */\n      swap3\n      pop\n        /* \"#utility.yul\":1419:1536   */\n      pop\n        /* \"#utility.yul\":1575:1577   */\n      0x20\n        /* \"#utility.yul\":1601:1654   */\n      tag_342\n        /* \"#utility.yul\":1646:1653   */\n      dup6\n        /* \"#utility.yul\":1637:1643   */\n      dup3\n        /* \"#utility.yul\":1626:1635   */\n      dup7\n        /* \"#utility.yul\":1622:1644   */\n      add\n        /* \"#utility.yul\":1601:1654   */\n      tag_266\n      jump\t// in\n    tag_342:\n        /* \"#utility.yul\":1591:1654   */\n      swap2\n      pop\n        /* \"#utility.yul\":1546:1664   */\n      pop\n        /* \"#utility.yul\":1197:1671   */\n      swap3\n      pop\n      swap3\n      swap1\n      pop\n      jump\t// out\n        /* \"#utility.yul\":1677:2006   */\n    tag_27:\n        /* \"#utility.yul\":1736:1742   */\n      0x00\n        /* \"#utility.yul\":1785:1787   */\n      0x20\n        /* \"#utility.yul\":1773:1782   */\n      dup3\n        /* \"#utility.yul\":1764:1771   */\n      dup5\n        /* \"#utility.yul\":1760:1783   */\n      sub\n        /* \"#utility.yul\":1756:1788   */\n      slt\n        /* \"#utility.yul\":1753:1872   */\n      iszero\n      tag_344\n      jumpi\n        /* \"#utility.yul\":1791:1870   */\n      tag_345\n      tag_258\n      jump\t// in\n    tag_345:\n        /* \"#utility.yul\":1753:1872   */\n    tag_344:\n        /* \"#utility.yul\":1911:1912   */\n      0x00\n        /* \"#utility.yul\":1936:1989   */\n      tag_346\n        /* \"#utility.yul\":1981:1988   */\n      dup5\n        /* \"#utility.yul\":1972:1978   */\n      dup3\n        /* \"#utility.yul\":1961:1970   */\n      dup6\n        /* \"#utility.yul\":1957:1979   */\n      add\n        /* \"#utility.yul\":1936:1989   */\n      tag_266\n      jump\t// in\n    tag_346:\n        /* \"#utility.yul\":1926:1989   */\n      swap2\n      pop\n        /* \"#utility.yul\":1882:1999   */\n      pop\n        /* \"#utility.yul\":1677:2006   */\n      swap3\n      swap2\n      pop\n      pop\n      jump\t// out\n        /* \"#utility.yul\":2012:2130   */\n    tag_267:\n        /* \"#utility.yul\":2099:2123   */\n      tag_348\n        /* \"#utility.yul\":2117:2122   */\n      dup2\n        /* \"#utility.yul\":2099:2123   */\n      tag_261\n      jump\t// in\n    tag_348:\n        /* \"#utility.yul\":2094:2097   */\n      dup3\n        /* \"#utility.yul\":2087:2124   */\n      mstore\n        /* \"#utility.yul\":2012:2130   */\n      pop\n      pop\n      jump\t// out\n        /* \"#utility.yul\":2136:2358   */\n    tag_30:\n        /* \"#utility.yul\":2229:2233   */\n      0x00\n        /* \"#utility.yul\":2267:2269   */\n      0x20\n        /* \"#utility.yul\":2256:2265   */\n      dup3\n        /* \"#utility.yul\":2252:2270   */\n      add\n        /* \"#utility.yul\":2244:2270   */\n      swap1\n      pop\n        /* \"#utility.yul\":2280:2351   */\n      tag_350\n        /* \"#utility.yul\":2348:2349   */\n      0x00\n        /* \"#utility.yul\":2337:2346   */\n      dup4\n        /* \"#utility.yul\":2333:2350   */\n      add\n        /* \"#utility.yul\":2324:2330   */\n      dup5\n        /* \"#utility.yul\":2280:2351   */\n      tag_267\n      jump\t// in\n    tag_350:\n        /* \"#utility.yul\":2136:2358   */\n      swap3\n      swap2\n      pop\n      pop\n      jump\t// out\n        /* \"#utility.yul\":2364:2693   */\n    tag_34:\n        /* \"#utility.yul\":2423:2429   */\n      0x00\n        /* \"#utility.yul\":2472:2474   */\n      0x20\n        /* \"#utility.yul\":2460:2469   */\n      dup3\n        /* \"#utility.yul\":2451:2458   */\n      dup5\n        /* \"#utility.yul\":2447:2470   */\n      sub\n        /* \"#utility.yul\":2443:2475   */\n      slt\n        /* \"#utility.yul\":2440:2559   */\n      iszero\n      tag_352\n      jumpi\n        /* \"#utility.yul\":2478:2557   */\n      tag_353\n      tag_258\n      jump\t// in\n    tag_353:\n        /* \"#utility.yul\":2440:2559   */\n    tag_352:\n        /* \"#utility.yul\":2598:2599   */\n      0x00\n        /* \"#utility.yul\":2623:2676   */\n      tag_354\n        /* \"#utility.yul\":2668:2675   */\n      dup5\n        /* \"#utility.yul\":2659:2665   */\n      dup3\n        /* \"#utility.yul\":2648:2657   */\n      dup6\n        /* \"#utility.yul\":2644:2666   */\n      add\n        /* \"#utility.yul\":2623:2676   */\n      tag_263\n      jump\t// in\n    tag_354:\n        /* \"#utility.yul\":2613:2676   */\n      swap2\n      pop\n        /* \"#utility.yul\":2569:2686   */\n      pop\n        /* \"#utility.yul\":2364:2693   */\n      swap3\n      swap2\n      pop\n      pop\n      jump\t// out\n        /* \"#utility.yul\":2699:2813   */\n    tag_268:\n        /* \"#utility.yul\":2766:2772   */\n      0x00\n        /* \"#utility.yul\":2800:2805   */\n      dup2\n        /* \"#utility.yul\":2794:2806   */\n      mload\n        /* \"#utility.yul\":2784:2806   */\n      swap1\n      pop\n        /* \"#utility.yul\":2699:2813   */\n      swap2\n      swap1\n      pop\n      jump\t// out\n        /* \"#utility.yul\":2819:3003   */\n    tag_269:\n        /* \"#utility.yul\":2918:2929   */\n      0x00\n        /* \"#utility.yul\":2952:2958   */\n      dup3\n        /* \"#utility.yul\":2947:2950   */\n      dup3\n        /* \"#utility.yul\":2940:2959   */\n      mstore\n        /* \"#utility.yul\":2992:2996   */\n      0x20\n        /* \"#utility.yul\":2987:2990   */\n      dup3\n        /* \"#utility.yul\":2983:2997   */\n      add\n        /* \"#utility.yul\":2968:2997   */\n      swap1\n      pop\n        /* \"#utility.yul\":2819:3003   */\n      swap3\n      swap2\n      pop\n      pop\n      jump\t// out\n        /* \"#utility.yul\":3009:3141   */\n    tag_270:\n        /* \"#utility.yul\":3076:3080   */\n      0x00\n        /* \"#utility.yul\":3099:3102   */\n      dup2\n        /* \"#utility.yul\":3091:3102   */\n      swap1\n      pop\n        /* \"#utility.yul\":3129:3133   */\n      0x20\n        /* \"#utility.yul\":3124:3127   */\n      dup3\n        /* \"#utility.yul\":3120:3134   */\n      add\n        /* \"#utility.yul\":3112:3134   */\n      swap1\n      pop\n        /* \"#utility.yul\":3009:3141   */\n      swap2\n      swap1\n      pop\n      jump\t// out\n        /* \"#utility.yul\":3147:3255   */\n    tag_271:\n        /* \"#utility.yul\":3224:3248   */\n      tag_359\n        /* \"#utility.yul\":3242:3247   */\n      dup2\n        /* \"#utility.yul\":3224:3248   */\n      tag_264\n      jump\t// in\n    tag_359:\n        /* \"#utility.yul\":3219:3222   */\n      dup3\n        /* \"#utility.yul\":3212:3249   */\n      mstore\n        /* \"#utility.yul\":3147:3255   */\n      pop\n      pop\n      jump\t// out\n        /* \"#utility.yul\":3261:3440   */\n    tag_272:\n        /* \"#utility.yul\":3330:3340   */\n      0x00\n        /* \"#utility.yul\":3351:3397   */\n      tag_361\n        /* \"#utility.yul\":3393:3396   */\n      dup4\n        /* \"#utility.yul\":3385:3391   */\n      dup4\n        /* \"#utility.yul\":3351:3397   */\n      tag_271\n      jump\t// in\n    tag_361:\n        /* \"#utility.yul\":3429:3433   */\n      0x20\n        /* \"#utility.yul\":3424:3427   */\n      dup4\n        /* \"#utility.yul\":3420:3434   */\n      add\n        /* \"#utility.yul\":3406:3434   */\n      swap1\n      pop\n        /* \"#utility.yul\":3261:3440   */\n      swap3\n      swap2\n      pop\n      pop\n      jump\t// out\n        /* \"#utility.yul\":3446:3559   */\n    tag_273:\n        /* \"#utility.yul\":3516:3520   */\n      0x00\n        /* \"#utility.yul\":3548:3552   */\n      0x20\n        /* \"#utility.yul\":3543:3546   */\n      dup3\n        /* \"#utility.yul\":3539:3553   */\n      add\n        /* \"#utility.yul\":3531:3553   */\n      swap1\n      pop\n        /* \"#utility.yul\":3446:3559   */\n      swap2\n      swap1\n      pop\n      jump\t// out\n        /* \"#utility.yul\":3595:4327   */\n    tag_274:\n        /* \"#utility.yul\":3714:3717   */\n      0x00\n        /* \"#utility.yul\":3743:3797   */\n      tag_364\n        /* \"#utility.yul\":3791:3796   */\n      dup3\n        /* \"#utility.yul\":3743:3797   */\n      tag_268\n      jump\t// in\n    tag_364:\n        /* \"#utility.yul\":3813:3899   */\n      tag_365\n        /* \"#utility.yul\":3892:3898   */\n      dup2\n        /* \"#utility.yul\":3887:3890   */\n      dup6\n        /* \"#utility.yul\":3813:3899   */\n      tag_269\n      jump\t// in\n    tag_365:\n        /* \"#utility.yul\":3806:3899   */\n      swap4\n      pop\n        /* \"#utility.yul\":3923:3979   */\n      tag_366\n        /* \"#utility.yul\":3973:3978   */\n      dup4\n        /* \"#utility.yul\":3923:3979   */\n      tag_270\n      jump\t// in\n    tag_366:\n        /* \"#utility.yul\":4002:4009   */\n      dup1\n        /* \"#utility.yul\":4033:4034   */\n      0x00\n        /* \"#utility.yul\":4018:4302   */\n    tag_367:\n        /* \"#utility.yul\":4043:4049   */\n      dup4\n        /* \"#utility.yul\":4040:4041   */\n      dup2\n        /* \"#utility.yul\":4037:4050   */\n      lt\n        /* \"#utility.yul\":4018:4302   */\n      iszero\n      tag_369\n      jumpi\n        /* \"#utility.yul\":4119:4125   */\n      dup2\n        /* \"#utility.yul\":4113:4126   */\n      mload\n        /* \"#utility.yul\":4146:4209   */\n      tag_370\n        /* \"#utility.yul\":4205:4208   */\n      dup9\n        /* \"#utility.yul\":4190:4203   */\n      dup3\n        /* \"#utility.yul\":4146:4209   */\n      tag_272\n      jump\t// in\n    tag_370:\n        /* \"#utility.yul\":4139:4209   */\n      swap8\n      pop\n        /* \"#utility.yul\":4232:4292   */\n      tag_371\n        /* \"#utility.yul\":4285:4291   */\n      dup4\n        /* \"#utility.yul\":4232:4292   */\n      tag_273\n      jump\t// in\n    tag_371:\n        /* \"#utility.yul\":4222:4292   */\n      swap3\n      pop\n        /* \"#utility.yul\":4078:4302   */\n      pop\n        /* \"#utility.yul\":4065:4066   */\n      0x01\n        /* \"#utility.yul\":4062:4063   */\n      dup2\n        /* \"#utility.yul\":4058:4067   */\n      add\n        /* \"#utility.yul\":4053:4067   */\n      swap1\n      pop\n        /* \"#utility.yul\":4018:4302   */\n      jump(tag_367)\n    tag_369:\n        /* \"#utility.yul\":4022:4036   */\n      pop\n        /* \"#utility.yul\":4318:4321   */\n      dup6\n        /* \"#utility.yul\":4311:4321   */\n      swap4\n      pop\n        /* \"#utility.yul\":3719:4327   */\n      pop\n      pop\n      pop\n        /* \"#utility.yul\":3595:4327   */\n      swap3\n      swap2\n      pop\n      pop\n      jump\t// out\n        /* \"#utility.yul\":4333:4706   */\n    tag_37:\n        /* \"#utility.yul\":4476:4480   */\n      0x00\n        /* \"#utility.yul\":4514:4516   */\n      0x20\n        /* \"#utility.yul\":4503:4512   */\n      dup3\n        /* \"#utility.yul\":4499:4517   */\n      add\n        /* \"#utility.yul\":4491:4517   */\n      swap1\n      pop\n        /* \"#utility.yul\":4563:4572   */\n      dup2\n        /* \"#utility.yul\":4557:4561   */\n      dup2\n        /* \"#utility.yul\":4553:4573   */\n      sub\n        /* \"#utility.yul\":4549:4550   */\n      0x00\n        /* \"#utility.yul\":4538:4547   */\n      dup4\n        /* \"#utility.yul\":4534:4551   */\n      add\n        /* \"#utility.yul\":4527:4574   */\n      mstore\n        /* \"#utility.yul\":4591:4699   */\n      tag_373\n        /* \"#utility.yul\":4694:4698   */\n      dup2\n        /* \"#utility.yul\":4685:4691   */\n      dup5\n        /* \"#utility.yul\":4591:4699   */\n      tag_274\n      jump\t// in\n    tag_373:\n        /* \"#utility.yul\":4583:4699   */\n      swap1\n      pop\n        /* \"#utility.yul\":4333:4706   */\n      swap3\n      swap2\n      pop\n      pop\n      jump\t// out\n        /* \"#utility.yul\":4712:5331   */\n    tag_41:\n        /* \"#utility.yul\":4789:4795   */\n      0x00\n        /* \"#utility.yul\":4797:4803   */\n      dup1\n        /* \"#utility.yul\":4805:4811   */\n      0x00\n        /* \"#utility.yul\":4854:4856   */\n      0x60\n        /* \"#utility.yul\":4842:4851   */\n      dup5\n        /* \"#utility.yul\":4833:4840   */\n      dup7\n        /* \"#utility.yul\":4829:4852   */\n      sub\n        /* \"#utility.yul\":4825:4857   */\n      slt\n        /* \"#utility.yul\":4822:4941   */\n      iszero\n      tag_375\n      jumpi\n        /* \"#utility.yul\":4860:4939   */\n      tag_376\n      tag_258\n      jump\t// in\n    tag_376:\n        /* \"#utility.yul\":4822:4941   */\n    tag_375:\n        /* \"#utility.yul\":4980:4981   */\n      0x00\n        /* \"#utility.yul\":5005:5058   */\n      tag_377\n        /* \"#utility.yul\":5050:5057   */\n      dup7\n        /* \"#utility.yul\":5041:5047   */\n      dup3\n        /* \"#utility.yul\":5030:5039   */\n      dup8\n        /* \"#utility.yul\":5026:5048   */\n      add\n        /* \"#utility.yul\":5005:5058   */\n      tag_263\n      jump\t// in\n    tag_377:\n        /* \"#utility.yul\":4995:5058   */\n      swap4\n      pop\n        /* \"#utility.yul\":4951:5068   */\n      pop\n        /* \"#utility.yul\":5107:5109   */\n      0x20\n        /* \"#utility.yul\":5133:5186   */\n      tag_378\n        /* \"#utility.yul\":5178:5185   */\n      dup7\n        /* \"#utility.yul\":5169:5175   */\n      dup3\n        /* \"#utility.yul\":5158:5167   */\n      dup8\n        /* \"#utility.yul\":5154:5176   */\n      add\n        /* \"#utility.yul\":5133:5186   */\n      tag_263\n      jump\t// in\n    tag_378:\n        /* \"#utility.yul\":5123:5186   */\n      swap3\n      pop\n        /* \"#utility.yul\":5078:5196   */\n      pop\n        /* \"#utility.yul\":5235:5237   */\n      0x40\n        /* \"#utility.yul\":5261:5314   */\n      tag_379\n        /* \"#utility.yul\":5306:5313   */\n      dup7\n        /* \"#utility.yul\":5297:5303   */\n      dup3\n        /* \"#utility.yul\":5286:5295   */\n      dup8\n        /* \"#utility.yul\":5282:5304   */\n      add\n        /* \"#utility.yul\":5261:5314   */\n      tag_266\n      jump\t// in\n    tag_379:\n        /* \"#utility.yul\":5251:5314   */\n      swap2\n      pop\n        /* \"#utility.yul\":5206:5324   */\n      pop\n        /* \"#utility.yul\":4712:5331   */\n      swap3\n      pop\n      swap3\n      pop\n      swap3\n      jump\t// out\n        /* \"#utility.yul\":5337:5454   */\n    tag_275:\n        /* \"#utility.yul\":5446:5447   */\n      0x00\n        /* \"#utility.yul\":5443:5444   */\n      dup1\n        /* \"#utility.yul\":5436:5448   */\n      revert\n        /* \"#utility.yul\":5460:5577   */\n    tag_276:\n        /* \"#utility.yul\":5569:5570   */\n      0x00\n        /* \"#utility.yul\":5566:5567   */\n      dup1\n        /* \"#utility.yul\":5559:5571   */\n      revert\n        /* \"#utility.yul\":5583:5700   */\n    tag_277:\n        /* \"#utility.yul\":5692:5693   */\n      0x00\n        /* \"#utility.yul\":5689:5690   */\n      dup1\n        /* \"#utility.yul\":5682:5694   */\n      revert\n        /* \"#utility.yul\":5720:6273   */\n    tag_278:\n        /* \"#utility.yul\":5778:5786   */\n      0x00\n        /* \"#utility.yul\":5788:5794   */\n      dup1\n        /* \"#utility.yul\":5838:5841   */\n      dup4\n        /* \"#utility.yul\":5831:5835   */\n      0x1f\n        /* \"#utility.yul\":5823:5829   */\n      dup5\n        /* \"#utility.yul\":5819:5836   */\n      add\n        /* \"#utility.yul\":5815:5842   */\n      slt\n        /* \"#utility.yul\":5805:5927   */\n      tag_384\n      jumpi\n        /* \"#utility.yul\":5846:5925   */\n      tag_385\n      tag_275\n      jump\t// in\n    tag_385:\n        /* \"#utility.yul\":5805:5927   */\n    tag_384:\n        /* \"#utility.yul\":5959:5965   */\n      dup3\n        /* \"#utility.yul\":5946:5966   */\n      calldataload\n        /* \"#utility.yul\":5936:5966   */\n      swap1\n      pop\n        /* \"#utility.yul\":5989:6007   */\n      0xffffffffffffffff\n        /* \"#utility.yul\":5981:5987   */\n      dup2\n        /* \"#utility.yul\":5978:6008   */\n      gt\n        /* \"#utility.yul\":5975:6092   */\n      iszero\n      tag_386\n      jumpi\n        /* \"#utility.yul\":6011:6090   */\n      tag_387\n      tag_276\n      jump\t// in\n    tag_387:\n        /* \"#utility.yul\":5975:6092   */\n    tag_386:\n        /* \"#utility.yul\":6125:6129   */\n      0x20\n        /* \"#utility.yul\":6117:6123   */\n      dup4\n        /* \"#utility.yul\":6113:6130   */\n      add\n        /* \"#utility.yul\":6101:6130   */\n      swap2\n      pop\n        /* \"#utility.yul\":6179:6182   */\n      dup4\n        /* \"#utility.yul\":6171:6175   */\n      0x01\n        /* \"#utility.yul\":6163:6169   */\n      dup3\n        /* \"#utility.yul\":6159:6176   */\n      mul\n        /* \"#utility.yul\":6149:6157   */\n      dup4\n        /* \"#utility.yul\":6145:6177   */\n      add\n        /* \"#utility.yul\":6142:6183   */\n      gt\n        /* \"#utility.yul\":6139:6267   */\n      iszero\n      tag_388\n      jumpi\n        /* \"#utility.yul\":6186:6265   */\n      tag_389\n      tag_277\n      jump\t// in\n    tag_389:\n        /* \"#utility.yul\":6139:6267   */\n    tag_388:\n        /* \"#utility.yul\":5720:6273   */\n      swap3\n      pop\n      swap3\n      swap1\n      pop\n      jump\t// out\n        /* \"#utility.yul\":6279:6808   */\n    tag_46:\n        /* \"#utility.yul\":6350:6356   */\n      0x00\n        /* \"#utility.yul\":6358:6364   */\n      dup1\n        /* \"#utility.yul\":6407:6409   */\n      0x20\n        /* \"#utility.yul\":6395:6404   */\n      dup4\n        /* \"#utility.yul\":6386:6393   */\n      dup6\n        /* \"#utility.yul\":6382:6405   */\n      sub\n        /* \"#utility.yul\":6378:6410   */\n      slt\n        /* \"#utility.yul\":6375:6494   */\n      iszero\n      tag_391\n      jumpi\n        /* \"#utility.yul\":6413:6492   */\n      tag_392\n      tag_258\n      jump\t// in\n    tag_392:\n        /* \"#utility.yul\":6375:6494   */\n    tag_391:\n        /* \"#utility.yul\":6561:6562   */\n      0x00\n        /* \"#utility.yul\":6550:6559   */\n      dup4\n        /* \"#utility.yul\":6546:6563   */\n      add\n        /* \"#utility.yul\":6533:6564   */\n      calldataload\n        /* \"#utility.yul\":6591:6609   */\n      0xffffffffffffffff\n        /* \"#utility.yul\":6583:6589   */\n      dup2\n        /* \"#utility.yul\":6580:6610   */\n      gt\n        /* \"#utility.yul\":6577:6694   */\n      iszero\n      tag_393\n      jumpi\n        /* \"#utility.yul\":6613:6692   */\n      tag_394\n      tag_259\n      jump\t// in\n    tag_394:\n        /* \"#utility.yul\":6577:6694   */\n    tag_393:\n        /* \"#utility.yul\":6726:6791   */\n      tag_395\n        /* \"#utility.yul\":6783:6790   */\n      dup6\n        /* \"#utility.yul\":6774:6780   */\n      dup3\n        /* \"#utility.yul\":6763:6772   */\n      dup7\n        /* \"#utility.yul\":6759:6781   */\n      add\n        /* \"#utility.yul\":6726:6791   */\n      tag_278\n      jump\t// in\n    tag_395:\n        /* \"#utility.yul\":6708:6791   */\n      swap3\n      pop\n      swap3\n      pop\n        /* \"#utility.yul\":6504:6801   */\n      pop\n        /* \"#utility.yul\":6279:6808   */\n      swap3\n      pop\n      swap3\n      swap1\n      pop\n      jump\t// out\n        /* \"#utility.yul\":6814:6913   */\n    tag_279:\n        /* \"#utility.yul\":6866:6872   */\n      0x00\n        /* \"#utility.yul\":6900:6905   */\n      dup2\n        /* \"#utility.yul\":6894:6906   */\n      mload\n        /* \"#utility.yul\":6884:6906   */\n      swap1\n      pop\n        /* \"#utility.yul\":6814:6913   */\n      swap2\n      swap1\n      pop\n      jump\t// out\n        /* \"#utility.yul\":6919:7088   */\n    tag_280:\n        /* \"#utility.yul\":7003:7014   */\n      0x00\n        /* \"#utility.yul\":7037:7043   */\n      dup3\n        /* \"#utility.yul\":7032:7035   */\n      dup3\n        /* \"#utility.yul\":7025:7044   */\n      mstore\n        /* \"#utility.yul\":7077:7081   */\n      0x20\n        /* \"#utility.yul\":7072:7075   */\n      dup3\n        /* \"#utility.yul\":7068:7082   */\n      add\n        /* \"#utility.yul\":7053:7082   */\n      swap1\n      pop\n        /* \"#utility.yul\":6919:7088   */\n      swap3\n      swap2\n      pop\n      pop\n      jump\t// out\n        /* \"#utility.yul\":7094:7401   */\n    tag_281:\n        /* \"#utility.yul\":7162:7163   */\n      0x00\n        /* \"#utility.yul\":7172:7285   */\n    tag_399:\n        /* \"#utility.yul\":7186:7192   */\n      dup4\n        /* \"#utility.yul\":7183:7184   */\n      dup2\n        /* \"#utility.yul\":7180:7193   */\n      lt\n        /* \"#utility.yul\":7172:7285   */\n      iszero\n      tag_401\n      jumpi\n        /* \"#utility.yul\":7271:7272   */\n      dup1\n        /* \"#utility.yul\":7266:7269   */\n      dup3\n        /* \"#utility.yul\":7262:7273   */\n      add\n        /* \"#utility.yul\":7256:7274   */\n      mload\n        /* \"#utility.yul\":7252:7253   */\n      dup2\n        /* \"#utility.yul\":7247:7250   */\n      dup5\n        /* \"#utility.yul\":7243:7254   */\n      add\n        /* \"#utility.yul\":7236:7275   */\n      mstore\n        /* \"#utility.yul\":7208:7210   */\n      0x20\n        /* \"#utility.yul\":7205:7206   */\n      dup2\n        /* \"#utility.yul\":7201:7211   */\n      add\n        /* \"#utility.yul\":7196:7211   */\n      swap1\n      pop\n        /* \"#utility.yul\":7172:7285   */\n      jump(tag_399)\n    tag_401:\n        /* \"#utility.yul\":7303:7309   */\n      dup4\n        /* \"#utility.yul\":7300:7301   */\n      dup2\n        /* \"#utility.yul\":7297:7310   */\n      gt\n        /* \"#utility.yul\":7294:7395   */\n      iszero\n      tag_402\n      jumpi\n        /* \"#utility.yul\":7383:7384   */\n      0x00\n        /* \"#utility.yul\":7374:7380   */\n      dup5\n        /* \"#utility.yul\":7369:7372   */\n      dup5\n        /* \"#utility.yul\":7365:7381   */\n      add\n        /* \"#utility.yul\":7358:7385   */\n      mstore\n        /* \"#utility.yul\":7294:7395   */\n    tag_402:\n        /* \"#utility.yul\":7143:7401   */\n      pop\n        /* \"#utility.yul\":7094:7401   */\n      pop\n      pop\n      pop\n      jump\t// out\n        /* \"#utility.yul\":7407:7509   */\n    tag_282:\n        /* \"#utility.yul\":7448:7454   */\n      0x00\n        /* \"#utility.yul\":7499:7501   */\n      0x1f\n        /* \"#utility.yul\":7495:7502   */\n      not\n        /* \"#utility.yul\":7490:7492   */\n      0x1f\n        /* \"#utility.yul\":7483:7488   */\n      dup4\n        /* \"#utility.yul\":7479:7493   */\n      add\n        /* \"#utility.yul\":7475:7503   */\n      and\n        /* \"#utility.yul\":7465:7503   */\n      swap1\n      pop\n        /* \"#utility.yul\":7407:7509   */\n      swap2\n      swap1\n      pop\n      jump\t// out\n        /* \"#utility.yul\":7515:7879   */\n    tag_283:\n        /* \"#utility.yul\":7603:7606   */\n      0x00\n        /* \"#utility.yul\":7631:7670   */\n      tag_405\n        /* \"#utility.yul\":7664:7669   */\n      dup3\n        /* \"#utility.yul\":7631:7670   */\n      tag_279\n      jump\t// in\n    tag_405:\n        /* \"#utility.yul\":7686:7757   */\n      tag_406\n        /* \"#utility.yul\":7750:7756   */\n      dup2\n        /* \"#utility.yul\":7745:7748   */\n      dup6\n        /* \"#utility.yul\":7686:7757   */\n      tag_280\n      jump\t// in\n    tag_406:\n        /* \"#utility.yul\":7679:7757   */\n      swap4\n      pop\n        /* \"#utility.yul\":7766:7818   */\n      tag_407\n        /* \"#utility.yul\":7811:7817   */\n      dup2\n        /* \"#utility.yul\":7806:7809   */\n      dup6\n        /* \"#utility.yul\":7799:7803   */\n      0x20\n        /* \"#utility.yul\":7792:7797   */\n      dup7\n        /* \"#utility.yul\":7788:7804   */\n      add\n        /* \"#utility.yul\":7766:7818   */\n      tag_281\n      jump\t// in\n    tag_407:\n        /* \"#utility.yul\":7843:7872   */\n      tag_408\n        /* \"#utility.yul\":7865:7871   */\n      dup2\n        /* \"#utility.yul\":7843:7872   */\n      tag_282\n      jump\t// in\n    tag_408:\n        /* \"#utility.yul\":7838:7841   */\n      dup5\n        /* \"#utility.yul\":7834:7873   */\n      add\n        /* \"#utility.yul\":7827:7873   */\n      swap2\n      pop\n        /* \"#utility.yul\":7607:7879   */\n      pop\n        /* \"#utility.yul\":7515:7879   */\n      swap3\n      swap2\n      pop\n      pop\n      jump\t// out\n        /* \"#utility.yul\":7885:8003   */\n    tag_284:\n        /* \"#utility.yul\":7972:7996   */\n      tag_410\n        /* \"#utility.yul\":7990:7995   */\n      dup2\n        /* \"#utility.yul\":7972:7996   */\n      tag_264\n      jump\t// in\n    tag_410:\n        /* \"#utility.yul\":7967:7970   */\n      dup3\n        /* \"#utility.yul\":7960:7997   */\n      mstore\n        /* \"#utility.yul\":7885:8003   */\n      pop\n      pop\n      jump\t// out\n        /* \"#utility.yul\":8009:8102   */\n    tag_285:\n        /* \"#utility.yul\":8045:8052   */\n      0x00\n        /* \"#utility.yul\":8085:8095   */\n      0xffffffff\n        /* \"#utility.yul\":8078:8083   */\n      dup3\n        /* \"#utility.yul\":8074:8096   */\n      and\n        /* \"#utility.yul\":8063:8096   */\n      swap1\n      pop\n        /* \"#utility.yul\":8009:8102   */\n      swap2\n      swap1\n      pop\n      jump\t// out\n        /* \"#utility.yul\":8108:8223   */\n    tag_286:\n        /* \"#utility.yul\":8193:8216   */\n      tag_413\n        /* \"#utility.yul\":8210:8215   */\n      dup2\n        /* \"#utility.yul\":8193:8216   */\n      tag_285\n      jump\t// in\n    tag_413:\n        /* \"#utility.yul\":8188:8191   */\n      dup3\n        /* \"#utility.yul\":8181:8217   */\n      mstore\n        /* \"#utility.yul\":8108:8223   */\n      pop\n      pop\n      jump\t// out\n        /* \"#utility.yul\":8229:8758   */\n    tag_58:\n        /* \"#utility.yul\":8396:8400   */\n      0x00\n        /* \"#utility.yul\":8434:8436   */\n      0x60\n        /* \"#utility.yul\":8423:8432   */\n      dup3\n        /* \"#utility.yul\":8419:8437   */\n      add\n        /* \"#utility.yul\":8411:8437   */\n      swap1\n      pop\n        /* \"#utility.yul\":8483:8492   */\n      dup2\n        /* \"#utility.yul\":8477:8481   */\n      dup2\n        /* \"#utility.yul\":8473:8493   */\n      sub\n        /* \"#utility.yul\":8469:8470   */\n      0x00\n        /* \"#utility.yul\":8458:8467   */\n      dup4\n        /* \"#utility.yul\":8454:8471   */\n      add\n        /* \"#utility.yul\":8447:8494   */\n      mstore\n        /* \"#utility.yul\":8511:8589   */\n      tag_415\n        /* \"#utility.yul\":8584:8588   */\n      dup2\n        /* \"#utility.yul\":8575:8581   */\n      dup7\n        /* \"#utility.yul\":8511:8589   */\n      tag_283\n      jump\t// in\n    tag_415:\n        /* \"#utility.yul\":8503:8589   */\n      swap1\n      pop\n        /* \"#utility.yul\":8599:8671   */\n      tag_416\n        /* \"#utility.yul\":8667:8669   */\n      0x20\n        /* \"#utility.yul\":8656:8665   */\n      dup4\n        /* \"#utility.yul\":8652:8670   */\n      add\n        /* \"#utility.yul\":8643:8649   */\n      dup6\n        /* \"#utility.yul\":8599:8671   */\n      tag_284\n      jump\t// in\n    tag_416:\n        /* \"#utility.yul\":8681:8751   */\n      tag_417\n        /* \"#utility.yul\":8747:8749   */\n      0x40\n        /* \"#utility.yul\":8736:8745   */\n      dup4\n        /* \"#utility.yul\":8732:8750   */\n      add\n        /* \"#utility.yul\":8723:8729   */\n      dup5\n        /* \"#utility.yul\":8681:8751   */\n      tag_286\n      jump\t// in\n    tag_417:\n        /* \"#utility.yul\":8229:8758   */\n      swap5\n      swap4\n      pop\n      pop\n      pop\n      pop\n      jump\t// out\n        /* \"#utility.yul\":8764:9238   */\n    tag_65:\n        /* \"#utility.yul\":8832:8838   */\n      0x00\n        /* \"#utility.yul\":8840:8846   */\n      dup1\n        /* \"#utility.yul\":8889:8891   */\n      0x40\n        /* \"#utility.yul\":8877:8886   */\n      dup4\n        /* \"#utility.yul\":8868:8875   */\n      dup6\n        /* \"#utility.yul\":8864:8887   */\n      sub\n        /* \"#utility.yul\":8860:8892   */\n      slt\n        /* \"#utility.yul\":8857:8976   */\n      iszero\n      tag_419\n      jumpi\n        /* \"#utility.yul\":8895:8974   */\n      tag_420\n      tag_258\n      jump\t// in\n    tag_420:\n        /* \"#utility.yul\":8857:8976   */\n    tag_419:\n        /* \"#utility.yul\":9015:9016   */\n      0x00\n        /* \"#utility.yul\":9040:9093   */\n      tag_421\n        /* \"#utility.yul\":9085:9092   */\n      dup6\n        /* \"#utility.yul\":9076:9082   */\n      dup3\n        /* \"#utility.yul\":9065:9074   */\n      dup7\n        /* \"#utility.yul\":9061:9083   */\n      add\n        /* \"#utility.yul\":9040:9093   */\n      tag_266\n      jump\t// in\n    tag_421:\n        /* \"#utility.yul\":9030:9093   */\n      swap3\n      pop\n        /* \"#utility.yul\":8986:9103   */\n      pop\n        /* \"#utility.yul\":9142:9144   */\n      0x20\n        /* \"#utility.yul\":9168:9221   */\n      tag_422\n        /* \"#utility.yul\":9213:9220   */\n      dup6\n        /* \"#utility.yul\":9204:9210   */\n      dup3\n        /* \"#utility.yul\":9193:9202   */\n      dup7\n        /* \"#utility.yul\":9189:9211   */\n      add\n        /* \"#utility.yul\":9168:9221   */\n      tag_266\n      jump\t// in\n    tag_422:\n        /* \"#utility.yul\":9158:9221   */\n      swap2\n      pop\n        /* \"#utility.yul\":9113:9231   */\n      pop\n        /* \"#utility.yul\":8764:9238   */\n      swap3\n      pop\n      swap3\n      swap1\n      pop\n      jump\t// out\n        /* \"#utility.yul\":9244:9466   */\n    tag_72:\n        /* \"#utility.yul\":9337:9341   */\n      0x00\n        /* \"#utility.yul\":9375:9377   */\n      0x20\n        /* \"#utility.yul\":9364:9373   */\n      dup3\n        /* \"#utility.yul\":9360:9378   */\n      add\n        /* \"#utility.yul\":9352:9378   */\n      swap1\n      pop\n        /* \"#utility.yul\":9388:9459   */\n      tag_424\n        /* \"#utility.yul\":9456:9457   */\n      0x00\n        /* \"#utility.yul\":9445:9454   */\n      dup4\n        /* \"#utility.yul\":9441:9458   */\n      add\n        /* \"#utility.yul\":9432:9438   */\n      dup5\n        /* \"#utility.yul\":9388:9459   */\n      tag_284\n      jump\t// in\n    tag_424:\n        /* \"#utility.yul\":9244:9466   */\n      swap3\n      swap2\n      pop\n      pop\n      jump\t// out\n        /* \"#utility.yul\":9472:9647   */\n    tag_287:\n        /* \"#utility.yul\":9612:9639   */\n      0x617070726f76616c20746f2063757272656e74206f776e657200000000000000\n        /* \"#utility.yul\":9608:9609   */\n      0x00\n        /* \"#utility.yul\":9600:9606   */\n      dup3\n        /* \"#utility.yul\":9596:9610   */\n      add\n        /* \"#utility.yul\":9589:9640   */\n      mstore\n        /* \"#utility.yul\":9472:9647   */\n      pop\n      jump\t// out\n        /* \"#utility.yul\":9653:10019   */\n    tag_288:\n        /* \"#utility.yul\":9795:9798   */\n      0x00\n        /* \"#utility.yul\":9816:9883   */\n      tag_427\n        /* \"#utility.yul\":9880:9882   */\n      0x19\n        /* \"#utility.yul\":9875:9878   */\n      dup4\n        /* \"#utility.yul\":9816:9883   */\n      tag_280\n      jump\t// in\n    tag_427:\n        /* \"#utility.yul\":9809:9883   */\n      swap2\n      pop\n        /* \"#utility.yul\":9892:9985   */\n      tag_428\n        /* \"#utility.yul\":9981:9984   */\n      dup3\n        /* \"#utility.yul\":9892:9985   */\n      tag_287\n      jump\t// in\n    tag_428:\n        /* \"#utility.yul\":10010:10012   */\n      0x20\n        /* \"#utility.yul\":10005:10008   */\n      dup3\n        /* \"#utility.yul\":10001:10013   */\n      add\n        /* \"#utility.yul\":9994:10013   */\n      swap1\n      pop\n        /* \"#utility.yul\":9653:10019   */\n      swap2\n      swap1\n      pop\n      jump\t// out\n        /* \"#utility.yul\":10025:10444   */\n    tag_93:\n        /* \"#utility.yul\":10191:10195   */\n      0x00\n        /* \"#utility.yul\":10229:10231   */\n      0x20\n        /* \"#utility.yul\":10218:10227   */\n      dup3\n        /* \"#utility.yul\":10214:10232   */\n      add\n        /* \"#utility.yul\":10206:10232   */\n      swap1\n      pop\n        /* \"#utility.yul\":10278:10287   */\n      dup2\n        /* \"#utility.yul\":10272:10276   */\n      dup2\n        /* \"#utility.yul\":10268:10288   */\n      sub\n        /* \"#utility.yul\":10264:10265   */\n      0x00\n        /* \"#utility.yul\":10253:10262   */\n      dup4\n        /* \"#utility.yul\":10249:10266   */\n      add\n        /* \"#utility.yul\":10242:10289   */\n      mstore\n        /* \"#utility.yul\":10306:10437   */\n      tag_430\n        /* \"#utility.yul\":10432:10436   */\n      dup2\n        /* \"#utility.yul\":10306:10437   */\n      tag_288\n      jump\t// in\n    tag_430:\n        /* \"#utility.yul\":10298:10437   */\n      swap1\n      pop\n        /* \"#utility.yul\":10025:10444   */\n      swap2\n      swap1\n      pop\n      jump\t// out\n        /* \"#utility.yul\":10450:10686   */\n    tag_289:\n        /* \"#utility.yul\":10590:10624   */\n      0x617070726f76652063616c6c6572206973206e6f74206f776e6572206e6f7220\n        /* \"#utility.yul\":10586:10587   */\n      0x00\n        /* \"#utility.yul\":10578:10584   */\n      dup3\n        /* \"#utility.yul\":10574:10588   */\n      add\n        /* \"#utility.yul\":10567:10625   */\n      mstore\n        /* \"#utility.yul\":10659:10678   */\n      0x617070726f766564206f70657261746f72000000000000000000000000000000\n        /* \"#utility.yul\":10654:10656   */\n      0x20\n        /* \"#utility.yul\":10646:10652   */\n      dup3\n        /* \"#utility.yul\":10642:10657   */\n      add\n        /* \"#utility.yul\":10635:10679   */\n      mstore\n        /* \"#utility.yul\":10450:10686   */\n      pop\n      jump\t// out\n        /* \"#utility.yul\":10692:11058   */\n    tag_290:\n        /* \"#utility.yul\":10834:10837   */\n      0x00\n        /* \"#utility.yul\":10855:10922   */\n      tag_433\n        /* \"#utility.yul\":10919:10921   */\n      0x31\n        /* \"#utility.yul\":10914:10917   */\n      dup4\n        /* \"#utility.yul\":10855:10922   */\n      tag_280\n      jump\t// in\n    tag_433:\n        /* \"#utility.yul\":10848:10922   */\n      swap2\n      pop\n        /* \"#utility.yul\":10931:11024   */\n      tag_434\n        /* \"#utility.yul\":11020:11023   */\n      dup3\n        /* \"#utility.yul\":10931:11024   */\n      tag_289\n      jump\t// in\n    tag_434:\n        /* \"#utility.yul\":11049:11051   */\n      0x40\n        /* \"#utility.yul\":11044:11047   */\n      dup3\n        /* \"#utility.yul\":11040:11052   */\n      add\n        /* \"#utility.yul\":11033:11052   */\n      swap1\n      pop\n        /* \"#utility.yul\":10692:11058   */\n      swap2\n      swap1\n      pop\n      jump\t// out\n        /* \"#utility.yul\":11064:11483   */\n    tag_100:\n        /* \"#utility.yul\":11230:11234   */\n      0x00\n        /* \"#utility.yul\":11268:11270   */\n      0x20\n        /* \"#utility.yul\":11257:11266   */\n      dup3\n        /* \"#utility.yul\":11253:11271   */\n      add\n        /* \"#utility.yul\":11245:11271   */\n      swap1\n      pop\n        /* \"#utility.yul\":11317:11326   */\n      dup2\n        /* \"#utility.yul\":11311:11315   */\n      dup2\n        /* \"#utility.yul\":11307:11327   */\n      sub\n        /* \"#utility.yul\":11303:11304   */\n      0x00\n        /* \"#utility.yul\":11292:11301   */\n      dup4\n        /* \"#utility.yul\":11288:11305   */\n      add\n        /* \"#utility.yul\":11281:11328   */\n      mstore\n        /* \"#utility.yul\":11345:11476   */\n      tag_436\n        /* \"#utility.yul\":11471:11475   */\n      dup2\n        /* \"#utility.yul\":11345:11476   */\n      tag_290\n      jump\t// in\n    tag_436:\n        /* \"#utility.yul\":11337:11476   */\n      swap1\n      pop\n        /* \"#utility.yul\":11064:11483   */\n      swap2\n      swap1\n      pop\n      jump\t// out\n        /* \"#utility.yul\":11489:11669   */\n    tag_106:\n        /* \"#utility.yul\":11537:11614   */\n      0x4e487b7100000000000000000000000000000000000000000000000000000000\n        /* \"#utility.yul\":11534:11535   */\n      0x00\n        /* \"#utility.yul\":11527:11615   */\n      mstore\n        /* \"#utility.yul\":11634:11638   */\n      0x41\n        /* \"#utility.yul\":11631:11632   */\n      0x04\n        /* \"#utility.yul\":11624:11639   */\n      mstore\n        /* \"#utility.yul\":11658:11662   */\n      0x24\n        /* \"#utility.yul\":11655:11656   */\n      0x00\n        /* \"#utility.yul\":11648:11663   */\n      revert\n        /* \"#utility.yul\":11675:11855   */\n    tag_114:\n        /* \"#utility.yul\":11723:11800   */\n      0x4e487b7100000000000000000000000000000000000000000000000000000000\n        /* \"#utility.yul\":11720:11721   */\n      0x00\n        /* \"#utility.yul\":11713:11801   */\n      mstore\n        /* \"#utility.yul\":11820:11824   */\n      0x32\n        /* \"#utility.yul\":11817:11818   */\n      0x04\n        /* \"#utility.yul\":11810:11825   */\n      mstore\n        /* \"#utility.yul\":11844:11848   */\n      0x24\n        /* \"#utility.yul\":11841:11842   */\n      0x00\n        /* \"#utility.yul\":11834:11849   */\n      revert\n        /* \"#utility.yul\":11861:12041   */\n    tag_291:\n        /* \"#utility.yul\":11909:11986   */\n      0x4e487b7100000000000000000000000000000000000000000000000000000000\n        /* \"#utility.yul\":11906:11907   */\n      0x00\n        /* \"#utility.yul\":11899:11987   */\n      mstore\n        /* \"#utility.yul\":12006:12010   */\n      0x11\n        /* \"#utility.yul\":12003:12004   */\n      0x04\n        /* \"#utility.yul\":11996:12011   */\n      mstore\n        /* \"#utility.yul\":12030:12034   */\n      0x24\n        /* \"#utility.yul\":12027:12028   */\n      0x00\n        /* \"#utility.yul\":12020:12035   */\n      revert\n        /* \"#utility.yul\":12047:12280   */\n    tag_116:\n        /* \"#utility.yul\":12086:12089   */\n      0x00\n        /* \"#utility.yul\":12109:12133   */\n      tag_441\n        /* \"#utility.yul\":12127:12132   */\n      dup3\n        /* \"#utility.yul\":12109:12133   */\n      tag_264\n      jump\t// in\n    tag_441:\n        /* \"#utility.yul\":12100:12133   */\n      swap2\n      pop\n        /* \"#utility.yul\":12155:12221   */\n      0xffffffffffffffffffffffffffffffffffffffffffffffffffffffffffffffff\n        /* \"#utility.yul\":12148:12153   */\n      dup3\n        /* \"#utility.yul\":12145:12222   */\n      eq\n        /* \"#utility.yul\":12142:12245   */\n      iszero\n      tag_442\n      jumpi\n        /* \"#utility.yul\":12225:12243   */\n      tag_443\n      tag_291\n      jump\t// in\n    tag_443:\n        /* \"#utility.yul\":12142:12245   */\n    tag_442:\n        /* \"#utility.yul\":12272:12273   */\n      0x01\n        /* \"#utility.yul\":12265:12270   */\n      dup3\n        /* \"#utility.yul\":12261:12274   */\n      add\n        /* \"#utility.yul\":12254:12274   */\n      swap1\n      pop\n        /* \"#utility.yul\":12047:12280   */\n      swap2\n      swap1\n      pop\n      jump\t// out\n        /* \"#utility.yul\":12286:12527   */\n    tag_292:\n        /* \"#utility.yul\":12426:12460   */\n      0x7472616e7366657246726f6d2063616c6c6572206973206e6f74206f776e6572\n        /* \"#utility.yul\":12422:12423   */\n      0x00\n        /* \"#utility.yul\":12414:12420   */\n      dup3\n        /* \"#utility.yul\":12410:12424   */\n      add\n        /* \"#utility.yul\":12403:12461   */\n      mstore\n        /* \"#utility.yul\":12495:12519   */\n      0x206e6f7220617070726f766564206f70657261746f7200000000000000000000\n        /* \"#utility.yul\":12490:12492   */\n      0x20\n        /* \"#utility.yul\":12482:12488   */\n      dup3\n        /* \"#utility.yul\":12478:12493   */\n      add\n        /* \"#utility.yul\":12471:12520   */\n      mstore\n        /* \"#utility.yul\":12286:12527   */\n      pop\n      jump\t// out\n        /* \"#utility.yul\":12533:12899   */\n    tag_293:\n        /* \"#utility.yul\":12675:12678   */\n      0x00\n        /* \"#utility.yul\":12696:12763   */\n      tag_446\n        /* \"#utility.yul\":12760:12762   */\n      0x36\n        /* \"#utility.yul\":12755:12758   */\n      dup4\n        /* \"#utility.yul\":12696:12763   */\n      tag_280\n      jump\t// in\n    tag_446:\n        /* \"#utility.yul\":12689:12763   */\n      swap2\n      pop\n        /* \"#utility.yul\":12772:12865   */\n      tag_447\n        /* \"#utility.yul\":12861:12864   */\n      dup3\n        /* \"#utility.yul\":12772:12865   */\n      tag_292\n      jump\t// in\n    tag_447:\n        /* \"#utility.yul\":12890:12892   */\n      0x40\n        /* \"#utility.yul\":12885:12888   */\n      dup3\n        /* \"#utility.yul\":12881:12893   */\n      add\n        /* \"#utility.yul\":12874:12893   */\n      swap1\n      pop\n        /* \"#utility.yul\":12533:12899   */\n      swap2\n      swap1\n      pop\n      jump\t// out\n        /* \"#utility.yul\":12905:13324   */\n    tag_125:\n        /* \"#utility.yul\":13071:13075   */\n      0x00\n        /* \"#utility.yul\":13109:13111   */\n      0x20\n        /* \"#utility.yul\":13098:13107   */\n      dup3\n        /* \"#utility.yul\":13094:13112   */\n      add\n        /* \"#utility.yul\":13086:13112   */\n      swap1\n      pop\n        /* \"#utility.yul\":13158:13167   */\n      dup2\n        /* \"#utility.yul\":13152:13156   */\n      dup2\n        /* \"#utility.yul\":13148:13168   */\n      sub\n        /* \"#utility.yul\":13144:13145   */\n      0x00\n        /* \"#utility.yul\":13133:13142   */\n      dup4\n        /* \"#utility.yul\":13129:13146   */\n      add\n        /* \"#utility.yul\":13122:13169   */\n      mstore\n        /* \"#utility.yul\":13186:13317   */\n      tag_449\n        /* \"#utility.yul\":13312:13316   */\n      dup2\n        /* \"#utility.yul\":13186:13317   */\n      tag_293\n      jump\t// in\n    tag_449:\n        /* \"#utility.yul\":13178:13317   */\n      swap1\n      pop\n        /* \"#utility.yul\":12905:13324   */\n      swap2\n      swap1\n      pop\n      jump\t// out\n        /* \"#utility.yul\":13330:13503   */\n    tag_294:\n        /* \"#utility.yul\":13470:13495   */\n      0x612066756e67757320616c726561647920657869737473000000000000000000\n        /* \"#utility.yul\":13466:13467   */\n      0x00\n        /* \"#utility.yul\":13458:13464   */\n      dup3\n        /* \"#utility.yul\":13454:13468   */\n      add\n        /* \"#utility.yul\":13447:13496   */\n      mstore\n        /* \"#utility.yul\":13330:13503   */\n      pop\n      jump\t// out\n        /* \"#utility.yul\":13509:13875   */\n    tag_295:\n        /* \"#utility.yul\":13651:13654   */\n      0x00\n        /* \"#utility.yul\":13672:13739   */\n      tag_452\n        /* \"#utility.yul\":13736:13738   */\n      0x17\n        /* \"#utility.yul\":13731:13734   */\n      dup4\n        /* \"#utility.yul\":13672:13739   */\n      tag_280\n      jump\t// in\n    tag_452:\n        /* \"#utility.yul\":13665:13739   */\n      swap2\n      pop\n        /* \"#utility.yul\":13748:13841   */\n      tag_453\n        /* \"#utility.yul\":13837:13840   */\n      dup3\n        /* \"#utility.yul\":13748:13841   */\n      tag_294\n      jump\t// in\n    tag_453:\n        /* \"#utility.yul\":13866:13868   */\n      0x20\n        /* \"#utility.yul\":13861:13864   */\n      dup3\n        /* \"#utility.yul\":13857:13869   */\n      add\n        /* \"#utility.yul\":13850:13869   */\n      swap1\n      pop\n        /* \"#utility.yul\":13509:13875   */\n      swap2\n      swap1\n      pop\n      jump\t// out\n        /* \"#utility.yul\":13881:14300   */\n    tag_131:\n        /* \"#utility.yul\":14047:14051   */\n      0x00\n        /* \"#utility.yul\":14085:14087   */\n      0x20\n        /* \"#utility.yul\":14074:14083   */\n      dup3\n        /* \"#utility.yul\":14070:14088   */\n      add\n        /* \"#utility.yul\":14062:14088   */\n      swap1\n      pop\n        /* \"#utility.yul\":14134:14143   */\n      dup2\n        /* \"#utility.yul\":14128:14132   */\n      dup2\n        /* \"#utility.yul\":14124:14144   */\n      sub\n        /* \"#utility.yul\":14120:14121   */\n      0x00\n        /* \"#utility.yul\":14109:14118   */\n      dup4\n        /* \"#utility.yul\":14105:14122   */\n      add\n        /* \"#utility.yul\":14098:14145   */\n      mstore\n        /* \"#utility.yul\":14162:14293   */\n      tag_455\n        /* \"#utility.yul\":14288:14292   */\n      dup2\n        /* \"#utility.yul\":14162:14293   */\n      tag_295\n      jump\t// in\n    tag_455:\n        /* \"#utility.yul\":14154:14293   */\n      swap1\n      pop\n        /* \"#utility.yul\":13881:14300   */\n      swap2\n      swap1\n      pop\n      jump\t// out\n        /* \"#utility.yul\":14306:14486   */\n    tag_296:\n        /* \"#utility.yul\":14354:14431   */\n      0x4e487b7100000000000000000000000000000000000000000000000000000000\n        /* \"#utility.yul\":14351:14352   */\n      0x00\n        /* \"#utility.yul\":14344:14432   */\n      mstore\n        /* \"#utility.yul\":14451:14455   */\n      0x22\n        /* \"#utility.yul\":14448:14449   */\n      0x04\n        /* \"#utility.yul\":14441:14456   */\n      mstore\n        /* \"#utility.yul\":14475:14479   */\n      0x24\n        /* \"#utility.yul\":14472:14473   */\n      0x00\n        /* \"#utility.yul\":14465:14480   */\n      revert\n        /* \"#utility.yul\":14492:14812   */\n    tag_140:\n        /* \"#utility.yul\":14536:14542   */\n      0x00\n        /* \"#utility.yul\":14573:14574   */\n      0x02\n        /* \"#utility.yul\":14567:14571   */\n      dup3\n        /* \"#utility.yul\":14563:14575   */\n      div\n        /* \"#utility.yul\":14553:14575   */\n      swap1\n      pop\n        /* \"#utility.yul\":14620:14621   */\n      0x01\n        /* \"#utility.yul\":14614:14618   */\n      dup3\n        /* \"#utility.yul\":14610:14622   */\n      and\n        /* \"#utility.yul\":14641:14659   */\n      dup1\n        /* \"#utility.yul\":14631:14712   */\n      tag_458\n      jumpi\n        /* \"#utility.yul\":14697:14701   */\n      0x7f\n        /* \"#utility.yul\":14689:14695   */\n      dup3\n        /* \"#utility.yul\":14685:14702   */\n      and\n        /* \"#utility.yul\":14675:14702   */\n      swap2\n      pop\n        /* \"#utility.yul\":14631:14712   */\n    tag_458:\n        /* \"#utility.yul\":14759:14761   */\n      0x20\n        /* \"#utility.yul\":14751:14757   */\n      dup3\n        /* \"#utility.yul\":14748:14762   */\n      lt\n        /* \"#utility.yul\":14728:14746   */\n      dup2\n        /* \"#utility.yul\":14725:14763   */\n      eq\n        /* \"#utility.yul\":14722:14806   */\n      iszero\n      tag_459\n      jumpi\n        /* \"#utility.yul\":14778:14796   */\n      tag_460\n      tag_296\n      jump\t// in\n    tag_460:\n        /* \"#utility.yul\":14722:14806   */\n    tag_459:\n        /* \"#utility.yul\":14543:14812   */\n      pop\n        /* \"#utility.yul\":14492:14812   */\n      swap2\n      swap1\n      pop\n      jump\t// out\n        /* \"#utility.yul\":14818:14935   */\n    tag_297:\n        /* \"#utility.yul\":14927:14928   */\n      0x00\n        /* \"#utility.yul\":14924:14925   */\n      dup1\n        /* \"#utility.yul\":14917:14929   */\n      revert\n        /* \"#utility.yul\":14941:15222   */\n    tag_298:\n        /* \"#utility.yul\":15024:15051   */\n      tag_463\n        /* \"#utility.yul\":15046:15050   */\n      dup3\n        /* \"#utility.yul\":15024:15051   */\n      tag_282\n      jump\t// in\n    tag_463:\n        /* \"#utility.yul\":15016:15022   */\n      dup2\n        /* \"#utility.yul\":15012:15052   */\n      add\n        /* \"#utility.yul\":15154:15160   */\n      dup2\n        /* \"#utility.yul\":15142:15152   */\n      dup2\n        /* \"#utility.yul\":15139:15161   */\n      lt\n        /* \"#utility.yul\":15118:15136   */\n      0xffffffffffffffff\n        /* \"#utility.yul\":15106:15116   */\n      dup3\n        /* \"#utility.yul\":15103:15137   */\n      gt\n        /* \"#utility.yul\":15100:15162   */\n      or\n        /* \"#utility.yul\":15097:15185   */\n      iszero\n      tag_464\n      jumpi\n        /* \"#utility.yul\":15165:15183   */\n      tag_465\n      tag_106\n      jump\t// in\n    tag_465:\n        /* \"#utility.yul\":15097:15185   */\n    tag_464:\n        /* \"#utility.yul\":15205:15215   */\n      dup1\n        /* \"#utility.yul\":15201:15203   */\n      0x40\n        /* \"#utility.yul\":15194:15216   */\n      mstore\n        /* \"#utility.yul\":14984:15222   */\n      pop\n        /* \"#utility.yul\":14941:15222   */\n      pop\n      pop\n      jump\t// out\n        /* \"#utility.yul\":15228:15357   */\n    tag_299:\n        /* \"#utility.yul\":15262:15268   */\n      0x00\n        /* \"#utility.yul\":15289:15309   */\n      tag_467\n      tag_257\n      jump\t// in\n    tag_467:\n        /* \"#utility.yul\":15279:15309   */\n      swap1\n      pop\n        /* \"#utility.yul\":15318:15351   */\n      tag_468\n        /* \"#utility.yul\":15346:15350   */\n      dup3\n        /* \"#utility.yul\":15338:15344   */\n      dup3\n        /* \"#utility.yul\":15318:15351   */\n      tag_298\n      jump\t// in\n    tag_468:\n        /* \"#utility.yul\":15228:15357   */\n      swap2\n      swap1\n      pop\n      jump\t// out\n        /* \"#utility.yul\":15363:15671   */\n    tag_300:\n        /* \"#utility.yul\":15425:15429   */\n      0x00\n        /* \"#utility.yul\":15515:15533   */\n      0xffffffffffffffff\n        /* \"#utility.yul\":15507:15513   */\n      dup3\n        /* \"#utility.yul\":15504:15534   */\n      gt\n        /* \"#utility.yul\":15501:15557   */\n      iszero\n      tag_470\n      jumpi\n        /* \"#utility.yul\":15537:15555   */\n      tag_471\n      tag_106\n      jump\t// in\n    tag_471:\n        /* \"#utility.yul\":15501:15557   */\n    tag_470:\n        /* \"#utility.yul\":15575:15604   */\n      tag_472\n        /* \"#utility.yul\":15597:15603   */\n      dup3\n        /* \"#utility.yul\":15575:15604   */\n      tag_282\n      jump\t// in\n    tag_472:\n        /* \"#utility.yul\":15567:15604   */\n      swap1\n      pop\n        /* \"#utility.yul\":15659:15663   */\n      0x20\n        /* \"#utility.yul\":15653:15657   */\n      dup2\n        /* \"#utility.yul\":15649:15664   */\n      add\n        /* \"#utility.yul\":15641:15664   */\n      swap1\n      pop\n        /* \"#utility.yul\":15363:15671   */\n      swap2\n      swap1\n      pop\n      jump\t// out\n        /* \"#utility.yul\":15677:16098   */\n    tag_301:\n        /* \"#utility.yul\":15766:15771   */\n      0x00\n        /* \"#utility.yul\":15791:15857   */\n      tag_474\n        /* \"#utility.yul\":15807:15856   */\n      tag_475\n        /* \"#utility.yul\":15849:15855   */\n      dup5\n        /* \"#utility.yul\":15807:15856   */\n      tag_300\n      jump\t// in\n    tag_475:\n        /* \"#utility.yul\":15791:15857   */\n      tag_299\n      jump\t// in\n    tag_474:\n        /* \"#utility.yul\":15782:15857   */\n      swap1\n      pop\n        /* \"#utility.yul\":15880:15886   */\n      dup3\n        /* \"#utility.yul\":15873:15878   */\n      dup2\n        /* \"#utility.yul\":15866:15887   */\n      mstore\n        /* \"#utility.yul\":15918:15922   */\n      0x20\n        /* \"#utility.yul\":15911:15916   */\n      dup2\n        /* \"#utility.yul\":15907:15923   */\n      add\n        /* \"#utility.yul\":15956:15959   */\n      dup5\n        /* \"#utility.yul\":15947:15953   */\n      dup5\n        /* \"#utility.yul\":15942:15945   */\n      dup5\n        /* \"#utility.yul\":15938:15954   */\n      add\n        /* \"#utility.yul\":15935:15960   */\n      gt\n        /* \"#utility.yul\":15932:16044   */\n      iszero\n      tag_476\n      jumpi\n        /* \"#utility.yul\":15963:16042   */\n      tag_477\n      tag_297\n      jump\t// in\n    tag_477:\n        /* \"#utility.yul\":15932:16044   */\n    tag_476:\n        /* \"#utility.yul\":16053:16092   */\n      tag_478\n        /* \"#utility.yul\":16085:16091   */\n      dup5\n        /* \"#utility.yul\":16080:16083   */\n      dup3\n        /* \"#utility.yul\":16075:16078   */\n      dup6\n        /* \"#utility.yul\":16053:16092   */\n      tag_281\n      jump\t// in\n    tag_478:\n        /* \"#utility.yul\":15772:16098   */\n      pop\n        /* \"#utility.yul\":15677:16098   */\n      swap4\n      swap3\n      pop\n      pop\n      pop\n      jump\t// out\n        /* \"#utility.yul\":16118:16473   */\n    tag_302:\n        /* \"#utility.yul\":16185:16190   */\n      0x00\n        /* \"#utility.yul\":16234:16237   */\n      dup3\n        /* \"#utility.yul\":16227:16231   */\n      0x1f\n        /* \"#utility.yul\":16219:16225   */\n      dup4\n        /* \"#utility.yul\":16215:16232   */\n      add\n        /* \"#utility.yul\":16211:16238   */\n      slt\n        /* \"#utility.yul\":16201:16323   */\n      tag_480\n      jumpi\n        /* \"#utility.yul\":16242:16321   */\n      tag_481\n      tag_275\n      jump\t// in\n    tag_481:\n        /* \"#utility.yul\":16201:16323   */\n    tag_480:\n        /* \"#utility.yul\":16352:16358   */\n      dup2\n        /* \"#utility.yul\":16346:16359   */\n      mload\n        /* \"#utility.yul\":16377:16467   */\n      tag_482\n        /* \"#utility.yul\":16463:16466   */\n      dup5\n        /* \"#utility.yul\":16455:16461   */\n      dup3\n        /* \"#utility.yul\":16448:16452   */\n      0x20\n        /* \"#utility.yul\":16440:16446   */\n      dup7\n        /* \"#utility.yul\":16436:16453   */\n      add\n        /* \"#utility.yul\":16377:16467   */\n      tag_301\n      jump\t// in\n    tag_482:\n        /* \"#utility.yul\":16368:16467   */\n      swap2\n      pop\n        /* \"#utility.yul\":16191:16473   */\n      pop\n        /* \"#utility.yul\":16118:16473   */\n      swap3\n      swap2\n      pop\n      pop\n      jump\t// out\n        /* \"#utility.yul\":16479:16622   */\n    tag_303:\n        /* \"#utility.yul\":16536:16541   */\n      0x00\n        /* \"#utility.yul\":16567:16573   */\n      dup2\n        /* \"#utility.yul\":16561:16574   */\n      mload\n        /* \"#utility.yul\":16552:16574   */\n      swap1\n      pop\n        /* \"#utility.yul\":16583:16616   */\n      tag_484\n        /* \"#utility.yul\":16610:16615   */\n      dup2\n        /* \"#utility.yul\":16583:16616   */\n      tag_265\n      jump\t// in\n    tag_484:\n        /* \"#utility.yul\":16479:16622   */\n      swap3\n      swap2\n      pop\n      pop\n      jump\t// out\n        /* \"#utility.yul\":16628:17464   */\n    tag_154:\n        /* \"#utility.yul\":16726:16732   */\n      0x00\n        /* \"#utility.yul\":16734:16740   */\n      dup1\n        /* \"#utility.yul\":16742:16748   */\n      0x00\n        /* \"#utility.yul\":16791:16793   */\n      0x60\n        /* \"#utility.yul\":16779:16788   */\n      dup5\n        /* \"#utility.yul\":16770:16777   */\n      dup7\n        /* \"#utility.yul\":16766:16789   */\n      sub\n        /* \"#utility.yul\":16762:16794   */\n      slt\n        /* \"#utility.yul\":16759:16878   */\n      iszero\n      tag_486\n      jumpi\n        /* \"#utility.yul\":16797:16876   */\n      tag_487\n      tag_258\n      jump\t// in\n    tag_487:\n        /* \"#utility.yul\":16759:16878   */\n    tag_486:\n        /* \"#utility.yul\":16938:16939   */\n      0x00\n        /* \"#utility.yul\":16927:16936   */\n      dup5\n        /* \"#utility.yul\":16923:16940   */\n      add\n        /* \"#utility.yul\":16917:16941   */\n      mload\n        /* \"#utility.yul\":16968:16986   */\n      0xffffffffffffffff\n        /* \"#utility.yul\":16960:16966   */\n      dup2\n        /* \"#utility.yul\":16957:16987   */\n      gt\n        /* \"#utility.yul\":16954:17071   */\n      iszero\n      tag_488\n      jumpi\n        /* \"#utility.yul\":16990:17069   */\n      tag_489\n      tag_259\n      jump\t// in\n    tag_489:\n        /* \"#utility.yul\":16954:17071   */\n    tag_488:\n        /* \"#utility.yul\":17095:17169   */\n      tag_490\n        /* \"#utility.yul\":17161:17168   */\n      dup7\n        /* \"#utility.yul\":17152:17158   */\n      dup3\n        /* \"#utility.yul\":17141:17150   */\n      dup8\n        /* \"#utility.yul\":17137:17159   */\n      add\n        /* \"#utility.yul\":17095:17169   */\n      tag_302\n      jump\t// in\n    tag_490:\n        /* \"#utility.yul\":17085:17169   */\n      swap4\n      pop\n        /* \"#utility.yul\":16888:17179   */\n      pop\n        /* \"#utility.yul\":17218:17220   */\n      0x20\n        /* \"#utility.yul\":17244:17308   */\n      tag_491\n        /* \"#utility.yul\":17300:17307   */\n      dup7\n        /* \"#utility.yul\":17291:17297   */\n      dup3\n        /* \"#utility.yul\":17280:17289   */\n      dup8\n        /* \"#utility.yul\":17276:17298   */\n      add\n        /* \"#utility.yul\":17244:17308   */\n      tag_303\n      jump\t// in\n    tag_491:\n        /* \"#utility.yul\":17234:17308   */\n      swap3\n      pop\n        /* \"#utility.yul\":17189:17318   */\n      pop\n        /* \"#utility.yul\":17357:17359   */\n      0x40\n        /* \"#utility.yul\":17383:17447   */\n      tag_492\n        /* \"#utility.yul\":17439:17446   */\n      dup7\n        /* \"#utility.yul\":17430:17436   */\n      dup3\n        /* \"#utility.yul\":17419:17428   */\n      dup8\n        /* \"#utility.yul\":17415:17437   */\n      add\n        /* \"#utility.yul\":17383:17447   */\n      tag_303\n      jump\t// in\n    tag_492:\n        /* \"#utility.yul\":17373:17447   */\n      swap2\n      pop\n        /* \"#utility.yul\":17328:17457   */\n      pop\n        /* \"#utility.yul\":16628:17464   */\n      swap3\n      pop\n      swap3\n      pop\n      swap3\n      jump\t// out\n        /* \"#utility.yul\":17470:17650   */\n    tag_304:\n        /* \"#utility.yul\":17610:17642   */\n      0x6265207061696420696e617070726f70726961746520657870656e7365730000\n        /* \"#utility.yul\":17606:17607   */\n      0x00\n        /* \"#utility.yul\":17598:17604   */\n      dup3\n        /* \"#utility.yul\":17594:17608   */\n      add\n        /* \"#utility.yul\":17587:17643   */\n      mstore\n        /* \"#utility.yul\":17470:17650   */\n      pop\n      jump\t// out\n        /* \"#utility.yul\":17656:18022   */\n    tag_305:\n        /* \"#utility.yul\":17798:17801   */\n      0x00\n        /* \"#utility.yul\":17819:17886   */\n      tag_495\n        /* \"#utility.yul\":17883:17885   */\n      0x1e\n        /* \"#utility.yul\":17878:17881   */\n      dup4\n        /* \"#utility.yul\":17819:17886   */\n      tag_280\n      jump\t// in\n    tag_495:\n        /* \"#utility.yul\":17812:17886   */\n      swap2\n      pop\n        /* \"#utility.yul\":17895:17988   */\n      tag_496\n        /* \"#utility.yul\":17984:17987   */\n      dup3\n        /* \"#utility.yul\":17895:17988   */\n      tag_304\n      jump\t// in\n    tag_496:\n        /* \"#utility.yul\":18013:18015   */\n      0x20\n        /* \"#utility.yul\":18008:18011   */\n      dup3\n        /* \"#utility.yul\":18004:18016   */\n      add\n        /* \"#utility.yul\":17997:18016   */\n      swap1\n      pop\n        /* \"#utility.yul\":17656:18022   */\n      swap2\n      swap1\n      pop\n      jump\t// out\n        /* \"#utility.yul\":18028:18447   */\n    tag_157:\n        /* \"#utility.yul\":18194:18198   */\n      0x00\n        /* \"#utility.yul\":18232:18234   */\n      0x20\n        /* \"#utility.yul\":18221:18230   */\n      dup3\n        /* \"#utility.yul\":18217:18235   */\n      add\n        /* \"#utility.yul\":18209:18235   */\n      swap1\n      pop\n        /* \"#utility.yul\":18281:18290   */\n      dup2\n        /* \"#utility.yul\":18275:18279   */\n      dup2\n        /* \"#utility.yul\":18271:18291   */\n      sub\n        /* \"#utility.yul\":18267:18268   */\n      0x00\n        /* \"#utility.yul\":18256:18265   */\n      dup4\n        /* \"#utility.yul\":18252:18269   */\n      add\n        /* \"#utility.yul\":18245:18292   */\n      mstore\n        /* \"#utility.yul\":18309:18440   */\n      tag_498\n        /* \"#utility.yul\":18435:18439   */\n      dup2\n        /* \"#utility.yul\":18309:18440   */\n      tag_305\n      jump\t// in\n    tag_498:\n        /* \"#utility.yul\":18301:18440   */\n      swap1\n      pop\n        /* \"#utility.yul\":18028:18447   */\n      swap2\n      swap1\n      pop\n      jump\t// out\n        /* \"#utility.yul\":18453:18678   */\n    tag_306:\n        /* \"#utility.yul\":18593:18627   */\n      0x4f776e61626c653a206e6577206f776e657220697320746865207a65726f2061\n        /* \"#utility.yul\":18589:18590   */\n      0x00\n        /* \"#utility.yul\":18581:18587   */\n      dup3\n        /* \"#utility.yul\":18577:18591   */\n      add\n        /* \"#utility.yul\":18570:18628   */\n      mstore\n        /* \"#utility.yul\":18662:18670   */\n      0x6464726573730000000000000000000000000000000000000000000000000000\n        /* \"#utility.yul\":18657:18659   */\n      0x20\n        /* \"#utility.yul\":18649:18655   */\n      dup3\n        /* \"#utility.yul\":18645:18660   */\n      add\n        /* \"#utility.yul\":18638:18671   */\n      mstore\n        /* \"#utility.yul\":18453:18678   */\n      pop\n      jump\t// out\n        /* \"#utility.yul\":18684:19050   */\n    tag_307:\n        /* \"#utility.yul\":18826:18829   */\n      0x00\n        /* \"#utility.yul\":18847:18914   */\n      tag_501\n        /* \"#utility.yul\":18911:18913   */\n      0x26\n        /* \"#utility.yul\":18906:18909   */\n      dup4\n        /* \"#utility.yul\":18847:18914   */\n      tag_280\n      jump\t// in\n    tag_501:\n        /* \"#utility.yul\":18840:18914   */\n      swap2\n      pop\n        /* \"#utility.yul\":18923:19016   */\n      tag_502\n        /* \"#utility.yul\":19012:19015   */\n      dup3\n        /* \"#utility.yul\":18923:19016   */\n      tag_306\n      jump\t// in\n    tag_502:\n        /* \"#utility.yul\":19041:19043   */\n      0x40\n        /* \"#utility.yul\":19036:19039   */\n      dup3\n        /* \"#utility.yul\":19032:19044   */\n      add\n        /* \"#utility.yul\":19025:19044   */\n      swap1\n      pop\n        /* \"#utility.yul\":18684:19050   */\n      swap2\n      swap1\n      pop\n      jump\t// out\n        /* \"#utility.yul\":19056:19475   */\n    tag_172:\n        /* \"#utility.yul\":19222:19226   */\n      0x00\n        /* \"#utility.yul\":19260:19262   */\n      0x20\n        /* \"#utility.yul\":19249:19258   */\n      dup3\n        /* \"#utility.yul\":19245:19263   */\n      add\n        /* \"#utility.yul\":19237:19263   */\n      swap1\n      pop\n        /* \"#utility.yul\":19309:19318   */\n      dup2\n        /* \"#utility.yul\":19303:19307   */\n      dup2\n        /* \"#utility.yul\":19299:19319   */\n      sub\n        /* \"#utility.yul\":19295:19296   */\n      0x00\n        /* \"#utility.yul\":19284:19293   */\n      dup4\n        /* \"#utility.yul\":19280:19297   */\n      add\n        /* \"#utility.yul\":19273:19320   */\n      mstore\n        /* \"#utility.yul\":19337:19468   */\n      tag_504\n        /* \"#utility.yul\":19463:19467   */\n      dup2\n        /* \"#utility.yul\":19337:19468   */\n      tag_307\n      jump\t// in\n    tag_504:\n        /* \"#utility.yul\":19329:19468   */\n      swap1\n      pop\n        /* \"#utility.yul\":19056:19475   */\n      swap2\n      swap1\n      pop\n      jump\t// out\n        /* \"#utility.yul\":19481:19660   */\n    tag_308:\n        /* \"#utility.yul\":19621:19652   */\n      0x7472616e736665722066726f6d20696e636f7272656374206f776e6572000000\n        /* \"#utility.yul\":19617:19618   */\n      0x00\n        /* \"#utility.yul\":19609:19615   */\n      dup3\n        /* \"#utility.yul\":19605:19619   */\n      add\n        /* \"#utility.yul\":19598:19653   */\n      mstore\n        /* \"#utility.yul\":19481:19660   */\n      pop\n      jump\t// out\n        /* \"#utility.yul\":19666:20032   */\n    tag_309:\n        /* \"#utility.yul\":19808:19811   */\n      0x00\n        /* \"#utility.yul\":19829:19896   */\n      tag_507\n        /* \"#utility.yul\":19893:19895   */\n      0x1d\n        /* \"#utility.yul\":19888:19891   */\n      dup4\n        /* \"#utility.yul\":19829:19896   */\n      tag_280\n      jump\t// in\n    tag_507:\n        /* \"#utility.yul\":19822:19896   */\n      swap2\n      pop\n        /* \"#utility.yul\":19905:19998   */\n      tag_508\n        /* \"#utility.yul\":19994:19997   */\n      dup3\n        /* \"#utility.yul\":19905:19998   */\n      tag_308\n      jump\t// in\n    tag_508:\n        /* \"#utility.yul\":20023:20025   */\n      0x20\n        /* \"#utility.yul\":20018:20021   */\n      dup3\n        /* \"#utility.yul\":20014:20026   */\n      add\n        /* \"#utility.yul\":20007:20026   */\n      swap1\n      pop\n        /* \"#utility.yul\":19666:20032   */\n      swap2\n      swap1\n      pop\n      jump\t// out\n        /* \"#utility.yul\":20038:20457   */\n    tag_182:\n        /* \"#utility.yul\":20204:20208   */\n      0x00\n        /* \"#utility.yul\":20242:20244   */\n      0x20\n        /* \"#utility.yul\":20231:20240   */\n      dup3\n        /* \"#utility.yul\":20227:20245   */\n      add\n        /* \"#utility.yul\":20219:20245   */\n      swap1\n      pop\n        /* \"#utility.yul\":20291:20300   */\n      dup2\n        /* \"#utility.yul\":20285:20289   */\n      dup2\n        /* \"#utility.yul\":20281:20301   */\n      sub\n        /* \"#utility.yul\":20277:20278   */\n      0x00\n        /* \"#utility.yul\":20266:20275   */\n      dup4\n        /* \"#utility.yul\":20262:20279   */\n      add\n        /* \"#utility.yul\":20255:20302   */\n      mstore\n        /* \"#utility.yul\":20319:20450   */\n      tag_510\n        /* \"#utility.yul\":20445:20449   */\n      dup2\n        /* \"#utility.yul\":20319:20450   */\n      tag_309\n      jump\t// in\n    tag_510:\n        /* \"#utility.yul\":20311:20450   */\n      swap1\n      pop\n        /* \"#utility.yul\":20038:20457   */\n      swap2\n      swap1\n      pop\n      jump\t// out\n        /* \"#utility.yul\":20463:20641   */\n    tag_310:\n        /* \"#utility.yul\":20603:20633   */\n      0x7472616e7366657220746f20746865207a65726f206164647265737300000000\n        /* \"#utility.yul\":20599:20600   */\n      0x00\n        /* \"#utility.yul\":20591:20597   */\n      dup3\n        /* \"#utility.yul\":20587:20601   */\n      add\n        /* \"#utility.yul\":20580:20634   */\n      mstore\n        /* \"#utility.yul\":20463:20641   */\n      pop\n      jump\t// out\n        /* \"#utility.yul\":20647:21013   */\n    tag_311:\n        /* \"#utility.yul\":20789:20792   */\n      0x00\n        /* \"#utility.yul\":20810:20877   */\n      tag_513\n        /* \"#utility.yul\":20874:20876   */\n      0x1c\n        /* \"#utility.yul\":20869:20872   */\n      dup4\n        /* \"#utility.yul\":20810:20877   */\n      tag_280\n      jump\t// in\n    tag_513:\n        /* \"#utility.yul\":20803:20877   */\n      swap2\n      pop\n        /* \"#utility.yul\":20886:20979   */\n      tag_514\n        /* \"#utility.yul\":20975:20978   */\n      dup3\n        /* \"#utility.yul\":20886:20979   */\n      tag_310\n      jump\t// in\n    tag_514:\n        /* \"#utility.yul\":21004:21006   */\n      0x20\n        /* \"#utility.yul\":20999:21002   */\n      dup3\n        /* \"#utility.yul\":20995:21007   */\n      add\n        /* \"#utility.yul\":20988:21007   */\n      swap1\n      pop\n        /* \"#utility.yul\":20647:21013   */\n      swap2\n      swap1\n      pop\n      jump\t// out\n        /* \"#utility.yul\":21019:21438   */\n    tag_185:\n        /* \"#utility.yul\":21185:21189   */\n      0x00\n        /* \"#utility.yul\":21223:21225   */\n      0x20\n        /* \"#utility.yul\":21212:21221   */\n      dup3\n        /* \"#utility.yul\":21208:21226   */\n      add\n        /* \"#utility.yul\":21200:21226   */\n      swap1\n      pop\n        /* \"#utility.yul\":21272:21281   */\n      dup2\n        /* \"#utility.yul\":21266:21270   */\n      dup2\n        /* \"#utility.yul\":21262:21282   */\n      sub\n        /* \"#utility.yul\":21258:21259   */\n      0x00\n        /* \"#utility.yul\":21247:21256   */\n      dup4\n        /* \"#utility.yul\":21243:21260   */\n      add\n        /* \"#utility.yul\":21236:21283   */\n      mstore\n        /* \"#utility.yul\":21300:21431   */\n      tag_516\n        /* \"#utility.yul\":21426:21430   */\n      dup2\n        /* \"#utility.yul\":21300:21431   */\n      tag_311\n      jump\t// in\n    tag_516:\n        /* \"#utility.yul\":21292:21431   */\n      swap1\n      pop\n        /* \"#utility.yul\":21019:21438   */\n      swap2\n      swap1\n      pop\n      jump\t// out\n        /* \"#utility.yul\":21444:21615   */\n    tag_188:\n        /* \"#utility.yul\":21483:21486   */\n      0x00\n        /* \"#utility.yul\":21506:21530   */\n      tag_518\n        /* \"#utility.yul\":21524:21529   */\n      dup3\n        /* \"#utility.yul\":21506:21530   */\n      tag_264\n      jump\t// in\n    tag_518:\n        /* \"#utility.yul\":21497:21530   */\n      swap2\n      pop\n        /* \"#utility.yul\":21552:21556   */\n      0x00\n        /* \"#utility.yul\":21545:21550   */\n      dup3\n        /* \"#utility.yul\":21542:21557   */\n      eq\n        /* \"#utility.yul\":21539:21580   */\n      iszero\n      tag_519\n      jumpi\n        /* \"#utility.yul\":21560:21578   */\n      tag_520\n      tag_291\n      jump\t// in\n    tag_520:\n        /* \"#utility.yul\":21539:21580   */\n    tag_519:\n        /* \"#utility.yul\":21607:21608   */\n      0x01\n        /* \"#utility.yul\":21600:21605   */\n      dup3\n        /* \"#utility.yul\":21596:21609   */\n      sub\n        /* \"#utility.yul\":21589:21609   */\n      swap1\n      pop\n        /* \"#utility.yul\":21444:21615   */\n      swap2\n      swap1\n      pop\n      jump\t// out\n        /* \"#utility.yul\":21621:21768   */\n    tag_312:\n        /* \"#utility.yul\":21722:21733   */\n      0x00\n        /* \"#utility.yul\":21759:21762   */\n      dup2\n        /* \"#utility.yul\":21744:21762   */\n      swap1\n      pop\n        /* \"#utility.yul\":21621:21768   */\n      swap3\n      swap2\n      pop\n      pop\n      jump\t// out\n        /* \"#utility.yul\":21774:21928   */\n    tag_313:\n        /* \"#utility.yul\":21858:21864   */\n      dup3\n        /* \"#utility.yul\":21853:21856   */\n      dup2\n        /* \"#utility.yul\":21848:21851   */\n      dup4\n        /* \"#utility.yul\":21835:21865   */\n      calldatacopy\n        /* \"#utility.yul\":21920:21921   */\n      0x00\n        /* \"#utility.yul\":21911:21917   */\n      dup4\n        /* \"#utility.yul\":21906:21909   */\n      dup4\n        /* \"#utility.yul\":21902:21918   */\n      add\n        /* \"#utility.yul\":21895:21922   */\n      mstore\n        /* \"#utility.yul\":21774:21928   */\n      pop\n      pop\n      pop\n      jump\t// out\n        /* \"#utility.yul\":21956:22270   */\n    tag_314:\n        /* \"#utility.yul\":22070:22073   */\n      0x00\n        /* \"#utility.yul\":22091:22179   */\n      tag_524\n        /* \"#utility.yul\":22172:22178   */\n      dup4\n        /* \"#utility.yul\":22167:22170   */\n      dup6\n        /* \"#utility.yul\":22091:22179   */\n      tag_312\n      jump\t// in\n    tag_524:\n        /* \"#utility.yul\":22084:22179   */\n      swap4\n      pop\n        /* \"#utility.yul\":22189:22232   */\n      tag_525\n        /* \"#utility.yul\":22225:22231   */\n      dup4\n        /* \"#utility.yul\":22220:22223   */\n      dup6\n        /* \"#utility.yul\":22213:22218   */\n      dup5\n        /* \"#utility.yul\":22189:22232   */\n      tag_313\n      jump\t// in\n    tag_525:\n        /* \"#utility.yul\":22257:22263   */\n      dup3\n        /* \"#utility.yul\":22252:22255   */\n      dup5\n        /* \"#utility.yul\":22248:22264   */\n      add\n        /* \"#utility.yul\":22241:22264   */\n      swap1\n      pop\n        /* \"#utility.yul\":21956:22270   */\n      swap4\n      swap3\n      pop\n      pop\n      pop\n      jump\t// out\n        /* \"#utility.yul\":22276:22567   */\n    tag_193:\n        /* \"#utility.yul\":22416:22419   */\n      0x00\n        /* \"#utility.yul\":22438:22541   */\n      tag_527\n        /* \"#utility.yul\":22537:22540   */\n      dup3\n        /* \"#utility.yul\":22528:22534   */\n      dup5\n        /* \"#utility.yul\":22520:22526   */\n      dup7\n        /* \"#utility.yul\":22438:22541   */\n      tag_314\n      jump\t// in\n    tag_527:\n        /* \"#utility.yul\":22431:22541   */\n      swap2\n      pop\n        /* \"#utility.yul\":22558:22561   */\n      dup2\n        /* \"#utility.yul\":22551:22561   */\n      swap1\n      pop\n        /* \"#utility.yul\":22276:22567   */\n      swap4\n      swap3\n      pop\n      pop\n      pop\n      jump\t// out\n        /* \"#utility.yul\":22573:22753   */\n    tag_315:\n        /* \"#utility.yul\":22621:22698   */\n      0x4e487b7100000000000000000000000000000000000000000000000000000000\n        /* \"#utility.yul\":22618:22619   */\n      0x00\n        /* \"#utility.yul\":22611:22699   */\n      mstore\n        /* \"#utility.yul\":22718:22722   */\n      0x12\n        /* \"#utility.yul\":22715:22716   */\n      0x04\n        /* \"#utility.yul\":22708:22723   */\n      mstore\n        /* \"#utility.yul\":22742:22746   */\n      0x24\n        /* \"#utility.yul\":22739:22740   */\n      0x00\n        /* \"#utility.yul\":22732:22747   */\n      revert\n        /* \"#utility.yul\":22759:22935   */\n    tag_195:\n        /* \"#utility.yul\":22791:22792   */\n      0x00\n        /* \"#utility.yul\":22808:22828   */\n      tag_530\n        /* \"#utility.yul\":22826:22827   */\n      dup3\n        /* \"#utility.yul\":22808:22828   */\n      tag_264\n      jump\t// in\n    tag_530:\n        /* \"#utility.yul\":22803:22828   */\n      swap2\n      pop\n        /* \"#utility.yul\":22842:22862   */\n      tag_531\n        /* \"#utility.yul\":22860:22861   */\n      dup4\n        /* \"#utility.yul\":22842:22862   */\n      tag_264\n      jump\t// in\n    tag_531:\n        /* \"#utility.yul\":22837:22862   */\n      swap3\n      pop\n        /* \"#utility.yul\":22881:22882   */\n      dup3\n        /* \"#utility.yul\":22871:22906   */\n      tag_532\n      jumpi\n        /* \"#utility.yul\":22886:22904   */\n      tag_533\n      tag_315\n      jump\t// in\n    tag_533:\n        /* \"#utility.yul\":22871:22906   */\n    tag_532:\n        /* \"#utility.yul\":22927:22928   */\n      dup3\n        /* \"#utility.yul\":22924:22925   */\n      dup3\n        /* \"#utility.yul\":22920:22929   */\n      mod\n        /* \"#utility.yul\":22915:22929   */\n      swap1\n      pop\n        /* \"#utility.yul\":22759:22935   */\n      swap3\n      swap2\n      pop\n      pop\n      jump\t// out\n        /* \"#utility.yul\":22941:23132   */\n    tag_198:\n        /* \"#utility.yul\":22981:22985   */\n      0x00\n        /* \"#utility.yul\":23001:23021   */\n      tag_535\n        /* \"#utility.yul\":23019:23020   */\n      dup3\n        /* \"#utility.yul\":23001:23021   */\n      tag_264\n      jump\t// in\n    tag_535:\n        /* \"#utility.yul\":22996:23021   */\n      swap2\n      pop\n        /* \"#utility.yul\":23035:23055   */\n      tag_536\n        /* \"#utility.yul\":23053:23054   */\n      dup4\n        /* \"#utility.yul\":23035:23055   */\n      tag_264\n      jump\t// in\n    tag_536:\n        /* \"#utility.yul\":23030:23055   */\n      swap3\n      pop\n        /* \"#utility.yul\":23074:23075   */\n      dup3\n        /* \"#utility.yul\":23071:23072   */\n      dup3\n        /* \"#utility.yul\":23068:23076   */\n      lt\n        /* \"#utility.yul\":23065:23099   */\n      iszero\n      tag_537\n      jumpi\n        /* \"#utility.yul\":23079:23097   */\n      tag_538\n      tag_291\n      jump\t// in\n    tag_538:\n        /* \"#utility.yul\":23065:23099   */\n    tag_537:\n        /* \"#utility.yul\":23124:23125   */\n      dup3\n        /* \"#utility.yul\":23121:23122   */\n      dup3\n        /* \"#utility.yul\":23117:23126   */\n      sub\n        /* \"#utility.yul\":23109:23126   */\n      swap1\n      pop\n        /* \"#utility.yul\":22941:23132   */\n      swap3\n      swap2\n      pop\n      pop\n      jump\t// out\n        /* \"#utility.yul\":23138:23443   */\n    tag_201:\n        /* \"#utility.yul\":23178:23181   */\n      0x00\n        /* \"#utility.yul\":23197:23217   */\n      tag_540\n        /* \"#utility.yul\":23215:23216   */\n      dup3\n        /* \"#utility.yul\":23197:23217   */\n      tag_264\n      jump\t// in\n    tag_540:\n        /* \"#utility.yul\":23192:23217   */\n      swap2\n      pop\n        /* \"#utility.yul\":23231:23251   */\n      tag_541\n        /* \"#utility.yul\":23249:23250   */\n      dup4\n        /* \"#utility.yul\":23231:23251   */\n      tag_264\n      jump\t// in\n    tag_541:\n        /* \"#utility.yul\":23226:23251   */\n      swap3\n      pop\n        /* \"#utility.yul\":23385:23386   */\n      dup3\n        /* \"#utility.yul\":23317:23383   */\n      0xffffffffffffffffffffffffffffffffffffffffffffffffffffffffffffffff\n        /* \"#utility.yul\":23313:23387   */\n      sub\n        /* \"#utility.yul\":23310:23311   */\n      dup3\n        /* \"#utility.yul\":23307:23388   */\n      gt\n        /* \"#utility.yul\":23304:23411   */\n      iszero\n      tag_542\n      jumpi\n        /* \"#utility.yul\":23391:23409   */\n      tag_543\n      tag_291\n      jump\t// in\n    tag_543:\n        /* \"#utility.yul\":23304:23411   */\n    tag_542:\n        /* \"#utility.yul\":23435:23436   */\n      dup3\n        /* \"#utility.yul\":23432:23433   */\n      dup3\n        /* \"#utility.yul\":23428:23437   */\n      add\n        /* \"#utility.yul\":23421:23437   */\n      swap1\n      pop\n        /* \"#utility.yul\":23138:23443   */\n      swap3\n      swap2\n      pop\n      pop\n      jump\t// out\n        /* \"#utility.yul\":23449:23982   */\n    tag_208:\n        /* \"#utility.yul\":23618:23622   */\n      0x00\n        /* \"#utility.yul\":23656:23658   */\n      0x60\n        /* \"#utility.yul\":23645:23654   */\n      dup3\n        /* \"#utility.yul\":23641:23659   */\n      add\n        /* \"#utility.yul\":23633:23659   */\n      swap1\n      pop\n        /* \"#utility.yul\":23669:23740   */\n      tag_545\n        /* \"#utility.yul\":23737:23738   */\n      0x00\n        /* \"#utility.yul\":23726:23735   */\n      dup4\n        /* \"#utility.yul\":23722:23739   */\n      add\n        /* \"#utility.yul\":23713:23719   */\n      dup7\n        /* \"#utility.yul\":23669:23740   */\n      tag_284\n      jump\t// in\n    tag_545:\n        /* \"#utility.yul\":23787:23796   */\n      dup2\n        /* \"#utility.yul\":23781:23785   */\n      dup2\n        /* \"#utility.yul\":23777:23797   */\n      sub\n        /* \"#utility.yul\":23772:23774   */\n      0x20\n        /* \"#utility.yul\":23761:23770   */\n      dup4\n        /* \"#utility.yul\":23757:23775   */\n      add\n        /* \"#utility.yul\":23750:23798   */\n      mstore\n        /* \"#utility.yul\":23815:23893   */\n      tag_546\n        /* \"#utility.yul\":23888:23892   */\n      dup2\n        /* \"#utility.yul\":23879:23885   */\n      dup6\n        /* \"#utility.yul\":23815:23893   */\n      tag_283\n      jump\t// in\n    tag_546:\n        /* \"#utility.yul\":23807:23893   */\n      swap1\n      pop\n        /* \"#utility.yul\":23903:23975   */\n      tag_547\n        /* \"#utility.yul\":23971:23973   */\n      0x40\n        /* \"#utility.yul\":23960:23969   */\n      dup4\n        /* \"#utility.yul\":23956:23974   */\n      add\n        /* \"#utility.yul\":23947:23953   */\n      dup5\n        /* \"#utility.yul\":23903:23975   */\n      tag_284\n      jump\t// in\n    tag_547:\n        /* \"#utility.yul\":23449:23982   */\n      swap5\n      swap4\n      pop\n      pop\n      pop\n      pop\n      jump\t// out\n        /* \"#utility.yul\":23988:24170   */\n    tag_316:\n        /* \"#utility.yul\":24128:24162   */\n      0x4f776e61626c653a2063616c6c6572206973206e6f7420746865206f776e6572\n        /* \"#utility.yul\":24124:24125   */\n      0x00\n        /* \"#utility.yul\":24116:24122   */\n      dup3\n        /* \"#utility.yul\":24112:24126   */\n      add\n        /* \"#utility.yul\":24105:24163   */\n      mstore\n        /* \"#utility.yul\":23988:24170   */\n      pop\n      jump\t// out\n        /* \"#utility.yul\":24176:24542   */\n    tag_317:\n        /* \"#utility.yul\":24318:24321   */\n      0x00\n        /* \"#utility.yul\":24339:24406   */\n      tag_550\n        /* \"#utility.yul\":24403:24405   */\n      0x20\n        /* \"#utility.yul\":24398:24401   */\n      dup4\n        /* \"#utility.yul\":24339:24406   */\n      tag_280\n      jump\t// in\n    tag_550:\n        /* \"#utility.yul\":24332:24406   */\n      swap2\n      pop\n        /* \"#utility.yul\":24415:24508   */\n      tag_551\n        /* \"#utility.yul\":24504:24507   */\n      dup3\n        /* \"#utility.yul\":24415:24508   */\n      tag_316\n      jump\t// in\n    tag_551:\n        /* \"#utility.yul\":24533:24535   */\n      0x20\n        /* \"#utility.yul\":24528:24531   */\n      dup3\n        /* \"#utility.yul\":24524:24536   */\n      add\n        /* \"#utility.yul\":24517:24536   */\n      swap1\n      pop\n        /* \"#utility.yul\":24176:24542   */\n      swap2\n      swap1\n      pop\n      jump\t// out\n        /* \"#utility.yul\":24548:24967   */\n    tag_214:\n        /* \"#utility.yul\":24714:24718   */\n      0x00\n        /* \"#utility.yul\":24752:24754   */\n      0x20\n        /* \"#utility.yul\":24741:24750   */\n      dup3\n        /* \"#utility.yul\":24737:24755   */\n      add\n        /* \"#utility.yul\":24729:24755   */\n      swap1\n      pop\n        /* \"#utility.yul\":24801:24810   */\n      dup2\n        /* \"#utility.yul\":24795:24799   */\n      dup2\n        /* \"#utility.yul\":24791:24811   */\n      sub\n        /* \"#utility.yul\":24787:24788   */\n      0x00\n        /* \"#utility.yul\":24776:24785   */\n      dup4\n        /* \"#utility.yul\":24772:24789   */\n      add\n        /* \"#utility.yul\":24765:24812   */\n      mstore\n        /* \"#utility.yul\":24829:24960   */\n      tag_553\n        /* \"#utility.yul\":24955:24959   */\n      dup2\n        /* \"#utility.yul\":24829:24960   */\n      tag_317\n      jump\t// in\n    tag_553:\n        /* \"#utility.yul\":24821:24960   */\n      swap1\n      pop\n        /* \"#utility.yul\":24548:24967   */\n      swap2\n      swap1\n      pop\n      jump\t// out\n        /* \"#utility.yul\":24973:25132   */\n    tag_318:\n        /* \"#utility.yul\":25113:25124   */\n      0x6e6f742072656164790000000000000000000000000000000000000000000000\n        /* \"#utility.yul\":25109:25110   */\n      0x00\n        /* \"#utility.yul\":25101:25107   */\n      dup3\n        /* \"#utility.yul\":25097:25111   */\n      add\n        /* \"#utility.yul\":25090:25125   */\n      mstore\n        /* \"#utility.yul\":24973:25132   */\n      pop\n      jump\t// out\n        /* \"#utility.yul\":25138:25503   */\n    tag_319:\n        /* \"#utility.yul\":25280:25283   */\n      0x00\n        /* \"#utility.yul\":25301:25367   */\n      tag_556\n        /* \"#utility.yul\":25365:25366   */\n      0x09\n        /* \"#utility.yul\":25360:25363   */\n      dup4\n        /* \"#utility.yul\":25301:25367   */\n      tag_280\n      jump\t// in\n    tag_556:\n        /* \"#utility.yul\":25294:25367   */\n      swap2\n      pop\n        /* \"#utility.yul\":25376:25469   */\n      tag_557\n        /* \"#utility.yul\":25465:25468   */\n      dup3\n        /* \"#utility.yul\":25376:25469   */\n      tag_318\n      jump\t// in\n    tag_557:\n        /* \"#utility.yul\":25494:25496   */\n      0x20\n        /* \"#utility.yul\":25489:25492   */\n      dup3\n        /* \"#utility.yul\":25485:25497   */\n      add\n        /* \"#utility.yul\":25478:25497   */\n      swap1\n      pop\n        /* \"#utility.yul\":25138:25503   */\n      swap2\n      swap1\n      pop\n      jump\t// out\n        /* \"#utility.yul\":25509:25928   */\n    tag_231:\n        /* \"#utility.yul\":25675:25679   */\n      0x00\n        /* \"#utility.yul\":25713:25715   */\n      0x20\n        /* \"#utility.yul\":25702:25711   */\n      dup3\n        /* \"#utility.yul\":25698:25716   */\n      add\n        /* \"#utility.yul\":25690:25716   */\n      swap1\n      pop\n        /* \"#utility.yul\":25762:25771   */\n      dup2\n        /* \"#utility.yul\":25756:25760   */\n      dup2\n        /* \"#utility.yul\":25752:25772   */\n      sub\n        /* \"#utility.yul\":25748:25749   */\n      0x00\n        /* \"#utility.yul\":25737:25746   */\n      dup4\n        /* \"#utility.yul\":25733:25750   */\n      add\n        /* \"#utility.yul\":25726:25773   */\n      mstore\n        /* \"#utility.yul\":25790:25921   */\n      tag_559\n        /* \"#utility.yul\":25916:25920   */\n      dup2\n        /* \"#utility.yul\":25790:25921   */\n      tag_319\n      jump\t// in\n    tag_559:\n        /* \"#utility.yul\":25782:25921   */\n      swap1\n      pop\n        /* \"#utility.yul\":25509:25928   */\n      swap2\n      swap1\n      pop\n      jump\t// out\n        /* \"#utility.yul\":25934:26119   */\n    tag_235:\n        /* \"#utility.yul\":25974:25975   */\n      0x00\n        /* \"#utility.yul\":25991:26011   */\n      tag_561\n        /* \"#utility.yul\":26009:26010   */\n      dup3\n        /* \"#utility.yul\":25991:26011   */\n      tag_264\n      jump\t// in\n    tag_561:\n        /* \"#utility.yul\":25986:26011   */\n      swap2\n      pop\n        /* \"#utility.yul\":26025:26045   */\n      tag_562\n        /* \"#utility.yul\":26043:26044   */\n      dup4\n        /* \"#utility.yul\":26025:26045   */\n      tag_264\n      jump\t// in\n    tag_562:\n        /* \"#utility.yul\":26020:26045   */\n      swap3\n      pop\n        /* \"#utility.yul\":26064:26065   */\n      dup3\n        /* \"#utility.yul\":26054:26089   */\n      tag_563\n      jumpi\n        /* \"#utility.yul\":26069:26087   */\n      tag_564\n      tag_315\n      jump\t// in\n    tag_564:\n        /* \"#utility.yul\":26054:26089   */\n    tag_563:\n        /* \"#utility.yul\":26111:26112   */\n      dup3\n        /* \"#utility.yul\":26108:26109   */\n      dup3\n        /* \"#utility.yul\":26104:26113   */\n      div\n        /* \"#utility.yul\":26099:26113   */\n      swap1\n      pop\n        /* \"#utility.yul\":25934:26119   */\n      swap3\n      swap2\n      pop\n      pop\n      jump\t// out\n\n    auxdata: 0xa26469706673582212201289dd948e468adb660768aefe6f8f72d5b665561b5184ab179d914177bef2c364736f6c634300080c0033\n}\n",
				"bytecode": {
					"linkReferences": {},
					"object": "6080604052600e600155600154600a6200001a9190620002af565b600255603c6003553480156200002f57600080fd5b5062000050620000446200005660201b60201c565b6200005e60201b60201c565b62000300565b600033905090565b60008060009054906101000a900473ffffffffffffffffffffffffffffffffffffffff169050816000806101000a81548173ffffffffffffffffffffffffffffffffffffffff021916908373ffffffffffffffffffffffffffffffffffffffff1602179055508173ffffffffffffffffffffffffffffffffffffffff168173ffffffffffffffffffffffffffffffffffffffff167f8be0079c531659141344cd1fd0a4f28419497f9722a3daafe3b4186f6b6457e060405160405180910390a35050565b7f4e487b7100000000000000000000000000000000000000000000000000000000600052601160045260246000fd5b60008160011c9050919050565b6000808291508390505b6001851115620001b05780860481111562000188576200018762000122565b5b6001851615620001985780820291505b8081029050620001a88562000151565b945062000168565b94509492505050565b600082620001cb57600190506200029e565b81620001db57600090506200029e565b8160018114620001f45760028114620001ff5762000235565b60019150506200029e565b60ff84111562000214576200021362000122565b5b8360020a9150848211156200022e576200022d62000122565b5b506200029e565b5060208310610133831016604e8410600b84101617156200026f5782820a90508381111562000269576200026862000122565b5b6200029e565b6200027e84848460016200015e565b9250905081840481111562000298576200029762000122565b5b81810290505b9392505050565b6000819050919050565b6000620002bc82620002a5565b9150620002c983620002a5565b9250620002f87fffffffffffffffffffffffffffffffffffffffffffffffffffffffffffffffff8484620001b9565b905092915050565b6123e780620003106000396000f3fe6080604052600436106100dd5760003560e01c80636c506e8a1161007f57806370a082311161005957806370a08231146102d5578063715018a6146103125780638da5cb5b14610329578063f2fde38b14610354576100dd565b80636c506e8a146102535780636d6aa5bb1461027c578063703b3d3814610298576100dd565b806323b872dd116100bb57806323b872dd146101855780635a1e6313146101ae5780636352211e146101d75780636bdfcef914610214576100dd565b8063022fc88b146100e25780630e17f8831461010b5780631e1694cb14610148575b600080fd5b3480156100ee57600080fd5b5061010960048036038101906101049190611676565b61037d565b005b34801561011757600080fd5b50610132600480360381019061012d91906116b6565b6104ed565b60405161013f91906116f2565b60405180910390f35b34801561015457600080fd5b5061016f600480360381019061016a919061170d565b610520565b60405161017c91906117f8565b60405180910390f35b34801561019157600080fd5b506101ac60048036038101906101a7919061181a565b610673565b005b3480156101ba57600080fd5b506101d560048036038101906101d091906118d2565b610770565b005b3480156101e357600080fd5b506101fe60048036038101906101f991906116b6565b610853565b60405161020b91906116f2565b60405180910390f35b34801561022057600080fd5b5061023b600480360381019061023691906116b6565b610890565b60405161024a939291906119e6565b60405180910390f35b34801561025f57600080fd5b5061027a6004803603810190610275919061170d565b610962565b005b61029660048036038101906102919190611a24565b6109ae565b005b3480156102a457600080fd5b506102bf60048036038101906102ba919061170d565b610ae5565b6040516102cc9190611a64565b60405180910390f35b3480156102e157600080fd5b506102fc60048036038101906102f7919061170d565b610afd565b6040516103099190611a64565b60405180910390f35b34801561031e57600080fd5b50610327610b46565b005b34801561033557600080fd5b5061033e610b5a565b60405161034b91906116f2565b60405180910390f35b34801561036057600080fd5b5061037b6004803603810190610376919061170d565b610b83565b005b600061038882610853565b90508073ffffffffffffffffffffffffffffffffffffffff168373ffffffffffffffffffffffffffffffffffffffff1614156103f9576040517f08c379a00000000000000000000000000000000000000000000000000000000081526004016103f090611acb565b60405180910390fd5b8073ffffffffffffffffffffffffffffffffffffffff16610418610c07565b73ffffffffffffffffffffffffffffffffffffffff16148061049f57506008600083815260200190815260200160002060009054906101000a900473ffffffffffffffffffffffffffffffffffffffff1673ffffffffffffffffffffffffffffffffffffffff16610487610c07565b73ffffffffffffffffffffffffffffffffffffffff16145b6104de576040517f08c379a00000000000000000000000000000000000000000000000000000000081526004016104d590611b5d565b60405180910390fd5b6104e88383610c0f565b505050565b60056020528060005260406000206000915054906101000a900473ffffffffffffffffffffffffffffffffffffffff1681565b60606000600660008473ffffffffffffffffffffffffffffffffffffffff1673ffffffffffffffffffffffffffffffffffffffff1681526020019081526020016000205467ffffffffffffffff81111561057d5761057c611b7d565b5b6040519080825280602002602001820160405280156105ab5781602001602082028036833780820191505090505b5090506000805b600480549050811015610668578473ffffffffffffffffffffffffffffffffffffffff166005600083815260200190815260200160002060009054906101000a900473ffffffffffffffffffffffffffffffffffffffff1673ffffffffffffffffffffffffffffffffffffffff161415610655578083838151811061063a57610639611bac565b5b602002602001018181525050818061065190611c0a565b9250505b808061066090611c0a565b9150506105b2565b508192505050919050565b6008600082815260200190815260200160002060009054906101000a900473ffffffffffffffffffffffffffffffffffffffff1673ffffffffffffffffffffffffffffffffffffffff166106c5610c07565b73ffffffffffffffffffffffffffffffffffffffff16148061072157506106eb81610853565b73ffffffffffffffffffffffffffffffffffffffff16610709610c07565b73ffffffffffffffffffffffffffffffffffffffff16145b610760576040517f08c379a000000000000000000000000000000000000000000000000000000000815260040161075790611cc5565b60405180910390fd5b61076b838383610cd2565b505050565b6000600660003373ffffffffffffffffffffffffffffffffffffffff1673ffffffffffffffffffffffffffffffffffffffff16815260200190815260200160002054146107f2576040517f08c379a00000000000000000000000000000000000000000000000000000000081526004016107e990611d31565b60405180910390fd5b60006107fe8383610f29565b905061084e83838080601f016020809104026020016040519081016040528093929190818152602001838380828437600081840152601f19601f8201169050808301925050505050505082610f80565b505050565b60006005600083815260200190815260200160002060009054906101000a900473ffffffffffffffffffffffffffffffffffffffff169050919050565b600481815481106108a057600080fd5b90600052602060002090600302016000915090508060000180546108c390611d80565b80601f01602080910402602001604051908101604052809291908181526020018280546108ef90611d80565b801561093c5780601f106109115761010080835404028352916020019161093c565b820191906000526020600020905b81548152906001019060200180831161091f57829003601f168201915b5050505050908060010154908060020160009054906101000a900463ffffffff16905083565b61096a611126565b80600760006101000a81548173ffffffffffffffffffffffffffffffffffffffff021916908373ffffffffffffffffffffffffffffffffffffffff16021790555050565b600080600760009054906101000a900473ffffffffffffffffffffffffffffffffffffffff1673ffffffffffffffffffffffffffffffffffffffff1663ecb76d90846040518263ffffffff1660e01b8152600401610a0c9190611a64565b600060405180830381865afa158015610a29573d6000803e3d6000fd5b505050506040513d6000823e3d601f19601f82011682018060405250810190610a529190611eb9565b9091508092508193505050803414610a9f576040517f08c379a0000000000000000000000000000000000000000000000000000000008152600401610a9690611f74565b60405180910390fd5b610adf84836040518060400160405280600481526020017f66656564000000000000000000000000000000000000000000000000000000008152506111a4565b50505050565b60066020528060005260406000206000915090505481565b6000600660008373ffffffffffffffffffffffffffffffffffffffff1673ffffffffffffffffffffffffffffffffffffffff168152602001908152602001600020549050919050565b610b4e611126565b610b586000611428565b565b60008060009054906101000a900473ffffffffffffffffffffffffffffffffffffffff16905090565b610b8b611126565b600073ffffffffffffffffffffffffffffffffffffffff168173ffffffffffffffffffffffffffffffffffffffff161415610bfb576040517f08c379a0000000000000000000000000000000000000000000000000000000008152600401610bf290612006565b60405180910390fd5b610c0481611428565b50565b600033905090565b816008600083815260200190815260200160002060006101000a81548173ffffffffffffffffffffffffffffffffffffffff021916908373ffffffffffffffffffffffffffffffffffffffff1602179055508173ffffffffffffffffffffffffffffffffffffffff16610c8182610853565b73ffffffffffffffffffffffffffffffffffffffff167f8c5be1e5ebec7d5bd14f71427d1e84f3dd0314c0f7b2291e5b200ac8c7c3b92583604051610cc69190611a64565b60405180910390a35050565b8273ffffffffffffffffffffffffffffffffffffffff16610cf282610853565b73ffffffffffffffffffffffffffffffffffffffff1614610d48576040517f08c379a0000000000000000000000000000000000000000000000000000000008152600401610d3f90612072565b60405180910390fd5b600073ffffffffffffffffffffffffffffffffffffffff168273ffffffffffffffffffffffffffffffffffffffff161415610db8576040517f08c379a0000000000000000000000000000000000000000000000000000000008152600401610daf906120de565b60405180910390fd5b610dc3600082610c0f565b600660008473ffffffffffffffffffffffffffffffffffffffff1673ffffffffffffffffffffffffffffffffffffffff1681526020019081526020016000206000815480929190610e13906120fe565b9190505550600660008373ffffffffffffffffffffffffffffffffffffffff1673ffffffffffffffffffffffffffffffffffffffff1681526020019081526020016000206000815480929190610e6890611c0a565b9190505550816005600083815260200190815260200160002060006101000a81548173ffffffffffffffffffffffffffffffffffffffff021916908373ffffffffffffffffffffffffffffffffffffffff1602179055508173ffffffffffffffffffffffffffffffffffffffff168373ffffffffffffffffffffffffffffffffffffffff167fddf252ad1be2c89b69c2b068fc378daa952ba7f163c4a11628f55a4df523b3ef83604051610f1c9190611a64565b60405180910390a3505050565b6000808383604051610f3c929190612167565b604051809103902060001c9050600060025482610f5991906121af565b9050606481610f6891906121af565b81610f7391906121e0565b9050809250505092915050565b6004604051806060016040528084815260200183815260200160035442610fa79190612214565b63ffffffff1681525090806001815401808255809150506001900390600052602060002090600302016000909190919091506000820151816000019080519060200190610ff592919061152b565b506020820151816001015560408201518160020160006101000a81548163ffffffff021916908363ffffffff16021790555050506000600160048054905061103d91906121e0565b9050336005600083815260200190815260200160002060006101000a81548173ffffffffffffffffffffffffffffffffffffffff021916908373ffffffffffffffffffffffffffffffffffffffff160217905550600660003373ffffffffffffffffffffffffffffffffffffffff1673ffffffffffffffffffffffffffffffffffffffff16815260200190815260200160002060008154809291906110e190611c0a565b91905055507fe7cedaa81d0ef09a46e22de5467585892163b2b6e985d853c385ced0fe5c02ef8184846040516111199392919061226a565b60405180910390a1505050565b61112e610c07565b73ffffffffffffffffffffffffffffffffffffffff1661114c610b5a565b73ffffffffffffffffffffffffffffffffffffffff16146111a2576040517f08c379a0000000000000000000000000000000000000000000000000000000008152600401611199906122f4565b60405180910390fd5b565b826005600082815260200190815260200160002060009054906101000a900473ffffffffffffffffffffffffffffffffffffffff1673ffffffffffffffffffffffffffffffffffffffff166111f7610c07565b73ffffffffffffffffffffffffffffffffffffffff161461121757600080fd5b60006004858154811061122d5761122c611bac565b5b906000526020600020906003020160405180606001604052908160008201805461125690611d80565b80601f016020809104026020016040519081016040528092919081815260200182805461128290611d80565b80156112cf5780601f106112a4576101008083540402835291602001916112cf565b820191906000526020600020905b8154815290600101906020018083116112b257829003601f168201915b50505050508152602001600182015481526020016002820160009054906101000a900463ffffffff1663ffffffff1663ffffffff16815250509050611313816114ec565b611352576040517f08c379a000000000000000000000000000000000000000000000000000000000815260040161134990612360565b60405180910390fd5b6002548461136091906121af565b9350600060028583602001516113769190612214565b6113809190612380565b90507f4258863e2d81c316e4a4dd381c3c50f57f933be22afba98b4485a605da0f7811848051906020012014156113d85760016064826113c091906121af565b826113cb91906121e0565b6113d59190612214565b90505b6114176040518060400160405280600681526020017f4e6f6e616d65000000000000000000000000000000000000000000000000000081525082610f80565b61142082611503565b505050505050565b60008060009054906101000a900473ffffffffffffffffffffffffffffffffffffffff169050816000806101000a81548173ffffffffffffffffffffffffffffffffffffffff021916908373ffffffffffffffffffffffffffffffffffffffff1602179055508173ffffffffffffffffffffffffffffffffffffffff168173ffffffffffffffffffffffffffffffffffffffff167f8be0079c531659141344cd1fd0a4f28419497f9722a3daafe3b4186f6b6457e060405160405180910390a35050565b600042826040015163ffffffff1611159050919050565b600354426115119190612214565b816040019063ffffffff16908163ffffffff168152505050565b82805461153790611d80565b90600052602060002090601f01602090048101928261155957600085556115a0565b82601f1061157257805160ff19168380011785556115a0565b828001600101855582156115a0579182015b8281111561159f578251825591602001919060010190611584565b5b5090506115ad91906115b1565b5090565b5b808211156115ca5760008160009055506001016115b2565b5090565b6000604051905090565b600080fd5b600080fd5b600073ffffffffffffffffffffffffffffffffffffffff82169050919050565b600061160d826115e2565b9050919050565b61161d81611602565b811461162857600080fd5b50565b60008135905061163a81611614565b92915050565b6000819050919050565b61165381611640565b811461165e57600080fd5b50565b6000813590506116708161164a565b92915050565b6000806040838503121561168d5761168c6115d8565b5b600061169b8582860161162b565b92505060206116ac85828601611661565b9150509250929050565b6000602082840312156116cc576116cb6115d8565b5b60006116da84828501611661565b91505092915050565b6116ec81611602565b82525050565b600060208201905061170760008301846116e3565b92915050565b600060208284031215611723576117226115d8565b5b60006117318482850161162b565b91505092915050565b600081519050919050565b600082825260208201905092915050565b6000819050602082019050919050565b61176f81611640565b82525050565b60006117818383611766565b60208301905092915050565b6000602082019050919050565b60006117a58261173a565b6117af8185611745565b93506117ba83611756565b8060005b838110156117eb5781516117d28882611775565b97506117dd8361178d565b9250506001810190506117be565b5085935050505092915050565b60006020820190508181036000830152611812818461179a565b905092915050565b600080600060608486031215611833576118326115d8565b5b60006118418682870161162b565b93505060206118528682870161162b565b925050604061186386828701611661565b9150509250925092565b600080fd5b600080fd5b600080fd5b60008083601f8401126118925761189161186d565b5b8235905067ffffffffffffffff8111156118af576118ae611872565b5b6020830191508360018202830111156118cb576118ca611877565b5b9250929050565b600080602083850312156118e9576118e86115d8565b5b600083013567ffffffffffffffff811115611907576119066115dd565b5b6119138582860161187c565b92509250509250929050565b600081519050919050565b600082825260208201905092915050565b60005b8381101561195957808201518184015260208101905061193e565b83811115611968576000848401525b50505050565b6000601f19601f8301169050919050565b600061198a8261191f565b611994818561192a565b93506119a481856020860161193b565b6119ad8161196e565b840191505092915050565b6119c181611640565b82525050565b600063ffffffff82169050919050565b6119e0816119c7565b82525050565b60006060820190508181036000830152611a00818661197f565b9050611a0f60208301856119b8565b611a1c60408301846119d7565b949350505050565b60008060408385031215611a3b57611a3a6115d8565b5b6000611a4985828601611661565b9250506020611a5a85828601611661565b9150509250929050565b6000602082019050611a7960008301846119b8565b92915050565b7f617070726f76616c20746f2063757272656e74206f776e657200000000000000600082015250565b6000611ab560198361192a565b9150611ac082611a7f565b602082019050919050565b60006020820190508181036000830152611ae481611aa8565b9050919050565b7f617070726f76652063616c6c6572206973206e6f74206f776e6572206e6f722060008201527f617070726f766564206f70657261746f72000000000000000000000000000000602082015250565b6000611b4760318361192a565b9150611b5282611aeb565b604082019050919050565b60006020820190508181036000830152611b7681611b3a565b9050919050565b7f4e487b7100000000000000000000000000000000000000000000000000000000600052604160045260246000fd5b7f4e487b7100000000000000000000000000000000000000000000000000000000600052603260045260246000fd5b7f4e487b7100000000000000000000000000000000000000000000000000000000600052601160045260246000fd5b6000611c1582611640565b91507fffffffffffffffffffffffffffffffffffffffffffffffffffffffffffffffff821415611c4857611c47611bdb565b5b600182019050919050565b7f7472616e7366657246726f6d2063616c6c6572206973206e6f74206f776e657260008201527f206e6f7220617070726f766564206f70657261746f7200000000000000000000602082015250565b6000611caf60368361192a565b9150611cba82611c53565b604082019050919050565b60006020820190508181036000830152611cde81611ca2565b9050919050565b7f612066756e67757320616c726561647920657869737473000000000000000000600082015250565b6000611d1b60178361192a565b9150611d2682611ce5565b602082019050919050565b60006020820190508181036000830152611d4a81611d0e565b9050919050565b7f4e487b7100000000000000000000000000000000000000000000000000000000600052602260045260246000fd5b60006002820490506001821680611d9857607f821691505b60208210811415611dac57611dab611d51565b5b50919050565b600080fd5b611dc08261196e565b810181811067ffffffffffffffff82111715611ddf57611dde611b7d565b5b80604052505050565b6000611df26115ce565b9050611dfe8282611db7565b919050565b600067ffffffffffffffff821115611e1e57611e1d611b7d565b5b611e278261196e565b9050602081019050919050565b6000611e47611e4284611e03565b611de8565b905082815260208101848484011115611e6357611e62611db2565b5b611e6e84828561193b565b509392505050565b600082601f830112611e8b57611e8a61186d565b5b8151611e9b848260208601611e34565b91505092915050565b600081519050611eb38161164a565b92915050565b600080600060608486031215611ed257611ed16115d8565b5b600084015167ffffffffffffffff811115611ef057611eef6115dd565b5b611efc86828701611e76565b9350506020611f0d86828701611ea4565b9250506040611f1e86828701611ea4565b9150509250925092565b7f6265207061696420696e617070726f70726961746520657870656e7365730000600082015250565b6000611f5e601e8361192a565b9150611f6982611f28565b602082019050919050565b60006020820190508181036000830152611f8d81611f51565b9050919050565b7f4f776e61626c653a206e6577206f776e657220697320746865207a65726f206160008201527f6464726573730000000000000000000000000000000000000000000000000000602082015250565b6000611ff060268361192a565b9150611ffb82611f94565b604082019050919050565b6000602082019050818103600083015261201f81611fe3565b9050919050565b7f7472616e736665722066726f6d20696e636f7272656374206f776e6572000000600082015250565b600061205c601d8361192a565b915061206782612026565b602082019050919050565b6000602082019050818103600083015261208b8161204f565b9050919050565b7f7472616e7366657220746f20746865207a65726f206164647265737300000000600082015250565b60006120c8601c8361192a565b91506120d382612092565b602082019050919050565b600060208201905081810360008301526120f7816120bb565b9050919050565b600061210982611640565b9150600082141561211d5761211c611bdb565b5b600182039050919050565b600081905092915050565b82818337600083830152505050565b600061214e8385612128565b935061215b838584612133565b82840190509392505050565b6000612174828486612142565b91508190509392505050565b7f4e487b7100000000000000000000000000000000000000000000000000000000600052601260045260246000fd5b60006121ba82611640565b91506121c583611640565b9250826121d5576121d4612180565b5b828206905092915050565b60006121eb82611640565b91506121f683611640565b92508282101561220957612208611bdb565b5b828203905092915050565b600061221f82611640565b915061222a83611640565b9250827fffffffffffffffffffffffffffffffffffffffffffffffffffffffffffffffff0382111561225f5761225e611bdb565b5b828201905092915050565b600060608201905061227f60008301866119b8565b8181036020830152612291818561197f565b90506122a060408301846119b8565b949350505050565b7f4f776e61626c653a2063616c6c6572206973206e6f7420746865206f776e6572600082015250565b60006122de60208361192a565b91506122e9826122a8565b602082019050919050565b6000602082019050818103600083015261230d816122d1565b9050919050565b7f6e6f742072656164790000000000000000000000000000000000000000000000600082015250565b600061234a60098361192a565b915061235582612314565b602082019050919050565b600060208201905081810360008301526123798161233d565b9050919050565b600061238b82611640565b915061239683611640565b9250826123a6576123a5612180565b5b82820490509291505056fea26469706673582212201289dd948e468adb660768aefe6f8f72d5b665561b5184ab179d914177bef2c364736f6c634300080c0033",
					"opcodes": "PUSH1 0x80 PUSH1 0x40 MSTORE PUSH1 0xE PUSH1 0x1 SSTORE PUSH1 0x1 SLOAD PUSH1 0xA PUSH3 0x1A SWAP2 SWAP1 PUSH3 0x2AF JUMP JUMPDEST PUSH1 0x2 SSTORE PUSH1 0x3C PUSH1 0x3 SSTORE CALLVALUE DUP1 ISZERO PUSH3 0x2F JUMPI PUSH1 0x0 DUP1 REVERT JUMPDEST POP PUSH3 0x50 PUSH3 0x44 PUSH3 0x56 PUSH1 0x20 SHL PUSH1 0x20 SHR JUMP JUMPDEST PUSH3 0x5E PUSH1 0x20 SHL PUSH1 0x20 SHR JUMP JUMPDEST PUSH3 0x300 JUMP JUMPDEST PUSH1 0x0 CALLER SWAP1 POP SWAP1 JUMP JUMPDEST PUSH1 0x0 DUP1 PUSH1 0x0 SWAP1 SLOAD SWAP1 PUSH2 0x100 EXP SWAP1 DIV PUSH20 0xFFFFFFFFFFFFFFFFFFFFFFFFFFFFFFFFFFFFFFFF AND SWAP1 POP DUP2 PUSH1 0x0 DUP1 PUSH2 0x100 EXP DUP2 SLOAD DUP2 PUSH20 0xFFFFFFFFFFFFFFFFFFFFFFFFFFFFFFFFFFFFFFFF MUL NOT AND SWAP1 DUP4 PUSH20 0xFFFFFFFFFFFFFFFFFFFFFFFFFFFFFFFFFFFFFFFF AND MUL OR SWAP1 SSTORE POP DUP2 PUSH20 0xFFFFFFFFFFFFFFFFFFFFFFFFFFFFFFFFFFFFFFFF AND DUP2 PUSH20 0xFFFFFFFFFFFFFFFFFFFFFFFFFFFFFFFFFFFFFFFF AND PUSH32 0x8BE0079C531659141344CD1FD0A4F28419497F9722A3DAAFE3B4186F6B6457E0 PUSH1 0x40 MLOAD PUSH1 0x40 MLOAD DUP1 SWAP2 SUB SWAP1 LOG3 POP POP JUMP JUMPDEST PUSH32 0x4E487B7100000000000000000000000000000000000000000000000000000000 PUSH1 0x0 MSTORE PUSH1 0x11 PUSH1 0x4 MSTORE PUSH1 0x24 PUSH1 0x0 REVERT JUMPDEST PUSH1 0x0 DUP2 PUSH1 0x1 SHR SWAP1 POP SWAP2 SWAP1 POP JUMP JUMPDEST PUSH1 0x0 DUP1 DUP3 SWAP2 POP DUP4 SWAP1 POP JUMPDEST PUSH1 0x1 DUP6 GT ISZERO PUSH3 0x1B0 JUMPI DUP1 DUP7 DIV DUP2 GT ISZERO PUSH3 0x188 JUMPI PUSH3 0x187 PUSH3 0x122 JUMP JUMPDEST JUMPDEST PUSH1 0x1 DUP6 AND ISZERO PUSH3 0x198 JUMPI DUP1 DUP3 MUL SWAP2 POP JUMPDEST DUP1 DUP2 MUL SWAP1 POP PUSH3 0x1A8 DUP6 PUSH3 0x151 JUMP JUMPDEST SWAP5 POP PUSH3 0x168 JUMP JUMPDEST SWAP5 POP SWAP5 SWAP3 POP POP POP JUMP JUMPDEST PUSH1 0x0 DUP3 PUSH3 0x1CB JUMPI PUSH1 0x1 SWAP1 POP PUSH3 0x29E JUMP JUMPDEST DUP2 PUSH3 0x1DB JUMPI PUSH1 0x0 SWAP1 POP PUSH3 0x29E JUMP JUMPDEST DUP2 PUSH1 0x1 DUP2 EQ PUSH3 0x1F4 JUMPI PUSH1 0x2 DUP2 EQ PUSH3 0x1FF JUMPI PUSH3 0x235 JUMP JUMPDEST PUSH1 0x1 SWAP2 POP POP PUSH3 0x29E JUMP JUMPDEST PUSH1 0xFF DUP5 GT ISZERO PUSH3 0x214 JUMPI PUSH3 0x213 PUSH3 0x122 JUMP JUMPDEST JUMPDEST DUP4 PUSH1 0x2 EXP SWAP2 POP DUP5 DUP3 GT ISZERO PUSH3 0x22E JUMPI PUSH3 0x22D PUSH3 0x122 JUMP JUMPDEST JUMPDEST POP PUSH3 0x29E JUMP JUMPDEST POP PUSH1 0x20 DUP4 LT PUSH2 0x133 DUP4 LT AND PUSH1 0x4E DUP5 LT PUSH1 0xB DUP5 LT AND OR ISZERO PUSH3 0x26F JUMPI DUP3 DUP3 EXP SWAP1 POP DUP4 DUP2 GT ISZERO PUSH3 0x269 JUMPI PUSH3 0x268 PUSH3 0x122 JUMP JUMPDEST JUMPDEST PUSH3 0x29E JUMP JUMPDEST PUSH3 0x27E DUP5 DUP5 DUP5 PUSH1 0x1 PUSH3 0x15E JUMP JUMPDEST SWAP3 POP SWAP1 POP DUP2 DUP5 DIV DUP2 GT ISZERO PUSH3 0x298 JUMPI PUSH3 0x297 PUSH3 0x122 JUMP JUMPDEST JUMPDEST DUP2 DUP2 MUL SWAP1 POP JUMPDEST SWAP4 SWAP3 POP POP POP JUMP JUMPDEST PUSH1 0x0 DUP2 SWAP1 POP SWAP2 SWAP1 POP JUMP JUMPDEST PUSH1 0x0 PUSH3 0x2BC DUP3 PUSH3 0x2A5 JUMP JUMPDEST SWAP2 POP PUSH3 0x2C9 DUP4 PUSH3 0x2A5 JUMP JUMPDEST SWAP3 POP PUSH3 0x2F8 PUSH32 0xFFFFFFFFFFFFFFFFFFFFFFFFFFFFFFFFFFFFFFFFFFFFFFFFFFFFFFFFFFFFFFFF DUP5 DUP5 PUSH3 0x1B9 JUMP JUMPDEST SWAP1 POP SWAP3 SWAP2 POP POP JUMP JUMPDEST PUSH2 0x23E7 DUP1 PUSH3 0x310 PUSH1 0x0 CODECOPY PUSH1 0x0 RETURN INVALID PUSH1 0x80 PUSH1 0x40 MSTORE PUSH1 0x4 CALLDATASIZE LT PUSH2 0xDD JUMPI PUSH1 0x0 CALLDATALOAD PUSH1 0xE0 SHR DUP1 PUSH4 0x6C506E8A GT PUSH2 0x7F JUMPI DUP1 PUSH4 0x70A08231 GT PUSH2 0x59 JUMPI DUP1 PUSH4 0x70A08231 EQ PUSH2 0x2D5 JUMPI DUP1 PUSH4 0x715018A6 EQ PUSH2 0x312 JUMPI DUP1 PUSH4 0x8DA5CB5B EQ PUSH2 0x329 JUMPI DUP1 PUSH4 0xF2FDE38B EQ PUSH2 0x354 JUMPI PUSH2 0xDD JUMP JUMPDEST DUP1 PUSH4 0x6C506E8A EQ PUSH2 0x253 JUMPI DUP1 PUSH4 0x6D6AA5BB EQ PUSH2 0x27C JUMPI DUP1 PUSH4 0x703B3D38 EQ PUSH2 0x298 JUMPI PUSH2 0xDD JUMP JUMPDEST DUP1 PUSH4 0x23B872DD GT PUSH2 0xBB JUMPI DUP1 PUSH4 0x23B872DD EQ PUSH2 0x185 JUMPI DUP1 PUSH4 0x5A1E6313 EQ PUSH2 0x1AE JUMPI DUP1 PUSH4 0x6352211E EQ PUSH2 0x1D7 JUMPI DUP1 PUSH4 0x6BDFCEF9 EQ PUSH2 0x214 JUMPI PUSH2 0xDD JUMP JUMPDEST DUP1 PUSH4 0x22FC88B EQ PUSH2 0xE2 JUMPI DUP1 PUSH4 0xE17F883 EQ PUSH2 0x10B JUMPI DUP1 PUSH4 0x1E1694CB EQ PUSH2 0x148 JUMPI JUMPDEST PUSH1 0x0 DUP1 REVERT JUMPDEST CALLVALUE DUP1 ISZERO PUSH2 0xEE JUMPI PUSH1 0x0 DUP1 REVERT JUMPDEST POP PUSH2 0x109 PUSH1 0x4 DUP1 CALLDATASIZE SUB DUP2 ADD SWAP1 PUSH2 0x104 SWAP2 SWAP1 PUSH2 0x1676 JUMP JUMPDEST PUSH2 0x37D JUMP JUMPDEST STOP JUMPDEST CALLVALUE DUP1 ISZERO PUSH2 0x117 JUMPI PUSH1 0x0 DUP1 REVERT JUMPDEST POP PUSH2 0x132 PUSH1 0x4 DUP1 CALLDATASIZE SUB DUP2 ADD SWAP1 PUSH2 0x12D SWAP2 SWAP1 PUSH2 0x16B6 JUMP JUMPDEST PUSH2 0x4ED JUMP JUMPDEST PUSH1 0x40 MLOAD PUSH2 0x13F SWAP2 SWAP1 PUSH2 0x16F2 JUMP JUMPDEST PUSH1 0x40 MLOAD DUP1 SWAP2 SUB SWAP1 RETURN JUMPDEST CALLVALUE DUP1 ISZERO PUSH2 0x154 JUMPI PUSH1 0x0 DUP1 REVERT JUMPDEST POP PUSH2 0x16F PUSH1 0x4 DUP1 CALLDATASIZE SUB DUP2 ADD SWAP1 PUSH2 0x16A SWAP2 SWAP1 PUSH2 0x170D JUMP JUMPDEST PUSH2 0x520 JUMP JUMPDEST PUSH1 0x40 MLOAD PUSH2 0x17C SWAP2 SWAP1 PUSH2 0x17F8 JUMP JUMPDEST PUSH1 0x40 MLOAD DUP1 SWAP2 SUB SWAP1 RETURN JUMPDEST CALLVALUE DUP1 ISZERO PUSH2 0x191 JUMPI PUSH1 0x0 DUP1 REVERT JUMPDEST POP PUSH2 0x1AC PUSH1 0x4 DUP1 CALLDATASIZE SUB DUP2 ADD SWAP1 PUSH2 0x1A7 SWAP2 SWAP1 PUSH2 0x181A JUMP JUMPDEST PUSH2 0x673 JUMP JUMPDEST STOP JUMPDEST CALLVALUE DUP1 ISZERO PUSH2 0x1BA JUMPI PUSH1 0x0 DUP1 REVERT JUMPDEST POP PUSH2 0x1D5 PUSH1 0x4 DUP1 CALLDATASIZE SUB DUP2 ADD SWAP1 PUSH2 0x1D0 SWAP2 SWAP1 PUSH2 0x18D2 JUMP JUMPDEST PUSH2 0x770 JUMP JUMPDEST STOP JUMPDEST CALLVALUE DUP1 ISZERO PUSH2 0x1E3 JUMPI PUSH1 0x0 DUP1 REVERT JUMPDEST POP PUSH2 0x1FE PUSH1 0x4 DUP1 CALLDATASIZE SUB DUP2 ADD SWAP1 PUSH2 0x1F9 SWAP2 SWAP1 PUSH2 0x16B6 JUMP JUMPDEST PUSH2 0x853 JUMP JUMPDEST PUSH1 0x40 MLOAD PUSH2 0x20B SWAP2 SWAP1 PUSH2 0x16F2 JUMP JUMPDEST PUSH1 0x40 MLOAD DUP1 SWAP2 SUB SWAP1 RETURN JUMPDEST CALLVALUE DUP1 ISZERO PUSH2 0x220 JUMPI PUSH1 0x0 DUP1 REVERT JUMPDEST POP PUSH2 0x23B PUSH1 0x4 DUP1 CALLDATASIZE SUB DUP2 ADD SWAP1 PUSH2 0x236 SWAP2 SWAP1 PUSH2 0x16B6 JUMP JUMPDEST PUSH2 0x890 JUMP JUMPDEST PUSH1 0x40 MLOAD PUSH2 0x24A SWAP4 SWAP3 SWAP2 SWAP1 PUSH2 0x19E6 JUMP JUMPDEST PUSH1 0x40 MLOAD DUP1 SWAP2 SUB SWAP1 RETURN JUMPDEST CALLVALUE DUP1 ISZERO PUSH2 0x25F JUMPI PUSH1 0x0 DUP1 REVERT JUMPDEST POP PUSH2 0x27A PUSH1 0x4 DUP1 CALLDATASIZE SUB DUP2 ADD SWAP1 PUSH2 0x275 SWAP2 SWAP1 PUSH2 0x170D JUMP JUMPDEST PUSH2 0x962 JUMP JUMPDEST STOP JUMPDEST PUSH2 0x296 PUSH1 0x4 DUP1 CALLDATASIZE SUB DUP2 ADD SWAP1 PUSH2 0x291 SWAP2 SWAP1 PUSH2 0x1A24 JUMP JUMPDEST PUSH2 0x9AE JUMP JUMPDEST STOP JUMPDEST CALLVALUE DUP1 ISZERO PUSH2 0x2A4 JUMPI PUSH1 0x0 DUP1 REVERT JUMPDEST POP PUSH2 0x2BF PUSH1 0x4 DUP1 CALLDATASIZE SUB DUP2 ADD SWAP1 PUSH2 0x2BA SWAP2 SWAP1 PUSH2 0x170D JUMP JUMPDEST PUSH2 0xAE5 JUMP JUMPDEST PUSH1 0x40 MLOAD PUSH2 0x2CC SWAP2 SWAP1 PUSH2 0x1A64 JUMP JUMPDEST PUSH1 0x40 MLOAD DUP1 SWAP2 SUB SWAP1 RETURN JUMPDEST CALLVALUE DUP1 ISZERO PUSH2 0x2E1 JUMPI PUSH1 0x0 DUP1 REVERT JUMPDEST POP PUSH2 0x2FC PUSH1 0x4 DUP1 CALLDATASIZE SUB DUP2 ADD SWAP1 PUSH2 0x2F7 SWAP2 SWAP1 PUSH2 0x170D JUMP JUMPDEST PUSH2 0xAFD JUMP JUMPDEST PUSH1 0x40 MLOAD PUSH2 0x309 SWAP2 SWAP1 PUSH2 0x1A64 JUMP JUMPDEST PUSH1 0x40 MLOAD DUP1 SWAP2 SUB SWAP1 RETURN JUMPDEST CALLVALUE DUP1 ISZERO PUSH2 0x31E JUMPI PUSH1 0x0 DUP1 REVERT JUMPDEST POP PUSH2 0x327 PUSH2 0xB46 JUMP JUMPDEST STOP JUMPDEST CALLVALUE DUP1 ISZERO PUSH2 0x335 JUMPI PUSH1 0x0 DUP1 REVERT JUMPDEST POP PUSH2 0x33E PUSH2 0xB5A JUMP JUMPDEST PUSH1 0x40 MLOAD PUSH2 0x34B SWAP2 SWAP1 PUSH2 0x16F2 JUMP JUMPDEST PUSH1 0x40 MLOAD DUP1 SWAP2 SUB SWAP1 RETURN JUMPDEST CALLVALUE DUP1 ISZERO PUSH2 0x360 JUMPI PUSH1 0x0 DUP1 REVERT JUMPDEST POP PUSH2 0x37B PUSH1 0x4 DUP1 CALLDATASIZE SUB DUP2 ADD SWAP1 PUSH2 0x376 SWAP2 SWAP1 PUSH2 0x170D JUMP JUMPDEST PUSH2 0xB83 JUMP JUMPDEST STOP JUMPDEST PUSH1 0x0 PUSH2 0x388 DUP3 PUSH2 0x853 JUMP JUMPDEST SWAP1 POP DUP1 PUSH20 0xFFFFFFFFFFFFFFFFFFFFFFFFFFFFFFFFFFFFFFFF AND DUP4 PUSH20 0xFFFFFFFFFFFFFFFFFFFFFFFFFFFFFFFFFFFFFFFF AND EQ ISZERO PUSH2 0x3F9 JUMPI PUSH1 0x40 MLOAD PUSH32 0x8C379A000000000000000000000000000000000000000000000000000000000 DUP2 MSTORE PUSH1 0x4 ADD PUSH2 0x3F0 SWAP1 PUSH2 0x1ACB JUMP JUMPDEST PUSH1 0x40 MLOAD DUP1 SWAP2 SUB SWAP1 REVERT JUMPDEST DUP1 PUSH20 0xFFFFFFFFFFFFFFFFFFFFFFFFFFFFFFFFFFFFFFFF AND PUSH2 0x418 PUSH2 0xC07 JUMP JUMPDEST PUSH20 0xFFFFFFFFFFFFFFFFFFFFFFFFFFFFFFFFFFFFFFFF AND EQ DUP1 PUSH2 0x49F JUMPI POP PUSH1 0x8 PUSH1 0x0 DUP4 DUP2 MSTORE PUSH1 0x20 ADD SWAP1 DUP2 MSTORE PUSH1 0x20 ADD PUSH1 0x0 KECCAK256 PUSH1 0x0 SWAP1 SLOAD SWAP1 PUSH2 0x100 EXP SWAP1 DIV PUSH20 0xFFFFFFFFFFFFFFFFFFFFFFFFFFFFFFFFFFFFFFFF AND PUSH20 0xFFFFFFFFFFFFFFFFFFFFFFFFFFFFFFFFFFFFFFFF AND PUSH2 0x487 PUSH2 0xC07 JUMP JUMPDEST PUSH20 0xFFFFFFFFFFFFFFFFFFFFFFFFFFFFFFFFFFFFFFFF AND EQ JUMPDEST PUSH2 0x4DE JUMPI PUSH1 0x40 MLOAD PUSH32 0x8C379A000000000000000000000000000000000000000000000000000000000 DUP2 MSTORE PUSH1 0x4 ADD PUSH2 0x4D5 SWAP1 PUSH2 0x1B5D JUMP JUMPDEST PUSH1 0x40 MLOAD DUP1 SWAP2 SUB SWAP1 REVERT JUMPDEST PUSH2 0x4E8 DUP4 DUP4 PUSH2 0xC0F JUMP JUMPDEST POP POP POP JUMP JUMPDEST PUSH1 0x5 PUSH1 0x20 MSTORE DUP1 PUSH1 0x0 MSTORE PUSH1 0x40 PUSH1 0x0 KECCAK256 PUSH1 0x0 SWAP2 POP SLOAD SWAP1 PUSH2 0x100 EXP SWAP1 DIV PUSH20 0xFFFFFFFFFFFFFFFFFFFFFFFFFFFFFFFFFFFFFFFF AND DUP2 JUMP JUMPDEST PUSH1 0x60 PUSH1 0x0 PUSH1 0x6 PUSH1 0x0 DUP5 PUSH20 0xFFFFFFFFFFFFFFFFFFFFFFFFFFFFFFFFFFFFFFFF AND PUSH20 0xFFFFFFFFFFFFFFFFFFFFFFFFFFFFFFFFFFFFFFFF AND DUP2 MSTORE PUSH1 0x20 ADD SWAP1 DUP2 MSTORE PUSH1 0x20 ADD PUSH1 0x0 KECCAK256 SLOAD PUSH8 0xFFFFFFFFFFFFFFFF DUP2 GT ISZERO PUSH2 0x57D JUMPI PUSH2 0x57C PUSH2 0x1B7D JUMP JUMPDEST JUMPDEST PUSH1 0x40 MLOAD SWAP1 DUP1 DUP3 MSTORE DUP1 PUSH1 0x20 MUL PUSH1 0x20 ADD DUP3 ADD PUSH1 0x40 MSTORE DUP1 ISZERO PUSH2 0x5AB JUMPI DUP2 PUSH1 0x20 ADD PUSH1 0x20 DUP3 MUL DUP1 CALLDATASIZE DUP4 CALLDATACOPY DUP1 DUP3 ADD SWAP2 POP POP SWAP1 POP JUMPDEST POP SWAP1 POP PUSH1 0x0 DUP1 JUMPDEST PUSH1 0x4 DUP1 SLOAD SWAP1 POP DUP2 LT ISZERO PUSH2 0x668 JUMPI DUP5 PUSH20 0xFFFFFFFFFFFFFFFFFFFFFFFFFFFFFFFFFFFFFFFF AND PUSH1 0x5 PUSH1 0x0 DUP4 DUP2 MSTORE PUSH1 0x20 ADD SWAP1 DUP2 MSTORE PUSH1 0x20 ADD PUSH1 0x0 KECCAK256 PUSH1 0x0 SWAP1 SLOAD SWAP1 PUSH2 0x100 EXP SWAP1 DIV PUSH20 0xFFFFFFFFFFFFFFFFFFFFFFFFFFFFFFFFFFFFFFFF AND PUSH20 0xFFFFFFFFFFFFFFFFFFFFFFFFFFFFFFFFFFFFFFFF AND EQ ISZERO PUSH2 0x655 JUMPI DUP1 DUP4 DUP4 DUP2 MLOAD DUP2 LT PUSH2 0x63A JUMPI PUSH2 0x639 PUSH2 0x1BAC JUMP JUMPDEST JUMPDEST PUSH1 0x20 MUL PUSH1 0x20 ADD ADD DUP2 DUP2 MSTORE POP POP DUP2 DUP1 PUSH2 0x651 SWAP1 PUSH2 0x1C0A JUMP JUMPDEST SWAP3 POP POP JUMPDEST DUP1 DUP1 PUSH2 0x660 SWAP1 PUSH2 0x1C0A JUMP JUMPDEST SWAP2 POP POP PUSH2 0x5B2 JUMP JUMPDEST POP DUP2 SWAP3 POP POP POP SWAP2 SWAP1 POP JUMP JUMPDEST PUSH1 0x8 PUSH1 0x0 DUP3 DUP2 MSTORE PUSH1 0x20 ADD SWAP1 DUP2 MSTORE PUSH1 0x20 ADD PUSH1 0x0 KECCAK256 PUSH1 0x0 SWAP1 SLOAD SWAP1 PUSH2 0x100 EXP SWAP1 DIV PUSH20 0xFFFFFFFFFFFFFFFFFFFFFFFFFFFFFFFFFFFFFFFF AND PUSH20 0xFFFFFFFFFFFFFFFFFFFFFFFFFFFFFFFFFFFFFFFF AND PUSH2 0x6C5 PUSH2 0xC07 JUMP JUMPDEST PUSH20 0xFFFFFFFFFFFFFFFFFFFFFFFFFFFFFFFFFFFFFFFF AND EQ DUP1 PUSH2 0x721 JUMPI POP PUSH2 0x6EB DUP2 PUSH2 0x853 JUMP JUMPDEST PUSH20 0xFFFFFFFFFFFFFFFFFFFFFFFFFFFFFFFFFFFFFFFF AND PUSH2 0x709 PUSH2 0xC07 JUMP JUMPDEST PUSH20 0xFFFFFFFFFFFFFFFFFFFFFFFFFFFFFFFFFFFFFFFF AND EQ JUMPDEST PUSH2 0x760 JUMPI PUSH1 0x40 MLOAD PUSH32 0x8C379A000000000000000000000000000000000000000000000000000000000 DUP2 MSTORE PUSH1 0x4 ADD PUSH2 0x757 SWAP1 PUSH2 0x1CC5 JUMP JUMPDEST PUSH1 0x40 MLOAD DUP1 SWAP2 SUB SWAP1 REVERT JUMPDEST PUSH2 0x76B DUP4 DUP4 DUP4 PUSH2 0xCD2 JUMP JUMPDEST POP POP POP JUMP JUMPDEST PUSH1 0x0 PUSH1 0x6 PUSH1 0x0 CALLER PUSH20 0xFFFFFFFFFFFFFFFFFFFFFFFFFFFFFFFFFFFFFFFF AND PUSH20 0xFFFFFFFFFFFFFFFFFFFFFFFFFFFFFFFFFFFFFFFF AND DUP2 MSTORE PUSH1 0x20 ADD SWAP1 DUP2 MSTORE PUSH1 0x20 ADD PUSH1 0x0 KECCAK256 SLOAD EQ PUSH2 0x7F2 JUMPI PUSH1 0x40 MLOAD PUSH32 0x8C379A000000000000000000000000000000000000000000000000000000000 DUP2 MSTORE PUSH1 0x4 ADD PUSH2 0x7E9 SWAP1 PUSH2 0x1D31 JUMP JUMPDEST PUSH1 0x40 MLOAD DUP1 SWAP2 SUB SWAP1 REVERT JUMPDEST PUSH1 0x0 PUSH2 0x7FE DUP4 DUP4 PUSH2 0xF29 JUMP JUMPDEST SWAP1 POP PUSH2 0x84E DUP4 DUP4 DUP1 DUP1 PUSH1 0x1F ADD PUSH1 0x20 DUP1 SWAP2 DIV MUL PUSH1 0x20 ADD PUSH1 0x40 MLOAD SWAP1 DUP2 ADD PUSH1 0x40 MSTORE DUP1 SWAP4 SWAP3 SWAP2 SWAP1 DUP2 DUP2 MSTORE PUSH1 0x20 ADD DUP4 DUP4 DUP1 DUP3 DUP5 CALLDATACOPY PUSH1 0x0 DUP2 DUP5 ADD MSTORE PUSH1 0x1F NOT PUSH1 0x1F DUP3 ADD AND SWAP1 POP DUP1 DUP4 ADD SWAP3 POP POP POP POP POP POP POP DUP3 PUSH2 0xF80 JUMP JUMPDEST POP POP POP JUMP JUMPDEST PUSH1 0x0 PUSH1 0x5 PUSH1 0x0 DUP4 DUP2 MSTORE PUSH1 0x20 ADD SWAP1 DUP2 MSTORE PUSH1 0x20 ADD PUSH1 0x0 KECCAK256 PUSH1 0x0 SWAP1 SLOAD SWAP1 PUSH2 0x100 EXP SWAP1 DIV PUSH20 0xFFFFFFFFFFFFFFFFFFFFFFFFFFFFFFFFFFFFFFFF AND SWAP1 POP SWAP2 SWAP1 POP JUMP JUMPDEST PUSH1 0x4 DUP2 DUP2 SLOAD DUP2 LT PUSH2 0x8A0 JUMPI PUSH1 0x0 DUP1 REVERT JUMPDEST SWAP1 PUSH1 0x0 MSTORE PUSH1 0x20 PUSH1 0x0 KECCAK256 SWAP1 PUSH1 0x3 MUL ADD PUSH1 0x0 SWAP2 POP SWAP1 POP DUP1 PUSH1 0x0 ADD DUP1 SLOAD PUSH2 0x8C3 SWAP1 PUSH2 0x1D80 JUMP JUMPDEST DUP1 PUSH1 0x1F ADD PUSH1 0x20 DUP1 SWAP2 DIV MUL PUSH1 0x20 ADD PUSH1 0x40 MLOAD SWAP1 DUP2 ADD PUSH1 0x40 MSTORE DUP1 SWAP3 SWAP2 SWAP1 DUP2 DUP2 MSTORE PUSH1 0x20 ADD DUP3 DUP1 SLOAD PUSH2 0x8EF SWAP1 PUSH2 0x1D80 JUMP JUMPDEST DUP1 ISZERO PUSH2 0x93C JUMPI DUP1 PUSH1 0x1F LT PUSH2 0x911 JUMPI PUSH2 0x100 DUP1 DUP4 SLOAD DIV MUL DUP4 MSTORE SWAP2 PUSH1 0x20 ADD SWAP2 PUSH2 0x93C JUMP JUMPDEST DUP3 ADD SWAP2 SWAP1 PUSH1 0x0 MSTORE PUSH1 0x20 PUSH1 0x0 KECCAK256 SWAP1 JUMPDEST DUP2 SLOAD DUP2 MSTORE SWAP1 PUSH1 0x1 ADD SWAP1 PUSH1 0x20 ADD DUP1 DUP4 GT PUSH2 0x91F JUMPI DUP3 SWAP1 SUB PUSH1 0x1F AND DUP3 ADD SWAP2 JUMPDEST POP POP POP POP POP SWAP1 DUP1 PUSH1 0x1 ADD SLOAD SWAP1 DUP1 PUSH1 0x2 ADD PUSH1 0x0 SWAP1 SLOAD SWAP1 PUSH2 0x100 EXP SWAP1 DIV PUSH4 0xFFFFFFFF AND SWAP1 POP DUP4 JUMP JUMPDEST PUSH2 0x96A PUSH2 0x1126 JUMP JUMPDEST DUP1 PUSH1 0x7 PUSH1 0x0 PUSH2 0x100 EXP DUP2 SLOAD DUP2 PUSH20 0xFFFFFFFFFFFFFFFFFFFFFFFFFFFFFFFFFFFFFFFF MUL NOT AND SWAP1 DUP4 PUSH20 0xFFFFFFFFFFFFFFFFFFFFFFFFFFFFFFFFFFFFFFFF AND MUL OR SWAP1 SSTORE POP POP JUMP JUMPDEST PUSH1 0x0 DUP1 PUSH1 0x7 PUSH1 0x0 SWAP1 SLOAD SWAP1 PUSH2 0x100 EXP SWAP1 DIV PUSH20 0xFFFFFFFFFFFFFFFFFFFFFFFFFFFFFFFFFFFFFFFF AND PUSH20 0xFFFFFFFFFFFFFFFFFFFFFFFFFFFFFFFFFFFFFFFF AND PUSH4 0xECB76D90 DUP5 PUSH1 0x40 MLOAD DUP3 PUSH4 0xFFFFFFFF AND PUSH1 0xE0 SHL DUP2 MSTORE PUSH1 0x4 ADD PUSH2 0xA0C SWAP2 SWAP1 PUSH2 0x1A64 JUMP JUMPDEST PUSH1 0x0 PUSH1 0x40 MLOAD DUP1 DUP4 SUB DUP2 DUP7 GAS STATICCALL ISZERO DUP1 ISZERO PUSH2 0xA29 JUMPI RETURNDATASIZE PUSH1 0x0 DUP1 RETURNDATACOPY RETURNDATASIZE PUSH1 0x0 REVERT JUMPDEST POP POP POP POP PUSH1 0x40 MLOAD RETURNDATASIZE PUSH1 0x0 DUP3 RETURNDATACOPY RETURNDATASIZE PUSH1 0x1F NOT PUSH1 0x1F DUP3 ADD AND DUP3 ADD DUP1 PUSH1 0x40 MSTORE POP DUP2 ADD SWAP1 PUSH2 0xA52 SWAP2 SWAP1 PUSH2 0x1EB9 JUMP JUMPDEST SWAP1 SWAP2 POP DUP1 SWAP3 POP DUP2 SWAP4 POP POP POP DUP1 CALLVALUE EQ PUSH2 0xA9F JUMPI PUSH1 0x40 MLOAD PUSH32 0x8C379A000000000000000000000000000000000000000000000000000000000 DUP2 MSTORE PUSH1 0x4 ADD PUSH2 0xA96 SWAP1 PUSH2 0x1F74 JUMP JUMPDEST PUSH1 0x40 MLOAD DUP1 SWAP2 SUB SWAP1 REVERT JUMPDEST PUSH2 0xADF DUP5 DUP4 PUSH1 0x40 MLOAD DUP1 PUSH1 0x40 ADD PUSH1 0x40 MSTORE DUP1 PUSH1 0x4 DUP2 MSTORE PUSH1 0x20 ADD PUSH32 0x6665656400000000000000000000000000000000000000000000000000000000 DUP2 MSTORE POP PUSH2 0x11A4 JUMP JUMPDEST POP POP POP POP JUMP JUMPDEST PUSH1 0x6 PUSH1 0x20 MSTORE DUP1 PUSH1 0x0 MSTORE PUSH1 0x40 PUSH1 0x0 KECCAK256 PUSH1 0x0 SWAP2 POP SWAP1 POP SLOAD DUP2 JUMP JUMPDEST PUSH1 0x0 PUSH1 0x6 PUSH1 0x0 DUP4 PUSH20 0xFFFFFFFFFFFFFFFFFFFFFFFFFFFFFFFFFFFFFFFF AND PUSH20 0xFFFFFFFFFFFFFFFFFFFFFFFFFFFFFFFFFFFFFFFF AND DUP2 MSTORE PUSH1 0x20 ADD SWAP1 DUP2 MSTORE PUSH1 0x20 ADD PUSH1 0x0 KECCAK256 SLOAD SWAP1 POP SWAP2 SWAP1 POP JUMP JUMPDEST PUSH2 0xB4E PUSH2 0x1126 JUMP JUMPDEST PUSH2 0xB58 PUSH1 0x0 PUSH2 0x1428 JUMP JUMPDEST JUMP JUMPDEST PUSH1 0x0 DUP1 PUSH1 0x0 SWAP1 SLOAD SWAP1 PUSH2 0x100 EXP SWAP1 DIV PUSH20 0xFFFFFFFFFFFFFFFFFFFFFFFFFFFFFFFFFFFFFFFF AND SWAP1 POP SWAP1 JUMP JUMPDEST PUSH2 0xB8B PUSH2 0x1126 JUMP JUMPDEST PUSH1 0x0 PUSH20 0xFFFFFFFFFFFFFFFFFFFFFFFFFFFFFFFFFFFFFFFF AND DUP2 PUSH20 0xFFFFFFFFFFFFFFFFFFFFFFFFFFFFFFFFFFFFFFFF AND EQ ISZERO PUSH2 0xBFB JUMPI PUSH1 0x40 MLOAD PUSH32 0x8C379A000000000000000000000000000000000000000000000000000000000 DUP2 MSTORE PUSH1 0x4 ADD PUSH2 0xBF2 SWAP1 PUSH2 0x2006 JUMP JUMPDEST PUSH1 0x40 MLOAD DUP1 SWAP2 SUB SWAP1 REVERT JUMPDEST PUSH2 0xC04 DUP2 PUSH2 0x1428 JUMP JUMPDEST POP JUMP JUMPDEST PUSH1 0x0 CALLER SWAP1 POP SWAP1 JUMP JUMPDEST DUP2 PUSH1 0x8 PUSH1 0x0 DUP4 DUP2 MSTORE PUSH1 0x20 ADD SWAP1 DUP2 MSTORE PUSH1 0x20 ADD PUSH1 0x0 KECCAK256 PUSH1 0x0 PUSH2 0x100 EXP DUP2 SLOAD DUP2 PUSH20 0xFFFFFFFFFFFFFFFFFFFFFFFFFFFFFFFFFFFFFFFF MUL NOT AND SWAP1 DUP4 PUSH20 0xFFFFFFFFFFFFFFFFFFFFFFFFFFFFFFFFFFFFFFFF AND MUL OR SWAP1 SSTORE POP DUP2 PUSH20 0xFFFFFFFFFFFFFFFFFFFFFFFFFFFFFFFFFFFFFFFF AND PUSH2 0xC81 DUP3 PUSH2 0x853 JUMP JUMPDEST PUSH20 0xFFFFFFFFFFFFFFFFFFFFFFFFFFFFFFFFFFFFFFFF AND PUSH32 0x8C5BE1E5EBEC7D5BD14F71427D1E84F3DD0314C0F7B2291E5B200AC8C7C3B925 DUP4 PUSH1 0x40 MLOAD PUSH2 0xCC6 SWAP2 SWAP1 PUSH2 0x1A64 JUMP JUMPDEST PUSH1 0x40 MLOAD DUP1 SWAP2 SUB SWAP1 LOG3 POP POP JUMP JUMPDEST DUP3 PUSH20 0xFFFFFFFFFFFFFFFFFFFFFFFFFFFFFFFFFFFFFFFF AND PUSH2 0xCF2 DUP3 PUSH2 0x853 JUMP JUMPDEST PUSH20 0xFFFFFFFFFFFFFFFFFFFFFFFFFFFFFFFFFFFFFFFF AND EQ PUSH2 0xD48 JUMPI PUSH1 0x40 MLOAD PUSH32 0x8C379A000000000000000000000000000000000000000000000000000000000 DUP2 MSTORE PUSH1 0x4 ADD PUSH2 0xD3F SWAP1 PUSH2 0x2072 JUMP JUMPDEST PUSH1 0x40 MLOAD DUP1 SWAP2 SUB SWAP1 REVERT JUMPDEST PUSH1 0x0 PUSH20 0xFFFFFFFFFFFFFFFFFFFFFFFFFFFFFFFFFFFFFFFF AND DUP3 PUSH20 0xFFFFFFFFFFFFFFFFFFFFFFFFFFFFFFFFFFFFFFFF AND EQ ISZERO PUSH2 0xDB8 JUMPI PUSH1 0x40 MLOAD PUSH32 0x8C379A000000000000000000000000000000000000000000000000000000000 DUP2 MSTORE PUSH1 0x4 ADD PUSH2 0xDAF SWAP1 PUSH2 0x20DE JUMP JUMPDEST PUSH1 0x40 MLOAD DUP1 SWAP2 SUB SWAP1 REVERT JUMPDEST PUSH2 0xDC3 PUSH1 0x0 DUP3 PUSH2 0xC0F JUMP JUMPDEST PUSH1 0x6 PUSH1 0x0 DUP5 PUSH20 0xFFFFFFFFFFFFFFFFFFFFFFFFFFFFFFFFFFFFFFFF AND PUSH20 0xFFFFFFFFFFFFFFFFFFFFFFFFFFFFFFFFFFFFFFFF AND DUP2 MSTORE PUSH1 0x20 ADD SWAP1 DUP2 MSTORE PUSH1 0x20 ADD PUSH1 0x0 KECCAK256 PUSH1 0x0 DUP2 SLOAD DUP1 SWAP3 SWAP2 SWAP1 PUSH2 0xE13 SWAP1 PUSH2 0x20FE JUMP JUMPDEST SWAP2 SWAP1 POP SSTORE POP PUSH1 0x6 PUSH1 0x0 DUP4 PUSH20 0xFFFFFFFFFFFFFFFFFFFFFFFFFFFFFFFFFFFFFFFF AND PUSH20 0xFFFFFFFFFFFFFFFFFFFFFFFFFFFFFFFFFFFFFFFF AND DUP2 MSTORE PUSH1 0x20 ADD SWAP1 DUP2 MSTORE PUSH1 0x20 ADD PUSH1 0x0 KECCAK256 PUSH1 0x0 DUP2 SLOAD DUP1 SWAP3 SWAP2 SWAP1 PUSH2 0xE68 SWAP1 PUSH2 0x1C0A JUMP JUMPDEST SWAP2 SWAP1 POP SSTORE POP DUP2 PUSH1 0x5 PUSH1 0x0 DUP4 DUP2 MSTORE PUSH1 0x20 ADD SWAP1 DUP2 MSTORE PUSH1 0x20 ADD PUSH1 0x0 KECCAK256 PUSH1 0x0 PUSH2 0x100 EXP DUP2 SLOAD DUP2 PUSH20 0xFFFFFFFFFFFFFFFFFFFFFFFFFFFFFFFFFFFFFFFF MUL NOT AND SWAP1 DUP4 PUSH20 0xFFFFFFFFFFFFFFFFFFFFFFFFFFFFFFFFFFFFFFFF AND MUL OR SWAP1 SSTORE POP DUP2 PUSH20 0xFFFFFFFFFFFFFFFFFFFFFFFFFFFFFFFFFFFFFFFF AND DUP4 PUSH20 0xFFFFFFFFFFFFFFFFFFFFFFFFFFFFFFFFFFFFFFFF AND PUSH32 0xDDF252AD1BE2C89B69C2B068FC378DAA952BA7F163C4A11628F55A4DF523B3EF DUP4 PUSH1 0x40 MLOAD PUSH2 0xF1C SWAP2 SWAP1 PUSH2 0x1A64 JUMP JUMPDEST PUSH1 0x40 MLOAD DUP1 SWAP2 SUB SWAP1 LOG3 POP POP POP JUMP JUMPDEST PUSH1 0x0 DUP1 DUP4 DUP4 PUSH1 0x40 MLOAD PUSH2 0xF3C SWAP3 SWAP2 SWAP1 PUSH2 0x2167 JUMP JUMPDEST PUSH1 0x40 MLOAD DUP1 SWAP2 SUB SWAP1 KECCAK256 PUSH1 0x0 SHR SWAP1 POP PUSH1 0x0 PUSH1 0x2 SLOAD DUP3 PUSH2 0xF59 SWAP2 SWAP1 PUSH2 0x21AF JUMP JUMPDEST SWAP1 POP PUSH1 0x64 DUP2 PUSH2 0xF68 SWAP2 SWAP1 PUSH2 0x21AF JUMP JUMPDEST DUP2 PUSH2 0xF73 SWAP2 SWAP1 PUSH2 0x21E0 JUMP JUMPDEST SWAP1 POP DUP1 SWAP3 POP POP POP SWAP3 SWAP2 POP POP JUMP JUMPDEST PUSH1 0x4 PUSH1 0x40 MLOAD DUP1 PUSH1 0x60 ADD PUSH1 0x40 MSTORE DUP1 DUP5 DUP2 MSTORE PUSH1 0x20 ADD DUP4 DUP2 MSTORE PUSH1 0x20 ADD PUSH1 0x3 SLOAD TIMESTAMP PUSH2 0xFA7 SWAP2 SWAP1 PUSH2 0x2214 JUMP JUMPDEST PUSH4 0xFFFFFFFF AND DUP2 MSTORE POP SWAP1 DUP1 PUSH1 0x1 DUP2 SLOAD ADD DUP1 DUP3 SSTORE DUP1 SWAP2 POP POP PUSH1 0x1 SWAP1 SUB SWAP1 PUSH1 0x0 MSTORE PUSH1 0x20 PUSH1 0x0 KECCAK256 SWAP1 PUSH1 0x3 MUL ADD PUSH1 0x0 SWAP1 SWAP2 SWAP1 SWAP2 SWAP1 SWAP2 POP PUSH1 0x0 DUP3 ADD MLOAD DUP2 PUSH1 0x0 ADD SWAP1 DUP1 MLOAD SWAP1 PUSH1 0x20 ADD SWAP1 PUSH2 0xFF5 SWAP3 SWAP2 SWAP1 PUSH2 0x152B JUMP JUMPDEST POP PUSH1 0x20 DUP3 ADD MLOAD DUP2 PUSH1 0x1 ADD SSTORE PUSH1 0x40 DUP3 ADD MLOAD DUP2 PUSH1 0x2 ADD PUSH1 0x0 PUSH2 0x100 EXP DUP2 SLOAD DUP2 PUSH4 0xFFFFFFFF MUL NOT AND SWAP1 DUP4 PUSH4 0xFFFFFFFF AND MUL OR SWAP1 SSTORE POP POP POP PUSH1 0x0 PUSH1 0x1 PUSH1 0x4 DUP1 SLOAD SWAP1 POP PUSH2 0x103D SWAP2 SWAP1 PUSH2 0x21E0 JUMP JUMPDEST SWAP1 POP CALLER PUSH1 0x5 PUSH1 0x0 DUP4 DUP2 MSTORE PUSH1 0x20 ADD SWAP1 DUP2 MSTORE PUSH1 0x20 ADD PUSH1 0x0 KECCAK256 PUSH1 0x0 PUSH2 0x100 EXP DUP2 SLOAD DUP2 PUSH20 0xFFFFFFFFFFFFFFFFFFFFFFFFFFFFFFFFFFFFFFFF MUL NOT AND SWAP1 DUP4 PUSH20 0xFFFFFFFFFFFFFFFFFFFFFFFFFFFFFFFFFFFFFFFF AND MUL OR SWAP1 SSTORE POP PUSH1 0x6 PUSH1 0x0 CALLER PUSH20 0xFFFFFFFFFFFFFFFFFFFFFFFFFFFFFFFFFFFFFFFF AND PUSH20 0xFFFFFFFFFFFFFFFFFFFFFFFFFFFFFFFFFFFFFFFF AND DUP2 MSTORE PUSH1 0x20 ADD SWAP1 DUP2 MSTORE PUSH1 0x20 ADD PUSH1 0x0 KECCAK256 PUSH1 0x0 DUP2 SLOAD DUP1 SWAP3 SWAP2 SWAP1 PUSH2 0x10E1 SWAP1 PUSH2 0x1C0A JUMP JUMPDEST SWAP2 SWAP1 POP SSTORE POP PUSH32 0xE7CEDAA81D0EF09A46E22DE5467585892163B2B6E985D853C385CED0FE5C02EF DUP2 DUP5 DUP5 PUSH1 0x40 MLOAD PUSH2 0x1119 SWAP4 SWAP3 SWAP2 SWAP1 PUSH2 0x226A JUMP JUMPDEST PUSH1 0x40 MLOAD DUP1 SWAP2 SUB SWAP1 LOG1 POP POP POP JUMP JUMPDEST PUSH2 0x112E PUSH2 0xC07 JUMP JUMPDEST PUSH20 0xFFFFFFFFFFFFFFFFFFFFFFFFFFFFFFFFFFFFFFFF AND PUSH2 0x114C PUSH2 0xB5A JUMP JUMPDEST PUSH20 0xFFFFFFFFFFFFFFFFFFFFFFFFFFFFFFFFFFFFFFFF AND EQ PUSH2 0x11A2 JUMPI PUSH1 0x40 MLOAD PUSH32 0x8C379A000000000000000000000000000000000000000000000000000000000 DUP2 MSTORE PUSH1 0x4 ADD PUSH2 0x1199 SWAP1 PUSH2 0x22F4 JUMP JUMPDEST PUSH1 0x40 MLOAD DUP1 SWAP2 SUB SWAP1 REVERT JUMPDEST JUMP JUMPDEST DUP3 PUSH1 0x5 PUSH1 0x0 DUP3 DUP2 MSTORE PUSH1 0x20 ADD SWAP1 DUP2 MSTORE PUSH1 0x20 ADD PUSH1 0x0 KECCAK256 PUSH1 0x0 SWAP1 SLOAD SWAP1 PUSH2 0x100 EXP SWAP1 DIV PUSH20 0xFFFFFFFFFFFFFFFFFFFFFFFFFFFFFFFFFFFFFFFF AND PUSH20 0xFFFFFFFFFFFFFFFFFFFFFFFFFFFFFFFFFFFFFFFF AND PUSH2 0x11F7 PUSH2 0xC07 JUMP JUMPDEST PUSH20 0xFFFFFFFFFFFFFFFFFFFFFFFFFFFFFFFFFFFFFFFF AND EQ PUSH2 0x1217 JUMPI PUSH1 0x0 DUP1 REVERT JUMPDEST PUSH1 0x0 PUSH1 0x4 DUP6 DUP2 SLOAD DUP2 LT PUSH2 0x122D JUMPI PUSH2 0x122C PUSH2 0x1BAC JUMP JUMPDEST JUMPDEST SWAP1 PUSH1 0x0 MSTORE PUSH1 0x20 PUSH1 0x0 KECCAK256 SWAP1 PUSH1 0x3 MUL ADD PUSH1 0x40 MLOAD DUP1 PUSH1 0x60 ADD PUSH1 0x40 MSTORE SWAP1 DUP2 PUSH1 0x0 DUP3 ADD DUP1 SLOAD PUSH2 0x1256 SWAP1 PUSH2 0x1D80 JUMP JUMPDEST DUP1 PUSH1 0x1F ADD PUSH1 0x20 DUP1 SWAP2 DIV MUL PUSH1 0x20 ADD PUSH1 0x40 MLOAD SWAP1 DUP2 ADD PUSH1 0x40 MSTORE DUP1 SWAP3 SWAP2 SWAP1 DUP2 DUP2 MSTORE PUSH1 0x20 ADD DUP3 DUP1 SLOAD PUSH2 0x1282 SWAP1 PUSH2 0x1D80 JUMP JUMPDEST DUP1 ISZERO PUSH2 0x12CF JUMPI DUP1 PUSH1 0x1F LT PUSH2 0x12A4 JUMPI PUSH2 0x100 DUP1 DUP4 SLOAD DIV MUL DUP4 MSTORE SWAP2 PUSH1 0x20 ADD SWAP2 PUSH2 0x12CF JUMP JUMPDEST DUP3 ADD SWAP2 SWAP1 PUSH1 0x0 MSTORE PUSH1 0x20 PUSH1 0x0 KECCAK256 SWAP1 JUMPDEST DUP2 SLOAD DUP2 MSTORE SWAP1 PUSH1 0x1 ADD SWAP1 PUSH1 0x20 ADD DUP1 DUP4 GT PUSH2 0x12B2 JUMPI DUP3 SWAP1 SUB PUSH1 0x1F AND DUP3 ADD SWAP2 JUMPDEST POP POP POP POP POP DUP2 MSTORE PUSH1 0x20 ADD PUSH1 0x1 DUP3 ADD SLOAD DUP2 MSTORE PUSH1 0x20 ADD PUSH1 0x2 DUP3 ADD PUSH1 0x0 SWAP1 SLOAD SWAP1 PUSH2 0x100 EXP SWAP1 DIV PUSH4 0xFFFFFFFF AND PUSH4 0xFFFFFFFF AND PUSH4 0xFFFFFFFF AND DUP2 MSTORE POP POP SWAP1 POP PUSH2 0x1313 DUP2 PUSH2 0x14EC JUMP JUMPDEST PUSH2 0x1352 JUMPI PUSH1 0x40 MLOAD PUSH32 0x8C379A000000000000000000000000000000000000000000000000000000000 DUP2 MSTORE PUSH1 0x4 ADD PUSH2 0x1349 SWAP1 PUSH2 0x2360 JUMP JUMPDEST PUSH1 0x40 MLOAD DUP1 SWAP2 SUB SWAP1 REVERT JUMPDEST PUSH1 0x2 SLOAD DUP5 PUSH2 0x1360 SWAP2 SWAP1 PUSH2 0x21AF JUMP JUMPDEST SWAP4 POP PUSH1 0x0 PUSH1 0x2 DUP6 DUP4 PUSH1 0x20 ADD MLOAD PUSH2 0x1376 SWAP2 SWAP1 PUSH2 0x2214 JUMP JUMPDEST PUSH2 0x1380 SWAP2 SWAP1 PUSH2 0x2380 JUMP JUMPDEST SWAP1 POP PUSH32 0x4258863E2D81C316E4A4DD381C3C50F57F933BE22AFBA98B4485A605DA0F7811 DUP5 DUP1 MLOAD SWAP1 PUSH1 0x20 ADD KECCAK256 EQ ISZERO PUSH2 0x13D8 JUMPI PUSH1 0x1 PUSH1 0x64 DUP3 PUSH2 0x13C0 SWAP2 SWAP1 PUSH2 0x21AF JUMP JUMPDEST DUP3 PUSH2 0x13CB SWAP2 SWAP1 PUSH2 0x21E0 JUMP JUMPDEST PUSH2 0x13D5 SWAP2 SWAP1 PUSH2 0x2214 JUMP JUMPDEST SWAP1 POP JUMPDEST PUSH2 0x1417 PUSH1 0x40 MLOAD DUP1 PUSH1 0x40 ADD PUSH1 0x40 MSTORE DUP1 PUSH1 0x6 DUP2 MSTORE PUSH1 0x20 ADD PUSH32 0x4E6F6E616D650000000000000000000000000000000000000000000000000000 DUP2 MSTORE POP DUP3 PUSH2 0xF80 JUMP JUMPDEST PUSH2 0x1420 DUP3 PUSH2 0x1503 JUMP JUMPDEST POP POP POP POP POP POP JUMP JUMPDEST PUSH1 0x0 DUP1 PUSH1 0x0 SWAP1 SLOAD SWAP1 PUSH2 0x100 EXP SWAP1 DIV PUSH20 0xFFFFFFFFFFFFFFFFFFFFFFFFFFFFFFFFFFFFFFFF AND SWAP1 POP DUP2 PUSH1 0x0 DUP1 PUSH2 0x100 EXP DUP2 SLOAD DUP2 PUSH20 0xFFFFFFFFFFFFFFFFFFFFFFFFFFFFFFFFFFFFFFFF MUL NOT AND SWAP1 DUP4 PUSH20 0xFFFFFFFFFFFFFFFFFFFFFFFFFFFFFFFFFFFFFFFF AND MUL OR SWAP1 SSTORE POP DUP2 PUSH20 0xFFFFFFFFFFFFFFFFFFFFFFFFFFFFFFFFFFFFFFFF AND DUP2 PUSH20 0xFFFFFFFFFFFFFFFFFFFFFFFFFFFFFFFFFFFFFFFF AND PUSH32 0x8BE0079C531659141344CD1FD0A4F28419497F9722A3DAAFE3B4186F6B6457E0 PUSH1 0x40 MLOAD PUSH1 0x40 MLOAD DUP1 SWAP2 SUB SWAP1 LOG3 POP POP JUMP JUMPDEST PUSH1 0x0 TIMESTAMP DUP3 PUSH1 0x40 ADD MLOAD PUSH4 0xFFFFFFFF AND GT ISZERO SWAP1 POP SWAP2 SWAP1 POP JUMP JUMPDEST PUSH1 0x3 SLOAD TIMESTAMP PUSH2 0x1511 SWAP2 SWAP1 PUSH2 0x2214 JUMP JUMPDEST DUP2 PUSH1 0x40 ADD SWAP1 PUSH4 0xFFFFFFFF AND SWAP1 DUP2 PUSH4 0xFFFFFFFF AND DUP2 MSTORE POP POP POP JUMP JUMPDEST DUP3 DUP1 SLOAD PUSH2 0x1537 SWAP1 PUSH2 0x1D80 JUMP JUMPDEST SWAP1 PUSH1 0x0 MSTORE PUSH1 0x20 PUSH1 0x0 KECCAK256 SWAP1 PUSH1 0x1F ADD PUSH1 0x20 SWAP1 DIV DUP2 ADD SWAP3 DUP3 PUSH2 0x1559 JUMPI PUSH1 0x0 DUP6 SSTORE PUSH2 0x15A0 JUMP JUMPDEST DUP3 PUSH1 0x1F LT PUSH2 0x1572 JUMPI DUP1 MLOAD PUSH1 0xFF NOT AND DUP4 DUP1 ADD OR DUP6 SSTORE PUSH2 0x15A0 JUMP JUMPDEST DUP3 DUP1 ADD PUSH1 0x1 ADD DUP6 SSTORE DUP3 ISZERO PUSH2 0x15A0 JUMPI SWAP2 DUP3 ADD JUMPDEST DUP3 DUP2 GT ISZERO PUSH2 0x159F JUMPI DUP3 MLOAD DUP3 SSTORE SWAP2 PUSH1 0x20 ADD SWAP2 SWAP1 PUSH1 0x1 ADD SWAP1 PUSH2 0x1584 JUMP JUMPDEST JUMPDEST POP SWAP1 POP PUSH2 0x15AD SWAP2 SWAP1 PUSH2 0x15B1 JUMP JUMPDEST POP SWAP1 JUMP JUMPDEST JUMPDEST DUP1 DUP3 GT ISZERO PUSH2 0x15CA JUMPI PUSH1 0x0 DUP2 PUSH1 0x0 SWAP1 SSTORE POP PUSH1 0x1 ADD PUSH2 0x15B2 JUMP JUMPDEST POP SWAP1 JUMP JUMPDEST PUSH1 0x0 PUSH1 0x40 MLOAD SWAP1 POP SWAP1 JUMP JUMPDEST PUSH1 0x0 DUP1 REVERT JUMPDEST PUSH1 0x0 DUP1 REVERT JUMPDEST PUSH1 0x0 PUSH20 0xFFFFFFFFFFFFFFFFFFFFFFFFFFFFFFFFFFFFFFFF DUP3 AND SWAP1 POP SWAP2 SWAP1 POP JUMP JUMPDEST PUSH1 0x0 PUSH2 0x160D DUP3 PUSH2 0x15E2 JUMP JUMPDEST SWAP1 POP SWAP2 SWAP1 POP JUMP JUMPDEST PUSH2 0x161D DUP2 PUSH2 0x1602 JUMP JUMPDEST DUP2 EQ PUSH2 0x1628 JUMPI PUSH1 0x0 DUP1 REVERT JUMPDEST POP JUMP JUMPDEST PUSH1 0x0 DUP2 CALLDATALOAD SWAP1 POP PUSH2 0x163A DUP2 PUSH2 0x1614 JUMP JUMPDEST SWAP3 SWAP2 POP POP JUMP JUMPDEST PUSH1 0x0 DUP2 SWAP1 POP SWAP2 SWAP1 POP JUMP JUMPDEST PUSH2 0x1653 DUP2 PUSH2 0x1640 JUMP JUMPDEST DUP2 EQ PUSH2 0x165E JUMPI PUSH1 0x0 DUP1 REVERT JUMPDEST POP JUMP JUMPDEST PUSH1 0x0 DUP2 CALLDATALOAD SWAP1 POP PUSH2 0x1670 DUP2 PUSH2 0x164A JUMP JUMPDEST SWAP3 SWAP2 POP POP JUMP JUMPDEST PUSH1 0x0 DUP1 PUSH1 0x40 DUP4 DUP6 SUB SLT ISZERO PUSH2 0x168D JUMPI PUSH2 0x168C PUSH2 0x15D8 JUMP JUMPDEST JUMPDEST PUSH1 0x0 PUSH2 0x169B DUP6 DUP3 DUP7 ADD PUSH2 0x162B JUMP JUMPDEST SWAP3 POP POP PUSH1 0x20 PUSH2 0x16AC DUP6 DUP3 DUP7 ADD PUSH2 0x1661 JUMP JUMPDEST SWAP2 POP POP SWAP3 POP SWAP3 SWAP1 POP JUMP JUMPDEST PUSH1 0x0 PUSH1 0x20 DUP3 DUP5 SUB SLT ISZERO PUSH2 0x16CC JUMPI PUSH2 0x16CB PUSH2 0x15D8 JUMP JUMPDEST JUMPDEST PUSH1 0x0 PUSH2 0x16DA DUP5 DUP3 DUP6 ADD PUSH2 0x1661 JUMP JUMPDEST SWAP2 POP POP SWAP3 SWAP2 POP POP JUMP JUMPDEST PUSH2 0x16EC DUP2 PUSH2 0x1602 JUMP JUMPDEST DUP3 MSTORE POP POP JUMP JUMPDEST PUSH1 0x0 PUSH1 0x20 DUP3 ADD SWAP1 POP PUSH2 0x1707 PUSH1 0x0 DUP4 ADD DUP5 PUSH2 0x16E3 JUMP JUMPDEST SWAP3 SWAP2 POP POP JUMP JUMPDEST PUSH1 0x0 PUSH1 0x20 DUP3 DUP5 SUB SLT ISZERO PUSH2 0x1723 JUMPI PUSH2 0x1722 PUSH2 0x15D8 JUMP JUMPDEST JUMPDEST PUSH1 0x0 PUSH2 0x1731 DUP5 DUP3 DUP6 ADD PUSH2 0x162B JUMP JUMPDEST SWAP2 POP POP SWAP3 SWAP2 POP POP JUMP JUMPDEST PUSH1 0x0 DUP2 MLOAD SWAP1 POP SWAP2 SWAP1 POP JUMP JUMPDEST PUSH1 0x0 DUP3 DUP3 MSTORE PUSH1 0x20 DUP3 ADD SWAP1 POP SWAP3 SWAP2 POP POP JUMP JUMPDEST PUSH1 0x0 DUP2 SWAP1 POP PUSH1 0x20 DUP3 ADD SWAP1 POP SWAP2 SWAP1 POP JUMP JUMPDEST PUSH2 0x176F DUP2 PUSH2 0x1640 JUMP JUMPDEST DUP3 MSTORE POP POP JUMP JUMPDEST PUSH1 0x0 PUSH2 0x1781 DUP4 DUP4 PUSH2 0x1766 JUMP JUMPDEST PUSH1 0x20 DUP4 ADD SWAP1 POP SWAP3 SWAP2 POP POP JUMP JUMPDEST PUSH1 0x0 PUSH1 0x20 DUP3 ADD SWAP1 POP SWAP2 SWAP1 POP JUMP JUMPDEST PUSH1 0x0 PUSH2 0x17A5 DUP3 PUSH2 0x173A JUMP JUMPDEST PUSH2 0x17AF DUP2 DUP6 PUSH2 0x1745 JUMP JUMPDEST SWAP4 POP PUSH2 0x17BA DUP4 PUSH2 0x1756 JUMP JUMPDEST DUP1 PUSH1 0x0 JUMPDEST DUP4 DUP2 LT ISZERO PUSH2 0x17EB JUMPI DUP2 MLOAD PUSH2 0x17D2 DUP9 DUP3 PUSH2 0x1775 JUMP JUMPDEST SWAP8 POP PUSH2 0x17DD DUP4 PUSH2 0x178D JUMP JUMPDEST SWAP3 POP POP PUSH1 0x1 DUP2 ADD SWAP1 POP PUSH2 0x17BE JUMP JUMPDEST POP DUP6 SWAP4 POP POP POP POP SWAP3 SWAP2 POP POP JUMP JUMPDEST PUSH1 0x0 PUSH1 0x20 DUP3 ADD SWAP1 POP DUP2 DUP2 SUB PUSH1 0x0 DUP4 ADD MSTORE PUSH2 0x1812 DUP2 DUP5 PUSH2 0x179A JUMP JUMPDEST SWAP1 POP SWAP3 SWAP2 POP POP JUMP JUMPDEST PUSH1 0x0 DUP1 PUSH1 0x0 PUSH1 0x60 DUP5 DUP7 SUB SLT ISZERO PUSH2 0x1833 JUMPI PUSH2 0x1832 PUSH2 0x15D8 JUMP JUMPDEST JUMPDEST PUSH1 0x0 PUSH2 0x1841 DUP7 DUP3 DUP8 ADD PUSH2 0x162B JUMP JUMPDEST SWAP4 POP POP PUSH1 0x20 PUSH2 0x1852 DUP7 DUP3 DUP8 ADD PUSH2 0x162B JUMP JUMPDEST SWAP3 POP POP PUSH1 0x40 PUSH2 0x1863 DUP7 DUP3 DUP8 ADD PUSH2 0x1661 JUMP JUMPDEST SWAP2 POP POP SWAP3 POP SWAP3 POP SWAP3 JUMP JUMPDEST PUSH1 0x0 DUP1 REVERT JUMPDEST PUSH1 0x0 DUP1 REVERT JUMPDEST PUSH1 0x0 DUP1 REVERT JUMPDEST PUSH1 0x0 DUP1 DUP4 PUSH1 0x1F DUP5 ADD SLT PUSH2 0x1892 JUMPI PUSH2 0x1891 PUSH2 0x186D JUMP JUMPDEST JUMPDEST DUP3 CALLDATALOAD SWAP1 POP PUSH8 0xFFFFFFFFFFFFFFFF DUP2 GT ISZERO PUSH2 0x18AF JUMPI PUSH2 0x18AE PUSH2 0x1872 JUMP JUMPDEST JUMPDEST PUSH1 0x20 DUP4 ADD SWAP2 POP DUP4 PUSH1 0x1 DUP3 MUL DUP4 ADD GT ISZERO PUSH2 0x18CB JUMPI PUSH2 0x18CA PUSH2 0x1877 JUMP JUMPDEST JUMPDEST SWAP3 POP SWAP3 SWAP1 POP JUMP JUMPDEST PUSH1 0x0 DUP1 PUSH1 0x20 DUP4 DUP6 SUB SLT ISZERO PUSH2 0x18E9 JUMPI PUSH2 0x18E8 PUSH2 0x15D8 JUMP JUMPDEST JUMPDEST PUSH1 0x0 DUP4 ADD CALLDATALOAD PUSH8 0xFFFFFFFFFFFFFFFF DUP2 GT ISZERO PUSH2 0x1907 JUMPI PUSH2 0x1906 PUSH2 0x15DD JUMP JUMPDEST JUMPDEST PUSH2 0x1913 DUP6 DUP3 DUP7 ADD PUSH2 0x187C JUMP JUMPDEST SWAP3 POP SWAP3 POP POP SWAP3 POP SWAP3 SWAP1 POP JUMP JUMPDEST PUSH1 0x0 DUP2 MLOAD SWAP1 POP SWAP2 SWAP1 POP JUMP JUMPDEST PUSH1 0x0 DUP3 DUP3 MSTORE PUSH1 0x20 DUP3 ADD SWAP1 POP SWAP3 SWAP2 POP POP JUMP JUMPDEST PUSH1 0x0 JUMPDEST DUP4 DUP2 LT ISZERO PUSH2 0x1959 JUMPI DUP1 DUP3 ADD MLOAD DUP2 DUP5 ADD MSTORE PUSH1 0x20 DUP2 ADD SWAP1 POP PUSH2 0x193E JUMP JUMPDEST DUP4 DUP2 GT ISZERO PUSH2 0x1968 JUMPI PUSH1 0x0 DUP5 DUP5 ADD MSTORE JUMPDEST POP POP POP POP JUMP JUMPDEST PUSH1 0x0 PUSH1 0x1F NOT PUSH1 0x1F DUP4 ADD AND SWAP1 POP SWAP2 SWAP1 POP JUMP JUMPDEST PUSH1 0x0 PUSH2 0x198A DUP3 PUSH2 0x191F JUMP JUMPDEST PUSH2 0x1994 DUP2 DUP6 PUSH2 0x192A JUMP JUMPDEST SWAP4 POP PUSH2 0x19A4 DUP2 DUP6 PUSH1 0x20 DUP7 ADD PUSH2 0x193B JUMP JUMPDEST PUSH2 0x19AD DUP2 PUSH2 0x196E JUMP JUMPDEST DUP5 ADD SWAP2 POP POP SWAP3 SWAP2 POP POP JUMP JUMPDEST PUSH2 0x19C1 DUP2 PUSH2 0x1640 JUMP JUMPDEST DUP3 MSTORE POP POP JUMP JUMPDEST PUSH1 0x0 PUSH4 0xFFFFFFFF DUP3 AND SWAP1 POP SWAP2 SWAP1 POP JUMP JUMPDEST PUSH2 0x19E0 DUP2 PUSH2 0x19C7 JUMP JUMPDEST DUP3 MSTORE POP POP JUMP JUMPDEST PUSH1 0x0 PUSH1 0x60 DUP3 ADD SWAP1 POP DUP2 DUP2 SUB PUSH1 0x0 DUP4 ADD MSTORE PUSH2 0x1A00 DUP2 DUP7 PUSH2 0x197F JUMP JUMPDEST SWAP1 POP PUSH2 0x1A0F PUSH1 0x20 DUP4 ADD DUP6 PUSH2 0x19B8 JUMP JUMPDEST PUSH2 0x1A1C PUSH1 0x40 DUP4 ADD DUP5 PUSH2 0x19D7 JUMP JUMPDEST SWAP5 SWAP4 POP POP POP POP JUMP JUMPDEST PUSH1 0x0 DUP1 PUSH1 0x40 DUP4 DUP6 SUB SLT ISZERO PUSH2 0x1A3B JUMPI PUSH2 0x1A3A PUSH2 0x15D8 JUMP JUMPDEST JUMPDEST PUSH1 0x0 PUSH2 0x1A49 DUP6 DUP3 DUP7 ADD PUSH2 0x1661 JUMP JUMPDEST SWAP3 POP POP PUSH1 0x20 PUSH2 0x1A5A DUP6 DUP3 DUP7 ADD PUSH2 0x1661 JUMP JUMPDEST SWAP2 POP POP SWAP3 POP SWAP3 SWAP1 POP JUMP JUMPDEST PUSH1 0x0 PUSH1 0x20 DUP3 ADD SWAP1 POP PUSH2 0x1A79 PUSH1 0x0 DUP4 ADD DUP5 PUSH2 0x19B8 JUMP JUMPDEST SWAP3 SWAP2 POP POP JUMP JUMPDEST PUSH32 0x617070726F76616C20746F2063757272656E74206F776E657200000000000000 PUSH1 0x0 DUP3 ADD MSTORE POP JUMP JUMPDEST PUSH1 0x0 PUSH2 0x1AB5 PUSH1 0x19 DUP4 PUSH2 0x192A JUMP JUMPDEST SWAP2 POP PUSH2 0x1AC0 DUP3 PUSH2 0x1A7F JUMP JUMPDEST PUSH1 0x20 DUP3 ADD SWAP1 POP SWAP2 SWAP1 POP JUMP JUMPDEST PUSH1 0x0 PUSH1 0x20 DUP3 ADD SWAP1 POP DUP2 DUP2 SUB PUSH1 0x0 DUP4 ADD MSTORE PUSH2 0x1AE4 DUP2 PUSH2 0x1AA8 JUMP JUMPDEST SWAP1 POP SWAP2 SWAP1 POP JUMP JUMPDEST PUSH32 0x617070726F76652063616C6C6572206973206E6F74206F776E6572206E6F7220 PUSH1 0x0 DUP3 ADD MSTORE PUSH32 0x617070726F766564206F70657261746F72000000000000000000000000000000 PUSH1 0x20 DUP3 ADD MSTORE POP JUMP JUMPDEST PUSH1 0x0 PUSH2 0x1B47 PUSH1 0x31 DUP4 PUSH2 0x192A JUMP JUMPDEST SWAP2 POP PUSH2 0x1B52 DUP3 PUSH2 0x1AEB JUMP JUMPDEST PUSH1 0x40 DUP3 ADD SWAP1 POP SWAP2 SWAP1 POP JUMP JUMPDEST PUSH1 0x0 PUSH1 0x20 DUP3 ADD SWAP1 POP DUP2 DUP2 SUB PUSH1 0x0 DUP4 ADD MSTORE PUSH2 0x1B76 DUP2 PUSH2 0x1B3A JUMP JUMPDEST SWAP1 POP SWAP2 SWAP1 POP JUMP JUMPDEST PUSH32 0x4E487B7100000000000000000000000000000000000000000000000000000000 PUSH1 0x0 MSTORE PUSH1 0x41 PUSH1 0x4 MSTORE PUSH1 0x24 PUSH1 0x0 REVERT JUMPDEST PUSH32 0x4E487B7100000000000000000000000000000000000000000000000000000000 PUSH1 0x0 MSTORE PUSH1 0x32 PUSH1 0x4 MSTORE PUSH1 0x24 PUSH1 0x0 REVERT JUMPDEST PUSH32 0x4E487B7100000000000000000000000000000000000000000000000000000000 PUSH1 0x0 MSTORE PUSH1 0x11 PUSH1 0x4 MSTORE PUSH1 0x24 PUSH1 0x0 REVERT JUMPDEST PUSH1 0x0 PUSH2 0x1C15 DUP3 PUSH2 0x1640 JUMP JUMPDEST SWAP2 POP PUSH32 0xFFFFFFFFFFFFFFFFFFFFFFFFFFFFFFFFFFFFFFFFFFFFFFFFFFFFFFFFFFFFFFFF DUP3 EQ ISZERO PUSH2 0x1C48 JUMPI PUSH2 0x1C47 PUSH2 0x1BDB JUMP JUMPDEST JUMPDEST PUSH1 0x1 DUP3 ADD SWAP1 POP SWAP2 SWAP1 POP JUMP JUMPDEST PUSH32 0x7472616E7366657246726F6D2063616C6C6572206973206E6F74206F776E6572 PUSH1 0x0 DUP3 ADD MSTORE PUSH32 0x206E6F7220617070726F766564206F70657261746F7200000000000000000000 PUSH1 0x20 DUP3 ADD MSTORE POP JUMP JUMPDEST PUSH1 0x0 PUSH2 0x1CAF PUSH1 0x36 DUP4 PUSH2 0x192A JUMP JUMPDEST SWAP2 POP PUSH2 0x1CBA DUP3 PUSH2 0x1C53 JUMP JUMPDEST PUSH1 0x40 DUP3 ADD SWAP1 POP SWAP2 SWAP1 POP JUMP JUMPDEST PUSH1 0x0 PUSH1 0x20 DUP3 ADD SWAP1 POP DUP2 DUP2 SUB PUSH1 0x0 DUP4 ADD MSTORE PUSH2 0x1CDE DUP2 PUSH2 0x1CA2 JUMP JUMPDEST SWAP1 POP SWAP2 SWAP1 POP JUMP JUMPDEST PUSH32 0x612066756E67757320616C726561647920657869737473000000000000000000 PUSH1 0x0 DUP3 ADD MSTORE POP JUMP JUMPDEST PUSH1 0x0 PUSH2 0x1D1B PUSH1 0x17 DUP4 PUSH2 0x192A JUMP JUMPDEST SWAP2 POP PUSH2 0x1D26 DUP3 PUSH2 0x1CE5 JUMP JUMPDEST PUSH1 0x20 DUP3 ADD SWAP1 POP SWAP2 SWAP1 POP JUMP JUMPDEST PUSH1 0x0 PUSH1 0x20 DUP3 ADD SWAP1 POP DUP2 DUP2 SUB PUSH1 0x0 DUP4 ADD MSTORE PUSH2 0x1D4A DUP2 PUSH2 0x1D0E JUMP JUMPDEST SWAP1 POP SWAP2 SWAP1 POP JUMP JUMPDEST PUSH32 0x4E487B7100000000000000000000000000000000000000000000000000000000 PUSH1 0x0 MSTORE PUSH1 0x22 PUSH1 0x4 MSTORE PUSH1 0x24 PUSH1 0x0 REVERT JUMPDEST PUSH1 0x0 PUSH1 0x2 DUP3 DIV SWAP1 POP PUSH1 0x1 DUP3 AND DUP1 PUSH2 0x1D98 JUMPI PUSH1 0x7F DUP3 AND SWAP2 POP JUMPDEST PUSH1 0x20 DUP3 LT DUP2 EQ ISZERO PUSH2 0x1DAC JUMPI PUSH2 0x1DAB PUSH2 0x1D51 JUMP JUMPDEST JUMPDEST POP SWAP2 SWAP1 POP JUMP JUMPDEST PUSH1 0x0 DUP1 REVERT JUMPDEST PUSH2 0x1DC0 DUP3 PUSH2 0x196E JUMP JUMPDEST DUP2 ADD DUP2 DUP2 LT PUSH8 0xFFFFFFFFFFFFFFFF DUP3 GT OR ISZERO PUSH2 0x1DDF JUMPI PUSH2 0x1DDE PUSH2 0x1B7D JUMP JUMPDEST JUMPDEST DUP1 PUSH1 0x40 MSTORE POP POP POP JUMP JUMPDEST PUSH1 0x0 PUSH2 0x1DF2 PUSH2 0x15CE JUMP JUMPDEST SWAP1 POP PUSH2 0x1DFE DUP3 DUP3 PUSH2 0x1DB7 JUMP JUMPDEST SWAP2 SWAP1 POP JUMP JUMPDEST PUSH1 0x0 PUSH8 0xFFFFFFFFFFFFFFFF DUP3 GT ISZERO PUSH2 0x1E1E JUMPI PUSH2 0x1E1D PUSH2 0x1B7D JUMP JUMPDEST JUMPDEST PUSH2 0x1E27 DUP3 PUSH2 0x196E JUMP JUMPDEST SWAP1 POP PUSH1 0x20 DUP2 ADD SWAP1 POP SWAP2 SWAP1 POP JUMP JUMPDEST PUSH1 0x0 PUSH2 0x1E47 PUSH2 0x1E42 DUP5 PUSH2 0x1E03 JUMP JUMPDEST PUSH2 0x1DE8 JUMP JUMPDEST SWAP1 POP DUP3 DUP2 MSTORE PUSH1 0x20 DUP2 ADD DUP5 DUP5 DUP5 ADD GT ISZERO PUSH2 0x1E63 JUMPI PUSH2 0x1E62 PUSH2 0x1DB2 JUMP JUMPDEST JUMPDEST PUSH2 0x1E6E DUP5 DUP3 DUP6 PUSH2 0x193B JUMP JUMPDEST POP SWAP4 SWAP3 POP POP POP JUMP JUMPDEST PUSH1 0x0 DUP3 PUSH1 0x1F DUP4 ADD SLT PUSH2 0x1E8B JUMPI PUSH2 0x1E8A PUSH2 0x186D JUMP JUMPDEST JUMPDEST DUP2 MLOAD PUSH2 0x1E9B DUP5 DUP3 PUSH1 0x20 DUP7 ADD PUSH2 0x1E34 JUMP JUMPDEST SWAP2 POP POP SWAP3 SWAP2 POP POP JUMP JUMPDEST PUSH1 0x0 DUP2 MLOAD SWAP1 POP PUSH2 0x1EB3 DUP2 PUSH2 0x164A JUMP JUMPDEST SWAP3 SWAP2 POP POP JUMP JUMPDEST PUSH1 0x0 DUP1 PUSH1 0x0 PUSH1 0x60 DUP5 DUP7 SUB SLT ISZERO PUSH2 0x1ED2 JUMPI PUSH2 0x1ED1 PUSH2 0x15D8 JUMP JUMPDEST JUMPDEST PUSH1 0x0 DUP5 ADD MLOAD PUSH8 0xFFFFFFFFFFFFFFFF DUP2 GT ISZERO PUSH2 0x1EF0 JUMPI PUSH2 0x1EEF PUSH2 0x15DD JUMP JUMPDEST JUMPDEST PUSH2 0x1EFC DUP7 DUP3 DUP8 ADD PUSH2 0x1E76 JUMP JUMPDEST SWAP4 POP POP PUSH1 0x20 PUSH2 0x1F0D DUP7 DUP3 DUP8 ADD PUSH2 0x1EA4 JUMP JUMPDEST SWAP3 POP POP PUSH1 0x40 PUSH2 0x1F1E DUP7 DUP3 DUP8 ADD PUSH2 0x1EA4 JUMP JUMPDEST SWAP2 POP POP SWAP3 POP SWAP3 POP SWAP3 JUMP JUMPDEST PUSH32 0x6265207061696420696E617070726F70726961746520657870656E7365730000 PUSH1 0x0 DUP3 ADD MSTORE POP JUMP JUMPDEST PUSH1 0x0 PUSH2 0x1F5E PUSH1 0x1E DUP4 PUSH2 0x192A JUMP JUMPDEST SWAP2 POP PUSH2 0x1F69 DUP3 PUSH2 0x1F28 JUMP JUMPDEST PUSH1 0x20 DUP3 ADD SWAP1 POP SWAP2 SWAP1 POP JUMP JUMPDEST PUSH1 0x0 PUSH1 0x20 DUP3 ADD SWAP1 POP DUP2 DUP2 SUB PUSH1 0x0 DUP4 ADD MSTORE PUSH2 0x1F8D DUP2 PUSH2 0x1F51 JUMP JUMPDEST SWAP1 POP SWAP2 SWAP1 POP JUMP JUMPDEST PUSH32 0x4F776E61626C653A206E6577206F776E657220697320746865207A65726F2061 PUSH1 0x0 DUP3 ADD MSTORE PUSH32 0x6464726573730000000000000000000000000000000000000000000000000000 PUSH1 0x20 DUP3 ADD MSTORE POP JUMP JUMPDEST PUSH1 0x0 PUSH2 0x1FF0 PUSH1 0x26 DUP4 PUSH2 0x192A JUMP JUMPDEST SWAP2 POP PUSH2 0x1FFB DUP3 PUSH2 0x1F94 JUMP JUMPDEST PUSH1 0x40 DUP3 ADD SWAP1 POP SWAP2 SWAP1 POP JUMP JUMPDEST PUSH1 0x0 PUSH1 0x20 DUP3 ADD SWAP1 POP DUP2 DUP2 SUB PUSH1 0x0 DUP4 ADD MSTORE PUSH2 0x201F DUP2 PUSH2 0x1FE3 JUMP JUMPDEST SWAP1 POP SWAP2 SWAP1 POP JUMP JUMPDEST PUSH32 0x7472616E736665722066726F6D20696E636F7272656374206F776E6572000000 PUSH1 0x0 DUP3 ADD MSTORE POP JUMP JUMPDEST PUSH1 0x0 PUSH2 0x205C PUSH1 0x1D DUP4 PUSH2 0x192A JUMP JUMPDEST SWAP2 POP PUSH2 0x2067 DUP3 PUSH2 0x2026 JUMP JUMPDEST PUSH1 0x20 DUP3 ADD SWAP1 POP SWAP2 SWAP1 POP JUMP JUMPDEST PUSH1 0x0 PUSH1 0x20 DUP3 ADD SWAP1 POP DUP2 DUP2 SUB PUSH1 0x0 DUP4 ADD MSTORE PUSH2 0x208B DUP2 PUSH2 0x204F JUMP JUMPDEST SWAP1 POP SWAP2 SWAP1 POP JUMP JUMPDEST PUSH32 0x7472616E7366657220746F20746865207A65726F206164647265737300000000 PUSH1 0x0 DUP3 ADD MSTORE POP JUMP JUMPDEST PUSH1 0x0 PUSH2 0x20C8 PUSH1 0x1C DUP4 PUSH2 0x192A JUMP JUMPDEST SWAP2 POP PUSH2 0x20D3 DUP3 PUSH2 0x2092 JUMP JUMPDEST PUSH1 0x20 DUP3 ADD SWAP1 POP SWAP2 SWAP1 POP JUMP JUMPDEST PUSH1 0x0 PUSH1 0x20 DUP3 ADD SWAP1 POP DUP2 DUP2 SUB PUSH1 0x0 DUP4 ADD MSTORE PUSH2 0x20F7 DUP2 PUSH2 0x20BB JUMP JUMPDEST SWAP1 POP SWAP2 SWAP1 POP JUMP JUMPDEST PUSH1 0x0 PUSH2 0x2109 DUP3 PUSH2 0x1640 JUMP JUMPDEST SWAP2 POP PUSH1 0x0 DUP3 EQ ISZERO PUSH2 0x211D JUMPI PUSH2 0x211C PUSH2 0x1BDB JUMP JUMPDEST JUMPDEST PUSH1 0x1 DUP3 SUB SWAP1 POP SWAP2 SWAP1 POP JUMP JUMPDEST PUSH1 0x0 DUP2 SWAP1 POP SWAP3 SWAP2 POP POP JUMP JUMPDEST DUP3 DUP2 DUP4 CALLDATACOPY PUSH1 0x0 DUP4 DUP4 ADD MSTORE POP POP POP JUMP JUMPDEST PUSH1 0x0 PUSH2 0x214E DUP4 DUP6 PUSH2 0x2128 JUMP JUMPDEST SWAP4 POP PUSH2 0x215B DUP4 DUP6 DUP5 PUSH2 0x2133 JUMP JUMPDEST DUP3 DUP5 ADD SWAP1 POP SWAP4 SWAP3 POP POP POP JUMP JUMPDEST PUSH1 0x0 PUSH2 0x2174 DUP3 DUP5 DUP7 PUSH2 0x2142 JUMP JUMPDEST SWAP2 POP DUP2 SWAP1 POP SWAP4 SWAP3 POP POP POP JUMP JUMPDEST PUSH32 0x4E487B7100000000000000000000000000000000000000000000000000000000 PUSH1 0x0 MSTORE PUSH1 0x12 PUSH1 0x4 MSTORE PUSH1 0x24 PUSH1 0x0 REVERT JUMPDEST PUSH1 0x0 PUSH2 0x21BA DUP3 PUSH2 0x1640 JUMP JUMPDEST SWAP2 POP PUSH2 0x21C5 DUP4 PUSH2 0x1640 JUMP JUMPDEST SWAP3 POP DUP3 PUSH2 0x21D5 JUMPI PUSH2 0x21D4 PUSH2 0x2180 JUMP JUMPDEST JUMPDEST DUP3 DUP3 MOD SWAP1 POP SWAP3 SWAP2 POP POP JUMP JUMPDEST PUSH1 0x0 PUSH2 0x21EB DUP3 PUSH2 0x1640 JUMP JUMPDEST SWAP2 POP PUSH2 0x21F6 DUP4 PUSH2 0x1640 JUMP JUMPDEST SWAP3 POP DUP3 DUP3 LT ISZERO PUSH2 0x2209 JUMPI PUSH2 0x2208 PUSH2 0x1BDB JUMP JUMPDEST JUMPDEST DUP3 DUP3 SUB SWAP1 POP SWAP3 SWAP2 POP POP JUMP JUMPDEST PUSH1 0x0 PUSH2 0x221F DUP3 PUSH2 0x1640 JUMP JUMPDEST SWAP2 POP PUSH2 0x222A DUP4 PUSH2 0x1640 JUMP JUMPDEST SWAP3 POP DUP3 PUSH32 0xFFFFFFFFFFFFFFFFFFFFFFFFFFFFFFFFFFFFFFFFFFFFFFFFFFFFFFFFFFFFFFFF SUB DUP3 GT ISZERO PUSH2 0x225F JUMPI PUSH2 0x225E PUSH2 0x1BDB JUMP JUMPDEST JUMPDEST DUP3 DUP3 ADD SWAP1 POP SWAP3 SWAP2 POP POP JUMP JUMPDEST PUSH1 0x0 PUSH1 0x60 DUP3 ADD SWAP1 POP PUSH2 0x227F PUSH1 0x0 DUP4 ADD DUP7 PUSH2 0x19B8 JUMP JUMPDEST DUP2 DUP2 SUB PUSH1 0x20 DUP4 ADD MSTORE PUSH2 0x2291 DUP2 DUP6 PUSH2 0x197F JUMP JUMPDEST SWAP1 POP PUSH2 0x22A0 PUSH1 0x40 DUP4 ADD DUP5 PUSH2 0x19B8 JUMP JUMPDEST SWAP5 SWAP4 POP POP POP POP JUMP JUMPDEST PUSH32 0x4F776E61626C653A2063616C6C6572206973206E6F7420746865206F776E6572 PUSH1 0x0 DUP3 ADD MSTORE POP JUMP JUMPDEST PUSH1 0x0 PUSH2 0x22DE PUSH1 0x20 DUP4 PUSH2 0x192A JUMP JUMPDEST SWAP2 POP PUSH2 0x22E9 DUP3 PUSH2 0x22A8 JUMP JUMPDEST PUSH1 0x20 DUP3 ADD SWAP1 POP SWAP2 SWAP1 POP JUMP JUMPDEST PUSH1 0x0 PUSH1 0x20 DUP3 ADD SWAP1 POP DUP2 DUP2 SUB PUSH1 0x0 DUP4 ADD MSTORE PUSH2 0x230D DUP2 PUSH2 0x22D1 JUMP JUMPDEST SWAP1 POP SWAP2 SWAP1 POP JUMP JUMPDEST PUSH32 0x6E6F742072656164790000000000000000000000000000000000000000000000 PUSH1 0x0 DUP3 ADD MSTORE POP JUMP JUMPDEST PUSH1 0x0 PUSH2 0x234A PUSH1 0x9 DUP4 PUSH2 0x192A JUMP JUMPDEST SWAP2 POP PUSH2 0x2355 DUP3 PUSH2 0x2314 JUMP JUMPDEST PUSH1 0x20 DUP3 ADD SWAP1 POP SWAP2 SWAP1 POP JUMP JUMPDEST PUSH1 0x0 PUSH1 0x20 DUP3 ADD SWAP1 POP DUP2 DUP2 SUB PUSH1 0x0 DUP4 ADD MSTORE PUSH2 0x2379 DUP2 PUSH2 0x233D JUMP JUMPDEST SWAP1 POP SWAP2 SWAP1 POP JUMP JUMPDEST PUSH1 0x0 PUSH2 0x238B DUP3 PUSH2 0x1640 JUMP JUMPDEST SWAP2 POP PUSH2 0x2396 DUP4 PUSH2 0x1640 JUMP JUMPDEST SWAP3 POP DUP3 PUSH2 0x23A6 JUMPI PUSH2 0x23A5 PUSH2 0x2180 JUMP JUMPDEST JUMPDEST DUP3 DUP3 DIV SWAP1 POP SWAP3 SWAP2 POP POP JUMP INVALID LOG2 PUSH5 0x6970667358 0x22 SLT KECCAK256 SLT DUP10 0xDD SWAP5 DUP15 CHAINID DUP11 0xDB PUSH7 0x768AEFE6F8F72 0xD5 0xB6 PUSH6 0x561B5184AB17 SWAP14 SWAP2 COINBASE PUSH24 0xBEF2C364736F6C634300080C003300000000000000000000 "
				},
				"gasEstimates": {
					"creation": {
						"codeDepositCost": "1838200",
						"executionCost": "infinite",
						"totalCost": "infinite"
					},
					"external": {
						"approveToken(address,uint256)": "infinite",
						"balanceOf(address)": "2863",
						"createRandomFungus(string)": "infinite",
						"feed(uint256,uint256)": "infinite",
						"fungi(uint256)": "infinite",
						"fungusToOwner(uint256)": "2885",
						"getFungiByOwner(address)": "infinite",
						"owner()": "2588",
						"ownerFungusCount(address)": "2881",
						"ownerOf(uint256)": "2932",
						"renounceOwnership()": "30442",
						"setFeedFactoryContractAddress(address)": "27009",
						"transferFrom(address,address,uint256)": "infinite",
						"transferOwnership(address)": "30835"
					},
					"internal": {
						"_approveToken(address,uint256)": "infinite",
						"_transfer(address,address,uint256)": "infinite"
					}
				},
				"methodIdentifiers": {
					"approveToken(address,uint256)": "022fc88b",
					"balanceOf(address)": "70a08231",
					"createRandomFungus(string)": "5a1e6313",
					"feed(uint256,uint256)": "6d6aa5bb",
					"fungi(uint256)": "6bdfcef9",
					"fungusToOwner(uint256)": "0e17f883",
					"getFungiByOwner(address)": "1e1694cb",
					"owner()": "8da5cb5b",
					"ownerFungusCount(address)": "703b3d38",
					"ownerOf(uint256)": "6352211e",
					"renounceOwnership()": "715018a6",
					"setFeedFactoryContractAddress(address)": "6c506e8a",
					"transferFrom(address,address,uint256)": "23b872dd",
					"transferOwnership(address)": "f2fde38b"
				}
			},
			"storageLayout": {
				"storage": [
					{
						"astId": 7,
						"contract": "contracts/FungusOwnership.sol:FungusOwnership",
						"label": "_owner",
						"offset": 0,
						"slot": "0",
						"type": "t_address"
					},
					{
						"astId": 150,
						"contract": "contracts/FungusOwnership.sol:FungusOwnership",
						"label": "dnaDigits",
						"offset": 0,
						"slot": "1",
						"type": "t_uint256"
					},
					{
						"astId": 155,
						"contract": "contracts/FungusOwnership.sol:FungusOwnership",
						"label": "dnaModulus",
						"offset": 0,
						"slot": "2",
						"type": "t_uint256"
					},
					{
						"astId": 158,
						"contract": "contracts/FungusOwnership.sol:FungusOwnership",
						"label": "cooldownTime",
						"offset": 0,
						"slot": "3",
						"type": "t_uint256"
					},
					{
						"astId": 169,
						"contract": "contracts/FungusOwnership.sol:FungusOwnership",
						"label": "fungi",
						"offset": 0,
						"slot": "4",
						"type": "t_array(t_struct(Fungus)165_storage)dyn_storage"
					},
					{
						"astId": 173,
						"contract": "contracts/FungusOwnership.sol:FungusOwnership",
						"label": "fungusToOwner",
						"offset": 0,
						"slot": "5",
						"type": "t_mapping(t_uint256,t_address)"
					},
					{
						"astId": 177,
						"contract": "contracts/FungusOwnership.sol:FungusOwnership",
						"label": "ownerFungusCount",
						"offset": 0,
						"slot": "6",
						"type": "t_mapping(t_address,t_uint256)"
					},
					{
						"astId": 368,
						"contract": "contracts/FungusOwnership.sol:FungusOwnership",
						"label": "feedContract",
						"offset": 0,
						"slot": "7",
						"type": "t_contract(FeedFactoryInterface)363"
					},
					{
						"astId": 553,
						"contract": "contracts/FungusOwnership.sol:FungusOwnership",
						"label": "operatorApproval",
						"offset": 0,
						"slot": "8",
						"type": "t_mapping(t_uint256,t_address)"
					}
				],
				"types": {
					"t_address": {
						"encoding": "inplace",
						"label": "address",
						"numberOfBytes": "20"
					},
					"t_array(t_struct(Fungus)165_storage)dyn_storage": {
						"base": "t_struct(Fungus)165_storage",
						"encoding": "dynamic_array",
						"label": "struct FungusFactory.Fungus[]",
						"numberOfBytes": "32"
					},
					"t_contract(FeedFactoryInterface)363": {
						"encoding": "inplace",
						"label": "contract FeedFactoryInterface",
						"numberOfBytes": "20"
					},
					"t_mapping(t_address,t_uint256)": {
						"encoding": "mapping",
						"key": "t_address",
						"label": "mapping(address => uint256)",
						"numberOfBytes": "32",
						"value": "t_uint256"
					},
					"t_mapping(t_uint256,t_address)": {
						"encoding": "mapping",
						"key": "t_uint256",
						"label": "mapping(uint256 => address)",
						"numberOfBytes": "32",
						"value": "t_address"
					},
					"t_string_storage": {
						"encoding": "bytes",
						"label": "string",
						"numberOfBytes": "32"
					},
					"t_struct(Fungus)165_storage": {
						"encoding": "inplace",
						"label": "struct FungusFactory.Fungus",
						"members": [
							{
								"astId": 160,
								"contract": "contracts/FungusOwnership.sol:FungusOwnership",
								"label": "name",
								"offset": 0,
								"slot": "0",
								"type": "t_string_storage"
							},
							{
								"astId": 162,
								"contract": "contracts/FungusOwnership.sol:FungusOwnership",
								"label": "dna",
								"offset": 0,
								"slot": "1",
								"type": "t_uint256"
							},
							{
								"astId": 164,
								"contract": "contracts/FungusOwnership.sol:FungusOwnership",
								"label": "readyTime",
								"offset": 0,
								"slot": "2",
								"type": "t_uint32"
							}
						],
						"numberOfBytes": "96"
					},
					"t_uint256": {
						"encoding": "inplace",
						"label": "uint256",
						"numberOfBytes": "32"
					},
					"t_uint32": {
						"encoding": "inplace",
						"label": "uint32",
						"numberOfBytes": "4"
					}
				}
			},
			"userdoc": {
				"kind": "user",
				"methods": {},
				"version": 1
			}
		}
	}
}