{
	"contracts/FungusFactory.sol": {
		"FungusFactory": {
			"abi": [
				{
					"anonymous": false,
					"inputs": [
						{
							"indexed": false,
							"internalType": "uint256",
							"name": "",
							"type": "uint256"
						},
						{
							"indexed": false,
							"internalType": "string",
							"name": "",
							"type": "string"
						},
						{
							"indexed": false,
							"internalType": "uint256",
							"name": "",
							"type": "uint256"
						}
					],
					"name": "newFungus",
					"type": "event"
				},
				{
					"inputs": [
						{
							"internalType": "string",
							"name": "name",
							"type": "string"
						}
					],
					"name": "_createFungus",
					"outputs": [],
					"stateMutability": "nonpayable",
					"type": "function"
				},
				{
					"inputs": [
						{
							"internalType": "uint256",
							"name": "",
							"type": "uint256"
						}
					],
					"name": "fungi",
					"outputs": [
						{
							"internalType": "string",
							"name": "name",
							"type": "string"
						},
						{
							"internalType": "uint256",
							"name": "dna",
							"type": "uint256"
						}
					],
					"stateMutability": "view",
					"type": "function"
				},
				{
					"inputs": [
						{
							"internalType": "uint256",
							"name": "",
							"type": "uint256"
						}
					],
					"name": "fungusToOwner",
					"outputs": [
						{
							"internalType": "address",
							"name": "",
							"type": "address"
						}
					],
					"stateMutability": "view",
					"type": "function"
				},
				{
					"inputs": [
						{
							"internalType": "address",
							"name": "",
							"type": "address"
						}
					],
					"name": "ownerFungusCount",
					"outputs": [
						{
							"internalType": "uint256",
							"name": "",
							"type": "uint256"
						}
					],
					"stateMutability": "view",
					"type": "function"
				}
			],
			"devdoc": {
				"kind": "dev",
				"methods": {},
				"version": 1
			},
			"evm": {
				"assembly": "    /* \"contracts/FungusFactory.sol\":61:1147  contract FungusFactory {... */\n  mstore(0x40, 0x80)\n    /* \"contracts/FungusFactory.sol\":108:110  14 */\n  0x0e\n    /* \"contracts/FungusFactory.sol\":91:110  uint dnaDigits = 14 */\n  0x00\n  sstore\n    /* \"contracts/FungusFactory.sol\":141:150  dnaDigits */\n  sload(0x00)\n    /* \"contracts/FungusFactory.sol\":135:137  10 */\n  0x0a\n    /* \"contracts/FungusFactory.sol\":135:150  10 ** dnaDigits */\n  tag_1\n  swap2\n  swap1\n  tag_2\n  jump\t// in\ntag_1:\n    /* \"contracts/FungusFactory.sol\":117:150  uint dnaModulus = 10 ** dnaDigits */\n  0x01\n  sstore\n    /* \"contracts/FungusFactory.sol\":61:1147  contract FungusFactory {... */\n  callvalue\n  dup1\n  iszero\n  tag_3\n  jumpi\n  0x00\n  dup1\n  revert\ntag_3:\n  pop\n  jump(tag_4)\n    /* \"#utility.yul\":7:187   */\ntag_5:\n    /* \"#utility.yul\":55:132   */\n  0x4e487b7100000000000000000000000000000000000000000000000000000000\n    /* \"#utility.yul\":52:53   */\n  0x00\n    /* \"#utility.yul\":45:133   */\n  mstore\n    /* \"#utility.yul\":152:156   */\n  0x11\n    /* \"#utility.yul\":149:150   */\n  0x04\n    /* \"#utility.yul\":142:157   */\n  mstore\n    /* \"#utility.yul\":176:180   */\n  0x24\n    /* \"#utility.yul\":173:174   */\n  0x00\n    /* \"#utility.yul\":166:181   */\n  revert\n    /* \"#utility.yul\":193:295   */\ntag_6:\n    /* \"#utility.yul\":235:243   */\n  0x00\n    /* \"#utility.yul\":282:287   */\n  dup2\n    /* \"#utility.yul\":279:280   */\n  0x01\n    /* \"#utility.yul\":275:288   */\n  shr\n    /* \"#utility.yul\":254:288   */\n  swap1\n  pop\n    /* \"#utility.yul\":193:295   */\n  swap2\n  swap1\n  pop\n  jump\t// out\n    /* \"#utility.yul\":301:1149   */\ntag_7:\n    /* \"#utility.yul\":362:367   */\n  0x00\n    /* \"#utility.yul\":369:373   */\n  dup1\n    /* \"#utility.yul\":393:399   */\n  dup3\n    /* \"#utility.yul\":384:399   */\n  swap2\n  pop\n    /* \"#utility.yul\":417:422   */\n  dup4\n    /* \"#utility.yul\":408:422   */\n  swap1\n  pop\n    /* \"#utility.yul\":431:1143   */\ntag_14:\n    /* \"#utility.yul\":452:453   */\n  0x01\n    /* \"#utility.yul\":442:450   */\n  dup6\n    /* \"#utility.yul\":439:454   */\n  gt\n    /* \"#utility.yul\":431:1143   */\n  iszero\n  tag_16\n  jumpi\n    /* \"#utility.yul\":547:551   */\n  dup1\n    /* \"#utility.yul\":542:545   */\n  dup7\n    /* \"#utility.yul\":538:552   */\n  div\n    /* \"#utility.yul\":532:536   */\n  dup2\n    /* \"#utility.yul\":529:553   */\n  gt\n    /* \"#utility.yul\":526:576   */\n  iszero\n  tag_17\n  jumpi\n    /* \"#utility.yul\":556:574   */\n  tag_18\n  tag_5\n  jump\t// in\ntag_18:\n    /* \"#utility.yul\":526:576   */\ntag_17:\n    /* \"#utility.yul\":606:607   */\n  0x01\n    /* \"#utility.yul\":596:604   */\n  dup6\n    /* \"#utility.yul\":592:608   */\n  and\n    /* \"#utility.yul\":589:1040   */\n  iszero\n  tag_19\n  jumpi\n    /* \"#utility.yul\":1021:1025   */\n  dup1\n    /* \"#utility.yul\":1014:1019   */\n  dup3\n    /* \"#utility.yul\":1010:1026   */\n  mul\n    /* \"#utility.yul\":1001:1026   */\n  swap2\n  pop\n    /* \"#utility.yul\":589:1040   */\ntag_19:\n    /* \"#utility.yul\":1071:1075   */\n  dup1\n    /* \"#utility.yul\":1065:1069   */\n  dup2\n    /* \"#utility.yul\":1061:1076   */\n  mul\n    /* \"#utility.yul\":1053:1076   */\n  swap1\n  pop\n    /* \"#utility.yul\":1101:1133   */\n  tag_20\n    /* \"#utility.yul\":1124:1132   */\n  dup6\n    /* \"#utility.yul\":1101:1133   */\n  tag_6\n  jump\t// in\ntag_20:\n    /* \"#utility.yul\":1089:1133   */\n  swap5\n  pop\n    /* \"#utility.yul\":431:1143   */\n  jump(tag_14)\ntag_16:\n    /* \"#utility.yul\":301:1149   */\n  swap5\n  pop\n  swap5\n  swap3\n  pop\n  pop\n  pop\n  jump\t// out\n    /* \"#utility.yul\":1155:2228   */\ntag_8:\n    /* \"#utility.yul\":1209:1214   */\n  0x00\n    /* \"#utility.yul\":1400:1408   */\n  dup3\n    /* \"#utility.yul\":1390:1430   */\n  tag_22\n  jumpi\n    /* \"#utility.yul\":1421:1422   */\n  0x01\n    /* \"#utility.yul\":1412:1422   */\n  swap1\n  pop\n    /* \"#utility.yul\":1423:1428   */\n  jump(tag_21)\n    /* \"#utility.yul\":1390:1430   */\ntag_22:\n    /* \"#utility.yul\":1449:1453   */\n  dup2\n    /* \"#utility.yul\":1439:1475   */\n  tag_23\n  jumpi\n    /* \"#utility.yul\":1466:1467   */\n  0x00\n    /* \"#utility.yul\":1457:1467   */\n  swap1\n  pop\n    /* \"#utility.yul\":1468:1473   */\n  jump(tag_21)\n    /* \"#utility.yul\":1439:1475   */\ntag_23:\n    /* \"#utility.yul\":1535:1539   */\n  dup2\n    /* \"#utility.yul\":1583:1584   */\n  0x01\n    /* \"#utility.yul\":1578:1605   */\n  dup2\n  eq\n  tag_25\n  jumpi\n    /* \"#utility.yul\":1619:1620   */\n  0x02\n    /* \"#utility.yul\":1614:1805   */\n  dup2\n  eq\n  tag_26\n  jumpi\n    /* \"#utility.yul\":1528:1805   */\n  jump(tag_24)\n    /* \"#utility.yul\":1578:1605   */\ntag_25:\n    /* \"#utility.yul\":1596:1597   */\n  0x01\n    /* \"#utility.yul\":1587:1597   */\n  swap2\n  pop\n    /* \"#utility.yul\":1598:1603   */\n  pop\n  jump(tag_21)\n    /* \"#utility.yul\":1614:1805   */\ntag_26:\n    /* \"#utility.yul\":1659:1662   */\n  0xff\n    /* \"#utility.yul\":1649:1657   */\n  dup5\n    /* \"#utility.yul\":1646:1663   */\n  gt\n    /* \"#utility.yul\":1643:1686   */\n  iszero\n  tag_27\n  jumpi\n    /* \"#utility.yul\":1666:1684   */\n  tag_28\n  tag_5\n  jump\t// in\ntag_28:\n    /* \"#utility.yul\":1643:1686   */\ntag_27:\n    /* \"#utility.yul\":1715:1723   */\n  dup4\n    /* \"#utility.yul\":1712:1713   */\n  0x02\n    /* \"#utility.yul\":1708:1724   */\n  exp\n    /* \"#utility.yul\":1699:1724   */\n  swap2\n  pop\n    /* \"#utility.yul\":1750:1753   */\n  dup5\n    /* \"#utility.yul\":1743:1748   */\n  dup3\n    /* \"#utility.yul\":1740:1754   */\n  gt\n    /* \"#utility.yul\":1737:1777   */\n  iszero\n  tag_29\n  jumpi\n    /* \"#utility.yul\":1757:1775   */\n  tag_30\n  tag_5\n  jump\t// in\ntag_30:\n    /* \"#utility.yul\":1737:1777   */\ntag_29:\n    /* \"#utility.yul\":1790:1795   */\n  pop\n  jump(tag_21)\n    /* \"#utility.yul\":1528:1805   */\ntag_24:\n  pop\n    /* \"#utility.yul\":1914:1916   */\n  0x20\n    /* \"#utility.yul\":1904:1912   */\n  dup4\n    /* \"#utility.yul\":1901:1917   */\n  lt\n    /* \"#utility.yul\":1895:1898   */\n  0x0133\n    /* \"#utility.yul\":1889:1893   */\n  dup4\n    /* \"#utility.yul\":1886:1899   */\n  lt\n    /* \"#utility.yul\":1882:1918   */\n  and\n    /* \"#utility.yul\":1864:1866   */\n  0x4e\n    /* \"#utility.yul\":1854:1862   */\n  dup5\n    /* \"#utility.yul\":1851:1867   */\n  lt\n    /* \"#utility.yul\":1846:1848   */\n  0x0b\n    /* \"#utility.yul\":1840:1844   */\n  dup5\n    /* \"#utility.yul\":1837:1849   */\n  lt\n    /* \"#utility.yul\":1833:1868   */\n  and\n    /* \"#utility.yul\":1817:1928   */\n  or\n    /* \"#utility.yul\":1814:2060   */\n  iszero\n  tag_31\n  jumpi\n    /* \"#utility.yul\":1970:1978   */\n  dup3\n    /* \"#utility.yul\":1964:1968   */\n  dup3\n    /* \"#utility.yul\":1960:1979   */\n  exp\n    /* \"#utility.yul\":1951:1979   */\n  swap1\n  pop\n    /* \"#utility.yul\":2005:2008   */\n  dup4\n    /* \"#utility.yul\":1998:2003   */\n  dup2\n    /* \"#utility.yul\":1995:2009   */\n  gt\n    /* \"#utility.yul\":1992:2032   */\n  iszero\n  tag_32\n  jumpi\n    /* \"#utility.yul\":2012:2030   */\n  tag_33\n  tag_5\n  jump\t// in\ntag_33:\n    /* \"#utility.yul\":1992:2032   */\ntag_32:\n    /* \"#utility.yul\":2045:2050   */\n  jump(tag_21)\n    /* \"#utility.yul\":1814:2060   */\ntag_31:\n    /* \"#utility.yul\":2085:2127   */\n  tag_34\n    /* \"#utility.yul\":2123:2126   */\n  dup5\n    /* \"#utility.yul\":2113:2121   */\n  dup5\n    /* \"#utility.yul\":2107:2111   */\n  dup5\n    /* \"#utility.yul\":2104:2105   */\n  0x01\n    /* \"#utility.yul\":2085:2127   */\n  tag_7\n  jump\t// in\ntag_34:\n    /* \"#utility.yul\":2070:2127   */\n  swap3\n  pop\n  swap1\n  pop\n    /* \"#utility.yul\":2159:2163   */\n  dup2\n    /* \"#utility.yul\":2154:2157   */\n  dup5\n    /* \"#utility.yul\":2150:2164   */\n  div\n    /* \"#utility.yul\":2143:2148   */\n  dup2\n    /* \"#utility.yul\":2140:2165   */\n  gt\n    /* \"#utility.yul\":2137:2188   */\n  iszero\n  tag_35\n  jumpi\n    /* \"#utility.yul\":2168:2186   */\n  tag_36\n  tag_5\n  jump\t// in\ntag_36:\n    /* \"#utility.yul\":2137:2188   */\ntag_35:\n    /* \"#utility.yul\":2217:2221   */\n  dup2\n    /* \"#utility.yul\":2210:2215   */\n  dup2\n    /* \"#utility.yul\":2206:2222   */\n  mul\n    /* \"#utility.yul\":2197:2222   */\n  swap1\n  pop\n    /* \"#utility.yul\":1155:2228   */\ntag_21:\n  swap4\n  swap3\n  pop\n  pop\n  pop\n  jump\t// out\n    /* \"#utility.yul\":2234:2311   */\ntag_9:\n    /* \"#utility.yul\":2271:2278   */\n  0x00\n    /* \"#utility.yul\":2300:2305   */\n  dup2\n    /* \"#utility.yul\":2289:2305   */\n  swap1\n  pop\n    /* \"#utility.yul\":2234:2311   */\n  swap2\n  swap1\n  pop\n  jump\t// out\n    /* \"#utility.yul\":2317:2602   */\ntag_2:\n    /* \"#utility.yul\":2377:2382   */\n  0x00\n    /* \"#utility.yul\":2401:2424   */\n  tag_39\n    /* \"#utility.yul\":2419:2423   */\n  dup3\n    /* \"#utility.yul\":2401:2424   */\n  tag_9\n  jump\t// in\ntag_39:\n    /* \"#utility.yul\":2393:2424   */\n  swap2\n  pop\n    /* \"#utility.yul\":2445:2472   */\n  tag_40\n    /* \"#utility.yul\":2463:2471   */\n  dup4\n    /* \"#utility.yul\":2445:2472   */\n  tag_9\n  jump\t// in\ntag_40:\n    /* \"#utility.yul\":2433:2472   */\n  swap3\n  pop\n    /* \"#utility.yul\":2491:2595   */\n  tag_41\n    /* \"#utility.yul\":2528:2594   */\n  0xffffffffffffffffffffffffffffffffffffffffffffffffffffffffffffffff\n    /* \"#utility.yul\":2518:2526   */\n  dup5\n    /* \"#utility.yul\":2512:2516   */\n  dup5\n    /* \"#utility.yul\":2491:2595   */\n  tag_8\n  jump\t// in\ntag_41:\n    /* \"#utility.yul\":2482:2595   */\n  swap1\n  pop\n    /* \"#utility.yul\":2317:2602   */\n  swap3\n  swap2\n  pop\n  pop\n  jump\t// out\n    /* \"contracts/FungusFactory.sol\":61:1147  contract FungusFactory {... */\ntag_4:\n  dataSize(sub_0)\n  dup1\n  dataOffset(sub_0)\n  0x00\n  codecopy\n  0x00\n  return\nstop\n\nsub_0: assembly {\n        /* \"contracts/FungusFactory.sol\":61:1147  contract FungusFactory {... */\n      mstore(0x40, 0x80)\n      callvalue\n      dup1\n      iszero\n      tag_1\n      jumpi\n      0x00\n      dup1\n      revert\n    tag_1:\n      pop\n      jumpi(tag_2, lt(calldatasize, 0x04))\n      shr(0xe0, calldataload(0x00))\n      dup1\n      0x0e17f883\n      eq\n      tag_3\n      jumpi\n      dup1\n      0x6bdfcef9\n      eq\n      tag_4\n      jumpi\n      dup1\n      0x703b3d38\n      eq\n      tag_5\n      jumpi\n      dup1\n      0x8d3132c9\n      eq\n      tag_6\n      jumpi\n    tag_2:\n      0x00\n      dup1\n      revert\n        /* \"contracts/FungusFactory.sol\":289:335  mapping (uint => address) public fungusToOwner */\n    tag_3:\n      tag_7\n      0x04\n      dup1\n      calldatasize\n      sub\n      dup2\n      add\n      swap1\n      tag_8\n      swap2\n      swap1\n      tag_9\n      jump\t// in\n    tag_8:\n      tag_10\n      jump\t// in\n    tag_7:\n      mload(0x40)\n      tag_11\n      swap2\n      swap1\n      tag_12\n      jump\t// in\n    tag_11:\n      mload(0x40)\n      dup1\n      swap2\n      sub\n      swap1\n      return\n        /* \"contracts/FungusFactory.sol\":230:251  Fungus[] public fungi */\n    tag_4:\n      tag_13\n      0x04\n      dup1\n      calldatasize\n      sub\n      dup2\n      add\n      swap1\n      tag_14\n      swap2\n      swap1\n      tag_9\n      jump\t// in\n    tag_14:\n      tag_15\n      jump\t// in\n    tag_13:\n      mload(0x40)\n      tag_16\n      swap3\n      swap2\n      swap1\n      tag_17\n      jump\t// in\n    tag_16:\n      mload(0x40)\n      dup1\n      swap2\n      sub\n      swap1\n      return\n        /* \"contracts/FungusFactory.sol\":386:435  mapping (address => uint) public ownerFungusCount */\n    tag_5:\n      tag_18\n      0x04\n      dup1\n      calldatasize\n      sub\n      dup2\n      add\n      swap1\n      tag_19\n      swap2\n      swap1\n      tag_20\n      jump\t// in\n    tag_19:\n      tag_21\n      jump\t// in\n    tag_18:\n      mload(0x40)\n      tag_22\n      swap2\n      swap1\n      tag_23\n      jump\t// in\n    tag_22:\n      mload(0x40)\n      dup1\n      swap2\n      sub\n      swap1\n      return\n        /* \"contracts/FungusFactory.sol\":995:1144  function _createFungus(string calldata name) public {... */\n    tag_6:\n      tag_24\n      0x04\n      dup1\n      calldatasize\n      sub\n      dup2\n      add\n      swap1\n      tag_25\n      swap2\n      swap1\n      tag_26\n      jump\t// in\n    tag_25:\n      tag_27\n      jump\t// in\n    tag_24:\n      stop\n        /* \"contracts/FungusFactory.sol\":289:335  mapping (uint => address) public fungusToOwner */\n    tag_10:\n      mstore(0x20, 0x03)\n      dup1\n      0x00\n      mstore\n      keccak256(0x00, 0x40)\n      0x00\n      swap2\n      pop\n      sload\n      swap1\n      0x0100\n      exp\n      swap1\n      div\n      0xffffffffffffffffffffffffffffffffffffffff\n      and\n      dup2\n      jump\t// out\n        /* \"contracts/FungusFactory.sol\":230:251  Fungus[] public fungi */\n    tag_15:\n      0x02\n      dup2\n      dup2\n      sload\n      dup2\n      lt\n      tag_28\n      jumpi\n      0x00\n      dup1\n      revert\n    tag_28:\n      swap1\n      0x00\n      mstore\n      keccak256(0x00, 0x20)\n      swap1\n      0x02\n      mul\n      add\n      0x00\n      swap2\n      pop\n      swap1\n      pop\n      dup1\n      0x00\n      add\n      dup1\n      sload\n      tag_30\n      swap1\n      tag_31\n      jump\t// in\n    tag_30:\n      dup1\n      0x1f\n      add\n      0x20\n      dup1\n      swap2\n      div\n      mul\n      0x20\n      add\n      mload(0x40)\n      swap1\n      dup2\n      add\n      0x40\n      mstore\n      dup1\n      swap3\n      swap2\n      swap1\n      dup2\n      dup2\n      mstore\n      0x20\n      add\n      dup3\n      dup1\n      sload\n      tag_32\n      swap1\n      tag_31\n      jump\t// in\n    tag_32:\n      dup1\n      iszero\n      tag_33\n      jumpi\n      dup1\n      0x1f\n      lt\n      tag_34\n      jumpi\n      0x0100\n      dup1\n      dup4\n      sload\n      div\n      mul\n      dup4\n      mstore\n      swap2\n      0x20\n      add\n      swap2\n      jump(tag_33)\n    tag_34:\n      dup3\n      add\n      swap2\n      swap1\n      0x00\n      mstore\n      keccak256(0x00, 0x20)\n      swap1\n    tag_35:\n      dup2\n      sload\n      dup2\n      mstore\n      swap1\n      0x01\n      add\n      swap1\n      0x20\n      add\n      dup1\n      dup4\n      gt\n      tag_35\n      jumpi\n      dup3\n      swap1\n      sub\n      0x1f\n      and\n      dup3\n      add\n      swap2\n    tag_33:\n      pop\n      pop\n      pop\n      pop\n      pop\n      swap1\n      dup1\n      0x01\n      add\n      sload\n      swap1\n      pop\n      dup3\n      jump\t// out\n        /* \"contracts/FungusFactory.sol\":386:435  mapping (address => uint) public ownerFungusCount */\n    tag_21:\n      mstore(0x20, 0x04)\n      dup1\n      0x00\n      mstore\n      keccak256(0x00, 0x40)\n      0x00\n      swap2\n      pop\n      swap1\n      pop\n      sload\n      dup2\n      jump\t// out\n        /* \"contracts/FungusFactory.sol\":995:1144  function _createFungus(string calldata name) public {... */\n    tag_27:\n        /* \"contracts/FungusFactory.sol\":1058:1070  uint randDna */\n      0x00\n        /* \"contracts/FungusFactory.sol\":1073:1098  _generateRandomData(name) */\n      tag_37\n        /* \"contracts/FungusFactory.sol\":1093:1097  name */\n      dup4\n      dup4\n        /* \"contracts/FungusFactory.sol\":1073:1092  _generateRandomData */\n      tag_38\n        /* \"contracts/FungusFactory.sol\":1073:1098  _generateRandomData(name) */\n      jump\t// in\n    tag_37:\n        /* \"contracts/FungusFactory.sol\":1058:1098  uint randDna = _generateRandomData(name) */\n      swap1\n      pop\n        /* \"contracts/FungusFactory.sol\":1109:1136  _createFungus(name,randDna) */\n      tag_39\n        /* \"contracts/FungusFactory.sol\":1123:1127  name */\n      dup4\n      dup4\n        /* \"contracts/FungusFactory.sol\":1109:1136  _createFungus(name,randDna) */\n      dup1\n      dup1\n      0x1f\n      add\n      0x20\n      dup1\n      swap2\n      div\n      mul\n      0x20\n      add\n      mload(0x40)\n      swap1\n      dup2\n      add\n      0x40\n      mstore\n      dup1\n      swap4\n      swap3\n      swap2\n      swap1\n      dup2\n      dup2\n      mstore\n      0x20\n      add\n      dup4\n      dup4\n      dup1\n      dup3\n      dup5\n      calldatacopy\n      0x00\n      dup2\n      dup5\n      add\n      mstore\n      not(0x1f)\n      0x1f\n      dup3\n      add\n      and\n      swap1\n      pop\n      dup1\n      dup4\n      add\n      swap3\n      pop\n      pop\n      pop\n      pop\n      pop\n      pop\n      pop\n        /* \"contracts/FungusFactory.sol\":1128:1135  randDna */\n      dup3\n        /* \"contracts/FungusFactory.sol\":1109:1122  _createFungus */\n      tag_40\n        /* \"contracts/FungusFactory.sol\":1109:1136  _createFungus(name,randDna) */\n      jump\t// in\n    tag_39:\n        /* \"contracts/FungusFactory.sol\":1047:1144  {... */\n      pop\n        /* \"contracts/FungusFactory.sol\":995:1144  function _createFungus(string calldata name) public {... */\n      pop\n      pop\n      jump\t// out\n        /* \"contracts/FungusFactory.sol\":776:987  function _generateRandomData(string calldata _str) private view returns(uint) {... */\n    tag_38:\n        /* \"contracts/FungusFactory.sol\":848:852  uint */\n      0x00\n        /* \"contracts/FungusFactory.sol\":865:874  uint rand */\n      dup1\n        /* \"contracts/FungusFactory.sol\":898:902  _str */\n      dup4\n      dup4\n        /* \"contracts/FungusFactory.sol\":882:904  keccak256(bytes(_str)) */\n      mload(0x40)\n      tag_42\n      swap3\n      swap2\n      swap1\n      tag_43\n      jump\t// in\n    tag_42:\n      mload(0x40)\n      dup1\n      swap2\n      sub\n      swap1\n      keccak256\n        /* \"contracts/FungusFactory.sol\":877:905  uint(keccak256(bytes(_str))) */\n      0x00\n      shr\n        /* \"contracts/FungusFactory.sol\":865:905  uint rand = uint(keccak256(bytes(_str))) */\n      swap1\n      pop\n        /* \"contracts/FungusFactory.sol\":916:924  uint dna */\n      0x00\n        /* \"contracts/FungusFactory.sol\":934:944  dnaModulus */\n      sload(0x01)\n        /* \"contracts/FungusFactory.sol\":927:931  rand */\n      dup3\n        /* \"contracts/FungusFactory.sol\":927:944  rand % dnaModulus */\n      tag_44\n      swap2\n      swap1\n      tag_45\n      jump\t// in\n    tag_44:\n        /* \"contracts/FungusFactory.sol\":916:944  uint dna = rand % dnaModulus */\n      swap1\n      pop\n        /* \"contracts/FungusFactory.sol\":974:977  100 */\n      0x64\n        /* \"contracts/FungusFactory.sol\":968:971  dna */\n      dup2\n        /* \"contracts/FungusFactory.sol\":968:977  dna % 100 */\n      tag_46\n      swap2\n      swap1\n      tag_45\n      jump\t// in\n    tag_46:\n        /* \"contracts/FungusFactory.sol\":962:965  dna */\n      dup2\n        /* \"contracts/FungusFactory.sol\":962:977  dna - dna % 100 */\n      tag_47\n      swap2\n      swap1\n      tag_48\n      jump\t// in\n    tag_47:\n        /* \"contracts/FungusFactory.sol\":955:977  return dna - dna % 100 */\n      swap3\n      pop\n      pop\n      pop\n        /* \"contracts/FungusFactory.sol\":776:987  function _generateRandomData(string calldata _str) private view returns(uint) {... */\n      swap3\n      swap2\n      pop\n      pop\n      jump\t// out\n        /* \"contracts/FungusFactory.sol\":542:768  function _createFungus(string memory name, uint dna) private {... */\n    tag_40:\n        /* \"contracts/FungusFactory.sol\":614:619  fungi */\n      0x02\n        /* \"contracts/FungusFactory.sol\":625:642  Fungus(name, dna) */\n      mload(0x40)\n      dup1\n      0x40\n      add\n      0x40\n      mstore\n      dup1\n        /* \"contracts/FungusFactory.sol\":632:636  name */\n      dup5\n        /* \"contracts/FungusFactory.sol\":625:642  Fungus(name, dna) */\n      dup2\n      mstore\n      0x20\n      add\n        /* \"contracts/FungusFactory.sol\":638:641  dna */\n      dup4\n        /* \"contracts/FungusFactory.sol\":625:642  Fungus(name, dna) */\n      dup2\n      mstore\n      pop\n        /* \"contracts/FungusFactory.sol\":614:643  fungi.push(Fungus(name, dna)) */\n      swap1\n      dup1\n      0x01\n      dup2\n      sload\n      add\n      dup1\n      dup3\n      sstore\n      dup1\n      swap2\n      pop\n      pop\n      0x01\n      swap1\n      sub\n      swap1\n      0x00\n      mstore\n      keccak256(0x00, 0x20)\n      swap1\n      0x02\n      mul\n      add\n      0x00\n      swap1\n      swap2\n      swap1\n      swap2\n      swap1\n      swap2\n      pop\n      0x00\n      dup3\n      add\n      mload\n      dup2\n      0x00\n      add\n      swap1\n      dup1\n      mload\n      swap1\n      0x20\n      add\n      swap1\n      tag_51\n      swap3\n      swap2\n      swap1\n      tag_52\n      jump\t// in\n    tag_51:\n      pop\n      0x20\n      dup3\n      add\n      mload\n      dup2\n      0x01\n      add\n      sstore\n      pop\n      pop\n        /* \"contracts/FungusFactory.sol\":654:661  uint id */\n      0x00\n        /* \"contracts/FungusFactory.sol\":678:679  1 */\n      0x01\n        /* \"contracts/FungusFactory.sol\":664:669  fungi */\n      0x02\n        /* \"contracts/FungusFactory.sol\":664:676  fungi.length */\n      dup1\n      sload\n      swap1\n      pop\n        /* \"contracts/FungusFactory.sol\":664:679  fungi.length -1 */\n      tag_53\n      swap2\n      swap1\n      tag_48\n      jump\t// in\n    tag_53:\n        /* \"contracts/FungusFactory.sol\":654:679  uint id = fungi.length -1 */\n      swap1\n      pop\n        /* \"contracts/FungusFactory.sol\":710:720  msg.sender */\n      caller\n        /* \"contracts/FungusFactory.sol\":690:703  fungusToOwner */\n      0x03\n        /* \"contracts/FungusFactory.sol\":690:707  fungusToOwner[id] */\n      0x00\n        /* \"contracts/FungusFactory.sol\":704:706  id */\n      dup4\n        /* \"contracts/FungusFactory.sol\":690:707  fungusToOwner[id] */\n      dup2\n      mstore\n      0x20\n      add\n      swap1\n      dup2\n      mstore\n      0x20\n      add\n      0x00\n      keccak256\n      0x00\n        /* \"contracts/FungusFactory.sol\":690:720  fungusToOwner[id] = msg.sender */\n      0x0100\n      exp\n      dup2\n      sload\n      dup2\n      0xffffffffffffffffffffffffffffffffffffffff\n      mul\n      not\n      and\n      swap1\n      dup4\n      0xffffffffffffffffffffffffffffffffffffffff\n      and\n      mul\n      or\n      swap1\n      sstore\n      pop\n        /* \"contracts/FungusFactory.sol\":736:760  newFungus(id, name, dna) */\n      0x2e946779390b27c50a2225bee0b9af13e0848034733330963e93cedb42487fd7\n        /* \"contracts/FungusFactory.sol\":746:748  id */\n      dup2\n        /* \"contracts/FungusFactory.sol\":750:754  name */\n      dup5\n        /* \"contracts/FungusFactory.sol\":756:759  dna */\n      dup5\n        /* \"contracts/FungusFactory.sol\":736:760  newFungus(id, name, dna) */\n      mload(0x40)\n      tag_54\n      swap4\n      swap3\n      swap2\n      swap1\n      tag_55\n      jump\t// in\n    tag_54:\n      mload(0x40)\n      dup1\n      swap2\n      sub\n      swap1\n      log1\n        /* \"contracts/FungusFactory.sol\":603:768  {... */\n      pop\n        /* \"contracts/FungusFactory.sol\":542:768  function _createFungus(string memory name, uint dna) private {... */\n      pop\n      pop\n      jump\t// out\n    tag_52:\n      dup3\n      dup1\n      sload\n      tag_56\n      swap1\n      tag_31\n      jump\t// in\n    tag_56:\n      swap1\n      0x00\n      mstore\n      keccak256(0x00, 0x20)\n      swap1\n      0x1f\n      add\n      0x20\n      swap1\n      div\n      dup2\n      add\n      swap3\n      dup3\n      tag_58\n      jumpi\n      0x00\n      dup6\n      sstore\n      jump(tag_57)\n    tag_58:\n      dup3\n      0x1f\n      lt\n      tag_59\n      jumpi\n      dup1\n      mload\n      not(0xff)\n      and\n      dup4\n      dup1\n      add\n      or\n      dup6\n      sstore\n      jump(tag_57)\n    tag_59:\n      dup3\n      dup1\n      add\n      0x01\n      add\n      dup6\n      sstore\n      dup3\n      iszero\n      tag_57\n      jumpi\n      swap2\n      dup3\n      add\n    tag_60:\n      dup3\n      dup2\n      gt\n      iszero\n      tag_61\n      jumpi\n      dup3\n      mload\n      dup3\n      sstore\n      swap2\n      0x20\n      add\n      swap2\n      swap1\n      0x01\n      add\n      swap1\n      jump(tag_60)\n    tag_61:\n    tag_57:\n      pop\n      swap1\n      pop\n      tag_62\n      swap2\n      swap1\n      tag_63\n      jump\t// in\n    tag_62:\n      pop\n      swap1\n      jump\t// out\n    tag_63:\n    tag_64:\n      dup1\n      dup3\n      gt\n      iszero\n      tag_65\n      jumpi\n      0x00\n      dup2\n      0x00\n      swap1\n      sstore\n      pop\n      0x01\n      add\n      jump(tag_64)\n    tag_65:\n      pop\n      swap1\n      jump\t// out\n        /* \"#utility.yul\":88:205   */\n    tag_67:\n        /* \"#utility.yul\":197:198   */\n      0x00\n        /* \"#utility.yul\":194:195   */\n      dup1\n        /* \"#utility.yul\":187:199   */\n      revert\n        /* \"#utility.yul\":211:328   */\n    tag_68:\n        /* \"#utility.yul\":320:321   */\n      0x00\n        /* \"#utility.yul\":317:318   */\n      dup1\n        /* \"#utility.yul\":310:322   */\n      revert\n        /* \"#utility.yul\":334:411   */\n    tag_69:\n        /* \"#utility.yul\":371:378   */\n      0x00\n        /* \"#utility.yul\":400:405   */\n      dup2\n        /* \"#utility.yul\":389:405   */\n      swap1\n      pop\n        /* \"#utility.yul\":334:411   */\n      swap2\n      swap1\n      pop\n      jump\t// out\n        /* \"#utility.yul\":417:539   */\n    tag_70:\n        /* \"#utility.yul\":490:514   */\n      tag_99\n        /* \"#utility.yul\":508:513   */\n      dup2\n        /* \"#utility.yul\":490:514   */\n      tag_69\n      jump\t// in\n    tag_99:\n        /* \"#utility.yul\":483:488   */\n      dup2\n        /* \"#utility.yul\":480:515   */\n      eq\n        /* \"#utility.yul\":470:533   */\n      tag_100\n      jumpi\n        /* \"#utility.yul\":529:530   */\n      0x00\n        /* \"#utility.yul\":526:527   */\n      dup1\n        /* \"#utility.yul\":519:531   */\n      revert\n        /* \"#utility.yul\":470:533   */\n    tag_100:\n        /* \"#utility.yul\":417:539   */\n      pop\n      jump\t// out\n        /* \"#utility.yul\":545:684   */\n    tag_71:\n        /* \"#utility.yul\":591:596   */\n      0x00\n        /* \"#utility.yul\":629:635   */\n      dup2\n        /* \"#utility.yul\":616:636   */\n      calldataload\n        /* \"#utility.yul\":607:636   */\n      swap1\n      pop\n        /* \"#utility.yul\":645:678   */\n      tag_102\n        /* \"#utility.yul\":672:677   */\n      dup2\n        /* \"#utility.yul\":645:678   */\n      tag_70\n      jump\t// in\n    tag_102:\n        /* \"#utility.yul\":545:684   */\n      swap3\n      swap2\n      pop\n      pop\n      jump\t// out\n        /* \"#utility.yul\":690:1019   */\n    tag_9:\n        /* \"#utility.yul\":749:755   */\n      0x00\n        /* \"#utility.yul\":798:800   */\n      0x20\n        /* \"#utility.yul\":786:795   */\n      dup3\n        /* \"#utility.yul\":777:784   */\n      dup5\n        /* \"#utility.yul\":773:796   */\n      sub\n        /* \"#utility.yul\":769:801   */\n      slt\n        /* \"#utility.yul\":766:885   */\n      iszero\n      tag_104\n      jumpi\n        /* \"#utility.yul\":804:883   */\n      tag_105\n      tag_67\n      jump\t// in\n    tag_105:\n        /* \"#utility.yul\":766:885   */\n    tag_104:\n        /* \"#utility.yul\":924:925   */\n      0x00\n        /* \"#utility.yul\":949:1002   */\n      tag_106\n        /* \"#utility.yul\":994:1001   */\n      dup5\n        /* \"#utility.yul\":985:991   */\n      dup3\n        /* \"#utility.yul\":974:983   */\n      dup6\n        /* \"#utility.yul\":970:992   */\n      add\n        /* \"#utility.yul\":949:1002   */\n      tag_71\n      jump\t// in\n    tag_106:\n        /* \"#utility.yul\":939:1002   */\n      swap2\n      pop\n        /* \"#utility.yul\":895:1012   */\n      pop\n        /* \"#utility.yul\":690:1019   */\n      swap3\n      swap2\n      pop\n      pop\n      jump\t// out\n        /* \"#utility.yul\":1025:1151   */\n    tag_72:\n        /* \"#utility.yul\":1062:1069   */\n      0x00\n        /* \"#utility.yul\":1102:1144   */\n      0xffffffffffffffffffffffffffffffffffffffff\n        /* \"#utility.yul\":1095:1100   */\n      dup3\n        /* \"#utility.yul\":1091:1145   */\n      and\n        /* \"#utility.yul\":1080:1145   */\n      swap1\n      pop\n        /* \"#utility.yul\":1025:1151   */\n      swap2\n      swap1\n      pop\n      jump\t// out\n        /* \"#utility.yul\":1157:1253   */\n    tag_73:\n        /* \"#utility.yul\":1194:1201   */\n      0x00\n        /* \"#utility.yul\":1223:1247   */\n      tag_109\n        /* \"#utility.yul\":1241:1246   */\n      dup3\n        /* \"#utility.yul\":1223:1247   */\n      tag_72\n      jump\t// in\n    tag_109:\n        /* \"#utility.yul\":1212:1247   */\n      swap1\n      pop\n        /* \"#utility.yul\":1157:1253   */\n      swap2\n      swap1\n      pop\n      jump\t// out\n        /* \"#utility.yul\":1259:1377   */\n    tag_74:\n        /* \"#utility.yul\":1346:1370   */\n      tag_111\n        /* \"#utility.yul\":1364:1369   */\n      dup2\n        /* \"#utility.yul\":1346:1370   */\n      tag_73\n      jump\t// in\n    tag_111:\n        /* \"#utility.yul\":1341:1344   */\n      dup3\n        /* \"#utility.yul\":1334:1371   */\n      mstore\n        /* \"#utility.yul\":1259:1377   */\n      pop\n      pop\n      jump\t// out\n        /* \"#utility.yul\":1383:1605   */\n    tag_12:\n        /* \"#utility.yul\":1476:1480   */\n      0x00\n        /* \"#utility.yul\":1514:1516   */\n      0x20\n        /* \"#utility.yul\":1503:1512   */\n      dup3\n        /* \"#utility.yul\":1499:1517   */\n      add\n        /* \"#utility.yul\":1491:1517   */\n      swap1\n      pop\n        /* \"#utility.yul\":1527:1598   */\n      tag_113\n        /* \"#utility.yul\":1595:1596   */\n      0x00\n        /* \"#utility.yul\":1584:1593   */\n      dup4\n        /* \"#utility.yul\":1580:1597   */\n      add\n        /* \"#utility.yul\":1571:1577   */\n      dup5\n        /* \"#utility.yul\":1527:1598   */\n      tag_74\n      jump\t// in\n    tag_113:\n        /* \"#utility.yul\":1383:1605   */\n      swap3\n      swap2\n      pop\n      pop\n      jump\t// out\n        /* \"#utility.yul\":1611:1710   */\n    tag_75:\n        /* \"#utility.yul\":1663:1669   */\n      0x00\n        /* \"#utility.yul\":1697:1702   */\n      dup2\n        /* \"#utility.yul\":1691:1703   */\n      mload\n        /* \"#utility.yul\":1681:1703   */\n      swap1\n      pop\n        /* \"#utility.yul\":1611:1710   */\n      swap2\n      swap1\n      pop\n      jump\t// out\n        /* \"#utility.yul\":1716:1885   */\n    tag_76:\n        /* \"#utility.yul\":1800:1811   */\n      0x00\n        /* \"#utility.yul\":1834:1840   */\n      dup3\n        /* \"#utility.yul\":1829:1832   */\n      dup3\n        /* \"#utility.yul\":1822:1841   */\n      mstore\n        /* \"#utility.yul\":1874:1878   */\n      0x20\n        /* \"#utility.yul\":1869:1872   */\n      dup3\n        /* \"#utility.yul\":1865:1879   */\n      add\n        /* \"#utility.yul\":1850:1879   */\n      swap1\n      pop\n        /* \"#utility.yul\":1716:1885   */\n      swap3\n      swap2\n      pop\n      pop\n      jump\t// out\n        /* \"#utility.yul\":1891:2198   */\n    tag_77:\n        /* \"#utility.yul\":1959:1960   */\n      0x00\n        /* \"#utility.yul\":1969:2082   */\n    tag_117:\n        /* \"#utility.yul\":1983:1989   */\n      dup4\n        /* \"#utility.yul\":1980:1981   */\n      dup2\n        /* \"#utility.yul\":1977:1990   */\n      lt\n        /* \"#utility.yul\":1969:2082   */\n      iszero\n      tag_119\n      jumpi\n        /* \"#utility.yul\":2068:2069   */\n      dup1\n        /* \"#utility.yul\":2063:2066   */\n      dup3\n        /* \"#utility.yul\":2059:2070   */\n      add\n        /* \"#utility.yul\":2053:2071   */\n      mload\n        /* \"#utility.yul\":2049:2050   */\n      dup2\n        /* \"#utility.yul\":2044:2047   */\n      dup5\n        /* \"#utility.yul\":2040:2051   */\n      add\n        /* \"#utility.yul\":2033:2072   */\n      mstore\n        /* \"#utility.yul\":2005:2007   */\n      0x20\n        /* \"#utility.yul\":2002:2003   */\n      dup2\n        /* \"#utility.yul\":1998:2008   */\n      add\n        /* \"#utility.yul\":1993:2008   */\n      swap1\n      pop\n        /* \"#utility.yul\":1969:2082   */\n      jump(tag_117)\n    tag_119:\n        /* \"#utility.yul\":2100:2106   */\n      dup4\n        /* \"#utility.yul\":2097:2098   */\n      dup2\n        /* \"#utility.yul\":2094:2107   */\n      gt\n        /* \"#utility.yul\":2091:2192   */\n      iszero\n      tag_120\n      jumpi\n        /* \"#utility.yul\":2180:2181   */\n      0x00\n        /* \"#utility.yul\":2171:2177   */\n      dup5\n        /* \"#utility.yul\":2166:2169   */\n      dup5\n        /* \"#utility.yul\":2162:2178   */\n      add\n        /* \"#utility.yul\":2155:2182   */\n      mstore\n        /* \"#utility.yul\":2091:2192   */\n    tag_120:\n        /* \"#utility.yul\":1940:2198   */\n      pop\n        /* \"#utility.yul\":1891:2198   */\n      pop\n      pop\n      pop\n      jump\t// out\n        /* \"#utility.yul\":2204:2306   */\n    tag_78:\n        /* \"#utility.yul\":2245:2251   */\n      0x00\n        /* \"#utility.yul\":2296:2298   */\n      0x1f\n        /* \"#utility.yul\":2292:2299   */\n      not\n        /* \"#utility.yul\":2287:2289   */\n      0x1f\n        /* \"#utility.yul\":2280:2285   */\n      dup4\n        /* \"#utility.yul\":2276:2290   */\n      add\n        /* \"#utility.yul\":2272:2300   */\n      and\n        /* \"#utility.yul\":2262:2300   */\n      swap1\n      pop\n        /* \"#utility.yul\":2204:2306   */\n      swap2\n      swap1\n      pop\n      jump\t// out\n        /* \"#utility.yul\":2312:2676   */\n    tag_79:\n        /* \"#utility.yul\":2400:2403   */\n      0x00\n        /* \"#utility.yul\":2428:2467   */\n      tag_123\n        /* \"#utility.yul\":2461:2466   */\n      dup3\n        /* \"#utility.yul\":2428:2467   */\n      tag_75\n      jump\t// in\n    tag_123:\n        /* \"#utility.yul\":2483:2554   */\n      tag_124\n        /* \"#utility.yul\":2547:2553   */\n      dup2\n        /* \"#utility.yul\":2542:2545   */\n      dup6\n        /* \"#utility.yul\":2483:2554   */\n      tag_76\n      jump\t// in\n    tag_124:\n        /* \"#utility.yul\":2476:2554   */\n      swap4\n      pop\n        /* \"#utility.yul\":2563:2615   */\n      tag_125\n        /* \"#utility.yul\":2608:2614   */\n      dup2\n        /* \"#utility.yul\":2603:2606   */\n      dup6\n        /* \"#utility.yul\":2596:2600   */\n      0x20\n        /* \"#utility.yul\":2589:2594   */\n      dup7\n        /* \"#utility.yul\":2585:2601   */\n      add\n        /* \"#utility.yul\":2563:2615   */\n      tag_77\n      jump\t// in\n    tag_125:\n        /* \"#utility.yul\":2640:2669   */\n      tag_126\n        /* \"#utility.yul\":2662:2668   */\n      dup2\n        /* \"#utility.yul\":2640:2669   */\n      tag_78\n      jump\t// in\n    tag_126:\n        /* \"#utility.yul\":2635:2638   */\n      dup5\n        /* \"#utility.yul\":2631:2670   */\n      add\n        /* \"#utility.yul\":2624:2670   */\n      swap2\n      pop\n        /* \"#utility.yul\":2404:2676   */\n      pop\n        /* \"#utility.yul\":2312:2676   */\n      swap3\n      swap2\n      pop\n      pop\n      jump\t// out\n        /* \"#utility.yul\":2682:2800   */\n    tag_80:\n        /* \"#utility.yul\":2769:2793   */\n      tag_128\n        /* \"#utility.yul\":2787:2792   */\n      dup2\n        /* \"#utility.yul\":2769:2793   */\n      tag_69\n      jump\t// in\n    tag_128:\n        /* \"#utility.yul\":2764:2767   */\n      dup3\n        /* \"#utility.yul\":2757:2794   */\n      mstore\n        /* \"#utility.yul\":2682:2800   */\n      pop\n      pop\n      jump\t// out\n        /* \"#utility.yul\":2806:3229   */\n    tag_17:\n        /* \"#utility.yul\":2947:2951   */\n      0x00\n        /* \"#utility.yul\":2985:2987   */\n      0x40\n        /* \"#utility.yul\":2974:2983   */\n      dup3\n        /* \"#utility.yul\":2970:2988   */\n      add\n        /* \"#utility.yul\":2962:2988   */\n      swap1\n      pop\n        /* \"#utility.yul\":3034:3043   */\n      dup2\n        /* \"#utility.yul\":3028:3032   */\n      dup2\n        /* \"#utility.yul\":3024:3044   */\n      sub\n        /* \"#utility.yul\":3020:3021   */\n      0x00\n        /* \"#utility.yul\":3009:3018   */\n      dup4\n        /* \"#utility.yul\":3005:3022   */\n      add\n        /* \"#utility.yul\":2998:3045   */\n      mstore\n        /* \"#utility.yul\":3062:3140   */\n      tag_130\n        /* \"#utility.yul\":3135:3139   */\n      dup2\n        /* \"#utility.yul\":3126:3132   */\n      dup6\n        /* \"#utility.yul\":3062:3140   */\n      tag_79\n      jump\t// in\n    tag_130:\n        /* \"#utility.yul\":3054:3140   */\n      swap1\n      pop\n        /* \"#utility.yul\":3150:3222   */\n      tag_131\n        /* \"#utility.yul\":3218:3220   */\n      0x20\n        /* \"#utility.yul\":3207:3216   */\n      dup4\n        /* \"#utility.yul\":3203:3221   */\n      add\n        /* \"#utility.yul\":3194:3200   */\n      dup5\n        /* \"#utility.yul\":3150:3222   */\n      tag_80\n      jump\t// in\n    tag_131:\n        /* \"#utility.yul\":2806:3229   */\n      swap4\n      swap3\n      pop\n      pop\n      pop\n      jump\t// out\n        /* \"#utility.yul\":3235:3357   */\n    tag_81:\n        /* \"#utility.yul\":3308:3332   */\n      tag_133\n        /* \"#utility.yul\":3326:3331   */\n      dup2\n        /* \"#utility.yul\":3308:3332   */\n      tag_73\n      jump\t// in\n    tag_133:\n        /* \"#utility.yul\":3301:3306   */\n      dup2\n        /* \"#utility.yul\":3298:3333   */\n      eq\n        /* \"#utility.yul\":3288:3351   */\n      tag_134\n      jumpi\n        /* \"#utility.yul\":3347:3348   */\n      0x00\n        /* \"#utility.yul\":3344:3345   */\n      dup1\n        /* \"#utility.yul\":3337:3349   */\n      revert\n        /* \"#utility.yul\":3288:3351   */\n    tag_134:\n        /* \"#utility.yul\":3235:3357   */\n      pop\n      jump\t// out\n        /* \"#utility.yul\":3363:3502   */\n    tag_82:\n        /* \"#utility.yul\":3409:3414   */\n      0x00\n        /* \"#utility.yul\":3447:3453   */\n      dup2\n        /* \"#utility.yul\":3434:3454   */\n      calldataload\n        /* \"#utility.yul\":3425:3454   */\n      swap1\n      pop\n        /* \"#utility.yul\":3463:3496   */\n      tag_136\n        /* \"#utility.yul\":3490:3495   */\n      dup2\n        /* \"#utility.yul\":3463:3496   */\n      tag_81\n      jump\t// in\n    tag_136:\n        /* \"#utility.yul\":3363:3502   */\n      swap3\n      swap2\n      pop\n      pop\n      jump\t// out\n        /* \"#utility.yul\":3508:3837   */\n    tag_20:\n        /* \"#utility.yul\":3567:3573   */\n      0x00\n        /* \"#utility.yul\":3616:3618   */\n      0x20\n        /* \"#utility.yul\":3604:3613   */\n      dup3\n        /* \"#utility.yul\":3595:3602   */\n      dup5\n        /* \"#utility.yul\":3591:3614   */\n      sub\n        /* \"#utility.yul\":3587:3619   */\n      slt\n        /* \"#utility.yul\":3584:3703   */\n      iszero\n      tag_138\n      jumpi\n        /* \"#utility.yul\":3622:3701   */\n      tag_139\n      tag_67\n      jump\t// in\n    tag_139:\n        /* \"#utility.yul\":3584:3703   */\n    tag_138:\n        /* \"#utility.yul\":3742:3743   */\n      0x00\n        /* \"#utility.yul\":3767:3820   */\n      tag_140\n        /* \"#utility.yul\":3812:3819   */\n      dup5\n        /* \"#utility.yul\":3803:3809   */\n      dup3\n        /* \"#utility.yul\":3792:3801   */\n      dup6\n        /* \"#utility.yul\":3788:3810   */\n      add\n        /* \"#utility.yul\":3767:3820   */\n      tag_82\n      jump\t// in\n    tag_140:\n        /* \"#utility.yul\":3757:3820   */\n      swap2\n      pop\n        /* \"#utility.yul\":3713:3830   */\n      pop\n        /* \"#utility.yul\":3508:3837   */\n      swap3\n      swap2\n      pop\n      pop\n      jump\t// out\n        /* \"#utility.yul\":3843:4065   */\n    tag_23:\n        /* \"#utility.yul\":3936:3940   */\n      0x00\n        /* \"#utility.yul\":3974:3976   */\n      0x20\n        /* \"#utility.yul\":3963:3972   */\n      dup3\n        /* \"#utility.yul\":3959:3977   */\n      add\n        /* \"#utility.yul\":3951:3977   */\n      swap1\n      pop\n        /* \"#utility.yul\":3987:4058   */\n      tag_142\n        /* \"#utility.yul\":4055:4056   */\n      0x00\n        /* \"#utility.yul\":4044:4053   */\n      dup4\n        /* \"#utility.yul\":4040:4057   */\n      add\n        /* \"#utility.yul\":4031:4037   */\n      dup5\n        /* \"#utility.yul\":3987:4058   */\n      tag_80\n      jump\t// in\n    tag_142:\n        /* \"#utility.yul\":3843:4065   */\n      swap3\n      swap2\n      pop\n      pop\n      jump\t// out\n        /* \"#utility.yul\":4071:4188   */\n    tag_83:\n        /* \"#utility.yul\":4180:4181   */\n      0x00\n        /* \"#utility.yul\":4177:4178   */\n      dup1\n        /* \"#utility.yul\":4170:4182   */\n      revert\n        /* \"#utility.yul\":4194:4311   */\n    tag_84:\n        /* \"#utility.yul\":4303:4304   */\n      0x00\n        /* \"#utility.yul\":4300:4301   */\n      dup1\n        /* \"#utility.yul\":4293:4305   */\n      revert\n        /* \"#utility.yul\":4317:4434   */\n    tag_85:\n        /* \"#utility.yul\":4426:4427   */\n      0x00\n        /* \"#utility.yul\":4423:4424   */\n      dup1\n        /* \"#utility.yul\":4416:4428   */\n      revert\n        /* \"#utility.yul\":4454:5007   */\n    tag_86:\n        /* \"#utility.yul\":4512:4520   */\n      0x00\n        /* \"#utility.yul\":4522:4528   */\n      dup1\n        /* \"#utility.yul\":4572:4575   */\n      dup4\n        /* \"#utility.yul\":4565:4569   */\n      0x1f\n        /* \"#utility.yul\":4557:4563   */\n      dup5\n        /* \"#utility.yul\":4553:4570   */\n      add\n        /* \"#utility.yul\":4549:4576   */\n      slt\n        /* \"#utility.yul\":4539:4661   */\n      tag_147\n      jumpi\n        /* \"#utility.yul\":4580:4659   */\n      tag_148\n      tag_83\n      jump\t// in\n    tag_148:\n        /* \"#utility.yul\":4539:4661   */\n    tag_147:\n        /* \"#utility.yul\":4693:4699   */\n      dup3\n        /* \"#utility.yul\":4680:4700   */\n      calldataload\n        /* \"#utility.yul\":4670:4700   */\n      swap1\n      pop\n        /* \"#utility.yul\":4723:4741   */\n      0xffffffffffffffff\n        /* \"#utility.yul\":4715:4721   */\n      dup2\n        /* \"#utility.yul\":4712:4742   */\n      gt\n        /* \"#utility.yul\":4709:4826   */\n      iszero\n      tag_149\n      jumpi\n        /* \"#utility.yul\":4745:4824   */\n      tag_150\n      tag_84\n      jump\t// in\n    tag_150:\n        /* \"#utility.yul\":4709:4826   */\n    tag_149:\n        /* \"#utility.yul\":4859:4863   */\n      0x20\n        /* \"#utility.yul\":4851:4857   */\n      dup4\n        /* \"#utility.yul\":4847:4864   */\n      add\n        /* \"#utility.yul\":4835:4864   */\n      swap2\n      pop\n        /* \"#utility.yul\":4913:4916   */\n      dup4\n        /* \"#utility.yul\":4905:4909   */\n      0x01\n        /* \"#utility.yul\":4897:4903   */\n      dup3\n        /* \"#utility.yul\":4893:4910   */\n      mul\n        /* \"#utility.yul\":4883:4891   */\n      dup4\n        /* \"#utility.yul\":4879:4911   */\n      add\n        /* \"#utility.yul\":4876:4917   */\n      gt\n        /* \"#utility.yul\":4873:5001   */\n      iszero\n      tag_151\n      jumpi\n        /* \"#utility.yul\":4920:4999   */\n      tag_152\n      tag_85\n      jump\t// in\n    tag_152:\n        /* \"#utility.yul\":4873:5001   */\n    tag_151:\n        /* \"#utility.yul\":4454:5007   */\n      swap3\n      pop\n      swap3\n      swap1\n      pop\n      jump\t// out\n        /* \"#utility.yul\":5013:5542   */\n    tag_26:\n        /* \"#utility.yul\":5084:5090   */\n      0x00\n        /* \"#utility.yul\":5092:5098   */\n      dup1\n        /* \"#utility.yul\":5141:5143   */\n      0x20\n        /* \"#utility.yul\":5129:5138   */\n      dup4\n        /* \"#utility.yul\":5120:5127   */\n      dup6\n        /* \"#utility.yul\":5116:5139   */\n      sub\n        /* \"#utility.yul\":5112:5144   */\n      slt\n        /* \"#utility.yul\":5109:5228   */\n      iszero\n      tag_154\n      jumpi\n        /* \"#utility.yul\":5147:5226   */\n      tag_155\n      tag_67\n      jump\t// in\n    tag_155:\n        /* \"#utility.yul\":5109:5228   */\n    tag_154:\n        /* \"#utility.yul\":5295:5296   */\n      0x00\n        /* \"#utility.yul\":5284:5293   */\n      dup4\n        /* \"#utility.yul\":5280:5297   */\n      add\n        /* \"#utility.yul\":5267:5298   */\n      calldataload\n        /* \"#utility.yul\":5325:5343   */\n      0xffffffffffffffff\n        /* \"#utility.yul\":5317:5323   */\n      dup2\n        /* \"#utility.yul\":5314:5344   */\n      gt\n        /* \"#utility.yul\":5311:5428   */\n      iszero\n      tag_156\n      jumpi\n        /* \"#utility.yul\":5347:5426   */\n      tag_157\n      tag_68\n      jump\t// in\n    tag_157:\n        /* \"#utility.yul\":5311:5428   */\n    tag_156:\n        /* \"#utility.yul\":5460:5525   */\n      tag_158\n        /* \"#utility.yul\":5517:5524   */\n      dup6\n        /* \"#utility.yul\":5508:5514   */\n      dup3\n        /* \"#utility.yul\":5497:5506   */\n      dup7\n        /* \"#utility.yul\":5493:5515   */\n      add\n        /* \"#utility.yul\":5460:5525   */\n      tag_86\n      jump\t// in\n    tag_158:\n        /* \"#utility.yul\":5442:5525   */\n      swap3\n      pop\n      swap3\n      pop\n        /* \"#utility.yul\":5238:5535   */\n      pop\n        /* \"#utility.yul\":5013:5542   */\n      swap3\n      pop\n      swap3\n      swap1\n      pop\n      jump\t// out\n        /* \"#utility.yul\":5548:5728   */\n    tag_87:\n        /* \"#utility.yul\":5596:5673   */\n      0x4e487b7100000000000000000000000000000000000000000000000000000000\n        /* \"#utility.yul\":5593:5594   */\n      0x00\n        /* \"#utility.yul\":5586:5674   */\n      mstore\n        /* \"#utility.yul\":5693:5697   */\n      0x22\n        /* \"#utility.yul\":5690:5691   */\n      0x04\n        /* \"#utility.yul\":5683:5698   */\n      mstore\n        /* \"#utility.yul\":5717:5721   */\n      0x24\n        /* \"#utility.yul\":5714:5715   */\n      0x00\n        /* \"#utility.yul\":5707:5722   */\n      revert\n        /* \"#utility.yul\":5734:6054   */\n    tag_31:\n        /* \"#utility.yul\":5778:5784   */\n      0x00\n        /* \"#utility.yul\":5815:5816   */\n      0x02\n        /* \"#utility.yul\":5809:5813   */\n      dup3\n        /* \"#utility.yul\":5805:5817   */\n      div\n        /* \"#utility.yul\":5795:5817   */\n      swap1\n      pop\n        /* \"#utility.yul\":5862:5863   */\n      0x01\n        /* \"#utility.yul\":5856:5860   */\n      dup3\n        /* \"#utility.yul\":5852:5864   */\n      and\n        /* \"#utility.yul\":5883:5901   */\n      dup1\n        /* \"#utility.yul\":5873:5954   */\n      tag_161\n      jumpi\n        /* \"#utility.yul\":5939:5943   */\n      0x7f\n        /* \"#utility.yul\":5931:5937   */\n      dup3\n        /* \"#utility.yul\":5927:5944   */\n      and\n        /* \"#utility.yul\":5917:5944   */\n      swap2\n      pop\n        /* \"#utility.yul\":5873:5954   */\n    tag_161:\n        /* \"#utility.yul\":6001:6003   */\n      0x20\n        /* \"#utility.yul\":5993:5999   */\n      dup3\n        /* \"#utility.yul\":5990:6004   */\n      lt\n        /* \"#utility.yul\":5970:5988   */\n      dup2\n        /* \"#utility.yul\":5967:6005   */\n      eq\n        /* \"#utility.yul\":5964:6048   */\n      iszero\n      tag_162\n      jumpi\n        /* \"#utility.yul\":6020:6038   */\n      tag_163\n      tag_87\n      jump\t// in\n    tag_163:\n        /* \"#utility.yul\":5964:6048   */\n    tag_162:\n        /* \"#utility.yul\":5785:6054   */\n      pop\n        /* \"#utility.yul\":5734:6054   */\n      swap2\n      swap1\n      pop\n      jump\t// out\n        /* \"#utility.yul\":6060:6207   */\n    tag_88:\n        /* \"#utility.yul\":6161:6172   */\n      0x00\n        /* \"#utility.yul\":6198:6201   */\n      dup2\n        /* \"#utility.yul\":6183:6201   */\n      swap1\n      pop\n        /* \"#utility.yul\":6060:6207   */\n      swap3\n      swap2\n      pop\n      pop\n      jump\t// out\n        /* \"#utility.yul\":6213:6367   */\n    tag_89:\n        /* \"#utility.yul\":6297:6303   */\n      dup3\n        /* \"#utility.yul\":6292:6295   */\n      dup2\n        /* \"#utility.yul\":6287:6290   */\n      dup4\n        /* \"#utility.yul\":6274:6304   */\n      calldatacopy\n        /* \"#utility.yul\":6359:6360   */\n      0x00\n        /* \"#utility.yul\":6350:6356   */\n      dup4\n        /* \"#utility.yul\":6345:6348   */\n      dup4\n        /* \"#utility.yul\":6341:6357   */\n      add\n        /* \"#utility.yul\":6334:6361   */\n      mstore\n        /* \"#utility.yul\":6213:6367   */\n      pop\n      pop\n      pop\n      jump\t// out\n        /* \"#utility.yul\":6395:6709   */\n    tag_90:\n        /* \"#utility.yul\":6509:6512   */\n      0x00\n        /* \"#utility.yul\":6530:6618   */\n      tag_167\n        /* \"#utility.yul\":6611:6617   */\n      dup4\n        /* \"#utility.yul\":6606:6609   */\n      dup6\n        /* \"#utility.yul\":6530:6618   */\n      tag_88\n      jump\t// in\n    tag_167:\n        /* \"#utility.yul\":6523:6618   */\n      swap4\n      pop\n        /* \"#utility.yul\":6628:6671   */\n      tag_168\n        /* \"#utility.yul\":6664:6670   */\n      dup4\n        /* \"#utility.yul\":6659:6662   */\n      dup6\n        /* \"#utility.yul\":6652:6657   */\n      dup5\n        /* \"#utility.yul\":6628:6671   */\n      tag_89\n      jump\t// in\n    tag_168:\n        /* \"#utility.yul\":6696:6702   */\n      dup3\n        /* \"#utility.yul\":6691:6694   */\n      dup5\n        /* \"#utility.yul\":6687:6703   */\n      add\n        /* \"#utility.yul\":6680:6703   */\n      swap1\n      pop\n        /* \"#utility.yul\":6395:6709   */\n      swap4\n      swap3\n      pop\n      pop\n      pop\n      jump\t// out\n        /* \"#utility.yul\":6715:7006   */\n    tag_43:\n        /* \"#utility.yul\":6855:6858   */\n      0x00\n        /* \"#utility.yul\":6877:6980   */\n      tag_170\n        /* \"#utility.yul\":6976:6979   */\n      dup3\n        /* \"#utility.yul\":6967:6973   */\n      dup5\n        /* \"#utility.yul\":6959:6965   */\n      dup7\n        /* \"#utility.yul\":6877:6980   */\n      tag_90\n      jump\t// in\n    tag_170:\n        /* \"#utility.yul\":6870:6980   */\n      swap2\n      pop\n        /* \"#utility.yul\":6997:7000   */\n      dup2\n        /* \"#utility.yul\":6990:7000   */\n      swap1\n      pop\n        /* \"#utility.yul\":6715:7006   */\n      swap4\n      swap3\n      pop\n      pop\n      pop\n      jump\t// out\n        /* \"#utility.yul\":7012:7192   */\n    tag_91:\n        /* \"#utility.yul\":7060:7137   */\n      0x4e487b7100000000000000000000000000000000000000000000000000000000\n        /* \"#utility.yul\":7057:7058   */\n      0x00\n        /* \"#utility.yul\":7050:7138   */\n      mstore\n        /* \"#utility.yul\":7157:7161   */\n      0x12\n        /* \"#utility.yul\":7154:7155   */\n      0x04\n        /* \"#utility.yul\":7147:7162   */\n      mstore\n        /* \"#utility.yul\":7181:7185   */\n      0x24\n        /* \"#utility.yul\":7178:7179   */\n      0x00\n        /* \"#utility.yul\":7171:7186   */\n      revert\n        /* \"#utility.yul\":7198:7374   */\n    tag_45:\n        /* \"#utility.yul\":7230:7231   */\n      0x00\n        /* \"#utility.yul\":7247:7267   */\n      tag_173\n        /* \"#utility.yul\":7265:7266   */\n      dup3\n        /* \"#utility.yul\":7247:7267   */\n      tag_69\n      jump\t// in\n    tag_173:\n        /* \"#utility.yul\":7242:7267   */\n      swap2\n      pop\n        /* \"#utility.yul\":7281:7301   */\n      tag_174\n        /* \"#utility.yul\":7299:7300   */\n      dup4\n        /* \"#utility.yul\":7281:7301   */\n      tag_69\n      jump\t// in\n    tag_174:\n        /* \"#utility.yul\":7276:7301   */\n      swap3\n      pop\n        /* \"#utility.yul\":7320:7321   */\n      dup3\n        /* \"#utility.yul\":7310:7345   */\n      tag_175\n      jumpi\n        /* \"#utility.yul\":7325:7343   */\n      tag_176\n      tag_91\n      jump\t// in\n    tag_176:\n        /* \"#utility.yul\":7310:7345   */\n    tag_175:\n        /* \"#utility.yul\":7366:7367   */\n      dup3\n        /* \"#utility.yul\":7363:7364   */\n      dup3\n        /* \"#utility.yul\":7359:7368   */\n      mod\n        /* \"#utility.yul\":7354:7368   */\n      swap1\n      pop\n        /* \"#utility.yul\":7198:7374   */\n      swap3\n      swap2\n      pop\n      pop\n      jump\t// out\n        /* \"#utility.yul\":7380:7560   */\n    tag_92:\n        /* \"#utility.yul\":7428:7505   */\n      0x4e487b7100000000000000000000000000000000000000000000000000000000\n        /* \"#utility.yul\":7425:7426   */\n      0x00\n        /* \"#utility.yul\":7418:7506   */\n      mstore\n        /* \"#utility.yul\":7525:7529   */\n      0x11\n        /* \"#utility.yul\":7522:7523   */\n      0x04\n        /* \"#utility.yul\":7515:7530   */\n      mstore\n        /* \"#utility.yul\":7549:7553   */\n      0x24\n        /* \"#utility.yul\":7546:7547   */\n      0x00\n        /* \"#utility.yul\":7539:7554   */\n      revert\n        /* \"#utility.yul\":7566:7757   */\n    tag_48:\n        /* \"#utility.yul\":7606:7610   */\n      0x00\n        /* \"#utility.yul\":7626:7646   */\n      tag_179\n        /* \"#utility.yul\":7644:7645   */\n      dup3\n        /* \"#utility.yul\":7626:7646   */\n      tag_69\n      jump\t// in\n    tag_179:\n        /* \"#utility.yul\":7621:7646   */\n      swap2\n      pop\n        /* \"#utility.yul\":7660:7680   */\n      tag_180\n        /* \"#utility.yul\":7678:7679   */\n      dup4\n        /* \"#utility.yul\":7660:7680   */\n      tag_69\n      jump\t// in\n    tag_180:\n        /* \"#utility.yul\":7655:7680   */\n      swap3\n      pop\n        /* \"#utility.yul\":7699:7700   */\n      dup3\n        /* \"#utility.yul\":7696:7697   */\n      dup3\n        /* \"#utility.yul\":7693:7701   */\n      lt\n        /* \"#utility.yul\":7690:7724   */\n      iszero\n      tag_181\n      jumpi\n        /* \"#utility.yul\":7704:7722   */\n      tag_182\n      tag_92\n      jump\t// in\n    tag_182:\n        /* \"#utility.yul\":7690:7724   */\n    tag_181:\n        /* \"#utility.yul\":7749:7750   */\n      dup3\n        /* \"#utility.yul\":7746:7747   */\n      dup3\n        /* \"#utility.yul\":7742:7751   */\n      sub\n        /* \"#utility.yul\":7734:7751   */\n      swap1\n      pop\n        /* \"#utility.yul\":7566:7757   */\n      swap3\n      swap2\n      pop\n      pop\n      jump\t// out\n        /* \"#utility.yul\":7763:8296   */\n    tag_55:\n        /* \"#utility.yul\":7932:7936   */\n      0x00\n        /* \"#utility.yul\":7970:7972   */\n      0x60\n        /* \"#utility.yul\":7959:7968   */\n      dup3\n        /* \"#utility.yul\":7955:7973   */\n      add\n        /* \"#utility.yul\":7947:7973   */\n      swap1\n      pop\n        /* \"#utility.yul\":7983:8054   */\n      tag_184\n        /* \"#utility.yul\":8051:8052   */\n      0x00\n        /* \"#utility.yul\":8040:8049   */\n      dup4\n        /* \"#utility.yul\":8036:8053   */\n      add\n        /* \"#utility.yul\":8027:8033   */\n      dup7\n        /* \"#utility.yul\":7983:8054   */\n      tag_80\n      jump\t// in\n    tag_184:\n        /* \"#utility.yul\":8101:8110   */\n      dup2\n        /* \"#utility.yul\":8095:8099   */\n      dup2\n        /* \"#utility.yul\":8091:8111   */\n      sub\n        /* \"#utility.yul\":8086:8088   */\n      0x20\n        /* \"#utility.yul\":8075:8084   */\n      dup4\n        /* \"#utility.yul\":8071:8089   */\n      add\n        /* \"#utility.yul\":8064:8112   */\n      mstore\n        /* \"#utility.yul\":8129:8207   */\n      tag_185\n        /* \"#utility.yul\":8202:8206   */\n      dup2\n        /* \"#utility.yul\":8193:8199   */\n      dup6\n        /* \"#utility.yul\":8129:8207   */\n      tag_79\n      jump\t// in\n    tag_185:\n        /* \"#utility.yul\":8121:8207   */\n      swap1\n      pop\n        /* \"#utility.yul\":8217:8289   */\n      tag_186\n        /* \"#utility.yul\":8285:8287   */\n      0x40\n        /* \"#utility.yul\":8274:8283   */\n      dup4\n        /* \"#utility.yul\":8270:8288   */\n      add\n        /* \"#utility.yul\":8261:8267   */\n      dup5\n        /* \"#utility.yul\":8217:8289   */\n      tag_80\n      jump\t// in\n    tag_186:\n        /* \"#utility.yul\":7763:8296   */\n      swap5\n      swap4\n      pop\n      pop\n      pop\n      pop\n      jump\t// out\n\n    auxdata: 0xa2646970667358221220f70dc34921091ad785ad7e767352dc6c8169f454c28d978fa63a27a59d00c00664736f6c634300080c0033\n}\n",
				"bytecode": {
					"linkReferences": {},
					"object": "6080604052600e600055600054600a6200001a9190620001be565b6001553480156200002a57600080fd5b506200020f565b7f4e487b7100000000000000000000000000000000000000000000000000000000600052601160045260246000fd5b60008160011c9050919050565b6000808291508390505b6001851115620000bf5780860481111562000097576200009662000031565b5b6001851615620000a75780820291505b8081029050620000b78562000060565b945062000077565b94509492505050565b600082620000da5760019050620001ad565b81620000ea5760009050620001ad565b81600181146200010357600281146200010e5762000144565b6001915050620001ad565b60ff84111562000123576200012262000031565b5b8360020a9150848211156200013d576200013c62000031565b5b50620001ad565b5060208310610133831016604e8410600b84101617156200017e5782820a90508381111562000178576200017762000031565b5b620001ad565b6200018d84848460016200006d565b92509050818404811115620001a757620001a662000031565b5b81810290505b9392505050565b6000819050919050565b6000620001cb82620001b4565b9150620001d883620001b4565b9250620002077fffffffffffffffffffffffffffffffffffffffffffffffffffffffffffffffff8484620000c8565b905092915050565b610925806200021f6000396000f3fe608060405234801561001057600080fd5b506004361061004c5760003560e01c80630e17f883146100515780636bdfcef914610081578063703b3d38146100b25780638d3132c9146100e2575b600080fd5b61006b600480360381019061006691906104ae565b6100fe565b604051610078919061051c565b60405180910390f35b61009b600480360381019061009691906104ae565b610131565b6040516100a99291906105df565b60405180910390f35b6100cc60048036038101906100c7919061063b565b6101ed565b6040516100d99190610668565b60405180910390f35b6100fc60048036038101906100f791906106e8565b610205565b005b60036020528060005260406000206000915054906101000a900473ffffffffffffffffffffffffffffffffffffffff1681565b6002818154811061014157600080fd5b906000526020600020906002020160009150905080600001805461016490610764565b80601f016020809104026020016040519081016040528092919081815260200182805461019090610764565b80156101dd5780601f106101b2576101008083540402835291602001916101dd565b820191906000526020600020905b8154815290600101906020018083116101c057829003601f168201915b5050505050908060010154905082565b60046020528060005260406000206000915090505481565b60006102118383610266565b905061026183838080601f016020809104026020016040519081016040528093929190818152602001838380828437600081840152601f19601f82011690508083019250505050505050826102ba565b505050565b60008083836040516102799291906107d5565b604051809103902060001c9050600060015482610296919061081d565b90506064816102a5919061081d565b816102b0919061087d565b9250505092915050565b6002604051806040016040528084815260200183815250908060018154018082558091505060019003906000526020600020906002020160009091909190915060008201518160000190805190602001906103169291906103cb565b5060208201518160010155505060006001600280549050610337919061087d565b9050336003600083815260200190815260200160002060006101000a81548173ffffffffffffffffffffffffffffffffffffffff021916908373ffffffffffffffffffffffffffffffffffffffff1602179055507f2e946779390b27c50a2225bee0b9af13e0848034733330963e93cedb42487fd78184846040516103be939291906108b1565b60405180910390a1505050565b8280546103d790610764565b90600052602060002090601f0160209004810192826103f95760008555610440565b82601f1061041257805160ff1916838001178555610440565b82800160010185558215610440579182015b8281111561043f578251825591602001919060010190610424565b5b50905061044d9190610451565b5090565b5b8082111561046a576000816000905550600101610452565b5090565b600080fd5b600080fd5b6000819050919050565b61048b81610478565b811461049657600080fd5b50565b6000813590506104a881610482565b92915050565b6000602082840312156104c4576104c361046e565b5b60006104d284828501610499565b91505092915050565b600073ffffffffffffffffffffffffffffffffffffffff82169050919050565b6000610506826104db565b9050919050565b610516816104fb565b82525050565b6000602082019050610531600083018461050d565b92915050565b600081519050919050565b600082825260208201905092915050565b60005b83811015610571578082015181840152602081019050610556565b83811115610580576000848401525b50505050565b6000601f19601f8301169050919050565b60006105a282610537565b6105ac8185610542565b93506105bc818560208601610553565b6105c581610586565b840191505092915050565b6105d981610478565b82525050565b600060408201905081810360008301526105f98185610597565b905061060860208301846105d0565b9392505050565b610618816104fb565b811461062357600080fd5b50565b6000813590506106358161060f565b92915050565b6000602082840312156106515761065061046e565b5b600061065f84828501610626565b91505092915050565b600060208201905061067d60008301846105d0565b92915050565b600080fd5b600080fd5b600080fd5b60008083601f8401126106a8576106a7610683565b5b8235905067ffffffffffffffff8111156106c5576106c4610688565b5b6020830191508360018202830111156106e1576106e061068d565b5b9250929050565b600080602083850312156106ff576106fe61046e565b5b600083013567ffffffffffffffff81111561071d5761071c610473565b5b61072985828601610692565b92509250509250929050565b7f4e487b7100000000000000000000000000000000000000000000000000000000600052602260045260246000fd5b6000600282049050600182168061077c57607f821691505b602082108114156107905761078f610735565b5b50919050565b600081905092915050565b82818337600083830152505050565b60006107bc8385610796565b93506107c98385846107a1565b82840190509392505050565b60006107e28284866107b0565b91508190509392505050565b7f4e487b7100000000000000000000000000000000000000000000000000000000600052601260045260246000fd5b600061082882610478565b915061083383610478565b925082610843576108426107ee565b5b828206905092915050565b7f4e487b7100000000000000000000000000000000000000000000000000000000600052601160045260246000fd5b600061088882610478565b915061089383610478565b9250828210156108a6576108a561084e565b5b828203905092915050565b60006060820190506108c660008301866105d0565b81810360208301526108d88185610597565b90506108e760408301846105d0565b94935050505056fea2646970667358221220f70dc34921091ad785ad7e767352dc6c8169f454c28d978fa63a27a59d00c00664736f6c634300080c0033",
					"opcodes": "PUSH1 0x80 PUSH1 0x40 MSTORE PUSH1 0xE PUSH1 0x0 SSTORE PUSH1 0x0 SLOAD PUSH1 0xA PUSH3 0x1A SWAP2 SWAP1 PUSH3 0x1BE JUMP JUMPDEST PUSH1 0x1 SSTORE CALLVALUE DUP1 ISZERO PUSH3 0x2A JUMPI PUSH1 0x0 DUP1 REVERT JUMPDEST POP PUSH3 0x20F JUMP JUMPDEST PUSH32 0x4E487B7100000000000000000000000000000000000000000000000000000000 PUSH1 0x0 MSTORE PUSH1 0x11 PUSH1 0x4 MSTORE PUSH1 0x24 PUSH1 0x0 REVERT JUMPDEST PUSH1 0x0 DUP2 PUSH1 0x1 SHR SWAP1 POP SWAP2 SWAP1 POP JUMP JUMPDEST PUSH1 0x0 DUP1 DUP3 SWAP2 POP DUP4 SWAP1 POP JUMPDEST PUSH1 0x1 DUP6 GT ISZERO PUSH3 0xBF JUMPI DUP1 DUP7 DIV DUP2 GT ISZERO PUSH3 0x97 JUMPI PUSH3 0x96 PUSH3 0x31 JUMP JUMPDEST JUMPDEST PUSH1 0x1 DUP6 AND ISZERO PUSH3 0xA7 JUMPI DUP1 DUP3 MUL SWAP2 POP JUMPDEST DUP1 DUP2 MUL SWAP1 POP PUSH3 0xB7 DUP6 PUSH3 0x60 JUMP JUMPDEST SWAP5 POP PUSH3 0x77 JUMP JUMPDEST SWAP5 POP SWAP5 SWAP3 POP POP POP JUMP JUMPDEST PUSH1 0x0 DUP3 PUSH3 0xDA JUMPI PUSH1 0x1 SWAP1 POP PUSH3 0x1AD JUMP JUMPDEST DUP2 PUSH3 0xEA JUMPI PUSH1 0x0 SWAP1 POP PUSH3 0x1AD JUMP JUMPDEST DUP2 PUSH1 0x1 DUP2 EQ PUSH3 0x103 JUMPI PUSH1 0x2 DUP2 EQ PUSH3 0x10E JUMPI PUSH3 0x144 JUMP JUMPDEST PUSH1 0x1 SWAP2 POP POP PUSH3 0x1AD JUMP JUMPDEST PUSH1 0xFF DUP5 GT ISZERO PUSH3 0x123 JUMPI PUSH3 0x122 PUSH3 0x31 JUMP JUMPDEST JUMPDEST DUP4 PUSH1 0x2 EXP SWAP2 POP DUP5 DUP3 GT ISZERO PUSH3 0x13D JUMPI PUSH3 0x13C PUSH3 0x31 JUMP JUMPDEST JUMPDEST POP PUSH3 0x1AD JUMP JUMPDEST POP PUSH1 0x20 DUP4 LT PUSH2 0x133 DUP4 LT AND PUSH1 0x4E DUP5 LT PUSH1 0xB DUP5 LT AND OR ISZERO PUSH3 0x17E JUMPI DUP3 DUP3 EXP SWAP1 POP DUP4 DUP2 GT ISZERO PUSH3 0x178 JUMPI PUSH3 0x177 PUSH3 0x31 JUMP JUMPDEST JUMPDEST PUSH3 0x1AD JUMP JUMPDEST PUSH3 0x18D DUP5 DUP5 DUP5 PUSH1 0x1 PUSH3 0x6D JUMP JUMPDEST SWAP3 POP SWAP1 POP DUP2 DUP5 DIV DUP2 GT ISZERO PUSH3 0x1A7 JUMPI PUSH3 0x1A6 PUSH3 0x31 JUMP JUMPDEST JUMPDEST DUP2 DUP2 MUL SWAP1 POP JUMPDEST SWAP4 SWAP3 POP POP POP JUMP JUMPDEST PUSH1 0x0 DUP2 SWAP1 POP SWAP2 SWAP1 POP JUMP JUMPDEST PUSH1 0x0 PUSH3 0x1CB DUP3 PUSH3 0x1B4 JUMP JUMPDEST SWAP2 POP PUSH3 0x1D8 DUP4 PUSH3 0x1B4 JUMP JUMPDEST SWAP3 POP PUSH3 0x207 PUSH32 0xFFFFFFFFFFFFFFFFFFFFFFFFFFFFFFFFFFFFFFFFFFFFFFFFFFFFFFFFFFFFFFFF DUP5 DUP5 PUSH3 0xC8 JUMP JUMPDEST SWAP1 POP SWAP3 SWAP2 POP POP JUMP JUMPDEST PUSH2 0x925 DUP1 PUSH3 0x21F PUSH1 0x0 CODECOPY PUSH1 0x0 RETURN INVALID PUSH1 0x80 PUSH1 0x40 MSTORE CALLVALUE DUP1 ISZERO PUSH2 0x10 JUMPI PUSH1 0x0 DUP1 REVERT JUMPDEST POP PUSH1 0x4 CALLDATASIZE LT PUSH2 0x4C JUMPI PUSH1 0x0 CALLDATALOAD PUSH1 0xE0 SHR DUP1 PUSH4 0xE17F883 EQ PUSH2 0x51 JUMPI DUP1 PUSH4 0x6BDFCEF9 EQ PUSH2 0x81 JUMPI DUP1 PUSH4 0x703B3D38 EQ PUSH2 0xB2 JUMPI DUP1 PUSH4 0x8D3132C9 EQ PUSH2 0xE2 JUMPI JUMPDEST PUSH1 0x0 DUP1 REVERT JUMPDEST PUSH2 0x6B PUSH1 0x4 DUP1 CALLDATASIZE SUB DUP2 ADD SWAP1 PUSH2 0x66 SWAP2 SWAP1 PUSH2 0x4AE JUMP JUMPDEST PUSH2 0xFE JUMP JUMPDEST PUSH1 0x40 MLOAD PUSH2 0x78 SWAP2 SWAP1 PUSH2 0x51C JUMP JUMPDEST PUSH1 0x40 MLOAD DUP1 SWAP2 SUB SWAP1 RETURN JUMPDEST PUSH2 0x9B PUSH1 0x4 DUP1 CALLDATASIZE SUB DUP2 ADD SWAP1 PUSH2 0x96 SWAP2 SWAP1 PUSH2 0x4AE JUMP JUMPDEST PUSH2 0x131 JUMP JUMPDEST PUSH1 0x40 MLOAD PUSH2 0xA9 SWAP3 SWAP2 SWAP1 PUSH2 0x5DF JUMP JUMPDEST PUSH1 0x40 MLOAD DUP1 SWAP2 SUB SWAP1 RETURN JUMPDEST PUSH2 0xCC PUSH1 0x4 DUP1 CALLDATASIZE SUB DUP2 ADD SWAP1 PUSH2 0xC7 SWAP2 SWAP1 PUSH2 0x63B JUMP JUMPDEST PUSH2 0x1ED JUMP JUMPDEST PUSH1 0x40 MLOAD PUSH2 0xD9 SWAP2 SWAP1 PUSH2 0x668 JUMP JUMPDEST PUSH1 0x40 MLOAD DUP1 SWAP2 SUB SWAP1 RETURN JUMPDEST PUSH2 0xFC PUSH1 0x4 DUP1 CALLDATASIZE SUB DUP2 ADD SWAP1 PUSH2 0xF7 SWAP2 SWAP1 PUSH2 0x6E8 JUMP JUMPDEST PUSH2 0x205 JUMP JUMPDEST STOP JUMPDEST PUSH1 0x3 PUSH1 0x20 MSTORE DUP1 PUSH1 0x0 MSTORE PUSH1 0x40 PUSH1 0x0 KECCAK256 PUSH1 0x0 SWAP2 POP SLOAD SWAP1 PUSH2 0x100 EXP SWAP1 DIV PUSH20 0xFFFFFFFFFFFFFFFFFFFFFFFFFFFFFFFFFFFFFFFF AND DUP2 JUMP JUMPDEST PUSH1 0x2 DUP2 DUP2 SLOAD DUP2 LT PUSH2 0x141 JUMPI PUSH1 0x0 DUP1 REVERT JUMPDEST SWAP1 PUSH1 0x0 MSTORE PUSH1 0x20 PUSH1 0x0 KECCAK256 SWAP1 PUSH1 0x2 MUL ADD PUSH1 0x0 SWAP2 POP SWAP1 POP DUP1 PUSH1 0x0 ADD DUP1 SLOAD PUSH2 0x164 SWAP1 PUSH2 0x764 JUMP JUMPDEST DUP1 PUSH1 0x1F ADD PUSH1 0x20 DUP1 SWAP2 DIV MUL PUSH1 0x20 ADD PUSH1 0x40 MLOAD SWAP1 DUP2 ADD PUSH1 0x40 MSTORE DUP1 SWAP3 SWAP2 SWAP1 DUP2 DUP2 MSTORE PUSH1 0x20 ADD DUP3 DUP1 SLOAD PUSH2 0x190 SWAP1 PUSH2 0x764 JUMP JUMPDEST DUP1 ISZERO PUSH2 0x1DD JUMPI DUP1 PUSH1 0x1F LT PUSH2 0x1B2 JUMPI PUSH2 0x100 DUP1 DUP4 SLOAD DIV MUL DUP4 MSTORE SWAP2 PUSH1 0x20 ADD SWAP2 PUSH2 0x1DD JUMP JUMPDEST DUP3 ADD SWAP2 SWAP1 PUSH1 0x0 MSTORE PUSH1 0x20 PUSH1 0x0 KECCAK256 SWAP1 JUMPDEST DUP2 SLOAD DUP2 MSTORE SWAP1 PUSH1 0x1 ADD SWAP1 PUSH1 0x20 ADD DUP1 DUP4 GT PUSH2 0x1C0 JUMPI DUP3 SWAP1 SUB PUSH1 0x1F AND DUP3 ADD SWAP2 JUMPDEST POP POP POP POP POP SWAP1 DUP1 PUSH1 0x1 ADD SLOAD SWAP1 POP DUP3 JUMP JUMPDEST PUSH1 0x4 PUSH1 0x20 MSTORE DUP1 PUSH1 0x0 MSTORE PUSH1 0x40 PUSH1 0x0 KECCAK256 PUSH1 0x0 SWAP2 POP SWAP1 POP SLOAD DUP2 JUMP JUMPDEST PUSH1 0x0 PUSH2 0x211 DUP4 DUP4 PUSH2 0x266 JUMP JUMPDEST SWAP1 POP PUSH2 0x261 DUP4 DUP4 DUP1 DUP1 PUSH1 0x1F ADD PUSH1 0x20 DUP1 SWAP2 DIV MUL PUSH1 0x20 ADD PUSH1 0x40 MLOAD SWAP1 DUP2 ADD PUSH1 0x40 MSTORE DUP1 SWAP4 SWAP3 SWAP2 SWAP1 DUP2 DUP2 MSTORE PUSH1 0x20 ADD DUP4 DUP4 DUP1 DUP3 DUP5 CALLDATACOPY PUSH1 0x0 DUP2 DUP5 ADD MSTORE PUSH1 0x1F NOT PUSH1 0x1F DUP3 ADD AND SWAP1 POP DUP1 DUP4 ADD SWAP3 POP POP POP POP POP POP POP DUP3 PUSH2 0x2BA JUMP JUMPDEST POP POP POP JUMP JUMPDEST PUSH1 0x0 DUP1 DUP4 DUP4 PUSH1 0x40 MLOAD PUSH2 0x279 SWAP3 SWAP2 SWAP1 PUSH2 0x7D5 JUMP JUMPDEST PUSH1 0x40 MLOAD DUP1 SWAP2 SUB SWAP1 KECCAK256 PUSH1 0x0 SHR SWAP1 POP PUSH1 0x0 PUSH1 0x1 SLOAD DUP3 PUSH2 0x296 SWAP2 SWAP1 PUSH2 0x81D JUMP JUMPDEST SWAP1 POP PUSH1 0x64 DUP2 PUSH2 0x2A5 SWAP2 SWAP1 PUSH2 0x81D JUMP JUMPDEST DUP2 PUSH2 0x2B0 SWAP2 SWAP1 PUSH2 0x87D JUMP JUMPDEST SWAP3 POP POP POP SWAP3 SWAP2 POP POP JUMP JUMPDEST PUSH1 0x2 PUSH1 0x40 MLOAD DUP1 PUSH1 0x40 ADD PUSH1 0x40 MSTORE DUP1 DUP5 DUP2 MSTORE PUSH1 0x20 ADD DUP4 DUP2 MSTORE POP SWAP1 DUP1 PUSH1 0x1 DUP2 SLOAD ADD DUP1 DUP3 SSTORE DUP1 SWAP2 POP POP PUSH1 0x1 SWAP1 SUB SWAP1 PUSH1 0x0 MSTORE PUSH1 0x20 PUSH1 0x0 KECCAK256 SWAP1 PUSH1 0x2 MUL ADD PUSH1 0x0 SWAP1 SWAP2 SWAP1 SWAP2 SWAP1 SWAP2 POP PUSH1 0x0 DUP3 ADD MLOAD DUP2 PUSH1 0x0 ADD SWAP1 DUP1 MLOAD SWAP1 PUSH1 0x20 ADD SWAP1 PUSH2 0x316 SWAP3 SWAP2 SWAP1 PUSH2 0x3CB JUMP JUMPDEST POP PUSH1 0x20 DUP3 ADD MLOAD DUP2 PUSH1 0x1 ADD SSTORE POP POP PUSH1 0x0 PUSH1 0x1 PUSH1 0x2 DUP1 SLOAD SWAP1 POP PUSH2 0x337 SWAP2 SWAP1 PUSH2 0x87D JUMP JUMPDEST SWAP1 POP CALLER PUSH1 0x3 PUSH1 0x0 DUP4 DUP2 MSTORE PUSH1 0x20 ADD SWAP1 DUP2 MSTORE PUSH1 0x20 ADD PUSH1 0x0 KECCAK256 PUSH1 0x0 PUSH2 0x100 EXP DUP2 SLOAD DUP2 PUSH20 0xFFFFFFFFFFFFFFFFFFFFFFFFFFFFFFFFFFFFFFFF MUL NOT AND SWAP1 DUP4 PUSH20 0xFFFFFFFFFFFFFFFFFFFFFFFFFFFFFFFFFFFFFFFF AND MUL OR SWAP1 SSTORE POP PUSH32 0x2E946779390B27C50A2225BEE0B9AF13E0848034733330963E93CEDB42487FD7 DUP2 DUP5 DUP5 PUSH1 0x40 MLOAD PUSH2 0x3BE SWAP4 SWAP3 SWAP2 SWAP1 PUSH2 0x8B1 JUMP JUMPDEST PUSH1 0x40 MLOAD DUP1 SWAP2 SUB SWAP1 LOG1 POP POP POP JUMP JUMPDEST DUP3 DUP1 SLOAD PUSH2 0x3D7 SWAP1 PUSH2 0x764 JUMP JUMPDEST SWAP1 PUSH1 0x0 MSTORE PUSH1 0x20 PUSH1 0x0 KECCAK256 SWAP1 PUSH1 0x1F ADD PUSH1 0x20 SWAP1 DIV DUP2 ADD SWAP3 DUP3 PUSH2 0x3F9 JUMPI PUSH1 0x0 DUP6 SSTORE PUSH2 0x440 JUMP JUMPDEST DUP3 PUSH1 0x1F LT PUSH2 0x412 JUMPI DUP1 MLOAD PUSH1 0xFF NOT AND DUP4 DUP1 ADD OR DUP6 SSTORE PUSH2 0x440 JUMP JUMPDEST DUP3 DUP1 ADD PUSH1 0x1 ADD DUP6 SSTORE DUP3 ISZERO PUSH2 0x440 JUMPI SWAP2 DUP3 ADD JUMPDEST DUP3 DUP2 GT ISZERO PUSH2 0x43F JUMPI DUP3 MLOAD DUP3 SSTORE SWAP2 PUSH1 0x20 ADD SWAP2 SWAP1 PUSH1 0x1 ADD SWAP1 PUSH2 0x424 JUMP JUMPDEST JUMPDEST POP SWAP1 POP PUSH2 0x44D SWAP2 SWAP1 PUSH2 0x451 JUMP JUMPDEST POP SWAP1 JUMP JUMPDEST JUMPDEST DUP1 DUP3 GT ISZERO PUSH2 0x46A JUMPI PUSH1 0x0 DUP2 PUSH1 0x0 SWAP1 SSTORE POP PUSH1 0x1 ADD PUSH2 0x452 JUMP JUMPDEST POP SWAP1 JUMP JUMPDEST PUSH1 0x0 DUP1 REVERT JUMPDEST PUSH1 0x0 DUP1 REVERT JUMPDEST PUSH1 0x0 DUP2 SWAP1 POP SWAP2 SWAP1 POP JUMP JUMPDEST PUSH2 0x48B DUP2 PUSH2 0x478 JUMP JUMPDEST DUP2 EQ PUSH2 0x496 JUMPI PUSH1 0x0 DUP1 REVERT JUMPDEST POP JUMP JUMPDEST PUSH1 0x0 DUP2 CALLDATALOAD SWAP1 POP PUSH2 0x4A8 DUP2 PUSH2 0x482 JUMP JUMPDEST SWAP3 SWAP2 POP POP JUMP JUMPDEST PUSH1 0x0 PUSH1 0x20 DUP3 DUP5 SUB SLT ISZERO PUSH2 0x4C4 JUMPI PUSH2 0x4C3 PUSH2 0x46E JUMP JUMPDEST JUMPDEST PUSH1 0x0 PUSH2 0x4D2 DUP5 DUP3 DUP6 ADD PUSH2 0x499 JUMP JUMPDEST SWAP2 POP POP SWAP3 SWAP2 POP POP JUMP JUMPDEST PUSH1 0x0 PUSH20 0xFFFFFFFFFFFFFFFFFFFFFFFFFFFFFFFFFFFFFFFF DUP3 AND SWAP1 POP SWAP2 SWAP1 POP JUMP JUMPDEST PUSH1 0x0 PUSH2 0x506 DUP3 PUSH2 0x4DB JUMP JUMPDEST SWAP1 POP SWAP2 SWAP1 POP JUMP JUMPDEST PUSH2 0x516 DUP2 PUSH2 0x4FB JUMP JUMPDEST DUP3 MSTORE POP POP JUMP JUMPDEST PUSH1 0x0 PUSH1 0x20 DUP3 ADD SWAP1 POP PUSH2 0x531 PUSH1 0x0 DUP4 ADD DUP5 PUSH2 0x50D JUMP JUMPDEST SWAP3 SWAP2 POP POP JUMP JUMPDEST PUSH1 0x0 DUP2 MLOAD SWAP1 POP SWAP2 SWAP1 POP JUMP JUMPDEST PUSH1 0x0 DUP3 DUP3 MSTORE PUSH1 0x20 DUP3 ADD SWAP1 POP SWAP3 SWAP2 POP POP JUMP JUMPDEST PUSH1 0x0 JUMPDEST DUP4 DUP2 LT ISZERO PUSH2 0x571 JUMPI DUP1 DUP3 ADD MLOAD DUP2 DUP5 ADD MSTORE PUSH1 0x20 DUP2 ADD SWAP1 POP PUSH2 0x556 JUMP JUMPDEST DUP4 DUP2 GT ISZERO PUSH2 0x580 JUMPI PUSH1 0x0 DUP5 DUP5 ADD MSTORE JUMPDEST POP POP POP POP JUMP JUMPDEST PUSH1 0x0 PUSH1 0x1F NOT PUSH1 0x1F DUP4 ADD AND SWAP1 POP SWAP2 SWAP1 POP JUMP JUMPDEST PUSH1 0x0 PUSH2 0x5A2 DUP3 PUSH2 0x537 JUMP JUMPDEST PUSH2 0x5AC DUP2 DUP6 PUSH2 0x542 JUMP JUMPDEST SWAP4 POP PUSH2 0x5BC DUP2 DUP6 PUSH1 0x20 DUP7 ADD PUSH2 0x553 JUMP JUMPDEST PUSH2 0x5C5 DUP2 PUSH2 0x586 JUMP JUMPDEST DUP5 ADD SWAP2 POP POP SWAP3 SWAP2 POP POP JUMP JUMPDEST PUSH2 0x5D9 DUP2 PUSH2 0x478 JUMP JUMPDEST DUP3 MSTORE POP POP JUMP JUMPDEST PUSH1 0x0 PUSH1 0x40 DUP3 ADD SWAP1 POP DUP2 DUP2 SUB PUSH1 0x0 DUP4 ADD MSTORE PUSH2 0x5F9 DUP2 DUP6 PUSH2 0x597 JUMP JUMPDEST SWAP1 POP PUSH2 0x608 PUSH1 0x20 DUP4 ADD DUP5 PUSH2 0x5D0 JUMP JUMPDEST SWAP4 SWAP3 POP POP POP JUMP JUMPDEST PUSH2 0x618 DUP2 PUSH2 0x4FB JUMP JUMPDEST DUP2 EQ PUSH2 0x623 JUMPI PUSH1 0x0 DUP1 REVERT JUMPDEST POP JUMP JUMPDEST PUSH1 0x0 DUP2 CALLDATALOAD SWAP1 POP PUSH2 0x635 DUP2 PUSH2 0x60F JUMP JUMPDEST SWAP3 SWAP2 POP POP JUMP JUMPDEST PUSH1 0x0 PUSH1 0x20 DUP3 DUP5 SUB SLT ISZERO PUSH2 0x651 JUMPI PUSH2 0x650 PUSH2 0x46E JUMP JUMPDEST JUMPDEST PUSH1 0x0 PUSH2 0x65F DUP5 DUP3 DUP6 ADD PUSH2 0x626 JUMP JUMPDEST SWAP2 POP POP SWAP3 SWAP2 POP POP JUMP JUMPDEST PUSH1 0x0 PUSH1 0x20 DUP3 ADD SWAP1 POP PUSH2 0x67D PUSH1 0x0 DUP4 ADD DUP5 PUSH2 0x5D0 JUMP JUMPDEST SWAP3 SWAP2 POP POP JUMP JUMPDEST PUSH1 0x0 DUP1 REVERT JUMPDEST PUSH1 0x0 DUP1 REVERT JUMPDEST PUSH1 0x0 DUP1 REVERT JUMPDEST PUSH1 0x0 DUP1 DUP4 PUSH1 0x1F DUP5 ADD SLT PUSH2 0x6A8 JUMPI PUSH2 0x6A7 PUSH2 0x683 JUMP JUMPDEST JUMPDEST DUP3 CALLDATALOAD SWAP1 POP PUSH8 0xFFFFFFFFFFFFFFFF DUP2 GT ISZERO PUSH2 0x6C5 JUMPI PUSH2 0x6C4 PUSH2 0x688 JUMP JUMPDEST JUMPDEST PUSH1 0x20 DUP4 ADD SWAP2 POP DUP4 PUSH1 0x1 DUP3 MUL DUP4 ADD GT ISZERO PUSH2 0x6E1 JUMPI PUSH2 0x6E0 PUSH2 0x68D JUMP JUMPDEST JUMPDEST SWAP3 POP SWAP3 SWAP1 POP JUMP JUMPDEST PUSH1 0x0 DUP1 PUSH1 0x20 DUP4 DUP6 SUB SLT ISZERO PUSH2 0x6FF JUMPI PUSH2 0x6FE PUSH2 0x46E JUMP JUMPDEST JUMPDEST PUSH1 0x0 DUP4 ADD CALLDATALOAD PUSH8 0xFFFFFFFFFFFFFFFF DUP2 GT ISZERO PUSH2 0x71D JUMPI PUSH2 0x71C PUSH2 0x473 JUMP JUMPDEST JUMPDEST PUSH2 0x729 DUP6 DUP3 DUP7 ADD PUSH2 0x692 JUMP JUMPDEST SWAP3 POP SWAP3 POP POP SWAP3 POP SWAP3 SWAP1 POP JUMP JUMPDEST PUSH32 0x4E487B7100000000000000000000000000000000000000000000000000000000 PUSH1 0x0 MSTORE PUSH1 0x22 PUSH1 0x4 MSTORE PUSH1 0x24 PUSH1 0x0 REVERT JUMPDEST PUSH1 0x0 PUSH1 0x2 DUP3 DIV SWAP1 POP PUSH1 0x1 DUP3 AND DUP1 PUSH2 0x77C JUMPI PUSH1 0x7F DUP3 AND SWAP2 POP JUMPDEST PUSH1 0x20 DUP3 LT DUP2 EQ ISZERO PUSH2 0x790 JUMPI PUSH2 0x78F PUSH2 0x735 JUMP JUMPDEST JUMPDEST POP SWAP2 SWAP1 POP JUMP JUMPDEST PUSH1 0x0 DUP2 SWAP1 POP SWAP3 SWAP2 POP POP JUMP JUMPDEST DUP3 DUP2 DUP4 CALLDATACOPY PUSH1 0x0 DUP4 DUP4 ADD MSTORE POP POP POP JUMP JUMPDEST PUSH1 0x0 PUSH2 0x7BC DUP4 DUP6 PUSH2 0x796 JUMP JUMPDEST SWAP4 POP PUSH2 0x7C9 DUP4 DUP6 DUP5 PUSH2 0x7A1 JUMP JUMPDEST DUP3 DUP5 ADD SWAP1 POP SWAP4 SWAP3 POP POP POP JUMP JUMPDEST PUSH1 0x0 PUSH2 0x7E2 DUP3 DUP5 DUP7 PUSH2 0x7B0 JUMP JUMPDEST SWAP2 POP DUP2 SWAP1 POP SWAP4 SWAP3 POP POP POP JUMP JUMPDEST PUSH32 0x4E487B7100000000000000000000000000000000000000000000000000000000 PUSH1 0x0 MSTORE PUSH1 0x12 PUSH1 0x4 MSTORE PUSH1 0x24 PUSH1 0x0 REVERT JUMPDEST PUSH1 0x0 PUSH2 0x828 DUP3 PUSH2 0x478 JUMP JUMPDEST SWAP2 POP PUSH2 0x833 DUP4 PUSH2 0x478 JUMP JUMPDEST SWAP3 POP DUP3 PUSH2 0x843 JUMPI PUSH2 0x842 PUSH2 0x7EE JUMP JUMPDEST JUMPDEST DUP3 DUP3 MOD SWAP1 POP SWAP3 SWAP2 POP POP JUMP JUMPDEST PUSH32 0x4E487B7100000000000000000000000000000000000000000000000000000000 PUSH1 0x0 MSTORE PUSH1 0x11 PUSH1 0x4 MSTORE PUSH1 0x24 PUSH1 0x0 REVERT JUMPDEST PUSH1 0x0 PUSH2 0x888 DUP3 PUSH2 0x478 JUMP JUMPDEST SWAP2 POP PUSH2 0x893 DUP4 PUSH2 0x478 JUMP JUMPDEST SWAP3 POP DUP3 DUP3 LT ISZERO PUSH2 0x8A6 JUMPI PUSH2 0x8A5 PUSH2 0x84E JUMP JUMPDEST JUMPDEST DUP3 DUP3 SUB SWAP1 POP SWAP3 SWAP2 POP POP JUMP JUMPDEST PUSH1 0x0 PUSH1 0x60 DUP3 ADD SWAP1 POP PUSH2 0x8C6 PUSH1 0x0 DUP4 ADD DUP7 PUSH2 0x5D0 JUMP JUMPDEST DUP2 DUP2 SUB PUSH1 0x20 DUP4 ADD MSTORE PUSH2 0x8D8 DUP2 DUP6 PUSH2 0x597 JUMP JUMPDEST SWAP1 POP PUSH2 0x8E7 PUSH1 0x40 DUP4 ADD DUP5 PUSH2 0x5D0 JUMP JUMPDEST SWAP5 SWAP4 POP POP POP POP JUMP INVALID LOG2 PUSH5 0x6970667358 0x22 SLT KECCAK256 0xF7 0xD 0xC3 0x49 0x21 MULMOD BYTE 0xD7 DUP6 0xAD PUSH31 0x767352DC6C8169F454C28D978FA63A27A59D00C00664736F6C634300080C00 CALLER "
				},
				"gasEstimates": {
					"creation": {
						"codeDepositCost": "468200",
						"executionCost": "infinite",
						"totalCost": "infinite"
					},
					"external": {
						"_createFungus(string)": "infinite",
						"fungi(uint256)": "infinite",
						"fungusToOwner(uint256)": "2817",
						"ownerFungusCount(address)": "2836"
					},
					"internal": {
						"_createFungus(string memory,uint256)": "infinite",
						"_generateRandomData(string calldata)": "infinite"
					}
				},
				"methodIdentifiers": {
					"_createFungus(string)": "8d3132c9",
					"fungi(uint256)": "6bdfcef9",
					"fungusToOwner(uint256)": "0e17f883",
					"ownerFungusCount(address)": "703b3d38"
				}
			},
			"storageLayout": {
				"storage": [
					{
						"astId": 4,
						"contract": "contracts/FungusFactory.sol:FungusFactory",
						"label": "dnaDigits",
						"offset": 0,
						"slot": "0",
						"type": "t_uint256"
					},
					{
						"astId": 9,
						"contract": "contracts/FungusFactory.sol:FungusFactory",
						"label": "dnaModulus",
						"offset": 0,
						"slot": "1",
						"type": "t_uint256"
					},
					{
						"astId": 18,
						"contract": "contracts/FungusFactory.sol:FungusFactory",
						"label": "fungi",
						"offset": 0,
						"slot": "2",
						"type": "t_array(t_struct(Fungus)14_storage)dyn_storage"
					},
					{
						"astId": 22,
						"contract": "contracts/FungusFactory.sol:FungusFactory",
						"label": "fungusToOwner",
						"offset": 0,
						"slot": "3",
						"type": "t_mapping(t_uint256,t_address)"
					},
					{
						"astId": 26,
						"contract": "contracts/FungusFactory.sol:FungusFactory",
						"label": "ownerFungusCount",
						"offset": 0,
						"slot": "4",
						"type": "t_mapping(t_address,t_uint256)"
					}
				],
				"types": {
					"t_address": {
						"encoding": "inplace",
						"label": "address",
						"numberOfBytes": "20"
					},
					"t_array(t_struct(Fungus)14_storage)dyn_storage": {
						"base": "t_struct(Fungus)14_storage",
						"encoding": "dynamic_array",
						"label": "struct FungusFactory.Fungus[]",
						"numberOfBytes": "32"
					},
					"t_mapping(t_address,t_uint256)": {
						"encoding": "mapping",
						"key": "t_address",
						"label": "mapping(address => uint256)",
						"numberOfBytes": "32",
						"value": "t_uint256"
					},
					"t_mapping(t_uint256,t_address)": {
						"encoding": "mapping",
						"key": "t_uint256",
						"label": "mapping(uint256 => address)",
						"numberOfBytes": "32",
						"value": "t_address"
					},
					"t_string_storage": {
						"encoding": "bytes",
						"label": "string",
						"numberOfBytes": "32"
					},
					"t_struct(Fungus)14_storage": {
						"encoding": "inplace",
						"label": "struct FungusFactory.Fungus",
						"members": [
							{
								"astId": 11,
								"contract": "contracts/FungusFactory.sol:FungusFactory",
								"label": "name",
								"offset": 0,
								"slot": "0",
								"type": "t_string_storage"
							},
							{
								"astId": 13,
								"contract": "contracts/FungusFactory.sol:FungusFactory",
								"label": "dna",
								"offset": 0,
								"slot": "1",
								"type": "t_uint256"
							}
						],
						"numberOfBytes": "64"
					},
					"t_uint256": {
						"encoding": "inplace",
						"label": "uint256",
						"numberOfBytes": "32"
					}
				}
			},
			"userdoc": {
				"kind": "user",
				"methods": {},
				"version": 1
			}
		}
	}
}