{
	"contracts/FungusFeeding.sol": {
		"FungusFeeding": {
			"abi": [
				{
					"anonymous": false,
					"inputs": [
						{
							"indexed": false,
							"internalType": "uint256",
							"name": "fungusId",
							"type": "uint256"
						},
						{
							"indexed": false,
							"internalType": "string",
							"name": "name",
							"type": "string"
						},
						{
							"indexed": false,
							"internalType": "uint256",
							"name": "dna",
							"type": "uint256"
						}
					],
					"name": "NewFungus",
					"type": "event"
				},
				{
					"anonymous": false,
					"inputs": [
						{
							"indexed": true,
							"internalType": "address",
							"name": "previousOwner",
							"type": "address"
						},
						{
							"indexed": true,
							"internalType": "address",
							"name": "newOwner",
							"type": "address"
						}
					],
					"name": "OwnershipTransferred",
					"type": "event"
				},
				{
					"inputs": [
						{
							"internalType": "string",
							"name": "name",
							"type": "string"
						}
					],
					"name": "createRandomFungus",
					"outputs": [],
					"stateMutability": "nonpayable",
					"type": "function"
				},
				{
					"inputs": [
						{
							"internalType": "uint256",
							"name": "fungusId",
							"type": "uint256"
						},
						{
							"internalType": "uint256",
							"name": "feedId",
							"type": "uint256"
						}
					],
					"name": "feed",
					"outputs": [],
					"stateMutability": "payable",
					"type": "function"
				},
				{
					"inputs": [
						{
							"internalType": "uint256",
							"name": "",
							"type": "uint256"
						}
					],
					"name": "fungi",
					"outputs": [
						{
							"internalType": "string",
							"name": "name",
							"type": "string"
						},
						{
							"internalType": "uint256",
							"name": "dna",
							"type": "uint256"
						},
						{
							"internalType": "uint32",
							"name": "readyTime",
							"type": "uint32"
						}
					],
					"stateMutability": "view",
					"type": "function"
				},
				{
					"inputs": [
						{
							"internalType": "uint256",
							"name": "",
							"type": "uint256"
						}
					],
					"name": "fungusToOwner",
					"outputs": [
						{
							"internalType": "address",
							"name": "",
							"type": "address"
						}
					],
					"stateMutability": "view",
					"type": "function"
				},
				{
					"inputs": [
						{
							"internalType": "address",
							"name": "owner",
							"type": "address"
						}
					],
					"name": "getFungiByOwner",
					"outputs": [
						{
							"internalType": "uint256[]",
							"name": "",
							"type": "uint256[]"
						}
					],
					"stateMutability": "view",
					"type": "function"
				},
				{
					"inputs": [],
					"name": "owner",
					"outputs": [
						{
							"internalType": "address",
							"name": "",
							"type": "address"
						}
					],
					"stateMutability": "view",
					"type": "function"
				},
				{
					"inputs": [
						{
							"internalType": "address",
							"name": "",
							"type": "address"
						}
					],
					"name": "ownerFungusCount",
					"outputs": [
						{
							"internalType": "uint256",
							"name": "",
							"type": "uint256"
						}
					],
					"stateMutability": "view",
					"type": "function"
				},
				{
					"inputs": [],
					"name": "renounceOwnership",
					"outputs": [],
					"stateMutability": "nonpayable",
					"type": "function"
				},
				{
					"inputs": [
						{
							"internalType": "address",
							"name": "address_",
							"type": "address"
						}
					],
					"name": "setFeedFactoryContractAddress",
					"outputs": [],
					"stateMutability": "nonpayable",
					"type": "function"
				},
				{
					"inputs": [
						{
							"internalType": "address",
							"name": "newOwner",
							"type": "address"
						}
					],
					"name": "transferOwnership",
					"outputs": [],
					"stateMutability": "nonpayable",
					"type": "function"
				}
			],
			"devdoc": {
				"kind": "dev",
				"methods": {
					"owner()": {
						"details": "Returns the address of the current owner."
					},
					"renounceOwnership()": {
						"details": "Leaves the contract without owner. It will not be possible to call `onlyOwner` functions anymore. Can only be called by the current owner. NOTE: Renouncing ownership will leave the contract without an owner, thereby removing any functionality that is only available to the owner."
					},
					"transferOwnership(address)": {
						"details": "Transfers ownership of the contract to a new account (`newOwner`). Can only be called by the current owner."
					}
				},
				"version": 1
			},
			"evm": {
				"assembly": "    /* \"contracts/FungusFeeding.sol\":659:2697  contract FungusFeeding is FungusFactory {... */\n  mstore(0x40, 0x80)\n    /* \"contracts/FungusFactory.sol\":295:297  14 */\n  0x0e\n    /* \"contracts/FungusFactory.sol\":278:297  uint dnaDigits = 14 */\n  0x01\n  sstore\n    /* \"contracts/FungusFactory.sol\":328:337  dnaDigits */\n  sload(0x01)\n    /* \"contracts/FungusFactory.sol\":322:324  10 */\n  0x0a\n    /* \"contracts/FungusFactory.sol\":322:337  10 ** dnaDigits */\n  tag_1\n  swap2\n  swap1\n  tag_2\n  jump\t// in\ntag_1:\n    /* \"contracts/FungusFactory.sol\":304:337  uint dnaModulus = 10 ** dnaDigits */\n  0x02\n  sstore\n    /* \"contracts/FungusFactory.sol\":364:373  1 minutes */\n  0x3c\n    /* \"contracts/FungusFactory.sol\":344:373  uint cooldownTime = 1 minutes */\n  0x03\n  sstore\n    /* \"contracts/FungusFeeding.sol\":659:2697  contract FungusFeeding is FungusFactory {... */\n  callvalue\n  dup1\n  iszero\n  tag_3\n  jumpi\n  0x00\n  dup1\n  revert\ntag_3:\n  pop\n    /* \"@openzeppelin/contracts/access/Ownable.sol\":936:968  _transferOwnership(_msgSender()) */\n  tag_6\n    /* \"@openzeppelin/contracts/access/Ownable.sol\":955:967  _msgSender() */\n  tag_7\n    /* \"@openzeppelin/contracts/access/Ownable.sol\":955:965  _msgSender */\n  shl(0x20, tag_8)\n    /* \"@openzeppelin/contracts/access/Ownable.sol\":955:967  _msgSender() */\n  0x20\n  shr\n  jump\t// in\ntag_7:\n    /* \"@openzeppelin/contracts/access/Ownable.sol\":936:954  _transferOwnership */\n  shl(0x20, tag_9)\n    /* \"@openzeppelin/contracts/access/Ownable.sol\":936:968  _transferOwnership(_msgSender()) */\n  0x20\n  shr\n  jump\t// in\ntag_6:\n    /* \"contracts/FungusFeeding.sol\":659:2697  contract FungusFeeding is FungusFactory {... */\n  jump(tag_10)\n    /* \"@openzeppelin/contracts/utils/Context.sol\":640:736  function _msgSender() internal view virtual returns (address) {... */\ntag_8:\n    /* \"@openzeppelin/contracts/utils/Context.sol\":693:700  address */\n  0x00\n    /* \"@openzeppelin/contracts/utils/Context.sol\":719:729  msg.sender */\n  caller\n    /* \"@openzeppelin/contracts/utils/Context.sol\":712:729  return msg.sender */\n  swap1\n  pop\n    /* \"@openzeppelin/contracts/utils/Context.sol\":640:736  function _msgSender() internal view virtual returns (address) {... */\n  swap1\n  jump\t// out\n    /* \"@openzeppelin/contracts/access/Ownable.sol\":2433:2620  function _transferOwnership(address newOwner) internal virtual {... */\ntag_9:\n    /* \"@openzeppelin/contracts/access/Ownable.sol\":2506:2522  address oldOwner */\n  0x00\n    /* \"@openzeppelin/contracts/access/Ownable.sol\":2525:2531  _owner */\n  dup1\n  0x00\n  swap1\n  sload\n  swap1\n  0x0100\n  exp\n  swap1\n  div\n  0xffffffffffffffffffffffffffffffffffffffff\n  and\n    /* \"@openzeppelin/contracts/access/Ownable.sol\":2506:2531  address oldOwner = _owner */\n  swap1\n  pop\n    /* \"@openzeppelin/contracts/access/Ownable.sol\":2550:2558  newOwner */\n  dup2\n    /* \"@openzeppelin/contracts/access/Ownable.sol\":2541:2547  _owner */\n  0x00\n  dup1\n    /* \"@openzeppelin/contracts/access/Ownable.sol\":2541:2558  _owner = newOwner */\n  0x0100\n  exp\n  dup2\n  sload\n  dup2\n  0xffffffffffffffffffffffffffffffffffffffff\n  mul\n  not\n  and\n  swap1\n  dup4\n  0xffffffffffffffffffffffffffffffffffffffff\n  and\n  mul\n  or\n  swap1\n  sstore\n  pop\n    /* \"@openzeppelin/contracts/access/Ownable.sol\":2604:2612  newOwner */\n  dup2\n    /* \"@openzeppelin/contracts/access/Ownable.sol\":2573:2613  OwnershipTransferred(oldOwner, newOwner) */\n  0xffffffffffffffffffffffffffffffffffffffff\n  and\n    /* \"@openzeppelin/contracts/access/Ownable.sol\":2594:2602  oldOwner */\n  dup2\n    /* \"@openzeppelin/contracts/access/Ownable.sol\":2573:2613  OwnershipTransferred(oldOwner, newOwner) */\n  0xffffffffffffffffffffffffffffffffffffffff\n  and\n  0x8be0079c531659141344cd1fd0a4f28419497f9722a3daafe3b4186f6b6457e0\n  mload(0x40)\n  mload(0x40)\n  dup1\n  swap2\n  sub\n  swap1\n  log3\n    /* \"@openzeppelin/contracts/access/Ownable.sol\":2496:2620  {... */\n  pop\n    /* \"@openzeppelin/contracts/access/Ownable.sol\":2433:2620  function _transferOwnership(address newOwner) internal virtual {... */\n  pop\n  jump\t// out\n    /* \"#utility.yul\":7:187   */\ntag_13:\n    /* \"#utility.yul\":55:132   */\n  0x4e487b7100000000000000000000000000000000000000000000000000000000\n    /* \"#utility.yul\":52:53   */\n  0x00\n    /* \"#utility.yul\":45:133   */\n  mstore\n    /* \"#utility.yul\":152:156   */\n  0x11\n    /* \"#utility.yul\":149:150   */\n  0x04\n    /* \"#utility.yul\":142:157   */\n  mstore\n    /* \"#utility.yul\":176:180   */\n  0x24\n    /* \"#utility.yul\":173:174   */\n  0x00\n    /* \"#utility.yul\":166:181   */\n  revert\n    /* \"#utility.yul\":193:295   */\ntag_14:\n    /* \"#utility.yul\":235:243   */\n  0x00\n    /* \"#utility.yul\":282:287   */\n  dup2\n    /* \"#utility.yul\":279:280   */\n  0x01\n    /* \"#utility.yul\":275:288   */\n  shr\n    /* \"#utility.yul\":254:288   */\n  swap1\n  pop\n    /* \"#utility.yul\":193:295   */\n  swap2\n  swap1\n  pop\n  jump\t// out\n    /* \"#utility.yul\":301:1149   */\ntag_15:\n    /* \"#utility.yul\":362:367   */\n  0x00\n    /* \"#utility.yul\":369:373   */\n  dup1\n    /* \"#utility.yul\":393:399   */\n  dup3\n    /* \"#utility.yul\":384:399   */\n  swap2\n  pop\n    /* \"#utility.yul\":417:422   */\n  dup4\n    /* \"#utility.yul\":408:422   */\n  swap1\n  pop\n    /* \"#utility.yul\":431:1143   */\ntag_22:\n    /* \"#utility.yul\":452:453   */\n  0x01\n    /* \"#utility.yul\":442:450   */\n  dup6\n    /* \"#utility.yul\":439:454   */\n  gt\n    /* \"#utility.yul\":431:1143   */\n  iszero\n  tag_24\n  jumpi\n    /* \"#utility.yul\":547:551   */\n  dup1\n    /* \"#utility.yul\":542:545   */\n  dup7\n    /* \"#utility.yul\":538:552   */\n  div\n    /* \"#utility.yul\":532:536   */\n  dup2\n    /* \"#utility.yul\":529:553   */\n  gt\n    /* \"#utility.yul\":526:576   */\n  iszero\n  tag_25\n  jumpi\n    /* \"#utility.yul\":556:574   */\n  tag_26\n  tag_13\n  jump\t// in\ntag_26:\n    /* \"#utility.yul\":526:576   */\ntag_25:\n    /* \"#utility.yul\":606:607   */\n  0x01\n    /* \"#utility.yul\":596:604   */\n  dup6\n    /* \"#utility.yul\":592:608   */\n  and\n    /* \"#utility.yul\":589:1040   */\n  iszero\n  tag_27\n  jumpi\n    /* \"#utility.yul\":1021:1025   */\n  dup1\n    /* \"#utility.yul\":1014:1019   */\n  dup3\n    /* \"#utility.yul\":1010:1026   */\n  mul\n    /* \"#utility.yul\":1001:1026   */\n  swap2\n  pop\n    /* \"#utility.yul\":589:1040   */\ntag_27:\n    /* \"#utility.yul\":1071:1075   */\n  dup1\n    /* \"#utility.yul\":1065:1069   */\n  dup2\n    /* \"#utility.yul\":1061:1076   */\n  mul\n    /* \"#utility.yul\":1053:1076   */\n  swap1\n  pop\n    /* \"#utility.yul\":1101:1133   */\n  tag_28\n    /* \"#utility.yul\":1124:1132   */\n  dup6\n    /* \"#utility.yul\":1101:1133   */\n  tag_14\n  jump\t// in\ntag_28:\n    /* \"#utility.yul\":1089:1133   */\n  swap5\n  pop\n    /* \"#utility.yul\":431:1143   */\n  jump(tag_22)\ntag_24:\n    /* \"#utility.yul\":301:1149   */\n  swap5\n  pop\n  swap5\n  swap3\n  pop\n  pop\n  pop\n  jump\t// out\n    /* \"#utility.yul\":1155:2228   */\ntag_16:\n    /* \"#utility.yul\":1209:1214   */\n  0x00\n    /* \"#utility.yul\":1400:1408   */\n  dup3\n    /* \"#utility.yul\":1390:1430   */\n  tag_30\n  jumpi\n    /* \"#utility.yul\":1421:1422   */\n  0x01\n    /* \"#utility.yul\":1412:1422   */\n  swap1\n  pop\n    /* \"#utility.yul\":1423:1428   */\n  jump(tag_29)\n    /* \"#utility.yul\":1390:1430   */\ntag_30:\n    /* \"#utility.yul\":1449:1453   */\n  dup2\n    /* \"#utility.yul\":1439:1475   */\n  tag_31\n  jumpi\n    /* \"#utility.yul\":1466:1467   */\n  0x00\n    /* \"#utility.yul\":1457:1467   */\n  swap1\n  pop\n    /* \"#utility.yul\":1468:1473   */\n  jump(tag_29)\n    /* \"#utility.yul\":1439:1475   */\ntag_31:\n    /* \"#utility.yul\":1535:1539   */\n  dup2\n    /* \"#utility.yul\":1583:1584   */\n  0x01\n    /* \"#utility.yul\":1578:1605   */\n  dup2\n  eq\n  tag_33\n  jumpi\n    /* \"#utility.yul\":1619:1620   */\n  0x02\n    /* \"#utility.yul\":1614:1805   */\n  dup2\n  eq\n  tag_34\n  jumpi\n    /* \"#utility.yul\":1528:1805   */\n  jump(tag_32)\n    /* \"#utility.yul\":1578:1605   */\ntag_33:\n    /* \"#utility.yul\":1596:1597   */\n  0x01\n    /* \"#utility.yul\":1587:1597   */\n  swap2\n  pop\n    /* \"#utility.yul\":1598:1603   */\n  pop\n  jump(tag_29)\n    /* \"#utility.yul\":1614:1805   */\ntag_34:\n    /* \"#utility.yul\":1659:1662   */\n  0xff\n    /* \"#utility.yul\":1649:1657   */\n  dup5\n    /* \"#utility.yul\":1646:1663   */\n  gt\n    /* \"#utility.yul\":1643:1686   */\n  iszero\n  tag_35\n  jumpi\n    /* \"#utility.yul\":1666:1684   */\n  tag_36\n  tag_13\n  jump\t// in\ntag_36:\n    /* \"#utility.yul\":1643:1686   */\ntag_35:\n    /* \"#utility.yul\":1715:1723   */\n  dup4\n    /* \"#utility.yul\":1712:1713   */\n  0x02\n    /* \"#utility.yul\":1708:1724   */\n  exp\n    /* \"#utility.yul\":1699:1724   */\n  swap2\n  pop\n    /* \"#utility.yul\":1750:1753   */\n  dup5\n    /* \"#utility.yul\":1743:1748   */\n  dup3\n    /* \"#utility.yul\":1740:1754   */\n  gt\n    /* \"#utility.yul\":1737:1777   */\n  iszero\n  tag_37\n  jumpi\n    /* \"#utility.yul\":1757:1775   */\n  tag_38\n  tag_13\n  jump\t// in\ntag_38:\n    /* \"#utility.yul\":1737:1777   */\ntag_37:\n    /* \"#utility.yul\":1790:1795   */\n  pop\n  jump(tag_29)\n    /* \"#utility.yul\":1528:1805   */\ntag_32:\n  pop\n    /* \"#utility.yul\":1914:1916   */\n  0x20\n    /* \"#utility.yul\":1904:1912   */\n  dup4\n    /* \"#utility.yul\":1901:1917   */\n  lt\n    /* \"#utility.yul\":1895:1898   */\n  0x0133\n    /* \"#utility.yul\":1889:1893   */\n  dup4\n    /* \"#utility.yul\":1886:1899   */\n  lt\n    /* \"#utility.yul\":1882:1918   */\n  and\n    /* \"#utility.yul\":1864:1866   */\n  0x4e\n    /* \"#utility.yul\":1854:1862   */\n  dup5\n    /* \"#utility.yul\":1851:1867   */\n  lt\n    /* \"#utility.yul\":1846:1848   */\n  0x0b\n    /* \"#utility.yul\":1840:1844   */\n  dup5\n    /* \"#utility.yul\":1837:1849   */\n  lt\n    /* \"#utility.yul\":1833:1868   */\n  and\n    /* \"#utility.yul\":1817:1928   */\n  or\n    /* \"#utility.yul\":1814:2060   */\n  iszero\n  tag_39\n  jumpi\n    /* \"#utility.yul\":1970:1978   */\n  dup3\n    /* \"#utility.yul\":1964:1968   */\n  dup3\n    /* \"#utility.yul\":1960:1979   */\n  exp\n    /* \"#utility.yul\":1951:1979   */\n  swap1\n  pop\n    /* \"#utility.yul\":2005:2008   */\n  dup4\n    /* \"#utility.yul\":1998:2003   */\n  dup2\n    /* \"#utility.yul\":1995:2009   */\n  gt\n    /* \"#utility.yul\":1992:2032   */\n  iszero\n  tag_40\n  jumpi\n    /* \"#utility.yul\":2012:2030   */\n  tag_41\n  tag_13\n  jump\t// in\ntag_41:\n    /* \"#utility.yul\":1992:2032   */\ntag_40:\n    /* \"#utility.yul\":2045:2050   */\n  jump(tag_29)\n    /* \"#utility.yul\":1814:2060   */\ntag_39:\n    /* \"#utility.yul\":2085:2127   */\n  tag_42\n    /* \"#utility.yul\":2123:2126   */\n  dup5\n    /* \"#utility.yul\":2113:2121   */\n  dup5\n    /* \"#utility.yul\":2107:2111   */\n  dup5\n    /* \"#utility.yul\":2104:2105   */\n  0x01\n    /* \"#utility.yul\":2085:2127   */\n  tag_15\n  jump\t// in\ntag_42:\n    /* \"#utility.yul\":2070:2127   */\n  swap3\n  pop\n  swap1\n  pop\n    /* \"#utility.yul\":2159:2163   */\n  dup2\n    /* \"#utility.yul\":2154:2157   */\n  dup5\n    /* \"#utility.yul\":2150:2164   */\n  div\n    /* \"#utility.yul\":2143:2148   */\n  dup2\n    /* \"#utility.yul\":2140:2165   */\n  gt\n    /* \"#utility.yul\":2137:2188   */\n  iszero\n  tag_43\n  jumpi\n    /* \"#utility.yul\":2168:2186   */\n  tag_44\n  tag_13\n  jump\t// in\ntag_44:\n    /* \"#utility.yul\":2137:2188   */\ntag_43:\n    /* \"#utility.yul\":2217:2221   */\n  dup2\n    /* \"#utility.yul\":2210:2215   */\n  dup2\n    /* \"#utility.yul\":2206:2222   */\n  mul\n    /* \"#utility.yul\":2197:2222   */\n  swap1\n  pop\n    /* \"#utility.yul\":1155:2228   */\ntag_29:\n  swap4\n  swap3\n  pop\n  pop\n  pop\n  jump\t// out\n    /* \"#utility.yul\":2234:2311   */\ntag_17:\n    /* \"#utility.yul\":2271:2278   */\n  0x00\n    /* \"#utility.yul\":2300:2305   */\n  dup2\n    /* \"#utility.yul\":2289:2305   */\n  swap1\n  pop\n    /* \"#utility.yul\":2234:2311   */\n  swap2\n  swap1\n  pop\n  jump\t// out\n    /* \"#utility.yul\":2317:2602   */\ntag_2:\n    /* \"#utility.yul\":2377:2382   */\n  0x00\n    /* \"#utility.yul\":2401:2424   */\n  tag_47\n    /* \"#utility.yul\":2419:2423   */\n  dup3\n    /* \"#utility.yul\":2401:2424   */\n  tag_17\n  jump\t// in\ntag_47:\n    /* \"#utility.yul\":2393:2424   */\n  swap2\n  pop\n    /* \"#utility.yul\":2445:2472   */\n  tag_48\n    /* \"#utility.yul\":2463:2471   */\n  dup4\n    /* \"#utility.yul\":2445:2472   */\n  tag_17\n  jump\t// in\ntag_48:\n    /* \"#utility.yul\":2433:2472   */\n  swap3\n  pop\n    /* \"#utility.yul\":2491:2595   */\n  tag_49\n    /* \"#utility.yul\":2528:2594   */\n  0xffffffffffffffffffffffffffffffffffffffffffffffffffffffffffffffff\n    /* \"#utility.yul\":2518:2526   */\n  dup5\n    /* \"#utility.yul\":2512:2516   */\n  dup5\n    /* \"#utility.yul\":2491:2595   */\n  tag_16\n  jump\t// in\ntag_49:\n    /* \"#utility.yul\":2482:2595   */\n  swap1\n  pop\n    /* \"#utility.yul\":2317:2602   */\n  swap3\n  swap2\n  pop\n  pop\n  jump\t// out\n    /* \"contracts/FungusFeeding.sol\":659:2697  contract FungusFeeding is FungusFactory {... */\ntag_10:\n  dataSize(sub_0)\n  dup1\n  dataOffset(sub_0)\n  0x00\n  codecopy\n  0x00\n  return\nstop\n\nsub_0: assembly {\n        /* \"contracts/FungusFeeding.sol\":659:2697  contract FungusFeeding is FungusFactory {... */\n      mstore(0x40, 0x80)\n      jumpi(tag_1, lt(calldatasize, 0x04))\n      shr(0xe0, calldataload(0x00))\n      dup1\n      0x6d6aa5bb\n      gt\n      tag_12\n      jumpi\n      dup1\n      0x6d6aa5bb\n      eq\n      tag_7\n      jumpi\n      dup1\n      0x703b3d38\n      eq\n      tag_8\n      jumpi\n      dup1\n      0x715018a6\n      eq\n      tag_9\n      jumpi\n      dup1\n      0x8da5cb5b\n      eq\n      tag_10\n      jumpi\n      dup1\n      0xf2fde38b\n      eq\n      tag_11\n      jumpi\n      jump(tag_1)\n    tag_12:\n      dup1\n      0x0e17f883\n      eq\n      tag_2\n      jumpi\n      dup1\n      0x1e1694cb\n      eq\n      tag_3\n      jumpi\n      dup1\n      0x5a1e6313\n      eq\n      tag_4\n      jumpi\n      dup1\n      0x6bdfcef9\n      eq\n      tag_5\n      jumpi\n      dup1\n      0x6c506e8a\n      eq\n      tag_6\n      jumpi\n    tag_1:\n      0x00\n      dup1\n      revert\n        /* \"contracts/FungusFactory.sol\":510:556  mapping (uint => address) public fungusToOwner */\n    tag_2:\n      callvalue\n      dup1\n      iszero\n      tag_13\n      jumpi\n      0x00\n      dup1\n      revert\n    tag_13:\n      pop\n      tag_14\n      0x04\n      dup1\n      calldatasize\n      sub\n      dup2\n      add\n      swap1\n      tag_15\n      swap2\n      swap1\n      tag_16\n      jump\t// in\n    tag_15:\n      tag_17\n      jump\t// in\n    tag_14:\n      mload(0x40)\n      tag_18\n      swap2\n      swap1\n      tag_19\n      jump\t// in\n    tag_18:\n      mload(0x40)\n      dup1\n      swap2\n      sub\n      swap1\n      return\n        /* \"contracts/FungusFactory.sol\":1417:1813  function getFungiByOwner(address owner) external view returns(uint[] memory) {... */\n    tag_3:\n      callvalue\n      dup1\n      iszero\n      tag_20\n      jumpi\n      0x00\n      dup1\n      revert\n    tag_20:\n      pop\n      tag_21\n      0x04\n      dup1\n      calldatasize\n      sub\n      dup2\n      add\n      swap1\n      tag_22\n      swap2\n      swap1\n      tag_23\n      jump\t// in\n    tag_22:\n      tag_24\n      jump\t// in\n    tag_21:\n      mload(0x40)\n      tag_25\n      swap2\n      swap1\n      tag_26\n      jump\t// in\n    tag_25:\n      mload(0x40)\n      dup1\n      swap2\n      sub\n      swap1\n      return\n        /* \"contracts/FungusFactory.sol\":1175:1409  function createRandomFungus(string calldata name) public {... */\n    tag_4:\n      callvalue\n      dup1\n      iszero\n      tag_27\n      jumpi\n      0x00\n      dup1\n      revert\n    tag_27:\n      pop\n      tag_28\n      0x04\n      dup1\n      calldatasize\n      sub\n      dup2\n      add\n      swap1\n      tag_29\n      swap2\n      swap1\n      tag_30\n      jump\t// in\n    tag_29:\n      tag_31\n      jump\t// in\n    tag_28:\n      stop\n        /* \"contracts/FungusFactory.sol\":480:501  Fungus[] public fungi */\n    tag_5:\n      callvalue\n      dup1\n      iszero\n      tag_32\n      jumpi\n      0x00\n      dup1\n      revert\n    tag_32:\n      pop\n      tag_33\n      0x04\n      dup1\n      calldatasize\n      sub\n      dup2\n      add\n      swap1\n      tag_34\n      swap2\n      swap1\n      tag_16\n      jump\t// in\n    tag_34:\n      tag_35\n      jump\t// in\n    tag_33:\n      mload(0x40)\n      tag_36\n      swap4\n      swap3\n      swap2\n      swap1\n      tag_37\n      jump\t// in\n    tag_36:\n      mload(0x40)\n      dup1\n      swap2\n      sub\n      swap1\n      return\n        /* \"contracts/FungusFeeding.sol\":1068:1254  function setFeedFactoryContractAddress(address address_) external onlyOwner {... */\n    tag_6:\n      callvalue\n      dup1\n      iszero\n      tag_38\n      jumpi\n      0x00\n      dup1\n      revert\n    tag_38:\n      pop\n      tag_39\n      0x04\n      dup1\n      calldatasize\n      sub\n      dup2\n      add\n      swap1\n      tag_40\n      swap2\n      swap1\n      tag_23\n      jump\t// in\n    tag_40:\n      tag_41\n      jump\t// in\n    tag_39:\n      stop\n        /* \"contracts/FungusFeeding.sol\":2271:2694  function feed(uint fungusId, uint feedId) public payable {... */\n    tag_7:\n      tag_42\n      0x04\n      dup1\n      calldatasize\n      sub\n      dup2\n      add\n      swap1\n      tag_43\n      swap2\n      swap1\n      tag_44\n      jump\t// in\n    tag_43:\n      tag_45\n      jump\t// in\n    tag_42:\n      stop\n        /* \"contracts/FungusFactory.sol\":563:612  mapping (address => uint) public ownerFungusCount */\n    tag_8:\n      callvalue\n      dup1\n      iszero\n      tag_46\n      jumpi\n      0x00\n      dup1\n      revert\n    tag_46:\n      pop\n      tag_47\n      0x04\n      dup1\n      calldatasize\n      sub\n      dup2\n      add\n      swap1\n      tag_48\n      swap2\n      swap1\n      tag_23\n      jump\t// in\n    tag_48:\n      tag_49\n      jump\t// in\n    tag_47:\n      mload(0x40)\n      tag_50\n      swap2\n      swap1\n      tag_51\n      jump\t// in\n    tag_50:\n      mload(0x40)\n      dup1\n      swap2\n      sub\n      swap1\n      return\n        /* \"@openzeppelin/contracts/access/Ownable.sol\":1831:1932  function renounceOwnership() public virtual onlyOwner {... */\n    tag_9:\n      callvalue\n      dup1\n      iszero\n      tag_52\n      jumpi\n      0x00\n      dup1\n      revert\n    tag_52:\n      pop\n      tag_53\n      tag_54\n      jump\t// in\n    tag_53:\n      stop\n        /* \"@openzeppelin/contracts/access/Ownable.sol\":1201:1286  function owner() public view virtual returns (address) {... */\n    tag_10:\n      callvalue\n      dup1\n      iszero\n      tag_55\n      jumpi\n      0x00\n      dup1\n      revert\n    tag_55:\n      pop\n      tag_56\n      tag_57\n      jump\t// in\n    tag_56:\n      mload(0x40)\n      tag_58\n      swap2\n      swap1\n      tag_19\n      jump\t// in\n    tag_58:\n      mload(0x40)\n      dup1\n      swap2\n      sub\n      swap1\n      return\n        /* \"@openzeppelin/contracts/access/Ownable.sol\":2081:2279  function transferOwnership(address newOwner) public virtual onlyOwner {... */\n    tag_11:\n      callvalue\n      dup1\n      iszero\n      tag_59\n      jumpi\n      0x00\n      dup1\n      revert\n    tag_59:\n      pop\n      tag_60\n      0x04\n      dup1\n      calldatasize\n      sub\n      dup2\n      add\n      swap1\n      tag_61\n      swap2\n      swap1\n      tag_23\n      jump\t// in\n    tag_61:\n      tag_62\n      jump\t// in\n    tag_60:\n      stop\n        /* \"contracts/FungusFactory.sol\":510:556  mapping (uint => address) public fungusToOwner */\n    tag_17:\n      mstore(0x20, 0x05)\n      dup1\n      0x00\n      mstore\n      keccak256(0x00, 0x40)\n      0x00\n      swap2\n      pop\n      sload\n      swap1\n      0x0100\n      exp\n      swap1\n      div\n      0xffffffffffffffffffffffffffffffffffffffff\n      and\n      dup2\n      jump\t// out\n        /* \"contracts/FungusFactory.sol\":1417:1813  function getFungiByOwner(address owner) external view returns(uint[] memory) {... */\n    tag_24:\n        /* \"contracts/FungusFactory.sol\":1479:1492  uint[] memory */\n      0x60\n        /* \"contracts/FungusFactory.sol\":1505:1525  uint[] memory result */\n      0x00\n        /* \"contracts/FungusFactory.sol\":1539:1555  ownerFungusCount */\n      0x06\n        /* \"contracts/FungusFactory.sol\":1539:1562  ownerFungusCount[owner] */\n      0x00\n        /* \"contracts/FungusFactory.sol\":1556:1561  owner */\n      dup5\n        /* \"contracts/FungusFactory.sol\":1539:1562  ownerFungusCount[owner] */\n      0xffffffffffffffffffffffffffffffffffffffff\n      and\n      0xffffffffffffffffffffffffffffffffffffffff\n      and\n      dup2\n      mstore\n      0x20\n      add\n      swap1\n      dup2\n      mstore\n      0x20\n      add\n      0x00\n      keccak256\n      sload\n        /* \"contracts/FungusFactory.sol\":1528:1563  new uint[](ownerFungusCount[owner]) */\n      0xffffffffffffffff\n      dup2\n      gt\n      iszero\n      tag_64\n      jumpi\n      tag_65\n      tag_66\n      jump\t// in\n    tag_65:\n    tag_64:\n      mload(0x40)\n      swap1\n      dup1\n      dup3\n      mstore\n      dup1\n      0x20\n      mul\n      0x20\n      add\n      dup3\n      add\n      0x40\n      mstore\n      dup1\n      iszero\n      tag_67\n      jumpi\n      dup2\n      0x20\n      add\n      0x20\n      dup3\n      mul\n      dup1\n      calldatasize\n      dup4\n      calldatacopy\n      dup1\n      dup3\n      add\n      swap2\n      pop\n      pop\n      swap1\n      pop\n    tag_67:\n      pop\n        /* \"contracts/FungusFactory.sol\":1505:1563  uint[] memory result = new uint[](ownerFungusCount[owner]) */\n      swap1\n      pop\n        /* \"contracts/FungusFactory.sol\":1576:1588  uint counter */\n      0x00\n        /* \"contracts/FungusFactory.sol\":1608:1614  uint i */\n      dup1\n        /* \"contracts/FungusFactory.sol\":1603:1782  for (uint i = 0; i < fungi.length; i++) {... */\n    tag_68:\n        /* \"contracts/FungusFactory.sol\":1624:1629  fungi */\n      0x04\n        /* \"contracts/FungusFactory.sol\":1624:1636  fungi.length */\n      dup1\n      sload\n      swap1\n      pop\n        /* \"contracts/FungusFactory.sol\":1620:1621  i */\n      dup2\n        /* \"contracts/FungusFactory.sol\":1620:1636  i < fungi.length */\n      lt\n        /* \"contracts/FungusFactory.sol\":1603:1782  for (uint i = 0; i < fungi.length; i++) {... */\n      iszero\n      tag_69\n      jumpi\n        /* \"contracts/FungusFactory.sol\":1682:1687  owner */\n      dup5\n        /* \"contracts/FungusFactory.sol\":1662:1687  fungusToOwner[i] == owner */\n      0xffffffffffffffffffffffffffffffffffffffff\n      and\n        /* \"contracts/FungusFactory.sol\":1662:1675  fungusToOwner */\n      0x05\n        /* \"contracts/FungusFactory.sol\":1662:1678  fungusToOwner[i] */\n      0x00\n        /* \"contracts/FungusFactory.sol\":1676:1677  i */\n      dup4\n        /* \"contracts/FungusFactory.sol\":1662:1678  fungusToOwner[i] */\n      dup2\n      mstore\n      0x20\n      add\n      swap1\n      dup2\n      mstore\n      0x20\n      add\n      0x00\n      keccak256\n      0x00\n      swap1\n      sload\n      swap1\n      0x0100\n      exp\n      swap1\n      div\n      0xffffffffffffffffffffffffffffffffffffffff\n      and\n        /* \"contracts/FungusFactory.sol\":1662:1687  fungusToOwner[i] == owner */\n      0xffffffffffffffffffffffffffffffffffffffff\n      and\n      eq\n        /* \"contracts/FungusFactory.sol\":1658:1771  if (fungusToOwner[i] == owner) {... */\n      iszero\n      tag_71\n      jumpi\n        /* \"contracts/FungusFactory.sol\":1726:1727  i */\n      dup1\n        /* \"contracts/FungusFactory.sol\":1708:1714  result */\n      dup4\n        /* \"contracts/FungusFactory.sol\":1715:1722  counter */\n      dup4\n        /* \"contracts/FungusFactory.sol\":1708:1723  result[counter] */\n      dup2\n      mload\n      dup2\n      lt\n      tag_72\n      jumpi\n      tag_73\n      tag_74\n      jump\t// in\n    tag_73:\n    tag_72:\n      0x20\n      mul\n      0x20\n      add\n      add\n        /* \"contracts/FungusFactory.sol\":1708:1727  result[counter] = i */\n      dup2\n      dup2\n      mstore\n      pop\n      pop\n        /* \"contracts/FungusFactory.sol\":1746:1755  counter++ */\n      dup2\n      dup1\n      tag_75\n      swap1\n      tag_76\n      jump\t// in\n    tag_75:\n      swap3\n      pop\n      pop\n        /* \"contracts/FungusFactory.sol\":1658:1771  if (fungusToOwner[i] == owner) {... */\n    tag_71:\n        /* \"contracts/FungusFactory.sol\":1638:1641  i++ */\n      dup1\n      dup1\n      tag_77\n      swap1\n      tag_76\n      jump\t// in\n    tag_77:\n      swap2\n      pop\n      pop\n        /* \"contracts/FungusFactory.sol\":1603:1782  for (uint i = 0; i < fungi.length; i++) {... */\n      jump(tag_68)\n    tag_69:\n      pop\n        /* \"contracts/FungusFactory.sol\":1799:1805  result */\n      dup2\n        /* \"contracts/FungusFactory.sol\":1792:1805  return result */\n      swap3\n      pop\n      pop\n      pop\n        /* \"contracts/FungusFactory.sol\":1417:1813  function getFungiByOwner(address owner) external view returns(uint[] memory) {... */\n      swap2\n      swap1\n      pop\n      jump\t// out\n        /* \"contracts/FungusFactory.sol\":1175:1409  function createRandomFungus(string calldata name) public {... */\n    tag_31:\n        /* \"contracts/FungusFactory.sol\":1283:1284  0 */\n      0x00\n        /* \"contracts/FungusFactory.sol\":1251:1267  ownerFungusCount */\n      0x06\n        /* \"contracts/FungusFactory.sol\":1251:1279  ownerFungusCount[msg.sender] */\n      0x00\n        /* \"contracts/FungusFactory.sol\":1268:1278  msg.sender */\n      caller\n        /* \"contracts/FungusFactory.sol\":1251:1279  ownerFungusCount[msg.sender] */\n      0xffffffffffffffffffffffffffffffffffffffff\n      and\n      0xffffffffffffffffffffffffffffffffffffffff\n      and\n      dup2\n      mstore\n      0x20\n      add\n      swap1\n      dup2\n      mstore\n      0x20\n      add\n      0x00\n      keccak256\n      sload\n        /* \"contracts/FungusFactory.sol\":1251:1284  ownerFungusCount[msg.sender] == 0 */\n      eq\n        /* \"contracts/FungusFactory.sol\":1243:1312  require(ownerFungusCount[msg.sender] == 0, \"a fungus already exists\") */\n      tag_79\n      jumpi\n      mload(0x40)\n      0x08c379a000000000000000000000000000000000000000000000000000000000\n      dup2\n      mstore\n      0x04\n      add\n      tag_80\n      swap1\n      tag_81\n      jump\t// in\n    tag_80:\n      mload(0x40)\n      dup1\n      swap2\n      sub\n      swap1\n      revert\n    tag_79:\n        /* \"contracts/FungusFactory.sol\":1323:1335  uint randDna */\n      0x00\n        /* \"contracts/FungusFactory.sol\":1338:1362  _generateRandomDna(name) */\n      tag_82\n        /* \"contracts/FungusFactory.sol\":1357:1361  name */\n      dup4\n      dup4\n        /* \"contracts/FungusFactory.sol\":1338:1356  _generateRandomDna */\n      tag_83\n        /* \"contracts/FungusFactory.sol\":1338:1362  _generateRandomDna(name) */\n      jump\t// in\n    tag_82:\n        /* \"contracts/FungusFactory.sol\":1323:1362  uint randDna = _generateRandomDna(name) */\n      swap1\n      pop\n        /* \"contracts/FungusFactory.sol\":1373:1401  _createFungus(name, randDna) */\n      tag_84\n        /* \"contracts/FungusFactory.sol\":1387:1391  name */\n      dup4\n      dup4\n        /* \"contracts/FungusFactory.sol\":1373:1401  _createFungus(name, randDna) */\n      dup1\n      dup1\n      0x1f\n      add\n      0x20\n      dup1\n      swap2\n      div\n      mul\n      0x20\n      add\n      mload(0x40)\n      swap1\n      dup2\n      add\n      0x40\n      mstore\n      dup1\n      swap4\n      swap3\n      swap2\n      swap1\n      dup2\n      dup2\n      mstore\n      0x20\n      add\n      dup4\n      dup4\n      dup1\n      dup3\n      dup5\n      calldatacopy\n      0x00\n      dup2\n      dup5\n      add\n      mstore\n      not(0x1f)\n      0x1f\n      dup3\n      add\n      and\n      swap1\n      pop\n      dup1\n      dup4\n      add\n      swap3\n      pop\n      pop\n      pop\n      pop\n      pop\n      pop\n      pop\n        /* \"contracts/FungusFactory.sol\":1393:1400  randDna */\n      dup3\n        /* \"contracts/FungusFactory.sol\":1373:1386  _createFungus */\n      tag_85\n        /* \"contracts/FungusFactory.sol\":1373:1401  _createFungus(name, randDna) */\n      jump\t// in\n    tag_84:\n        /* \"contracts/FungusFactory.sol\":1232:1409  {... */\n      pop\n        /* \"contracts/FungusFactory.sol\":1175:1409  function createRandomFungus(string calldata name) public {... */\n      pop\n      pop\n      jump\t// out\n        /* \"contracts/FungusFactory.sol\":480:501  Fungus[] public fungi */\n    tag_35:\n      0x04\n      dup2\n      dup2\n      sload\n      dup2\n      lt\n      tag_86\n      jumpi\n      0x00\n      dup1\n      revert\n    tag_86:\n      swap1\n      0x00\n      mstore\n      keccak256(0x00, 0x20)\n      swap1\n      0x03\n      mul\n      add\n      0x00\n      swap2\n      pop\n      swap1\n      pop\n      dup1\n      0x00\n      add\n      dup1\n      sload\n      tag_88\n      swap1\n      tag_89\n      jump\t// in\n    tag_88:\n      dup1\n      0x1f\n      add\n      0x20\n      dup1\n      swap2\n      div\n      mul\n      0x20\n      add\n      mload(0x40)\n      swap1\n      dup2\n      add\n      0x40\n      mstore\n      dup1\n      swap3\n      swap2\n      swap1\n      dup2\n      dup2\n      mstore\n      0x20\n      add\n      dup3\n      dup1\n      sload\n      tag_90\n      swap1\n      tag_89\n      jump\t// in\n    tag_90:\n      dup1\n      iszero\n      tag_91\n      jumpi\n      dup1\n      0x1f\n      lt\n      tag_92\n      jumpi\n      0x0100\n      dup1\n      dup4\n      sload\n      div\n      mul\n      dup4\n      mstore\n      swap2\n      0x20\n      add\n      swap2\n      jump(tag_91)\n    tag_92:\n      dup3\n      add\n      swap2\n      swap1\n      0x00\n      mstore\n      keccak256(0x00, 0x20)\n      swap1\n    tag_93:\n      dup2\n      sload\n      dup2\n      mstore\n      swap1\n      0x01\n      add\n      swap1\n      0x20\n      add\n      dup1\n      dup4\n      gt\n      tag_93\n      jumpi\n      dup3\n      swap1\n      sub\n      0x1f\n      and\n      dup3\n      add\n      swap2\n    tag_91:\n      pop\n      pop\n      pop\n      pop\n      pop\n      swap1\n      dup1\n      0x01\n      add\n      sload\n      swap1\n      dup1\n      0x02\n      add\n      0x00\n      swap1\n      sload\n      swap1\n      0x0100\n      exp\n      swap1\n      div\n      0xffffffff\n      and\n      swap1\n      pop\n      dup4\n      jump\t// out\n        /* \"contracts/FungusFeeding.sol\":1068:1254  function setFeedFactoryContractAddress(address address_) external onlyOwner {... */\n    tag_41:\n        /* \"@openzeppelin/contracts/access/Ownable.sol\":1094:1107  _checkOwner() */\n      tag_95\n        /* \"@openzeppelin/contracts/access/Ownable.sol\":1094:1105  _checkOwner */\n      tag_96\n        /* \"@openzeppelin/contracts/access/Ownable.sol\":1094:1107  _checkOwner() */\n      jump\t// in\n    tag_95:\n        /* \"contracts/FungusFeeding.sol\":1237:1245  address_ */\n      dup1\n        /* \"contracts/FungusFeeding.sol\":1201:1213  feedContract */\n      0x07\n      0x00\n        /* \"contracts/FungusFeeding.sol\":1201:1246  feedContract = FeedFactoryInterface(address_) */\n      0x0100\n      exp\n      dup2\n      sload\n      dup2\n      0xffffffffffffffffffffffffffffffffffffffff\n      mul\n      not\n      and\n      swap1\n      dup4\n      0xffffffffffffffffffffffffffffffffffffffff\n      and\n      mul\n      or\n      swap1\n      sstore\n      pop\n        /* \"contracts/FungusFeeding.sol\":1068:1254  function setFeedFactoryContractAddress(address address_) external onlyOwner {... */\n      pop\n      jump\t// out\n        /* \"contracts/FungusFeeding.sol\":2271:2694  function feed(uint fungusId, uint feedId) public payable {... */\n    tag_45:\n        /* \"contracts/FungusFeeding.sol\":2339:2351  uint feedDna */\n      0x00\n        /* \"contracts/FungusFeeding.sol\":2362:2376  uint feedPrice */\n      dup1\n        /* \"contracts/FungusFeeding.sol\":2529:2541  feedContract */\n      0x07\n      0x00\n      swap1\n      sload\n      swap1\n      0x0100\n      exp\n      swap1\n      div\n      0xffffffffffffffffffffffffffffffffffffffff\n      and\n        /* \"contracts/FungusFeeding.sol\":2529:2549  feedContract.getFeed */\n      0xffffffffffffffffffffffffffffffffffffffff\n      and\n      0xecb76d90\n        /* \"contracts/FungusFeeding.sol\":2550:2556  feedId */\n      dup5\n        /* \"contracts/FungusFeeding.sol\":2529:2557  feedContract.getFeed(feedId) */\n      mload(0x40)\n      dup3\n      0xffffffff\n      and\n      0xe0\n      shl\n      dup2\n      mstore\n      0x04\n      add\n      tag_99\n      swap2\n      swap1\n      tag_51\n      jump\t// in\n    tag_99:\n      0x00\n      mload(0x40)\n      dup1\n      dup4\n      sub\n      dup2\n      dup7\n      gas\n      staticcall\n      iszero\n      dup1\n      iszero\n      tag_101\n      jumpi\n      returndatasize\n      0x00\n      dup1\n      returndatacopy\n      revert(0x00, returndatasize)\n    tag_101:\n      pop\n      pop\n      pop\n      pop\n      mload(0x40)\n      returndatasize\n      0x00\n      dup3\n      returndatacopy\n      returndatasize\n      not(0x1f)\n      0x1f\n      dup3\n      add\n      and\n      dup3\n      add\n      dup1\n      0x40\n      mstore\n      pop\n      dup2\n      add\n      swap1\n      tag_102\n      swap2\n      swap1\n      tag_103\n      jump\t// in\n    tag_102:\n        /* \"contracts/FungusFeeding.sol\":2506:2557  (,feedDna,feedPrice) = feedContract.getFeed(feedId) */\n      swap1\n      swap2\n      pop\n      dup1\n      swap3\n      pop\n      dup2\n      swap4\n      pop\n      pop\n      pop\n        /* \"contracts/FungusFeeding.sol\":2589:2598  feedPrice */\n      dup1\n        /* \"contracts/FungusFeeding.sol\":2576:2585  msg.value */\n      callvalue\n        /* \"contracts/FungusFeeding.sol\":2576:2598  msg.value == feedPrice */\n      eq\n        /* \"contracts/FungusFeeding.sol\":2568:2633  require(msg.value == feedPrice, \"be paid inappropriate expenses\") */\n      tag_104\n      jumpi\n      mload(0x40)\n      0x08c379a000000000000000000000000000000000000000000000000000000000\n      dup2\n      mstore\n      0x04\n      add\n      tag_105\n      swap1\n      tag_106\n      jump\t// in\n    tag_105:\n      mload(0x40)\n      dup1\n      swap2\n      sub\n      swap1\n      revert\n    tag_104:\n        /* \"contracts/FungusFeeding.sol\":2644:2686  feedAndMultiply(fungusId, feedDna, \"feed\") */\n      tag_107\n        /* \"contracts/FungusFeeding.sol\":2660:2668  fungusId */\n      dup5\n        /* \"contracts/FungusFeeding.sol\":2670:2677  feedDna */\n      dup4\n        /* \"contracts/FungusFeeding.sol\":2644:2686  feedAndMultiply(fungusId, feedDna, \"feed\") */\n      mload(0x40)\n      dup1\n      0x40\n      add\n      0x40\n      mstore\n      dup1\n      0x04\n      dup2\n      mstore\n      0x20\n      add\n      0x6665656400000000000000000000000000000000000000000000000000000000\n      dup2\n      mstore\n      pop\n        /* \"contracts/FungusFeeding.sol\":2644:2659  feedAndMultiply */\n      tag_108\n        /* \"contracts/FungusFeeding.sol\":2644:2686  feedAndMultiply(fungusId, feedDna, \"feed\") */\n      jump\t// in\n    tag_107:\n        /* \"contracts/FungusFeeding.sol\":2328:2694  {... */\n      pop\n      pop\n        /* \"contracts/FungusFeeding.sol\":2271:2694  function feed(uint fungusId, uint feedId) public payable {... */\n      pop\n      pop\n      jump\t// out\n        /* \"contracts/FungusFactory.sol\":563:612  mapping (address => uint) public ownerFungusCount */\n    tag_49:\n      mstore(0x20, 0x06)\n      dup1\n      0x00\n      mstore\n      keccak256(0x00, 0x40)\n      0x00\n      swap2\n      pop\n      swap1\n      pop\n      sload\n      dup2\n      jump\t// out\n        /* \"@openzeppelin/contracts/access/Ownable.sol\":1831:1932  function renounceOwnership() public virtual onlyOwner {... */\n    tag_54:\n        /* \"@openzeppelin/contracts/access/Ownable.sol\":1094:1107  _checkOwner() */\n      tag_110\n        /* \"@openzeppelin/contracts/access/Ownable.sol\":1094:1105  _checkOwner */\n      tag_96\n        /* \"@openzeppelin/contracts/access/Ownable.sol\":1094:1107  _checkOwner() */\n      jump\t// in\n    tag_110:\n        /* \"@openzeppelin/contracts/access/Ownable.sol\":1895:1925  _transferOwnership(address(0)) */\n      tag_112\n        /* \"@openzeppelin/contracts/access/Ownable.sol\":1922:1923  0 */\n      0x00\n        /* \"@openzeppelin/contracts/access/Ownable.sol\":1895:1913  _transferOwnership */\n      tag_113\n        /* \"@openzeppelin/contracts/access/Ownable.sol\":1895:1925  _transferOwnership(address(0)) */\n      jump\t// in\n    tag_112:\n        /* \"@openzeppelin/contracts/access/Ownable.sol\":1831:1932  function renounceOwnership() public virtual onlyOwner {... */\n      jump\t// out\n        /* \"@openzeppelin/contracts/access/Ownable.sol\":1201:1286  function owner() public view virtual returns (address) {... */\n    tag_57:\n        /* \"@openzeppelin/contracts/access/Ownable.sol\":1247:1254  address */\n      0x00\n        /* \"@openzeppelin/contracts/access/Ownable.sol\":1273:1279  _owner */\n      dup1\n      0x00\n      swap1\n      sload\n      swap1\n      0x0100\n      exp\n      swap1\n      div\n      0xffffffffffffffffffffffffffffffffffffffff\n      and\n        /* \"@openzeppelin/contracts/access/Ownable.sol\":1266:1279  return _owner */\n      swap1\n      pop\n        /* \"@openzeppelin/contracts/access/Ownable.sol\":1201:1286  function owner() public view virtual returns (address) {... */\n      swap1\n      jump\t// out\n        /* \"@openzeppelin/contracts/access/Ownable.sol\":2081:2279  function transferOwnership(address newOwner) public virtual onlyOwner {... */\n    tag_62:\n        /* \"@openzeppelin/contracts/access/Ownable.sol\":1094:1107  _checkOwner() */\n      tag_116\n        /* \"@openzeppelin/contracts/access/Ownable.sol\":1094:1105  _checkOwner */\n      tag_96\n        /* \"@openzeppelin/contracts/access/Ownable.sol\":1094:1107  _checkOwner() */\n      jump\t// in\n    tag_116:\n        /* \"@openzeppelin/contracts/access/Ownable.sol\":2189:2190  0 */\n      0x00\n        /* \"@openzeppelin/contracts/access/Ownable.sol\":2169:2191  newOwner != address(0) */\n      0xffffffffffffffffffffffffffffffffffffffff\n      and\n        /* \"@openzeppelin/contracts/access/Ownable.sol\":2169:2177  newOwner */\n      dup2\n        /* \"@openzeppelin/contracts/access/Ownable.sol\":2169:2191  newOwner != address(0) */\n      0xffffffffffffffffffffffffffffffffffffffff\n      and\n      eq\n      iszero\n        /* \"@openzeppelin/contracts/access/Ownable.sol\":2161:2234  require(newOwner != address(0), \"Ownable: new owner is the zero address\") */\n      tag_118\n      jumpi\n      mload(0x40)\n      0x08c379a000000000000000000000000000000000000000000000000000000000\n      dup2\n      mstore\n      0x04\n      add\n      tag_119\n      swap1\n      tag_120\n      jump\t// in\n    tag_119:\n      mload(0x40)\n      dup1\n      swap2\n      sub\n      swap1\n      revert\n    tag_118:\n        /* \"@openzeppelin/contracts/access/Ownable.sol\":2244:2272  _transferOwnership(newOwner) */\n      tag_121\n        /* \"@openzeppelin/contracts/access/Ownable.sol\":2263:2271  newOwner */\n      dup2\n        /* \"@openzeppelin/contracts/access/Ownable.sol\":2244:2262  _transferOwnership */\n      tag_113\n        /* \"@openzeppelin/contracts/access/Ownable.sol\":2244:2272  _transferOwnership(newOwner) */\n      jump\t// in\n    tag_121:\n        /* \"@openzeppelin/contracts/access/Ownable.sol\":2081:2279  function transferOwnership(address newOwner) public virtual onlyOwner {... */\n      pop\n      jump\t// out\n        /* \"contracts/FungusFactory.sol\":938:1167  function _generateRandomDna(string calldata _str) private view returns (uint) {... */\n    tag_83:\n        /* \"contracts/FungusFactory.sol\":1010:1014  uint */\n      0x00\n        /* \"contracts/FungusFactory.sol\":1027:1036  uint rand */\n      dup1\n        /* \"contracts/FungusFactory.sol\":1060:1064  _str */\n      dup4\n      dup4\n        /* \"contracts/FungusFactory.sol\":1044:1066  keccak256(bytes(_str)) */\n      mload(0x40)\n      tag_123\n      swap3\n      swap2\n      swap1\n      tag_124\n      jump\t// in\n    tag_123:\n      mload(0x40)\n      dup1\n      swap2\n      sub\n      swap1\n      keccak256\n        /* \"contracts/FungusFactory.sol\":1039:1067  uint(keccak256(bytes(_str))) */\n      0x00\n      shr\n        /* \"contracts/FungusFactory.sol\":1027:1067  uint rand = uint(keccak256(bytes(_str))) */\n      swap1\n      pop\n        /* \"contracts/FungusFactory.sol\":1078:1086  uint dna */\n      0x00\n        /* \"contracts/FungusFactory.sol\":1096:1106  dnaModulus */\n      sload(0x02)\n        /* \"contracts/FungusFactory.sol\":1089:1093  rand */\n      dup3\n        /* \"contracts/FungusFactory.sol\":1089:1106  rand % dnaModulus */\n      tag_125\n      swap2\n      swap1\n      tag_126\n      jump\t// in\n    tag_125:\n        /* \"contracts/FungusFactory.sol\":1078:1106  uint dna = rand % dnaModulus */\n      swap1\n      pop\n        /* \"contracts/FungusFactory.sol\":1135:1138  100 */\n      0x64\n        /* \"contracts/FungusFactory.sol\":1129:1132  dna */\n      dup2\n        /* \"contracts/FungusFactory.sol\":1129:1138  dna % 100 */\n      tag_127\n      swap2\n      swap1\n      tag_126\n      jump\t// in\n    tag_127:\n        /* \"contracts/FungusFactory.sol\":1123:1126  dna */\n      dup2\n        /* \"contracts/FungusFactory.sol\":1123:1138  dna - dna % 100 */\n      tag_128\n      swap2\n      swap1\n      tag_129\n      jump\t// in\n    tag_128:\n        /* \"contracts/FungusFactory.sol\":1117:1138  dna = dna - dna % 100 */\n      swap1\n      pop\n        /* \"contracts/FungusFactory.sol\":1156:1159  dna */\n      dup1\n        /* \"contracts/FungusFactory.sol\":1149:1159  return dna */\n      swap3\n      pop\n      pop\n      pop\n        /* \"contracts/FungusFactory.sol\":938:1167  function _generateRandomDna(string calldata _str) private view returns (uint) {... */\n      swap3\n      swap2\n      pop\n      pop\n      jump\t// out\n        /* \"contracts/FungusFactory.sol\":621:930  function _createFungus(string memory name, uint dna) internal {... */\n    tag_85:\n        /* \"contracts/FungusFactory.sol\":694:699  fungi */\n      0x04\n        /* \"contracts/FungusFactory.sol\":705:762  Fungus(name, dna, uint32(block.timestamp + cooldownTime)) */\n      mload(0x40)\n      dup1\n      0x60\n      add\n      0x40\n      mstore\n      dup1\n        /* \"contracts/FungusFactory.sol\":712:716  name */\n      dup5\n        /* \"contracts/FungusFactory.sol\":705:762  Fungus(name, dna, uint32(block.timestamp + cooldownTime)) */\n      dup2\n      mstore\n      0x20\n      add\n        /* \"contracts/FungusFactory.sol\":718:721  dna */\n      dup4\n        /* \"contracts/FungusFactory.sol\":705:762  Fungus(name, dna, uint32(block.timestamp + cooldownTime)) */\n      dup2\n      mstore\n      0x20\n      add\n        /* \"contracts/FungusFactory.sol\":748:760  cooldownTime */\n      sload(0x03)\n        /* \"contracts/FungusFactory.sol\":730:745  block.timestamp */\n      timestamp\n        /* \"contracts/FungusFactory.sol\":730:760  block.timestamp + cooldownTime */\n      tag_131\n      swap2\n      swap1\n      tag_132\n      jump\t// in\n    tag_131:\n        /* \"contracts/FungusFactory.sol\":705:762  Fungus(name, dna, uint32(block.timestamp + cooldownTime)) */\n      0xffffffff\n      and\n      dup2\n      mstore\n      pop\n        /* \"contracts/FungusFactory.sol\":694:763  fungi.push(Fungus(name, dna, uint32(block.timestamp + cooldownTime))) */\n      swap1\n      dup1\n      0x01\n      dup2\n      sload\n      add\n      dup1\n      dup3\n      sstore\n      dup1\n      swap2\n      pop\n      pop\n      0x01\n      swap1\n      sub\n      swap1\n      0x00\n      mstore\n      keccak256(0x00, 0x20)\n      swap1\n      0x03\n      mul\n      add\n      0x00\n      swap1\n      swap2\n      swap1\n      swap2\n      swap1\n      swap2\n      pop\n      0x00\n      dup3\n      add\n      mload\n      dup2\n      0x00\n      add\n      swap1\n      dup1\n      mload\n      swap1\n      0x20\n      add\n      swap1\n      tag_134\n      swap3\n      swap2\n      swap1\n      tag_135\n      jump\t// in\n    tag_134:\n      pop\n      0x20\n      dup3\n      add\n      mload\n      dup2\n      0x01\n      add\n      sstore\n      0x40\n      dup3\n      add\n      mload\n      dup2\n      0x02\n      add\n      exp(0x0100, 0x00)\n      dup2\n      sload\n      dup2\n      0xffffffff\n      mul\n      not\n      and\n      swap1\n      dup4\n      0xffffffff\n      and\n      mul\n      or\n      swap1\n      sstore\n      pop\n      pop\n      pop\n        /* \"contracts/FungusFactory.sol\":774:781  uint id */\n      0x00\n        /* \"contracts/FungusFactory.sol\":799:800  1 */\n      0x01\n        /* \"contracts/FungusFactory.sol\":784:789  fungi */\n      0x04\n        /* \"contracts/FungusFactory.sol\":784:796  fungi.length */\n      dup1\n      sload\n      swap1\n      pop\n        /* \"contracts/FungusFactory.sol\":784:800  fungi.length - 1 */\n      tag_136\n      swap2\n      swap1\n      tag_129\n      jump\t// in\n    tag_136:\n        /* \"contracts/FungusFactory.sol\":774:800  uint id = fungi.length - 1 */\n      swap1\n      pop\n        /* \"contracts/FungusFactory.sol\":831:841  msg.sender */\n      caller\n        /* \"contracts/FungusFactory.sol\":811:824  fungusToOwner */\n      0x05\n        /* \"contracts/FungusFactory.sol\":811:828  fungusToOwner[id] */\n      0x00\n        /* \"contracts/FungusFactory.sol\":825:827  id */\n      dup4\n        /* \"contracts/FungusFactory.sol\":811:828  fungusToOwner[id] */\n      dup2\n      mstore\n      0x20\n      add\n      swap1\n      dup2\n      mstore\n      0x20\n      add\n      0x00\n      keccak256\n      0x00\n        /* \"contracts/FungusFactory.sol\":811:841  fungusToOwner[id] = msg.sender */\n      0x0100\n      exp\n      dup2\n      sload\n      dup2\n      0xffffffffffffffffffffffffffffffffffffffff\n      mul\n      not\n      and\n      swap1\n      dup4\n      0xffffffffffffffffffffffffffffffffffffffff\n      and\n      mul\n      or\n      swap1\n      sstore\n      pop\n        /* \"contracts/FungusFactory.sol\":852:868  ownerFungusCount */\n      0x06\n        /* \"contracts/FungusFactory.sol\":852:880  ownerFungusCount[msg.sender] */\n      0x00\n        /* \"contracts/FungusFactory.sol\":869:879  msg.sender */\n      caller\n        /* \"contracts/FungusFactory.sol\":852:880  ownerFungusCount[msg.sender] */\n      0xffffffffffffffffffffffffffffffffffffffff\n      and\n      0xffffffffffffffffffffffffffffffffffffffff\n      and\n      dup2\n      mstore\n      0x20\n      add\n      swap1\n      dup2\n      mstore\n      0x20\n      add\n      0x00\n      keccak256\n      0x00\n        /* \"contracts/FungusFactory.sol\":852:882  ownerFungusCount[msg.sender]++ */\n      dup2\n      sload\n      dup1\n      swap3\n      swap2\n      swap1\n      tag_137\n      swap1\n      tag_76\n      jump\t// in\n    tag_137:\n      swap2\n      swap1\n      pop\n      sstore\n      pop\n        /* \"contracts/FungusFactory.sol\":898:922  NewFungus(id, name, dna) */\n      0xe7cedaa81d0ef09a46e22de5467585892163b2b6e985d853c385ced0fe5c02ef\n        /* \"contracts/FungusFactory.sol\":908:910  id */\n      dup2\n        /* \"contracts/FungusFactory.sol\":912:916  name */\n      dup5\n        /* \"contracts/FungusFactory.sol\":918:921  dna */\n      dup5\n        /* \"contracts/FungusFactory.sol\":898:922  NewFungus(id, name, dna) */\n      mload(0x40)\n      tag_138\n      swap4\n      swap3\n      swap2\n      swap1\n      tag_139\n      jump\t// in\n    tag_138:\n      mload(0x40)\n      dup1\n      swap2\n      sub\n      swap1\n      log1\n        /* \"contracts/FungusFactory.sol\":683:930  {... */\n      pop\n        /* \"contracts/FungusFactory.sol\":621:930  function _createFungus(string memory name, uint dna) internal {... */\n      pop\n      pop\n      jump\t// out\n        /* \"@openzeppelin/contracts/access/Ownable.sol\":1359:1489  function _checkOwner() internal view virtual {... */\n    tag_96:\n        /* \"@openzeppelin/contracts/access/Ownable.sol\":1433:1445  _msgSender() */\n      tag_141\n        /* \"@openzeppelin/contracts/access/Ownable.sol\":1433:1443  _msgSender */\n      tag_142\n        /* \"@openzeppelin/contracts/access/Ownable.sol\":1433:1445  _msgSender() */\n      jump\t// in\n    tag_141:\n        /* \"@openzeppelin/contracts/access/Ownable.sol\":1422:1445  owner() == _msgSender() */\n      0xffffffffffffffffffffffffffffffffffffffff\n      and\n        /* \"@openzeppelin/contracts/access/Ownable.sol\":1422:1429  owner() */\n      tag_143\n        /* \"@openzeppelin/contracts/access/Ownable.sol\":1422:1427  owner */\n      tag_57\n        /* \"@openzeppelin/contracts/access/Ownable.sol\":1422:1429  owner() */\n      jump\t// in\n    tag_143:\n        /* \"@openzeppelin/contracts/access/Ownable.sol\":1422:1445  owner() == _msgSender() */\n      0xffffffffffffffffffffffffffffffffffffffff\n      and\n      eq\n        /* \"@openzeppelin/contracts/access/Ownable.sol\":1414:1482  require(owner() == _msgSender(), \"Ownable: caller is not the owner\") */\n      tag_144\n      jumpi\n      mload(0x40)\n      0x08c379a000000000000000000000000000000000000000000000000000000000\n      dup2\n      mstore\n      0x04\n      add\n      tag_145\n      swap1\n      tag_146\n      jump\t// in\n    tag_145:\n      mload(0x40)\n      dup1\n      swap2\n      sub\n      swap1\n      revert\n    tag_144:\n        /* \"@openzeppelin/contracts/access/Ownable.sol\":1359:1489  function _checkOwner() internal view virtual {... */\n      jump\t// out\n        /* \"contracts/FungusFeeding.sol\":1640:2166  function feedAndMultiply(uint fungusId, uint targetDna, string memory species) internal onlyOwnerOf(fungusId) {... */\n    tag_108:\n        /* \"contracts/FungusFeeding.sol\":1740:1748  fungusId */\n      dup3\n        /* \"contracts/FungusFeeding.sol\":963:976  fungusToOwner */\n      0x05\n        /* \"contracts/FungusFeeding.sol\":963:986  fungusToOwner[fungusId] */\n      0x00\n        /* \"contracts/FungusFeeding.sol\":977:985  fungusId */\n      dup3\n        /* \"contracts/FungusFeeding.sol\":963:986  fungusToOwner[fungusId] */\n      dup2\n      mstore\n      0x20\n      add\n      swap1\n      dup2\n      mstore\n      0x20\n      add\n      0x00\n      keccak256\n      0x00\n      swap1\n      sload\n      swap1\n      0x0100\n      exp\n      swap1\n      div\n      0xffffffffffffffffffffffffffffffffffffffff\n      and\n        /* \"contracts/FungusFeeding.sol\":947:986  _msgSender() == fungusToOwner[fungusId] */\n      0xffffffffffffffffffffffffffffffffffffffff\n      and\n        /* \"contracts/FungusFeeding.sol\":947:959  _msgSender() */\n      tag_148\n        /* \"contracts/FungusFeeding.sol\":947:957  _msgSender */\n      tag_142\n        /* \"contracts/FungusFeeding.sol\":947:959  _msgSender() */\n      jump\t// in\n    tag_148:\n        /* \"contracts/FungusFeeding.sol\":947:986  _msgSender() == fungusToOwner[fungusId] */\n      0xffffffffffffffffffffffffffffffffffffffff\n      and\n      eq\n        /* \"contracts/FungusFeeding.sol\":939:987  require(_msgSender() == fungusToOwner[fungusId]) */\n      tag_149\n      jumpi\n      0x00\n      dup1\n      revert\n    tag_149:\n        /* \"contracts/FungusFeeding.sol\":1761:1783  Fungus memory myFungus */\n      0x00\n        /* \"contracts/FungusFeeding.sol\":1786:1791  fungi */\n      0x04\n        /* \"contracts/FungusFeeding.sol\":1792:1800  fungusId */\n      dup6\n        /* \"contracts/FungusFeeding.sol\":1786:1801  fungi[fungusId] */\n      dup2\n      sload\n      dup2\n      lt\n      tag_151\n      jumpi\n      tag_152\n      tag_74\n      jump\t// in\n    tag_152:\n    tag_151:\n      swap1\n      0x00\n      mstore\n      keccak256(0x00, 0x20)\n      swap1\n      0x03\n      mul\n      add\n        /* \"contracts/FungusFeeding.sol\":1761:1801  Fungus memory myFungus = fungi[fungusId] */\n      mload(0x40)\n      dup1\n      0x60\n      add\n      0x40\n      mstore\n      swap1\n      dup2\n      0x00\n      dup3\n      add\n      dup1\n      sload\n      tag_154\n      swap1\n      tag_89\n      jump\t// in\n    tag_154:\n      dup1\n      0x1f\n      add\n      0x20\n      dup1\n      swap2\n      div\n      mul\n      0x20\n      add\n      mload(0x40)\n      swap1\n      dup2\n      add\n      0x40\n      mstore\n      dup1\n      swap3\n      swap2\n      swap1\n      dup2\n      dup2\n      mstore\n      0x20\n      add\n      dup3\n      dup1\n      sload\n      tag_155\n      swap1\n      tag_89\n      jump\t// in\n    tag_155:\n      dup1\n      iszero\n      tag_156\n      jumpi\n      dup1\n      0x1f\n      lt\n      tag_157\n      jumpi\n      0x0100\n      dup1\n      dup4\n      sload\n      div\n      mul\n      dup4\n      mstore\n      swap2\n      0x20\n      add\n      swap2\n      jump(tag_156)\n    tag_157:\n      dup3\n      add\n      swap2\n      swap1\n      0x00\n      mstore\n      keccak256(0x00, 0x20)\n      swap1\n    tag_158:\n      dup2\n      sload\n      dup2\n      mstore\n      swap1\n      0x01\n      add\n      swap1\n      0x20\n      add\n      dup1\n      dup4\n      gt\n      tag_158\n      jumpi\n      dup3\n      swap1\n      sub\n      0x1f\n      and\n      dup3\n      add\n      swap2\n    tag_156:\n      pop\n      pop\n      pop\n      pop\n      pop\n      dup2\n      mstore\n      0x20\n      add\n      0x01\n      dup3\n      add\n      sload\n      dup2\n      mstore\n      0x20\n      add\n      0x02\n      dup3\n      add\n      0x00\n      swap1\n      sload\n      swap1\n      0x0100\n      exp\n      swap1\n      div\n      0xffffffff\n      and\n      0xffffffff\n      and\n      0xffffffff\n      and\n      dup2\n      mstore\n      pop\n      pop\n      swap1\n      pop\n        /* \"contracts/FungusFeeding.sol\":1820:1838  _isReady(myFungus) */\n      tag_159\n        /* \"contracts/FungusFeeding.sol\":1829:1837  myFungus */\n      dup2\n        /* \"contracts/FungusFeeding.sol\":1820:1828  _isReady */\n      tag_160\n        /* \"contracts/FungusFeeding.sol\":1820:1838  _isReady(myFungus) */\n      jump\t// in\n    tag_159:\n        /* \"contracts/FungusFeeding.sol\":1812:1852  require(_isReady(myFungus), \"not ready\") */\n      tag_161\n      jumpi\n      mload(0x40)\n      0x08c379a000000000000000000000000000000000000000000000000000000000\n      dup2\n      mstore\n      0x04\n      add\n      tag_162\n      swap1\n      tag_163\n      jump\t// in\n    tag_162:\n      mload(0x40)\n      dup1\n      swap2\n      sub\n      swap1\n      revert\n    tag_161:\n        /* \"contracts/FungusFeeding.sol\":1887:1897  dnaModulus */\n      sload(0x02)\n        /* \"contracts/FungusFeeding.sol\":1875:1884  targetDna */\n      dup5\n        /* \"contracts/FungusFeeding.sol\":1875:1897  targetDna % dnaModulus */\n      tag_164\n      swap2\n      swap1\n      tag_126\n      jump\t// in\n    tag_164:\n        /* \"contracts/FungusFeeding.sol\":1863:1897  targetDna = targetDna % dnaModulus */\n      swap4\n      pop\n        /* \"contracts/FungusFeeding.sol\":1908:1919  uint newDna */\n      0x00\n        /* \"contracts/FungusFeeding.sol\":1951:1952  2 */\n      0x02\n        /* \"contracts/FungusFeeding.sol\":1938:1947  targetDna */\n      dup6\n        /* \"contracts/FungusFeeding.sol\":1923:1931  myFungus */\n      dup4\n        /* \"contracts/FungusFeeding.sol\":1923:1935  myFungus.dna */\n      0x20\n      add\n      mload\n        /* \"contracts/FungusFeeding.sol\":1923:1947  myFungus.dna + targetDna */\n      tag_165\n      swap2\n      swap1\n      tag_132\n      jump\t// in\n    tag_165:\n        /* \"contracts/FungusFeeding.sol\":1922:1952  (myFungus.dna + targetDna) / 2 */\n      tag_166\n      swap2\n      swap1\n      tag_167\n      jump\t// in\n    tag_166:\n        /* \"contracts/FungusFeeding.sol\":1908:1952  uint newDna = (myFungus.dna + targetDna) / 2 */\n      swap1\n      pop\n        /* \"contracts/FungusFeeding.sol\":1998:2015  keccak256(\"feed\") */\n      0x4258863e2d81c316e4a4dd381c3c50f57f933be22afba98b4485a605da0f7811\n        /* \"contracts/FungusFeeding.sol\":1985:1992  species */\n      dup5\n        /* \"contracts/FungusFeeding.sol\":1969:1994  keccak256(bytes(species)) */\n      dup1\n      mload\n      swap1\n      0x20\n      add\n      keccak256\n        /* \"contracts/FungusFeeding.sol\":1969:2015  keccak256(bytes(species)) == keccak256(\"feed\") */\n      eq\n        /* \"contracts/FungusFeeding.sol\":1965:2078  if (keccak256(bytes(species)) == keccak256(\"feed\")) {... */\n      iszero\n      tag_168\n      jumpi\n        /* \"contracts/FungusFeeding.sol\":2065:2066  1 */\n      0x01\n        /* \"contracts/FungusFeeding.sol\":2059:2062  100 */\n      0x64\n        /* \"contracts/FungusFeeding.sol\":2050:2056  newDna */\n      dup3\n        /* \"contracts/FungusFeeding.sol\":2050:2062  newDna % 100 */\n      tag_169\n      swap2\n      swap1\n      tag_126\n      jump\t// in\n    tag_169:\n        /* \"contracts/FungusFeeding.sol\":2041:2047  newDna */\n      dup3\n        /* \"contracts/FungusFeeding.sol\":2041:2062  newDna - newDna % 100 */\n      tag_170\n      swap2\n      swap1\n      tag_129\n      jump\t// in\n    tag_170:\n        /* \"contracts/FungusFeeding.sol\":2041:2066  newDna - newDna % 100 + 1 */\n      tag_171\n      swap2\n      swap1\n      tag_132\n      jump\t// in\n    tag_171:\n        /* \"contracts/FungusFeeding.sol\":2032:2066  newDna = newDna - newDna % 100 + 1 */\n      swap1\n      pop\n        /* \"contracts/FungusFeeding.sol\":1965:2078  if (keccak256(bytes(species)) == keccak256(\"feed\")) {... */\n    tag_168:\n        /* \"contracts/FungusFeeding.sol\":2090:2121  _createFungus(\"Noname\", newDna) */\n      tag_172\n      mload(0x40)\n      dup1\n      0x40\n      add\n      0x40\n      mstore\n      dup1\n      0x06\n      dup2\n      mstore\n      0x20\n      add\n      0x4e6f6e616d650000000000000000000000000000000000000000000000000000\n      dup2\n      mstore\n      pop\n        /* \"contracts/FungusFeeding.sol\":2114:2120  newDna */\n      dup3\n        /* \"contracts/FungusFeeding.sol\":2090:2103  _createFungus */\n      tag_85\n        /* \"contracts/FungusFeeding.sol\":2090:2121  _createFungus(\"Noname\", newDna) */\n      jump\t// in\n    tag_172:\n        /* \"contracts/FungusFeeding.sol\":2132:2158  _triggerCooldown(myFungus) */\n      tag_173\n        /* \"contracts/FungusFeeding.sol\":2149:2157  myFungus */\n      dup3\n        /* \"contracts/FungusFeeding.sol\":2132:2148  _triggerCooldown */\n      tag_174\n        /* \"contracts/FungusFeeding.sol\":2132:2158  _triggerCooldown(myFungus) */\n      jump\t// in\n    tag_173:\n        /* \"contracts/FungusFeeding.sol\":1750:2166  {... */\n      pop\n      pop\n        /* \"contracts/FungusFeeding.sol\":1640:2166  function feedAndMultiply(uint fungusId, uint targetDna, string memory species) internal onlyOwnerOf(fungusId) {... */\n      pop\n      pop\n      pop\n      pop\n      jump\t// out\n        /* \"@openzeppelin/contracts/access/Ownable.sol\":2433:2620  function _transferOwnership(address newOwner) internal virtual {... */\n    tag_113:\n        /* \"@openzeppelin/contracts/access/Ownable.sol\":2506:2522  address oldOwner */\n      0x00\n        /* \"@openzeppelin/contracts/access/Ownable.sol\":2525:2531  _owner */\n      dup1\n      0x00\n      swap1\n      sload\n      swap1\n      0x0100\n      exp\n      swap1\n      div\n      0xffffffffffffffffffffffffffffffffffffffff\n      and\n        /* \"@openzeppelin/contracts/access/Ownable.sol\":2506:2531  address oldOwner = _owner */\n      swap1\n      pop\n        /* \"@openzeppelin/contracts/access/Ownable.sol\":2550:2558  newOwner */\n      dup2\n        /* \"@openzeppelin/contracts/access/Ownable.sol\":2541:2547  _owner */\n      0x00\n      dup1\n        /* \"@openzeppelin/contracts/access/Ownable.sol\":2541:2558  _owner = newOwner */\n      0x0100\n      exp\n      dup2\n      sload\n      dup2\n      0xffffffffffffffffffffffffffffffffffffffff\n      mul\n      not\n      and\n      swap1\n      dup4\n      0xffffffffffffffffffffffffffffffffffffffff\n      and\n      mul\n      or\n      swap1\n      sstore\n      pop\n        /* \"@openzeppelin/contracts/access/Ownable.sol\":2604:2612  newOwner */\n      dup2\n        /* \"@openzeppelin/contracts/access/Ownable.sol\":2573:2613  OwnershipTransferred(oldOwner, newOwner) */\n      0xffffffffffffffffffffffffffffffffffffffff\n      and\n        /* \"@openzeppelin/contracts/access/Ownable.sol\":2594:2602  oldOwner */\n      dup2\n        /* \"@openzeppelin/contracts/access/Ownable.sol\":2573:2613  OwnershipTransferred(oldOwner, newOwner) */\n      0xffffffffffffffffffffffffffffffffffffffff\n      and\n      0x8be0079c531659141344cd1fd0a4f28419497f9722a3daafe3b4186f6b6457e0\n      mload(0x40)\n      mload(0x40)\n      dup1\n      swap2\n      sub\n      swap1\n      log3\n        /* \"@openzeppelin/contracts/access/Ownable.sol\":2496:2620  {... */\n      pop\n        /* \"@openzeppelin/contracts/access/Ownable.sol\":2433:2620  function _transferOwnership(address newOwner) internal virtual {... */\n      pop\n      jump\t// out\n        /* \"@openzeppelin/contracts/utils/Context.sol\":640:736  function _msgSender() internal view virtual returns (address) {... */\n    tag_142:\n        /* \"@openzeppelin/contracts/utils/Context.sol\":693:700  address */\n      0x00\n        /* \"@openzeppelin/contracts/utils/Context.sol\":719:729  msg.sender */\n      caller\n        /* \"@openzeppelin/contracts/utils/Context.sol\":712:729  return msg.sender */\n      swap1\n      pop\n        /* \"@openzeppelin/contracts/utils/Context.sol\":640:736  function _msgSender() internal view virtual returns (address) {... */\n      swap1\n      jump\t// out\n        /* \"contracts/FungusFeeding.sol\":1500:1632  function _isReady(Fungus memory fungus) internal view returns (bool) {... */\n    tag_160:\n        /* \"contracts/FungusFeeding.sol\":1563:1567  bool */\n      0x00\n        /* \"contracts/FungusFeeding.sol\":1608:1623  block.timestamp */\n      timestamp\n        /* \"contracts/FungusFeeding.sol\":1588:1594  fungus */\n      dup3\n        /* \"contracts/FungusFeeding.sol\":1588:1604  fungus.readyTime */\n      0x40\n      add\n      mload\n        /* \"contracts/FungusFeeding.sol\":1588:1623  fungus.readyTime <= block.timestamp */\n      0xffffffff\n      and\n      gt\n      iszero\n        /* \"contracts/FungusFeeding.sol\":1580:1624  return (fungus.readyTime <= block.timestamp) */\n      swap1\n      pop\n        /* \"contracts/FungusFeeding.sol\":1500:1632  function _isReady(Fungus memory fungus) internal view returns (bool) {... */\n      swap2\n      swap1\n      pop\n      jump\t// out\n        /* \"contracts/FungusFeeding.sol\":1350:1492  function _triggerCooldown(Fungus memory fungus) internal view {    ... */\n    tag_174:\n        /* \"contracts/FungusFeeding.sol\":1471:1483  cooldownTime */\n      sload(0x03)\n        /* \"contracts/FungusFeeding.sol\":1453:1468  block.timestamp */\n      timestamp\n        /* \"contracts/FungusFeeding.sol\":1453:1483  block.timestamp + cooldownTime */\n      tag_179\n      swap2\n      swap1\n      tag_132\n      jump\t// in\n    tag_179:\n        /* \"contracts/FungusFeeding.sol\":1427:1433  fungus */\n      dup2\n        /* \"contracts/FungusFeeding.sol\":1427:1443  fungus.readyTime */\n      0x40\n      add\n        /* \"contracts/FungusFeeding.sol\":1427:1484  fungus.readyTime = uint32(block.timestamp + cooldownTime) */\n      swap1\n      0xffffffff\n      and\n      swap1\n      dup2\n      0xffffffff\n      and\n      dup2\n      mstore\n      pop\n      pop\n        /* \"contracts/FungusFeeding.sol\":1350:1492  function _triggerCooldown(Fungus memory fungus) internal view {    ... */\n      pop\n      jump\t// out\n    tag_135:\n      dup3\n      dup1\n      sload\n      tag_180\n      swap1\n      tag_89\n      jump\t// in\n    tag_180:\n      swap1\n      0x00\n      mstore\n      keccak256(0x00, 0x20)\n      swap1\n      0x1f\n      add\n      0x20\n      swap1\n      div\n      dup2\n      add\n      swap3\n      dup3\n      tag_182\n      jumpi\n      0x00\n      dup6\n      sstore\n      jump(tag_181)\n    tag_182:\n      dup3\n      0x1f\n      lt\n      tag_183\n      jumpi\n      dup1\n      mload\n      not(0xff)\n      and\n      dup4\n      dup1\n      add\n      or\n      dup6\n      sstore\n      jump(tag_181)\n    tag_183:\n      dup3\n      dup1\n      add\n      0x01\n      add\n      dup6\n      sstore\n      dup3\n      iszero\n      tag_181\n      jumpi\n      swap2\n      dup3\n      add\n    tag_184:\n      dup3\n      dup2\n      gt\n      iszero\n      tag_185\n      jumpi\n      dup3\n      mload\n      dup3\n      sstore\n      swap2\n      0x20\n      add\n      swap2\n      swap1\n      0x01\n      add\n      swap1\n      jump(tag_184)\n    tag_185:\n    tag_181:\n      pop\n      swap1\n      pop\n      tag_186\n      swap2\n      swap1\n      tag_187\n      jump\t// in\n    tag_186:\n      pop\n      swap1\n      jump\t// out\n    tag_187:\n    tag_188:\n      dup1\n      dup3\n      gt\n      iszero\n      tag_189\n      jumpi\n      0x00\n      dup2\n      0x00\n      swap1\n      sstore\n      pop\n      0x01\n      add\n      jump(tag_188)\n    tag_189:\n      pop\n      swap1\n      jump\t// out\n        /* \"#utility.yul\":7:82   */\n    tag_190:\n        /* \"#utility.yul\":40:46   */\n      0x00\n        /* \"#utility.yul\":73:75   */\n      0x40\n        /* \"#utility.yul\":67:76   */\n      mload\n        /* \"#utility.yul\":57:76   */\n      swap1\n      pop\n        /* \"#utility.yul\":7:82   */\n      swap1\n      jump\t// out\n        /* \"#utility.yul\":88:205   */\n    tag_191:\n        /* \"#utility.yul\":197:198   */\n      0x00\n        /* \"#utility.yul\":194:195   */\n      dup1\n        /* \"#utility.yul\":187:199   */\n      revert\n        /* \"#utility.yul\":211:328   */\n    tag_192:\n        /* \"#utility.yul\":320:321   */\n      0x00\n        /* \"#utility.yul\":317:318   */\n      dup1\n        /* \"#utility.yul\":310:322   */\n      revert\n        /* \"#utility.yul\":334:411   */\n    tag_193:\n        /* \"#utility.yul\":371:378   */\n      0x00\n        /* \"#utility.yul\":400:405   */\n      dup2\n        /* \"#utility.yul\":389:405   */\n      swap1\n      pop\n        /* \"#utility.yul\":334:411   */\n      swap2\n      swap1\n      pop\n      jump\t// out\n        /* \"#utility.yul\":417:539   */\n    tag_194:\n        /* \"#utility.yul\":490:514   */\n      tag_249\n        /* \"#utility.yul\":508:513   */\n      dup2\n        /* \"#utility.yul\":490:514   */\n      tag_193\n      jump\t// in\n    tag_249:\n        /* \"#utility.yul\":483:488   */\n      dup2\n        /* \"#utility.yul\":480:515   */\n      eq\n        /* \"#utility.yul\":470:533   */\n      tag_250\n      jumpi\n        /* \"#utility.yul\":529:530   */\n      0x00\n        /* \"#utility.yul\":526:527   */\n      dup1\n        /* \"#utility.yul\":519:531   */\n      revert\n        /* \"#utility.yul\":470:533   */\n    tag_250:\n        /* \"#utility.yul\":417:539   */\n      pop\n      jump\t// out\n        /* \"#utility.yul\":545:684   */\n    tag_195:\n        /* \"#utility.yul\":591:596   */\n      0x00\n        /* \"#utility.yul\":629:635   */\n      dup2\n        /* \"#utility.yul\":616:636   */\n      calldataload\n        /* \"#utility.yul\":607:636   */\n      swap1\n      pop\n        /* \"#utility.yul\":645:678   */\n      tag_252\n        /* \"#utility.yul\":672:677   */\n      dup2\n        /* \"#utility.yul\":645:678   */\n      tag_194\n      jump\t// in\n    tag_252:\n        /* \"#utility.yul\":545:684   */\n      swap3\n      swap2\n      pop\n      pop\n      jump\t// out\n        /* \"#utility.yul\":690:1019   */\n    tag_16:\n        /* \"#utility.yul\":749:755   */\n      0x00\n        /* \"#utility.yul\":798:800   */\n      0x20\n        /* \"#utility.yul\":786:795   */\n      dup3\n        /* \"#utility.yul\":777:784   */\n      dup5\n        /* \"#utility.yul\":773:796   */\n      sub\n        /* \"#utility.yul\":769:801   */\n      slt\n        /* \"#utility.yul\":766:885   */\n      iszero\n      tag_254\n      jumpi\n        /* \"#utility.yul\":804:883   */\n      tag_255\n      tag_191\n      jump\t// in\n    tag_255:\n        /* \"#utility.yul\":766:885   */\n    tag_254:\n        /* \"#utility.yul\":924:925   */\n      0x00\n        /* \"#utility.yul\":949:1002   */\n      tag_256\n        /* \"#utility.yul\":994:1001   */\n      dup5\n        /* \"#utility.yul\":985:991   */\n      dup3\n        /* \"#utility.yul\":974:983   */\n      dup6\n        /* \"#utility.yul\":970:992   */\n      add\n        /* \"#utility.yul\":949:1002   */\n      tag_195\n      jump\t// in\n    tag_256:\n        /* \"#utility.yul\":939:1002   */\n      swap2\n      pop\n        /* \"#utility.yul\":895:1012   */\n      pop\n        /* \"#utility.yul\":690:1019   */\n      swap3\n      swap2\n      pop\n      pop\n      jump\t// out\n        /* \"#utility.yul\":1025:1151   */\n    tag_196:\n        /* \"#utility.yul\":1062:1069   */\n      0x00\n        /* \"#utility.yul\":1102:1144   */\n      0xffffffffffffffffffffffffffffffffffffffff\n        /* \"#utility.yul\":1095:1100   */\n      dup3\n        /* \"#utility.yul\":1091:1145   */\n      and\n        /* \"#utility.yul\":1080:1145   */\n      swap1\n      pop\n        /* \"#utility.yul\":1025:1151   */\n      swap2\n      swap1\n      pop\n      jump\t// out\n        /* \"#utility.yul\":1157:1253   */\n    tag_197:\n        /* \"#utility.yul\":1194:1201   */\n      0x00\n        /* \"#utility.yul\":1223:1247   */\n      tag_259\n        /* \"#utility.yul\":1241:1246   */\n      dup3\n        /* \"#utility.yul\":1223:1247   */\n      tag_196\n      jump\t// in\n    tag_259:\n        /* \"#utility.yul\":1212:1247   */\n      swap1\n      pop\n        /* \"#utility.yul\":1157:1253   */\n      swap2\n      swap1\n      pop\n      jump\t// out\n        /* \"#utility.yul\":1259:1377   */\n    tag_198:\n        /* \"#utility.yul\":1346:1370   */\n      tag_261\n        /* \"#utility.yul\":1364:1369   */\n      dup2\n        /* \"#utility.yul\":1346:1370   */\n      tag_197\n      jump\t// in\n    tag_261:\n        /* \"#utility.yul\":1341:1344   */\n      dup3\n        /* \"#utility.yul\":1334:1371   */\n      mstore\n        /* \"#utility.yul\":1259:1377   */\n      pop\n      pop\n      jump\t// out\n        /* \"#utility.yul\":1383:1605   */\n    tag_19:\n        /* \"#utility.yul\":1476:1480   */\n      0x00\n        /* \"#utility.yul\":1514:1516   */\n      0x20\n        /* \"#utility.yul\":1503:1512   */\n      dup3\n        /* \"#utility.yul\":1499:1517   */\n      add\n        /* \"#utility.yul\":1491:1517   */\n      swap1\n      pop\n        /* \"#utility.yul\":1527:1598   */\n      tag_263\n        /* \"#utility.yul\":1595:1596   */\n      0x00\n        /* \"#utility.yul\":1584:1593   */\n      dup4\n        /* \"#utility.yul\":1580:1597   */\n      add\n        /* \"#utility.yul\":1571:1577   */\n      dup5\n        /* \"#utility.yul\":1527:1598   */\n      tag_198\n      jump\t// in\n    tag_263:\n        /* \"#utility.yul\":1383:1605   */\n      swap3\n      swap2\n      pop\n      pop\n      jump\t// out\n        /* \"#utility.yul\":1611:1733   */\n    tag_199:\n        /* \"#utility.yul\":1684:1708   */\n      tag_265\n        /* \"#utility.yul\":1702:1707   */\n      dup2\n        /* \"#utility.yul\":1684:1708   */\n      tag_197\n      jump\t// in\n    tag_265:\n        /* \"#utility.yul\":1677:1682   */\n      dup2\n        /* \"#utility.yul\":1674:1709   */\n      eq\n        /* \"#utility.yul\":1664:1727   */\n      tag_266\n      jumpi\n        /* \"#utility.yul\":1723:1724   */\n      0x00\n        /* \"#utility.yul\":1720:1721   */\n      dup1\n        /* \"#utility.yul\":1713:1725   */\n      revert\n        /* \"#utility.yul\":1664:1727   */\n    tag_266:\n        /* \"#utility.yul\":1611:1733   */\n      pop\n      jump\t// out\n        /* \"#utility.yul\":1739:1878   */\n    tag_200:\n        /* \"#utility.yul\":1785:1790   */\n      0x00\n        /* \"#utility.yul\":1823:1829   */\n      dup2\n        /* \"#utility.yul\":1810:1830   */\n      calldataload\n        /* \"#utility.yul\":1801:1830   */\n      swap1\n      pop\n        /* \"#utility.yul\":1839:1872   */\n      tag_268\n        /* \"#utility.yul\":1866:1871   */\n      dup2\n        /* \"#utility.yul\":1839:1872   */\n      tag_199\n      jump\t// in\n    tag_268:\n        /* \"#utility.yul\":1739:1878   */\n      swap3\n      swap2\n      pop\n      pop\n      jump\t// out\n        /* \"#utility.yul\":1884:2213   */\n    tag_23:\n        /* \"#utility.yul\":1943:1949   */\n      0x00\n        /* \"#utility.yul\":1992:1994   */\n      0x20\n        /* \"#utility.yul\":1980:1989   */\n      dup3\n        /* \"#utility.yul\":1971:1978   */\n      dup5\n        /* \"#utility.yul\":1967:1990   */\n      sub\n        /* \"#utility.yul\":1963:1995   */\n      slt\n        /* \"#utility.yul\":1960:2079   */\n      iszero\n      tag_270\n      jumpi\n        /* \"#utility.yul\":1998:2077   */\n      tag_271\n      tag_191\n      jump\t// in\n    tag_271:\n        /* \"#utility.yul\":1960:2079   */\n    tag_270:\n        /* \"#utility.yul\":2118:2119   */\n      0x00\n        /* \"#utility.yul\":2143:2196   */\n      tag_272\n        /* \"#utility.yul\":2188:2195   */\n      dup5\n        /* \"#utility.yul\":2179:2185   */\n      dup3\n        /* \"#utility.yul\":2168:2177   */\n      dup6\n        /* \"#utility.yul\":2164:2186   */\n      add\n        /* \"#utility.yul\":2143:2196   */\n      tag_200\n      jump\t// in\n    tag_272:\n        /* \"#utility.yul\":2133:2196   */\n      swap2\n      pop\n        /* \"#utility.yul\":2089:2206   */\n      pop\n        /* \"#utility.yul\":1884:2213   */\n      swap3\n      swap2\n      pop\n      pop\n      jump\t// out\n        /* \"#utility.yul\":2219:2333   */\n    tag_201:\n        /* \"#utility.yul\":2286:2292   */\n      0x00\n        /* \"#utility.yul\":2320:2325   */\n      dup2\n        /* \"#utility.yul\":2314:2326   */\n      mload\n        /* \"#utility.yul\":2304:2326   */\n      swap1\n      pop\n        /* \"#utility.yul\":2219:2333   */\n      swap2\n      swap1\n      pop\n      jump\t// out\n        /* \"#utility.yul\":2339:2523   */\n    tag_202:\n        /* \"#utility.yul\":2438:2449   */\n      0x00\n        /* \"#utility.yul\":2472:2478   */\n      dup3\n        /* \"#utility.yul\":2467:2470   */\n      dup3\n        /* \"#utility.yul\":2460:2479   */\n      mstore\n        /* \"#utility.yul\":2512:2516   */\n      0x20\n        /* \"#utility.yul\":2507:2510   */\n      dup3\n        /* \"#utility.yul\":2503:2517   */\n      add\n        /* \"#utility.yul\":2488:2517   */\n      swap1\n      pop\n        /* \"#utility.yul\":2339:2523   */\n      swap3\n      swap2\n      pop\n      pop\n      jump\t// out\n        /* \"#utility.yul\":2529:2661   */\n    tag_203:\n        /* \"#utility.yul\":2596:2600   */\n      0x00\n        /* \"#utility.yul\":2619:2622   */\n      dup2\n        /* \"#utility.yul\":2611:2622   */\n      swap1\n      pop\n        /* \"#utility.yul\":2649:2653   */\n      0x20\n        /* \"#utility.yul\":2644:2647   */\n      dup3\n        /* \"#utility.yul\":2640:2654   */\n      add\n        /* \"#utility.yul\":2632:2654   */\n      swap1\n      pop\n        /* \"#utility.yul\":2529:2661   */\n      swap2\n      swap1\n      pop\n      jump\t// out\n        /* \"#utility.yul\":2667:2775   */\n    tag_204:\n        /* \"#utility.yul\":2744:2768   */\n      tag_277\n        /* \"#utility.yul\":2762:2767   */\n      dup2\n        /* \"#utility.yul\":2744:2768   */\n      tag_193\n      jump\t// in\n    tag_277:\n        /* \"#utility.yul\":2739:2742   */\n      dup3\n        /* \"#utility.yul\":2732:2769   */\n      mstore\n        /* \"#utility.yul\":2667:2775   */\n      pop\n      pop\n      jump\t// out\n        /* \"#utility.yul\":2781:2960   */\n    tag_205:\n        /* \"#utility.yul\":2850:2860   */\n      0x00\n        /* \"#utility.yul\":2871:2917   */\n      tag_279\n        /* \"#utility.yul\":2913:2916   */\n      dup4\n        /* \"#utility.yul\":2905:2911   */\n      dup4\n        /* \"#utility.yul\":2871:2917   */\n      tag_204\n      jump\t// in\n    tag_279:\n        /* \"#utility.yul\":2949:2953   */\n      0x20\n        /* \"#utility.yul\":2944:2947   */\n      dup4\n        /* \"#utility.yul\":2940:2954   */\n      add\n        /* \"#utility.yul\":2926:2954   */\n      swap1\n      pop\n        /* \"#utility.yul\":2781:2960   */\n      swap3\n      swap2\n      pop\n      pop\n      jump\t// out\n        /* \"#utility.yul\":2966:3079   */\n    tag_206:\n        /* \"#utility.yul\":3036:3040   */\n      0x00\n        /* \"#utility.yul\":3068:3072   */\n      0x20\n        /* \"#utility.yul\":3063:3066   */\n      dup3\n        /* \"#utility.yul\":3059:3073   */\n      add\n        /* \"#utility.yul\":3051:3073   */\n      swap1\n      pop\n        /* \"#utility.yul\":2966:3079   */\n      swap2\n      swap1\n      pop\n      jump\t// out\n        /* \"#utility.yul\":3115:3847   */\n    tag_207:\n        /* \"#utility.yul\":3234:3237   */\n      0x00\n        /* \"#utility.yul\":3263:3317   */\n      tag_282\n        /* \"#utility.yul\":3311:3316   */\n      dup3\n        /* \"#utility.yul\":3263:3317   */\n      tag_201\n      jump\t// in\n    tag_282:\n        /* \"#utility.yul\":3333:3419   */\n      tag_283\n        /* \"#utility.yul\":3412:3418   */\n      dup2\n        /* \"#utility.yul\":3407:3410   */\n      dup6\n        /* \"#utility.yul\":3333:3419   */\n      tag_202\n      jump\t// in\n    tag_283:\n        /* \"#utility.yul\":3326:3419   */\n      swap4\n      pop\n        /* \"#utility.yul\":3443:3499   */\n      tag_284\n        /* \"#utility.yul\":3493:3498   */\n      dup4\n        /* \"#utility.yul\":3443:3499   */\n      tag_203\n      jump\t// in\n    tag_284:\n        /* \"#utility.yul\":3522:3529   */\n      dup1\n        /* \"#utility.yul\":3553:3554   */\n      0x00\n        /* \"#utility.yul\":3538:3822   */\n    tag_285:\n        /* \"#utility.yul\":3563:3569   */\n      dup4\n        /* \"#utility.yul\":3560:3561   */\n      dup2\n        /* \"#utility.yul\":3557:3570   */\n      lt\n        /* \"#utility.yul\":3538:3822   */\n      iszero\n      tag_287\n      jumpi\n        /* \"#utility.yul\":3639:3645   */\n      dup2\n        /* \"#utility.yul\":3633:3646   */\n      mload\n        /* \"#utility.yul\":3666:3729   */\n      tag_288\n        /* \"#utility.yul\":3725:3728   */\n      dup9\n        /* \"#utility.yul\":3710:3723   */\n      dup3\n        /* \"#utility.yul\":3666:3729   */\n      tag_205\n      jump\t// in\n    tag_288:\n        /* \"#utility.yul\":3659:3729   */\n      swap8\n      pop\n        /* \"#utility.yul\":3752:3812   */\n      tag_289\n        /* \"#utility.yul\":3805:3811   */\n      dup4\n        /* \"#utility.yul\":3752:3812   */\n      tag_206\n      jump\t// in\n    tag_289:\n        /* \"#utility.yul\":3742:3812   */\n      swap3\n      pop\n        /* \"#utility.yul\":3598:3822   */\n      pop\n        /* \"#utility.yul\":3585:3586   */\n      0x01\n        /* \"#utility.yul\":3582:3583   */\n      dup2\n        /* \"#utility.yul\":3578:3587   */\n      add\n        /* \"#utility.yul\":3573:3587   */\n      swap1\n      pop\n        /* \"#utility.yul\":3538:3822   */\n      jump(tag_285)\n    tag_287:\n        /* \"#utility.yul\":3542:3556   */\n      pop\n        /* \"#utility.yul\":3838:3841   */\n      dup6\n        /* \"#utility.yul\":3831:3841   */\n      swap4\n      pop\n        /* \"#utility.yul\":3239:3847   */\n      pop\n      pop\n      pop\n        /* \"#utility.yul\":3115:3847   */\n      swap3\n      swap2\n      pop\n      pop\n      jump\t// out\n        /* \"#utility.yul\":3853:4226   */\n    tag_26:\n        /* \"#utility.yul\":3996:4000   */\n      0x00\n        /* \"#utility.yul\":4034:4036   */\n      0x20\n        /* \"#utility.yul\":4023:4032   */\n      dup3\n        /* \"#utility.yul\":4019:4037   */\n      add\n        /* \"#utility.yul\":4011:4037   */\n      swap1\n      pop\n        /* \"#utility.yul\":4083:4092   */\n      dup2\n        /* \"#utility.yul\":4077:4081   */\n      dup2\n        /* \"#utility.yul\":4073:4093   */\n      sub\n        /* \"#utility.yul\":4069:4070   */\n      0x00\n        /* \"#utility.yul\":4058:4067   */\n      dup4\n        /* \"#utility.yul\":4054:4071   */\n      add\n        /* \"#utility.yul\":4047:4094   */\n      mstore\n        /* \"#utility.yul\":4111:4219   */\n      tag_291\n        /* \"#utility.yul\":4214:4218   */\n      dup2\n        /* \"#utility.yul\":4205:4211   */\n      dup5\n        /* \"#utility.yul\":4111:4219   */\n      tag_207\n      jump\t// in\n    tag_291:\n        /* \"#utility.yul\":4103:4219   */\n      swap1\n      pop\n        /* \"#utility.yul\":3853:4226   */\n      swap3\n      swap2\n      pop\n      pop\n      jump\t// out\n        /* \"#utility.yul\":4232:4349   */\n    tag_208:\n        /* \"#utility.yul\":4341:4342   */\n      0x00\n        /* \"#utility.yul\":4338:4339   */\n      dup1\n        /* \"#utility.yul\":4331:4343   */\n      revert\n        /* \"#utility.yul\":4355:4472   */\n    tag_209:\n        /* \"#utility.yul\":4464:4465   */\n      0x00\n        /* \"#utility.yul\":4461:4462   */\n      dup1\n        /* \"#utility.yul\":4454:4466   */\n      revert\n        /* \"#utility.yul\":4478:4595   */\n    tag_210:\n        /* \"#utility.yul\":4587:4588   */\n      0x00\n        /* \"#utility.yul\":4584:4585   */\n      dup1\n        /* \"#utility.yul\":4577:4589   */\n      revert\n        /* \"#utility.yul\":4615:5168   */\n    tag_211:\n        /* \"#utility.yul\":4673:4681   */\n      0x00\n        /* \"#utility.yul\":4683:4689   */\n      dup1\n        /* \"#utility.yul\":4733:4736   */\n      dup4\n        /* \"#utility.yul\":4726:4730   */\n      0x1f\n        /* \"#utility.yul\":4718:4724   */\n      dup5\n        /* \"#utility.yul\":4714:4731   */\n      add\n        /* \"#utility.yul\":4710:4737   */\n      slt\n        /* \"#utility.yul\":4700:4822   */\n      tag_296\n      jumpi\n        /* \"#utility.yul\":4741:4820   */\n      tag_297\n      tag_208\n      jump\t// in\n    tag_297:\n        /* \"#utility.yul\":4700:4822   */\n    tag_296:\n        /* \"#utility.yul\":4854:4860   */\n      dup3\n        /* \"#utility.yul\":4841:4861   */\n      calldataload\n        /* \"#utility.yul\":4831:4861   */\n      swap1\n      pop\n        /* \"#utility.yul\":4884:4902   */\n      0xffffffffffffffff\n        /* \"#utility.yul\":4876:4882   */\n      dup2\n        /* \"#utility.yul\":4873:4903   */\n      gt\n        /* \"#utility.yul\":4870:4987   */\n      iszero\n      tag_298\n      jumpi\n        /* \"#utility.yul\":4906:4985   */\n      tag_299\n      tag_209\n      jump\t// in\n    tag_299:\n        /* \"#utility.yul\":4870:4987   */\n    tag_298:\n        /* \"#utility.yul\":5020:5024   */\n      0x20\n        /* \"#utility.yul\":5012:5018   */\n      dup4\n        /* \"#utility.yul\":5008:5025   */\n      add\n        /* \"#utility.yul\":4996:5025   */\n      swap2\n      pop\n        /* \"#utility.yul\":5074:5077   */\n      dup4\n        /* \"#utility.yul\":5066:5070   */\n      0x01\n        /* \"#utility.yul\":5058:5064   */\n      dup3\n        /* \"#utility.yul\":5054:5071   */\n      mul\n        /* \"#utility.yul\":5044:5052   */\n      dup4\n        /* \"#utility.yul\":5040:5072   */\n      add\n        /* \"#utility.yul\":5037:5078   */\n      gt\n        /* \"#utility.yul\":5034:5162   */\n      iszero\n      tag_300\n      jumpi\n        /* \"#utility.yul\":5081:5160   */\n      tag_301\n      tag_210\n      jump\t// in\n    tag_301:\n        /* \"#utility.yul\":5034:5162   */\n    tag_300:\n        /* \"#utility.yul\":4615:5168   */\n      swap3\n      pop\n      swap3\n      swap1\n      pop\n      jump\t// out\n        /* \"#utility.yul\":5174:5703   */\n    tag_30:\n        /* \"#utility.yul\":5245:5251   */\n      0x00\n        /* \"#utility.yul\":5253:5259   */\n      dup1\n        /* \"#utility.yul\":5302:5304   */\n      0x20\n        /* \"#utility.yul\":5290:5299   */\n      dup4\n        /* \"#utility.yul\":5281:5288   */\n      dup6\n        /* \"#utility.yul\":5277:5300   */\n      sub\n        /* \"#utility.yul\":5273:5305   */\n      slt\n        /* \"#utility.yul\":5270:5389   */\n      iszero\n      tag_303\n      jumpi\n        /* \"#utility.yul\":5308:5387   */\n      tag_304\n      tag_191\n      jump\t// in\n    tag_304:\n        /* \"#utility.yul\":5270:5389   */\n    tag_303:\n        /* \"#utility.yul\":5456:5457   */\n      0x00\n        /* \"#utility.yul\":5445:5454   */\n      dup4\n        /* \"#utility.yul\":5441:5458   */\n      add\n        /* \"#utility.yul\":5428:5459   */\n      calldataload\n        /* \"#utility.yul\":5486:5504   */\n      0xffffffffffffffff\n        /* \"#utility.yul\":5478:5484   */\n      dup2\n        /* \"#utility.yul\":5475:5505   */\n      gt\n        /* \"#utility.yul\":5472:5589   */\n      iszero\n      tag_305\n      jumpi\n        /* \"#utility.yul\":5508:5587   */\n      tag_306\n      tag_192\n      jump\t// in\n    tag_306:\n        /* \"#utility.yul\":5472:5589   */\n    tag_305:\n        /* \"#utility.yul\":5621:5686   */\n      tag_307\n        /* \"#utility.yul\":5678:5685   */\n      dup6\n        /* \"#utility.yul\":5669:5675   */\n      dup3\n        /* \"#utility.yul\":5658:5667   */\n      dup7\n        /* \"#utility.yul\":5654:5676   */\n      add\n        /* \"#utility.yul\":5621:5686   */\n      tag_211\n      jump\t// in\n    tag_307:\n        /* \"#utility.yul\":5603:5686   */\n      swap3\n      pop\n      swap3\n      pop\n        /* \"#utility.yul\":5399:5696   */\n      pop\n        /* \"#utility.yul\":5174:5703   */\n      swap3\n      pop\n      swap3\n      swap1\n      pop\n      jump\t// out\n        /* \"#utility.yul\":5709:5808   */\n    tag_212:\n        /* \"#utility.yul\":5761:5767   */\n      0x00\n        /* \"#utility.yul\":5795:5800   */\n      dup2\n        /* \"#utility.yul\":5789:5801   */\n      mload\n        /* \"#utility.yul\":5779:5801   */\n      swap1\n      pop\n        /* \"#utility.yul\":5709:5808   */\n      swap2\n      swap1\n      pop\n      jump\t// out\n        /* \"#utility.yul\":5814:5983   */\n    tag_213:\n        /* \"#utility.yul\":5898:5909   */\n      0x00\n        /* \"#utility.yul\":5932:5938   */\n      dup3\n        /* \"#utility.yul\":5927:5930   */\n      dup3\n        /* \"#utility.yul\":5920:5939   */\n      mstore\n        /* \"#utility.yul\":5972:5976   */\n      0x20\n        /* \"#utility.yul\":5967:5970   */\n      dup3\n        /* \"#utility.yul\":5963:5977   */\n      add\n        /* \"#utility.yul\":5948:5977   */\n      swap1\n      pop\n        /* \"#utility.yul\":5814:5983   */\n      swap3\n      swap2\n      pop\n      pop\n      jump\t// out\n        /* \"#utility.yul\":5989:6296   */\n    tag_214:\n        /* \"#utility.yul\":6057:6058   */\n      0x00\n        /* \"#utility.yul\":6067:6180   */\n    tag_311:\n        /* \"#utility.yul\":6081:6087   */\n      dup4\n        /* \"#utility.yul\":6078:6079   */\n      dup2\n        /* \"#utility.yul\":6075:6088   */\n      lt\n        /* \"#utility.yul\":6067:6180   */\n      iszero\n      tag_313\n      jumpi\n        /* \"#utility.yul\":6166:6167   */\n      dup1\n        /* \"#utility.yul\":6161:6164   */\n      dup3\n        /* \"#utility.yul\":6157:6168   */\n      add\n        /* \"#utility.yul\":6151:6169   */\n      mload\n        /* \"#utility.yul\":6147:6148   */\n      dup2\n        /* \"#utility.yul\":6142:6145   */\n      dup5\n        /* \"#utility.yul\":6138:6149   */\n      add\n        /* \"#utility.yul\":6131:6170   */\n      mstore\n        /* \"#utility.yul\":6103:6105   */\n      0x20\n        /* \"#utility.yul\":6100:6101   */\n      dup2\n        /* \"#utility.yul\":6096:6106   */\n      add\n        /* \"#utility.yul\":6091:6106   */\n      swap1\n      pop\n        /* \"#utility.yul\":6067:6180   */\n      jump(tag_311)\n    tag_313:\n        /* \"#utility.yul\":6198:6204   */\n      dup4\n        /* \"#utility.yul\":6195:6196   */\n      dup2\n        /* \"#utility.yul\":6192:6205   */\n      gt\n        /* \"#utility.yul\":6189:6290   */\n      iszero\n      tag_314\n      jumpi\n        /* \"#utility.yul\":6278:6279   */\n      0x00\n        /* \"#utility.yul\":6269:6275   */\n      dup5\n        /* \"#utility.yul\":6264:6267   */\n      dup5\n        /* \"#utility.yul\":6260:6276   */\n      add\n        /* \"#utility.yul\":6253:6280   */\n      mstore\n        /* \"#utility.yul\":6189:6290   */\n    tag_314:\n        /* \"#utility.yul\":6038:6296   */\n      pop\n        /* \"#utility.yul\":5989:6296   */\n      pop\n      pop\n      pop\n      jump\t// out\n        /* \"#utility.yul\":6302:6404   */\n    tag_215:\n        /* \"#utility.yul\":6343:6349   */\n      0x00\n        /* \"#utility.yul\":6394:6396   */\n      0x1f\n        /* \"#utility.yul\":6390:6397   */\n      not\n        /* \"#utility.yul\":6385:6387   */\n      0x1f\n        /* \"#utility.yul\":6378:6383   */\n      dup4\n        /* \"#utility.yul\":6374:6388   */\n      add\n        /* \"#utility.yul\":6370:6398   */\n      and\n        /* \"#utility.yul\":6360:6398   */\n      swap1\n      pop\n        /* \"#utility.yul\":6302:6404   */\n      swap2\n      swap1\n      pop\n      jump\t// out\n        /* \"#utility.yul\":6410:6774   */\n    tag_216:\n        /* \"#utility.yul\":6498:6501   */\n      0x00\n        /* \"#utility.yul\":6526:6565   */\n      tag_317\n        /* \"#utility.yul\":6559:6564   */\n      dup3\n        /* \"#utility.yul\":6526:6565   */\n      tag_212\n      jump\t// in\n    tag_317:\n        /* \"#utility.yul\":6581:6652   */\n      tag_318\n        /* \"#utility.yul\":6645:6651   */\n      dup2\n        /* \"#utility.yul\":6640:6643   */\n      dup6\n        /* \"#utility.yul\":6581:6652   */\n      tag_213\n      jump\t// in\n    tag_318:\n        /* \"#utility.yul\":6574:6652   */\n      swap4\n      pop\n        /* \"#utility.yul\":6661:6713   */\n      tag_319\n        /* \"#utility.yul\":6706:6712   */\n      dup2\n        /* \"#utility.yul\":6701:6704   */\n      dup6\n        /* \"#utility.yul\":6694:6698   */\n      0x20\n        /* \"#utility.yul\":6687:6692   */\n      dup7\n        /* \"#utility.yul\":6683:6699   */\n      add\n        /* \"#utility.yul\":6661:6713   */\n      tag_214\n      jump\t// in\n    tag_319:\n        /* \"#utility.yul\":6738:6767   */\n      tag_320\n        /* \"#utility.yul\":6760:6766   */\n      dup2\n        /* \"#utility.yul\":6738:6767   */\n      tag_215\n      jump\t// in\n    tag_320:\n        /* \"#utility.yul\":6733:6736   */\n      dup5\n        /* \"#utility.yul\":6729:6768   */\n      add\n        /* \"#utility.yul\":6722:6768   */\n      swap2\n      pop\n        /* \"#utility.yul\":6502:6774   */\n      pop\n        /* \"#utility.yul\":6410:6774   */\n      swap3\n      swap2\n      pop\n      pop\n      jump\t// out\n        /* \"#utility.yul\":6780:6898   */\n    tag_217:\n        /* \"#utility.yul\":6867:6891   */\n      tag_322\n        /* \"#utility.yul\":6885:6890   */\n      dup2\n        /* \"#utility.yul\":6867:6891   */\n      tag_193\n      jump\t// in\n    tag_322:\n        /* \"#utility.yul\":6862:6865   */\n      dup3\n        /* \"#utility.yul\":6855:6892   */\n      mstore\n        /* \"#utility.yul\":6780:6898   */\n      pop\n      pop\n      jump\t// out\n        /* \"#utility.yul\":6904:6997   */\n    tag_218:\n        /* \"#utility.yul\":6940:6947   */\n      0x00\n        /* \"#utility.yul\":6980:6990   */\n      0xffffffff\n        /* \"#utility.yul\":6973:6978   */\n      dup3\n        /* \"#utility.yul\":6969:6991   */\n      and\n        /* \"#utility.yul\":6958:6991   */\n      swap1\n      pop\n        /* \"#utility.yul\":6904:6997   */\n      swap2\n      swap1\n      pop\n      jump\t// out\n        /* \"#utility.yul\":7003:7118   */\n    tag_219:\n        /* \"#utility.yul\":7088:7111   */\n      tag_325\n        /* \"#utility.yul\":7105:7110   */\n      dup2\n        /* \"#utility.yul\":7088:7111   */\n      tag_218\n      jump\t// in\n    tag_325:\n        /* \"#utility.yul\":7083:7086   */\n      dup3\n        /* \"#utility.yul\":7076:7112   */\n      mstore\n        /* \"#utility.yul\":7003:7118   */\n      pop\n      pop\n      jump\t// out\n        /* \"#utility.yul\":7124:7653   */\n    tag_37:\n        /* \"#utility.yul\":7291:7295   */\n      0x00\n        /* \"#utility.yul\":7329:7331   */\n      0x60\n        /* \"#utility.yul\":7318:7327   */\n      dup3\n        /* \"#utility.yul\":7314:7332   */\n      add\n        /* \"#utility.yul\":7306:7332   */\n      swap1\n      pop\n        /* \"#utility.yul\":7378:7387   */\n      dup2\n        /* \"#utility.yul\":7372:7376   */\n      dup2\n        /* \"#utility.yul\":7368:7388   */\n      sub\n        /* \"#utility.yul\":7364:7365   */\n      0x00\n        /* \"#utility.yul\":7353:7362   */\n      dup4\n        /* \"#utility.yul\":7349:7366   */\n      add\n        /* \"#utility.yul\":7342:7389   */\n      mstore\n        /* \"#utility.yul\":7406:7484   */\n      tag_327\n        /* \"#utility.yul\":7479:7483   */\n      dup2\n        /* \"#utility.yul\":7470:7476   */\n      dup7\n        /* \"#utility.yul\":7406:7484   */\n      tag_216\n      jump\t// in\n    tag_327:\n        /* \"#utility.yul\":7398:7484   */\n      swap1\n      pop\n        /* \"#utility.yul\":7494:7566   */\n      tag_328\n        /* \"#utility.yul\":7562:7564   */\n      0x20\n        /* \"#utility.yul\":7551:7560   */\n      dup4\n        /* \"#utility.yul\":7547:7565   */\n      add\n        /* \"#utility.yul\":7538:7544   */\n      dup6\n        /* \"#utility.yul\":7494:7566   */\n      tag_217\n      jump\t// in\n    tag_328:\n        /* \"#utility.yul\":7576:7646   */\n      tag_329\n        /* \"#utility.yul\":7642:7644   */\n      0x40\n        /* \"#utility.yul\":7631:7640   */\n      dup4\n        /* \"#utility.yul\":7627:7645   */\n      add\n        /* \"#utility.yul\":7618:7624   */\n      dup5\n        /* \"#utility.yul\":7576:7646   */\n      tag_219\n      jump\t// in\n    tag_329:\n        /* \"#utility.yul\":7124:7653   */\n      swap5\n      swap4\n      pop\n      pop\n      pop\n      pop\n      jump\t// out\n        /* \"#utility.yul\":7659:8133   */\n    tag_44:\n        /* \"#utility.yul\":7727:7733   */\n      0x00\n        /* \"#utility.yul\":7735:7741   */\n      dup1\n        /* \"#utility.yul\":7784:7786   */\n      0x40\n        /* \"#utility.yul\":7772:7781   */\n      dup4\n        /* \"#utility.yul\":7763:7770   */\n      dup6\n        /* \"#utility.yul\":7759:7782   */\n      sub\n        /* \"#utility.yul\":7755:7787   */\n      slt\n        /* \"#utility.yul\":7752:7871   */\n      iszero\n      tag_331\n      jumpi\n        /* \"#utility.yul\":7790:7869   */\n      tag_332\n      tag_191\n      jump\t// in\n    tag_332:\n        /* \"#utility.yul\":7752:7871   */\n    tag_331:\n        /* \"#utility.yul\":7910:7911   */\n      0x00\n        /* \"#utility.yul\":7935:7988   */\n      tag_333\n        /* \"#utility.yul\":7980:7987   */\n      dup6\n        /* \"#utility.yul\":7971:7977   */\n      dup3\n        /* \"#utility.yul\":7960:7969   */\n      dup7\n        /* \"#utility.yul\":7956:7978   */\n      add\n        /* \"#utility.yul\":7935:7988   */\n      tag_195\n      jump\t// in\n    tag_333:\n        /* \"#utility.yul\":7925:7988   */\n      swap3\n      pop\n        /* \"#utility.yul\":7881:7998   */\n      pop\n        /* \"#utility.yul\":8037:8039   */\n      0x20\n        /* \"#utility.yul\":8063:8116   */\n      tag_334\n        /* \"#utility.yul\":8108:8115   */\n      dup6\n        /* \"#utility.yul\":8099:8105   */\n      dup3\n        /* \"#utility.yul\":8088:8097   */\n      dup7\n        /* \"#utility.yul\":8084:8106   */\n      add\n        /* \"#utility.yul\":8063:8116   */\n      tag_195\n      jump\t// in\n    tag_334:\n        /* \"#utility.yul\":8053:8116   */\n      swap2\n      pop\n        /* \"#utility.yul\":8008:8126   */\n      pop\n        /* \"#utility.yul\":7659:8133   */\n      swap3\n      pop\n      swap3\n      swap1\n      pop\n      jump\t// out\n        /* \"#utility.yul\":8139:8361   */\n    tag_51:\n        /* \"#utility.yul\":8232:8236   */\n      0x00\n        /* \"#utility.yul\":8270:8272   */\n      0x20\n        /* \"#utility.yul\":8259:8268   */\n      dup3\n        /* \"#utility.yul\":8255:8273   */\n      add\n        /* \"#utility.yul\":8247:8273   */\n      swap1\n      pop\n        /* \"#utility.yul\":8283:8354   */\n      tag_336\n        /* \"#utility.yul\":8351:8352   */\n      0x00\n        /* \"#utility.yul\":8340:8349   */\n      dup4\n        /* \"#utility.yul\":8336:8353   */\n      add\n        /* \"#utility.yul\":8327:8333   */\n      dup5\n        /* \"#utility.yul\":8283:8354   */\n      tag_217\n      jump\t// in\n    tag_336:\n        /* \"#utility.yul\":8139:8361   */\n      swap3\n      swap2\n      pop\n      pop\n      jump\t// out\n        /* \"#utility.yul\":8367:8547   */\n    tag_66:\n        /* \"#utility.yul\":8415:8492   */\n      0x4e487b7100000000000000000000000000000000000000000000000000000000\n        /* \"#utility.yul\":8412:8413   */\n      0x00\n        /* \"#utility.yul\":8405:8493   */\n      mstore\n        /* \"#utility.yul\":8512:8516   */\n      0x41\n        /* \"#utility.yul\":8509:8510   */\n      0x04\n        /* \"#utility.yul\":8502:8517   */\n      mstore\n        /* \"#utility.yul\":8536:8540   */\n      0x24\n        /* \"#utility.yul\":8533:8534   */\n      0x00\n        /* \"#utility.yul\":8526:8541   */\n      revert\n        /* \"#utility.yul\":8553:8733   */\n    tag_74:\n        /* \"#utility.yul\":8601:8678   */\n      0x4e487b7100000000000000000000000000000000000000000000000000000000\n        /* \"#utility.yul\":8598:8599   */\n      0x00\n        /* \"#utility.yul\":8591:8679   */\n      mstore\n        /* \"#utility.yul\":8698:8702   */\n      0x32\n        /* \"#utility.yul\":8695:8696   */\n      0x04\n        /* \"#utility.yul\":8688:8703   */\n      mstore\n        /* \"#utility.yul\":8722:8726   */\n      0x24\n        /* \"#utility.yul\":8719:8720   */\n      0x00\n        /* \"#utility.yul\":8712:8727   */\n      revert\n        /* \"#utility.yul\":8739:8919   */\n    tag_220:\n        /* \"#utility.yul\":8787:8864   */\n      0x4e487b7100000000000000000000000000000000000000000000000000000000\n        /* \"#utility.yul\":8784:8785   */\n      0x00\n        /* \"#utility.yul\":8777:8865   */\n      mstore\n        /* \"#utility.yul\":8884:8888   */\n      0x11\n        /* \"#utility.yul\":8881:8882   */\n      0x04\n        /* \"#utility.yul\":8874:8889   */\n      mstore\n        /* \"#utility.yul\":8908:8912   */\n      0x24\n        /* \"#utility.yul\":8905:8906   */\n      0x00\n        /* \"#utility.yul\":8898:8913   */\n      revert\n        /* \"#utility.yul\":8925:9158   */\n    tag_76:\n        /* \"#utility.yul\":8964:8967   */\n      0x00\n        /* \"#utility.yul\":8987:9011   */\n      tag_341\n        /* \"#utility.yul\":9005:9010   */\n      dup3\n        /* \"#utility.yul\":8987:9011   */\n      tag_193\n      jump\t// in\n    tag_341:\n        /* \"#utility.yul\":8978:9011   */\n      swap2\n      pop\n        /* \"#utility.yul\":9033:9099   */\n      0xffffffffffffffffffffffffffffffffffffffffffffffffffffffffffffffff\n        /* \"#utility.yul\":9026:9031   */\n      dup3\n        /* \"#utility.yul\":9023:9100   */\n      eq\n        /* \"#utility.yul\":9020:9123   */\n      iszero\n      tag_342\n      jumpi\n        /* \"#utility.yul\":9103:9121   */\n      tag_343\n      tag_220\n      jump\t// in\n    tag_343:\n        /* \"#utility.yul\":9020:9123   */\n    tag_342:\n        /* \"#utility.yul\":9150:9151   */\n      0x01\n        /* \"#utility.yul\":9143:9148   */\n      dup3\n        /* \"#utility.yul\":9139:9152   */\n      add\n        /* \"#utility.yul\":9132:9152   */\n      swap1\n      pop\n        /* \"#utility.yul\":8925:9158   */\n      swap2\n      swap1\n      pop\n      jump\t// out\n        /* \"#utility.yul\":9164:9337   */\n    tag_221:\n        /* \"#utility.yul\":9304:9329   */\n      0x612066756e67757320616c726561647920657869737473000000000000000000\n        /* \"#utility.yul\":9300:9301   */\n      0x00\n        /* \"#utility.yul\":9292:9298   */\n      dup3\n        /* \"#utility.yul\":9288:9302   */\n      add\n        /* \"#utility.yul\":9281:9330   */\n      mstore\n        /* \"#utility.yul\":9164:9337   */\n      pop\n      jump\t// out\n        /* \"#utility.yul\":9343:9709   */\n    tag_222:\n        /* \"#utility.yul\":9485:9488   */\n      0x00\n        /* \"#utility.yul\":9506:9573   */\n      tag_346\n        /* \"#utility.yul\":9570:9572   */\n      0x17\n        /* \"#utility.yul\":9565:9568   */\n      dup4\n        /* \"#utility.yul\":9506:9573   */\n      tag_213\n      jump\t// in\n    tag_346:\n        /* \"#utility.yul\":9499:9573   */\n      swap2\n      pop\n        /* \"#utility.yul\":9582:9675   */\n      tag_347\n        /* \"#utility.yul\":9671:9674   */\n      dup3\n        /* \"#utility.yul\":9582:9675   */\n      tag_221\n      jump\t// in\n    tag_347:\n        /* \"#utility.yul\":9700:9702   */\n      0x20\n        /* \"#utility.yul\":9695:9698   */\n      dup3\n        /* \"#utility.yul\":9691:9703   */\n      add\n        /* \"#utility.yul\":9684:9703   */\n      swap1\n      pop\n        /* \"#utility.yul\":9343:9709   */\n      swap2\n      swap1\n      pop\n      jump\t// out\n        /* \"#utility.yul\":9715:10134   */\n    tag_81:\n        /* \"#utility.yul\":9881:9885   */\n      0x00\n        /* \"#utility.yul\":9919:9921   */\n      0x20\n        /* \"#utility.yul\":9908:9917   */\n      dup3\n        /* \"#utility.yul\":9904:9922   */\n      add\n        /* \"#utility.yul\":9896:9922   */\n      swap1\n      pop\n        /* \"#utility.yul\":9968:9977   */\n      dup2\n        /* \"#utility.yul\":9962:9966   */\n      dup2\n        /* \"#utility.yul\":9958:9978   */\n      sub\n        /* \"#utility.yul\":9954:9955   */\n      0x00\n        /* \"#utility.yul\":9943:9952   */\n      dup4\n        /* \"#utility.yul\":9939:9956   */\n      add\n        /* \"#utility.yul\":9932:9979   */\n      mstore\n        /* \"#utility.yul\":9996:10127   */\n      tag_349\n        /* \"#utility.yul\":10122:10126   */\n      dup2\n        /* \"#utility.yul\":9996:10127   */\n      tag_222\n      jump\t// in\n    tag_349:\n        /* \"#utility.yul\":9988:10127   */\n      swap1\n      pop\n        /* \"#utility.yul\":9715:10134   */\n      swap2\n      swap1\n      pop\n      jump\t// out\n        /* \"#utility.yul\":10140:10320   */\n    tag_223:\n        /* \"#utility.yul\":10188:10265   */\n      0x4e487b7100000000000000000000000000000000000000000000000000000000\n        /* \"#utility.yul\":10185:10186   */\n      0x00\n        /* \"#utility.yul\":10178:10266   */\n      mstore\n        /* \"#utility.yul\":10285:10289   */\n      0x22\n        /* \"#utility.yul\":10282:10283   */\n      0x04\n        /* \"#utility.yul\":10275:10290   */\n      mstore\n        /* \"#utility.yul\":10309:10313   */\n      0x24\n        /* \"#utility.yul\":10306:10307   */\n      0x00\n        /* \"#utility.yul\":10299:10314   */\n      revert\n        /* \"#utility.yul\":10326:10646   */\n    tag_89:\n        /* \"#utility.yul\":10370:10376   */\n      0x00\n        /* \"#utility.yul\":10407:10408   */\n      0x02\n        /* \"#utility.yul\":10401:10405   */\n      dup3\n        /* \"#utility.yul\":10397:10409   */\n      div\n        /* \"#utility.yul\":10387:10409   */\n      swap1\n      pop\n        /* \"#utility.yul\":10454:10455   */\n      0x01\n        /* \"#utility.yul\":10448:10452   */\n      dup3\n        /* \"#utility.yul\":10444:10456   */\n      and\n        /* \"#utility.yul\":10475:10493   */\n      dup1\n        /* \"#utility.yul\":10465:10546   */\n      tag_352\n      jumpi\n        /* \"#utility.yul\":10531:10535   */\n      0x7f\n        /* \"#utility.yul\":10523:10529   */\n      dup3\n        /* \"#utility.yul\":10519:10536   */\n      and\n        /* \"#utility.yul\":10509:10536   */\n      swap2\n      pop\n        /* \"#utility.yul\":10465:10546   */\n    tag_352:\n        /* \"#utility.yul\":10593:10595   */\n      0x20\n        /* \"#utility.yul\":10585:10591   */\n      dup3\n        /* \"#utility.yul\":10582:10596   */\n      lt\n        /* \"#utility.yul\":10562:10580   */\n      dup2\n        /* \"#utility.yul\":10559:10597   */\n      eq\n        /* \"#utility.yul\":10556:10640   */\n      iszero\n      tag_353\n      jumpi\n        /* \"#utility.yul\":10612:10630   */\n      tag_354\n      tag_223\n      jump\t// in\n    tag_354:\n        /* \"#utility.yul\":10556:10640   */\n    tag_353:\n        /* \"#utility.yul\":10377:10646   */\n      pop\n        /* \"#utility.yul\":10326:10646   */\n      swap2\n      swap1\n      pop\n      jump\t// out\n        /* \"#utility.yul\":10652:10769   */\n    tag_224:\n        /* \"#utility.yul\":10761:10762   */\n      0x00\n        /* \"#utility.yul\":10758:10759   */\n      dup1\n        /* \"#utility.yul\":10751:10763   */\n      revert\n        /* \"#utility.yul\":10775:11056   */\n    tag_225:\n        /* \"#utility.yul\":10858:10885   */\n      tag_357\n        /* \"#utility.yul\":10880:10884   */\n      dup3\n        /* \"#utility.yul\":10858:10885   */\n      tag_215\n      jump\t// in\n    tag_357:\n        /* \"#utility.yul\":10850:10856   */\n      dup2\n        /* \"#utility.yul\":10846:10886   */\n      add\n        /* \"#utility.yul\":10988:10994   */\n      dup2\n        /* \"#utility.yul\":10976:10986   */\n      dup2\n        /* \"#utility.yul\":10973:10995   */\n      lt\n        /* \"#utility.yul\":10952:10970   */\n      0xffffffffffffffff\n        /* \"#utility.yul\":10940:10950   */\n      dup3\n        /* \"#utility.yul\":10937:10971   */\n      gt\n        /* \"#utility.yul\":10934:10996   */\n      or\n        /* \"#utility.yul\":10931:11019   */\n      iszero\n      tag_358\n      jumpi\n        /* \"#utility.yul\":10999:11017   */\n      tag_359\n      tag_66\n      jump\t// in\n    tag_359:\n        /* \"#utility.yul\":10931:11019   */\n    tag_358:\n        /* \"#utility.yul\":11039:11049   */\n      dup1\n        /* \"#utility.yul\":11035:11037   */\n      0x40\n        /* \"#utility.yul\":11028:11050   */\n      mstore\n        /* \"#utility.yul\":10818:11056   */\n      pop\n        /* \"#utility.yul\":10775:11056   */\n      pop\n      pop\n      jump\t// out\n        /* \"#utility.yul\":11062:11191   */\n    tag_226:\n        /* \"#utility.yul\":11096:11102   */\n      0x00\n        /* \"#utility.yul\":11123:11143   */\n      tag_361\n      tag_190\n      jump\t// in\n    tag_361:\n        /* \"#utility.yul\":11113:11143   */\n      swap1\n      pop\n        /* \"#utility.yul\":11152:11185   */\n      tag_362\n        /* \"#utility.yul\":11180:11184   */\n      dup3\n        /* \"#utility.yul\":11172:11178   */\n      dup3\n        /* \"#utility.yul\":11152:11185   */\n      tag_225\n      jump\t// in\n    tag_362:\n        /* \"#utility.yul\":11062:11191   */\n      swap2\n      swap1\n      pop\n      jump\t// out\n        /* \"#utility.yul\":11197:11505   */\n    tag_227:\n        /* \"#utility.yul\":11259:11263   */\n      0x00\n        /* \"#utility.yul\":11349:11367   */\n      0xffffffffffffffff\n        /* \"#utility.yul\":11341:11347   */\n      dup3\n        /* \"#utility.yul\":11338:11368   */\n      gt\n        /* \"#utility.yul\":11335:11391   */\n      iszero\n      tag_364\n      jumpi\n        /* \"#utility.yul\":11371:11389   */\n      tag_365\n      tag_66\n      jump\t// in\n    tag_365:\n        /* \"#utility.yul\":11335:11391   */\n    tag_364:\n        /* \"#utility.yul\":11409:11438   */\n      tag_366\n        /* \"#utility.yul\":11431:11437   */\n      dup3\n        /* \"#utility.yul\":11409:11438   */\n      tag_215\n      jump\t// in\n    tag_366:\n        /* \"#utility.yul\":11401:11438   */\n      swap1\n      pop\n        /* \"#utility.yul\":11493:11497   */\n      0x20\n        /* \"#utility.yul\":11487:11491   */\n      dup2\n        /* \"#utility.yul\":11483:11498   */\n      add\n        /* \"#utility.yul\":11475:11498   */\n      swap1\n      pop\n        /* \"#utility.yul\":11197:11505   */\n      swap2\n      swap1\n      pop\n      jump\t// out\n        /* \"#utility.yul\":11511:11932   */\n    tag_228:\n        /* \"#utility.yul\":11600:11605   */\n      0x00\n        /* \"#utility.yul\":11625:11691   */\n      tag_368\n        /* \"#utility.yul\":11641:11690   */\n      tag_369\n        /* \"#utility.yul\":11683:11689   */\n      dup5\n        /* \"#utility.yul\":11641:11690   */\n      tag_227\n      jump\t// in\n    tag_369:\n        /* \"#utility.yul\":11625:11691   */\n      tag_226\n      jump\t// in\n    tag_368:\n        /* \"#utility.yul\":11616:11691   */\n      swap1\n      pop\n        /* \"#utility.yul\":11714:11720   */\n      dup3\n        /* \"#utility.yul\":11707:11712   */\n      dup2\n        /* \"#utility.yul\":11700:11721   */\n      mstore\n        /* \"#utility.yul\":11752:11756   */\n      0x20\n        /* \"#utility.yul\":11745:11750   */\n      dup2\n        /* \"#utility.yul\":11741:11757   */\n      add\n        /* \"#utility.yul\":11790:11793   */\n      dup5\n        /* \"#utility.yul\":11781:11787   */\n      dup5\n        /* \"#utility.yul\":11776:11779   */\n      dup5\n        /* \"#utility.yul\":11772:11788   */\n      add\n        /* \"#utility.yul\":11769:11794   */\n      gt\n        /* \"#utility.yul\":11766:11878   */\n      iszero\n      tag_370\n      jumpi\n        /* \"#utility.yul\":11797:11876   */\n      tag_371\n      tag_224\n      jump\t// in\n    tag_371:\n        /* \"#utility.yul\":11766:11878   */\n    tag_370:\n        /* \"#utility.yul\":11887:11926   */\n      tag_372\n        /* \"#utility.yul\":11919:11925   */\n      dup5\n        /* \"#utility.yul\":11914:11917   */\n      dup3\n        /* \"#utility.yul\":11909:11912   */\n      dup6\n        /* \"#utility.yul\":11887:11926   */\n      tag_214\n      jump\t// in\n    tag_372:\n        /* \"#utility.yul\":11606:11932   */\n      pop\n        /* \"#utility.yul\":11511:11932   */\n      swap4\n      swap3\n      pop\n      pop\n      pop\n      jump\t// out\n        /* \"#utility.yul\":11952:12307   */\n    tag_229:\n        /* \"#utility.yul\":12019:12024   */\n      0x00\n        /* \"#utility.yul\":12068:12071   */\n      dup3\n        /* \"#utility.yul\":12061:12065   */\n      0x1f\n        /* \"#utility.yul\":12053:12059   */\n      dup4\n        /* \"#utility.yul\":12049:12066   */\n      add\n        /* \"#utility.yul\":12045:12072   */\n      slt\n        /* \"#utility.yul\":12035:12157   */\n      tag_374\n      jumpi\n        /* \"#utility.yul\":12076:12155   */\n      tag_375\n      tag_208\n      jump\t// in\n    tag_375:\n        /* \"#utility.yul\":12035:12157   */\n    tag_374:\n        /* \"#utility.yul\":12186:12192   */\n      dup2\n        /* \"#utility.yul\":12180:12193   */\n      mload\n        /* \"#utility.yul\":12211:12301   */\n      tag_376\n        /* \"#utility.yul\":12297:12300   */\n      dup5\n        /* \"#utility.yul\":12289:12295   */\n      dup3\n        /* \"#utility.yul\":12282:12286   */\n      0x20\n        /* \"#utility.yul\":12274:12280   */\n      dup7\n        /* \"#utility.yul\":12270:12287   */\n      add\n        /* \"#utility.yul\":12211:12301   */\n      tag_228\n      jump\t// in\n    tag_376:\n        /* \"#utility.yul\":12202:12301   */\n      swap2\n      pop\n        /* \"#utility.yul\":12025:12307   */\n      pop\n        /* \"#utility.yul\":11952:12307   */\n      swap3\n      swap2\n      pop\n      pop\n      jump\t// out\n        /* \"#utility.yul\":12313:12456   */\n    tag_230:\n        /* \"#utility.yul\":12370:12375   */\n      0x00\n        /* \"#utility.yul\":12401:12407   */\n      dup2\n        /* \"#utility.yul\":12395:12408   */\n      mload\n        /* \"#utility.yul\":12386:12408   */\n      swap1\n      pop\n        /* \"#utility.yul\":12417:12450   */\n      tag_378\n        /* \"#utility.yul\":12444:12449   */\n      dup2\n        /* \"#utility.yul\":12417:12450   */\n      tag_194\n      jump\t// in\n    tag_378:\n        /* \"#utility.yul\":12313:12456   */\n      swap3\n      swap2\n      pop\n      pop\n      jump\t// out\n        /* \"#utility.yul\":12462:13298   */\n    tag_103:\n        /* \"#utility.yul\":12560:12566   */\n      0x00\n        /* \"#utility.yul\":12568:12574   */\n      dup1\n        /* \"#utility.yul\":12576:12582   */\n      0x00\n        /* \"#utility.yul\":12625:12627   */\n      0x60\n        /* \"#utility.yul\":12613:12622   */\n      dup5\n        /* \"#utility.yul\":12604:12611   */\n      dup7\n        /* \"#utility.yul\":12600:12623   */\n      sub\n        /* \"#utility.yul\":12596:12628   */\n      slt\n        /* \"#utility.yul\":12593:12712   */\n      iszero\n      tag_380\n      jumpi\n        /* \"#utility.yul\":12631:12710   */\n      tag_381\n      tag_191\n      jump\t// in\n    tag_381:\n        /* \"#utility.yul\":12593:12712   */\n    tag_380:\n        /* \"#utility.yul\":12772:12773   */\n      0x00\n        /* \"#utility.yul\":12761:12770   */\n      dup5\n        /* \"#utility.yul\":12757:12774   */\n      add\n        /* \"#utility.yul\":12751:12775   */\n      mload\n        /* \"#utility.yul\":12802:12820   */\n      0xffffffffffffffff\n        /* \"#utility.yul\":12794:12800   */\n      dup2\n        /* \"#utility.yul\":12791:12821   */\n      gt\n        /* \"#utility.yul\":12788:12905   */\n      iszero\n      tag_382\n      jumpi\n        /* \"#utility.yul\":12824:12903   */\n      tag_383\n      tag_192\n      jump\t// in\n    tag_383:\n        /* \"#utility.yul\":12788:12905   */\n    tag_382:\n        /* \"#utility.yul\":12929:13003   */\n      tag_384\n        /* \"#utility.yul\":12995:13002   */\n      dup7\n        /* \"#utility.yul\":12986:12992   */\n      dup3\n        /* \"#utility.yul\":12975:12984   */\n      dup8\n        /* \"#utility.yul\":12971:12993   */\n      add\n        /* \"#utility.yul\":12929:13003   */\n      tag_229\n      jump\t// in\n    tag_384:\n        /* \"#utility.yul\":12919:13003   */\n      swap4\n      pop\n        /* \"#utility.yul\":12722:13013   */\n      pop\n        /* \"#utility.yul\":13052:13054   */\n      0x20\n        /* \"#utility.yul\":13078:13142   */\n      tag_385\n        /* \"#utility.yul\":13134:13141   */\n      dup7\n        /* \"#utility.yul\":13125:13131   */\n      dup3\n        /* \"#utility.yul\":13114:13123   */\n      dup8\n        /* \"#utility.yul\":13110:13132   */\n      add\n        /* \"#utility.yul\":13078:13142   */\n      tag_230\n      jump\t// in\n    tag_385:\n        /* \"#utility.yul\":13068:13142   */\n      swap3\n      pop\n        /* \"#utility.yul\":13023:13152   */\n      pop\n        /* \"#utility.yul\":13191:13193   */\n      0x40\n        /* \"#utility.yul\":13217:13281   */\n      tag_386\n        /* \"#utility.yul\":13273:13280   */\n      dup7\n        /* \"#utility.yul\":13264:13270   */\n      dup3\n        /* \"#utility.yul\":13253:13262   */\n      dup8\n        /* \"#utility.yul\":13249:13271   */\n      add\n        /* \"#utility.yul\":13217:13281   */\n      tag_230\n      jump\t// in\n    tag_386:\n        /* \"#utility.yul\":13207:13281   */\n      swap2\n      pop\n        /* \"#utility.yul\":13162:13291   */\n      pop\n        /* \"#utility.yul\":12462:13298   */\n      swap3\n      pop\n      swap3\n      pop\n      swap3\n      jump\t// out\n        /* \"#utility.yul\":13304:13484   */\n    tag_231:\n        /* \"#utility.yul\":13444:13476   */\n      0x6265207061696420696e617070726f70726961746520657870656e7365730000\n        /* \"#utility.yul\":13440:13441   */\n      0x00\n        /* \"#utility.yul\":13432:13438   */\n      dup3\n        /* \"#utility.yul\":13428:13442   */\n      add\n        /* \"#utility.yul\":13421:13477   */\n      mstore\n        /* \"#utility.yul\":13304:13484   */\n      pop\n      jump\t// out\n        /* \"#utility.yul\":13490:13856   */\n    tag_232:\n        /* \"#utility.yul\":13632:13635   */\n      0x00\n        /* \"#utility.yul\":13653:13720   */\n      tag_389\n        /* \"#utility.yul\":13717:13719   */\n      0x1e\n        /* \"#utility.yul\":13712:13715   */\n      dup4\n        /* \"#utility.yul\":13653:13720   */\n      tag_213\n      jump\t// in\n    tag_389:\n        /* \"#utility.yul\":13646:13720   */\n      swap2\n      pop\n        /* \"#utility.yul\":13729:13822   */\n      tag_390\n        /* \"#utility.yul\":13818:13821   */\n      dup3\n        /* \"#utility.yul\":13729:13822   */\n      tag_231\n      jump\t// in\n    tag_390:\n        /* \"#utility.yul\":13847:13849   */\n      0x20\n        /* \"#utility.yul\":13842:13845   */\n      dup3\n        /* \"#utility.yul\":13838:13850   */\n      add\n        /* \"#utility.yul\":13831:13850   */\n      swap1\n      pop\n        /* \"#utility.yul\":13490:13856   */\n      swap2\n      swap1\n      pop\n      jump\t// out\n        /* \"#utility.yul\":13862:14281   */\n    tag_106:\n        /* \"#utility.yul\":14028:14032   */\n      0x00\n        /* \"#utility.yul\":14066:14068   */\n      0x20\n        /* \"#utility.yul\":14055:14064   */\n      dup3\n        /* \"#utility.yul\":14051:14069   */\n      add\n        /* \"#utility.yul\":14043:14069   */\n      swap1\n      pop\n        /* \"#utility.yul\":14115:14124   */\n      dup2\n        /* \"#utility.yul\":14109:14113   */\n      dup2\n        /* \"#utility.yul\":14105:14125   */\n      sub\n        /* \"#utility.yul\":14101:14102   */\n      0x00\n        /* \"#utility.yul\":14090:14099   */\n      dup4\n        /* \"#utility.yul\":14086:14103   */\n      add\n        /* \"#utility.yul\":14079:14126   */\n      mstore\n        /* \"#utility.yul\":14143:14274   */\n      tag_392\n        /* \"#utility.yul\":14269:14273   */\n      dup2\n        /* \"#utility.yul\":14143:14274   */\n      tag_232\n      jump\t// in\n    tag_392:\n        /* \"#utility.yul\":14135:14274   */\n      swap1\n      pop\n        /* \"#utility.yul\":13862:14281   */\n      swap2\n      swap1\n      pop\n      jump\t// out\n        /* \"#utility.yul\":14287:14512   */\n    tag_233:\n        /* \"#utility.yul\":14427:14461   */\n      0x4f776e61626c653a206e6577206f776e657220697320746865207a65726f2061\n        /* \"#utility.yul\":14423:14424   */\n      0x00\n        /* \"#utility.yul\":14415:14421   */\n      dup3\n        /* \"#utility.yul\":14411:14425   */\n      add\n        /* \"#utility.yul\":14404:14462   */\n      mstore\n        /* \"#utility.yul\":14496:14504   */\n      0x6464726573730000000000000000000000000000000000000000000000000000\n        /* \"#utility.yul\":14491:14493   */\n      0x20\n        /* \"#utility.yul\":14483:14489   */\n      dup3\n        /* \"#utility.yul\":14479:14494   */\n      add\n        /* \"#utility.yul\":14472:14505   */\n      mstore\n        /* \"#utility.yul\":14287:14512   */\n      pop\n      jump\t// out\n        /* \"#utility.yul\":14518:14884   */\n    tag_234:\n        /* \"#utility.yul\":14660:14663   */\n      0x00\n        /* \"#utility.yul\":14681:14748   */\n      tag_395\n        /* \"#utility.yul\":14745:14747   */\n      0x26\n        /* \"#utility.yul\":14740:14743   */\n      dup4\n        /* \"#utility.yul\":14681:14748   */\n      tag_213\n      jump\t// in\n    tag_395:\n        /* \"#utility.yul\":14674:14748   */\n      swap2\n      pop\n        /* \"#utility.yul\":14757:14850   */\n      tag_396\n        /* \"#utility.yul\":14846:14849   */\n      dup3\n        /* \"#utility.yul\":14757:14850   */\n      tag_233\n      jump\t// in\n    tag_396:\n        /* \"#utility.yul\":14875:14877   */\n      0x40\n        /* \"#utility.yul\":14870:14873   */\n      dup3\n        /* \"#utility.yul\":14866:14878   */\n      add\n        /* \"#utility.yul\":14859:14878   */\n      swap1\n      pop\n        /* \"#utility.yul\":14518:14884   */\n      swap2\n      swap1\n      pop\n      jump\t// out\n        /* \"#utility.yul\":14890:15309   */\n    tag_120:\n        /* \"#utility.yul\":15056:15060   */\n      0x00\n        /* \"#utility.yul\":15094:15096   */\n      0x20\n        /* \"#utility.yul\":15083:15092   */\n      dup3\n        /* \"#utility.yul\":15079:15097   */\n      add\n        /* \"#utility.yul\":15071:15097   */\n      swap1\n      pop\n        /* \"#utility.yul\":15143:15152   */\n      dup2\n        /* \"#utility.yul\":15137:15141   */\n      dup2\n        /* \"#utility.yul\":15133:15153   */\n      sub\n        /* \"#utility.yul\":15129:15130   */\n      0x00\n        /* \"#utility.yul\":15118:15127   */\n      dup4\n        /* \"#utility.yul\":15114:15131   */\n      add\n        /* \"#utility.yul\":15107:15154   */\n      mstore\n        /* \"#utility.yul\":15171:15302   */\n      tag_398\n        /* \"#utility.yul\":15297:15301   */\n      dup2\n        /* \"#utility.yul\":15171:15302   */\n      tag_234\n      jump\t// in\n    tag_398:\n        /* \"#utility.yul\":15163:15302   */\n      swap1\n      pop\n        /* \"#utility.yul\":14890:15309   */\n      swap2\n      swap1\n      pop\n      jump\t// out\n        /* \"#utility.yul\":15315:15462   */\n    tag_235:\n        /* \"#utility.yul\":15416:15427   */\n      0x00\n        /* \"#utility.yul\":15453:15456   */\n      dup2\n        /* \"#utility.yul\":15438:15456   */\n      swap1\n      pop\n        /* \"#utility.yul\":15315:15462   */\n      swap3\n      swap2\n      pop\n      pop\n      jump\t// out\n        /* \"#utility.yul\":15468:15622   */\n    tag_236:\n        /* \"#utility.yul\":15552:15558   */\n      dup3\n        /* \"#utility.yul\":15547:15550   */\n      dup2\n        /* \"#utility.yul\":15542:15545   */\n      dup4\n        /* \"#utility.yul\":15529:15559   */\n      calldatacopy\n        /* \"#utility.yul\":15614:15615   */\n      0x00\n        /* \"#utility.yul\":15605:15611   */\n      dup4\n        /* \"#utility.yul\":15600:15603   */\n      dup4\n        /* \"#utility.yul\":15596:15612   */\n      add\n        /* \"#utility.yul\":15589:15616   */\n      mstore\n        /* \"#utility.yul\":15468:15622   */\n      pop\n      pop\n      pop\n      jump\t// out\n        /* \"#utility.yul\":15650:15964   */\n    tag_237:\n        /* \"#utility.yul\":15764:15767   */\n      0x00\n        /* \"#utility.yul\":15785:15873   */\n      tag_402\n        /* \"#utility.yul\":15866:15872   */\n      dup4\n        /* \"#utility.yul\":15861:15864   */\n      dup6\n        /* \"#utility.yul\":15785:15873   */\n      tag_235\n      jump\t// in\n    tag_402:\n        /* \"#utility.yul\":15778:15873   */\n      swap4\n      pop\n        /* \"#utility.yul\":15883:15926   */\n      tag_403\n        /* \"#utility.yul\":15919:15925   */\n      dup4\n        /* \"#utility.yul\":15914:15917   */\n      dup6\n        /* \"#utility.yul\":15907:15912   */\n      dup5\n        /* \"#utility.yul\":15883:15926   */\n      tag_236\n      jump\t// in\n    tag_403:\n        /* \"#utility.yul\":15951:15957   */\n      dup3\n        /* \"#utility.yul\":15946:15949   */\n      dup5\n        /* \"#utility.yul\":15942:15958   */\n      add\n        /* \"#utility.yul\":15935:15958   */\n      swap1\n      pop\n        /* \"#utility.yul\":15650:15964   */\n      swap4\n      swap3\n      pop\n      pop\n      pop\n      jump\t// out\n        /* \"#utility.yul\":15970:16261   */\n    tag_124:\n        /* \"#utility.yul\":16110:16113   */\n      0x00\n        /* \"#utility.yul\":16132:16235   */\n      tag_405\n        /* \"#utility.yul\":16231:16234   */\n      dup3\n        /* \"#utility.yul\":16222:16228   */\n      dup5\n        /* \"#utility.yul\":16214:16220   */\n      dup7\n        /* \"#utility.yul\":16132:16235   */\n      tag_237\n      jump\t// in\n    tag_405:\n        /* \"#utility.yul\":16125:16235   */\n      swap2\n      pop\n        /* \"#utility.yul\":16252:16255   */\n      dup2\n        /* \"#utility.yul\":16245:16255   */\n      swap1\n      pop\n        /* \"#utility.yul\":15970:16261   */\n      swap4\n      swap3\n      pop\n      pop\n      pop\n      jump\t// out\n        /* \"#utility.yul\":16267:16447   */\n    tag_238:\n        /* \"#utility.yul\":16315:16392   */\n      0x4e487b7100000000000000000000000000000000000000000000000000000000\n        /* \"#utility.yul\":16312:16313   */\n      0x00\n        /* \"#utility.yul\":16305:16393   */\n      mstore\n        /* \"#utility.yul\":16412:16416   */\n      0x12\n        /* \"#utility.yul\":16409:16410   */\n      0x04\n        /* \"#utility.yul\":16402:16417   */\n      mstore\n        /* \"#utility.yul\":16436:16440   */\n      0x24\n        /* \"#utility.yul\":16433:16434   */\n      0x00\n        /* \"#utility.yul\":16426:16441   */\n      revert\n        /* \"#utility.yul\":16453:16629   */\n    tag_126:\n        /* \"#utility.yul\":16485:16486   */\n      0x00\n        /* \"#utility.yul\":16502:16522   */\n      tag_408\n        /* \"#utility.yul\":16520:16521   */\n      dup3\n        /* \"#utility.yul\":16502:16522   */\n      tag_193\n      jump\t// in\n    tag_408:\n        /* \"#utility.yul\":16497:16522   */\n      swap2\n      pop\n        /* \"#utility.yul\":16536:16556   */\n      tag_409\n        /* \"#utility.yul\":16554:16555   */\n      dup4\n        /* \"#utility.yul\":16536:16556   */\n      tag_193\n      jump\t// in\n    tag_409:\n        /* \"#utility.yul\":16531:16556   */\n      swap3\n      pop\n        /* \"#utility.yul\":16575:16576   */\n      dup3\n        /* \"#utility.yul\":16565:16600   */\n      tag_410\n      jumpi\n        /* \"#utility.yul\":16580:16598   */\n      tag_411\n      tag_238\n      jump\t// in\n    tag_411:\n        /* \"#utility.yul\":16565:16600   */\n    tag_410:\n        /* \"#utility.yul\":16621:16622   */\n      dup3\n        /* \"#utility.yul\":16618:16619   */\n      dup3\n        /* \"#utility.yul\":16614:16623   */\n      mod\n        /* \"#utility.yul\":16609:16623   */\n      swap1\n      pop\n        /* \"#utility.yul\":16453:16629   */\n      swap3\n      swap2\n      pop\n      pop\n      jump\t// out\n        /* \"#utility.yul\":16635:16826   */\n    tag_129:\n        /* \"#utility.yul\":16675:16679   */\n      0x00\n        /* \"#utility.yul\":16695:16715   */\n      tag_413\n        /* \"#utility.yul\":16713:16714   */\n      dup3\n        /* \"#utility.yul\":16695:16715   */\n      tag_193\n      jump\t// in\n    tag_413:\n        /* \"#utility.yul\":16690:16715   */\n      swap2\n      pop\n        /* \"#utility.yul\":16729:16749   */\n      tag_414\n        /* \"#utility.yul\":16747:16748   */\n      dup4\n        /* \"#utility.yul\":16729:16749   */\n      tag_193\n      jump\t// in\n    tag_414:\n        /* \"#utility.yul\":16724:16749   */\n      swap3\n      pop\n        /* \"#utility.yul\":16768:16769   */\n      dup3\n        /* \"#utility.yul\":16765:16766   */\n      dup3\n        /* \"#utility.yul\":16762:16770   */\n      lt\n        /* \"#utility.yul\":16759:16793   */\n      iszero\n      tag_415\n      jumpi\n        /* \"#utility.yul\":16773:16791   */\n      tag_416\n      tag_220\n      jump\t// in\n    tag_416:\n        /* \"#utility.yul\":16759:16793   */\n    tag_415:\n        /* \"#utility.yul\":16818:16819   */\n      dup3\n        /* \"#utility.yul\":16815:16816   */\n      dup3\n        /* \"#utility.yul\":16811:16820   */\n      sub\n        /* \"#utility.yul\":16803:16820   */\n      swap1\n      pop\n        /* \"#utility.yul\":16635:16826   */\n      swap3\n      swap2\n      pop\n      pop\n      jump\t// out\n        /* \"#utility.yul\":16832:17137   */\n    tag_132:\n        /* \"#utility.yul\":16872:16875   */\n      0x00\n        /* \"#utility.yul\":16891:16911   */\n      tag_418\n        /* \"#utility.yul\":16909:16910   */\n      dup3\n        /* \"#utility.yul\":16891:16911   */\n      tag_193\n      jump\t// in\n    tag_418:\n        /* \"#utility.yul\":16886:16911   */\n      swap2\n      pop\n        /* \"#utility.yul\":16925:16945   */\n      tag_419\n        /* \"#utility.yul\":16943:16944   */\n      dup4\n        /* \"#utility.yul\":16925:16945   */\n      tag_193\n      jump\t// in\n    tag_419:\n        /* \"#utility.yul\":16920:16945   */\n      swap3\n      pop\n        /* \"#utility.yul\":17079:17080   */\n      dup3\n        /* \"#utility.yul\":17011:17077   */\n      0xffffffffffffffffffffffffffffffffffffffffffffffffffffffffffffffff\n        /* \"#utility.yul\":17007:17081   */\n      sub\n        /* \"#utility.yul\":17004:17005   */\n      dup3\n        /* \"#utility.yul\":17001:17082   */\n      gt\n        /* \"#utility.yul\":16998:17105   */\n      iszero\n      tag_420\n      jumpi\n        /* \"#utility.yul\":17085:17103   */\n      tag_421\n      tag_220\n      jump\t// in\n    tag_421:\n        /* \"#utility.yul\":16998:17105   */\n    tag_420:\n        /* \"#utility.yul\":17129:17130   */\n      dup3\n        /* \"#utility.yul\":17126:17127   */\n      dup3\n        /* \"#utility.yul\":17122:17131   */\n      add\n        /* \"#utility.yul\":17115:17131   */\n      swap1\n      pop\n        /* \"#utility.yul\":16832:17137   */\n      swap3\n      swap2\n      pop\n      pop\n      jump\t// out\n        /* \"#utility.yul\":17143:17676   */\n    tag_139:\n        /* \"#utility.yul\":17312:17316   */\n      0x00\n        /* \"#utility.yul\":17350:17352   */\n      0x60\n        /* \"#utility.yul\":17339:17348   */\n      dup3\n        /* \"#utility.yul\":17335:17353   */\n      add\n        /* \"#utility.yul\":17327:17353   */\n      swap1\n      pop\n        /* \"#utility.yul\":17363:17434   */\n      tag_423\n        /* \"#utility.yul\":17431:17432   */\n      0x00\n        /* \"#utility.yul\":17420:17429   */\n      dup4\n        /* \"#utility.yul\":17416:17433   */\n      add\n        /* \"#utility.yul\":17407:17413   */\n      dup7\n        /* \"#utility.yul\":17363:17434   */\n      tag_217\n      jump\t// in\n    tag_423:\n        /* \"#utility.yul\":17481:17490   */\n      dup2\n        /* \"#utility.yul\":17475:17479   */\n      dup2\n        /* \"#utility.yul\":17471:17491   */\n      sub\n        /* \"#utility.yul\":17466:17468   */\n      0x20\n        /* \"#utility.yul\":17455:17464   */\n      dup4\n        /* \"#utility.yul\":17451:17469   */\n      add\n        /* \"#utility.yul\":17444:17492   */\n      mstore\n        /* \"#utility.yul\":17509:17587   */\n      tag_424\n        /* \"#utility.yul\":17582:17586   */\n      dup2\n        /* \"#utility.yul\":17573:17579   */\n      dup6\n        /* \"#utility.yul\":17509:17587   */\n      tag_216\n      jump\t// in\n    tag_424:\n        /* \"#utility.yul\":17501:17587   */\n      swap1\n      pop\n        /* \"#utility.yul\":17597:17669   */\n      tag_425\n        /* \"#utility.yul\":17665:17667   */\n      0x40\n        /* \"#utility.yul\":17654:17663   */\n      dup4\n        /* \"#utility.yul\":17650:17668   */\n      add\n        /* \"#utility.yul\":17641:17647   */\n      dup5\n        /* \"#utility.yul\":17597:17669   */\n      tag_217\n      jump\t// in\n    tag_425:\n        /* \"#utility.yul\":17143:17676   */\n      swap5\n      swap4\n      pop\n      pop\n      pop\n      pop\n      jump\t// out\n        /* \"#utility.yul\":17682:17864   */\n    tag_239:\n        /* \"#utility.yul\":17822:17856   */\n      0x4f776e61626c653a2063616c6c6572206973206e6f7420746865206f776e6572\n        /* \"#utility.yul\":17818:17819   */\n      0x00\n        /* \"#utility.yul\":17810:17816   */\n      dup3\n        /* \"#utility.yul\":17806:17820   */\n      add\n        /* \"#utility.yul\":17799:17857   */\n      mstore\n        /* \"#utility.yul\":17682:17864   */\n      pop\n      jump\t// out\n        /* \"#utility.yul\":17870:18236   */\n    tag_240:\n        /* \"#utility.yul\":18012:18015   */\n      0x00\n        /* \"#utility.yul\":18033:18100   */\n      tag_428\n        /* \"#utility.yul\":18097:18099   */\n      0x20\n        /* \"#utility.yul\":18092:18095   */\n      dup4\n        /* \"#utility.yul\":18033:18100   */\n      tag_213\n      jump\t// in\n    tag_428:\n        /* \"#utility.yul\":18026:18100   */\n      swap2\n      pop\n        /* \"#utility.yul\":18109:18202   */\n      tag_429\n        /* \"#utility.yul\":18198:18201   */\n      dup3\n        /* \"#utility.yul\":18109:18202   */\n      tag_239\n      jump\t// in\n    tag_429:\n        /* \"#utility.yul\":18227:18229   */\n      0x20\n        /* \"#utility.yul\":18222:18225   */\n      dup3\n        /* \"#utility.yul\":18218:18230   */\n      add\n        /* \"#utility.yul\":18211:18230   */\n      swap1\n      pop\n        /* \"#utility.yul\":17870:18236   */\n      swap2\n      swap1\n      pop\n      jump\t// out\n        /* \"#utility.yul\":18242:18661   */\n    tag_146:\n        /* \"#utility.yul\":18408:18412   */\n      0x00\n        /* \"#utility.yul\":18446:18448   */\n      0x20\n        /* \"#utility.yul\":18435:18444   */\n      dup3\n        /* \"#utility.yul\":18431:18449   */\n      add\n        /* \"#utility.yul\":18423:18449   */\n      swap1\n      pop\n        /* \"#utility.yul\":18495:18504   */\n      dup2\n        /* \"#utility.yul\":18489:18493   */\n      dup2\n        /* \"#utility.yul\":18485:18505   */\n      sub\n        /* \"#utility.yul\":18481:18482   */\n      0x00\n        /* \"#utility.yul\":18470:18479   */\n      dup4\n        /* \"#utility.yul\":18466:18483   */\n      add\n        /* \"#utility.yul\":18459:18506   */\n      mstore\n        /* \"#utility.yul\":18523:18654   */\n      tag_431\n        /* \"#utility.yul\":18649:18653   */\n      dup2\n        /* \"#utility.yul\":18523:18654   */\n      tag_240\n      jump\t// in\n    tag_431:\n        /* \"#utility.yul\":18515:18654   */\n      swap1\n      pop\n        /* \"#utility.yul\":18242:18661   */\n      swap2\n      swap1\n      pop\n      jump\t// out\n        /* \"#utility.yul\":18667:18826   */\n    tag_241:\n        /* \"#utility.yul\":18807:18818   */\n      0x6e6f742072656164790000000000000000000000000000000000000000000000\n        /* \"#utility.yul\":18803:18804   */\n      0x00\n        /* \"#utility.yul\":18795:18801   */\n      dup3\n        /* \"#utility.yul\":18791:18805   */\n      add\n        /* \"#utility.yul\":18784:18819   */\n      mstore\n        /* \"#utility.yul\":18667:18826   */\n      pop\n      jump\t// out\n        /* \"#utility.yul\":18832:19197   */\n    tag_242:\n        /* \"#utility.yul\":18974:18977   */\n      0x00\n        /* \"#utility.yul\":18995:19061   */\n      tag_434\n        /* \"#utility.yul\":19059:19060   */\n      0x09\n        /* \"#utility.yul\":19054:19057   */\n      dup4\n        /* \"#utility.yul\":18995:19061   */\n      tag_213\n      jump\t// in\n    tag_434:\n        /* \"#utility.yul\":18988:19061   */\n      swap2\n      pop\n        /* \"#utility.yul\":19070:19163   */\n      tag_435\n        /* \"#utility.yul\":19159:19162   */\n      dup3\n        /* \"#utility.yul\":19070:19163   */\n      tag_241\n      jump\t// in\n    tag_435:\n        /* \"#utility.yul\":19188:19190   */\n      0x20\n        /* \"#utility.yul\":19183:19186   */\n      dup3\n        /* \"#utility.yul\":19179:19191   */\n      add\n        /* \"#utility.yul\":19172:19191   */\n      swap1\n      pop\n        /* \"#utility.yul\":18832:19197   */\n      swap2\n      swap1\n      pop\n      jump\t// out\n        /* \"#utility.yul\":19203:19622   */\n    tag_163:\n        /* \"#utility.yul\":19369:19373   */\n      0x00\n        /* \"#utility.yul\":19407:19409   */\n      0x20\n        /* \"#utility.yul\":19396:19405   */\n      dup3\n        /* \"#utility.yul\":19392:19410   */\n      add\n        /* \"#utility.yul\":19384:19410   */\n      swap1\n      pop\n        /* \"#utility.yul\":19456:19465   */\n      dup2\n        /* \"#utility.yul\":19450:19454   */\n      dup2\n        /* \"#utility.yul\":19446:19466   */\n      sub\n        /* \"#utility.yul\":19442:19443   */\n      0x00\n        /* \"#utility.yul\":19431:19440   */\n      dup4\n        /* \"#utility.yul\":19427:19444   */\n      add\n        /* \"#utility.yul\":19420:19467   */\n      mstore\n        /* \"#utility.yul\":19484:19615   */\n      tag_437\n        /* \"#utility.yul\":19610:19614   */\n      dup2\n        /* \"#utility.yul\":19484:19615   */\n      tag_242\n      jump\t// in\n    tag_437:\n        /* \"#utility.yul\":19476:19615   */\n      swap1\n      pop\n        /* \"#utility.yul\":19203:19622   */\n      swap2\n      swap1\n      pop\n      jump\t// out\n        /* \"#utility.yul\":19628:19813   */\n    tag_167:\n        /* \"#utility.yul\":19668:19669   */\n      0x00\n        /* \"#utility.yul\":19685:19705   */\n      tag_439\n        /* \"#utility.yul\":19703:19704   */\n      dup3\n        /* \"#utility.yul\":19685:19705   */\n      tag_193\n      jump\t// in\n    tag_439:\n        /* \"#utility.yul\":19680:19705   */\n      swap2\n      pop\n        /* \"#utility.yul\":19719:19739   */\n      tag_440\n        /* \"#utility.yul\":19737:19738   */\n      dup4\n        /* \"#utility.yul\":19719:19739   */\n      tag_193\n      jump\t// in\n    tag_440:\n        /* \"#utility.yul\":19714:19739   */\n      swap3\n      pop\n        /* \"#utility.yul\":19758:19759   */\n      dup3\n        /* \"#utility.yul\":19748:19783   */\n      tag_441\n      jumpi\n        /* \"#utility.yul\":19763:19781   */\n      tag_442\n      tag_238\n      jump\t// in\n    tag_442:\n        /* \"#utility.yul\":19748:19783   */\n    tag_441:\n        /* \"#utility.yul\":19805:19806   */\n      dup3\n        /* \"#utility.yul\":19802:19803   */\n      dup3\n        /* \"#utility.yul\":19798:19807   */\n      div\n        /* \"#utility.yul\":19793:19807   */\n      swap1\n      pop\n        /* \"#utility.yul\":19628:19813   */\n      swap3\n      swap2\n      pop\n      pop\n      jump\t// out\n\n    auxdata: 0xa2646970667358221220d28ded6b2e7919231ad5e4aa8f98ec4202b0d52849378cac66a0a225bec907f664736f6c634300080c0033\n}\n",
				"bytecode": {
					"linkReferences": {},
					"object": "6080604052600e600155600154600a6200001a9190620002af565b600255603c6003553480156200002f57600080fd5b5062000050620000446200005660201b60201c565b6200005e60201b60201c565b62000300565b600033905090565b60008060009054906101000a900473ffffffffffffffffffffffffffffffffffffffff169050816000806101000a81548173ffffffffffffffffffffffffffffffffffffffff021916908373ffffffffffffffffffffffffffffffffffffffff1602179055508173ffffffffffffffffffffffffffffffffffffffff168173ffffffffffffffffffffffffffffffffffffffff167f8be0079c531659141344cd1fd0a4f28419497f9722a3daafe3b4186f6b6457e060405160405180910390a35050565b7f4e487b7100000000000000000000000000000000000000000000000000000000600052601160045260246000fd5b60008160011c9050919050565b6000808291508390505b6001851115620001b05780860481111562000188576200018762000122565b5b6001851615620001985780820291505b8081029050620001a88562000151565b945062000168565b94509492505050565b600082620001cb57600190506200029e565b81620001db57600090506200029e565b8160018114620001f45760028114620001ff5762000235565b60019150506200029e565b60ff84111562000214576200021362000122565b5b8360020a9150848211156200022e576200022d62000122565b5b506200029e565b5060208310610133831016604e8410600b84101617156200026f5782820a90508381111562000269576200026862000122565b5b6200029e565b6200027e84848460016200015e565b9250905081840481111562000298576200029762000122565b5b81810290505b9392505050565b6000819050919050565b6000620002bc82620002a5565b9150620002c983620002a5565b9250620002f87fffffffffffffffffffffffffffffffffffffffffffffffffffffffffffffffff8484620001b9565b905092915050565b61199d80620003106000396000f3fe6080604052600436106100915760003560e01c80636d6aa5bb116100595780636d6aa5bb146101a1578063703b3d38146101bd578063715018a6146101fa5780638da5cb5b14610211578063f2fde38b1461023c57610091565b80630e17f883146100965780631e1694cb146100d35780635a1e6313146101105780636bdfcef9146101395780636c506e8a14610178575b600080fd5b3480156100a257600080fd5b506100bd60048036038101906100b89190610ef3565b610265565b6040516100ca9190610f61565b60405180910390f35b3480156100df57600080fd5b506100fa60048036038101906100f59190610fa8565b610298565b6040516101079190611093565b60405180910390f35b34801561011c57600080fd5b506101376004803603810190610132919061111a565b6103eb565b005b34801561014557600080fd5b50610160600480360381019061015b9190610ef3565b6104ce565b60405161016f9392919061122e565b60405180910390f35b34801561018457600080fd5b5061019f600480360381019061019a9190610fa8565b6105a0565b005b6101bb60048036038101906101b6919061126c565b6105ec565b005b3480156101c957600080fd5b506101e460048036038101906101df9190610fa8565b610723565b6040516101f191906112ac565b60405180910390f35b34801561020657600080fd5b5061020f61073b565b005b34801561021d57600080fd5b5061022661074f565b6040516102339190610f61565b60405180910390f35b34801561024857600080fd5b50610263600480360381019061025e9190610fa8565b610778565b005b60056020528060005260406000206000915054906101000a900473ffffffffffffffffffffffffffffffffffffffff1681565b60606000600660008473ffffffffffffffffffffffffffffffffffffffff1673ffffffffffffffffffffffffffffffffffffffff1681526020019081526020016000205467ffffffffffffffff8111156102f5576102f46112c7565b5b6040519080825280602002602001820160405280156103235781602001602082028036833780820191505090505b5090506000805b6004805490508110156103e0578473ffffffffffffffffffffffffffffffffffffffff166005600083815260200190815260200160002060009054906101000a900473ffffffffffffffffffffffffffffffffffffffff1673ffffffffffffffffffffffffffffffffffffffff1614156103cd57808383815181106103b2576103b16112f6565b5b60200260200101818152505081806103c990611354565b9250505b80806103d890611354565b91505061032a565b508192505050919050565b6000600660003373ffffffffffffffffffffffffffffffffffffffff1673ffffffffffffffffffffffffffffffffffffffff168152602001908152602001600020541461046d576040517f08c379a0000000000000000000000000000000000000000000000000000000008152600401610464906113e9565b60405180910390fd5b600061047983836107fc565b90506104c983838080601f016020809104026020016040519081016040528093929190818152602001838380828437600081840152601f19601f8201169050808301925050505050505082610853565b505050565b600481815481106104de57600080fd5b906000526020600020906003020160009150905080600001805461050190611438565b80601f016020809104026020016040519081016040528092919081815260200182805461052d90611438565b801561057a5780601f1061054f5761010080835404028352916020019161057a565b820191906000526020600020905b81548152906001019060200180831161055d57829003601f168201915b5050505050908060010154908060020160009054906101000a900463ffffffff16905083565b6105a86109f9565b80600760006101000a81548173ffffffffffffffffffffffffffffffffffffffff021916908373ffffffffffffffffffffffffffffffffffffffff16021790555050565b600080600760009054906101000a900473ffffffffffffffffffffffffffffffffffffffff1673ffffffffffffffffffffffffffffffffffffffff1663ecb76d90846040518263ffffffff1660e01b815260040161064a91906112ac565b600060405180830381865afa158015610667573d6000803e3d6000fd5b505050506040513d6000823e3d601f19601f820116820180604052508101906106909190611571565b90915080925081935050508034146106dd576040517f08c379a00000000000000000000000000000000000000000000000000000000081526004016106d49061162c565b60405180910390fd5b61071d84836040518060400160405280600481526020017f6665656400000000000000000000000000000000000000000000000000000000815250610a77565b50505050565b60066020528060005260406000206000915090505481565b6107436109f9565b61074d6000610cfb565b565b60008060009054906101000a900473ffffffffffffffffffffffffffffffffffffffff16905090565b6107806109f9565b600073ffffffffffffffffffffffffffffffffffffffff168173ffffffffffffffffffffffffffffffffffffffff1614156107f0576040517f08c379a00000000000000000000000000000000000000000000000000000000081526004016107e7906116be565b60405180910390fd5b6107f981610cfb565b50565b600080838360405161080f92919061171d565b604051809103902060001c905060006002548261082c9190611765565b905060648161083b9190611765565b816108469190611796565b9050809250505092915050565b600460405180606001604052808481526020018381526020016003544261087a91906117ca565b63ffffffff16815250908060018154018082558091505060019003906000526020600020906003020160009091909190915060008201518160000190805190602001906108c8929190610e06565b506020820151816001015560408201518160020160006101000a81548163ffffffff021916908363ffffffff1602179055505050600060016004805490506109109190611796565b9050336005600083815260200190815260200160002060006101000a81548173ffffffffffffffffffffffffffffffffffffffff021916908373ffffffffffffffffffffffffffffffffffffffff160217905550600660003373ffffffffffffffffffffffffffffffffffffffff1673ffffffffffffffffffffffffffffffffffffffff16815260200190815260200160002060008154809291906109b490611354565b91905055507fe7cedaa81d0ef09a46e22de5467585892163b2b6e985d853c385ced0fe5c02ef8184846040516109ec93929190611820565b60405180910390a1505050565b610a01610dbf565b73ffffffffffffffffffffffffffffffffffffffff16610a1f61074f565b73ffffffffffffffffffffffffffffffffffffffff1614610a75576040517f08c379a0000000000000000000000000000000000000000000000000000000008152600401610a6c906118aa565b60405180910390fd5b565b826005600082815260200190815260200160002060009054906101000a900473ffffffffffffffffffffffffffffffffffffffff1673ffffffffffffffffffffffffffffffffffffffff16610aca610dbf565b73ffffffffffffffffffffffffffffffffffffffff1614610aea57600080fd5b600060048581548110610b0057610aff6112f6565b5b9060005260206000209060030201604051806060016040529081600082018054610b2990611438565b80601f0160208091040260200160405190810160405280929190818152602001828054610b5590611438565b8015610ba25780601f10610b7757610100808354040283529160200191610ba2565b820191906000526020600020905b815481529060010190602001808311610b8557829003601f168201915b50505050508152602001600182015481526020016002820160009054906101000a900463ffffffff1663ffffffff1663ffffffff16815250509050610be681610dc7565b610c25576040517f08c379a0000000000000000000000000000000000000000000000000000000008152600401610c1c90611916565b60405180910390fd5b60025484610c339190611765565b935060006002858360200151610c4991906117ca565b610c539190611936565b90507f4258863e2d81c316e4a4dd381c3c50f57f933be22afba98b4485a605da0f781184805190602001201415610cab576001606482610c939190611765565b82610c9e9190611796565b610ca891906117ca565b90505b610cea6040518060400160405280600681526020017f4e6f6e616d65000000000000000000000000000000000000000000000000000081525082610853565b610cf382610dde565b505050505050565b60008060009054906101000a900473ffffffffffffffffffffffffffffffffffffffff169050816000806101000a81548173ffffffffffffffffffffffffffffffffffffffff021916908373ffffffffffffffffffffffffffffffffffffffff1602179055508173ffffffffffffffffffffffffffffffffffffffff168173ffffffffffffffffffffffffffffffffffffffff167f8be0079c531659141344cd1fd0a4f28419497f9722a3daafe3b4186f6b6457e060405160405180910390a35050565b600033905090565b600042826040015163ffffffff1611159050919050565b60035442610dec91906117ca565b816040019063ffffffff16908163ffffffff168152505050565b828054610e1290611438565b90600052602060002090601f016020900481019282610e345760008555610e7b565b82601f10610e4d57805160ff1916838001178555610e7b565b82800160010185558215610e7b579182015b82811115610e7a578251825591602001919060010190610e5f565b5b509050610e889190610e8c565b5090565b5b80821115610ea5576000816000905550600101610e8d565b5090565b6000604051905090565b600080fd5b600080fd5b6000819050919050565b610ed081610ebd565b8114610edb57600080fd5b50565b600081359050610eed81610ec7565b92915050565b600060208284031215610f0957610f08610eb3565b5b6000610f1784828501610ede565b91505092915050565b600073ffffffffffffffffffffffffffffffffffffffff82169050919050565b6000610f4b82610f20565b9050919050565b610f5b81610f40565b82525050565b6000602082019050610f766000830184610f52565b92915050565b610f8581610f40565b8114610f9057600080fd5b50565b600081359050610fa281610f7c565b92915050565b600060208284031215610fbe57610fbd610eb3565b5b6000610fcc84828501610f93565b91505092915050565b600081519050919050565b600082825260208201905092915050565b6000819050602082019050919050565b61100a81610ebd565b82525050565b600061101c8383611001565b60208301905092915050565b6000602082019050919050565b600061104082610fd5565b61104a8185610fe0565b935061105583610ff1565b8060005b8381101561108657815161106d8882611010565b975061107883611028565b925050600181019050611059565b5085935050505092915050565b600060208201905081810360008301526110ad8184611035565b905092915050565b600080fd5b600080fd5b600080fd5b60008083601f8401126110da576110d96110b5565b5b8235905067ffffffffffffffff8111156110f7576110f66110ba565b5b602083019150836001820283011115611113576111126110bf565b5b9250929050565b6000806020838503121561113157611130610eb3565b5b600083013567ffffffffffffffff81111561114f5761114e610eb8565b5b61115b858286016110c4565b92509250509250929050565b600081519050919050565b600082825260208201905092915050565b60005b838110156111a1578082015181840152602081019050611186565b838111156111b0576000848401525b50505050565b6000601f19601f8301169050919050565b60006111d282611167565b6111dc8185611172565b93506111ec818560208601611183565b6111f5816111b6565b840191505092915050565b61120981610ebd565b82525050565b600063ffffffff82169050919050565b6112288161120f565b82525050565b6000606082019050818103600083015261124881866111c7565b90506112576020830185611200565b611264604083018461121f565b949350505050565b6000806040838503121561128357611282610eb3565b5b600061129185828601610ede565b92505060206112a285828601610ede565b9150509250929050565b60006020820190506112c16000830184611200565b92915050565b7f4e487b7100000000000000000000000000000000000000000000000000000000600052604160045260246000fd5b7f4e487b7100000000000000000000000000000000000000000000000000000000600052603260045260246000fd5b7f4e487b7100000000000000000000000000000000000000000000000000000000600052601160045260246000fd5b600061135f82610ebd565b91507fffffffffffffffffffffffffffffffffffffffffffffffffffffffffffffffff82141561139257611391611325565b5b600182019050919050565b7f612066756e67757320616c726561647920657869737473000000000000000000600082015250565b60006113d3601783611172565b91506113de8261139d565b602082019050919050565b60006020820190508181036000830152611402816113c6565b9050919050565b7f4e487b7100000000000000000000000000000000000000000000000000000000600052602260045260246000fd5b6000600282049050600182168061145057607f821691505b6020821081141561146457611463611409565b5b50919050565b600080fd5b611478826111b6565b810181811067ffffffffffffffff82111715611497576114966112c7565b5b80604052505050565b60006114aa610ea9565b90506114b6828261146f565b919050565b600067ffffffffffffffff8211156114d6576114d56112c7565b5b6114df826111b6565b9050602081019050919050565b60006114ff6114fa846114bb565b6114a0565b90508281526020810184848401111561151b5761151a61146a565b5b611526848285611183565b509392505050565b600082601f830112611543576115426110b5565b5b81516115538482602086016114ec565b91505092915050565b60008151905061156b81610ec7565b92915050565b60008060006060848603121561158a57611589610eb3565b5b600084015167ffffffffffffffff8111156115a8576115a7610eb8565b5b6115b48682870161152e565b93505060206115c58682870161155c565b92505060406115d68682870161155c565b9150509250925092565b7f6265207061696420696e617070726f70726961746520657870656e7365730000600082015250565b6000611616601e83611172565b9150611621826115e0565b602082019050919050565b6000602082019050818103600083015261164581611609565b9050919050565b7f4f776e61626c653a206e6577206f776e657220697320746865207a65726f206160008201527f6464726573730000000000000000000000000000000000000000000000000000602082015250565b60006116a8602683611172565b91506116b38261164c565b604082019050919050565b600060208201905081810360008301526116d78161169b565b9050919050565b600081905092915050565b82818337600083830152505050565b600061170483856116de565b93506117118385846116e9565b82840190509392505050565b600061172a8284866116f8565b91508190509392505050565b7f4e487b7100000000000000000000000000000000000000000000000000000000600052601260045260246000fd5b600061177082610ebd565b915061177b83610ebd565b92508261178b5761178a611736565b5b828206905092915050565b60006117a182610ebd565b91506117ac83610ebd565b9250828210156117bf576117be611325565b5b828203905092915050565b60006117d582610ebd565b91506117e083610ebd565b9250827fffffffffffffffffffffffffffffffffffffffffffffffffffffffffffffffff0382111561181557611814611325565b5b828201905092915050565b60006060820190506118356000830186611200565b818103602083015261184781856111c7565b90506118566040830184611200565b949350505050565b7f4f776e61626c653a2063616c6c6572206973206e6f7420746865206f776e6572600082015250565b6000611894602083611172565b915061189f8261185e565b602082019050919050565b600060208201905081810360008301526118c381611887565b9050919050565b7f6e6f742072656164790000000000000000000000000000000000000000000000600082015250565b6000611900600983611172565b915061190b826118ca565b602082019050919050565b6000602082019050818103600083015261192f816118f3565b9050919050565b600061194182610ebd565b915061194c83610ebd565b92508261195c5761195b611736565b5b82820490509291505056fea2646970667358221220d28ded6b2e7919231ad5e4aa8f98ec4202b0d52849378cac66a0a225bec907f664736f6c634300080c0033",
					"opcodes": "PUSH1 0x80 PUSH1 0x40 MSTORE PUSH1 0xE PUSH1 0x1 SSTORE PUSH1 0x1 SLOAD PUSH1 0xA PUSH3 0x1A SWAP2 SWAP1 PUSH3 0x2AF JUMP JUMPDEST PUSH1 0x2 SSTORE PUSH1 0x3C PUSH1 0x3 SSTORE CALLVALUE DUP1 ISZERO PUSH3 0x2F JUMPI PUSH1 0x0 DUP1 REVERT JUMPDEST POP PUSH3 0x50 PUSH3 0x44 PUSH3 0x56 PUSH1 0x20 SHL PUSH1 0x20 SHR JUMP JUMPDEST PUSH3 0x5E PUSH1 0x20 SHL PUSH1 0x20 SHR JUMP JUMPDEST PUSH3 0x300 JUMP JUMPDEST PUSH1 0x0 CALLER SWAP1 POP SWAP1 JUMP JUMPDEST PUSH1 0x0 DUP1 PUSH1 0x0 SWAP1 SLOAD SWAP1 PUSH2 0x100 EXP SWAP1 DIV PUSH20 0xFFFFFFFFFFFFFFFFFFFFFFFFFFFFFFFFFFFFFFFF AND SWAP1 POP DUP2 PUSH1 0x0 DUP1 PUSH2 0x100 EXP DUP2 SLOAD DUP2 PUSH20 0xFFFFFFFFFFFFFFFFFFFFFFFFFFFFFFFFFFFFFFFF MUL NOT AND SWAP1 DUP4 PUSH20 0xFFFFFFFFFFFFFFFFFFFFFFFFFFFFFFFFFFFFFFFF AND MUL OR SWAP1 SSTORE POP DUP2 PUSH20 0xFFFFFFFFFFFFFFFFFFFFFFFFFFFFFFFFFFFFFFFF AND DUP2 PUSH20 0xFFFFFFFFFFFFFFFFFFFFFFFFFFFFFFFFFFFFFFFF AND PUSH32 0x8BE0079C531659141344CD1FD0A4F28419497F9722A3DAAFE3B4186F6B6457E0 PUSH1 0x40 MLOAD PUSH1 0x40 MLOAD DUP1 SWAP2 SUB SWAP1 LOG3 POP POP JUMP JUMPDEST PUSH32 0x4E487B7100000000000000000000000000000000000000000000000000000000 PUSH1 0x0 MSTORE PUSH1 0x11 PUSH1 0x4 MSTORE PUSH1 0x24 PUSH1 0x0 REVERT JUMPDEST PUSH1 0x0 DUP2 PUSH1 0x1 SHR SWAP1 POP SWAP2 SWAP1 POP JUMP JUMPDEST PUSH1 0x0 DUP1 DUP3 SWAP2 POP DUP4 SWAP1 POP JUMPDEST PUSH1 0x1 DUP6 GT ISZERO PUSH3 0x1B0 JUMPI DUP1 DUP7 DIV DUP2 GT ISZERO PUSH3 0x188 JUMPI PUSH3 0x187 PUSH3 0x122 JUMP JUMPDEST JUMPDEST PUSH1 0x1 DUP6 AND ISZERO PUSH3 0x198 JUMPI DUP1 DUP3 MUL SWAP2 POP JUMPDEST DUP1 DUP2 MUL SWAP1 POP PUSH3 0x1A8 DUP6 PUSH3 0x151 JUMP JUMPDEST SWAP5 POP PUSH3 0x168 JUMP JUMPDEST SWAP5 POP SWAP5 SWAP3 POP POP POP JUMP JUMPDEST PUSH1 0x0 DUP3 PUSH3 0x1CB JUMPI PUSH1 0x1 SWAP1 POP PUSH3 0x29E JUMP JUMPDEST DUP2 PUSH3 0x1DB JUMPI PUSH1 0x0 SWAP1 POP PUSH3 0x29E JUMP JUMPDEST DUP2 PUSH1 0x1 DUP2 EQ PUSH3 0x1F4 JUMPI PUSH1 0x2 DUP2 EQ PUSH3 0x1FF JUMPI PUSH3 0x235 JUMP JUMPDEST PUSH1 0x1 SWAP2 POP POP PUSH3 0x29E JUMP JUMPDEST PUSH1 0xFF DUP5 GT ISZERO PUSH3 0x214 JUMPI PUSH3 0x213 PUSH3 0x122 JUMP JUMPDEST JUMPDEST DUP4 PUSH1 0x2 EXP SWAP2 POP DUP5 DUP3 GT ISZERO PUSH3 0x22E JUMPI PUSH3 0x22D PUSH3 0x122 JUMP JUMPDEST JUMPDEST POP PUSH3 0x29E JUMP JUMPDEST POP PUSH1 0x20 DUP4 LT PUSH2 0x133 DUP4 LT AND PUSH1 0x4E DUP5 LT PUSH1 0xB DUP5 LT AND OR ISZERO PUSH3 0x26F JUMPI DUP3 DUP3 EXP SWAP1 POP DUP4 DUP2 GT ISZERO PUSH3 0x269 JUMPI PUSH3 0x268 PUSH3 0x122 JUMP JUMPDEST JUMPDEST PUSH3 0x29E JUMP JUMPDEST PUSH3 0x27E DUP5 DUP5 DUP5 PUSH1 0x1 PUSH3 0x15E JUMP JUMPDEST SWAP3 POP SWAP1 POP DUP2 DUP5 DIV DUP2 GT ISZERO PUSH3 0x298 JUMPI PUSH3 0x297 PUSH3 0x122 JUMP JUMPDEST JUMPDEST DUP2 DUP2 MUL SWAP1 POP JUMPDEST SWAP4 SWAP3 POP POP POP JUMP JUMPDEST PUSH1 0x0 DUP2 SWAP1 POP SWAP2 SWAP1 POP JUMP JUMPDEST PUSH1 0x0 PUSH3 0x2BC DUP3 PUSH3 0x2A5 JUMP JUMPDEST SWAP2 POP PUSH3 0x2C9 DUP4 PUSH3 0x2A5 JUMP JUMPDEST SWAP3 POP PUSH3 0x2F8 PUSH32 0xFFFFFFFFFFFFFFFFFFFFFFFFFFFFFFFFFFFFFFFFFFFFFFFFFFFFFFFFFFFFFFFF DUP5 DUP5 PUSH3 0x1B9 JUMP JUMPDEST SWAP1 POP SWAP3 SWAP2 POP POP JUMP JUMPDEST PUSH2 0x199D DUP1 PUSH3 0x310 PUSH1 0x0 CODECOPY PUSH1 0x0 RETURN INVALID PUSH1 0x80 PUSH1 0x40 MSTORE PUSH1 0x4 CALLDATASIZE LT PUSH2 0x91 JUMPI PUSH1 0x0 CALLDATALOAD PUSH1 0xE0 SHR DUP1 PUSH4 0x6D6AA5BB GT PUSH2 0x59 JUMPI DUP1 PUSH4 0x6D6AA5BB EQ PUSH2 0x1A1 JUMPI DUP1 PUSH4 0x703B3D38 EQ PUSH2 0x1BD JUMPI DUP1 PUSH4 0x715018A6 EQ PUSH2 0x1FA JUMPI DUP1 PUSH4 0x8DA5CB5B EQ PUSH2 0x211 JUMPI DUP1 PUSH4 0xF2FDE38B EQ PUSH2 0x23C JUMPI PUSH2 0x91 JUMP JUMPDEST DUP1 PUSH4 0xE17F883 EQ PUSH2 0x96 JUMPI DUP1 PUSH4 0x1E1694CB EQ PUSH2 0xD3 JUMPI DUP1 PUSH4 0x5A1E6313 EQ PUSH2 0x110 JUMPI DUP1 PUSH4 0x6BDFCEF9 EQ PUSH2 0x139 JUMPI DUP1 PUSH4 0x6C506E8A EQ PUSH2 0x178 JUMPI JUMPDEST PUSH1 0x0 DUP1 REVERT JUMPDEST CALLVALUE DUP1 ISZERO PUSH2 0xA2 JUMPI PUSH1 0x0 DUP1 REVERT JUMPDEST POP PUSH2 0xBD PUSH1 0x4 DUP1 CALLDATASIZE SUB DUP2 ADD SWAP1 PUSH2 0xB8 SWAP2 SWAP1 PUSH2 0xEF3 JUMP JUMPDEST PUSH2 0x265 JUMP JUMPDEST PUSH1 0x40 MLOAD PUSH2 0xCA SWAP2 SWAP1 PUSH2 0xF61 JUMP JUMPDEST PUSH1 0x40 MLOAD DUP1 SWAP2 SUB SWAP1 RETURN JUMPDEST CALLVALUE DUP1 ISZERO PUSH2 0xDF JUMPI PUSH1 0x0 DUP1 REVERT JUMPDEST POP PUSH2 0xFA PUSH1 0x4 DUP1 CALLDATASIZE SUB DUP2 ADD SWAP1 PUSH2 0xF5 SWAP2 SWAP1 PUSH2 0xFA8 JUMP JUMPDEST PUSH2 0x298 JUMP JUMPDEST PUSH1 0x40 MLOAD PUSH2 0x107 SWAP2 SWAP1 PUSH2 0x1093 JUMP JUMPDEST PUSH1 0x40 MLOAD DUP1 SWAP2 SUB SWAP1 RETURN JUMPDEST CALLVALUE DUP1 ISZERO PUSH2 0x11C JUMPI PUSH1 0x0 DUP1 REVERT JUMPDEST POP PUSH2 0x137 PUSH1 0x4 DUP1 CALLDATASIZE SUB DUP2 ADD SWAP1 PUSH2 0x132 SWAP2 SWAP1 PUSH2 0x111A JUMP JUMPDEST PUSH2 0x3EB JUMP JUMPDEST STOP JUMPDEST CALLVALUE DUP1 ISZERO PUSH2 0x145 JUMPI PUSH1 0x0 DUP1 REVERT JUMPDEST POP PUSH2 0x160 PUSH1 0x4 DUP1 CALLDATASIZE SUB DUP2 ADD SWAP1 PUSH2 0x15B SWAP2 SWAP1 PUSH2 0xEF3 JUMP JUMPDEST PUSH2 0x4CE JUMP JUMPDEST PUSH1 0x40 MLOAD PUSH2 0x16F SWAP4 SWAP3 SWAP2 SWAP1 PUSH2 0x122E JUMP JUMPDEST PUSH1 0x40 MLOAD DUP1 SWAP2 SUB SWAP1 RETURN JUMPDEST CALLVALUE DUP1 ISZERO PUSH2 0x184 JUMPI PUSH1 0x0 DUP1 REVERT JUMPDEST POP PUSH2 0x19F PUSH1 0x4 DUP1 CALLDATASIZE SUB DUP2 ADD SWAP1 PUSH2 0x19A SWAP2 SWAP1 PUSH2 0xFA8 JUMP JUMPDEST PUSH2 0x5A0 JUMP JUMPDEST STOP JUMPDEST PUSH2 0x1BB PUSH1 0x4 DUP1 CALLDATASIZE SUB DUP2 ADD SWAP1 PUSH2 0x1B6 SWAP2 SWAP1 PUSH2 0x126C JUMP JUMPDEST PUSH2 0x5EC JUMP JUMPDEST STOP JUMPDEST CALLVALUE DUP1 ISZERO PUSH2 0x1C9 JUMPI PUSH1 0x0 DUP1 REVERT JUMPDEST POP PUSH2 0x1E4 PUSH1 0x4 DUP1 CALLDATASIZE SUB DUP2 ADD SWAP1 PUSH2 0x1DF SWAP2 SWAP1 PUSH2 0xFA8 JUMP JUMPDEST PUSH2 0x723 JUMP JUMPDEST PUSH1 0x40 MLOAD PUSH2 0x1F1 SWAP2 SWAP1 PUSH2 0x12AC JUMP JUMPDEST PUSH1 0x40 MLOAD DUP1 SWAP2 SUB SWAP1 RETURN JUMPDEST CALLVALUE DUP1 ISZERO PUSH2 0x206 JUMPI PUSH1 0x0 DUP1 REVERT JUMPDEST POP PUSH2 0x20F PUSH2 0x73B JUMP JUMPDEST STOP JUMPDEST CALLVALUE DUP1 ISZERO PUSH2 0x21D JUMPI PUSH1 0x0 DUP1 REVERT JUMPDEST POP PUSH2 0x226 PUSH2 0x74F JUMP JUMPDEST PUSH1 0x40 MLOAD PUSH2 0x233 SWAP2 SWAP1 PUSH2 0xF61 JUMP JUMPDEST PUSH1 0x40 MLOAD DUP1 SWAP2 SUB SWAP1 RETURN JUMPDEST CALLVALUE DUP1 ISZERO PUSH2 0x248 JUMPI PUSH1 0x0 DUP1 REVERT JUMPDEST POP PUSH2 0x263 PUSH1 0x4 DUP1 CALLDATASIZE SUB DUP2 ADD SWAP1 PUSH2 0x25E SWAP2 SWAP1 PUSH2 0xFA8 JUMP JUMPDEST PUSH2 0x778 JUMP JUMPDEST STOP JUMPDEST PUSH1 0x5 PUSH1 0x20 MSTORE DUP1 PUSH1 0x0 MSTORE PUSH1 0x40 PUSH1 0x0 KECCAK256 PUSH1 0x0 SWAP2 POP SLOAD SWAP1 PUSH2 0x100 EXP SWAP1 DIV PUSH20 0xFFFFFFFFFFFFFFFFFFFFFFFFFFFFFFFFFFFFFFFF AND DUP2 JUMP JUMPDEST PUSH1 0x60 PUSH1 0x0 PUSH1 0x6 PUSH1 0x0 DUP5 PUSH20 0xFFFFFFFFFFFFFFFFFFFFFFFFFFFFFFFFFFFFFFFF AND PUSH20 0xFFFFFFFFFFFFFFFFFFFFFFFFFFFFFFFFFFFFFFFF AND DUP2 MSTORE PUSH1 0x20 ADD SWAP1 DUP2 MSTORE PUSH1 0x20 ADD PUSH1 0x0 KECCAK256 SLOAD PUSH8 0xFFFFFFFFFFFFFFFF DUP2 GT ISZERO PUSH2 0x2F5 JUMPI PUSH2 0x2F4 PUSH2 0x12C7 JUMP JUMPDEST JUMPDEST PUSH1 0x40 MLOAD SWAP1 DUP1 DUP3 MSTORE DUP1 PUSH1 0x20 MUL PUSH1 0x20 ADD DUP3 ADD PUSH1 0x40 MSTORE DUP1 ISZERO PUSH2 0x323 JUMPI DUP2 PUSH1 0x20 ADD PUSH1 0x20 DUP3 MUL DUP1 CALLDATASIZE DUP4 CALLDATACOPY DUP1 DUP3 ADD SWAP2 POP POP SWAP1 POP JUMPDEST POP SWAP1 POP PUSH1 0x0 DUP1 JUMPDEST PUSH1 0x4 DUP1 SLOAD SWAP1 POP DUP2 LT ISZERO PUSH2 0x3E0 JUMPI DUP5 PUSH20 0xFFFFFFFFFFFFFFFFFFFFFFFFFFFFFFFFFFFFFFFF AND PUSH1 0x5 PUSH1 0x0 DUP4 DUP2 MSTORE PUSH1 0x20 ADD SWAP1 DUP2 MSTORE PUSH1 0x20 ADD PUSH1 0x0 KECCAK256 PUSH1 0x0 SWAP1 SLOAD SWAP1 PUSH2 0x100 EXP SWAP1 DIV PUSH20 0xFFFFFFFFFFFFFFFFFFFFFFFFFFFFFFFFFFFFFFFF AND PUSH20 0xFFFFFFFFFFFFFFFFFFFFFFFFFFFFFFFFFFFFFFFF AND EQ ISZERO PUSH2 0x3CD JUMPI DUP1 DUP4 DUP4 DUP2 MLOAD DUP2 LT PUSH2 0x3B2 JUMPI PUSH2 0x3B1 PUSH2 0x12F6 JUMP JUMPDEST JUMPDEST PUSH1 0x20 MUL PUSH1 0x20 ADD ADD DUP2 DUP2 MSTORE POP POP DUP2 DUP1 PUSH2 0x3C9 SWAP1 PUSH2 0x1354 JUMP JUMPDEST SWAP3 POP POP JUMPDEST DUP1 DUP1 PUSH2 0x3D8 SWAP1 PUSH2 0x1354 JUMP JUMPDEST SWAP2 POP POP PUSH2 0x32A JUMP JUMPDEST POP DUP2 SWAP3 POP POP POP SWAP2 SWAP1 POP JUMP JUMPDEST PUSH1 0x0 PUSH1 0x6 PUSH1 0x0 CALLER PUSH20 0xFFFFFFFFFFFFFFFFFFFFFFFFFFFFFFFFFFFFFFFF AND PUSH20 0xFFFFFFFFFFFFFFFFFFFFFFFFFFFFFFFFFFFFFFFF AND DUP2 MSTORE PUSH1 0x20 ADD SWAP1 DUP2 MSTORE PUSH1 0x20 ADD PUSH1 0x0 KECCAK256 SLOAD EQ PUSH2 0x46D JUMPI PUSH1 0x40 MLOAD PUSH32 0x8C379A000000000000000000000000000000000000000000000000000000000 DUP2 MSTORE PUSH1 0x4 ADD PUSH2 0x464 SWAP1 PUSH2 0x13E9 JUMP JUMPDEST PUSH1 0x40 MLOAD DUP1 SWAP2 SUB SWAP1 REVERT JUMPDEST PUSH1 0x0 PUSH2 0x479 DUP4 DUP4 PUSH2 0x7FC JUMP JUMPDEST SWAP1 POP PUSH2 0x4C9 DUP4 DUP4 DUP1 DUP1 PUSH1 0x1F ADD PUSH1 0x20 DUP1 SWAP2 DIV MUL PUSH1 0x20 ADD PUSH1 0x40 MLOAD SWAP1 DUP2 ADD PUSH1 0x40 MSTORE DUP1 SWAP4 SWAP3 SWAP2 SWAP1 DUP2 DUP2 MSTORE PUSH1 0x20 ADD DUP4 DUP4 DUP1 DUP3 DUP5 CALLDATACOPY PUSH1 0x0 DUP2 DUP5 ADD MSTORE PUSH1 0x1F NOT PUSH1 0x1F DUP3 ADD AND SWAP1 POP DUP1 DUP4 ADD SWAP3 POP POP POP POP POP POP POP DUP3 PUSH2 0x853 JUMP JUMPDEST POP POP POP JUMP JUMPDEST PUSH1 0x4 DUP2 DUP2 SLOAD DUP2 LT PUSH2 0x4DE JUMPI PUSH1 0x0 DUP1 REVERT JUMPDEST SWAP1 PUSH1 0x0 MSTORE PUSH1 0x20 PUSH1 0x0 KECCAK256 SWAP1 PUSH1 0x3 MUL ADD PUSH1 0x0 SWAP2 POP SWAP1 POP DUP1 PUSH1 0x0 ADD DUP1 SLOAD PUSH2 0x501 SWAP1 PUSH2 0x1438 JUMP JUMPDEST DUP1 PUSH1 0x1F ADD PUSH1 0x20 DUP1 SWAP2 DIV MUL PUSH1 0x20 ADD PUSH1 0x40 MLOAD SWAP1 DUP2 ADD PUSH1 0x40 MSTORE DUP1 SWAP3 SWAP2 SWAP1 DUP2 DUP2 MSTORE PUSH1 0x20 ADD DUP3 DUP1 SLOAD PUSH2 0x52D SWAP1 PUSH2 0x1438 JUMP JUMPDEST DUP1 ISZERO PUSH2 0x57A JUMPI DUP1 PUSH1 0x1F LT PUSH2 0x54F JUMPI PUSH2 0x100 DUP1 DUP4 SLOAD DIV MUL DUP4 MSTORE SWAP2 PUSH1 0x20 ADD SWAP2 PUSH2 0x57A JUMP JUMPDEST DUP3 ADD SWAP2 SWAP1 PUSH1 0x0 MSTORE PUSH1 0x20 PUSH1 0x0 KECCAK256 SWAP1 JUMPDEST DUP2 SLOAD DUP2 MSTORE SWAP1 PUSH1 0x1 ADD SWAP1 PUSH1 0x20 ADD DUP1 DUP4 GT PUSH2 0x55D JUMPI DUP3 SWAP1 SUB PUSH1 0x1F AND DUP3 ADD SWAP2 JUMPDEST POP POP POP POP POP SWAP1 DUP1 PUSH1 0x1 ADD SLOAD SWAP1 DUP1 PUSH1 0x2 ADD PUSH1 0x0 SWAP1 SLOAD SWAP1 PUSH2 0x100 EXP SWAP1 DIV PUSH4 0xFFFFFFFF AND SWAP1 POP DUP4 JUMP JUMPDEST PUSH2 0x5A8 PUSH2 0x9F9 JUMP JUMPDEST DUP1 PUSH1 0x7 PUSH1 0x0 PUSH2 0x100 EXP DUP2 SLOAD DUP2 PUSH20 0xFFFFFFFFFFFFFFFFFFFFFFFFFFFFFFFFFFFFFFFF MUL NOT AND SWAP1 DUP4 PUSH20 0xFFFFFFFFFFFFFFFFFFFFFFFFFFFFFFFFFFFFFFFF AND MUL OR SWAP1 SSTORE POP POP JUMP JUMPDEST PUSH1 0x0 DUP1 PUSH1 0x7 PUSH1 0x0 SWAP1 SLOAD SWAP1 PUSH2 0x100 EXP SWAP1 DIV PUSH20 0xFFFFFFFFFFFFFFFFFFFFFFFFFFFFFFFFFFFFFFFF AND PUSH20 0xFFFFFFFFFFFFFFFFFFFFFFFFFFFFFFFFFFFFFFFF AND PUSH4 0xECB76D90 DUP5 PUSH1 0x40 MLOAD DUP3 PUSH4 0xFFFFFFFF AND PUSH1 0xE0 SHL DUP2 MSTORE PUSH1 0x4 ADD PUSH2 0x64A SWAP2 SWAP1 PUSH2 0x12AC JUMP JUMPDEST PUSH1 0x0 PUSH1 0x40 MLOAD DUP1 DUP4 SUB DUP2 DUP7 GAS STATICCALL ISZERO DUP1 ISZERO PUSH2 0x667 JUMPI RETURNDATASIZE PUSH1 0x0 DUP1 RETURNDATACOPY RETURNDATASIZE PUSH1 0x0 REVERT JUMPDEST POP POP POP POP PUSH1 0x40 MLOAD RETURNDATASIZE PUSH1 0x0 DUP3 RETURNDATACOPY RETURNDATASIZE PUSH1 0x1F NOT PUSH1 0x1F DUP3 ADD AND DUP3 ADD DUP1 PUSH1 0x40 MSTORE POP DUP2 ADD SWAP1 PUSH2 0x690 SWAP2 SWAP1 PUSH2 0x1571 JUMP JUMPDEST SWAP1 SWAP2 POP DUP1 SWAP3 POP DUP2 SWAP4 POP POP POP DUP1 CALLVALUE EQ PUSH2 0x6DD JUMPI PUSH1 0x40 MLOAD PUSH32 0x8C379A000000000000000000000000000000000000000000000000000000000 DUP2 MSTORE PUSH1 0x4 ADD PUSH2 0x6D4 SWAP1 PUSH2 0x162C JUMP JUMPDEST PUSH1 0x40 MLOAD DUP1 SWAP2 SUB SWAP1 REVERT JUMPDEST PUSH2 0x71D DUP5 DUP4 PUSH1 0x40 MLOAD DUP1 PUSH1 0x40 ADD PUSH1 0x40 MSTORE DUP1 PUSH1 0x4 DUP2 MSTORE PUSH1 0x20 ADD PUSH32 0x6665656400000000000000000000000000000000000000000000000000000000 DUP2 MSTORE POP PUSH2 0xA77 JUMP JUMPDEST POP POP POP POP JUMP JUMPDEST PUSH1 0x6 PUSH1 0x20 MSTORE DUP1 PUSH1 0x0 MSTORE PUSH1 0x40 PUSH1 0x0 KECCAK256 PUSH1 0x0 SWAP2 POP SWAP1 POP SLOAD DUP2 JUMP JUMPDEST PUSH2 0x743 PUSH2 0x9F9 JUMP JUMPDEST PUSH2 0x74D PUSH1 0x0 PUSH2 0xCFB JUMP JUMPDEST JUMP JUMPDEST PUSH1 0x0 DUP1 PUSH1 0x0 SWAP1 SLOAD SWAP1 PUSH2 0x100 EXP SWAP1 DIV PUSH20 0xFFFFFFFFFFFFFFFFFFFFFFFFFFFFFFFFFFFFFFFF AND SWAP1 POP SWAP1 JUMP JUMPDEST PUSH2 0x780 PUSH2 0x9F9 JUMP JUMPDEST PUSH1 0x0 PUSH20 0xFFFFFFFFFFFFFFFFFFFFFFFFFFFFFFFFFFFFFFFF AND DUP2 PUSH20 0xFFFFFFFFFFFFFFFFFFFFFFFFFFFFFFFFFFFFFFFF AND EQ ISZERO PUSH2 0x7F0 JUMPI PUSH1 0x40 MLOAD PUSH32 0x8C379A000000000000000000000000000000000000000000000000000000000 DUP2 MSTORE PUSH1 0x4 ADD PUSH2 0x7E7 SWAP1 PUSH2 0x16BE JUMP JUMPDEST PUSH1 0x40 MLOAD DUP1 SWAP2 SUB SWAP1 REVERT JUMPDEST PUSH2 0x7F9 DUP2 PUSH2 0xCFB JUMP JUMPDEST POP JUMP JUMPDEST PUSH1 0x0 DUP1 DUP4 DUP4 PUSH1 0x40 MLOAD PUSH2 0x80F SWAP3 SWAP2 SWAP1 PUSH2 0x171D JUMP JUMPDEST PUSH1 0x40 MLOAD DUP1 SWAP2 SUB SWAP1 KECCAK256 PUSH1 0x0 SHR SWAP1 POP PUSH1 0x0 PUSH1 0x2 SLOAD DUP3 PUSH2 0x82C SWAP2 SWAP1 PUSH2 0x1765 JUMP JUMPDEST SWAP1 POP PUSH1 0x64 DUP2 PUSH2 0x83B SWAP2 SWAP1 PUSH2 0x1765 JUMP JUMPDEST DUP2 PUSH2 0x846 SWAP2 SWAP1 PUSH2 0x1796 JUMP JUMPDEST SWAP1 POP DUP1 SWAP3 POP POP POP SWAP3 SWAP2 POP POP JUMP JUMPDEST PUSH1 0x4 PUSH1 0x40 MLOAD DUP1 PUSH1 0x60 ADD PUSH1 0x40 MSTORE DUP1 DUP5 DUP2 MSTORE PUSH1 0x20 ADD DUP4 DUP2 MSTORE PUSH1 0x20 ADD PUSH1 0x3 SLOAD TIMESTAMP PUSH2 0x87A SWAP2 SWAP1 PUSH2 0x17CA JUMP JUMPDEST PUSH4 0xFFFFFFFF AND DUP2 MSTORE POP SWAP1 DUP1 PUSH1 0x1 DUP2 SLOAD ADD DUP1 DUP3 SSTORE DUP1 SWAP2 POP POP PUSH1 0x1 SWAP1 SUB SWAP1 PUSH1 0x0 MSTORE PUSH1 0x20 PUSH1 0x0 KECCAK256 SWAP1 PUSH1 0x3 MUL ADD PUSH1 0x0 SWAP1 SWAP2 SWAP1 SWAP2 SWAP1 SWAP2 POP PUSH1 0x0 DUP3 ADD MLOAD DUP2 PUSH1 0x0 ADD SWAP1 DUP1 MLOAD SWAP1 PUSH1 0x20 ADD SWAP1 PUSH2 0x8C8 SWAP3 SWAP2 SWAP1 PUSH2 0xE06 JUMP JUMPDEST POP PUSH1 0x20 DUP3 ADD MLOAD DUP2 PUSH1 0x1 ADD SSTORE PUSH1 0x40 DUP3 ADD MLOAD DUP2 PUSH1 0x2 ADD PUSH1 0x0 PUSH2 0x100 EXP DUP2 SLOAD DUP2 PUSH4 0xFFFFFFFF MUL NOT AND SWAP1 DUP4 PUSH4 0xFFFFFFFF AND MUL OR SWAP1 SSTORE POP POP POP PUSH1 0x0 PUSH1 0x1 PUSH1 0x4 DUP1 SLOAD SWAP1 POP PUSH2 0x910 SWAP2 SWAP1 PUSH2 0x1796 JUMP JUMPDEST SWAP1 POP CALLER PUSH1 0x5 PUSH1 0x0 DUP4 DUP2 MSTORE PUSH1 0x20 ADD SWAP1 DUP2 MSTORE PUSH1 0x20 ADD PUSH1 0x0 KECCAK256 PUSH1 0x0 PUSH2 0x100 EXP DUP2 SLOAD DUP2 PUSH20 0xFFFFFFFFFFFFFFFFFFFFFFFFFFFFFFFFFFFFFFFF MUL NOT AND SWAP1 DUP4 PUSH20 0xFFFFFFFFFFFFFFFFFFFFFFFFFFFFFFFFFFFFFFFF AND MUL OR SWAP1 SSTORE POP PUSH1 0x6 PUSH1 0x0 CALLER PUSH20 0xFFFFFFFFFFFFFFFFFFFFFFFFFFFFFFFFFFFFFFFF AND PUSH20 0xFFFFFFFFFFFFFFFFFFFFFFFFFFFFFFFFFFFFFFFF AND DUP2 MSTORE PUSH1 0x20 ADD SWAP1 DUP2 MSTORE PUSH1 0x20 ADD PUSH1 0x0 KECCAK256 PUSH1 0x0 DUP2 SLOAD DUP1 SWAP3 SWAP2 SWAP1 PUSH2 0x9B4 SWAP1 PUSH2 0x1354 JUMP JUMPDEST SWAP2 SWAP1 POP SSTORE POP PUSH32 0xE7CEDAA81D0EF09A46E22DE5467585892163B2B6E985D853C385CED0FE5C02EF DUP2 DUP5 DUP5 PUSH1 0x40 MLOAD PUSH2 0x9EC SWAP4 SWAP3 SWAP2 SWAP1 PUSH2 0x1820 JUMP JUMPDEST PUSH1 0x40 MLOAD DUP1 SWAP2 SUB SWAP1 LOG1 POP POP POP JUMP JUMPDEST PUSH2 0xA01 PUSH2 0xDBF JUMP JUMPDEST PUSH20 0xFFFFFFFFFFFFFFFFFFFFFFFFFFFFFFFFFFFFFFFF AND PUSH2 0xA1F PUSH2 0x74F JUMP JUMPDEST PUSH20 0xFFFFFFFFFFFFFFFFFFFFFFFFFFFFFFFFFFFFFFFF AND EQ PUSH2 0xA75 JUMPI PUSH1 0x40 MLOAD PUSH32 0x8C379A000000000000000000000000000000000000000000000000000000000 DUP2 MSTORE PUSH1 0x4 ADD PUSH2 0xA6C SWAP1 PUSH2 0x18AA JUMP JUMPDEST PUSH1 0x40 MLOAD DUP1 SWAP2 SUB SWAP1 REVERT JUMPDEST JUMP JUMPDEST DUP3 PUSH1 0x5 PUSH1 0x0 DUP3 DUP2 MSTORE PUSH1 0x20 ADD SWAP1 DUP2 MSTORE PUSH1 0x20 ADD PUSH1 0x0 KECCAK256 PUSH1 0x0 SWAP1 SLOAD SWAP1 PUSH2 0x100 EXP SWAP1 DIV PUSH20 0xFFFFFFFFFFFFFFFFFFFFFFFFFFFFFFFFFFFFFFFF AND PUSH20 0xFFFFFFFFFFFFFFFFFFFFFFFFFFFFFFFFFFFFFFFF AND PUSH2 0xACA PUSH2 0xDBF JUMP JUMPDEST PUSH20 0xFFFFFFFFFFFFFFFFFFFFFFFFFFFFFFFFFFFFFFFF AND EQ PUSH2 0xAEA JUMPI PUSH1 0x0 DUP1 REVERT JUMPDEST PUSH1 0x0 PUSH1 0x4 DUP6 DUP2 SLOAD DUP2 LT PUSH2 0xB00 JUMPI PUSH2 0xAFF PUSH2 0x12F6 JUMP JUMPDEST JUMPDEST SWAP1 PUSH1 0x0 MSTORE PUSH1 0x20 PUSH1 0x0 KECCAK256 SWAP1 PUSH1 0x3 MUL ADD PUSH1 0x40 MLOAD DUP1 PUSH1 0x60 ADD PUSH1 0x40 MSTORE SWAP1 DUP2 PUSH1 0x0 DUP3 ADD DUP1 SLOAD PUSH2 0xB29 SWAP1 PUSH2 0x1438 JUMP JUMPDEST DUP1 PUSH1 0x1F ADD PUSH1 0x20 DUP1 SWAP2 DIV MUL PUSH1 0x20 ADD PUSH1 0x40 MLOAD SWAP1 DUP2 ADD PUSH1 0x40 MSTORE DUP1 SWAP3 SWAP2 SWAP1 DUP2 DUP2 MSTORE PUSH1 0x20 ADD DUP3 DUP1 SLOAD PUSH2 0xB55 SWAP1 PUSH2 0x1438 JUMP JUMPDEST DUP1 ISZERO PUSH2 0xBA2 JUMPI DUP1 PUSH1 0x1F LT PUSH2 0xB77 JUMPI PUSH2 0x100 DUP1 DUP4 SLOAD DIV MUL DUP4 MSTORE SWAP2 PUSH1 0x20 ADD SWAP2 PUSH2 0xBA2 JUMP JUMPDEST DUP3 ADD SWAP2 SWAP1 PUSH1 0x0 MSTORE PUSH1 0x20 PUSH1 0x0 KECCAK256 SWAP1 JUMPDEST DUP2 SLOAD DUP2 MSTORE SWAP1 PUSH1 0x1 ADD SWAP1 PUSH1 0x20 ADD DUP1 DUP4 GT PUSH2 0xB85 JUMPI DUP3 SWAP1 SUB PUSH1 0x1F AND DUP3 ADD SWAP2 JUMPDEST POP POP POP POP POP DUP2 MSTORE PUSH1 0x20 ADD PUSH1 0x1 DUP3 ADD SLOAD DUP2 MSTORE PUSH1 0x20 ADD PUSH1 0x2 DUP3 ADD PUSH1 0x0 SWAP1 SLOAD SWAP1 PUSH2 0x100 EXP SWAP1 DIV PUSH4 0xFFFFFFFF AND PUSH4 0xFFFFFFFF AND PUSH4 0xFFFFFFFF AND DUP2 MSTORE POP POP SWAP1 POP PUSH2 0xBE6 DUP2 PUSH2 0xDC7 JUMP JUMPDEST PUSH2 0xC25 JUMPI PUSH1 0x40 MLOAD PUSH32 0x8C379A000000000000000000000000000000000000000000000000000000000 DUP2 MSTORE PUSH1 0x4 ADD PUSH2 0xC1C SWAP1 PUSH2 0x1916 JUMP JUMPDEST PUSH1 0x40 MLOAD DUP1 SWAP2 SUB SWAP1 REVERT JUMPDEST PUSH1 0x2 SLOAD DUP5 PUSH2 0xC33 SWAP2 SWAP1 PUSH2 0x1765 JUMP JUMPDEST SWAP4 POP PUSH1 0x0 PUSH1 0x2 DUP6 DUP4 PUSH1 0x20 ADD MLOAD PUSH2 0xC49 SWAP2 SWAP1 PUSH2 0x17CA JUMP JUMPDEST PUSH2 0xC53 SWAP2 SWAP1 PUSH2 0x1936 JUMP JUMPDEST SWAP1 POP PUSH32 0x4258863E2D81C316E4A4DD381C3C50F57F933BE22AFBA98B4485A605DA0F7811 DUP5 DUP1 MLOAD SWAP1 PUSH1 0x20 ADD KECCAK256 EQ ISZERO PUSH2 0xCAB JUMPI PUSH1 0x1 PUSH1 0x64 DUP3 PUSH2 0xC93 SWAP2 SWAP1 PUSH2 0x1765 JUMP JUMPDEST DUP3 PUSH2 0xC9E SWAP2 SWAP1 PUSH2 0x1796 JUMP JUMPDEST PUSH2 0xCA8 SWAP2 SWAP1 PUSH2 0x17CA JUMP JUMPDEST SWAP1 POP JUMPDEST PUSH2 0xCEA PUSH1 0x40 MLOAD DUP1 PUSH1 0x40 ADD PUSH1 0x40 MSTORE DUP1 PUSH1 0x6 DUP2 MSTORE PUSH1 0x20 ADD PUSH32 0x4E6F6E616D650000000000000000000000000000000000000000000000000000 DUP2 MSTORE POP DUP3 PUSH2 0x853 JUMP JUMPDEST PUSH2 0xCF3 DUP3 PUSH2 0xDDE JUMP JUMPDEST POP POP POP POP POP POP JUMP JUMPDEST PUSH1 0x0 DUP1 PUSH1 0x0 SWAP1 SLOAD SWAP1 PUSH2 0x100 EXP SWAP1 DIV PUSH20 0xFFFFFFFFFFFFFFFFFFFFFFFFFFFFFFFFFFFFFFFF AND SWAP1 POP DUP2 PUSH1 0x0 DUP1 PUSH2 0x100 EXP DUP2 SLOAD DUP2 PUSH20 0xFFFFFFFFFFFFFFFFFFFFFFFFFFFFFFFFFFFFFFFF MUL NOT AND SWAP1 DUP4 PUSH20 0xFFFFFFFFFFFFFFFFFFFFFFFFFFFFFFFFFFFFFFFF AND MUL OR SWAP1 SSTORE POP DUP2 PUSH20 0xFFFFFFFFFFFFFFFFFFFFFFFFFFFFFFFFFFFFFFFF AND DUP2 PUSH20 0xFFFFFFFFFFFFFFFFFFFFFFFFFFFFFFFFFFFFFFFF AND PUSH32 0x8BE0079C531659141344CD1FD0A4F28419497F9722A3DAAFE3B4186F6B6457E0 PUSH1 0x40 MLOAD PUSH1 0x40 MLOAD DUP1 SWAP2 SUB SWAP1 LOG3 POP POP JUMP JUMPDEST PUSH1 0x0 CALLER SWAP1 POP SWAP1 JUMP JUMPDEST PUSH1 0x0 TIMESTAMP DUP3 PUSH1 0x40 ADD MLOAD PUSH4 0xFFFFFFFF AND GT ISZERO SWAP1 POP SWAP2 SWAP1 POP JUMP JUMPDEST PUSH1 0x3 SLOAD TIMESTAMP PUSH2 0xDEC SWAP2 SWAP1 PUSH2 0x17CA JUMP JUMPDEST DUP2 PUSH1 0x40 ADD SWAP1 PUSH4 0xFFFFFFFF AND SWAP1 DUP2 PUSH4 0xFFFFFFFF AND DUP2 MSTORE POP POP POP JUMP JUMPDEST DUP3 DUP1 SLOAD PUSH2 0xE12 SWAP1 PUSH2 0x1438 JUMP JUMPDEST SWAP1 PUSH1 0x0 MSTORE PUSH1 0x20 PUSH1 0x0 KECCAK256 SWAP1 PUSH1 0x1F ADD PUSH1 0x20 SWAP1 DIV DUP2 ADD SWAP3 DUP3 PUSH2 0xE34 JUMPI PUSH1 0x0 DUP6 SSTORE PUSH2 0xE7B JUMP JUMPDEST DUP3 PUSH1 0x1F LT PUSH2 0xE4D JUMPI DUP1 MLOAD PUSH1 0xFF NOT AND DUP4 DUP1 ADD OR DUP6 SSTORE PUSH2 0xE7B JUMP JUMPDEST DUP3 DUP1 ADD PUSH1 0x1 ADD DUP6 SSTORE DUP3 ISZERO PUSH2 0xE7B JUMPI SWAP2 DUP3 ADD JUMPDEST DUP3 DUP2 GT ISZERO PUSH2 0xE7A JUMPI DUP3 MLOAD DUP3 SSTORE SWAP2 PUSH1 0x20 ADD SWAP2 SWAP1 PUSH1 0x1 ADD SWAP1 PUSH2 0xE5F JUMP JUMPDEST JUMPDEST POP SWAP1 POP PUSH2 0xE88 SWAP2 SWAP1 PUSH2 0xE8C JUMP JUMPDEST POP SWAP1 JUMP JUMPDEST JUMPDEST DUP1 DUP3 GT ISZERO PUSH2 0xEA5 JUMPI PUSH1 0x0 DUP2 PUSH1 0x0 SWAP1 SSTORE POP PUSH1 0x1 ADD PUSH2 0xE8D JUMP JUMPDEST POP SWAP1 JUMP JUMPDEST PUSH1 0x0 PUSH1 0x40 MLOAD SWAP1 POP SWAP1 JUMP JUMPDEST PUSH1 0x0 DUP1 REVERT JUMPDEST PUSH1 0x0 DUP1 REVERT JUMPDEST PUSH1 0x0 DUP2 SWAP1 POP SWAP2 SWAP1 POP JUMP JUMPDEST PUSH2 0xED0 DUP2 PUSH2 0xEBD JUMP JUMPDEST DUP2 EQ PUSH2 0xEDB JUMPI PUSH1 0x0 DUP1 REVERT JUMPDEST POP JUMP JUMPDEST PUSH1 0x0 DUP2 CALLDATALOAD SWAP1 POP PUSH2 0xEED DUP2 PUSH2 0xEC7 JUMP JUMPDEST SWAP3 SWAP2 POP POP JUMP JUMPDEST PUSH1 0x0 PUSH1 0x20 DUP3 DUP5 SUB SLT ISZERO PUSH2 0xF09 JUMPI PUSH2 0xF08 PUSH2 0xEB3 JUMP JUMPDEST JUMPDEST PUSH1 0x0 PUSH2 0xF17 DUP5 DUP3 DUP6 ADD PUSH2 0xEDE JUMP JUMPDEST SWAP2 POP POP SWAP3 SWAP2 POP POP JUMP JUMPDEST PUSH1 0x0 PUSH20 0xFFFFFFFFFFFFFFFFFFFFFFFFFFFFFFFFFFFFFFFF DUP3 AND SWAP1 POP SWAP2 SWAP1 POP JUMP JUMPDEST PUSH1 0x0 PUSH2 0xF4B DUP3 PUSH2 0xF20 JUMP JUMPDEST SWAP1 POP SWAP2 SWAP1 POP JUMP JUMPDEST PUSH2 0xF5B DUP2 PUSH2 0xF40 JUMP JUMPDEST DUP3 MSTORE POP POP JUMP JUMPDEST PUSH1 0x0 PUSH1 0x20 DUP3 ADD SWAP1 POP PUSH2 0xF76 PUSH1 0x0 DUP4 ADD DUP5 PUSH2 0xF52 JUMP JUMPDEST SWAP3 SWAP2 POP POP JUMP JUMPDEST PUSH2 0xF85 DUP2 PUSH2 0xF40 JUMP JUMPDEST DUP2 EQ PUSH2 0xF90 JUMPI PUSH1 0x0 DUP1 REVERT JUMPDEST POP JUMP JUMPDEST PUSH1 0x0 DUP2 CALLDATALOAD SWAP1 POP PUSH2 0xFA2 DUP2 PUSH2 0xF7C JUMP JUMPDEST SWAP3 SWAP2 POP POP JUMP JUMPDEST PUSH1 0x0 PUSH1 0x20 DUP3 DUP5 SUB SLT ISZERO PUSH2 0xFBE JUMPI PUSH2 0xFBD PUSH2 0xEB3 JUMP JUMPDEST JUMPDEST PUSH1 0x0 PUSH2 0xFCC DUP5 DUP3 DUP6 ADD PUSH2 0xF93 JUMP JUMPDEST SWAP2 POP POP SWAP3 SWAP2 POP POP JUMP JUMPDEST PUSH1 0x0 DUP2 MLOAD SWAP1 POP SWAP2 SWAP1 POP JUMP JUMPDEST PUSH1 0x0 DUP3 DUP3 MSTORE PUSH1 0x20 DUP3 ADD SWAP1 POP SWAP3 SWAP2 POP POP JUMP JUMPDEST PUSH1 0x0 DUP2 SWAP1 POP PUSH1 0x20 DUP3 ADD SWAP1 POP SWAP2 SWAP1 POP JUMP JUMPDEST PUSH2 0x100A DUP2 PUSH2 0xEBD JUMP JUMPDEST DUP3 MSTORE POP POP JUMP JUMPDEST PUSH1 0x0 PUSH2 0x101C DUP4 DUP4 PUSH2 0x1001 JUMP JUMPDEST PUSH1 0x20 DUP4 ADD SWAP1 POP SWAP3 SWAP2 POP POP JUMP JUMPDEST PUSH1 0x0 PUSH1 0x20 DUP3 ADD SWAP1 POP SWAP2 SWAP1 POP JUMP JUMPDEST PUSH1 0x0 PUSH2 0x1040 DUP3 PUSH2 0xFD5 JUMP JUMPDEST PUSH2 0x104A DUP2 DUP6 PUSH2 0xFE0 JUMP JUMPDEST SWAP4 POP PUSH2 0x1055 DUP4 PUSH2 0xFF1 JUMP JUMPDEST DUP1 PUSH1 0x0 JUMPDEST DUP4 DUP2 LT ISZERO PUSH2 0x1086 JUMPI DUP2 MLOAD PUSH2 0x106D DUP9 DUP3 PUSH2 0x1010 JUMP JUMPDEST SWAP8 POP PUSH2 0x1078 DUP4 PUSH2 0x1028 JUMP JUMPDEST SWAP3 POP POP PUSH1 0x1 DUP2 ADD SWAP1 POP PUSH2 0x1059 JUMP JUMPDEST POP DUP6 SWAP4 POP POP POP POP SWAP3 SWAP2 POP POP JUMP JUMPDEST PUSH1 0x0 PUSH1 0x20 DUP3 ADD SWAP1 POP DUP2 DUP2 SUB PUSH1 0x0 DUP4 ADD MSTORE PUSH2 0x10AD DUP2 DUP5 PUSH2 0x1035 JUMP JUMPDEST SWAP1 POP SWAP3 SWAP2 POP POP JUMP JUMPDEST PUSH1 0x0 DUP1 REVERT JUMPDEST PUSH1 0x0 DUP1 REVERT JUMPDEST PUSH1 0x0 DUP1 REVERT JUMPDEST PUSH1 0x0 DUP1 DUP4 PUSH1 0x1F DUP5 ADD SLT PUSH2 0x10DA JUMPI PUSH2 0x10D9 PUSH2 0x10B5 JUMP JUMPDEST JUMPDEST DUP3 CALLDATALOAD SWAP1 POP PUSH8 0xFFFFFFFFFFFFFFFF DUP2 GT ISZERO PUSH2 0x10F7 JUMPI PUSH2 0x10F6 PUSH2 0x10BA JUMP JUMPDEST JUMPDEST PUSH1 0x20 DUP4 ADD SWAP2 POP DUP4 PUSH1 0x1 DUP3 MUL DUP4 ADD GT ISZERO PUSH2 0x1113 JUMPI PUSH2 0x1112 PUSH2 0x10BF JUMP JUMPDEST JUMPDEST SWAP3 POP SWAP3 SWAP1 POP JUMP JUMPDEST PUSH1 0x0 DUP1 PUSH1 0x20 DUP4 DUP6 SUB SLT ISZERO PUSH2 0x1131 JUMPI PUSH2 0x1130 PUSH2 0xEB3 JUMP JUMPDEST JUMPDEST PUSH1 0x0 DUP4 ADD CALLDATALOAD PUSH8 0xFFFFFFFFFFFFFFFF DUP2 GT ISZERO PUSH2 0x114F JUMPI PUSH2 0x114E PUSH2 0xEB8 JUMP JUMPDEST JUMPDEST PUSH2 0x115B DUP6 DUP3 DUP7 ADD PUSH2 0x10C4 JUMP JUMPDEST SWAP3 POP SWAP3 POP POP SWAP3 POP SWAP3 SWAP1 POP JUMP JUMPDEST PUSH1 0x0 DUP2 MLOAD SWAP1 POP SWAP2 SWAP1 POP JUMP JUMPDEST PUSH1 0x0 DUP3 DUP3 MSTORE PUSH1 0x20 DUP3 ADD SWAP1 POP SWAP3 SWAP2 POP POP JUMP JUMPDEST PUSH1 0x0 JUMPDEST DUP4 DUP2 LT ISZERO PUSH2 0x11A1 JUMPI DUP1 DUP3 ADD MLOAD DUP2 DUP5 ADD MSTORE PUSH1 0x20 DUP2 ADD SWAP1 POP PUSH2 0x1186 JUMP JUMPDEST DUP4 DUP2 GT ISZERO PUSH2 0x11B0 JUMPI PUSH1 0x0 DUP5 DUP5 ADD MSTORE JUMPDEST POP POP POP POP JUMP JUMPDEST PUSH1 0x0 PUSH1 0x1F NOT PUSH1 0x1F DUP4 ADD AND SWAP1 POP SWAP2 SWAP1 POP JUMP JUMPDEST PUSH1 0x0 PUSH2 0x11D2 DUP3 PUSH2 0x1167 JUMP JUMPDEST PUSH2 0x11DC DUP2 DUP6 PUSH2 0x1172 JUMP JUMPDEST SWAP4 POP PUSH2 0x11EC DUP2 DUP6 PUSH1 0x20 DUP7 ADD PUSH2 0x1183 JUMP JUMPDEST PUSH2 0x11F5 DUP2 PUSH2 0x11B6 JUMP JUMPDEST DUP5 ADD SWAP2 POP POP SWAP3 SWAP2 POP POP JUMP JUMPDEST PUSH2 0x1209 DUP2 PUSH2 0xEBD JUMP JUMPDEST DUP3 MSTORE POP POP JUMP JUMPDEST PUSH1 0x0 PUSH4 0xFFFFFFFF DUP3 AND SWAP1 POP SWAP2 SWAP1 POP JUMP JUMPDEST PUSH2 0x1228 DUP2 PUSH2 0x120F JUMP JUMPDEST DUP3 MSTORE POP POP JUMP JUMPDEST PUSH1 0x0 PUSH1 0x60 DUP3 ADD SWAP1 POP DUP2 DUP2 SUB PUSH1 0x0 DUP4 ADD MSTORE PUSH2 0x1248 DUP2 DUP7 PUSH2 0x11C7 JUMP JUMPDEST SWAP1 POP PUSH2 0x1257 PUSH1 0x20 DUP4 ADD DUP6 PUSH2 0x1200 JUMP JUMPDEST PUSH2 0x1264 PUSH1 0x40 DUP4 ADD DUP5 PUSH2 0x121F JUMP JUMPDEST SWAP5 SWAP4 POP POP POP POP JUMP JUMPDEST PUSH1 0x0 DUP1 PUSH1 0x40 DUP4 DUP6 SUB SLT ISZERO PUSH2 0x1283 JUMPI PUSH2 0x1282 PUSH2 0xEB3 JUMP JUMPDEST JUMPDEST PUSH1 0x0 PUSH2 0x1291 DUP6 DUP3 DUP7 ADD PUSH2 0xEDE JUMP JUMPDEST SWAP3 POP POP PUSH1 0x20 PUSH2 0x12A2 DUP6 DUP3 DUP7 ADD PUSH2 0xEDE JUMP JUMPDEST SWAP2 POP POP SWAP3 POP SWAP3 SWAP1 POP JUMP JUMPDEST PUSH1 0x0 PUSH1 0x20 DUP3 ADD SWAP1 POP PUSH2 0x12C1 PUSH1 0x0 DUP4 ADD DUP5 PUSH2 0x1200 JUMP JUMPDEST SWAP3 SWAP2 POP POP JUMP JUMPDEST PUSH32 0x4E487B7100000000000000000000000000000000000000000000000000000000 PUSH1 0x0 MSTORE PUSH1 0x41 PUSH1 0x4 MSTORE PUSH1 0x24 PUSH1 0x0 REVERT JUMPDEST PUSH32 0x4E487B7100000000000000000000000000000000000000000000000000000000 PUSH1 0x0 MSTORE PUSH1 0x32 PUSH1 0x4 MSTORE PUSH1 0x24 PUSH1 0x0 REVERT JUMPDEST PUSH32 0x4E487B7100000000000000000000000000000000000000000000000000000000 PUSH1 0x0 MSTORE PUSH1 0x11 PUSH1 0x4 MSTORE PUSH1 0x24 PUSH1 0x0 REVERT JUMPDEST PUSH1 0x0 PUSH2 0x135F DUP3 PUSH2 0xEBD JUMP JUMPDEST SWAP2 POP PUSH32 0xFFFFFFFFFFFFFFFFFFFFFFFFFFFFFFFFFFFFFFFFFFFFFFFFFFFFFFFFFFFFFFFF DUP3 EQ ISZERO PUSH2 0x1392 JUMPI PUSH2 0x1391 PUSH2 0x1325 JUMP JUMPDEST JUMPDEST PUSH1 0x1 DUP3 ADD SWAP1 POP SWAP2 SWAP1 POP JUMP JUMPDEST PUSH32 0x612066756E67757320616C726561647920657869737473000000000000000000 PUSH1 0x0 DUP3 ADD MSTORE POP JUMP JUMPDEST PUSH1 0x0 PUSH2 0x13D3 PUSH1 0x17 DUP4 PUSH2 0x1172 JUMP JUMPDEST SWAP2 POP PUSH2 0x13DE DUP3 PUSH2 0x139D JUMP JUMPDEST PUSH1 0x20 DUP3 ADD SWAP1 POP SWAP2 SWAP1 POP JUMP JUMPDEST PUSH1 0x0 PUSH1 0x20 DUP3 ADD SWAP1 POP DUP2 DUP2 SUB PUSH1 0x0 DUP4 ADD MSTORE PUSH2 0x1402 DUP2 PUSH2 0x13C6 JUMP JUMPDEST SWAP1 POP SWAP2 SWAP1 POP JUMP JUMPDEST PUSH32 0x4E487B7100000000000000000000000000000000000000000000000000000000 PUSH1 0x0 MSTORE PUSH1 0x22 PUSH1 0x4 MSTORE PUSH1 0x24 PUSH1 0x0 REVERT JUMPDEST PUSH1 0x0 PUSH1 0x2 DUP3 DIV SWAP1 POP PUSH1 0x1 DUP3 AND DUP1 PUSH2 0x1450 JUMPI PUSH1 0x7F DUP3 AND SWAP2 POP JUMPDEST PUSH1 0x20 DUP3 LT DUP2 EQ ISZERO PUSH2 0x1464 JUMPI PUSH2 0x1463 PUSH2 0x1409 JUMP JUMPDEST JUMPDEST POP SWAP2 SWAP1 POP JUMP JUMPDEST PUSH1 0x0 DUP1 REVERT JUMPDEST PUSH2 0x1478 DUP3 PUSH2 0x11B6 JUMP JUMPDEST DUP2 ADD DUP2 DUP2 LT PUSH8 0xFFFFFFFFFFFFFFFF DUP3 GT OR ISZERO PUSH2 0x1497 JUMPI PUSH2 0x1496 PUSH2 0x12C7 JUMP JUMPDEST JUMPDEST DUP1 PUSH1 0x40 MSTORE POP POP POP JUMP JUMPDEST PUSH1 0x0 PUSH2 0x14AA PUSH2 0xEA9 JUMP JUMPDEST SWAP1 POP PUSH2 0x14B6 DUP3 DUP3 PUSH2 0x146F JUMP JUMPDEST SWAP2 SWAP1 POP JUMP JUMPDEST PUSH1 0x0 PUSH8 0xFFFFFFFFFFFFFFFF DUP3 GT ISZERO PUSH2 0x14D6 JUMPI PUSH2 0x14D5 PUSH2 0x12C7 JUMP JUMPDEST JUMPDEST PUSH2 0x14DF DUP3 PUSH2 0x11B6 JUMP JUMPDEST SWAP1 POP PUSH1 0x20 DUP2 ADD SWAP1 POP SWAP2 SWAP1 POP JUMP JUMPDEST PUSH1 0x0 PUSH2 0x14FF PUSH2 0x14FA DUP5 PUSH2 0x14BB JUMP JUMPDEST PUSH2 0x14A0 JUMP JUMPDEST SWAP1 POP DUP3 DUP2 MSTORE PUSH1 0x20 DUP2 ADD DUP5 DUP5 DUP5 ADD GT ISZERO PUSH2 0x151B JUMPI PUSH2 0x151A PUSH2 0x146A JUMP JUMPDEST JUMPDEST PUSH2 0x1526 DUP5 DUP3 DUP6 PUSH2 0x1183 JUMP JUMPDEST POP SWAP4 SWAP3 POP POP POP JUMP JUMPDEST PUSH1 0x0 DUP3 PUSH1 0x1F DUP4 ADD SLT PUSH2 0x1543 JUMPI PUSH2 0x1542 PUSH2 0x10B5 JUMP JUMPDEST JUMPDEST DUP2 MLOAD PUSH2 0x1553 DUP5 DUP3 PUSH1 0x20 DUP7 ADD PUSH2 0x14EC JUMP JUMPDEST SWAP2 POP POP SWAP3 SWAP2 POP POP JUMP JUMPDEST PUSH1 0x0 DUP2 MLOAD SWAP1 POP PUSH2 0x156B DUP2 PUSH2 0xEC7 JUMP JUMPDEST SWAP3 SWAP2 POP POP JUMP JUMPDEST PUSH1 0x0 DUP1 PUSH1 0x0 PUSH1 0x60 DUP5 DUP7 SUB SLT ISZERO PUSH2 0x158A JUMPI PUSH2 0x1589 PUSH2 0xEB3 JUMP JUMPDEST JUMPDEST PUSH1 0x0 DUP5 ADD MLOAD PUSH8 0xFFFFFFFFFFFFFFFF DUP2 GT ISZERO PUSH2 0x15A8 JUMPI PUSH2 0x15A7 PUSH2 0xEB8 JUMP JUMPDEST JUMPDEST PUSH2 0x15B4 DUP7 DUP3 DUP8 ADD PUSH2 0x152E JUMP JUMPDEST SWAP4 POP POP PUSH1 0x20 PUSH2 0x15C5 DUP7 DUP3 DUP8 ADD PUSH2 0x155C JUMP JUMPDEST SWAP3 POP POP PUSH1 0x40 PUSH2 0x15D6 DUP7 DUP3 DUP8 ADD PUSH2 0x155C JUMP JUMPDEST SWAP2 POP POP SWAP3 POP SWAP3 POP SWAP3 JUMP JUMPDEST PUSH32 0x6265207061696420696E617070726F70726961746520657870656E7365730000 PUSH1 0x0 DUP3 ADD MSTORE POP JUMP JUMPDEST PUSH1 0x0 PUSH2 0x1616 PUSH1 0x1E DUP4 PUSH2 0x1172 JUMP JUMPDEST SWAP2 POP PUSH2 0x1621 DUP3 PUSH2 0x15E0 JUMP JUMPDEST PUSH1 0x20 DUP3 ADD SWAP1 POP SWAP2 SWAP1 POP JUMP JUMPDEST PUSH1 0x0 PUSH1 0x20 DUP3 ADD SWAP1 POP DUP2 DUP2 SUB PUSH1 0x0 DUP4 ADD MSTORE PUSH2 0x1645 DUP2 PUSH2 0x1609 JUMP JUMPDEST SWAP1 POP SWAP2 SWAP1 POP JUMP JUMPDEST PUSH32 0x4F776E61626C653A206E6577206F776E657220697320746865207A65726F2061 PUSH1 0x0 DUP3 ADD MSTORE PUSH32 0x6464726573730000000000000000000000000000000000000000000000000000 PUSH1 0x20 DUP3 ADD MSTORE POP JUMP JUMPDEST PUSH1 0x0 PUSH2 0x16A8 PUSH1 0x26 DUP4 PUSH2 0x1172 JUMP JUMPDEST SWAP2 POP PUSH2 0x16B3 DUP3 PUSH2 0x164C JUMP JUMPDEST PUSH1 0x40 DUP3 ADD SWAP1 POP SWAP2 SWAP1 POP JUMP JUMPDEST PUSH1 0x0 PUSH1 0x20 DUP3 ADD SWAP1 POP DUP2 DUP2 SUB PUSH1 0x0 DUP4 ADD MSTORE PUSH2 0x16D7 DUP2 PUSH2 0x169B JUMP JUMPDEST SWAP1 POP SWAP2 SWAP1 POP JUMP JUMPDEST PUSH1 0x0 DUP2 SWAP1 POP SWAP3 SWAP2 POP POP JUMP JUMPDEST DUP3 DUP2 DUP4 CALLDATACOPY PUSH1 0x0 DUP4 DUP4 ADD MSTORE POP POP POP JUMP JUMPDEST PUSH1 0x0 PUSH2 0x1704 DUP4 DUP6 PUSH2 0x16DE JUMP JUMPDEST SWAP4 POP PUSH2 0x1711 DUP4 DUP6 DUP5 PUSH2 0x16E9 JUMP JUMPDEST DUP3 DUP5 ADD SWAP1 POP SWAP4 SWAP3 POP POP POP JUMP JUMPDEST PUSH1 0x0 PUSH2 0x172A DUP3 DUP5 DUP7 PUSH2 0x16F8 JUMP JUMPDEST SWAP2 POP DUP2 SWAP1 POP SWAP4 SWAP3 POP POP POP JUMP JUMPDEST PUSH32 0x4E487B7100000000000000000000000000000000000000000000000000000000 PUSH1 0x0 MSTORE PUSH1 0x12 PUSH1 0x4 MSTORE PUSH1 0x24 PUSH1 0x0 REVERT JUMPDEST PUSH1 0x0 PUSH2 0x1770 DUP3 PUSH2 0xEBD JUMP JUMPDEST SWAP2 POP PUSH2 0x177B DUP4 PUSH2 0xEBD JUMP JUMPDEST SWAP3 POP DUP3 PUSH2 0x178B JUMPI PUSH2 0x178A PUSH2 0x1736 JUMP JUMPDEST JUMPDEST DUP3 DUP3 MOD SWAP1 POP SWAP3 SWAP2 POP POP JUMP JUMPDEST PUSH1 0x0 PUSH2 0x17A1 DUP3 PUSH2 0xEBD JUMP JUMPDEST SWAP2 POP PUSH2 0x17AC DUP4 PUSH2 0xEBD JUMP JUMPDEST SWAP3 POP DUP3 DUP3 LT ISZERO PUSH2 0x17BF JUMPI PUSH2 0x17BE PUSH2 0x1325 JUMP JUMPDEST JUMPDEST DUP3 DUP3 SUB SWAP1 POP SWAP3 SWAP2 POP POP JUMP JUMPDEST PUSH1 0x0 PUSH2 0x17D5 DUP3 PUSH2 0xEBD JUMP JUMPDEST SWAP2 POP PUSH2 0x17E0 DUP4 PUSH2 0xEBD JUMP JUMPDEST SWAP3 POP DUP3 PUSH32 0xFFFFFFFFFFFFFFFFFFFFFFFFFFFFFFFFFFFFFFFFFFFFFFFFFFFFFFFFFFFFFFFF SUB DUP3 GT ISZERO PUSH2 0x1815 JUMPI PUSH2 0x1814 PUSH2 0x1325 JUMP JUMPDEST JUMPDEST DUP3 DUP3 ADD SWAP1 POP SWAP3 SWAP2 POP POP JUMP JUMPDEST PUSH1 0x0 PUSH1 0x60 DUP3 ADD SWAP1 POP PUSH2 0x1835 PUSH1 0x0 DUP4 ADD DUP7 PUSH2 0x1200 JUMP JUMPDEST DUP2 DUP2 SUB PUSH1 0x20 DUP4 ADD MSTORE PUSH2 0x1847 DUP2 DUP6 PUSH2 0x11C7 JUMP JUMPDEST SWAP1 POP PUSH2 0x1856 PUSH1 0x40 DUP4 ADD DUP5 PUSH2 0x1200 JUMP JUMPDEST SWAP5 SWAP4 POP POP POP POP JUMP JUMPDEST PUSH32 0x4F776E61626C653A2063616C6C6572206973206E6F7420746865206F776E6572 PUSH1 0x0 DUP3 ADD MSTORE POP JUMP JUMPDEST PUSH1 0x0 PUSH2 0x1894 PUSH1 0x20 DUP4 PUSH2 0x1172 JUMP JUMPDEST SWAP2 POP PUSH2 0x189F DUP3 PUSH2 0x185E JUMP JUMPDEST PUSH1 0x20 DUP3 ADD SWAP1 POP SWAP2 SWAP1 POP JUMP JUMPDEST PUSH1 0x0 PUSH1 0x20 DUP3 ADD SWAP1 POP DUP2 DUP2 SUB PUSH1 0x0 DUP4 ADD MSTORE PUSH2 0x18C3 DUP2 PUSH2 0x1887 JUMP JUMPDEST SWAP1 POP SWAP2 SWAP1 POP JUMP JUMPDEST PUSH32 0x6E6F742072656164790000000000000000000000000000000000000000000000 PUSH1 0x0 DUP3 ADD MSTORE POP JUMP JUMPDEST PUSH1 0x0 PUSH2 0x1900 PUSH1 0x9 DUP4 PUSH2 0x1172 JUMP JUMPDEST SWAP2 POP PUSH2 0x190B DUP3 PUSH2 0x18CA JUMP JUMPDEST PUSH1 0x20 DUP3 ADD SWAP1 POP SWAP2 SWAP1 POP JUMP JUMPDEST PUSH1 0x0 PUSH1 0x20 DUP3 ADD SWAP1 POP DUP2 DUP2 SUB PUSH1 0x0 DUP4 ADD MSTORE PUSH2 0x192F DUP2 PUSH2 0x18F3 JUMP JUMPDEST SWAP1 POP SWAP2 SWAP1 POP JUMP JUMPDEST PUSH1 0x0 PUSH2 0x1941 DUP3 PUSH2 0xEBD JUMP JUMPDEST SWAP2 POP PUSH2 0x194C DUP4 PUSH2 0xEBD JUMP JUMPDEST SWAP3 POP DUP3 PUSH2 0x195C JUMPI PUSH2 0x195B PUSH2 0x1736 JUMP JUMPDEST JUMPDEST DUP3 DUP3 DIV SWAP1 POP SWAP3 SWAP2 POP POP JUMP INVALID LOG2 PUSH5 0x6970667358 0x22 SLT KECCAK256 0xD2 DUP14 0xED PUSH12 0x2E7919231AD5E4AA8F98EC42 MUL 0xB0 0xD5 0x28 0x49 CALLDATACOPY DUP13 0xAC PUSH7 0xA0A225BEC907F6 PUSH5 0x736F6C6343 STOP ADDMOD 0xC STOP CALLER "
				},
				"gasEstimates": {
					"creation": {
						"codeDepositCost": "1311400",
						"executionCost": "infinite",
						"totalCost": "infinite"
					},
					"external": {
						"createRandomFungus(string)": "infinite",
						"feed(uint256,uint256)": "infinite",
						"fungi(uint256)": "infinite",
						"fungusToOwner(uint256)": "2840",
						"getFungiByOwner(address)": "infinite",
						"owner()": "2588",
						"ownerFungusCount(address)": "2836",
						"renounceOwnership()": "30442",
						"setFeedFactoryContractAddress(address)": "27075",
						"transferOwnership(address)": "30835"
					},
					"internal": {
						"_isReady(struct FungusFactory.Fungus memory)": "infinite",
						"_triggerCooldown(struct FungusFactory.Fungus memory)": "infinite",
						"feedAndMultiply(uint256,uint256,string memory)": "infinite"
					}
				},
				"methodIdentifiers": {
					"createRandomFungus(string)": "5a1e6313",
					"feed(uint256,uint256)": "6d6aa5bb",
					"fungi(uint256)": "6bdfcef9",
					"fungusToOwner(uint256)": "0e17f883",
					"getFungiByOwner(address)": "1e1694cb",
					"owner()": "8da5cb5b",
					"ownerFungusCount(address)": "703b3d38",
					"renounceOwnership()": "715018a6",
					"setFeedFactoryContractAddress(address)": "6c506e8a",
					"transferOwnership(address)": "f2fde38b"
				}
			},
			"storageLayout": {
				"storage": [
					{
						"astId": 7,
						"contract": "contracts/FungusFeeding.sol:FungusFeeding",
						"label": "_owner",
						"offset": 0,
						"slot": "0",
						"type": "t_address"
					},
					{
						"astId": 150,
						"contract": "contracts/FungusFeeding.sol:FungusFeeding",
						"label": "dnaDigits",
						"offset": 0,
						"slot": "1",
						"type": "t_uint256"
					},
					{
						"astId": 155,
						"contract": "contracts/FungusFeeding.sol:FungusFeeding",
						"label": "dnaModulus",
						"offset": 0,
						"slot": "2",
						"type": "t_uint256"
					},
					{
						"astId": 158,
						"contract": "contracts/FungusFeeding.sol:FungusFeeding",
						"label": "cooldownTime",
						"offset": 0,
						"slot": "3",
						"type": "t_uint256"
					},
					{
						"astId": 169,
						"contract": "contracts/FungusFeeding.sol:FungusFeeding",
						"label": "fungi",
						"offset": 0,
						"slot": "4",
						"type": "t_array(t_struct(Fungus)165_storage)dyn_storage"
					},
					{
						"astId": 173,
						"contract": "contracts/FungusFeeding.sol:FungusFeeding",
						"label": "fungusToOwner",
						"offset": 0,
						"slot": "5",
						"type": "t_mapping(t_uint256,t_address)"
					},
					{
						"astId": 177,
						"contract": "contracts/FungusFeeding.sol:FungusFeeding",
						"label": "ownerFungusCount",
						"offset": 0,
						"slot": "6",
						"type": "t_mapping(t_address,t_uint256)"
					},
					{
						"astId": 368,
						"contract": "contracts/FungusFeeding.sol:FungusFeeding",
						"label": "feedContract",
						"offset": 0,
						"slot": "7",
						"type": "t_contract(FeedFactoryInterface)363"
					}
				],
				"types": {
					"t_address": {
						"encoding": "inplace",
						"label": "address",
						"numberOfBytes": "20"
					},
					"t_array(t_struct(Fungus)165_storage)dyn_storage": {
						"base": "t_struct(Fungus)165_storage",
						"encoding": "dynamic_array",
						"label": "struct FungusFactory.Fungus[]",
						"numberOfBytes": "32"
					},
					"t_contract(FeedFactoryInterface)363": {
						"encoding": "inplace",
						"label": "contract FeedFactoryInterface",
						"numberOfBytes": "20"
					},
					"t_mapping(t_address,t_uint256)": {
						"encoding": "mapping",
						"key": "t_address",
						"label": "mapping(address => uint256)",
						"numberOfBytes": "32",
						"value": "t_uint256"
					},
					"t_mapping(t_uint256,t_address)": {
						"encoding": "mapping",
						"key": "t_uint256",
						"label": "mapping(uint256 => address)",
						"numberOfBytes": "32",
						"value": "t_address"
					},
					"t_string_storage": {
						"encoding": "bytes",
						"label": "string",
						"numberOfBytes": "32"
					},
					"t_struct(Fungus)165_storage": {
						"encoding": "inplace",
						"label": "struct FungusFactory.Fungus",
						"members": [
							{
								"astId": 160,
								"contract": "contracts/FungusFeeding.sol:FungusFeeding",
								"label": "name",
								"offset": 0,
								"slot": "0",
								"type": "t_string_storage"
							},
							{
								"astId": 162,
								"contract": "contracts/FungusFeeding.sol:FungusFeeding",
								"label": "dna",
								"offset": 0,
								"slot": "1",
								"type": "t_uint256"
							},
							{
								"astId": 164,
								"contract": "contracts/FungusFeeding.sol:FungusFeeding",
								"label": "readyTime",
								"offset": 0,
								"slot": "2",
								"type": "t_uint32"
							}
						],
						"numberOfBytes": "96"
					},
					"t_uint256": {
						"encoding": "inplace",
						"label": "uint256",
						"numberOfBytes": "32"
					},
					"t_uint32": {
						"encoding": "inplace",
						"label": "uint32",
						"numberOfBytes": "4"
					}
				}
			},
			"userdoc": {
				"kind": "user",
				"methods": {},
				"version": 1
			}
		}
	}
}